:020000040000FA
:040000005EEF00F0BF
:100008005482FACF09F0FBCF0AF0F2A80EEF00F005
:1000180010EF00F01BEF00F0F2A215EF00F017EF61
:1000280000F01BEF00F0D1EC30F058EF00F0F2A632
:1000380020EF00F022EF00F02DEF00F0F2A027EF04
:1000480000F029EF00F02DEF00F07FEC30F058EFD2
:1000580000F0F2AC32EF00F034EF00F058EF00F0AF
:100068009DAC39EF00F03BEF00F046EF00F09EAC9E
:1000780040EF00F042EF00F046EF00F04BEC2FF0BD
:1000880058EF00F09DA24BEF00F04DEF00F058EF55
:1000980000F09EA252EF00F054EF00F058EF00F08D
:1000A800EAEC2FF058EF00F00AC0FBFF09C0FAFF96
:1000B80054921100BFEF2CF09AC0D9FF9BC0DAFF11
:1000C800DECFF6FFDDCFF7FFF86A0800F550250A06
:1000D800D8A471EF00F073EF00F0B7EF0AF09AC000
:1000E800D9FF9BC0DAFFDE2A000EDD22000E4D6E1E
:1000F800000E4C6E4CC050F04DC051F04E684F6829
:10010800000E0001A56F000EA46FD2EF00F0508022
:100118009AC0D9FF9BC0DAFFDE2A000EDD22D2EF9B
:1001280000F050828CEF00F050848CEF00F0508685
:100138008CEF00F050888CEF00F0000EA56F010ED8
:10014800A46FD2EF00F09AC0D9FF9BC0DAFFDECFD0
:10015800F6FFDDCFF7FFF86A0800F5509E6F9F6B3A
:100168009F51000AD8B4BBEF00F0A1EF00F09E51F8
:10017800200AD8B49BEF00F0030AD8B49EEF00F031
:10018800080AD8B498EF00F0060AD8B48BEF00F04C
:100198001D0AD8B495EF00F0A1EF00F0A451A51105
:1001A800D8B4D9EF00F0DBEF00F0A7EF00F050A0D3
:1001B800E0EF00F0E2EF00F0E3EF00F050929AC0B9
:1001C800D9FF9BC0DAFFDECFF6FFDDCFF7FFF86A75
:1001D8000800F5502A0AD8A4F4EF00F0F6EF00F072
:1001E8001FEF01F09AC0D9FF9BC0DAFFDE2A000E8C
:1001F800DD229CC0D9FF9DC0DAFFDFCF9EF0020E42
:10020800DE26DFCF9FF0000EDD229EC0D9FF9FC003
:10021800DAFFDECF4CF0DDCF4DF04DBE18EF01F028
:1002280016EF01F064EF01F050804C6C4D1ED8B011
:100238004D2A64EF01F09AC0D9FF9BC0DAFFDECFE8
:1002480012F0DDCF13F07EEC20F012C04CF013C09A
:100258004DF036EF01F09AC0D9FF9BC0DAFFDE2AD5
:10026800000EDD22D00E00019E6FFF0E9F6F9AC018
:10027800D9FF9BC0DAFFDECFF6FFDDCFF7FFF86AC4
:100288000800F550A06FA16B9E51A0279F51A12394
:10029800A1510AE10A0EA05DD8A055EF01F058EF70
:1002A80001F0010E59EF01F0000EA66FA76BA651E1
:1002B800A711D8A462EF01F064EF01F02FEF01F06D
:1002C8009AC0D9FF9BC0DAFFDECFF6FFDDCFF7FF7C
:1002D800F86A0800F5502E0AD8A475EF01F077EFF8
:1002E80001F0F7EF01F0000E4F6E000E4E6E9AC04F
:1002F800D9FF9BC0DAFFDE2A000EDD229AC0D9FFA3
:100308009BC0DAFFDECFF6FFDDCFF7FFF86A080003
:10031800F5502A0AD8A493EF01F095EF01F0B2EF57
:1003280001F09AC0D9FF9BC0DAFFDE2A000EDD2259
:100338009CC0D9FF9DC0DAFFDFCF9EF0020EDE26FB
:10034800DFCF9FF0000EDD229EC0D9FF9FC0DAFFED
:10035800DECF4EF0DDCF4FF0F7EF01F09AC0D9FFB6
:100368009BC0DAFFDECF12F0DDCF13F07EEC20F079
:1003780012C04EF013C04FF0C9EF01F09AC0D9FF78
:100388009BC0DAFFDE2A000EDD22D00E00019E6F30
:10039800FF0E9F6F9AC0D9FF9BC0DAFFDECFF6FF32
:1003A800DDCFF7FFF86A0800F550A06FA16B9E51EA
:1003B800A0279F51A123A1510AE10A0EA05DD8A050
:1003C800E8EF01F0EBEF01F0010EECEF01F0000EA9
:1003D800A86FA96BA851A911D8A4F5EF01F0F7EF00
:1003E80001F0C2EF01F09AC0D9FF9BC0DAFFDECF5F
:1003F800F6FFDDCFF7FFF86A0800F550116E126AB4
:1004080031EC2CF011500001B06FB051D8B40FEF9F
:1004180002F011EF02F04DEF02F09AC0D9FF9BC035
:10042800DAFFDECF9EF0DDCF9FF0010E9E27000E93
:100438009F239EC0F6FF9FC0F7FFF86A0800F5509B
:10044800116E126A31EC2CF011500001B16FB151EC
:10045800D8B431EF02F033EF02F04DEF02F09AC05A
:10046800D9FF9BC0DAFFDECF9EF0DDCF9FF0020EF2
:100478009E27000E9F239EC0F6FF9FC0F7FFF86AD5
:100488000800F550116E126A31EC2CF01150000181
:10049800B26F9AC0D9FF9BC0DAFFDECFF6FFDDCF7F
:1004A800F7FFF86A0800F550630AD8A45EEF02F077
:1004B80060EF02F087EF02F09AC0D9FF9BC0DAFF25
:1004C800DE2A000EDD229CC0D9FF9DC0DAFFDFCFF7
:1004D8009EF0020EDE26DFCF9FF0000EDD229EC0CA
:1004E800D9FF9FC0DAFFDF50BD6F98C026F099C0D2
:1004F80027F0BDC028F0ECEC2CF026C098F027C0FF
:1005080099F0D3EF0AF09AC0D9FF9BC0DAFFDECF8B
:100518000BF0DDCF0CF0C60E0D6EFF0E0E6E000E4A
:10052800106E030E0F6E8CEC25F00B500C10D8B427
:10053800A0EF02F0A2EF02F0BDEF02F09AC0D9FFDF
:100548009BC0DAFFDECF0BF0DDCF0CF0CE0E0D6EC8
:10055800FF0E0E6E000E106E030E0F6E8CEC25F063
:100568000B500C10D8A4BBEF02F0BDEF02F0FEEF69
:1005780002F0030E9AC0D9FF9BC0DAFFDE26000EF8
:10058800DD229CC0D9FF9DC0DAFFDFCF9EF0020EAE
:10059800DE26DFCF9FF0000EDD229EC0D9FF9FC070
:1005A800DAFFDF500001B36F000EB3BFFF0EB46F68
:1005B800B56FB66FB76FB86FB96FBA6F98C026F0DE
:1005C80099C027F0B3C028F0B4C029F0B5C02AF00C
:1005D800B6C02BF0B7C02CF0B8C02DF0B9C02EF0C3
:1005E800BAC02FF021EC1AF026C098F027C099F075
:1005F800D3EF0AF09AC0D9FF9BC0DAFFDECF0BF029
:10060800DDCF0CF0C70E0D6EFF0E0E6E000E106ED5
:10061800020E0F6E8CEC25F00B500C10D8B417EFAF
:1006280003F019EF03F034EF03F09AC0D9FF9BC031
:10063800DAFFDECF0BF0DDCF0CF0CF0E0D6EFF0E24
:100648000E6E000E106E020E0F6E8CEC25F00B5025
:100658000C10D8A432EF03F034EF03F05CEF03F092
:10066800020E9AC0D9FF9BC0DAFFDE26000EDD22FB
:100678009CC0D9FF9DC0DAFFDFCF9EF0020EDE26B8
:10068800DFCF9FF0000EDD229EC0D9FF9FC0DAFFAA
:10069800DECFB3F0DDCFB4F00001000EB4BFFF0E23
:1006A800B56FB66FB76FB86FB96FBA6FE2EF02F098
:1006B8009AC0D9FF9BC0DAFFDECFF6FFDDCFF7FF88
:1006C800F86A0800F550640AD8B46DEF03F06FEFCC
:1006D80003F082EF03F09AC0D9FF9BC0DAFFDECFA8
:1006E800F6FFDDCFF7FFF86A0800F550690AD8A4CD
:1006F80080EF03F082EF03F0A9EF03F09AC0D9FF6F
:100708009BC0DAFFDE2A000EDD229CC0D9FF9DC007
:10071800DAFFDFCF9EF0020EDE26DFCF9FF0000E5D
:10072800DD229EC0D9FF9FC0DAFFDECFB3F0DDCF58
:10073800B4F00001000EB4BFFF0EB56FB66FB76F0F
:10074800B86FB96FBA6FE2EF02F09AC0D9FF9BC0D9
:10075800DAFFDECF0BF0DDCF0CF0E90E0D6EFF0EE9
:100768000E6E000E106E020E0F6E8CEC25F00B5004
:100778000C10D8B4C2EF03F0C4EF03F0DFEF03F0BE
:100788009AC0D9FF9BC0DAFFDECF0BF0DDCF0CF0AB
:10079800EF0E0D6EFF0E0E6E000E106E020E0F6E37
:1007A8008CEC25F00B500C10D8A4DDEF03F0DFEF34
:1007B80003F008EF04F0020E9AC0D9FF9BC0DAFFDD
:1007C800DE26000EDD229CC0D9FF9DC0DAFFDFCFF8
:1007D8009EF0020EDE26DFCF9FF0000EDD229EC0C7
:1007E800D9FF9FC0DAFFDECFA0F0DDCFA1F0A0C017
:1007F800B3F0A1C0B4F00001B56BB66BB76BB86BC2
:10080800B96BBA6BE2EF02F0660E0001B019D8A41A
:1008180010EF04F012EF04F053EF04F09AC0D9FF80
:100828009BC0DAFFDECFF6FFDDCFF7FFF86A0800DE
:10083800F5CFBDF09AC0D9FF9BC0DAFFDE2A000EC3
:10084800DD229CC0D9FF9DC0DAFFDFCF9EF0040EE9
:10085800DE26DFCF9FF0000EDD229EC0D9FF9FC0AD
:10086800DAFFDECFACF0DECFADF0DECFAEF0DECF1C
:10087800AFF098C03EF099C03FF0ACC040F0ADC0BA
:1008880041F0AEC042F0AFC043F0BDC044F0D4EC7C
:100898000AF03EC098F03FC099F0D3EF0AF0B00ECE
:1008A8000B6E000E0C6EEC0E0D6EFF0E0E6E000E33
:1008B800106E020E0F6E8CEC25F00B500C10D8A4A5
:1008C80068EF04F06AEF04F0E8EF04F09AC0D9FF8B
:1008D8009BC0DAFFDECF9EF0DDCF9FF0010E000156
:1008E8009E27000E9F239EC0F6FF9FC0F7FFF86A61
:1008F8000800F5CFBDF0BF0E9E6FFF0E9F6F9AC028
:10090800D9FF9BC0DAFFDECFF6FFDDCFF7FFF86A2D
:100918000800F550A06FA16B9E51A0279F51A123FD
:10092800A1510AE11A0EA05DD8A09DEF04F0A0EF36
:1009380004F0010EA1EF04F0000EAA6FAB6BAA51F0
:10094800AB11D8B4AAEF04F0ACEF04F0C6EF04F092
:100958009CC0D9FF9DC0DAFFDFCF9EF0040EDE26D3
:10096800DFCF9FF0000EDD229EC0D9FF9FC0DAFFC7
:10097800DECFACF0DECFADF0DECFAEF0DECFAFF045
:10098800DEEF04F09CC0D9FF9DC0DAFFDFCF9EF0F8
:10099800040EDE26DFCF9FF0000EDD229EC0D9FFB9
:1009A8009FC0DAFFDECFACF0DECFADF0DECFAEF029
:1009B800DECFAFF0020E9AC0D9FF9BC0DAFFDE2669
:1009C800000EDD223DEF04F09AC0D9FF9BC0DAFF8C
:1009D800DECF0BF0DDCF0CF0DA0E0D6EFF0E0E6ED3
:1009E800000E106E030E0F6E8CEC25F00B500C10E1
:1009F800D8A401EF05F003EF05F043EF05F0030E6F
:100A08009AC0D9FF9BC0DAFFDE26000EDD229CC00B
:100A1800D9FF9DC0DAFFDFCF9EF0020EDE26DFCFC2
:100A28009FF0000EDD229EC0D9FF9FC0DAFFDF5085
:100A38000001A06FA051BE6FBF6BC06BC16BC26BD2
:100A4800C36BC46BC56B98C026F099C027F0BEC0B5
:100A580028F0BFC029F0C0C02AF0C1C02BF0C2C026
:100A68002CF0C3C02DF0C4C02EF0C5C02FF0AFECE1
:100A78001EF026C098F027C099F0D3EF0AF09AC06C
:100A8800D9FF9BC0DAFFDECF0BF0DDCF0CF0DB0E19
:100A98000D6EFF0E0E6E000E106E020E0F6E8CECB9
:100AA80025F00B500C10D8A45CEF05F05EEF05F0B4
:100AB80087EF05F0020E9AC0D9FF9BC0DAFFDE2649
:100AC800000EDD229CC0D9FF9DC0DAFFDFCF9EF06B
:100AD800020EDE26DFCF9FF0000EDD229EC0D9FF7A
:100AE8009FC0DAFFDECFA0F0DDCFA1F0A0C0BEF03E
:100AF800A1C0BFF00001C06BC16BC26BC36BC46BFC
:100B0800C56B27EF05F09AC0D9FF9BC0DAFFDECF8F
:100B1800F6FFDDCFF7FFF86A0800F5506F0AD8A492
:100B280098EF05F09AEF05F0C2EF05F09AC0D9FFEB
:100B38009BC0DAFFDE2A000EDD229CC0D9FF9DC0D3
:100B4800DAFFDFCF9EF0020EDE26DFCF9FF0000E29
:100B5800DD229EC0D9FF9FC0DAFFDECFA0F0DDCF37
:100B6800A1F0A0C0BEF0A1C0BFF00001C06BC16B76
:100B7800C26BC36BC46BC56B27EF05F09AC0D9FF76
:100B88009BC0DAFFDECF0BF0DDCF0CF0F50E0D6E5B
:100B9800FF0E0E6E000E106E020E0F6E8CEC25F01E
:100BA8000B500C10D8A4DBEF05F0DDEF05F006EFD5
:100BB80006F0020E9AC0D9FF9BC0DAFFDE26000EAF
:100BC800DD229CC0D9FF9DC0DAFFDFCF9EF0020E68
:100BD800DE26DFCF9FF0000EDD229EC0D9FF9FC02A
:100BE800DAFFDECFA0F0DDCFA1F0A0C0BEF0A1C03B
:100BF800BFF00001C06BC16BC26BC36BC46BC56B2C
:100C080027EF05F09AC0D9FF9BC0DAFFDECF0BF0C3
:100C1800DDCF0CF0D60E0D6EFF0E0E6E000E106EB0
:100C2800030E0F6E8CEC25F00B500C10D8A41FEFA0
:100C380006F021EF06F04AEF06F0030E9AC0D9FF3E
:100C48009BC0DAFFDE26000EDD229CC0D9FF9DC0C6
:100C5800DAFFDFCF9EF0020EDE26DFCF9FF0000E18
:100C6800DD229EC0D9FF9FC0DAFFDECFBBF0DDCF0B
:100C7800BCF0BBC0D9FFBCC0DAFF4AC0DFFF000E22
:100C88000001996F000E986FD3EF0AF09AC0D9FF50
:100C98009BC0DAFFDECF0BF0DDCF0CF0D70E0D6E68
:100CA800FF0E0E6E000E106E020E0F6E8CEC25F00D
:100CB8000B500C10D8A463EF06F065EF06F08BEF2D
:100CC80006F0020E9AC0D9FF9BC0DAFFDE26000E9E
:100CD800DD229CC0D9FF9DC0DAFFDFCF9EF0020E57
:100CE800DE26DFCF9FF0000EDD229EC0D9FF9FC019
:100CF800DAFFDECFBBF0DDCFBCF0BBC0D9FFBCC094
:100D0800DAFF4AC0DEFF4BC0DDFF43EF06F09AC0B2
:100D1800D9FF9BC0DAFFDECFF6FFDDCFF7FFF86A19
:100D28000800F5506E0AD8A49CEF06F09EEF06F076
:100D3800C3EF06F09AC0D9FF9BC0DAFFDE2A000E87
:100D4800DD229CC0D9FF9DC0DAFFDFCF9EF0020EE6
:100D5800DE26DFCF9FF0000EDD229EC0D9FF9FC0A8
:100D6800DAFFDECFBBF0DDCFBCF0BBC0D9FFBCC023
:100D7800DAFF4AC0DEFF4BC0DDFF43EF06F09AC042
:100D8800D9FF9BC0DAFFDECF0BF0DDCF0CF0F20EFF
:100D98000D6EFF0E0E6E000E106E020E0F6E8CECB6
:100DA80025F00B500C10D8A4DCEF06F0DEEF06F0AF
:100DB80004EF07F0020E9AC0D9FF9BC0DAFFDE26C7
:100DC800000EDD229CC0D9FF9DC0DAFFDFCF9EF068
:100DD800020EDE26DFCF9FF0000EDD229EC0D9FF77
:100DE8009FC0DAFFDECFBBF0DDCFBCF0BBC0D9FFC0
:100DF800BCC0DAFF4AC0DEFF4BC0DDFF43EF06F0A0
:100E08009AC0D9FF9BC0DAFFDECFF6FFDDCFF7FF30
:100E1800F86A0800F550700AD8A415EF07F017EF24
:100E280007F05BEF07F09AC0D9FF9BC0DAFFDE2A14
:100E3800000EDD229CC0D9FF9DC0DAFFDFCF9EF0F7
:100E4800020EDE26DFCF9FF0000EDD229EC0D9FF06
:100E58009FC0DAFFDECFA0F0DDCFA1F0A0C0BEF0CA
:100E6800A1C0BFF00001C06BC16BC26BC36BC46B88
:100E7800C56B98C026F099C027F0BEC028F0BFC047
:100E880029F0C0C02AF0C1C02BF0C2C02CF0C3C0EA
:100E98002DF0C4C02EF0C5C02FF0780E306EB2EC25
:100EA80018F026C098F027C099F0D3EF0AF09AC03E
:100EB800D9FF9BC0DAFFDECFF6FFDDCFF7FFF86A78
:100EC8000800F550730AD8A46CEF07F06EEF07F02E
:100ED80099EF07F09AC0D9FF9BC0DAFFDE2A000E0F
:100EE800DD229CC0D9FF9DC0DAFFDFCF9EF0020E45
:100EF800DE26DFCF9FF0000EDD229EC0D9FF9FC007
:100F0800DAFFDECFA2F0DDCFA3F098C014F099C0CD
:100F180015F0A2C016F0A3C017F00FEC22F014C011
:100F280098F015C099F0D3EF0AF09AC0D9FF9BC08A
:100F3800DAFFDECF0BF0DDCF0CF0DE0E0D6EFF0E0C
:100F48000E6E000E106E030E0F6E8CEC25F00B501B
:100F58000C10D8A4B2EF07F0B4EF07F0F4EF07F0E5
:100F6800030E9AC0D9FF9BC0DAFFDE26000EDD22F1
:100F78009CC0D9FF9DC0DAFFDFCF9EF0020EDE26AF
:100F8800DFCF9FF0000EDD229EC0D9FF9FC0DAFFA1
:100F9800DF500001A06FA051BE6FBF6BC06BC16B6B
:100FA800C26BC36BC46BC56B98C026F099C027F0A1
:100FB800BEC028F0BFC029F0C0C02AF0C1C02BF0C5
:100FC800C2C02CF0C3C02DF0C4C02EF0C5C02FF095
:100FD800AFEC1DF026C098F027C099F0D3EF0AF0C7
:100FE8009AC0D9FF9BC0DAFFDECF0BF0DDCF0CF043
:100FF800DF0E0D6EFF0E0E6E000E106E020E0F6EDF
:101008008CEC25F00B500C10D8A40DEF08F00FEF66
:1010180008F038EF08F0020E9AC0D9FF9BC0DAFF3B
:10102800DE26000EDD229CC0D9FF9DC0DAFFDFCF8F
:101038009EF0020EDE26DFCF9FF0000EDD229EC05E
:10104800D9FF9FC0DAFFDECFA0F0DDCFA1F0A0C0AE
:10105800BEF0A1C0BFF00001C06BC16BC26BC36B17
:10106800C46BC56BD8EF07F09AC0D9FF9BC0DAFFF5
:10107800DECFF6FFDDCFF7FFF86A0800F550750AF6
:10108800D8A449EF08F04BEF08F073EF08F09AC0C6
:10109800D9FF9BC0DAFFDE2A000EDD229CC0D9FFF3
:1010A8009DC0DAFFDFCF9EF0020EDE26DFCF9FF075
:1010B800000EDD229EC0D9FF9FC0DAFFDECFA0F070
:1010C800DDCFA1F0A0C0BEF0A1C0BFF00001C06B91
:1010D800C16BC26BC36BC46BC56BD8EF07F09AC00A
:1010E800D9FF9BC0DAFFDECF0BF0DDCF0CF0F80E96
:1010F8000D6EFF0E0E6E000E106E020E0F6E8CEC53
:1011080025F00B500C10D8A48CEF08F08EEF08F0E7
:10111800B7EF08F0020E9AC0D9FF9BC0DAFFDE26AF
:10112800000EDD229CC0D9FF9DC0DAFFDFCF9EF004
:10113800020EDE26DFCF9FF0000EDD229EC0D9FF13
:101148009FC0DAFFDECFA0F0DDCFA1F0A0C0BEF0D7
:10115800A1C0BFF00001C06BC16BC26BC36BC46B95
:10116800C56BD8EF07F09AC0D9FF9BC0DAFFDECF76
:101178000BF0DDCF0CF0E20E0D6EFF0E0E6E000EC2
:10118800106E030E0F6E8CEC25F00B500C10D8B4BB
:10119800D0EF08F0D2EF08F0EDEF08F09AC0D9FFD1
:1011A8009BC0DAFFDECF0BF0DDCF0CF0C20E0D6E68
:1011B800FF0E0E6E000E106E030E0F6E8CEC25F0F7
:1011C8000B500C10D8A4EBEF08F0EDEF08F043EF4C
:1011D80009F09AC0D9FF9BC0DAFFDECF9EF0DDCFC1
:1011E8009FF0020E00019E27000E9F239EC0F6FF6F
:1011F8009FC0F7FFF86A0800F5CFBDF0030E9AC04C
:10120800D9FF9BC0DAFFDE26000EDD229CC0D9FF85
:101218009DC0DAFFDFCF9EF0020EDE26DFCF9FF003
:10122800000EDD229EC0D9FF9FC0DAFFDF50A06FFD
:10123800A051BE6FBF6BC06BC16BC26BC36BC46B7D
:10124800C56B98C026F099C027F0BEC028F0BFC073
:1012580029F0C0C02AF0C1C02BF0C2C02CF0C3C016
:101268002DF0C4C02EF0C5C02FF0BDC030F0B2ECD8
:1012780018F026C098F027C099F0D3EF0AF09AC06A
:10128800D9FF9BC0DAFFDECF0BF0DDCF0CF0E30E09
:101298000D6EFF0E0E6E000E106E020E0F6E8CECB1
:1012A80025F00B500C10D8B45CEF09F05EEF09F094
:1012B80079EF09F09AC0D9FF9BC0DAFFDECF0BF0B7
:1012C800DDCF0CF0C30E0D6EFF0E0E6E000E106E0D
:1012D800020E0F6E8CEC25F00B500C10D8A477EF93
:1012E80009F079EF09F0B6EF09F09AC0D9FF9BC071
:1012F800DAFFDECF9EF0DDCF9FF0010E00019E27C2
:10130800000E9F239EC0F6FF9FC0F7FFF86A0800F3
:10131800F5CFBDF0020E9AC0D9FF9BC0DAFFDE26DA
:10132800000EDD229CC0D9FF9DC0DAFFDFCF9EF002
:10133800020EDE26DFCF9FF0000EDD229EC0D9FF11
:101348009FC0DAFFDECFA0F0DDCFA1F0A0C0BEF0D5
:10135800A1C0BFF0C06BC16BC26BC36BC46BC56B64
:1013680025EF09F09AC0D9FF9BC0DAFFDECFF6FF60
:10137800DDCFF7FFF86A0800F550780AD8B4C7EF50
:1013880009F0C9EF09F0DCEF09F09AC0D9FF9BC05A
:10139800DAFFDECFF6FFDDCFF7FFF86A0800F55079
:1013A800580AD8A4DAEF09F0DCEF09F010EF0AF0D8
:1013B8009AC0D9FF9BC0DAFFDECFF6FFDDCFF7FF7B
:1013C800F86A0800F5CFBDF09AC0D9FF9BC0DAFFD4
:1013D800DE2A000EDD229CC0D9FF9DC0DAFFDFCFD8
:1013E8009EF0020EDE26DFCF9FF0000EDD229EC0AB
:1013F800D9FF9FC0DAFFDECFA0F0DDCFA1F0A0C0FB
:10140800BEF0A1C0BFF00001C06BC16BC26BC36B63
:10141800C46BC56B25EF09F09AC0D9FF9BC0DAFFF2
:10142800DECF0BF0DDCF0CF0FB0E0D6EFF0E0E6E57
:10143800000E106E020E0F6E8CEC25F00B500C1087
:10144800D8B429EF0AF02BEF0AF046EF0AF09AC059
:10145800D9FF9BC0DAFFDECF0BF0DDCF0CF0E60E34
:101468000D6EFF0E0E6E000E106E020E0F6E8CECDF
:1014780025F00B500C10D8A444EF0AF046EF0AF000
:1014880083EF0AF09AC0D9FF9BC0DAFFDECF9EF047
:10149800DDCF9FF0010E00019E27000E9F239EC006
:1014A800F6FF9FC0F7FFF86A0800F5CFBDF0020EFF
:1014B8009AC0D9FF9BC0DAFFDE26000EDD229CC051
:1014C800D9FF9DC0DAFFDFCF9EF0020EDE26DFCF08
:1014D8009FF0000EDD229EC0D9FF9FC0DAFFDECF4D
:1014E800A0F0DDCFA1F0A0C0BEF0A1C0BFF0C06BDE
:1014F800C16BC26BC36BC46BC56B25EF09F09AC097
:10150800D9FF9BC0DAFFDECFF6FFDDCFF7FFF86A21
:101518000800F550250AD8A494EF0AF096EF0AF0CF
:10152800AEEF0AF09AC0D9FF9BC0DAFFDE2A000EA0
:10153800DD22000E0C6E250E0B6E98C00DF099C0C2
:101548000EF091EC29F0000E0001996F010E986FD2
:10155800D3EF0AF09AC0D9FF9BC0DAFFDE2A000E4B
:10156800DD2243EF06F09AC0D9FF9BC0DAFFDECF39
:10157800F6FFDDCFF7FFF86A0800F5500B6E0C6A2E
:1015880098C00DF099C00EF091EC29F09AC0D9FFDF
:101598009BC0DAFFDE2A000EDD22A7EF0AF0120058
:1015A800000E00017B6F000E7A6F40C08CF041C0C6
:1015B8008DF042C08EF043C08FF08FBFE8EF0AF085
:1015C800E6EF0AF0FEEF0AF0000E7B6F010E7A6F6D
:1015D8008CC00BF08DC00CF08EC00DF08FC00EF0DB
:1015E800C7EC2EF00BC08CF00CC08DF00DC08EF047
:1015F8000EC08FF0000E0001936F000E926F4CC06A
:101608007FF04DC080F07A517B11D8A40EEF0BF01B
:1016180010EF0BF017EF0BF050A415EF0BF017EFCE
:101628000BF031EF0BF07A517B11D8A41EEF0BF0C1
:1016380020EF0BF026EF0BF0000E656F2B0E646F9A
:101648002AEF0BF0000E656F2D0E646F64C06CF10D
:10165800924B932B7F07D8A080078CC00BF08DC0CE
:101668000CF08EC00DF08FC00EF032EC28F00B0499
:101678000C10D8A442EF0BF044EF0BF09BEF0BF0EB
:10168800BF0E456EFF0E466E4450476E486A455081
:1016980047264650482248500AE11A0E475CD8A00F
:1016A80058EF0BF05BEF0BF0010E5CEF0BF0000E48
:1016B8000001666F676B66516711D8B466EF0BF06F
:1016C80068EF0BF076EF0BF06C0E92250B6E010EA7
:1016D80093210C6EBA0E0D6EFF0E0E6E90EC2CF070
:1016E80082EF0BF06C0E92250B6E010E93210C6E9F
:1016F800CA0E0D6EFF0E0E6E90EC2CF00001FD0E62
:101708007F27FF0E80233EC01BF03FC01CF06C0EED
:101718001D6E010E1E6E7FC01FF080C020F058ECB9
:101728002AF01BC03EF01CC03FF0ACEF10F08CC09C
:101738000BF08DC00CF08EC00DF08FC00EF032ECA7
:1017480028F00B500C10D8A4ACEF0BF0AEEF0BF058
:10175800EEEF0BF0BF0E456EFF0E466E4450476E1F
:10176800486A455047264650482248500AE11A0E12
:10177800475CD8A0C2EF0BF0C5EF0BF0010EC6EF27
:101788000BF0000E0001686F696B68516911D8B4DD
:10179800D0EF0BF0D2EF0BF0E0EF0BF06C0E9225D0
:1017A8000B6E010E93210C6EBE0E0D6EFF0E0E6EAB
:1017B80090EC2CF082EF0BF06C0E92250B6E010E64
:1017C80093210C6ED20E0D6EFF0E0E6E90EC2CF067
:1017D80082EF0BF0000E0001946F000E956F800EE3
:1017E800966F3F0E976F000E916F000E906F8CC032
:1017F8000BF08DC00CF08EC00DF08FC00EF0000EF7
:101808000F6E000E106E000E116E000E126E69EC57
:101818002BF0D8B012EF0CF014EF0CF097EF0CF09F
:1018280033EF0CF094C019F095C01AF096C01BF075
:1018380097C01CF0000E1D6E000E1E6E200E1F6E4F
:10184800410E206E0DEC13F019C094F01AC095F0FB
:101858001BC096F01CC097F00001904B912B8CC0D8
:1018680032F08DC033F08EC034F08FC035F0000EEA
:101878001D6E000E1E6E200E1F6E410E206E94C04F
:1018880019F095C01AF096C01BF097C01CF00DEC2B
:1018980013F019C036F01AC037F01BC038F01CC05E
:1018A80039F0B0EC27F0D8B05CEF0CF05EEF0CF03C
:1018B80016EF0CF07EEF0CF094C00BF095C00CF016
:1018C80096C00DF097C00EF0000E0F6E000E106E51
:1018D800200E116E410E126E22EC15F00BC094F022
:1018E8000CC095F00DC096F00EC097F0000190075F
:1018F800D8A091078CC032F08DC033F08EC034F080
:101908008FC035F094C036F095C037F096C038F0E7
:1019180097C039F0B0EC27F0D8A095EF0CF097EF0E
:101928000CF060EF0CF044C011F0126A31EC2CF0AE
:1019380011500001816F81C07EF0670E8119D8A413
:10194800A8EF0CF0AAEF0CF0D0EF0CF04E504F10AF
:10195800D8A4B1EF0CF0B3EF0CF0B7EF0CF0000E19
:101968004F6E010E4E6E4FBEC4EF0CF04F5006E1A5
:101978004E04D8B0C2EF0CF0C4EF0CF0CAEF0CF074
:10198800000E7D6F060E7C6FD9EF0CF04EC07CF018
:101998004FC07DF0D9EF0CF04FBED5EF0CF0D7EF6C
:1019A8000CF0C4EF0CF0CAEF0CF0670E8119D8A444
:1019B800E0EF0CF0E2EF0CF011EF0DF091AFF0EF6B
:1019C8000CF0FC0E905DFF0E9159D8A0EEEF0CF0D4
:1019D800F0EF0CF00FEF0DF0FF0E456EFF0E466EA8
:1019E8007CC047F07DC048F0455047264650482205
:1019F8009051475C4850800A496E9151800A495875
:101A0800D8A009EF0DF00BEF0DF00FEF0DF0660EFB
:101A18007E6F11EF0DF0650E7E6F7CC074F07DC097
:101A280075F0670E8119D8A41CEF0DF01EEF0DF0AC
:101A38002EEF0DF0660E7E19D8A425EF0DF027EFD6
:101A48000DF030EF0DF091BF2EEF0DF02CEF0DF0F3
:101A580030EF0DF0744B752B660E7E19D8A437EF56
:101A68000DF039EF0DF059EF0DF091BF40EF0DF08B
:101A78003EEF0DF04CEF0DF0000E946F000E956FD9
:101A8800800E966F3F0E976F000E916F000E906F4D
:101A9800670E8119D8B453EF0DF055EF0DF059EFDB
:101AA8000DF09051742791517523000E8B6F000E25
:101AB8008A6F8CC082F08DC083F08EC084F08FC096
:101AC80085F094C060F095C061F096C062F097C050
:101AD80063F0EAEF0DF082C00BF083C00CF084C015
:101AE8000DF085C00EF094C00FF095C010F096C0B0
:101AF80011F097C012F022EC15F00BC024F00CC0C6
:101B080025F00DC026F00EC027F0A6EC1CF024C06E
:101B180086F025C087F026C088F027C089F086C0E7
:101B28000BF087C00CF088C00DF089C00EF02DECCA
:101B380027F00BC078F00CC079F082C032F083C077
:101B480033F084C034F085C035F094C01DF095C0E2
:101B58001EF096C01FF097C020F086C019F087C00D
:101B68001AF088C01BF089C01CF00DEC13F019C0E6
:101B780036F01AC037F01BC038F01CC039F08AECB8
:101B88002DF032C082F033C083F034C084F035C009
:101B980085F094C00BF095C00CF096C00DF097C07E
:101BA8000EF0000E0F6E000E106E200E116E410E1C
:101BB800126E22EC15F00BC094F00CC095F00DC01D
:101BC80096F00EC097F000018A4B8B2B74518A5DFA
:101BD8008B51800A456E7551800A4558D8A0F7EF99
:101BE8000DF0F9EF0DF06FEF0DF094C019F095C0FE
:101BF8001AF096C01BF097C01CF0000E1D6E000E68
:101C08001E6EA00E1F6E400E206E0DEC13F019C054
:101C180086F01AC087F01BC088F01CC089F082C00B
:101C280032F083C033F084C034F085C035F086C00C
:101C380036F087C037F088C038F089C039F0B0EC8A
:101C480027F0D8B02AEF0EF02CEF0EF037EF0EF099
:101C5800000E0001866F000E876F000E886F000E61
:101C6800896F60EF0EF082C00BF083C00CF084C067
:101C78000DF085C00EF086C00FF087C010F088C048
:101C880011F089C012F069EC2BF0D8A04EEF0EF0DD
:101C980050EF0EF060EF0EF0000178B156EF0EF045
:101CA80058EF0EF060EF0EF0000E866F000E876F93
:101CB800000E886F000E896F8CC00BF08DC00CF081
:101CC8008EC00DF08FC00EF086C00FF087C010F0E8
:101CD80088C011F089C012F0ADEC10F00BC082F092
:101CE8000CC083F00DC084F00EC085F060C094F085
:101CF80061C095F062C096F063C097F0650E000170
:101D08007E19D8B48AEF0EF08CEF0EF092EF0EF039
:101D180090C076F091C077F096EF0EF0000E776FD6
:101D2800000E766F000E736F000E726F000E716FEB
:101D3800000E706F000E8B6F000E8A6F92EF0FF01F
:101D480082C00BF083C00CF084C00DF085C00EF08B
:101D580094C00FF095C010F096C011F097C012F023
:101D680022EC15F00BC024F00CC025F00DC026F0B5
:101D78000EC027F0A6EC1CF024C086F025C087F022
:101D880026C088F027C089F086C00BF087C00CF009
:101D980088C00DF089C00EF02DEC27F00BC078F04C
:101DA8000CC079F050B8DBEF0EF0DDEF0EF0FBEF72
:101DB8000EF0000178517911D8A4E5EF0EF0E7EFA5
:101DC8000EF0FBEF0EF0670E8119D8A4EEEF0EF0BF
:101DD800F0EF0EF0FBEF0EF077BFF7EF0EF0F5EF38
:101DE8000EF0FBEF0EF0704B712B46EF0FF0000179
:101DF80072517311D8A403EF0FF005EF0FF02FEF16
:101E08000FF077BF0CEF0FF00AEF0FF02FEF0FF086
:101E18006C0E9225D96E010E9321DA6E2E0EDF6EAE
:101E2800924B932B7F07D8A08007000E736F010E8B
:101E3800726F2FEF0FF06C0E9225D96E010E932161
:101E4800DA6E300EDF6E924B932B7F07D8A0800797
:101E58007007D8A0710770517111D8A436EF0FF030
:101E680038EF0FF01FEF0FF06C0E9225D96E010EB0
:101E78009321DA6E7851300FDF6E924B932B7F07E8
:101E8800D8A0800782C032F083C033F084C034F019
:101E980085C035F094C01DF095C01EF096C01FF0A7
:101EA80097C020F086C019F087C01AF088C01BF0D0
:101EB80089C01CF00DEC13F019C036F01AC037F0C9
:101EC8001BC038F01CC039F08AEC2DF032C082F00B
:101ED80033C083F034C084F035C085F094C00BF073
:101EE80095C00CF096C00DF097C00EF0000E0F6E66
:101EF800000E106E200E116E410E126E22EC15F0BF
:101F08000BC094F00CC095F00DC096F00EC097F081
:101F180000017607D8A077078A4B8B2B74518A5D0E
:101F28008B51800A456E7551800A4558D8B09FEF8D
:101F38000FF0A1EF0FF0AFEF0FF093BFADEF0FF081
:101F4800935109E14B0E925DD8A0ADEF0FF0AFEFC2
:101F58000FF0A4EF0EF072517311D8A4B6EF0FF082
:101F6800B8EF0FF0C9EF0FF050A8BDEF0FF0BFEFBB
:101F78000FF0C9EF0FF06C0E9225D96E010E932168
:101F8800DA6E2E0EDF6E924B932B6C0E9225D96E65
:101F9800010E9321DA6E000EDF6E650E7E19D8A44D
:101FA800D8EF0FF0DAEF0FF087EF0BF0000E8B6F22
:101FB8004F0E8A6F6C0E8A25D96E010E8B21DA6E50
:101FC800000EDF6E000E7B6F000E7A6F91BFF1EF8F
:101FD8000FF0EFEF0FF0F9EF0FF0000E7B6F010E2F
:101FE8007A6F906D911FD8B0912B000E7D6F020E05
:101FF8007C6F2AEF10F08A07D8A08B076C0E8A2511
:10200800D96E010E8B21DA6E90C00BF091C00CF0E6
:10201800000E0E6E0A0E0D6EB9EC2AF00B50300F42
:10202800DF6E90C00BF091C00CF0000E0E6E0A0E21
:102038000D6EF6EC29F00BC090F00CC091F0000189
:102048007C07D8A07D077F07D8A080079051911101
:10205800D8A431EF10F033EF10F0FFEF0FF07DBF91
:1020680040EF10F07D5106E17C05D8B03EEF10F04E
:1020780040EF10F0FFEF0FF08A07D8A08B077A51D6
:102088007B11D8A44AEF10F04CEF10F052EF10F08B
:10209800000E6B6F2B0E6A6F56EF10F0000E6B6F11
:1020A8002D0E6A6F6C0E8A25D96E010E8B21DA6EA1
:1020B8006AC0DFFF7F07D8A080078A07D8A08B07F0
:1020C800BF0E456EFF0E466E4450476E486A455037
:1020D80047264650482248500AE11A0E475CD8A0C5
:1020E80078EF10F07BEF10F0010E7CEF10F0000E8F
:1020F8006E6F6F6B6E516F11D8A485EF10F087EF7C
:1021080010F08DEF10F0000E6D6F650E6C6F91EF93
:1021180010F0000E6D6F450E6C6F6C0E8A25D96E2F
:10212800010E8B21DA6E6CC0DFFF7F07D8A0800715
:102138006C0E92250B6E010E93210C6E6C0E8A2587
:102148000D6E010E8B210E6E90EC2CF087EF0BF0CC
:1021580012000E50800B176E0E500E24196E0DAE25
:10216800B8EF10F0BAEF10F0BBEF10F0198019506B
:10217800D8B4C1EF10F0C3EF10F0D8EF10F0192861
:10218800D8A4C9EF10F0CBEF10F0D3EF10F0000E89
:102198000B6E000E0C6E000E0D6E000E0E6E0D8E88
:1021A800000E0E6EE0EF10F0000E0B6E000E0C6EBF
:1021B800000E0D6E000E0E6E1250800B186E17502A
:1021C8001818D8B4EAEF10F0ECEF10F0EDEF10F0BB
:1021D800178C12501224186E11AEF5EF10F0F7EFAD
:1021E80010F0F8EF10F018801850D8B4FEEF10F087
:1021F80000EF11F015EF11F01828D8A406EF11F030
:1022080008EF11F010EF11F0000E0F6E000E106EB7
:10221800000E116E000E126E118E000E126E1DEF62
:1022280011F0000E0F6E000E106E000E116E000EF3
:10223800126E1950185CD8B024EF11F026EF11F087
:102248004DEF11F017AC2BEF11F02DEF11F02FEF30
:1022580011F0800E171A19C01AF018C019F01AC018
:1022680018F00BC01AF00FC00BF01AC00FF00CC01A
:102278001AF010C00CF01AC010F00DC01AF011C0FE
:102288000DF01AC011F00EC01AF012C00EF01AC0EC
:1022980012F0000E1A6E195018C013F0146A135E6B
:1022A800000E145A14BE62EF11F0145009E11A0E10
:1022B800135CD8A062EF11F064EF11F09BEF11F0FE
:1022C8000B500C100D100E10D8A46DEF11F070EF1C
:1022D80011F0010E71EF11F0000E1A6E000E0B6E68
:1022E800000E0C6E000E0D6E000E0E6E18C019F06A
:1022F800A4EF11F01AA083EF11F085EF11F08BEF26
:1023080011F0D8901A3001091A6E8DEF11F0D8909B
:102318001A320BA092EF11F094EF11F095EF11F033
:102328001A8E0E340E320D320C320B32192A185016
:10233800195CD8A0A2EF11F0A4EF11F07EEF11F014
:1023480017BCA9EF11F0ABEF11F0EBEF11F019503A
:10235800D8A4B1EF11F0B3EF11F0BDEF11F0000EFA
:102368000B6E000E0C6E000E0D6E000E0E6E0CEF56
:1023780013F00F500B2610500C2211500D22125042
:102388000E220EA0CAEF11F0CCEF11F078EF12F088
:102398001AA0D1EF11F0D3EF11F0D9EF11F0D890C6
:1023A8001A3001091A6EDBEF11F0D8901A320BA01F
:1023B800E0EF11F0E2EF11F0E3EF11F01A8E0E34B6
:1023C8000E320D320C320B32192A78EF12F00F5000
:1023D8000B5C10500C5811500D580E50800A136E9B
:1023E8001250800A1358D8B0FCEF11F0FEEF11F02C
:1023F80029EF12F00B500F5C136E0C501058146E2E
:102408000D501158156E0E501258166EFF0E1324EB
:102418000B6EFF0E14200C6EFF0E15200D6EFF0EB6
:1024280016200E6E800E171A1A6C1A50D8A41FEFB9
:1024380012F021EF12F031EF12F0010E0B26000E10
:102448000C220D220E2231EF12F00F500B5E1050AD
:102458000C5A11500D5A12500E5A0B500C100D10E8
:102468000E10D8A43AEF12F03CEF12F071EF12F010
:102478001A50D8A442EF12F044EF12F071EF12F0A4
:10248800000E0B6E000E0C6E000E0D6E000E0E6E22
:102498000CEF13F0D8900B360C360D360E361AAEFC
:1024A80058EF12F05AEF12F05BEF12F00B801AA0FF
:1024B80060EF12F062EF12F066EF12F0D8801A3671
:1024C80068EF12F0D8901A361950D8B46EEF12F09F
:1024D80070EF12F071EF12F019060DAE76EF12F0F0
:1024E80078EF12F04EEF12F0000E186E1AAE7FEF72
:1024F80012F081EF12F099EF12F01AC013F07F0E6C
:102508001316D8B48AEF12F08CEF12F090EF12F095
:10251800010E186E99EF12F00BA095EF12F097EFDD
:1025280012F099EF12F08CEF12F01850D8B49FEF18
:1025380012F0A1EF12F0CCEF12F0010E0B26000EF4
:102548000C220D220E220EA0ACEF12F0AEEF12F00C
:10255800CCEF12F00BC013F00CC014F00DC015F046
:102568000EC016F01634163215321432133213C058
:102578000BF014C00CF015C00DF016C00EF01928A1
:10258800D8B4C9EF12F0CBEF12F0CCEF12F0192A41
:102598001928D8B4D2EF12F0D4EF12F0DCEF12F011
:1025A8001950D8A4DAEF12F0DCEF12F0EEEF12F0C7
:1025B800000E0B6E000E0C6E000E0D6E000E0E6EF1
:1025C8001950D8A4EAEF12F0ECEF12F0EEEF12F087
:1025D800000E176E19A0F3EF12F0F5EF12F0F8EFF6
:1025E80012F00D8EF9EF12F00D9ED89019300E6E84
:1025F80017AE01EF13F003EF13F004EF13F00E8E94
:102608000BC00BF00CC00CF00DC00DF00EC00EF09E
:1026180012001C50800B256E1C501C242B6E1BAE08
:1026280018EF13F01AEF13F01BEF13F02B802B5059
:10263800D8B421EF13F023EF13F036EF13F02B2863
:10264800D8A429EF13F02BEF13F033EF13F0000E9B
:10265800196E000E1A6E000E1B6E000E1C6E1B8E7D
:102668003EEF13F0000E196E000E1A6E000E1B6E70
:10267800000E1C6E2050800B251A20502024266E38
:102688001FAE49EF13F04BEF13F04CEF13F0268019
:102698002650D8B452EF13F054EF13F067EF13F04D
:1026A8002628D8A45AEF13F05CEF13F064EF13F068
:1026B800000E1D6E000E1E6E000E1F6E000E206EA8
:1026C8001F8E6FEF13F0000E1D6E000E1E6E000EB3
:1026D8001F6E000E206E2650D8B475EF13F077EFFA
:1026E80013F07FEF13F02B50D8A47DEF13F07FEF9A
:1026F80013F089EF13F0000E196E000E1A6E000E1B
:102708001B6E000E1C6E21EF15F01F501902F3CF3F
:1027180030F0F4CF31F03050276E286A296A2A6ADF
:1027280031502C6E2D6A2E6A2F6A1E501A02F3CF72
:1027380030F0F4CF31F030502726000E282229221D
:102748002A2231502C26000E2D222E222F221D50F7
:102758001B02F3CF30F0F4CF31F030502726000EB3
:10276800282229222A2231502C26000E2D222E2200
:102778002F2229C02AF028C029F027C028F0276A6C
:102788001D501A02F3CF30F0F4CF31F03050272625
:1027980031502822000E2922000E2A221E5019022A
:1027A800F3CF30F0F4CF31F03050272631502822C3
:1027B800000E2922000E2A2229C02AF028C029F05A
:1027C80027C028F0276A1D501902F3CF30F0F4CF44
:1027D80031F03050272631502822000E2922000ED1
:1027E8002A221F501A02F3CF30F0F4CF31F03050C4
:1027F8002C2631502D22000E2E22000E2F221E5084
:102808001B02F3CF30F0F4CF31F030502C2631508A
:102818002D22000E2E22000E2F221F501B02F3CF56
:1028280030F0F4CF31F03050216E3150226E236AEF
:10283800246A23C024F022C023F021C022F0216A98
:1028480021502C2622502D2223502E2224502F2274
:1028580027C021F028C022F029C023F02AC024F084
:10286800190E3CEF14F0D890243223322232213250
:10287800E82E37EF14F021502C2622502D22235019
:102888002E2224502F2229C02AF028C029F027C040
:1028980028F0276A26502BC021F0226A2126000E34
:1028A8002222820E2124306EFF0E2220316E72EF1A
:1028B80014F0D8902C362D362E362F362AAE67EFE8
:1028C80014F069EF14F06AEF14F02C80D8902736D2
:1028D800283629362A363006D8A031062EAE77EFAC
:1028E80014F079EF14F05DEF14F0000E266E2AAEA6
:1028F80080EF14F082EF14F0A6EF14F0FF0E271407
:10290800216EFF0E2814226EFF0E2914236E7F0EEF
:102918002A14246E2150221023102410D8B497EFC3
:1029280014F099EF14F09DEF14F0010E266EA6EF47
:1029380014F02CA0A2EF14F0A4EF14F0A6EF14F0FA
:1029480099EF14F02650D8B4ACEF14F0AEEF14F0B1
:10295800D2EF14F0010E2C26000E2D222E222F224B
:102968002FA0B9EF14F0BBEF14F0D2EF14F02CC085
:1029780021F02DC022F02EC023F02FC024F02434E3
:10298800243223322232213221C02CF022C02DF0F1
:1029980023C02EF024C02FF0304A312A31BEDDEF9B
:1029A80014F0315008E13028D8A0DDEF14F0DFEF43
:1029B80014F0E9EF14F0000E2C6E000E2D6E800E50
:1029C8002E6E7F0E2F6E17EF15F031BEF6EF14F056
:1029D800315006E13004D8B0F4EF14F0F6EF14F0FB
:1029E80002EF15F0000E2C6E000E2D6E000E2E6EEE
:1029F800000E2F6E000E256E17EF15F030C02BF06D
:102A0800FF0E2C16FF0E2D167F0E2E16000E2F16FB
:102A18002BA011EF15F013EF15F014EF15F02E8E13
:102A2800D8902B302F6E25502F122CC019F02DC0A6
:102A38001AF02EC01BF02FC01CF012000E50800B95
:102A48001B6E0E500E24226E0DAE2DEF15F02FEFDB
:102A580015F030EF15F022802250D8B436EF15F07B
:102A680038EF15F04DEF15F02228D8A43EEF15F0F9
:102A780040EF15F048EF15F0000E0B6E000E0C6ECF
:102A8800000E0D6E000E0E6E0D8E000E0E6E55EFC2
:102A980015F0000E0B6E000E0C6E000E0D6E000E83
:102AA8000E6E1250800B1B1A12501224236E11AE98
:102AB80060EF15F062EF15F063EF15F023802350F7
:102AC800D8B469EF15F06BEF15F080EF15F02328F7
:102AD800D8A471EF15F073EF15F07BEF15F0000E29
:102AE8000F6E000E106E000E116E000E126E118E1B
:102AF800000E126E88EF15F0000E0F6E000E106EAD
:102B0800000E116E000E126E0F50101011101210E0
:102B1800D8A491EF15F093EF15F0ABEF15F0000E78
:102B28000B6E000E0C6E000E0D6E000E0E6E800EFB
:102B38000D127F0E0E121B500E120BC00BF00CC0A4
:102B48000CF00DC00DF00EC00EF0EEEF16F0225096
:102B5800D8A4B1EF15F0B3EF15F0BDEF15F0000EE6
:102B68000B6E000E0C6E000E0D6E000E0E6EEEEF6C
:102B780016F0235022C013F0146A135E000E145A84
:102B88007F0E13241C6E000E14201D6E0BC017F050
:102B98000CC018F00DC019F00EC01AF0000E0B6E24
:102BA800000E0C6E000E0D6E000E0E6E000E1E6EE8
:102BB800000E1F6E000E206E000E216E000E236E9A
:102BC8001EEF16F02350D8B4ECEF15F0EEEF15F029
:102BD80005EF16F0D8901736183619361A36D890E9
:102BE8000B360C360D360E3621AEFDEF15F0FFEF25
:102BF80015F000EF16F00B80D8901E361F362036E1
:102C080021360F50175C105018581150195812508F
:102C18001A58D8A012EF16F014EF16F01DEF16F0A0
:102C2800218C0F50175E1050185A1150195A125013
:102C38001A5A232A190E236424EF16F026EF16F0E9
:102C4800E6EF15F01750181019101A10D8B42FEF16
:102C580016F031EF16F049EF16F01E8049EF16F026
:102C6800D8900B360C360D360E3621AE3EEF16F0E8
:102C780040EF16F041EF16F00B80D8901E361F3645
:102C8800203621361C06D8A01D060DAE4EEF16F0D4
:102C980050EF16F034EF16F0000E236E21AE57EF0A
:102CA80016F059EF16F07DEF16F0FF0E1E14136E96
:102CB800FF0E1F14146EFF0E2014156E7F0E2114C4
:102CC800166E1350141015101610D8B46EEF16F0B7
:102CD80070EF16F074EF16F0010E236E7DEF16F00C
:102CE8000BA079EF16F07BEF16F07DEF16F070EF82
:102CF80016F02350D8B483EF16F085EF16F0A9EF3D
:102D080016F0010E0B26000E0C220D220E220EA02C
:102D180090EF16F092EF16F0A9EF16F00BC013F033
:102D28000CC014F00DC015F00EC016F01634163293
:102D380015321432133213C00BF014C00CF015C046
:102D48000DF016C00EF01C4A1D2A1DBEB4EF16F079
:102D58001D5008E11C28D8A0B4EF16F0B6EF16F005
:102D6800C1EF16F0000E1D6E1C68000E0B6E000EF3
:102D78000C6E000E0D6E000E0E6E1DBECEEF16F020
:102D88001D5006E11C04D8B0CCEF16F0CEEF16F0BB
:102D9800DCEF16F0000E1D6E000E1C6E000E0B6EA2
:102DA800000E0C6E000E0D6E000E0E6E000E1B6EE9
:102DB8001CC022F022A0E3EF16F0E5EF16F0E8EFD2
:102DC80016F00D8EE9EF16F00D9ED89022300E6E9B
:102DD8009FEF15F01200010E0C6E000E73EC30F030
:102DE800960E63EC2FF0EF0E0C6E000E73EC30F0C5
:102DF800030E0C6E010E73EC30F0800E0C6E010E9B
:102E080073EC30F0020E0C6E010E73EC30F0CF0E46
:102E18000C6E000E73EC30F0000E0C6E010E73ECAD
:102E280030F0C10E0C6E010E73EC30F0300E0C6EEB
:102E3800010E73EC30F0ED0E0C6E000E73EC30F0FA
:102E4800640E0C6E010E73EC30F0030E0C6E010E66
:102E580073EC30F0120E0C6E010E73EC30F0810E34
:102E68000C6E010E73EC30F0E80E0C6E000E73EC75
:102E780030F0850E0C6E010E73EC30F0000E0C6E07
:102E8800010E73EC30F0780E0C6E010E73EC30F01E
:102E9800CB0E0C6E000E73EC30F0390E0C6E010E7A
:102EA80073EC30F02C0E0C6E010E73EC30F0000E4B
:102EB8000C6E010E73EC30F0340E0C6E010E73ECD8
:102EC80030F0020E0C6E010E73EC30F0F70E0C6E43
:102ED800000E73EC30F0200E0C6E010E73EC30F027
:102EE800EA0E0C6E000E73EC30F0000E0C6E010E44
:102EF80073EC30F0000E0C6E010E73EC30F0C00E67
:102F08000C6E000E73EC30F0230E0C6E010E73EC99
:102F180030F0C10E0C6E000E73EC30F0100E0C6E1B
:102F2800010E73EC30F0C50E0C6E000E73EC30F031
:102F38003E0E0C6E010E73EC30F0280E0C6E010E76
:102F480073EC30F0C70E0C6E000E73EC30F0860E8A
:102F58000C6E010E73EC30F0360E0C6E000E73EC36
:102F680030F0480E0C6E010E73EC30F03A0E0C6E19
:102F7800000E73EC30F0550E0C6E010E73EC30F051
:102F8800B10E0C6E000E73EC30F0000E0C6E010EDC
:102F980073EC30F0180E0C6E010E73EC30F0B60EB8
:102FA8000C6E000E73EC30F0080E0C6E010E73EC14
:102FB80030F0820E0C6E010E73EC30F0270E0C6EA2
:102FC800010E73EC30F0F20E0C6E000E73EC30F064
:102FD800000E0C6E010E73EC30F0260E0C6E000E17
:102FE80073EC30F0010E0C6E010E73EC30F0E00E55
:102FF8000C6E000E73EC30F00F0E0C6E010E73ECBD
:1030080030F0310E0C6E010E73EC30F02B0E0C6E9E
:10301800010E73EC30F00C0E0C6E010E73EC30F0F8
:103028000E0E0C6E010E73EC30F0080E0C6E010ED5
:1030380073EC30F04E0E0C6E010E73EC30F0F10EA6
:103048000C6E010E73EC30F0370E0C6E010E73EC43
:1030580030F0070E0C6E010E73EC30F0100E0C6E93
:10306800010E73EC30F0030E0C6E010E73EC30F0B1
:103078000E0E0C6E010E73EC30F0090E0C6E010E84
:1030880073EC30F0000E0C6E010E73EC30F0E10EB4
:103098000C6E000E73EC30F0000E0C6E010E73EC2B
:1030A80030F00E0E0C6E010E73EC30F0140E0C6E38
:1030B800010E73EC30F0030E0C6E010E73EC30F061
:1030C800110E0C6E010E73EC30F0070E0C6E010E33
:1030D80073EC30F0310E0C6E010E73EC30F0C10E53
:1030E8000C6E010E73EC30F0480E0C6E010E73EC92
:1030F80030F0080E0C6E010E73EC30F00F0E0C6EF3
:10310800010E73EC30F00C0E0C6E010E73EC30F007
:10311800310E0C6E010E73EC30F0360E0C6E010E93
:1031280073EC30F00F0E0C6E010E73EC30F0110ED4
:103138000C6E000E73EC30F0780E63EC2FF0290E55
:103148000C6E000E73EC30F0780E63EC2FF0000E6E
:10315800156E000E146EBEEC2BF012004FBEB7EFCA
:1031680018F0B9EF18F0BAEF18F050924FBEC7EF49
:1031780018F04F5006E14E04D8B0C5EF18F0C7EF6D
:1031880018F0CEEF18F0000E0001656F010E646FA5
:10319800D2EF18F04EC064F04FC065F04CC066F036
:1031A8004DC067F050A8DBEF18F0DDEF18F0E2EF44
:1031B80018F00001FE0E6627FF0E672328C068F08E
:1031C80029C069F02AC06AF02BC06BF02CC06CF0E3
:1031D8002DC06DF02EC06EF02FC06FF0000E0001F4
:1031E800716F4F0E706F000E0101BB6FB0EF19F0D9
:1031F8007007D8A071070F0E6815726F736B73BFD5
:103208000FEF19F0735109E10A0E725DD8A00FEFA4
:1032180019F011EF19F019EF19F0570E7225726FA6
:10322800000E7321736F1FEF19F0300E7225726F45
:10323800000E7321736FBF0E316EFF0E326E305069
:10324800336E346A315033263250342234500AE116
:103258001A0E335CD8A033EF19F036EF19F0010ECF
:1032680037EF19F0000E606F616B60516111D8B4CF
:1032780040EF19F042EF19F072EF19F09F0E316E1E
:10328800FF0E326E200E7211336E000E7311346E03
:10329800315033263250342234500AE11A0E335C4E
:1032A800D8A059EF19F05CEF19F0010E5DEF19F095
:1032B800000E626F636B62516311D8B466EF19F048
:1032C80068EF19F072EF19F072C011F073C012F0C4
:1032D80061EC2CF011C072F012C073F06C0E00019A
:1032E8007025D96E010E7121DA6E72C0DFFF640796
:1032F800D8A065076607D8A0670768C031F069C01D
:1033080032F06AC033F06BC034F06CC035F06DC079
:1033180036F06EC037F06FC038F0050E9DEF19F02B
:10332800D89038323732363235323432333232325C
:103338003132E82E94EF19F031C068F032C069F0EC
:1033480033C06AF034C06BF035C06CF036C06DF035
:1033580037C06EF038C06FF0000171BFBDEF19F0D3
:10336800715109E1020E705DD8A0BDEF19F0BFEFF1
:1033780019F0EFEF19F0685169116A116B116C11AE
:103388006D116E116F11D8A4CCEF19F0CEEF19F0B2
:10339800FCEF18F065BFDBEF19F0655106E1640535
:1033A800D8B0D9EF19F0DBEF19F0FCEF18F067BFD0
:1033B800E6EF19F0675108E16605D8A0E6EF19F0C5
:1033C800E8EF19F0EFEF19F050B2EDEF19F0EFEF69
:1033D80019F0FCEF18F050A8F4EF19F0F6EF19F017
:1033E8000CEF1AF07007D8A071076C0E7025D96E13
:1033F800010E7121DA6E30C0DFFF7007D8A07107A7
:103408006C0E7025D96E010E7121DA6E300EDF6EEA
:1034180026C01BF027C01CF06C0E70251D6E010E17
:1034280071211E6E66C01FF067C020F058EC2AF0AC
:103438001BC026F01CC027F0120028C040F029C08D
:1034480041F02AC042F02BC043F02CC044F02DC0FC
:1034580045F02EC046F02FC047F047BE36EF1AF0B1
:1034680039EF1AF0010E3AEF1AF0000E3E6E3F6A7D
:103478003E503F10D8B443EF1AF045EF1AF055EF1D
:103488001AF0471E461E451E441E431E421E411E7C
:10349800406C000E41224222432244224522462209
:1034A80047224FBE5AEF1AF05CEF1AF05DEF1AF0A0
:1034B80050924FBE6AEF1AF04F5006E14E04D8B052
:1034C80068EF1AF06AEF1AF070EF1AF0000E3B6E10
:1034D800010E3A6E74EF1AF04EC03AF04FC03BF04E
:1034E8004CC03CF04DC03DF03E503F10D8A47FEF9B
:1034F8001AF081EF1AF088EF1AF050A486EF1AF04C
:1035080088EF1AF08BEF1AF03C06D8A03D06000EA3
:10351800496E4F0E486E000E0101BB6F10EF1BF095
:103528004806D8A049066C0E4824D96E010E4920D9
:10353800DA6E40C00BF041C00CF042C00DF043C041
:103548000EF044C00FF045C010F046C011F047C05F
:1035580012F00A0E136E000E146E000E156E000E99
:10356800166E000E176E000E186E000E196E000E05
:103578001A6E41EC24F00BC030F00CC031F00DC0D5
:1035880032F00EC033F00FC034F010C035F011C067
:1035980036F012C037F030C01DF032C01EF034ECE7
:1035A8002EF01D50300FDF6E3A06D8A03B063C06C1
:1035B800D8A03D0640C00BF041C00CF042C00DF051
:1035C80043C00EF044C00FF045C010F046C011F0E3
:1035D80047C012F00A0E136E000E146E000E156E20
:1035E800000E166E000E176E000E186E000E196E85
:1035F800000E1A6E4BEC21F00BC040F00CC041F0ED
:103608000DC042F00EC043F00FC044F010C045F0AA
:1036180011C046F012C047F049BE1BEF1BF04950DD
:1036280008E14804D8A01BEF1BF01DEF1BF04DEF7D
:103638001BF04050411042104310441045104610F2
:103648004710D8A42AEF1BF02CEF1BF094EF1AF0C8
:103658003BBE39EF1BF03B5006E13A04D8B037EFD8
:103668001BF039EF1BF094EF1AF03DBE44EF1BF04E
:103678003D5008E13C04D8A044EF1BF046EF1BF096
:103688004DEF1BF050B24BEF1BF04DEF1BF094EFDA
:103698001AF03E503F10D8A454EF1BF056EF1BF021
:1036A8005DEF1BF050A45BEF1BF05DEF1BF07BEFB1
:1036B8001BF04806D8A049063E503F10D8A467EF33
:1036C8001BF069EF1BF06FEF1BF0000E396E2B0E2D
:1036D800386E73EF1BF0000E396E2D0E386E6C0EBF
:1036E8004824D96E010E4920DA6E38C0DFFF26C0A3
:1036F8001BF027C01CF06C0E48241D6E010E4920DB
:103708001E6E3CC01FF03DC020F058EC2AF01BC0D4
:1037180026F01CC027F0120012EC30F0260E0B6EBB
:103728005C0E0C6EBDEC30F06E0E0B6E600E0C6E07
:10373800C2EC30F0640E0B6E610E0C6EB8EC30F01B
:10374800000E11EC2BF0EFEC16F0000E1B6E280E9D
:103758001A6E000E1D6E960E1C6E010E1F6E180E50
:103768001E6E000E216E960E206EFF0E236EE00E6A
:10377800226E8DEC23F0000E2B6E2D0E2A6E000E9D
:103788002D6E9B0E2C6E630E2E6EFF0E2F6E000E8E
:10379800316E1F0E306E000E336E000E326EF3EC7B
:1037A80024F0000E2B6E780E2A6E000E2D6E780E09
:1037B8002C6EA60E2E6EFF0E2F6E040E316E000EAE
:1037C800306E000E336E000E326EF3EC24F0F28E83
:1037D800F6C00BF0F7C00CF00D6A0E6A000EA4ECF0
:1037E8001FF00BC019F00CC01AF00DC01BF00EC072
:1037F8001CF0810E1D6E0C0E1E6EC80E1F6E3C0E48
:10380800206E0DEC13F019C0E8F01AC0E9F01BC0E7
:10381800EAF01CC0EBF08C0E0B6E860E0C6E470E99
:103828000D6E000E0E6EF8C00FF0F9C010F0116AA0
:10383800126AA7EC26F00BC0F2F00CC0F3F0640E8D
:103848000101BC6F020EBD6F000EBF6F640EBE6F2C
:10385800980EC06FFF0EC16FF2C0C2F1F3C0C3F182
:1038680033EC2FF0000E2B6E280E2A6E000E2D6EF4
:103878000A0E2C6E640E2E6E020E2F6E040E316E22
:10388800000E306E000E336E000E326EF3EC24F034
:10389800080E0101BC6F010EBD6F000EBF6F640EF4
:1038A800BE6F840EC06FFF0EC16FE8C0C2F1E9C0E1
:1038B800C3F1EAC0C4F1EBC0C5F133EC2FF0000E40
:1038C8002B6E960E2A6E000E2D6E0A0E2C6E080EAA
:1038D8002E6E010E2F6E040E316E000E306E000E2D
:1038E800336E000E326EF3EC24F0000E0101BC6F53
:1038F800020EBD6F000EBF6F640EBE6FB10EC06FBB
:10390800FF0EC16FF0C0C2F1F1C0C3F133EC2FF06C
:10391800000E2B6E280E2A6E000E2D6E320E2C6EA7
:10392800000E2E6E020E2F6E040E316E000E306EDB
:10393800000E336E000E326EF3EC24F0ECEF1BF049
:103948005EEF00F000C134F001C135F002C136F07D
:1039580003C137F024C034F025C035F026C036F056
:1039680027C037F0810E286EFF0E296E34C02AF06A
:1039780035C02BF036C02CF037C02DF0180ECAEF2A
:103988001CF0D8902D322C322B322A32E82EC5EF7B
:103998001CF02A502824326E000E2920336E33BEC4
:1039A800DFEF1CF0335009E1170E325CD8A0DFEFCF
:1039B8001CF0E1EF1CF0EBEF1CF024C024F025C054
:1039C80025F026C026F027C027F0AEEF1DF033BE45
:1039D800F0EF1CF0F2EF1CF062EF1DF032C028F09F
:1039E800FF0E296EFF0E2A6E7F0E2B6E000E2C6EB8
:1039F800286601EF1DF009EF1DF02C342C322B3214
:103A08002A322932282EFCEF1CF029C02EF02AC0B9
:103A18002FF02BC030F02CC031F02E503414286E0B
:103A28002F503514296E305036142A6E3150371401
:103A38002B6E285029102A102B10D8A426EF1DF021
:103A480028EF1DF02AEF1DF0E1EF1CF034C028F03C
:103A580035C029F036C02AF037C02BF0200E3AEFD7
:103A68001DF0D8902B322A3229322832E82E35EF31
:103A78001DF0285029102A102B10D8B446EF1DF03D
:103A880048EF1DF050EF1DF02E5034262F503522F0
:103A980030503622315037222E1C286E2F1C296EAA
:103AA800301C2A6E311C2B6E2850341629503516BE
:103AB8002A5036162B503716A6EF1DF034C028F0C2
:103AC80035C029F036C02AF037C02BF0200E72EF2F
:103AD8001DF0D8902B322A3229322832E82E6DEF89
:103AE8001DF0285029102A102B10D8A47EEF1DF0A5
:103AF80080EF1DF08AEF1DF0000E346E000E356E5B
:103B0800000E366E000E376EA6EF1DF0D8903434D6
:103B1800286E3534296E36342A6E37342B6E285089
:103B280029102A102B10D8B49CEF1DF09EEF1DF021
:103B3800A6EF1DF0000E346E000E356E800E366E48
:103B4800BF0E376E34C024F035C025F036C026F0DD
:103B580037C027F012004FBEB4EF1DF0B6EF1DF0CE
:103B6800B7EF1DF050924FBEC4EF1DF04F5006E165
:103B78004E04D8B0C2EF1DF0C4EF1DF0CAEF1DF01F
:103B8800000E396E010E386ECEEF1DF04EC038F0C3
:103B98004FC039F04CC03AF04DC03BF028C03CF063
:103BA80029C03DF02AC03EF02BC03FF02CC040F0A9
:103BB8002DC041F02EC042F02FC043F0000E456EDC
:103BC8004F0E446E000E0101BB6F61EF1EF04406FC
:103BD800D8A045066C0E4424D96E010E4520DA6E35
:103BE8003CC00BF03DC00CF03EC00DF03FC00EF0E5
:103BF80040C00FF041C010F042C011F043C012F0B5
:103C08000A0E136E000E146E000E156E000E166E60
:103C1800000E176E000E186E000E196E000E1A6E4A
:103C280029EC29F00BC030F00CC031F00DC032F097
:103C38000EC033F00FC034F010C035F011C036F0AC
:103C480012C037F03050300FDF6E3806D8A0390672
:103C58003A06D8A03B063CC00BF03DC00CF03EC075
:103C68000DF03FC00EF040C00FF041C010F042C050
:103C780011F043C012F00A0E136E000E146E000EFF
:103C8800156E000E166E000E176E000E186E000EE2
:103C9800196E000E1A6EB1EC28F00BC03CF00CC087
:103CA8003DF00DC03EF00EC03FF00FC040F010C018
:103CB80041F011C042F012C043F044504510D8B44E
:103CC80068EF1EF06AEF1EF09AEF1EF03C503D10B0
:103CD8003E103F104010411042104310D8A477EF17
:103CE8001EF079EF1EF0EBEF1DF039BE86EF1EF0E7
:103CF800395006E13804D8B084EF1EF086EF1EF084
:103D0800EBEF1DF03BBE91EF1EF03B5008E13A048B
:103D1800D8A091EF1EF093EF1EF09AEF1EF050B26C
:103D280098EF1EF09AEF1EF0EBEF1DF026C01BF087
:103D380027C01CF06C0E44241D6E010E45201E6E1B
:103D48003AC01FF03BC020F058EC2AF01BC026F008
:103D58001CC027F012004FBEB4EF1EF0B6EF1EF0E5
:103D6800B7EF1EF050924FBEC4EF1EF04F5006E161
:103D78004E04D8B0C2EF1EF0C4EF1EF0CAEF1EF01A
:103D8800000E396E010E386ECEEF1EF04EC038F0C0
:103D98004FC039F04CC03CF04DC03DF028C03EF05B
:103DA80029C03FF02AC040F02BC041F02CC042F09F
:103DB8002DC043F02EC044F02FC045F0000E476ED2
:103DC8004F0E466E000E0101BB6F000E3B6E000EDB
:103DD8003A6E34EF1FF04606D8A04706070E3E1489
:103DE8003A6E3B6A6C0E4624D96E010E4720DA6E95
:103DF8003A50300FDF6E3806D8A039063C06D8A0F6
:103E08003D063EC030F03FC031F040C032F041C006
:103E180033F042C034F043C035F044C036F045C0FA
:103E280037F0040E21EF1FF0D89037323632353292
:103E380034323332323231323032E82E18EF1FF05A
:103E480030C03EF031C03FF032C040F033C041F0E6
:103E580034C042F035C043F036C044F037C045F0B6
:103E680047BE3FEF1FF0475008E14604D8A03FEF98
:103E78001FF041EF1FF071EF1FF03E503F10401050
:103E880041104210431044104510D8A44EEF1FF0C3
:103E980050EF1FF0EFEF1EF039BE5DEF1FF0395005
:103EA80006E13804D8B05BEF1FF05DEF1FF0EFEFCD
:103EB8001EF03DBE68EF1FF03D5008E13C04D8A05D
:103EC80068EF1FF06AEF1FF071EF1FF050B26FEF4D
:103ED8001FF071EF1FF0EFEF1EF050A876EF1FF004
:103EE80078EF1FF08FEF1FF03A503B10D8B47FEFF8
:103EF8001FF081EF1FF08FEF1FF04606D8A047068E
:103F08006C0E4624D96E010E4720DA6E300EDF6E35
:103F18003C06D8A03D0626C01BF027C01CF06C0E3E
:103F280046241D6E010E47201E6E3CC01FF03DC08A
:103F380020F058EC2AF01BC026F01CC027F0120015
:103F4800136E1350D8B4ABEF1FF0ADEF1FF0CFEFE7
:103F58001FF00EBEB4EF1FF0B2EF1FF0CFEF1FF04F
:103F68000BC00FF00CC010F00DC011F00EC012F015
:103F78000F1E101E111E121E0F2A000E10221122D3
:103F880012220FC015F010C016F011C017F012C0A1
:103F980018F0D7EF1FF00BC015F00CC016F00DC0CD
:103FA80017F00EC018F00B500C100D100E10D8A4FE
:103FB800E0EF1FF0E2EF1FF0ECEF1FF0000E0B6ECA
:103FC800000E0C6E000E0D6E000E0E6E7DEF20F0D2
:103FD800960E146EF6EF1FF0142AD8901832173286
:103FE80016321532000E15140F6E000E1614106ED0
:103FF800000E1714116EFE0E1814126E0F501010CA
:1040080011101210D8A40BEF20F00DEF20F0F0EFF4
:104018001FF01BEF20F0142A010E1526000E1622A1
:1040280017221822D8901832173216321532000E7D
:1040380015140F6E000E1614106E000E1714116E64
:10404800FF0E1814126E0F50101011101210D8A471
:1040580030EF20F032EF20F00FEF20F03AEF20F0B1
:104068001406D890153616361736183617BE3FEF91
:1040780020F041EF20F049EF20F0020E146047EFE6
:1040880020F049EF20F034EF20F014B04EEF20F08C
:1040980050EF20F051EF20F0179ED890143214C042
:1040A8000FF0106A116A126A0FC012F0116A106AD2
:1040B8000F6A0F5015121050161211501712125085
:1040C80018121350D8B46BEF20F06DEF20F075EF95
:1040D80020F00EBE74EF20F072EF20F075EF20F0A4
:1040E800188E15C00BF016C00CF017C00DF018C0D4
:1040F8000EF01200000E206E000E1F6E000E196EDC
:10410800000E186E8AEF20F0124A132A010E1E6E56
:1041180012C0F6FF13C0F7FFF86A0800F550200A2E
:10412800D8B499EF20F09BEF20F0B9EF20F0F70E0C
:10413800146EFF0E156E12C0F6FF13C0F7FFF86A73
:104148000800F550166E176A1450162615501722D7
:10415800175009E1050E165CD8A0B5EF20F0B7EFAF
:1041680020F0B9EF20F0000E1E6E1EC01AF01B6A78
:104178001A501B10D8A4C3EF20F0C5EF20F088EF29
:1041880020F0CFEF20F0000E196E010E186E124AC3
:10419800132A06EF21F012C0F6FF13C0F7FFF86AE2
:1041A8000800F550146E156A1550000AD8B4DFEFF0
:1041B80020F006EF21F014502B0AD8B4CBEF20F0F2
:1041C800060AD8B4C7EF20F006EF21F01FC00BF0A5
:1041D80020C00CF0000E0E6E0A0E0D6EFFEC2FF0D4
:1041E80012C0F6FF13C0F7FFF86A0800F5500B5E1F
:1041F800000E0C5A300E0B241F6E000E0C20206E81
:10420800CBEF20F0D00E146EFF0E156E12C0F6FF25
:1042180013C0F7FFF86A0800F550166E176A1450B5
:1042280016261550172217500AE10A0E165CD8A058
:1042380020EF21F023EF21F0010E24EF21F0000EF2
:104248001C6E1D6A1C501D10D8A42DEF21F02FEFF5
:1042580021F0EAEF20F018501910D8A436EF21F019
:1042680038EF21F046EF21F01FC014F020C015F000
:10427800141E151E144A152A14C012F015C013F086
:104288004AEF21F01FC012F020C013F01200000EF8
:104298001C6E1ABE54EF21F052EF21F066EF21F0A8
:1042A8001A1E191E181E171E161E151E141E136C14
:1042B800000E1422152216221722182219221A2259
:1042C800010E1C6E12BE6DEF21F06BEF21F07FEF37
:1042D80021F0121E111E101E0F1E0E1E0D1E0C1E8A
:1042E8000B6C000E0C220D220E220F22102211221E
:1042F8001222010E1C1A20EE1DF0070EDE6AE806D7
:10430800FDE213501410151016101710181019107C
:104318001A10D8B492EF21F094EF21F0E6EF21F0D3
:10432800010E1B6EA2EF21F0D89013361436153605
:1043380016361736183619361A361B2A1AAEA7EF4C
:1043480021F0A9EF21F098EF21F0D8901D361E3604
:104358001F362036213622362336243613500B5C7E
:1043680014500C5815500D5816500E5817500F5819
:1043780018501058195011581A501258D8A0C7EF91
:1043880021F0C9EF21F0DAEF21F013500B5E145041
:104398000C5A15500D5A16500E5A17500F5A1850DD
:1043A800105A1950115A1A50125A1D80D8901A32A0
:1043B80019321832173216321532143213321B2EB4
:1043C800A9EF21F01C50D8B4ECEF21F0EEEF21F06A
:1043D800FEEF21F0241E231E221E211E201E1F1E5A
:1043E8001E1E1D6C000E1E221F22202221222222A8
:1043F800232224221DC00BF01EC00CF01FC00DF09C
:1044080020C00EF021C00FF022C010F023C011F020
:1044180024C012F0120021EECEF010EE19F0060EB4
:10442800DBCFE3FFE806FCE216C024F017C025F056
:1044380024502510D8A423EF22F025EF22F029EFED
:1044480022F0190E246E000E256E24C00BF025C034
:104458000CF0FFEC2EF00BC028F00CC029F04EC079
:1044680026F04FC027F027BE3CEF22F03EEF22F0A7
:1044780053EF22F02850265C2750800A186E2950E6
:10448800800A1858D8A04BEF22F04DEF22F04FEFDA
:1044980022F053EF22F026C028F027C029F028C0C8
:1044A80026F029C027F04CC022F04DC023F050B0B0
:1044B80060EF22F062EF22F07FEF22F070EF22F03F
:1044C800000E0C6E200E0B6E14C00DF015C00EF011
:1044D80091EC29F0284A292A2250285C2950800A80
:1044E800186E2350800A1858D8A07DEF22F07FEF6D
:1044F80022F064EF22F0000E216E000E206E98EF7D
:1045080022F024C0D9FF25C0DAFFDF50186E1850FA
:104518000B6E0C6A14C00DF015C00EF091EC29F06A
:10452800244A252A204A212A2650205C2150800A24
:10453800186E2750800A1858D8A0A5EF22F0A7EFC8
:1045480022F085EF22F050A0ACEF22F0AEEF22F07F
:10455800CBEF22F0BCEF22F0000E0C6E200E0B6E9B
:1045680014C00DF015C00EF091EC29F0284A292A44
:104578002250285C2950800A186E2350800A185847
:10458800D8A0C9EF22F0CBEF22F0B0EF22F028C07C
:1045980014F029C015F01200000E276E70EF23F0FA
:1045A800D8901834F66E1934F76E930EF626F10E7D
:1045B800F722F86A000EF8220900F5CF1EF009006C
:1045C800F5CF1FF027501E5E000E1F5A14501E24F0
:1045D800106E15501F20116E16C012F017C013F080
:1045E800F2EC2DF0000E286E000E296E27501E6E7C
:1045F8001F6AD8901E361F36D8901834F66E1934B4
:10460800F76E930EF626F10EF722F86A000EF822DE
:104618000900F5CF20F00900F5CF21F0D890203619
:1046280021361E50205E1F50215A2850205E000E51
:10463800215A1850202619502122D8902036213688
:10464800930E2024F66EF10E2120F76EF86A000E04
:10465800F8220900F5CF22F00900F5CF23F029C090
:1046680024F0800E256E000E266E242A3FEF23F0DC
:10467800263426322532242E3CEF23F022502516EC
:104688002350261625502610D8B44DEF23F04FEFAF
:1046980023F057EF23F01AC00EF01BC00FF08BEC7D
:1046A80030F05DEF23F01CC00EF01DC00FF08BEC56
:1046B80030F0292A070E296464EF23F066EF23F00F
:1046C800FAEF22F0282A010E28646DEF23F06FEF2D
:1046D80023F0F8EF22F0272AD8901834F66E193410
:1046E800F76E930EF626F10EF722F86A000EF822FE
:1046F80027501E6E1F6A0900F5501E5C0900F55010
:104708001F58D8A08AEF23F08CEF23F0D4EF22F0C3
:1047180012001A501E5C2D6E1B501F582E6E1E5014
:104728001A5C1F501B58D8A09CEF23F09EEF23F073
:10473800A2EF23F025682668A6EF23F0000E266E68
:10474800010E256E1C50205C2F6E1D502158306EB6
:1047580020501C5C21501D58D8A0B5EF23F0B7EFAE
:1047680023F0BBEF23F027682868BFEF23F0000E83
:10477800286E010E276E1A501E5C1B501F58D8B0A9
:10478800C8EF23F0CAEF23F0CEEF23F02D6C2E1ED6
:10479800D8B02E2A20501C5C21501D58D8B0D7EF15
:1047A80023F0D9EF23F0DDEF23F02F6C301ED8B0C3
:1047B800302A2F502D24296E30502E202A6E1AC0F0
:1047C80014F01BC015F01CC016F01DC017F022C055
:1047D80018F023C019F01AEC2FF01E501A1807E130
:1047E8001F501B18D8A4FBEF23F0FDEF23F00BEFAD
:1047F80024F020501C1807E121501D18D8A407EFF9
:1048080024F009EF24F00BEF24F040EF24F0D890C7
:1048180029342B6E2A342C6E2F502B5C2C50800A96
:10482800246E3050800A2458D8A01DEF24F01FEFC2
:1048380024F027EF24F02F50292630502A22255023
:104848001A2626501B222B502D5C2E50800A246ECF
:104858002C50800A2458D8A034EF24F036EF24F0E6
:10486800E3EF23F02D5029262E502A2227501C260C
:1048780028501D22E3EF23F01200000E1C6E12BE1A
:104888004AEF24F048EF24F05CEF24F0121E111ECA
:10489800101E0F1E0E1E0D1E0C1E0B6C000E0C2281
:1048A8000D220E220F22102211221222010E1C6E3E
:1048B8001ABE63EF24F061EF24F073EF24F01A1EA0
:1048C800191E181E171E161E151E141E136C000E18
:1048D8001422152216221722182219221A221350DE
:1048E8001410151016101710181019101A10D8B423
:1048F80080EF24F082EF24F0CAEF24F0010E1B6E43
:1049080090EF24F0D890133614361536163617362D
:10491800183619361A361B2A1AAE95EF24F097EF77
:1049280024F086EF24F013500B5C14500C581550EB
:104938000D5816500E5817500F5818501058195037
:1049480011581A501258D8A0ACEF24F0AEEF24F04A
:10495800BEEF24F013500B5E14500C5A15500D5A2C
:1049680016500E5A17500F5A1850105A1950115AFB
:104978001A50125AD8901A3219321832173216327F
:104988001532143213321B2E97EF24F01C50D8B472
:10499800D0EF24F0D2EF24F0E2EF24F0121E111E23
:1049A800101E0F1E0E1E0D1E0C1E0B6C000E0C2270
:1049B8000D220E220F221022112212220BC00BF000
:1049C8000CC00CF00DC00DF00EC00EF00FC00FF0B3
:1049D80010C010F011C011F012C012F0120072EFE6
:1049E80025F0000E3B6E000E3A6E000E396E000E7A
:1049F800386E1EEF25F0D8903A34F66E3B34F76ED9
:104A0800930EF626F10EF722F86A000EF822090036
:104A1800F5CF34F00900F5CF35F0D8903436353677
:104A2800010E3426000E352234503A2635503B22EA
:104A3800384A392AE00E346EFF0E356E2EC0F6FF66
:104A48002FC0F7FF000EF86E0E0EF76403D00800B3
:104A5800F55005D0F6CFE1FFF7CFE2FFE750366E0D
:104A6800376A34503626355037223650385C37503E
:104A78003958D8A042EF25F044EF25F0FFEF24F095
:104A88002AC014F02BC015F02CC016F02DC017F05A
:104A98003AC018F03BC019F030C01AF031C01BF012
:104AA80032C01CF033C01DF0D0EC22F0D8903A345C
:104AB800F66E3B34F76E930EF626F10EF722F86A7F
:104AC800000EF8220900F5CF34F00900F5CF35F0D3
:104AD80034502A2635502B222E4A2F2A2EC0F6FF74
:104AE8002FC0F7FF000EF86E0E0EF76403D0080013
:104AF800F55005D0F6CFE1FFF7CFE2FFE750000908
:104B0800D8A489EF25F08BEF25F0F5EF24F01200FB
:104B18000BC012F00CC013F00DC014F00EC015F04D
:104B28000F06D8A010060F2806E11028D8A49FEF7A
:104B380025F0A1EF25F0AEEF25F0000E0C6E000E6B
:104B48000B6E1EEF26F0124A132A144A152A0F0676
:104B5800D8A0100612C0F6FF13C0F7FF000EF86EBB
:104B68000E0EF76403D00800F55005D0F6CFE1FF2C
:104B7800F7CFE2FFE7500009D8B4C5EF25F0C7EF3B
:104B880025F000EF26F014C0F6FF15C0F7FFF86A0D
:104B98000800F5500009D8B4D4EF25F0D6EF25F079
:104BA80000EF26F00F501010D8B4DDEF25F0DFEF3E
:104BB80025F000EF26F014C0F6FF15C0F7FFF86ADD
:104BC8000800F5CF11F012C0F6FF13C0F7FF000E72
:104BD800F86E0E0EF76403D00800F55005D0F6CF36
:104BE800E1FFF7CFE2FFE7501118D8B4FEEF25F048
:104BF80000EF26F0A7EF25F012C0F6FF13C0F7FF6D
:104C0800000EF86E0E0EF76403D00800F55005D0BC
:104C1800F6CFE1FFF7CFE2FFE750116E14C0F6FFC1
:104C280015C0F7FFF86A0800F550115C0B6E0C6AA6
:104C3800D8A00C061200800E0001D15DD8A027EF85
:104C480026F029EF26F031EF26F0000EED6F4B0E1F
:104C5800EC6FCE69CF69A6EF26F0CEC0DEF0CFC0EC
:104C6800DFF0D15109E1020ED05DD8A03EEF26F069
:104C780040EF26F04CEF26F0FF0ED025E26FFF0E36
:104C8800D121E36F000EE16F000EE06F54EF26F0C4
:104C9800000EE36F010EE26F000EE16F010EE06F90
:104CA800DE0EC66F000EC76FD2C0C8F0D3C0C9F001
:104CB800D4C0CAF0D5C0CBF0FFEC2BF0C6C0DCF0F6
:104CC800C7C0DDF00001D051D111D8B46EEF26F085
:104CD80070EF26F0A2EF26F0DDBF75EF26F077EF34
:104CE80026F0A2EF26F0FF0ED66FFF0ED76FD0C0CA
:104CF800D8F0D1C0D9F0D651D827D751D923D85117
:104D0800DC5DD951DD59D8A08CEF26F08EEF26F066
:104D180096EF26F0FF0ED025DA6FFF0ED121DB6F5C
:104D28009AEF26F0DCC0DAF0DDC0DBF0DA51CE25F0
:104D3800D96EDB51CF21DA6E000EDF6EDCC0CEF00B
:104D4800DDC0CFF01200000E146E12BEB0EF26F0D8
:104D5800AEEF26F0BAEF26F0121E111E101E0F6CD1
:104D6800000E102211221222010E146E0EBEC1EF87
:104D780026F0BFEF26F0CBEF26F00E1E0D1E0C1E00
:104D88000B6C000E0C220D220E22010E141A000EBE
:104D9800156E000E166E000E176E000E186E0F5070
:104DA800101011101210D8B4DCEF26F0DEEF26F048
:104DB80014EF27F0010E136EE8EF26F0D8900F36A7
:104DC800103611361236132A12AEEDEF26F0EFEF39
:104DD80026F0E2EF26F0D890153616361736183634
:104DE8000F500B5C10500C5811500D5812500E58A3
:104DF800D8A001EF27F003EF27F00CEF27F00F50B2
:104E08000B5E10500C5A11500D5A12500E5A158044
:104E1800D8901232113210320F32132EEFEF26F0E3
:104E28001450D8B41AEF27F01CEF27F024EF27F01E
:104E3800181E171E161E156C000E16221722182291
:104E480015C00BF016C00CF017C00DF018C00EF00E
:104E580012000D340E34146E1450D8A436EF27F017
:104E680038EF27F042EF27F0000E0B6E000E0C6EA5
:104E7800000E0D6E000E0E6EAFEF27F00BC00FF098
:104E88000CC010F00DC011F00EC012F0200E52EF41
:104E980027F0D8901232113210320F32E82E4DEF2F
:104EA80027F00F50136E0D8EFF0E0B16FF0E0C160B
:104EB800FF0E0D16000E0E16960E145E14BE69EF48
:104EC80027F067EF27F07FEF27F01450800A970F3D
:104ED800D8B071EF27F073EF27F075EF27F038EFB0
:104EE80027F0D8900E320D320C320B32143E75EF8B
:104EF80027F097EF27F01F0E146485EF27F087EF50
:104F080027F08FEF27F038EF27F0D8900B360C36C4
:104F18000D360E3614061450D8A495EF27F097EFE7
:104F280027F089EF27F01350D8B49DEF27F09FEFB3
:104F380027F0A7EF27F00E1E0D1E0C1E0B6C000E9F
:104F48000C220D220E220BC00BF00CC00CF00DC071
:104F58000DF00EC00EF01200000E32143A6E000E64
:104F680033143B6E800E34143C6E7F0E35143D6E48
:104F78003A503B103C103D10D8A4C5EF27F0C7EFBE
:104F880027F0CFEF27F0000E326E000E336E000EC2
:104F9800346E000E356E000E36143A6E000E37145D
:104FA8003B6E800E38143C6E7F0E39143D6E3A50BD
:104FB8003B103C103D10D8A4E4EF27F0E6EF27F0B3
:104FC800EEEF27F0000E366E000E376E000E386ECC
:104FD800000E396E35AEF3EF27F0F5EF27F0FEEF50
:104FE80027F0326C331ED8B0332A341ED8B0342A96
:104FF800800E355639AE03EF28F005EF28F00EEF96
:1050080028F0366C371ED8B0372A381ED8B0382A60
:10501800800E3956000E321A000E331A000E341A5A
:10502800800E351A000E361A000E371A000E381A7E
:10503800800E391A3650325C37503358385034584D
:1050480039503558D8B02BEF28F02DEF28F030EF35
:1050580028F0D89031EF28F0D880120004C115F05C
:1050680005C116F006C117F007C118F00BC015F0FE
:105078000CC016F00DC017F00EC018F015C00FF0D8
:1050880016C010F017C011F018C012F0180E52EF29
:1050980028F0D8901232113210320F32E82E4DEF2C
:1050A80028F00F50136E146A13501410D8A45FEF31
:1050B80028F061EF28F081EF28F0D89015340F6EB2
:1050C8001634106E1734116E1834126E0F501010FB
:1050D80011101210D8A473EF28F075EF28F07BEFA9
:1050E80028F0000E0C6E020E0B6EB0EF28F0000ECA
:1050F8000C6E030E0B6EB0EF28F013281410D8A412
:1051080088EF28F08AEF28F0ACEF28F015C00FF0F0
:1051180016C010F017C011F018C012F0090ED89080
:105128000F36103611361236E82E93EF28F00F504E
:10513800101011101210D8B4A4EF28F0A7EF28F01F
:10514800010EA8EF28F0000E0B6E0C6AB0EF28F0E5
:10515800000E0C6E040E0B6E120020EE1BF0070EF4
:10516800DE6AE806FDE21350141015101610171029
:10517800181019101A10D8B4C4EF28F0C6EF28F088
:1051880018EF29F0010E236ED4EF28F0D8901336CB
:105198001436153616361736183619361A36232A9F
:1051A8001AAED9EF28F0DBEF28F0CAEF28F0D89034
:1051B8001B361C361D361E361F3620362136223643
:1051C80013500B5C14500C5815500D5816500E58AF
:1051D80017500F5818501058195011581A50125883
:1051E800D8A0F9EF28F0FBEF28F00CEF29F01350C6
:1051F8000B5E14500C5A15500D5A16500E5A175073
:105208000F5A1850105A1950115A1A50125A1B8016
:10521800D8901A321932183217321632153214321F
:105228001332232EDBEF28F01BC00BF01CC00CF050
:105238001DC00DF01EC00EF01FC00FF020C010F0F2
:1052480021C011F022C012F01200135014101510D2
:1052580016101710181019101A10D8B436EF29F0B4
:1052680038EF29F080EF29F0010E1B6E46EF29F088
:10527800D8901336143615361636173618361936AA
:105288001A361B2A1AAE4BEF29F04DEF29F03CEFE6
:1052980029F013500B5C14500C5815500D5816502B
:1052A8000E5817500F5818501058195011581A50B6
:1052B8001258D8A062EF29F064EF29F074EF29F0B2
:1052C80013500B5E14500C5A15500D5A16500E5AA6
:1052D80017500F5A1850105A1950115A1A50125A7A
:1052E800D8901A321932183217321632153214324F
:1052F80013321B2E4DEF29F00BC00BF00CC00CF035
:105308000DC00DF00EC00EF00FC00FF010C010F061
:1053180011C011F012C012F012000D500E10D8B4C6
:1053280098EF29F09AEF29F0A3EF29F00D500E100D
:10533800D8A4A1EF29F0A3EF29F0A8EF29F00B508A
:10534800DFEC30F0F5EF29F020EE04F00D50D9260F
:105358000E50DA22DE50DE10D8B4B5EF29F0B7EFE0
:1053680029F0D2EF29F020EE04F00D50D9260E5086
:10537800DA2210EE02F00D50E1260E50E222DE5045
:10538800E65CE650800A136EDE50800A1358D8B0E7
:10539800D0EF29F0D2EF29F0F5EF29F020EE02F056
:1053A8000D50D9260E50DA22DECF0FF0DDCF10F0E7
:1053B8000DC0D9FF0EC0DAFFDECF11F0DDCF12F03D
:1053C8000F501124D96E10501220DA6E0BC0DFFF77
:1053D80020EE02F00D50D9260E50DA22DE2A000EF9
:1053E800DD221200000E106E0EBEFFEF29F0FDEF59
:1053F80029F005EF2AF00D6C0E1ED8B00E2A010E0A
:10540800106E0CBE0CEF2AF00AEF2AF012EF2AF009
:105418000B6C0C1ED8B00C2A010E101A000E126E5E
:10542800000E116E0D500E10D8B41DEF2AF01FEFAC
:105438002AF047EF2AF0010E0F6E27EF2AF0D890D6
:105448000D360E360F2A0EAE2CEF2AF02EEF2AF06C
:1054580023EF2AF0D890113612360D500B5C0E50FF
:105468000C58D8A03AEF2AF03CEF2AF041EF2AF086
:105478000D500B5E0E500C5A1180D8900E320D3222
:105488000F2E2EEF2AF01050D8B44DEF2AF04FEF20
:105498002AF053EF2AF0116C121ED8B0122A11C04C
:1054A8000BF012C00CF0120050A05DEF2AF05FEF75
:1054B8002AF069EF2AF01DC014F01EC015F01BC0B9
:1054C80016F01CC017F0D0EC2DF020BE6EEF2AF0BD
:1054D80070EF2AF076EF2AF01FC024F020C025F0E4
:1054E8007AEF2AF0000E256E000E246E000E236E51
:1054F800000E226E8CEF2AF0000E0C6E200E0B6E42
:105508001BC00DF01CC00EF091EC29F0224A232A92
:105518002450225C2350800A216E2550800A21588D
:10552800D8A099EF2AF09BEF2AF080EF2AF050B02C
:10553800A0EF2AF0A2EF2AF0ACEF2AF01DC014F079
:105548001EC015F01BC016F01CC017F0D0EC2DF0D3
:105558001DC00BF01EC00CF0FFEC2EF024500B24E5
:105568001B6E25500C201C6E1200000E106E0CBE17
:10557800C2EF2AF0C0EF2AF0C8EF2AF00B6C0C1E1D
:10558800D8B00C2A010E106E0EBECFEF2AF0CDEF68
:105598002AF0D3EF2AF00D6C0E1ED8B00E2A0D504B
:1055A8000E10D8B4DAEF2AF0DCEF2AF000EF2BF077
:1055B800010E0F6EE4EF2AF0D8900D360E360F2A42
:1055C8000EAEE9EF2AF0EBEF2AF0E0EF2AF00D50EB
:1055D8000B5C0E500C58D8A0F4EF2AF0F6EF2AF026
:1055E800FAEF2AF00D500B5E0E500C5AD8900E327E
:1055F8000D320F2EEBEF2AF01050D8B406EF2BF037
:1056080008EF2BF00CEF2BF00B6C0C1ED8B00C2A0B
:105618000BC00BF00CC00CF012000C6EC6BA17EFE2
:105628002BF019EF2BF068EF2BF00C50040D010E46
:10563800F326000EF4225F0EF324F66EFF0EF4201C
:10564800F76EF86A000EF8220800F5CFC7FF0C5075
:10565800040D5F0EF324F66EFF0EF420F76EF86A61
:10566800000EF8220800F5CFC6FF000EC56E0C50DC
:10567800040D020EF326000EF4225F0EF324F66EDC
:10568800FF0EF420F76EF86A000EF8220800F5CF36
:10569800C8FF0C50040D030EF326000EF4225F0E13
:1056A800F324F66EFF0EF420F76EF86A000EF82267
:1056B8000800F5CF0BF00B460B460B4694500B1821
:1056C800F70B0B18946EC68A1200000E0B14136E9B
:1056D800000E0C14146E800E0D14156E7F0E0E1431
:1056E800166E1350141015101610D8A47EEF2BF058
:1056F80080EF2BF088EF2BF0000E0B6E000E0C6E77
:10570800000E0D6E000E0E6E000E0F14136E000EBE
:105718001014146E800E1114156E7F0E1214166E6E
:105728001350141015101610D8A49DEF2BF09FEFEE
:105738002BF0A7EF2BF0000E0F6E000E106E000E70
:10574800116E000E126E0F500B180FE110500C184E
:105758000CE111500D1809E112500E18D8B4B7EF2A
:105768002BF0B9EF2BF0BCEF2BF0D890BDEF2BF05E
:10577800D8801200010E196E400E186E000E176EBA
:10578800F00E166E000E116E000E106E000E136EE7
:10579800000E126EF2EC2DF00009D8B4D6EF2BF003
:1057A800D8EF2BF0F1EF2BF0FEEF2BF014C00EF03A
:1057B80015C00FF08BEC30F01806D8A01906182881
:1057C80006E11928D8A4EBEF2BF0EDEF2BF0DAEF78
:1057D8002BF0010E196E400E186E1606D8A017068B
:1057E800162806E11728D8A4FCEF2BF0FEEF2BF0C3
:1057F800E0EF2BF01200C8C0CCF0C9C0CDF0000E0D
:105808004B6E000E4A6E1DEF2CF0C6C098F0C7C054
:1058180099F0CC0E00019A6F000E9B6FCAC09CF0E5
:10582800CBC09DF060EC00F0000198514A269951D8
:105838004B22CCC0F6FFCDC0F7FFF86A0800F55040
:105848000009D8A42AEF2CF02CEF2CF009EF2CF04B
:105858004AC0C6F04BC0C7F01200BF0E136EFF0E51
:10586800146E11C015F012C016F0135015261450FE
:10587800162216500AE11A0E155CD8A046EF2CF035
:1058880049EF2CF0010E4AEF2CF0000E176E186A43
:1058980017501810D8B453EF2CF055EF2CF05CEFDC
:1058A8002CF0200E1110116E1250126E60EF2CF0B9
:1058B80011C011F012C012F012009F0E136EFF0EED
:1058C800146E11C015F012C016F01350152614509E
:1058D800162216500AE11A0E155CD8A076EF2CF0A5
:1058E80079EF2CF0010E7AEF2CF0000E176E186A83
:1058F80017501810D8B483EF2CF085EF2CF08BEFED
:105908002CF05F0E1114116E126A8FEF2CF011C07B
:1059180011F012C012F012000DC011F00EC012F0FA
:105928000BC013F00CC014F011500F6E1250106E13
:10593800114A122A0FC0F6FF10C0F7FF000EF86ECA
:1059480013C0D9FF14C0DAFF134A142A0E0EF764E5
:1059580003D00800F55005D0F6CFE1FFF7CFE2FFFE
:10596800E750DF6EDF50D8A4BCEF2CF0BEEF2CF070
:1059780098EF2CF01200AA0EF66E610EF76E000E6C
:10598800F86E01EECEF010EE07F00900F5CFEEFF4D
:10599800E550E150FAE102EE00F0C80EEE6AE806C2
:1059A800FDE101EE00F0BC0EEE6AE806FDE100EE56
:1059B800E8F0120EEE6AE806FDE100EE4AF00A0E83
:1059C800EE6AE806FDE154905492000190EF1BF056
:1059D8004C504D10D8A4F3EF2CF0F5EF2CF0FBEF62
:1059E8002CF04CC029F04DC02AF001EF2DF0FF0E2D
:1059F8004C24296EFF0E4D202A6E28C06CF1000E33
:105A080001016D6F26C01BF027C01CF06C0E1D6EC7
:105A1800010E1E6E29C01FF02AC020F058EC2AF093
:105A28001BC026F01CC027F01200010E116E200EBC
:105A38000B180C10D8B423EF2DF025EF2DF03EEF06
:105A48002DF0F70E0D6EFF0E0E6E0BC00FF00CC092
:105A580010F00D500F260E501022105009E1050EBF
:105A68000F5CD8A03AEF2DF03CEF2DF03EEF2DF073
:105A7800000E116E11C00BF00C6A12000F5009E1F4
:105A8800F00E0E5CD8A04BEF2DF04DEF2DF050EF3F
:105A98002DF0010E65EF2DF02A0E0C6E000E73EC42
:105AA80030F00F500C6E010E73EC30F00EC00CF09D
:105AB800010E73EC30F02C0E0C6E000E73EC30F00F
:105AC800000E1200400E0E5C010E0F58D8A06FEFAA
