:020000040000FA
:0400000049EF00F0D4
:100008004D82FACF32F0FBCF33F0E1CF34F0E2CFBC
:1000180035F0F6CF36F0F7CF37F0F8CF38F0F5CF28
:1000280039F0F2A81AEF00F01CEF00F027EF00F00B
:10003800F2A221EF00F023EF00F027EF00F0D9EC57
:1000480021F037EF00F0F2A62CEF00F02EEF00F0D1
:1000580037EF00F0F2A033EF00F035EF00F037EFA4
:1000680000F084EC21F039C0F5FF38C0F8FF37C044
:10007800F7FF36C0F6FF35C0E2FF34C0E1FF33C0FA
:10008800FBFF32C0FAFF4D9211008BEF1EF0A4C0A7
:10009800D9FFA5C0DAFFDECFF6FFDDCFF7FFF86A9C
:1000A8000800F550250AD8A45CEF00F05EEF00F0D8
:1000B8006FEF09F0A4C0D9FFA5C0DAFFDE2A000E51
:1000C800DD22000E0001F46F000EF36FF3C0F7F0AD
:1000D800F4C0F8F0F569F669000EAF6F000EAE6F68
:1000E800BDEF00F0F781A4C0D9FFA5C0DAFFDE2A72
:1000F800000EDD22BDEF00F0F78377EF00F0F78503
:1001080077EF00F0F78777EF00F0F78977EF00F0E7
:10011800000EAF6F010EAE6FBDEF00F0A4C0D9FFA7
:10012800A5C0DAFFDECFF6FFDDCFF7FFF86A0800DB
:10013800F550A86FA96BA951000AD8B4A6EF00F032
:100148008CEF00F0A851200AD8B486EF00F0030A1B
:10015800D8B489EF00F0080AD8B483EF00F0060A93
:10016800D8B476EF00F01D0AD8B480EF00F08CEF19
:1001780000F0AE51AF11D8B4C4EF00F0C6EF00F0F4
:1001880092EF00F0F7A1CBEF00F0CDEF00F0CEEF4B
:1001980000F0F793A4C0D9FFA5C0DAFFDECFF6FFC1
:1001A800DDCFF7FFF86A0800F5502A0AD8A4DFEF78
:1001B80000F0E1EF00F00AEF01F0A4C0D9FFA5C0FC
:1001C800DAFFDE2A000EDD22A6C0D9FFA7C0DAFFBB
:1001D800DFCFA8F0020EDE26DFCFA9F0000EDD2269
:1001E800A8C0D9FFA9C0DAFFDECFF3F0DDCFF4F065
:1001F800F4BF03EF01F001EF01F04FEF01F0F781D9
:10020800F36DF41FD8B0F42B4FEF01F0A4C0D9FF61
:10021800A5C0DAFFDECF67F0DDCF68F073EC13F02E
:1002280067C0F3F068C0F4F021EF01F0A4C0D9FF73
:10023800A5C0DAFFDE2A000EDD22D00E0001A86F6D
:10024800FF0EA96FA4C0D9FFA5C0DAFFDECFF6FF65
:10025800DDCFF7FFF86A0800F550AA6FAB6BA8511D
:10026800AA27A951AB23AB510AE10A0EAA5DD8A06F
:1002780040EF01F043EF01F0010E44EF01F0000EF2
:10028800B06FB16BB051B111D8A44DEF01F04FEF81
:1002980001F01AEF01F0A4C0D9FFA5C0DAFFDECF44
:1002A800F6FFDDCFF7FFF86A0800F5502E0AD8A44C
:1002B80060EF01F062EF01F0E2EF01F0000EF66F7F
:1002C800000EF56FA4C0D9FFA5C0DAFFDE2A000E24
:1002D800DD22A4C0D9FFA5C0DAFFDECFF6FFDDCF4F
:1002E800F7FFF86A0800F5502A0AD8A47EEF01F053
:1002F80080EF01F09DEF01F0A4C0D9FFA5C0DAFF9F
:10030800DE2A000EDD22A6C0D9FFA7C0DAFFDFCFA4
:10031800A8F0020EDE26DFCFA9F0000EDD22A8C06D
:10032800D9FFA9C0DAFFDECFF5F0DDCFF6F0E2EFB6
:1003380001F0A4C0D9FFA5C0DAFFDECF67F0DDCF9A
:1003480068F073EC13F067C0F5F068C0F6F0B4EF2E
:1003580001F0A4C0D9FFA5C0DAFFDE2A000EDD2215
:10036800D00E0001A86FFF0EA96FA4C0D9FFA5C0C9
:10037800DAFFDECFF6FFDDCFF7FFF86A0800F550A9
:10038800AA6FAB6BA851AA27A951AB23AB510AE1BD
:100398000A0EAA5DD8A0D3EF01F0D6EF01F0010E46
:1003A800D7EF01F0000EB26FB36BB251B311D8A4FE
:1003B800E0EF01F0E2EF01F0ADEF01F0A4C0D9FFEA
:1003C800A5C0DAFFDECFF6FFDDCFF7FFF86A080039
:1003D800F550630AD8A4F3EF01F0F5EF01F01CEF34
:1003E80002F0A4C0D9FFA5C0DAFFDE2A000EDD2284
:1003F800A6C0D9FFA7C0DAFFDFCFA8F0020EDE261D
:10040800DFCFA9F0000EDD22A8C0D9FFA9C0DAFF0E
:10041800DF50BE6FA2C07BF0A3C07CF0BEC07DF0F1
:1004280008EC1EF07BC0A2F07CC0A3F08CEF09F0B2
:10043800A4C0D9FFA5C0DAFFDECF60F0DDCF61F040
:10044800D20E626FFF0E636F000E656F030E646F4E
:100458005EEC1BF0000160516111D8B436EF02F078
:1004680038EF02F054EF02F0A4C0D9FFA5C0DAFFBC
:10047800DECF60F0DDCF61F0D60E626FFF0E636FE6
:10048800000E656F030E646F5EEC1BF00001605197
:100498006111D8A452EF02F054EF02F094EF02F089
:1004A800030EA4C0D9FFA5C0DAFFDE26000EDD22A8
:1004B800A6C0D9FFA7C0DAFFDFCFA8F0020EDE265C
:1004C800DFCFA9F0000EDD22A8C0D9FFA9C0DAFF4E
:1004D800DF50B46F000EB4BFFF0EB56FB66FB76FC5
:1004E800B86FB96FBA6FBB6FA2C07BF0A3C07CF0C6
:1004F800B4C07DF0B5C07EF0B6C07FF0B7C080F064
:10050800B8C081F0B9C082F0BAC083F0BBC084F033
:10051800BEEC0DF07BC0A2F07CC0A3F08CEF09F01C
:10052800A4C0D9FFA5C0DAFFDECF60F0DDCF61F04F
:10053800D30E626FFF0E636F000E656F020E646F5D
:100548005EEC1BF0000160516111D8B4AEEF02F00F
:10055800B0EF02F0CCEF02F0A4C0D9FFA5C0DAFFDB
:10056800DECF60F0DDCF61F0D70E626FFF0E636FF4
:10057800000E656F020E646F5EEC1BF000016051A7
:100588006111D8A4CAEF02F0CCEF02F0F3EF02F049
:10059800020EA4C0D9FFA5C0DAFFDE26000EDD22B8
:1005A800A6C0D9FFA7C0DAFFDFCFA8F0020EDE266B
:1005B800DFCFA9F0000EDD22A8C0D9FFA9C0DAFF5D
:1005C800DECFB4F0DDCFB5F0000EB5BFFF0EB66FCD
:1005D800B76FB86FB96FBA6FBB6F78EF02F0A4C08E
:1005E800D9FFA5C0DAFFDECFF6FFDDCFF7FFF86A47
:1005F8000800F550640AD8B404EF03F006EF03F0DE
:1006080019EF03F0A4C0D9FFA5C0DAFFDECFF6FFCB
:10061800DDCFF7FFF86A0800F550690AD8A417EF8C
:1006280003F019EF03F03FEF03F0A4C0D9FFA5C012
:10063800DAFFDE2A000EDD22A6C0D9FFA7C0DAFF46
:10064800DFCFA8F0020EDE26DFCFA9F0000EDD22F4
:10065800A8C0D9FFA9C0DAFFDECFB4F0DDCFB5F06E
:10066800000EB5BFFF0EB66FB76FB86FB96FBA6F30
:10067800BB6F78EF02F0A4C0D9FFA5C0DAFFDECFC8
:1006880060F0DDCF61F0ED0E626FFF0E636F000E5C
:10069800656F020E646F5EEC1BF000016051611122
:1006A800D8B459EF03F05BEF03F077EF03F0A4C081
:1006B800D9FFA5C0DAFFDECF60F0DDCF61F0F00E24
:1006C800626FFF0E636F000E656F020E646F5EEC63
:1006D8001BF0000160516111D8A475EF03F077EFAA
:1006E80003F09FEF03F0020EA4C0D9FFA5C0DAFF04
:1006F800DE26000EDD22A6C0D9FFA7C0DAFFDFCFB5
:10070800A8F0020EDE26DFCFA9F0000EDD22A8C079
:10071800D9FFA9C0DAFFDECFAAF0DDCFABF0AAC0BF
:10072800B4F0ABC0B5F0B66BB76BB86BB96BBA6B5E
:10073800BB6B78EF02F0A4C0D9FFA5C0DAFFDECF0B
:1007480060F0DDCF61F0DE0E626FFF0E636F000EAA
:10075800656F030E646F5EEC1BF000016051611160
:10076800D8A4B9EF03F0BBEF03F0FAEF03F0030EE0
:10077800A4C0D9FFA5C0DAFFDE26000EDD22A6C080
:10078800D9FFA7C0DAFFDFCFA8F0020EDE26DFCF41
:10079800A9F0000EDD22A8C0D9FFA9C0DAFFDF50FA
:1007A800AA6FAA51BF6FC06BC16BC26BC36BC46B1E
:1007B800C56BC66BA2C07BF0A3C07CF0BFC07DF048
:1007C800C0C07EF0C1C07FF0C2C080F0C3C081F05D
:1007D800C4C082F0C5C083F0C6C084F0A0EC11F09C
:1007E8007BC0A2F07CC0A3F08CEF09F0A4C0D9FFB5
:1007F800A5C0DAFFDECF60F0DDCF61F0DF0E626FFB
:10080800FF0E636F000E656F020E646F5EEC1BF0E7
:10081800000160516111D8A414EF04F016EF04F040
:100828003EEF04F0020EA4C0D9FFA5C0DAFFDE2611
:10083800000EDD22A6C0D9FFA7C0DAFFDFCFA8F0DF
:10084800020EDE26DFCFA9F0000EDD22A8C0D9FFF8
:10085800A9C0DAFFDECFAAF0DDCFABF0AAC0BFF0A7
:10086800ABC0C0F0C16BC26BC36BC46BC56BC66B4E
:10087800DEEF03F0A4C0D9FFA5C0DAFFDECFF6FF94
:10088800DDCFF7FFF86A0800F5506F0AD8A44FEFDC
:1008980004F051EF04F078EF04F0A4C0D9FFA5C02C
:1008A800DAFFDE2A000EDD22A6C0D9FFA7C0DAFFD4
:1008B800DFCFA8F0020EDE26DFCFA9F0000EDD2282
:1008C800A8C0D9FFA9C0DAFFDECFAAF0DDCFABF010
:1008D800AAC0BFF0ABC0C0F0C16BC26BC36BC46B26
:1008E800C56BC66BDEEF03F0A4C0D9FFA5C0DAFF65
:1008F800DECF60F0DDCF61F0F60E626FFF0E636F42
:10090800000E656F020E646F5EEC1BF00001605113
:100918006111D8A492EF04F094EF04F0BCEF04F056
:10092800020EA4C0D9FFA5C0DAFFDE26000EDD2224
:10093800A6C0D9FFA7C0DAFFDFCFA8F0020EDE26D7
:10094800DFCFA9F0000EDD22A8C0D9FFA9C0DAFFC9
:10095800DECFAAF0DDCFABF0AAC0BFF0ABC0C0F0CD
:10096800C16BC26BC36BC46BC56BC66BDEEF03F0A8
:10097800A4C0D9FFA5C0DAFFDECF60F0DDCF61F0FB
:10098800DA0E626FFF0E636F000E656F030E646F01
:100998005EEC1BF0000160516111D8A4D6EF04F0A1
:1009A800D8EF04F000EF05F0030EA4C0D9FFA5C0EE
:1009B800DAFFDE26000EDD22A6C0D9FFA7C0DAFFC7
:1009C800DFCFA8F0020EDE26DFCFA9F0000EDD2271
:1009D800A8C0D9FFA9C0DAFFDECFBCF0DDCFBDF0DB
:1009E800BCC0D9FFBDC0DAFFF1C0DFFF000EA36FA6
:1009F800000EA26F8CEF09F0A4C0D9FFA5C0DAFFE2
:100A0800DECF60F0DDCF61F0DB0E626FFF0E636F4B
:100A1800000E656F020E646F5EEC1BF00001605102
:100A28006111D8A41AEF05F01CEF05F042EF05F0AC
:100A3800020EA4C0D9FFA5C0DAFFDE26000EDD2213
:100A4800A6C0D9FFA7C0DAFFDFCFA8F0020EDE26C6
:100A5800DFCFA9F0000EDD22A8C0D9FFA9C0DAFFB8
:100A6800DECFBCF0DDCFBDF0BCC0D9FFBDC0DAFF22
:100A7800F1C0DEFFF2C0DDFFFAEF04F0A4C0D9FF39
:100A8800A5C0DAFFDECFF6FFDDCFF7FFF86A080072
:100A9800F5506E0AD8A453EF05F055EF05F07AEF3C
:100AA80005F0A4C0D9FFA5C0DAFFDE2A000EDD22BA
:100AB800A6C0D9FFA7C0DAFFDFCFA8F0020EDE2656
:100AC800DFCFA9F0000EDD22A8C0D9FFA9C0DAFF48
:100AD800DECFBCF0DDCFBDF0BCC0D9FFBDC0DAFFB2
:100AE800F1C0DEFFF2C0DDFFFAEF04F0A4C0D9FFC9
:100AF800A5C0DAFFDECF60F0DDCF61F0F30E626FE4
:100B0800FF0E636F000E656F020E646F5EEC1BF0E4
:100B1800000160516111D8A494EF05F096EF05F03B
:100B2800BCEF05F0020EA4C0D9FFA5C0DAFFDE268F
:100B3800000EDD22A6C0D9FFA7C0DAFFDFCFA8F0DC
:100B4800020EDE26DFCFA9F0000EDD22A8C0D9FFF5
:100B5800A9C0DAFFDECFBCF0DDCFBDF0BCC0D9FF45
:100B6800BDC0DAFFF1C0DEFFF2C0DDFFFAEF04F02E
:100B7800A4C0D9FFA5C0DAFFDECFF6FFDDCFF7FFAF
:100B8800F86A0800F550700AD8A4CDEF05F0CFEF49
:100B980005F012EF06F0A4C0D9FFA5C0DAFFDE2ADF
:100BA800000EDD22A6C0D9FFA7C0DAFFDFCFA8F06C
:100BB800020EDE26DFCFA9F0000EDD22A8C0D9FF85
:100BC800A9C0DAFFDECFAAF0DDCFABF0AAC0BFF034
:100BD800ABC0C0F0C16BC26BC36BC46BC56BC66BDB
:100BE800A2C07BF0A3C07CF0BFC07DF0C0C07EF087
:100BF800C1C07FF0C2C080F0C3C081F0C4C082F021
:100C0800C5C083F0C6C084F0780E856F30EC0FF055
:100C18007BC0A2F07CC0A3F08CEF09F0A4C0D9FF80
:100C2800A5C0DAFFDECFF6FFDDCFF7FFF86A0800D0
:100C3800F550730AD8A423EF06F025EF06F050EF1D
:100C480006F0A4C0D9FFA5C0DAFFDE2A000EDD2217
:100C5800A6C0D9FFA7C0DAFFDFCFA8F0020EDE26B4
:100C6800DFCFA9F0000EDD22A8C0D9FFA9C0DAFFA6
:100C7800DECFACF0DDCFADF0A2C069F0A3C06AF062
:100C8800ACC06BF0ADC06CF042EC14F069C0A2F0DF
:100C98006AC0A3F08CEF09F0A4C0D9FFA5C0DAFFA1
:100CA800DECF60F0DDCF61F0E20E626FFF0E636FA2
:100CB800000E656F030E646F5EEC1BF0000160515F
:100CC8006111D8A46AEF06F06CEF06F0ABEF06F0FE
:100CD800030EA4C0D9FFA5C0DAFFDE26000EDD2270
:100CE800A6C0D9FFA7C0DAFFDFCFA8F0020EDE2624
:100CF800DFCFA9F0000EDD22A8C0D9FFA9C0DAFF16
:100D0800DF50AA6FAA51BF6FC06BC16BC26BC36BB8
:100D1800C46BC56BC66BA2C07BF0A3C07CF0BFC020
:100D28007DF0C0C07EF0C1C07FF0C2C080F0C3C0FB
:100D380081F0C4C082F0C5C083F0C6C084F09DECC9
:100D480010F07BC0A2F07CC0A3F08CEF09F0A4C027
:100D5800D9FFA5C0DAFFDECF60F0DDCF61F0E30E8A
:100D6800626FFF0E636F000E656F020E646F5EECBC
:100D78001BF0000160516111D8A4C5EF06F0C7EF60
:100D880006F0EFEF06F0020EA4C0D9FFA5C0DAFF07
:100D9800DE26000EDD22A6C0D9FFA7C0DAFFDFCF0E
:100DA800A8F0020EDE26DFCFA9F0000EDD22A8C0D3
:100DB800D9FFA9C0DAFFDECFAAF0DDCFABF0AAC019
:100DC800BFF0ABC0C0F0C16BC26BC36BC46BC56B6B
:100DD800C66B8FEF06F0A4C0D9FFA5C0DAFFDECF3F
:100DE800F6FFDDCFF7FFF86A0800F550750AD8A4BA
:100DF80000EF07F002EF07F029EF07F0A4C0D9FFD2
:100E0800A5C0DAFFDE2A000EDD22A6C0D9FFA7C0E2
:100E1800DAFFDFCFA8F0020EDE26DFCFA9F0000E42
:100E2800DD22A8C0D9FFA9C0DAFFDECFAAF0DDCF46
:100E3800ABF0AAC0BFF0ABC0C0F0C16BC26BC36B54
:100E4800C46BC56BC66B8FEF06F0A4C0D9FFA5C0F5
:100E5800DAFFDECF60F0DDCF61F0F90E626FFF0ED2
:100E6800636F000E656F020E646F5EEC1BF000018D
:100E780060516111D8A443EF07F045EF07F06DEF1B
:100E880007F0020EA4C0D9FFA5C0DAFFDE26000EC7
:100E9800DD22A6C0D9FFA7C0DAFFDFCFA8F0020E77
:100EA800DE26DFCFA9F0000EDD22A8C0D9FFA9C039
:100EB800DAFFDECFAAF0DDCFABF0AAC0BFF0ABC03F
:100EC800C0F0C16BC26BC36BC46BC56BC66B8FEFD5
:100ED80006F0A4C0D9FFA5C0DAFFDECF60F0DDCFF1
:100EE80061F0E60E626FFF0E636F000E656F030E12
:100EF800646F5EEC1BF0000160516111D8B487EF9C
:100F080007F089EF07F0A5EF07F0A4C0D9FFA5C047
:100F1800DAFFDECF60F0DDCF61F0CE0E626FFF0E3C
:100F2800636F000E656F030E646F5EEC1BF00001CB
:100F380060516111D8A4A3EF07F0A5EF07F0FAEF0D
:100F480007F0A4C0D9FFA5C0DAFFDECFA8F0DDCF37
:100F5800A9F0020EA827000EA923A8C0F6FFA9C071
:100F6800F7FFF86A0800F5CFBEF0030EA4C0D9FF5A
:100F7800A5C0DAFFDE26000EDD22A6C0D9FFA7C075
:100F8800DAFFDFCFA8F0020EDE26DFCFA9F0000ED1
:100F9800DD22A8C0D9FFA9C0DAFFDF50AA6FAA5185
:100FA800BF6FC06BC16BC26BC36BC46BC56BC66BC9
:100FB800A2C07BF0A3C07CF0BFC07DF0C0C07EF0B3
:100FC800C1C07FF0C2C080F0C3C081F0C4C082F04D
:100FD800C5C083F0C6C084F0BEC085F030EC0FF009
:100FE8007BC0A2F07CC0A3F08CEF09F0A4C0D9FFAD
:100FF800A5C0DAFFDECF60F0DDCF61F0E70E626FEB
:10100800FF0E636F000E656F020E646F5EEC1BF0DF
:10101800000160516111D8B414EF08F016EF08F020
:1010280032EF08F0A4C0D9FFA5C0DAFFDECF60F028
:10103800DDCF61F0CF0E626FFF0E636F000E656F3C
:10104800020E646F5EEC1BF0000160516111D8A4C0
:1010580030EF08F032EF08F06EEF08F0A4C0D9FFC7
:10106800A5C0DAFFDECFA8F0DDCFA9F0010EA827D2
:10107800000EA923A8C0F6FFA9C0F7FFF86A080068
:10108800F5CFBEF0020EA4C0D9FFA5C0DAFFDE2658
:10109800000EDD22A6C0D9FFA7C0DAFFDFCFA8F077
:1010A800020EDE26DFCFA9F0000EDD22A8C0D9FF90
:1010B800A9C0DAFFDECFAAF0DDCFABF0AAC0BFF03F
:1010C800ABC0C0F0C16BC26BC36BC46BC56BC66BE6
:1010D800DCEF07F0A4C0D9FFA5C0DAFFDECFF6FF2A
:1010E800DDCFF7FFF86A0800F550780AD8B47FEF2B
:1010F80008F081EF08F094EF08F0A4C0D9FFA5C06C
:10110800DAFFDECFF6FFDDCFF7FFF86A0800F5500B
:10111800580AD8A492EF08F094EF08F0C7EF08F047
:10112800A4C0D9FFA5C0DAFFDECFF6FFDDCFF7FFF9
:10113800F86A0800F5CFBEF0A4C0D9FFA5C0DAFF51
:10114800DE2A000EDD22A6C0D9FFA7C0DAFFDFCF56
:10115800A8F0020EDE26DFCFA9F0000EDD22A8C01F
:10116800D9FFA9C0DAFFDECFAAF0DDCFABF0AAC065
:10117800BFF0ABC0C0F0C16BC26BC36BC46BC56BB7
:10118800C66BDCEF07F0A4C0D9FFA5C0DAFFDECF3D
:1011980060F0DDCF61F0FC0E626FFF0E636F000E32
:1011A800656F020E646F5EEC1BF000016051611107
:1011B800D8B4E1EF08F0E3EF08F0FFEF08F0A4C0BF
:1011C800D9FFA5C0DAFFDECF60F0DDCF61F0EA0E0F
:1011D800626FFF0E636F000E656F020E646F5EEC48
:1011E8001BF0000160516111D8A4FDEF08F0FFEF7A
:1011F80008F03BEF09F0A4C0D9FFA5C0DAFFDECFA5
:10120800A8F0DDCFA9F0010EA827000EA923A8C0D9
:10121800F6FFA9C0F7FFF86A0800F5CFBEF0020E86
:10122800A4C0D9FFA5C0DAFFDE26000EDD22A6C0C5
:10123800D9FFA7C0DAFFDFCFA8F0020EDE26DFCF86
:10124800A9F0000EDD22A8C0D9FFA9C0DAFFDECFC1
:10125800AAF0DDCFABF0AAC0BFF0ABC0C0F0C16B45
:10126800C26BC36BC46BC56BC66BDCEF07F0A4C065
:10127800D9FFA5C0DAFFDECFF6FFDDCFF7FFF86AAA
:101288000800F550250AD8A44CEF09F04EEF09F0F4
:1012980066EF09F0A4C0D9FFA5C0DAFFDE2A000E68
:1012A800DD22000E616F250E606FA2C062F0A3C040
:1012B80063F03DEC1CF0000E0001A36F010EA26F5D
:1012C8008CEF09F0A4C0D9FFA5C0DAFFDE2A000E12
:1012D800DD22FAEF04F0A4C0D9FFA5C0DAFFDECF03
:1012E800F6FFDDCFF7FFF86A0800F5500001606FE0
:1012F800616BA2C062F0A3C063F03DEC1CF0A4C017
:10130800D9FFA5C0DAFFDE2A000EDD225FEF09F063
:101318001200010E0001616F000E3FEC21F0960EE5
:1013280085EC20F0EF0E0001616F000E3FEC21F01C
:10133800030E0001616F010E3FEC21F0800E0001E9
:10134800616F010E3FEC21F0020E0001616F010E8A
:101358003FEC21F0CF0E0001616F000E3FEC21F051
:10136800000E0001616F010E3FEC21F0C10E00017B
:10137800616F010E3FEC21F0300E0001616F010E2C
:101388003FEC21F0ED0E0001616F000E3FEC21F003
:10139800640E0001616F010E3FEC21F0030E0001A5
:1013A800616F010E3FEC21F0120E0001616F010E1A
:1013B8003FEC21F0810E0001616F010E3FEC21F03E
:1013C800E80E0001616F000E3FEC21F0850E000170
:1013D800616F010E3FEC21F0000E0001616F010EFC
:1013E8003FEC21F0780E0001616F010E3FEC21F017
:1013F800CB0E0001616F000E3FEC21F0390E0001A9
:10140800616F010E3FEC21F02C0E0001616F010E9F
:101418003FEC21F0000E0001616F010E3FEC21F05E
:10142800340E0001616F010E3FEC21F0020E000145
:10143800616F010E3FEC21F0F70E0001616F000EA5
:101448003FEC21F0200E0001616F010E3FEC21F00E
:10145800EA0E0001616F000E3FEC21F0000E000162
:10146800616F010E3FEC21F0000E0001616F010E6B
:101478003FEC21F0C00E0001616F000E3FEC21F03F
:10148800230E0001616F010E3FEC21F0C10E000137
:10149800616F000E3FEC21F0100E0001616F010E2C
:1014A8003FEC21F0C50E0001616F000E3FEC21F00A
:1014B8003E0E0001616F010E3FEC21F0280E000185
:1014C800616F010E3FEC21F0C70E0001616F000E45
:1014D8003FEC21F0860E0001616F010E3FEC21F018
:1014E800360E0001616F000E3FEC21F0480E00013E
:1014F800616F010E3FEC21F03A0E0001616F000EA2
:101508003FEC21F0550E0001616F010E3FEC21F018
:10151800B10E0001616F000E3FEC21F0000E0001DA
:10152800616F010E3FEC21F0180E0001616F010E92
:101538003FEC21F0B60E0001616F000E3FEC21F088
:10154800080E0001616F010E3FEC21F0820E0001D0
:10155800616F010E3FEC21F0270E0001616F010E53
:101568003FEC21F0F20E0001616F000E3FEC21F01C
:10157800000E0001616F010E3FEC21F0260E000104
:10158800616F000E3FEC21F0010E0001616F010E4A
:101598003FEC21F0E00E0001616F000E3FEC21F0FE
:1015A8000F0E0001616F010E3FEC21F0310E0001BA
:1015B800616F010E3FEC21F02B0E0001616F010EEF
:1015C8003FEC21F00C0E0001616F010E3FEC21F0A1
:1015D8000E0E0001616F010E3FEC21F0080E0001B4
:1015E800616F010E3FEC21F04E0E0001616F010E9C
:1015F8003FEC21F0F10E0001616F010E3FEC21F08C
:10160800370E0001616F010E3FEC21F0070E00015B
:10161800616F010E3FEC21F0100E0001616F010EA9
:101628003FEC21F0030E0001616F010E3FEC21F049
:101638000E0E0001616F010E3FEC21F0090E000152
:10164800616F010E3FEC21F0000E0001616F010E89
:101658003FEC21F0E10E0001616F000E3FEC21F03C
:10166800000E0001616F010E3FEC21F00E0E00012B
:10167800616F010E3FEC21F0140E0001616F010E45
:101688003FEC21F0030E0001616F010E3FEC21F0E9
:10169800110E0001616F010E3FEC21F0070E0001F1
:1016A800616F010E3FEC21F0310E0001616F010EF8
:1016B8003FEC21F0C10E0001616F010E3FEC21F0FB
:1016C800480E0001616F010E3FEC21F0080E000189
:1016D800616F010E3FEC21F00F0E0001616F010EEA
:1016E8003FEC21F00C0E0001616F010E3FEC21F080
:1016F800310E0001616F010E3FEC21F0360E000142
:10170800616F010E3FEC21F00F0E0001616F010EB9
:101718003FEC21F0110E0001616F000E3FEC21F04B
:10172800780E85EC20F0290E0001616F000E3FEC69
:1017380021F0780E85EC20F0000E00016A6F000E93
:10174800696F62EC1DF0120000017151800B7A6F15
:1017580071517125806F70AFB4EF0BF0B6EF0BF0DD
:10176800B7EF0BF080818051D8B4BDEF0BF0BFEF1D
:101778000BF0D2EF0BF08029D8A4C5EF0BF0C7EF20
:101788000BF0CFEF0BF0000E6E6F000E6F6F000EB8
:10179800706F000E716F708FDAEF0BF0000E6E6FC6
:1017A800000E6F6F000E706F000E716F7551800B19
:1017B8007A1B755175257F6F74AFE5EF0BF0E7EF76
:1017C8000BF0E8EF0BF07F817F51D8B4EEEF0BF010
:1017D800F0EF0BF003EF0CF07F29D8A4F6EF0BF035
:1017E800F8EF0BF000EF0CF0000E726F000E736F45
:1017F800000E746F000E756F748F0BEF0CF0000EF7
:10180800726F000E736F000E746F000E756F7F514C
:10181800D8B411EF0CF013EF0CF01BEF0CF0805163
:10182800D8A419EF0CF01BEF0CF025EF0CF0000E0C
:101838006E6F000E6F6F000E706F000E716FBDEF50
:101848000DF074516E03F3CF85F0F4CF86F0855117
:101858007B6F7C6B7D6B7E6B8651816F826B836B3C
:10186800846B73516F03F3CF85F0F4CF86F0855105
:101878007B27000E7C237D237E2386518127000E43
:1018880082238323842372517003F3CF85F0F4CF2E
:1018980086F085517B27000E7C237D237E2386518D
:1018A8008127000E8223832384237DC07EF07CC0A1
:1018B8007DF07BC07CF07B6B72516F03F3CF85F0BA
:1018C800F4CF86F085517B2786517C23000E7D233B
:1018D800000E7E2373516E03F3CF85F0F4CF86F0AC
:1018E80085517B2786517C23000E7D23000E7E23A5
:1018F8007DC07EF07CC07DF07BC07CF07B6B72513C
:101908006E03F3CF85F0F4CF86F085517B2786519F
:101918007C23000E7D23000E7E2374516F03F3CFCA
:1019280085F0F4CF86F08551812786518223000EF9
:101938008323000E842373517003F3CF85F0F4CF13
:1019480086F08551812786518223000E8323000E5D
:10195800842374517003F3CF85F0F4CF86F085515A
:10196800766F8651776F786B796B78C079F077C02E
:1019780078F076C077F0766B76518127775182239D
:1019880078518323795184237BC076F07CC077F02B
:101998007DC078F07EC079F0190ED8EF0CF0D890A1
:1019A8007933783377337633E82ED3EF0CF07651EA
:1019B80081277751822378518323795184237DC0ED
:1019C8007EF07CC07DF07BC07CF07B6B7F5180C05B
:1019D80076F0776B7627000E7723820E7625856F53
:1019E800FF0E7721866F0EEF0DF0D8908137823782
:1019F800833784377EAF03EF0DF005EF0DF006EF68
:101A08000DF08181D8907B377C377D377E3785070D
:101A1800D8A0860783AF13EF0DF015EF0DF0F9EF9F
:101A28000CF0000E7F6F7EAF1CEF0DF01EEF0DF077
:101A380042EF0DF0FF0E7B15766FFF0E7C15776F6A
:101A4800FF0E7D15786F7F0E7E15796F76517711B1
:101A580078117911D8B433EF0DF035EF0DF039EF77
:101A68000DF0010E7F6F42EF0DF081A13EEF0DF0FA
:101A780040EF0DF042EF0DF035EF0DF07F51D8B487
:101A880048EF0DF04AEF0DF06EEF0DF0010E8127D3
:101A9800000E82238323842384A155EF0DF057EF92
:101AA8000DF06EEF0DF081C076F082C077F083C044
:101AB80078F084C079F079357933783377337633B1
:101AC80076C081F077C082F078C083F079C084F066
:101AD800854B862B86BF79EF0DF0865108E1852965
:101AE800D8A079EF0DF07BEF0DF085EF0DF0000E2B
:101AF800816F000E826F800E836F7F0E846FB3EF4D
:101B08000DF086BF92EF0DF0865106E18505D8B03D
:101B180090EF0DF092EF0DF09EEF0DF0000E816F3B
:101B2800000E826F000E836F000E846F000E7A6FB6
:101B3800B3EF0DF085C080F0FF0E8117FF0E8217FE
:101B48007F0E8317000E841780A1ADEF0DF0AFEF65
:101B58000DF0B0EF0DF0838FD8908031846F7A51FB
:101B6800841381C06EF082C06FF083C070F084C0AF
:101B780071F012007DC095F07EC096F07FC097F09E
:101B880080C098F081C099F082C09AF083C09BF021
:101B980084C09CF000019CBFD4EF0DF0D7EF0DF08E
:101BA800010ED8EF0DF0000E936F946B93519411C2
:101BB800D8B4E1EF0DF0E3EF0DF0F3EF0DF09C1F5B
:101BC8009B1F9A1F991F981F971F961F956D000EB0
:101BD80096239723982399239A239B239C23F6BF24
:101BE800F8EF0DF0FAEF0DF0FBEF0DF0F793F6BFFD
:101BF80008EF0EF0F65106E1F505D8B006EF0EF045
:101C080008EF0EF00EEF0EF0000E906F010E8F6FC2
:101C180012EF0EF0F5C08FF0F6C090F0F3C091F01F
:101C2800F4C092F093519411D8A41DEF0EF01FEF59
:101C38000EF026EF0EF0F7A524EF0EF026EF0EF0CB
:101C480029EF0EF09107D8A09207000E9E6F1F0E85
:101C58009D6F000E0101836FAFEF0EF09D07D8A0B6
:101C68009E07640E9D25D96E010E9E21DA6E95C0E1
:101C780060F096C061F097C062F098C063F099C0B8
:101C880064F09AC065F09BC066F09CC067F00A0ECD
:101C9800686F000E696F000E6A6F000E6B6F000EA2
:101CA8006C6F000E6D6F000E6E6F000E6F6F4BEC59
:101CB80017F060C085F061C086F062C087F063C02D
:101CC80088F064C089F065C08AF066C08BF067C090
:101CD8008CF085C072F087C073F090EC1FF00001A3
:101CE8007251300FDF6E8F07D8A090079107D8A0E8
:101CF800920795C060F096C061F097C062F098C0F6
:101D080063F099C064F09AC065F09BC066F09CC00F
:101D180067F00A0E686F000E696F000E6A6F000E9A
:101D28006B6F000E6C6F000E6D6F000E6E6F000E05
:101D38006F6F08EC15F060C095F061C096F062C056
:101D480097F063C098F064C099F065C09AF066C0D7
:101D58009BF067C09CF000019EBFBBEF0EF09E5148
:101D680008E19D05D8A0BBEF0EF0BDEF0EF0EDEF3A
:101D78000EF0955196119711981199119A119B117E
:101D88009C11D8A4CAEF0EF0CCEF0EF032EF0EF093
:101D980090BFD9EF0EF0905106E18F05D8B0D7EF7C
:101DA8000EF0D9EF0EF032EF0EF092BFE4EF0EF026
:101DB800925108E19105D8A0E4EF0EF0E6EF0EF09D
:101DC800EDEF0EF0F7B3EBEF0EF0EDEF0EF032EFB4
:101DD8000EF093519411D8A4F4EF0EF0F6EF0EF034
:101DE800FDEF0EF0F7A5FBEF0EF0FDEF0EF01BEF89
:101DF8000FF09D07D8A09E0793519411D8A407EF20
:101E08000FF009EF0FF00FEF0FF0000E8E6F2B0E93
:101E18008D6F13EF0FF0000E8E6F2D0E8D6F640E09
:101E28009D25D96E010E9E21DA6E8DC0DFFF7BC025
:101E380070F07CC071F0640E9D25726F010E9E21BA
:101E4800736F91C074F092C075F0A3EC1CF070C071
:101E58007BF071C07CF012000001F6BF36EF0FF086
:101E680038EF0FF039EF0FF0F793F6BF46EF0FF0AA
:101E7800F65106E1F505D8B044EF0FF046EF0FF044
:101E88004CEF0FF0000E936F010E926F50EF0FF0B2
:101E9800F5C092F0F6C093F0F3C094F0F4C095F05A
:101EA800F7A959EF0FF05BEF0FF05FEF0FF0FE0EA1
:101EB8009427FF0E95237DC096F07EC097F07FC0D3
:101EC80098F080C099F081C09AF082C09BF083C0DE
:101ED8009CF084C09DF0000E9F6F1F0E9E6F000E39
:101EE8000101836F2CEF10F09E07D8A09F070F0EFB
:101EF8009615A06FA16BA1BF8BEF0FF0A15109E15F
:101F08000A0EA05DD8A08BEF0FF08DEF0FF095EFC4
:101F18000FF0570EA025A06F000EA121A16F9BEF17
:101F28000FF0300EA025A06F000EA121A16FBF0EEB
:101F3800866FFF0E876F8551886F896B865188275A
:101F48008751892389510AE11A0E885DD8A0AFEF1D
:101F58000FF0B2EF0FF0010EB3EF0FF0000E8E6F1F
:101F68008F6B8E518F11D8B4BCEF0FF0BEEF0FF00E
:101F7800EEEF0FF09F0E866FFF0E876F200EA011F9
:101F8800886F000EA111896F865188278751892390
:101F980089510AE11A0E885DD8A0D5EF0FF0D8EF65
:101FA8000FF0010ED9EF0FF0000E906F916B90516A
:101FB8009111D8B4E2EF0FF0E4EF0FF0EEEF0FF06D
:101FC800A0C066F0A1C067F0D8EC1DF066C0A0F014
:101FD80067C0A1F0640E00019E25D96E010E9F21F5
:101FE800DA6EA0C0DFFF9207D8A093079407D8A0A5
:101FF800950796C086F097C087F098C088F099C07A
:1020080089F09AC08AF09BC08BF09CC08CF09DC070
:102018008DF0050E19EF10F0D8908D338C338B337B
:102028008A338933883387338633E82E10EF10F0EC
:1020380086C096F087C097F088C098F089C099F05C
:102048008AC09AF08BC09BF08CC09CF08DC09DF02C
:1020580000019FBF39EF10F09F5109E1020E9E5D0C
:10206800D8A039EF10F03BEF10F06BEF10F096515D
:102078009711981199119A119B119C119D11D8A42F
:1020880048EF10F04AEF10F078EF0FF093BF57EFDA
:1020980010F0935106E19205D8B055EF10F057EFC4
:1020A80010F078EF0FF095BF62EF10F0955108E14E
:1020B8009405D8A062EF10F064EF10F06BEF10F009
:1020C800F7B369EF10F06BEF10F078EF0FF0F7A9A6
:1020D80070EF10F072EF10F088EF10F09E07D8A0A4
:1020E8009F07640E9E25D96E010E9F21DA6E85C06A
:1020F800DFFF9E07D8A09F07640E9E25D96E010EAC
:102108009F21DA6E300EDF6E7BC070F07CC071F0FC
:10211800640E9E25726F010E9F21736F94C074F038
:1021280095C075F0A3EC1CF070C07BF071C07CF01A
:1021380012000001F6BFA3EF10F0A5EF10F0A6EF14
:1021480010F0F793F6BFB3EF10F0F65106E1F5057E
:10215800D8B0B1EF10F0B3EF10F0B9EF10F0000EF7
:102168008E6F010E8D6FBDEF10F0F5C08DF0F6C0CB
:102178008EF0F3C08FF0F4C090F07DC091F07EC077
:1021880092F07FC093F080C094F081C095F082C037
:1021980096F083C097F084C098F0000E9A6F1F0ED7
:1021A800996F000E0101836F51EF11F09907D8A0C4
:1021B8009A07640E9925D96E010E9A21DA6E91C09C
:1021C80060F092C061F093C062F094C063F095C073
:1021D80064F096C065F097C066F098C067F00A0E84
:1021E800686F000E696F000E6A6F000E6B6F000E4D
:1021F8006C6F000E6D6F000E6E6F000E6F6FD4EC7B
:102208001BF060C085F061C086F062C087F063C0D3
:1022180088F064C089F065C08AF066C08BF067C03A
:102228008CF000018551300FDF6E8D07D8A08E0726
:102238008F07D8A0900791C060F092C061F093C05A
:1022480062F094C063F095C064F096C065F097C0E2
:1022580066F098C067F00A0E686F000E696F000E8E
:102268006A6F000E6B6F000E6C6F000E6D6F000EC4
:102278006E6F000E6F6FE5EC1AF060C091F061C0F0
:1022880092F062C093F063C094F064C095F065C0AA
:1022980096F066C097F067C098F0000199519A11BE
:1022A800D8B459EF11F05BEF11F08BEF11F09151A9
:1022B8009211931194119511961197119811D8A410
:1022C80068EF11F06AEF11F0DAEF10F08EBF77EFD8
:1022D80011F08E5106E18D05D8B075EF11F077EF4A
:1022E80011F0DAEF10F090BF82EF11F0905108E191
:1022F8008F05D8A082EF11F084EF11F08BEF11F069
:10230800F7B389EF11F08BEF11F0DAEF10F07BC023
:1023180070F07CC071F0640E9925726F010E9A21DD
:10232800736F8FC074F090C075F0A3EC1CF070C090
:102338007BF071C07CF012000001F6BFA6EF11F02F
:10234800A8EF11F0A9EF11F0F793F6BFB6EF11F06F
:10235800F65106E1F505D8B0B4EF11F0B6EF11F07B
:10236800BCEF11F0000E8E6F010E8D6FC0EF11F0F3
:10237800F5C08DF0F6C08EF0F3C091F0F4C092F085
:102388007DC093F07EC094F07FC095F080C096F039
:1023980081C097F082C098F083C099F084C09AF009
:1023A800000E9C6F1F0E9B6F000E0101836F000EC5
:1023B8000001906F000E8F6F27EF12F09B07D8A0D7
:1023C8009C07070E93158F6F906B640E9B25D96E33
:1023D800010E9C21DA6E8F51300FDF6E8D07D8A069
:1023E8008E079107D8A0920793C085F094C086F015
:1023F80095C087F096C088F097C089F098C08AF099
:1024080099C08BF09AC08CF0040E14EF12F0D8909B
:102418008C338B338A3389338833873386338533D8
:10242800E82E0BEF12F085C093F086C094F087C0B9
:1024380095F088C096F089C097F08AC098F08BC054
:1024480099F08CC09AF09CBF32EF12F09C5108E1D1
:102458009B05D8A032EF12F034EF12F064EF12F0BF
:1024680093519411951196119711981199119A11E8
:10247800D8A441EF12F043EF12F0E2EF11F08EBF53
:1024880050EF12F08E5106E18D05D8B04EEF12F0E4
:1024980050EF12F0E2EF11F092BF5BEF12F09251A1
:1024A80008E19105D8A05BEF12F05DEF12F064EF40
:1024B80012F0F7B362EF12F064EF12F0E2EF11F0EE
:1024C800F7A969EF12F06BEF12F082EF12F08F515B
:1024D8009011D8B472EF12F074EF12F082EF12F08C
:1024E8009B07D8A09C07640E9B25D96E010E9C21E2
:1024F800DA6E300EDF6E9107D8A092077BC070F0BD
:102508007CC071F0640E9B25726F010E9C21736F65
:1025180091C074F092C075F0A3EC1CF070C07BF011
:1025280071C07CF012000001686F00016851D8B4D6
:10253800A0EF12F0A2EF12F0C4EF12F063BFA9EF00
:1025480012F0A7EF12F0C4EF12F060C064F061C09F
:1025580065F062C066F063C067F0641F651F661FA0
:10256800671F642B000E65236623672364C06AF027
:1025780065C06BF066C06CF067C06DF0CCEF12F010
:1025880060C06AF061C06BF062C06CF063C06DF04F
:102598006051611162116311D8A4D5EF12F0D7EF21
:1025A80012F0E1EF12F0000E606F000E616F000E86
:1025B800626F000E636F72EF13F0960E696FEBEFA8
:1025C80012F0692BD8906D336C336B336A33000E7D
:1025D8006A15646F000E6B15656F000E6C15666FDB
:1025E800FE0E6D15676F6451651166116711D8A4E9
:1025F80000EF13F002EF13F0E5EF12F010EF13F015
:10260800692B010E6A27000E6B236C236D23D8906B
:102618006D336C336B336A33000E6A15646F000ECA
:102628006B15656F000E6C15666FFF0E6D15676F85
:102638006451651166116711D8A425EF13F027EFCF
:1026480013F004EF13F02FEF13F06907D8906A37EF
:102658006B376C376D376CBF34EF13F036EF13F010
:102668003EEF13F0020E69613CEF13F03EEF13F0FA
:1026780029EF13F069B143EF13F045EF13F046EF7C
:1026880013F06C9FD890693369C064F0656B666B12
:10269800676B64C067F0666B656B646B64516A1343
:1026A80065516B1366516C1367516D136851D8B43B
:1026B80060EF13F062EF13F06AEF13F063BF69EF96
:1026C80013F067EF13F06AEF13F06D8F6AC060F0D4
:1026D8006BC061F06CC062F06DC063F01200000E58
:1026E8000001756F000E746F000E6E6F000E6D6F37
:1026F80080EF13F0674B682B010E736F67C0F6FF0E
:1027080068C0F7FFF86A0800F550200AD8B48FEFC0
:1027180013F091EF13F0AFEF13F0F70E696FFF0EA0
:102728006A6F67C0F6FF68C0F7FFF86A0800F550DF
:102738006B6F6C6B69516B276A516C236C5109E1A3
:10274800050E6B5DD8A0ABEF13F0ADEF13F0AFEF54
:1027580013F0000E736F73C06FF0706B6F517011D0
:10276800D8A4B9EF13F0BBEF13F07EEF13F0C5EF69
:1027780013F0000E6E6F010E6D6F674B682BFDEF47
:1027880013F067C0F6FF68C0F7FFF86A0800F55055
:10279800696F6A6B6A51000AD8B4D5EF13F0FDEF80
:1027A80013F069512B0AD8B4C1EF13F0060AD8B454
:1027B800BDEF13F0FDEF13F074C060F075C061F069
:1027C800000E636F0A0E626F2BEC21F067C0F6FFF4
:1027D80068C0F7FFF86A0800F5500001605F000E56
:1027E800615B300E6025746F000E6121756FC1EF5B
:1027F80013F0D00E696FFF0E6A6F67C0F6FF68C0EE
:10280800F7FFF86A0800F5506B6F6C6B69516B271E
:102818006A516C236C510AE10A0E6B5DD8A017EF60
:1028280014F01AEF14F0010E1BEF14F0000E716F84
:10283800726B71517211D8A424EF14F026EF14F0C2
:10284800E0EF13F06D516E11D8A42DEF14F02FEFB7
:1028580014F03DEF14F074C069F075C06AF0691F98
:102868006A1F694B6A2B69C067F06AC068F041EF5C
:1028780014F074C067F075C068F0120020EE3AF0EA
:1028880010EE6EF0060EDBCFE3FFE806FCE26BC04D
:1028980079F06CC07AF0000179517A11D8A457EF19
:1028A80014F059EF14F05DEF14F06E0E796F000E0E
:1028B8007A6F79C060F07AC061F04BEC20F060C0AC
:1028C8007DF061C07EF0F5C07BF0F6C07CF00001C1
:1028D8007CBF71EF14F073EF14F088EF14F07D51A2
:1028E8007B5D7C51800A6D6F7E51800A6D59D8A03E
:1028F80080EF14F082EF14F084EF14F088EF14F0F6
:102908007BC07DF07CC07EF07DC07BF07EC07CF01B
:10291800F3C077F0F4C078F0F7B195EF14F097EFC3
:1029280014F0B5EF14F0A6EF14F0000E616F200E4E
:10293800606F69C062F06AC063F03DEC1CF0000192
:102948007D4B7E2B77517D5D7E51800A6D6F78516E
:10295800800A6D59D8A0B3EF14F0B5EF14F099EFD1
:1029680014F0000E766F000E756FCFEF14F079C07B
:10297800D9FF7AC0DAFFDF506D6F6D51606F616B00
:1029880069C062F06AC063F03DEC1CF00001794B4D
:102998007A2B754B762B7B51755D7651800A6D6F5E
:1029A8007C51800A6D59D8A0DCEF14F0DEEF14F0EA
:1029B800BBEF14F0F7A1E3EF14F0E5EF14F003EF29
:1029C80015F0F4EF14F0000E616F200E606F69C00F
:1029D80062F06AC063F03DEC1CF000017D4B7E2B79
:1029E80077517D5D7E51800A6D6F7851800A6D59EF
:1029F800D8A001EF15F003EF15F0E7EF14F07DC054
:102A080069F07EC06AF01200000E0001716F6FBF9E
:102A180012EF15F010EF15F024EF15F06F1F6E1F71
:102A28006D1F6C1F6B1F6A1F691F686D000E69237D
:102A38006A236B236C236D236E236F23010E716F42
:102A480067BF2BEF15F029EF15F03DEF15F0671F65
:102A5800661F651F641F631F621F611F606D000E84
:102A68006123622363236423652366236723010E9E
:102A7800711B20EE72F0070EDE6AE806FDE268516F
:102A880069116A116B116C116D116E116F11D8B447
:102A980050EF15F052EF15F0A4EF15F0010E706F1E
:102AA80060EF15F0D890683769376A376B376C373D
:102AB8006D376E376F37702B6FAF65EF15F067EFB7
:102AC80015F056EF15F0D89072377337743775379D
:102AD80076377737783779376851605D695161594A
:102AE8006A5162596B5163596C5164596D516559FA
:102AF8006E5166596F516759D8A085EF15F087EF69
:102B080015F098EF15F06851605F6951615B6A5183
:102B1800625B6B51635B6C51645B6D51655B6E51BD
:102B2800665B6F51675B7281D8906F336E336D331C
:102B38006C336B336A3369336833702F67EF15F082
:102B48007151D8B4AAEF15F0ACEF15F0BCEF15F041
:102B5800791F781F771F761F751F741F731F726D7B
:102B6800000E732374237523762377237823792320
:102B780072C060F073C061F074C062F075C063F039
:102B880076C064F077C065F078C066F079C067F009
:102B98001200000E00017C6F71EF16F0D8906D35B1
:102BA800F66E6E35F76EDF0EF626F10EF722F86A2E
:102BB800000EF8220900F5CF73F00900F5CF74F084
:102BC8007C51735F000E745B69517325656F6A51A0
:102BD8007421666F6BC067F06CC068F0B1EC1FF0D1
:102BE800000E00017D6F000E7E6F7C51736F746B59
:102BF800D89073377437D8906D35F66E6E35F76E9A
:102C0800DF0EF626F10EF722F86A000EF822090008
:102C1800F5CF75F00900F5CF76F0D890753776378F
:102C28007351755F7451765B7D51755F000E765BED
:102C38006D5175276E517623D89075377637DF0E2C
:102C48007525F66EF10E7621F76EF86A000EF822F9
:102C58000900F5CF77F00900F5CF78F07EC079F05C
:102C6800800E7A6F000E7B6F792B3EEF16F07B3566
:102C78007B337A33792F3BEF16F0000177517A17BF
:102C880078517B177A517B11D8B44DEF16F04FEF7E
:102C980016F057EF16F06FC063F070C064F078EC70
:102CA80021F05DEF16F071C063F072C064F078EC4B
:102CB80021F000017E2B070E7E6565EF16F067EFA9
:102CC80016F0F9EF15F07D2B010E7D656EEF16F00D
:102CD80070EF16F0F7EF15F07C2BD8906D35F66E87
:102CE8006E35F76EDF0EF626F10EF722F86A000E43
:102CF800F8227C51736F746B0900F550735D0900FD
:102D0800F5507459D8A08BEF16F08DEF16F0D2EF6E
:102D180015F01200000E1D6E2EEF17F0D8900E342D
:102D2800F66E0F34F76EDF0EF626F10EF722F86A0C
:102D3800000EF8220900F5CF14F00900F5CF15F0C0
:102D48001D50145E000E155A0A501424066E0B50BE
:102D58001520076E0CC008F00DC009F016EC21F024
:102D6800000E1E6E000E1F6E1D50146E156AD89050
:102D780014361536D8900E34F66E0F34F76EDF0E13
:102D8800F626F10EF722F86A000EF8220900F5CFB0
:102D980016F00900F5CF17F0D890163617361450EC
:102DA800165E1550175A1E50165E000E175A0E5012
:102DB80016260F501722D89016361736DF0E16240F
:102DC800F66EF10E1720F76EF86A000EF822090069
:102DD800F5CF18F00900F5CF19F01FC01AF0800ED2
:102DE8001B6E000E1C6E1A2AFDEF16F01C341C32E6
:102DF8001B321A2EFAEF16F018501B1619501C1613
:102E08001B501C10D8B40BEF17F00DEF17F015EF8F
:102E180017F010C004F011C005F0B2EC21F01BEF60
:102E280017F012C004F013C005F0B2EC21F01F2A0D
:102E3800070E1F6422EF17F024EF17F0B8EF16F013
:102E48001E2A010E1E642BEF17F02DEF17F0B6EFB8
:102E580016F01D2AD8900E34F66E0F34F76EDF0E7A
:102E6800F626F10EF722F86A000EF8221D50146EAD
:102E7800156A0900F550145C0900F5501558D8A0DA
:102E880048EF17F04AEF17F092EF16F01200000E15
:102E98000001716F67BF55EF17F053EF17F067EF39
:102EA80017F0671F661F651F641F631F621F611F7E
:102EB800606D000E61236223632364236523662308
:102EC8006723010E716F6FBF6EEF17F06CEF17F08D
:102ED8007EEF17F06F1F6E1F6D1F6C1F6B1F6A1F31
:102EE800691F686D000E69236A236B236C236D23A9
:102EF8006E236F23685169116A116B116C116D1182
:102F08006E116F11D8B48BEF17F08DEF17F0D5EF66
:102F180017F0010E706F9BEF17F0D890683769377C
:102F28006A376B376C376D376E376F37702B6FAF0B
:102F3800A0EF17F0A2EF17F091EF17F06851605D5E
:102F4800695161596A5162596B5163596C5164599D
:102F58006D5165596E5166596F516759D8A0B7EFD1
:102F680017F0B9EF17F0C9EF17F06851605F6951B2
:102F7800615B6A51625B6B51635B6C51645B6D5161
:102F8800655B6E51665B6F51675BD8906F336E33CC
:102F98006D336C336B336A3369336833702FA2EF48
:102FA80017F07151D8B4DBEF17F0DDEF17F0EDEF44
:102FB80017F0671F661F651F641F631F621F611F6D
:102FC800606D000E612362236323642365236623F7
:102FD800672360C060F061C061F062C062F063C0E6
:102FE80063F064C064F065C065F066C066F067C0F1
:102FF80067F012004EEC21F0000E08EC1DF08DEC8D
:1030080009F0420E0001606F410E616FCFEC21F0B4
:10301800C20E0001606F3C0E616FD4EC21F0F28E9D
:10302800000E0001806F640E7F6F000E826F780EB5
:10303800816FAF0E836FFF0E846FFF0E866F8569F9
:10304800000E886F000E876FA4EC18F049504A10E4
:10305800D8B431EF18F033EF18F02AEF18F0000E5B
:10306800D2EC1FF060C0FDF061C0FEF0810E0001DF
:10307800726F0C0E736FC80E746F3C0E756FFDC0C7
:1030880060F0FEC061F0000E61BFFF0E626F636FFB
:10309800010E97EC12F060C06EF061C06FF062C074
:1030A80070F063C071F0A8EC0BF06EC087F06FC0D1
:1030B80088F070C089F071C08AF061EC1AF087C09E
:1030C800FBF088C0FCF0000E0001E56F010EE66F12
:1030D800000EE86F640EE76FC50EE96FFF0EEA6F2A
:1030E800FBC0EBF0FCC0ECF0BCEC20F0000E0001E3
:1030F800806F640E7F6F000E826F640E816F000E0A
:10310800836F010E846FFF0E866F8569000E886FCE
:10311800000E876FA4EC18F00001FCBF9DEF18F0BB
:10312800FC5109E15F0EFB5DD8A09DEF18F09FEF01
:1031380018F02AEF18F0898A2AEF18F049EF00F002
:1031480026EF19F0000E0001906F000E8F6F000E31
:103158008E6F000E8D6FD0EF18F0D8908F35F66E09
:103168009035F76EDF0EF626F10EF722F86A000E9C
:10317800F8220900F5CF89F00900F5CF8AF0D89038
:1031880089378A37010E8927000E8A2389518F27AC
:103198008A5190238D4B8E2BE00E896FFF0E8A6F1C
:1031A80083C0F6FF84C0F7FF000EF86E0E0EF764BA
:1031B80003D00800F55005D0F6CFE1FFF7CFE2FFC6
:1031C800E75000018B6F8C6B89518B278A518C23B8
:1031D8008B518D5D8C518E59D8A0F5EF18F0F7EF13
:1031E80018F0B1EF18F07FC069F080C06AF081C0B4
:1031F8006BF082C06CF08FC06DF090C06EF085C02F
:103208006FF086C070F087C071F088C072F0CDECA6
:1032180015F0D89000018F35F66E9035F76EDF0EF9
:10322800F626F10EF722F86A000EF8220900F5CF0B
:1032380089F00900F5CF8AF089517F278A518023C8
:10324800834B842B83C0F6FF84C0F7FF000EF86E13
:103258000E0EF76403D00800F55005D0F6CFE1FF55
:10326800F7CFE2FFE7500009D8A43DEF19F03FEF90
:1032780019F0A6EF18F01200BFEF19F0000E316E2A
:10328800000E306E000E2F6E000E2E6E6BEF19F0D2
:10329800D8903034F66E3134F76EDF0EF626F10E24
:1032A800F722F86A000EF8220900F5CF2AF0090083
:1032B800F5CF2BF0D8902A362B36010E2A26000E91
:1032C8002B222A5030262B5031222E4A2F2AE00E4C
:1032D8002A6EFF0E2B6E24C0F6FF25C0F7FF000EE6
:1032E800F86E0E0EF76403D00800F55005D0F6CF3F
:1032F800E1FFF7CFE2FFE7502C6E2D6A2A502C260B
:103308002B502D222C502E5C2D502F58D8A08FEFEB
:1033180019F091EF19F04CEF19F020C00AF021C014
:103328000BF022C00CF023C00DF030C00EF031C0FD
:103338000FF026C010F027C011F028C012F029C0E5
:1033480013F08EEC16F0D8903034F66E3134F76EF8
:10335800DF0EF626F10EF722F86A000EF8220900B1
:10336800F5CF2AF00900F5CF2BF02A5020262B5054
:103378002122244A252A24C0F6FF25C0F7FF000E83
:10338800F86E0E0EF76403D00800F55005D0F6CF9E
:10339800E1FFF7CFE2FFE7500009D8A4D6EF19F014
:1033A800D8EF19F042EF19F01200800E0001D25D3B
:1033B800D8A0E1EF19F0E3EF19F0EBEF19F0000EE8
:1033C800486E4B0E476ECF69D06960EF1AF0CFC0D8
:1033D800DFF0D0C0E0F0D25109E1020ED15DD8A0F3
:1033E800F8EF19F0FAEF19F006EF1AF0FF0ED125F1
:1033F800E36FFF0ED221E46F000EE26F000EE16F63
:103408000EEF1AF0000EE46F010EE36F000EE26F8C
:10341800010EE16FDF0EC76F000EC86FD3C0C9F091
:10342800D4C0CAF0D5C0CBF0D6C0CCF0A6EC1DF005
:10343800C7C0DDF0C8C0DEF00001D151D211D8B448
:1034480028EF1AF02AEF1AF05CEF1AF0DEBF2FEF20
:103458001AF031EF1AF05CEF1AF0FF0ED76FFF0E7B
:10346800D86FD1C0D9F0D2C0DAF0D751D927D85106
:10347800DA23D951DD5DDA51DE59D8A046EF1AF0CA
:1034880048EF1AF050EF1AF0FF0ED125DB6FFF0E50
:10349800D221DC6F54EF1AF0DDC0DBF0DEC0DCF0C7
:1034A800DB51CF25D96EDC51D021DA6E000EDF6EEC
:1034B800DDC0CFF0DEC0D0F01200000189358A35BA
:1034C800906F9051D8A46BEF1AF06DEF1AF077EF68
:1034D8001AF0000E876F000E886F000E896F000EBD
:1034E8008A6FE4EF1AF087C08BF088C08CF089C02F
:1034F8008DF08AC08EF0200E87EF1AF0D8908E33A8
:103508008D338C338B33E82E82EF1AF08B518F6F0B
:10351800898FFF0E8717FF0E8817FF0E8917000E79
:103528008A17960E905F90BF9EEF1AF09CEF1AF0E4
:10353800B4EF1AF09051800A970FD8B0A6EF1AF09E
:10354800A8EF1AF0AAEF1AF06DEF1AF0D8908A33A4
:10355800893388338733903FAAEF1AF0CCEF1AF0FB
:103568001F0E9065BAEF1AF0BCEF1AF0C4EF1AF00C
:103578006DEF1AF0D8908737883789378A379007E0
:103588009051D8A4CAEF1AF0CCEF1AF0BEEF1AF097
:103598008F51D8B4D2EF1AF0D4EF1AF0DCEF1AF04A
:1035A8008A1F891F881F876D000E882389238A2315
:1035B80087C087F088C088F089C089F08AC08AF0FF
:1035C800120020EE70F0070EDE6AE806FDE2000148
:1035D800685169116A116B116C116D116E116F11BF
:1035E800D8B4F9EF1AF0FBEF1AF04DEF1BF0010E0B
:1035F800786F09EF1BF0D890683769376A376B37EF
:103608006C376D376E376F37782B6FAF0EEF1BF057
:1036180010EF1BF0FFEF1AF0D89070377137723740
:10362800733774377537763777376851605D695106
:1036380061596A5162596B5163596C5164596D51A2
:1036480065596E5166596F516759D8A02EEF1BF016
:1036580030EF1BF041EF1BF06851605F6951615B0F
:103668006A51625B6B51635B6C51645B6D51655B66
:103678006E51665B6F51675B7081D8906F336E33A4
:103688006D336C336B336A3369336833782F10EFDB
:103698001BF070C060F071C061F072C062F073C05E
:1036A80063F074C064F075C065F076C066F077C0EA
:1036B80067F0120060C067F061C068F062C069F02E
:1036C80063C06AF000016407D8A06507642906E1B1
:1036D8006529D8A472EF1BF074EF1BF081EF1BF083
:1036E800000E616F000E606FD3EF1BF0674B682B05
:1036F800694B6A2B6407D8A0650767C0F6FF68C0E6
:10370800F7FFF86A0800F5500009D8B48EEF1BF0EF
:1037180090EF1BF0BFEF1BF069C0F6FF6AC0F7FF20
:10372800F86A0800F5500009D8B49DEF1BF09FEF28
:103738001BF0BFEF1BF064516511D8B4A6EF1BF066
:10374800A8EF1BF0BFEF1BF067C0F6FF68C0F7FFDC
:10375800F86A0800F5CF66F069C0F6FF6AC0F7FF9F
:10376800F86A0800F5506619D8B4BDEF1BF0BFEF32
:103778001BF07AEF1BF067C0F6FF68C0F7FFF86A26
:103788000800F5CF66F069C0F6FF6AC0F7FFF86A6F
:103798000800F550665D606F616BD8A06107120084
:1037A8000001685169116A116B116C116D116E116C
:1037B8006F11D8B4E2EF1BF0E4EF1BF02CEF1CF014
:1037C800010E706FF2EF1BF0D890683769376A37CF
:1037D8006B376C376D376E376F37702B6FAFF7EF0E
:1037E8001BF0F9EF1BF0E8EF1BF06851605D6951C1
:1037F80061596A5162596B5163596C5164596D51E1
:1038080065596E5166596F516759D8A00EEF1CF073
:1038180010EF1CF020EF1CF06851605F6951615B8C
:103828006A51625B6B51635B6C51645B6D51655BA4
:103838006E51665B6F51675BD8906F336E336D3333
:103848006C336B336A3369336833702FF9EF1BF0CD
:1038580060C060F061C061F062C062F063C063F094
:1038680064C064F065C065F066C066F067C067F064
:103878001200000162516311D8B445EF1CF047EF04
:103888001CF050EF1CF062516311D8A44EEF1CF0ED
:1038980050EF1CF055EF1CF06051E3EC21F0A2EF63
:1038A8001CF020EE04F06251D9266351DA22DE5072
:1038B800DE10D8B462EF1CF064EF1CF07FEF1CF050
:1038C80020EE04F06251D9266351DA2210EE02F09C
:1038D8006251E1266351E222DE50E65CE650800A3E
:1038E800686FDE50800A6859D8B07DEF1CF07FEF12
:1038F8001CF0A2EF1CF020EE02F06251D9266351B1
:10390800DA22DECF64F0DDCF65F062C0D9FF63C094
:10391800DAFFDECF66F0DDCF67F064516625D96E39
:1039280065516721DA6E60C0DFFF20EE02F0625158
:10393800D9266351DA22DE2A000EDD2212000001A8
:10394800F7A1A9EF1CF0ABEF1CF0B5EF1CF072C0AB
:1039580069F073C06AF070C06BF071C06CF000EC75
:103968001FF0000175BFBBEF1CF0BDEF1CF0C3EFEB
:103978001CF074C079F075C07AF0C7EF1CF0000E27
:103988007A6F000E796F000E786F000E776FDAEF9E
:103998001CF0000E616F200E606F70C062F071C085
:1039A80063F03DEC1CF00001774B782B7951775D83
:1039B8007851800A766F7A51800A7659D8A0E7EF55
:1039C8001CF0E9EF1CF0CDEF1CF0F7B1EEEF1CF0A6
:1039D800F0EF1CF0FAEF1CF072C069F073C06AF0E7
:1039E80070C06BF071C06CF000EC1FF072C060F03A
:1039F80073C061F04BEC20F0000179516025706FC5
:103A08007A516121716F12000001616FC6BA0FEF20
:103A18001DF011EF1DF061EF1DF000016151040D63
:103A2800010EF326000EF422AB0EF324F66EFF0E01
:103A3800F420F76EF86A000EF8220800F5CFC7FFE9
:103A48006151040DAB0EF324F66EFF0EF420F76EF1
:103A5800F86A000EF8220800F5CFC6FF000EC56E02
:103A68006151040D020EF326000EF422AB0EF3246E
:103A7800F66EFF0EF420F76EF86A000EF8220800C2
:103A8800F5CFC8FF6151040D030EF326000EF42292
:103A9800AB0EF324F66EFF0EF420F76EF86A000EF4
:103AA800F8220800F5CF60F06047604760479450FF
:103AB8006019F70B6019946EC68A1200010E000196
:103AC8006E6F400E6D6F000E6C6FF00E6B6F000E18
:103AD800666F000E656F000E686F000E676FB1ECC1
:103AE8001FF00009D8B47BEF1DF07DEF1DF097EFB4
:103AF8001DF0A5EF1DF069C063F06AC064F078ECB2
:103B080021F000016D07D8A06E076D2906E16E2926
:103B1800D8A491EF1DF093EF1DF07FEF1DF0010E7B
:103B28006E6F400E6D6F00016B07D8A06C076B2994
:103B380006E16C29D8A4A3EF1DF0A5EF1DF085EFD1
:103B48001DF01200C9C0CDF0CAC0CEF0000E0001B1
:103B5800F26F000EF16FC4EF1DF0C7C0A2F0C8C02D
:103B6800A3F0CD0EA46F000EA56FCBC0A6F0CCC0FD
:103B7800A7F04BEC00F00001A251F127A351F2236A
:103B8800CDC0F6FFCEC0F7FFF86A0800F55000096F
:103B9800D8A4D1EF1DF0D3EF1DF0B1EF1DF0F1C0A7
:103BA800C7F0F2C0C8F012009F0E0001686FFF0E48
:103BB800696F66C06AF067C06BF068516A2769511F
:103BC8006B236B510AE11A0E6A5DD8A0EEEF1DF067
:103BD800F1EF1DF0010EF2EF1DF0000E6C6F6D6B32
:103BE8006C516D11D8B4FBEF1DF0FDEF1DF003EF24
:103BF8001EF05F0E6615666F676B07EF1EF066C0F6
:103C080066F067C067F012000001F351F411D8A400
:103C180010EF1EF012EF1EF018EF1EF0F3C07EF04A
:103C2800F4C07FF01EEF1EF0FF0EF3257E6FFF0E2F
:103C3800F4217F6F7DC064F1000E0101656F7BC0C8
:103C480070F07CC071F0640E0001726F010E736F2A
:103C58007EC074F07FC075F0A3EC1CF070C07BF0E0
:103C680071C07CF01200010E0001666F200E601911
:103C78006111D8B442EF1EF044EF1EF05DEF1EF064
:103C8800F70E626FFF0E636F60C064F061C065F08D
:103C98006251642763516523655109E1050E645D2E
:103CA800D8A059EF1EF05BEF1EF05DEF1EF0000E7E
:103CB800666F66C060F0616B120049504A10D8A464
:103CC80068EF1EF06AEF1EF070EF1EF0000E4A6EED
:103CD800010E496E8AEF1EF0000E4A6E000E496E04
:103CE800899A000E216E640E206E000E236E640EFB
:103CF800226EBB0E246EFF0E256EFF0E276E266801
:103D0800000E296E000E286E40EC19F01200BA0E53
:103D1800F66E430EF76E000EF86E00EE3AF010EEF7
:103D280007F00900F5CFEEFFE550E150FAE101EEAA
:103D380000F0840EEE6AE806FDE100EEF1F00E0EEA
:103D4800EE6AE806FDE14C6A4B6A4A6A496A486AC3
:103D5800476A4D904D920001FEEF17F00001645143
:103D680009E1F00E635DD8A0BCEF1EF0BEEF1EF0B7
:103D7800C1EF1EF0010ED8EF1EF02A0E616F000E83
:103D88003FEC21F000016451616F010E3FEC21F01E
:103D980063C061F0010E3FEC21F02C0E0001616F51
:103DA800000E3FEC21F0000E1200400E0001635D92
:103DB800010E6459D8A0E3EF1EF0E5EF1EF0E8EF1E
:103DC8001EF0010EFFEF1EF02B0E616F000E3FEC90
:103DD80021F000016451616F010E3FEC21F063C0D6
:103DE80061F0010E3FEC21F02C0E0001616F000E16
:103DF8003FEC21F0000E1200000E00016F6F000E64
:103E08006E6F13EF1FF06DC060F0616B6BC062F0F6
:103E18006CC063F03DEC1CF000016E4B6F2B6E51D3
:103E28006925D96E6F516A21DA6EDF506D6F6D5159
:103E3800D8A421EF1FF023EF1FF007EF1FF01200A7
:103E4800000E8D6E000E8C6E000E896E000E8A6E4E
:103E5800000E8B6E040E966E2F0E926E9368D70E20
:103E6800946E9568970E0F015D6F790E5C6F000E6A
:103E78005B6FF18E5A89C80E0001606F430E616F47
:103E8800CFEC21F0F2861200055009E1F00E045C37
:103E9800D8A051EF1FF053EF1FF056EF1FF0010E9F
:103EA8006BEF1FF02A0E026E000E90EC21F0055009
:103EB800026E010E90EC21F004C002F0010E90ECAD
:103EC80021F02C0E026E000E90EC21F0000E120074
:103ED800400E045C010E0558D8A075EF1FF077EF6F
:103EE8001FF07AEF1FF0010E8FEF1FF02B0E026EFE
:103EF800000E90EC21F00550026E010E90EC21F0BE
:103F080004C002F0010E90EC21F02C0E026E000E9F
:103F180090EC21F0000E1200000173BF9EEF1FF01D
:103F2800735106E17205D8B09CEF1FF09EEF1FF0A9
:103F3800ACEF1FF072C074F073C075F0741F751F7A
:103F4800744B752B74C072F075C073F0B0EF1FF02E
:103F580072C072F073C073F0120065C063F066C07F
:103F680064F0D9EC1EF00009D8A4BDEF1FF0BFEF34
:103F78001FF0CDEF1FF067C063F068C064F0B2ECCB
:103F88001EF00009D8B4CBEF1FF0CDEF1FF0D0EF33
:103F98001FF0010ED1EF1FF0000E12000001646F38
:103FA80064C062F0000162476247C2506219830B25
:103FB8006219C26EC280C282C2B2E5EF1FF0E7EF9B
:103FC8001FF0E0EF1FF0C4500001636F626BC35035
:103FD8006225606F000E6321616F12009F0E000161
:103FE800626FFF0E636F200E6011646F000E611127
:103FF800656F625164276351652365510AE11A0EA2
:10400800645DD8A00AEF20F00DEF20F0010E0EEF4E
:1040180020F0000E606F616B12009F0E0001626F4E
:10402800FF0E636F60C064F061C065F06251642781
:104038006351652365510AE11A0E645DD8A027EF24
:1040480020F02AEF20F0010E2BEF20F0000E606F19
:10405800616B1200BF0E0001626FFF0E636F60C0DC
:1040680064F061C065F0625164276351652365514E
:104078000AE11A0E645DD8A044EF20F047EF20F063
:10408800010E48EF20F0000E606F616B120060C0F7
:1040980062F061C063F054EF20F00001604B612BC7
:1040A80060C0D9FF61C0DAFFDF50D8A45EEF20F00E
:1040B80060EF20F051EF20F000016251605D606F09
:1040C80063516159616F1200D00E0001626FFF0EDB
:1040D800636F60C064F061C065F06251642763512A
:1040E800652365510AE10A0E645DD8A07EEF20F0D1
:1040F80081EF20F0010E82EF20F0000E606F616BFF
:1041080012000001616F000E0001626F97EF20F04E
:10411800030E0001606F970EE82EFED7602FFCD7C4
:1041280000D00001622B6151625DD8A09EEF20F0A3
:10413800A0EF20F08CEF20F0120081B8A6EF20F05D
:10414800A8EF20F0BBEF20F089BCADEF20F0B0EF76
:1041580020F0010EB1EF20F0000EFF0A016E013AC7
:104168000146014689500118BF0B0118896E1200DB
:10417800EB0E0001EF6F000EF06FE5C0CFF0E6C068
:10418800D0F0E7C0D1F0E8C0D2F0E9C0D3F0EAC07F
:10419800D4F0EF0ED56F000ED66FD9EC19F01200DF
:1041A800000EAA6E0B0ECF6EDC0ECE6E9E90CE5019
:1041B800CFCF60F00001616B60C061F0606B60118F
:1041C800436E6151446E310ECD6E1200455046105B
:1041D800D8B4F1EF20F0F3EF20F0FFEF20F002D891
:1041E800FFEF20F00500FA6E4550FD6E4650FE6E5A
:1041F800FF6AFA501200120041504210D8B407EF7B
:1042080021F009EF21F015EF21F002D815EF21F088
:104218000500FA6E4150FD6E4250FE6EFF6AFA507C
:104228001200120006C004F007C005F06CEC1FF085
:104238000009D8A422EF21F024EF21F02AEF21F081
:1042480008C004F009C005F048EC1FF01200000196
:1042580060516203F3CF64F0F4CF65F060516303FB
:10426800F350652761516203F350652764C060F01D
:1042780065C061F012000001626F000162B102D0F6
:104288008D9001D08D808D92000161515DEC21F0FF
:104298008D821200E1EC21F0BDEC21F024EC1FF03E
:1042A800C6EC21F0D4EC20F09CEC21F0A7EC21F036
:1042B80012000001606F60C0C9FF9EA666EF21F082
:1042C80068EF21F061EF21F09E96C9501200016E4F
:1042D80001C0C9FF9EA673EF21F075EF21F06EEFC4
:1042E80021F09E96C950120000016451616F010EC1
:1042F8003FEC21F063C061F0010E3FEC21F01200A9
:104308000F015AA98AEF21F08CEF21F08EEF21F0EE
:10431800EAEC20F0F2901200036E03B002D08D9008
:1043280001D08D808D9202506BEC21F08D821200AD
:10433800F292F19CCA0E0001606F430E616FD4ECDB
:1043480021F0F2881200010EC26E800EC16EAD0E11
:10435800C06E000EC46E000EC36E12000550026ED1
:10436800010E90EC21F004C002F0010E90EC21F057
:104378001200400EC76E000EC66E010EC86E9496EF
:10438800C69A1200620ED36E000ED26E000E9B6E9D
:10439800000E9A6E120060C045F061C046F012002F
:1043A80060C041F061C042F01200F29200EC21F0CE
:0943B8001200286E756C6C2900DE
:0A43C200D09E12001200120012003B
:10F1DE00000400000000000000000000000000001D
:10F1EE00000000030000000000FE001B00000000F5
:10F1FE000005001E00000000000000000000001EC0
:10F20E00000000000000000B0000000000100001D4
:10F21E000010001D00F00003001E00010010000190
:10F22E000010001D00F00003001E00010010000180
:10F23E0000000000000900000004001C000800226D
:10F24E0000100042001000FF007F004200100084FA
:10F25E0000100000000F00000000000C001C000059
:10F26E00002200100022000800220006001C0001EF
:10F27E0000C000000020000E001800110004001154
:10F28E00000200110000000E00000000000B000044
:10F29E0000000000000E001C001100A2001000C2B1
:10F2AE00001000220011001C000A0000000C0000DB
:10F2BE00000C00000012000000000003000000001F
:10F2CE00001E00000000000000060000000000000C
:10F2DE00000000E0001F001C006000020080000023
:10F2EE000000000400000000000600C000F8003F0F
:10F2FE000000000000060024000000180000007E40
:10F30E0000000018000000240000000000000009AA
:10F31E00000000000080000000800000008000005F
:10F32E0000F0000700800000008000000080000058
:10F33E00000000000004000000000000006000005B
:10F34E000018000000000005000000010000000190
:10F35E000000000100000001000000000004000099
:10F36E000000000000180000001800000000000857
:10F37E000000000000000040000000380000000700
:10F38E0000E00000001C0000000200000000000071
:10F39E00000900F800070004000800020010000237
:10F3AE00001000020010000200100004000800F817
:10F3BE000007000000000006000000000000000032
:10F3CE00000200000002000000FE001F000000000E
:10F3DE0000090018001000040018000200140002BA
:10F3EE0000120002001100820010004400100038CC
:10F3FE0000100000000000090008000C00040010BE
:10F40E0000020010004200100042001000440010E4
:10F41E0000B800080000000700000000000900000E
:10F42E0000020000000300800002006000020010D5
:10F43E0000020008000200FE001F00000002000093
:10F44E00000000090000000400700008002E0010EB
:10F45E0000220010002200100022001000420008BE
:10F46E0000820007000000000009000000000000FC
:10F47E00000700C000080060001000580010004493
:10F48E0000100082000800000007000000000009C4
:10F49E0000000000000200100002000C0002000339
:10F4AE0000C2000000320000000E0000000200004A
:10F4BE00000000000009000000070098000800642A
:10F4CE00001000420010004200100064001000986E
:10F4DE000008000000070000000000090000000006
:10F4EE000038000000440010008200080082000472
:10F4FE00008200030084000000780000000000007D
:10F50E000004000000000030001800300018000059
:10F51E000000000400000000003000600030001801
:10F52E0000000000000A00000000008000000080C3
:10F53E000000004000010020000200200002001028
:10F54E000004001000040008000800000000000A7B
:10F55E00000000000020000100200001002000013A
:10F56E000020000100200001002000010020000109
:10F57E000020000100000000000A0000000000084A
:10F58E0000080010000400100004002000020020FB
:10F59E00000200400001008000000080000000001A
:10F5AE000000000800000000000C000000820001B6
:10F5BE00004200020022001A0022001A009C0001E4
:10F5CE0000000000000E0000000000F00003000824
:10F5DE0000040004000800C20011002200120012F4
:10F5EE0000120012001200E20011001200120004BC
:10F5FE0000120008000900F0000400000000000DD9
:10F60E0000000000000000100000000E008000014D
:10F61E0000600001001C000100020001001C00013E
:10F62E0000600001008000010000000E00000010CC
:10F63E00000000000009000000000000000000FEB5
:10F64E00001F0042001000420010006400100098DD
:10F65E0000080000000700000000000D0000000080
:10F66E0000F000030008000400040008000200106F
:10F67E000002001000020010000200100002001034
:10F68E000004000800040008000800040000000048
:10F69E00000C000000000000000000FE001F000231
:10F6AE000010000200100002001000020010000204
:10F6BE000010000400080008000400F00003000021
:10F6CE0000000009000000000000000000FE001F06
:10F6DE0000420010004200100042001000420010D4
:10F6EE0000420010000000000008000000000000B2
:10F6FE00000000FE001F0042000000420000004219
:10F70E0000000042000000000000000E000000009B
:10F71E0000F00003000800040004000800020010BE
:10F72E000002001000020010000200100082001003
:10F73E00008400100084000800880004008000038C
:10F74E0000000000000A000000000000000000FEA3
:10F75E00001F00400000004000000040000000407C
:10F76E0000000040000000FE001F0000000000042A
:10F77E00000000000000000000FE001F000000005E
:10F78E00000700000000000000080000001000004C
:10F79E0000100000000800FE000700000000000935
:10F7AE00000000000000000000FE001F00600000CE
:10F7BE0000900001000800020004000C000200107E
:10F7CE00000000000008000000000000000000FE25
:10F7DE00001F0000001000000010000000100000CC
:10F7EE00001000000000000F000000000000001CD0
:10F7FE0000F80003000600000038000000C0000101
:10F80E000000000E000000100000000E00C00001FD
:10F81E00003800000006000000F800030000001C85
:10F82E0000000000000B000000000000000000FEC1
:10F83E00001F0008000000300000004000000080A3
:10F84E000000000000030000000400FE001F000086
:10F85E000000000E0000000000F00003000800048D
:10F86E000004000800020010000200100002001048
:10F87E000002001000020010000200100004000838
:10F88E000008000400F00003000000000009000062
:10F89E0000000000000000FE001F004200000042B9
:10F8AE0000000042000000240000001800000000CC
:10F8BE000000000E0000000000F00003000800042D
:10F8CE0000040008000200100002001000020010E8
:10F8DE0000020011000200120002000C00040008D9
:10F8EE000008001600F0002100000000000A0000D1
:10F8FE0000000000000000FE001F0042000000C2D9
:10F90E00000000420001004200060024000800181A
:10F91E00001000000000000800000004001800089D
:10F92E000024001000420010004200100084000865
:10F93E00000800070000000000080002000000029E
:10F94E0000000002000000FE001F00020000000286
:10F95E0000000002000000000000000A000000008D
:10F96E000000000000FE000700000008000000106C
:10F97E0000000010000000100000000800FE00074C
:10F98E0000000000000C00020000001C00000060DF
:10F99E000000008000010000000E000000100000BA
:10F9AE00000E0080000100600000001C000000023C
:10F9BE00000000000000000F000000000006000024
:10F9CE00007800000080000700000018008000078B
:10F9DE00007800000006000000780000008000079C
:10F9EE0000000018008000070078000000060000EC
:10F9FE0000000000000900000000000600180008CA
:10FA0E0000040030000300C00000003000030008B6
:10FA1E0000040006001800000000000B00000000AB
:10FA2E00000200000004000000180000006000004A
:10FA3E000080001F0060000000180000000400009D
:10FA4E00000200000000000000080002001000028A
:10FA5E00001C0002001300C2001000320010000E45
:10FA6E000010000200100000000000060000000060
:10FA7E000000000000FE00FF000200800002008077
:10FA8E0000000000000A00020000000C0000001040
:10FA9E000000006000000080000100000006000071
:10FAAE0000080000003000000040000000000005CB
:10FABE0000000000000200800002008000FE00FF37
:10FACE0000000000000B000000000000000200809B
:10FADE00000100700000000C000000020000000C8D
:10FAEE000000007000000080000100000002000015
:10FAFE00000000090000004000000040000000402F
:10FB0E0000000040000000400000004000000040E7
:10FB1E000000004000000000000500000000000092
:10FB2E000000000200000004000000000000000BB6
:10FB3E000000000000C000070020000800100010A8
:10FB4E000010001000100010001000100010001027
:10FB5E000020000800F0001F00000000000B000055
:10FB6E00000000FE001F0020000800100010001012
:10FB7E0000100010001000100010001000100020E7
:10FB8E00000800C0000700000000000A000000008E
:10FB9E0000C0000700200008001000100010001028
:10FBAE00001000100010001000200008004000049B
:10FBBE0000000000000B0000000000C00007002045
:10FBCE0000080010001000100010001000100010AF
:10FBDE000010001000100020000800FE001F0000A2
:10FBEE000000000A0000000000C00007002000090D
:10FBFE000010001100100011001000110010001173
:10FC0E000020000900C000050000000000060000F2
:10FC1E0000000010000000FC001F00120000001287
:10FC2E00000000000000000B0000000000C00027D4
:10FC3E00002000480010009000100090001000906E
:10FC4E0000100090001000900020004800F0003FCF
:10FC5E0000000000000A0000000000FE001F00204F
:10FC6E000000001000000010000000100000001046
:10FC7E0000000020000000C0001F00000000000374
:10FC8E000000000000F6001F00000000000300004E
:10FC9E00008000F6007F0000000000080000000059
:10FCAE0000FE001F00000001008000020040000462
:10FCBE0000200008001000100000000000030000EB
:10FCCE00000000FE001F00000000000F00000000FA
:10FCDE0000F0001F002000000010000000100000C7
:10FCEE00001000000020000000C0001F00200000D7
:10FCFE0000100000001000000010000000200000A6
:10FD0E0000C0001F00000000000A0000000000F00C
:10FD1E00001F002000000010000000100000001066
:10FD2E000000001000000020000000C0001F0000B6
:10FD3E000000000A0000000000C0000700200008BC
:10FD4E000010001000100010001000100010001025
:10FD5E000020000800C0000700000000000B00009B
:10FD6E00000000F000FF002000080010001000103E
:10FD7E0000100010001000100010001000100020E5
:10FD8E00000800C0000700000000000B000000008B
:10FD9E0000C0000700200008001000100010001026
:10FDAE0000100010001000100010001000200008BD
:10FDBE0000F000FF0000000000060000000000F050
:10FDCE00001F0020000000100000001000000000C6
:10FDDE0000000006006000080090001000100011E6
:10FDEE00001000110020000E0000000000070000AF
:10FDFE000000001000000010000000FE001F0010A8
:10FE0E0000000010000000000000000A00000000CA
:10FE1E0000F00007000000080000001000000010B5
:10FE2E0000000010000000100000000800F00007A5
:10FE3E0000000000000A00100000006000000080BA
:10FE4E0000030000000C000000100000000C0080F9
:10FE5E000003006000000010000000000000000E13
:10FE6E000010000000E00000000000070000001875
:10FE7E000000000700E000000010000000E000009D
:10FE8E0000000007000000180000000700E000005E
:10FE9E0000100000000000000009001000100020FB
:10FEAE0000080040000400800003008000030040B2
:10FEBE0000040020000800100010000000000009DF
:10FECE000010000000E00000000000830000007C35
:10FEDE000000000C0000000300E000000010000015
:10FEEE0000000000000800100010001000180010A4
:10FEFE0000160010001100D000100030001000108D
:10FF0E0000100000000000070000000000000001CB
:10FF1E000080000200FC007E0002008000020080D3
:10FF2E0000000000000700000000000000000000BC
:10FF3E000000000000000000000000FE00FF0000B6
:10FF4E0000000006000200800002008000FC007E1F
:10FF5E00008000020000000100000000000A000006
:10FF6E000000008000000040000000400000004043
:10FF7E0000000080000000800000008000000040B3
:10FF8E00000000000000000500FF000F0001000847
:10FF9E000001000800FF000F0000000000004001FB
:10FFAE000048454C4C4F20574F524C44002D2D2DA0
:10FFBE002D2D2D2D2D2D00504F542025642525003F
:10FFCE0068685800686864006868690068686E0050
:10FFDE0068686F0068687500686878007A58007AFB
:10FFEE0064007A69007A6E007A6F007A75007A780A
:02FFFE00000001
:020000040020DA
:08000000FFFFFFFFFFFFFFFF00
:020000040030CA
:0E00000015087F7CFF8991FF0FC00FE00F40B5
:00000001FF
