:020000040000FA
:040000001FEF00F0FE
:100008005A82FACF02F0FBCF03F0F2A60EEF00F00F
:1000180010EF00F019EF00F0F2A015EF00F017EF65
:1000280000F019EF00F059EC2EF003C0FBFF02C0FE
:10003800FAFF5A921100BAEF2BF048C0D9FF49C015
:10004800DAFFDECFF6FFDDCFF7FFF86A0800F550DC
:10005800250AD8A432EF00F034EF00F076EF0AF06A
:1000680048C0D9FF49C0DAFFDE2A000EDD22000EA3
:100078000001F56F000EF46FF4C0F6F0F5C0F7F06C
:1000880058685968000E9B6F000E9A6F93EF00F046
:10009800F68148C0D9FF49C0DAFFDE2A000EDD220A
:1000A80093EF00F0F6834DEF00F0F6854DEF00F08A
:1000B800F6874DEF00F0F6894DEF00F0000E9B6FCC
:1000C800010E9A6F93EF00F048C0D9FF49C0DAFFDC
:1000D800DECFF6FFDDCFF7FFF86A0800F5504C6E6B
:1000E8004D6A4D50000AD8B47CEF00F062EF00F082
:1000F8004C50200AD8B45CEF00F0030AD8B45FEF84
:1001080000F0080AD8B459EF00F0060AD8B44CEF4A
:1001180000F01D0AD8B456EF00F062EF00F09A51D3
:100128009B11D8B49AEF00F09CEF00F068EF00F054
:10013800F6A1A1EF00F0A3EF00F0A4EF00F0F69312
:1001480048C0D9FF49C0DAFFDECFF6FFDDCFF7FFA1
:10015800F86A0800F5502A0AD8A4B5EF00F0B7EFFE
:1001680000F0E0EF00F048C0D9FF49C0DAFFDE2A0E
:10017800000EDD224AC0D9FF4BC0DAFFDFCF4CF0BA
:10018800020EDE26DFCF4DF0000EDD224CC0D9FF77
:100198004DC0DAFFDECFF4F0DDCFF5F0F5BFD9EFD3
:1001A80000F0D7EF00F025EF01F0F681F46DF51FB0
:1001B800D8B0F52B25EF01F048C0D9FF49C0DAFFC8
:1001C800DECF0BF0DDCF0CF052EC20F00BC0F4F0DA
:1001D8000CC0F5F0F7EF00F048C0D9FF49C0DAFFCE
:1001E800DE2A000EDD22D00E4C6EFF0E4D6E48C08A
:1001F800D9FF49C0DAFFDECFF6FFDDCFF7FFF86A97
:100208000800F5504E6E4F6A4C504E264D504F2206
:100218004F500AE10A0E4E5CD8A015EF01F018EF16
:1002280001F0010E19EF01F0000E00019C6F9D6BAB
:100238009C519D11D8A423EF01F025EF01F0F0EFB8
:1002480000F048C0D9FF49C0DAFFDECFF6FFDDCFA6
:10025800F7FFF86A0800F5502E0AD8A436EF01F027
:1002680038EF01F0B8EF01F0000E596E000E586E2D
:1002780048C0D9FF49C0DAFFDE2A000EDD2248C097
:10028800D9FF49C0DAFFDECFF6FFDDCFF7FFF86A06
:100298000800F5502A0AD8A454EF01F056EF01F0EF
:1002A80073EF01F048C0D9FF49C0DAFFDE2A000E1B
:1002B800DD224AC0D9FF4BC0DAFFDFCF4CF0020E77
:1002C800DE26DFCF4DF0000EDD224CC0D9FF4DC039
:1002D800DAFFDECF58F0DDCF59F0B8EF01F048C0B3
:1002E800D9FF49C0DAFFDECF0BF0DDCF0CF052ECBE
:1002F80020F00BC058F00CC059F08AEF01F048C04C
:10030800D9FF49C0DAFFDE2A000EDD22D00E4C6E7E
:10031800FF0E4D6E48C0D9FF49C0DAFFDECFF6FFA9
:10032800DDCFF7FFF86A0800F5504E6E4F6A4C5063
:100338004E264D504F224F500AE10A0E4E5CD8A06F
:10034800A8EF01F0ABEF01F0010EACEF01F0000EE9
:1003580000019E6F9F6B9E519F11D8A4B6EF01F0CC
:10036800B8EF01F083EF01F048C0D9FF49C0DAFFC8
:10037800DECFF6FFDDCFF7FFF86A0800F5500A6E0A
:100388000B6ACFEC2AF00A500001A66FA651D8B428
:10039800D0EF01F0D2EF01F00EEF02F048C0D9FF24
:1003A80049C0DAFFDECF4CF0DDCF4DF0010E4C2610
:1003B800000E4D224CC0F6FF4DC0F7FFF86A08004A
:1003C800F5500A6E0B6ACFEC2AF00A500001A76FAD
:1003D800A751D8B4F2EF01F0F4EF01F00EEF02F0FC
:1003E80048C0D9FF49C0DAFFDECF4CF0DDCF4DF071
:1003F800020E4C26000E4D224CC0F6FF4DC0F7FFF2
:10040800F86A0800F5500A6E0B6ACFEC2AF00A5019
:100418000001A86F48C0D9FF49C0DAFFDECFF6FF58
:10042800DDCFF7FFF86A0800F550630AD8A41FEF7C
:1004380002F021EF02F048EF02F048C0D9FF49C0AE
:10044800DAFFDE2A000EDD224AC0D9FF4BC0DAFFF0
:10045800DFCF4CF0020EDE26DFCF4DF0000EDD229E
:100468004CC0D9FF4DC0DAFFDF50B36F46C01FF054
:1004780047C020F0B3C021F08CEC2BF01FC046F031
:1004880020C047F092EF0AF048C0D9FF49C0DAFF10
:10049800DECF04F0DDCF05F0C60E066EFF0E076E48
:1004A800000E096E030E086EAEEC24F00450051021
:1004B800D8B461EF02F063EF02F07EEF02F048C0BB
:1004C800D9FF49C0DAFFDECF04F0DDCF05F0CE0E4C
:1004D800066EFF0E076E000E096E030E086EAEEC78
:1004E80024F004500510D8A47CEF02F07EEF02F04F
:1004F800BFEF02F0030E48C0D9FF49C0DAFFDE267D
:10050800000EDD224AC0D9FF4BC0DAFFDFCF4CF026
:10051800020EDE26DFCF4DF0000EDD224CC0D9FFE3
:100528004DC0DAFFDF500001A96F000EA9BFFF0E12
:10053800AA6FAB6FAC6FAD6FAE6FAF6FB06F46C0E9
:100548001FF047C020F0A9C021F0AAC022F0ABC01C
:1005580023F0ACC024F0ADC025F0AEC026F0AFC08B
:1005680027F0B0C028F070EC18F01FC046F020C08B
:1005780047F092EF0AF048C0D9FF49C0DAFFDECF52
:1005880004F0DDCF05F0C70E066EFF0E076E000EF5
:10059800096E020E086EAEEC24F004500510D8B4B3
:1005A800D8EF02F0DAEF02F0F5EF02F048C0D9FF19
:1005B80049C0DAFFDECF04F0DDCF05F0CF0E066EBE
:1005C800FF0E076E000E096E020E086EAEEC24F0E8
:1005D80004500510D8A4F3EF02F0F5EF02F01DEF78
:1005E80003F0020E48C0D9FF49C0DAFFDE26000E2C
:1005F800DD224AC0D9FF4BC0DAFFDFCF4CF0020E34
:10060800DE26DFCF4DF0000EDD224CC0D9FF4DC0F5
:10061800DAFFDECFA9F0DDCFAAF00001000EAABFF5
:10062800FF0EAB6FAC6FAD6FAE6FAF6FB06FA3EF78
:1006380002F048C0D9FF49C0DAFFDECFF6FFDDCFB0
:10064800F7FFF86A0800F550640AD8B42EEF03F0F3
:1006580030EF03F043EF03F048C0D9FF49C0DAFF99
:10066800DECFF6FFDDCFF7FFF86A0800F550690A1C
:10067800D8A441EF03F043EF03F06AEF03F048C05A
:10068800D9FF49C0DAFFDE2A000EDD224AC0D9FFB1
:100698004BC0DAFFDFCF4CF0020EDE26DFCF4DF085
:1006A800000EDD224CC0D9FF4DC0DAFFDECFA9F025
:1006B800DDCFAAF00001000EAABFFF0EAB6FAC6F32
:1006C800AD6FAE6FAF6FB06FA3EF02F048C0D9FF48
:1006D80049C0DAFFDECF04F0DDCF05F0E90E066E83
:1006E800FF0E076E000E096E020E086EAEEC24F0C7
:1006F80004500510D8B483EF03F085EF03F0A0EFA2
:1007080003F048C0D9FF49C0DAFFDECF04F0DDCFDF
:1007180005F0EF0E066EFF0E076E000E096E020E54
:10072800086EAEEC24F004500510D8A49EEF03F038
:10073800A0EF03F0C9EF03F0020E48C0D9FF49C08B
:10074800DAFFDE26000EDD224AC0D9FF4BC0DAFFF1
:10075800DFCF4CF0020EDE26DFCF4DF0000EDD229B
:100768004CC0D9FF4DC0DAFFDECF4EF0DDCF4FF0E1
:100778004EC0A9F04FC0AAF00001AB6BAC6BAD6BDB
:10078800AE6BAF6BB06BA3EF02F0660E0001A6195B
:10079800D8A4D1EF03F0D3EF03F014EF04F048C06E
:1007A800D9FF49C0DAFFDECFF6FFDDCFF7FFF86AE1
:1007B8000800F5CFB3F048C0D9FF49C0DAFFDE2AF8
:1007C800000EDD224AC0D9FF4BC0DAFFDFCF4CF064
:1007D800040EDE26DFCF4DF0000EDD224CC0D9FF1F
:1007E8004DC0DAFFDECFA2F0DECFA3F0DECFA4F05B
:1007F800DECFA5F046C037F047C038F0A2C039F0C8
:10080800A3C03AF0A4C03BF0A5C03CF0B3C03DF093
:1008180093EC0AF037C046F038C047F092EF0AF080
:10082800A60E046E000E056EEC0E066EFF0E076E29
:10083800000E096E020E086EAEEC24F0045005108E
:10084800D8A429EF04F02BEF04F0A9EF04F048C076
:10085800D9FF49C0DAFFDECF4CF0DDCF4DF0010EF5
:100868004C26000E4D224CC0F6FF4DC0F7FFF86A2B
:100878000800F5CFB3F0BF0E4C6EFF0E4D6E48C0AA
:10088800D9FF49C0DAFFDECFF6FFDDCFF7FFF86A00
:100898000800F5504E6E4F6A4C504E264D504F2270
:1008A8004F500AE11A0E4E5CD8A05DEF04F060EFDD
:1008B80004F0010E61EF04F0000E0001A06FA16BBF
:1008C800A051A111D8B46BEF04F06DEF04F087EFDD
:1008D80004F04AC0D9FF4BC0DAFFDFCF4CF0040E5A
:1008E800DE26DFCF4DF0000EDD224CC0D9FF4DC013
:1008F800DAFFDECFA2F0DECFA3F0DECFA4F0DECFAA
:10090800A5F09FEF04F04AC0D9FF4BC0DAFFDFCF54
:100918004CF0040EDE26DFCF4DF0000EDD224CC079
:10092800D9FF4DC0DAFFDECFA2F0DECFA3F0DECFD5
:10093800A4F0DECFA5F0020E48C0D9FF49C0DAFF07
:10094800DE26000EDD22FEEF03F048C0D9FF49C0C5
:10095800DAFFDECF04F0DDCF05F0DA0E066EFF0E0B
:10096800076E000E096E030E086EAEEC24F00450FC
:100978000510D8A4C2EF04F0C4EF04F004EF05F0AA
:10098800030E48C0D9FF49C0DAFFDE26000EDD227B
:100998004AC0D9FF4BC0DAFFDFCF4CF0020EDE268B
:1009A800DFCF4DF0000EDD224CC0D9FF4DC0DAFF7D
:1009B800DF504E6E4E500001B46FB56BB66BB76B1F
:1009C800B86BB96BBA6BBB6B46C01FF047C020F061
:1009D800B4C021F0B5C022F0B6C023F0B7C024F0EF
:1009E800B8C025F0B9C026F0BAC027F0BBC028F0BF
:1009F80080EC1EF01FC046F020C047F092EF0AF0CE
:100A080048C0D9FF49C0DAFFDECF04F0DDCF05F0DA
:100A1800DB0E066EFF0E076E000E096E020E086EE4
:100A2800AEEC24F004500510D8A41DEF05F01FEF1C
:100A380005F048EF05F0020E48C0D9FF49C0DAFFBB
:100A4800DE26000EDD224AC0D9FF4BC0DAFFDFCF19
:100A58004CF0020EDE26DFCF4DF0000EDD224CC03A
:100A6800D9FF4DC0DAFFDECF4EF0DDCF4FF04EC0DC
:100A7800B4F04FC0B5F00001B66BB76BB86BB96B8B
:100A8800BA6BBB6BE8EF04F048C0D9FF49C0DAFF86
:100A9800DECFF6FFDDCFF7FFF86A0800F5506F0AE2
:100AA800D8A459EF05F05BEF05F083EF05F048C0D7
:100AB800D9FF49C0DAFFDE2A000EDD224AC0D9FF7D
:100AC8004BC0DAFFDFCF4CF0020EDE26DFCF4DF051
:100AD800000EDD224CC0D9FF4DC0DAFFDECF4EF04C
:100AE800DDCF4FF04EC0B4F04FC0B5F00001B66B8B
:100AF800B76BB86BB96BBA6BBB6BE8EF04F048C067
:100B0800D9FF49C0DAFFDECF04F0DDCF05F0F50EDE
:100B1800066EFF0E076E000E096E020E086EAEEC32
:100B280024F004500510D8A49CEF05F09EEF05F0C2
:100B3800C7EF05F0020E48C0D9FF49C0DAFFDE262C
:100B4800000EDD224AC0D9FF4BC0DAFFDFCF4CF0E0
:100B5800020EDE26DFCF4DF0000EDD224CC0D9FF9D
:100B68004DC0DAFFDECF4EF0DDCF4FF04EC0B4F00F
:100B78004FC0B5F00001B66BB76BB86BB96BBA6B09
:100B8800BB6BE8EF04F048C0D9FF49C0DAFFDECFFD
:100B980004F0DDCF05F0D60E066EFF0E076E000ED0
:100BA800096E030E086EAEEC24F004500510D8A4AC
:100BB800E0EF05F0E2EF05F00AEF06F0030E48C09B
:100BC800D9FF49C0DAFFDE26000EDD224AC0D9FF70
:100BD8004BC0DAFFDFCF4CF0020EDE26DFCF4DF040
:100BE800000EDD224CC0D9FF4DC0DAFFDECFB1F0D8
:100BF800DDCFB2F0B1C0D9FFB2C0DAFFF2C0DFFF7B
:100C0800000E476E000E466E92EF0AF048C0D9FFFC
:100C180049C0DAFFDECF04F0DDCF05F0D70E066E4F
:100C2800FF0E076E000E096E020E086EAEEC24F081
:100C380004500510D8A423EF06F025EF06F04BEF7B
:100C480006F0020E48C0D9FF49C0DAFFDE26000EC2
:100C5800DD224AC0D9FF4BC0DAFFDFCF4CF0020ECD
:100C6800DE26DFCF4DF0000EDD224CC0D9FF4DC08F
:100C7800DAFFDECFB1F0DDCFB2F0B1C0D9FFB2C03C
:100C8800DAFFF2C0DEFFF3C0DDFF04EF06F048C074
:100C9800D9FF49C0DAFFDECFF6FFDDCFF7FFF86AEC
:100CA8000800F5506E0AD8A45CEF06F05EEF06F077
:100CB80083EF06F048C0D9FF49C0DAFFDE2A000EEC
:100CC800DD224AC0D9FF4BC0DAFFDFCF4CF0020E5D
:100CD800DE26DFCF4DF0000EDD224CC0D9FF4DC01F
:100CE800DAFFDECFB1F0DDCFB2F0B1C0D9FFB2C0CC
:100CF800DAFFF2C0DEFFF3C0DDFF04EF06F048C004
:100D0800D9FF49C0DAFFDECF04F0DDCF05F0F20EDF
:100D1800066EFF0E076E000E096E020E086EAEEC30
:100D280024F004500510D8A49CEF06F09EEF06F0BE
:100D3800C4EF06F0020E48C0D9FF49C0DAFFDE262C
:100D4800000EDD224AC0D9FF4BC0DAFFDFCF4CF0DE
:100D5800020EDE26DFCF4DF0000EDD224CC0D9FF9B
:100D68004DC0DAFFDECFB1F0DDCFB2F0B1C0D9FFB0
:100D7800B2C0DAFFF2C0DEFFF3C0DDFF04EF06F019
:100D880048C0D9FF49C0DAFFDECFF6FFDDCFF7FF55
:100D9800F86A0800F550700AD8A4D5EF06F0D7EF26
:100DA80006F01BEF07F048C0D9FF49C0DAFFDE2A7A
:100DB800000EDD224AC0D9FF4BC0DAFFDFCF4CF06E
:100DC800020EDE26DFCF4DF0000EDD224CC0D9FF2B
:100DD8004DC0DAFFDECF4EF0DDCF4FF04EC0B4F09D
:100DE8004FC0B5F00001B66BB76BB86BB96BBA6B97
:100DF800BB6B46C01FF047C020F0B4C021F0B5C09F
:100E080022F0B6C023F0B7C024F0B8C025F0B9C0AE
:100E180026F0BAC027F0BBC028F0780E296EE3ECA4
:100E280019F01FC046F020C047F092EF0AF048C002
:100E3800D9FF49C0DAFFDECFF6FFDDCFF7FFF86A4A
:100E48000800F550730AD8A42CEF07F02EEF07F02E
:100E580059EF07F048C0D9FF49C0DAFFDE2A000E73
:100E6800DD224AC0D9FF4BC0DAFFDFCF4CF0020EBB
:100E7800DE26DFCF4DF0000EDD224CC0D9FF4DC07D
:100E8800DAFFDECF98F0DDCF99F046C00DF047C00D
:100E98000EF098C00FF099C010F0E3EC21F00DC0EF
:100EA80046F00EC047F092EF0AF048C0D9FF49C09B
:100EB800DAFFDECF04F0DDCF05F0DE0E066EFF0EA2
:100EC800076E000E096E030E086EAEEC24F0045097
:100ED8000510D8A472EF07F074EF07F0B4EF07F02D
:100EE800030E48C0D9FF49C0DAFFDE26000EDD2216
:100EF8004AC0D9FF4BC0DAFFDFCF4CF0020EDE2626
:100F0800DFCF4DF0000EDD224CC0D9FF4DC0DAFF17
:100F1800DF504E6E4E500001B46FB56BB66BB76BB9
:100F2800B86BB96BBA6BBB6B46C01FF047C020F0FB
:100F3800B4C021F0B5C022F0B6C023F0B7C024F089
:100F4800B8C025F0B9C026F0BAC027F0BBC028F059
:100F58007EEC1DF01FC046F020C047F092EF0AF06B
:100F680048C0D9FF49C0DAFFDECF04F0DDCF05F075
:100F7800DF0E066EFF0E076E000E096E020E086E7B
:100F8800AEEC24F004500510D8A4CDEF07F0CFEF55
:100F980007F0F8EF07F0020E48C0D9FF49C0DAFFA2
:100FA800DE26000EDD224AC0D9FF4BC0DAFFDFCFB4
:100FB8004CF0020EDE26DFCF4DF0000EDD224CC0D5
:100FC800D9FF4DC0DAFFDECF4EF0DDCF4FF04EC077
:100FD800B4F04FC0B5F00001B66BB76BB86BB96B26
:100FE800BA6BBB6B98EF07F048C0D9FF49C0DAFF6E
:100FF800DECFF6FFDDCFF7FFF86A0800F550750A77
:10100800D8A409EF08F00BEF08F033EF08F048C058
:10101800D9FF49C0DAFFDE2A000EDD224AC0D9FF17
:101028004BC0DAFFDFCF4CF0020EDE26DFCF4DF0EB
:10103800000EDD224CC0D9FF4DC0DAFFDECF4EF0E6
:10104800DDCF4FF04EC0B4F04FC0B5F00001B66B25
:10105800B76BB86BB96BBA6BBB6B98EF07F048C04E
:10106800D9FF49C0DAFFDECF04F0DDCF05F0F80E76
:10107800066EFF0E076E000E096E020E086EAEECCD
:1010880024F004500510D8A44CEF08F04EEF08F0F7
:1010980077EF08F0020E48C0D9FF49C0DAFFDE2614
:1010A800000EDD224AC0D9FF4BC0DAFFDFCF4CF07B
:1010B800020EDE26DFCF4DF0000EDD224CC0D9FF38
:1010C8004DC0DAFFDECF4EF0DDCF4FF04EC0B4F0AA
:1010D8004FC0B5F00001B66BB76BB86BB96BBA6BA4
:1010E800BB6B98EF07F048C0D9FF49C0DAFFDECFE5
:1010F80004F0DDCF05F0E20E066EFF0E076E000E5F
:10110800096E030E086EAEEC24F004500510D8B436
:1011180090EF08F092EF08F0ADEF08F048C0D9FF63
:1011280049C0DAFFDECF04F0DDCF05F0C20E066E4F
:10113800FF0E076E000E096E030E086EAEEC24F06B
:1011480004500510D8A4ABEF08F0ADEF08F003EF9A
:1011580009F048C0D9FF49C0DAFFDECF4CF0DDCF37
:101168004DF0020E4C26000E4D224CC0F6FF4DC02D
:10117800F7FFF86A0800F5CFB3F0030E48C0D9FFAF
:1011880049C0DAFFDE26000EDD224AC0D9FF4BC077
:10119800DAFFDFCF4CF0020EDE26DFCF4DF0000E77
:1011A800DD224CC0D9FF4DC0DAFFDF504E6E4E50E5
:1011B8000001B46FB56BB66BB76BB86BB96BBA6B34
:1011C800BB6B46C01FF047C020F0B4C021F0B5C0CB
:1011D80022F0B6C023F0B7C024F0B8C025F0B9C0DB
:1011E80026F0BAC027F0BBC028F0B3C029F0E3EC62
:1011F80019F01FC046F020C047F092EF0AF048C02F
:10120800D9FF49C0DAFFDECF04F0DDCF05F0E30EE9
:10121800066EFF0E076E000E096E020E086EAEEC2B
:1012280024F004500510D8B41CEF09F01EEF09F0A3
:1012380039EF09F048C0D9FF49C0DAFFDECF04F022
:10124800DDCF05F0C30E066EFF0E076E000E096EA9
:10125800020E086EAEEC24F004500510D8A437EF47
:1012680009F039EF09F076EF09F048C0D9FF49C015
:10127800DAFFDECF4CF0DDCF4DF0010E4C26000E2C
:101288004D224CC0F6FF4DC0F7FFF86A0800F5CFB5
:10129800B3F0020E48C0D9FF49C0DAFFDE26000EBF
:1012A800DD224AC0D9FF4BC0DAFFDFCF4CF0020E77
:1012B800DE26DFCF4DF0000EDD224CC0D9FF4DC039
:1012C800DAFFDECF4EF0DDCF4FF04EC0B4F04FC0A6
:1012D800B5F00001B66BB76BB86BB96BBA6BBB6B8B
:1012E800E5EF08F048C0D9FF49C0DAFFDECFF6FFC6
:1012F800DDCFF7FFF86A0800F550780AD8B487EF11
:1013080009F089EF09F09CEF09F048C0D9FF49C0FE
:10131800DAFFDECFF6FFDDCFF7FFF86A0800F550F9
:10132800580AD8A49AEF09F09CEF09F0D0EF09F019
:1013380048C0D9FF49C0DAFFDECFF6FFDDCFF7FF9F
:10134800F86A0800F5CFB3F048C0D9FF49C0DAFF02
:10135800DE2A000EDD224AC0D9FF4BC0DAFFDFCFFC
:101368004CF0020EDE26DFCF4DF0000EDD224CC021
:10137800D9FF4DC0DAFFDECF4EF0DDCF4FF04EC0C3
:10138800B4F04FC0B5F00001B66BB76BB86BB96B72
:10139800BA6BBB6BE5EF08F048C0D9FF49C0DAFF6C
:1013A800DECF04F0DDCF05F0FB0E066EFF0E076EF4
:1013B800000E096E020E086EAEEC24F00450051003
:1013C800D8B4E9EF09F0EBEF09F006EF0AF048C0EE
:1013D800D9FF49C0DAFFDECF04F0DDCF05F0E60E15
:1013E800066EFF0E076E000E096E020E086EAEEC5A
:1013F80024F004500510D8A404EF0AF006EF0AF010
:1014080043EF0AF048C0D9FF49C0DAFFDECF4CF0FD
:10141800DDCF4DF0010E4C26000E4D224CC0F6FFDC
:101428004DC0F7FFF86A0800F5CFB3F0020E48C0C8
:10143800D9FF49C0DAFFDE26000EDD224AC0D9FFF7
:101448004BC0DAFFDFCF4CF0020EDE26DFCF4DF0C7
:10145800000EDD224CC0D9FF4DC0DAFFDECF4EF0C2
:10146800DDCF4FF04EC0B4F04FC0B5F00001B66B01
:10147800B76BB86BB96BBA6BBB6BE5EF08F048C0DC
:10148800D9FF49C0DAFFDECFF6FFDDCFF7FFF86AF4
:101498000800F550250AD8A454EF0AF056EF0AF0D0
:1014A8006DEF0AF048C0D9FF49C0DAFFDE2A000E06
:1014B800DD22000E056E250E046E46C006F047C0FC
:1014C80007F02DEC28F0000E476E010E466E92EFE5
:1014D8000AF048C0D9FF49C0DAFFDE2A000EDD2233
:1014E80004EF06F048C0D9FF49C0DAFFDECFF6FFA7
:1014F800DDCFF7FFF86A0800F550046E056A46C0AC
:1015080006F047C007F02DEC28F048C0D9FF49C0C5
:10151800DAFFDE2A000EDD2267EF0AF01200000E65
:1015280000017B6F000E7A6F39C08CF03AC08DF0E5
:101538003BC08EF03CC08FF08FBFA7EF0AF0A5EF3D
:101548000AF0BDEF0AF0000E7B6F010E7A6F8CC0B7
:1015580004F08DC005F08EC006F08FC007F070EC67
:101568002DF004C08CF005C08DF006C08EF007C0C9
:101578008FF0000E0001936F000E926FF4C07FF0A1
:10158800F5C080F07A517B11D8A4CDEF0AF0CFEFE7
:101598000AF0D6EF0AF0F6A5D4EF0AF0D6EF0AF073
:1015A800F0EF0AF07A517B11D8A4DDEF0AF0DFEFF3
:1015B8000AF0E5EF0AF0000E656F2B0E646FE9EF95
:1015C8000AF0000E656F2D0E646F64C064F1924BD3
:1015D800932B7F07D8A080078CC004F08DC005F03E
:1015E8008EC006F08FC007F0CEEC26F0040405107C
:1015F800D8A401EF0BF003EF0BF05AEF0BF0BF0E7E
:101608003E6EFF0E3F6E3D50406E416A3E50402692
:101618003F50412241500AE11A0E405CD8A017EF12
:101628000BF01AEF0BF0010E1BEF0BF0000E000190
:10163800666F676B66516711D8B425EF0BF027EF1B
:101648000BF035EF0BF0640E9225046E010E93211A
:10165800056EBA0E066EFF0E076E2EEC2BF041EFEC
:101668000BF0640E9225046E010E9321056ECA0ECE
:10167800066EFF0E076E2EEC2BF00001FD0E7F2785
:10168800FF0E802337C014F038C015F0640E166EB4
:10169800010E176E7FC018F080C019F092EC28F088
:1016A80014C037F015C038F06AEF10F08CC004F0A1
:1016B8008DC005F08EC006F08FC007F0CEEC26F086
:1016C80004500510D8A46BEF0BF06DEF0BF0ADEFE5
:1016D8000BF0BF0E3E6EFF0E3F6E3D50406E416AEE
:1016E8003E5040263F50412241500AE11A0E405CCC
:1016F800D8A081EF0BF084EF0BF0010E85EF0BF013
:10170800000E0001686F696B68516911D8B48FEFDA
:101718000BF091EF0BF09FEF0BF0640E9225046E27
:10172800010E9321056EBE0E066EFF0E076E2EEC9F
:101738002BF041EF0BF0640E9225046E010E9321FD
:10174800056ED20E066EFF0E076E2EEC2BF041EFE3
:101758000BF0000E0001946F000E956F800E966FCF
:101768003F0E976F000E916F000E906F8CC004F0C3
:101778008DC005F08EC006F08FC007F0000E086E11
:10178800000E096E000E0A6E000E0B6E07EC2AF0B2
:10179800D8B0D1EF0BF0D3EF0BF056EF0CF0F2EF1F
:1017A8000BF094C012F095C013F096C014F097C0D7
:1017B80015F0000E166E000E176E200E186E410EF4
:1017C800196ECBEC12F012C094F013C095F014C04F
:1017D80096F015C097F00001904B912B8CC02BF020
:1017E8008DC02CF08EC02DF08FC02EF0000E166E1E
:1017F800000E176E200E186E410E196E94C012F06E
:1018080095C013F096C014F097C015F0CBEC12F009
:1018180012C02FF013C030F014C031F015C032F0F0
:101828004CEC26F0D8B01BEF0CF01DEF0CF0D5EF08
:101838000BF03DEF0CF094C004F095C005F096C095
:1018480006F097C007F0000E086E000E096E200E15
:101858000A6E410E0B6EE0EC14F004C094F005C063
:1018680095F006C096F007C097F000019007D8A041
:1018780091078CC02BF08DC02CF08EC02DF08FC03E
:101888002EF094C02FF095C030F096C031F097C07C
:1018980032F04CEC26F0D8A054EF0CF056EF0CF0D8
:1018A8001FEF0CF03DC00AF00B6ACFEC2AF00A508B
:1018B8000001816F81C07EF0670E8119D8A467EF9F
:1018C8000CF069EF0CF08FEF0CF058505910D8A4B9
:1018D80070EF0CF072EF0CF076EF0CF0000E596E12
:1018E800010E586E59BE83EF0CF0595006E15804AA
:1018F800D8B081EF0CF083EF0CF089EF0CF0000EFC
:101908007D6F060E7C6F98EF0CF058C07CF059C0C4
:101918007DF098EF0CF059BE94EF0CF096EF0CF0B8
:1019280083EF0CF089EF0CF0670E8119D8A49FEFB4
:101938000CF0A1EF0CF0D0EF0CF091AFAFEF0CF082
:10194800FC0E905DFF0E9159D8A0ADEF0CF0AFEFF3
:101958000CF0CEEF0CF0FF0E3E6EFF0E3F6E7CC01B
:1019680040F07DC041F03E5040263F50412290510A
:10197800405C4150800A426E9151800A4258D8A07A
:10198800C8EF0CF0CAEF0CF0CEEF0CF0660E7E6FCD
:10199800D0EF0CF0650E7E6F7CC074F07DC075F0E2
:1019A800670E8119D8A4DBEF0CF0DDEF0CF0EDEF3A
:1019B8000CF0660E7E19D8A4E4EF0CF0E6EF0CF0FC
:1019C800EFEF0CF091BFEDEF0CF0EBEF0CF0EFEF59
:1019D8000CF0744B752B660E7E19D8A4F6EF0CF03C
:1019E800F8EF0CF018EF0DF091BFFFEF0CF0FDEFE2
:1019F8000CF00BEF0DF0000E946F000E956F800E3B
:101A0800966F3F0E976F000E916F000E906F670EE6
:101A18008119D8B412EF0DF014EF0DF018EF0DF096
:101A28009051742791517523000E8B6F000E8A6FA9
:101A38008CC082F08DC083F08EC084F08FC085F09A
:101A480094C060F095C061F096C062F097C063F0F2
:101A5800A9EF0DF082C004F083C005F084C006F041
:101A680085C007F094C008F095C009F096C00AF048
:101A780097C00BF0E0EC14F004C01DF005C01EF098
:101A880006C01FF007C020F075EC1CF01DC086F0E2
:101A98001EC087F01FC088F020C089F086C004F0FF
:101AA80087C005F088C006F089C007F0C9EC25F0AA
:101AB80004C078F005C079F082C02BF083C02CF008
:101AC80084C02DF085C02EF094C016F095C017F094
:101AD80096C018F097C019F086C012F087C013F0AE
:101AE80088C014F089C015F0CBEC12F012C02FF0AA
:101AF80013C030F014C031F015C032F054EC2CF0A3
:101B08002BC082F02CC083F02DC084F02EC085F04D
:101B180094C004F095C005F096C006F097C007F091
:101B2800000E086E000E096E200E0A6E410E0B6E36
:101B3800E0EC14F004C094F005C095F006C096F0EF
:101B480007C097F000018A4B8B2B74518A5D8B512B
:101B5800800A3E6E7551800A3E58D8A0B6EF0DF047
:101B6800B8EF0DF02EEF0DF094C012F095C013F001
:101B780096C014F097C015F0000E166E000E176E82
:101B8800A00E186E400E196ECBEC12F012C086F043
:101B980013C087F014C088F015C089F082C02BF0FC
:101BA80083C02CF084C02DF085C02EF086C02FF0A5
:101BB80087C030F088C031F089C032F04CEC26F094
:101BC800D8B0E9EF0DF0EBEF0DF0F6EF0DF0000EE9
:101BD8000001866F000E876F000E886F000E896FF8
:101BE8001FEF0EF082C004F083C005F084C006F039
:101BF80085C007F086C008F087C009F088C00AF0E1
:101C080089C00BF007EC2AF0D8A00DEF0EF00FEF0B
:101C18000EF01FEF0EF0000178B115EF0EF017EF80
:101C28000EF01FEF0EF0000E866F000E876F000E8D
:101C3800886F000E896F8CC004F08DC005F08EC0CF
:101C480006F08FC007F086C008F087C009F088C08A
:101C58000AF089C00BF06BEC10F004C082F005C0EC
:101C680083F006C084F007C085F060C094F061C0BE
:101C780095F062C096F063C097F0650E00017E197A
:101C8800D8B449EF0EF04BEF0EF051EF0EF090C0C4
:101C980076F091C077F055EF0EF0000E776F000EDA
:101CA800766F000E736F000E726F000E716F000E6C
:101CB800706F000E8B6F000E8A6F50EF0FF082C0AE
:101CC80004F083C005F084C006F085C007F094C016
:101CD80008F095C009F096C00AF097C00BF0E0EC48
:101CE80014F004C01DF005C01EF006C01FF007C0A8
:101CF80020F075EC1CF01DC086F01EC087F01FC0D8
:101D080088F020C089F086C004F087C005F088C03C
:101D180006F089C007F0C9EC25F004C078F005C0CA
:101D280079F00001F6B99BEF0EF09DEF0EF0BAEFD7
:101D38000EF078517911D8A4A4EF0EF0A6EF0EF0AA
:101D4800BAEF0EF0670E8119D8A4ADEF0EF0AFEF21
:101D58000EF0BAEF0EF077BFB6EF0EF0B4EF0EF05C
:101D6800BAEF0EF0704B712B04EF0FF07251731134
:101D7800D8A4C1EF0EF0C3EF0EF0EDEF0EF077BF71
:101D8800CAEF0EF0C8EF0EF0EDEF0EF0640E9225DC
:101D9800D96E010E9321DA6E2E0EDF6E924B932BC5
:101DA8007F07D8A08007000E736F010E726FEDEFEA
:101DB8000EF0640E9225D96E010E9321DA6E300E64
:101DC800DF6E924B932B7F07D8A080077007D8A0AF
:101DD800710770517111D8A4F4EF0EF0F6EF0EF000
:101DE800DDEF0EF0640E9225D96E010E9321DA6EA6
:101DF8007851300FDF6E924B932B7F07D8A0800766
:101E080082C02BF083C02CF084C02DF085C02EF04A
:101E180094C016F095C017F096C018F097C019F046
:101E280086C012F087C013F088C014F089C015F07E
:101E3800CBEC12F012C02FF013C030F014C031F008
:101E480015C032F054EC2CF02BC082F02CC083F07B
:101E58002DC084F02EC085F094C004F095C005F024
:101E680096C006F097C007F0000E086E000E096EC7
:101E7800200E0A6E410E0B6EE0EC14F004C094F0D4
:101E880005C095F006C096F007C097F000017607E8
:101E9800D8A077078A4B8B2B74518A5D8B51800AA7
:101EA8003E6E7551800A3E58D8B05DEF0FF05FEF77
:101EB8000FF06DEF0FF093BF6BEF0FF0935109E147
:101EC8004B0E925DD8A06BEF0FF06DEF0FF063EF44
:101ED8000EF072517311D8A474EF0FF076EF0FF073
:101EE80087EF0FF0F6A97BEF0FF07DEF0FF087EF8C
:101EF8000FF0640E9225D96E010E9321DA6E2E0E24
:101F0800DF6E924B932B640E9225D96E010E9321AE
:101F1800DA6E000EDF6E650E7E19D8A496EF0FF00C
:101F280098EF0FF046EF0BF0000E8B6F4F0E8A6F95
:101F3800640E8A25D96E010E8B21DA6E000EDF6ED3
:101F4800000E7B6F000E7A6F91BFAFEF0FF0ADEF11
:101F58000FF0B7EF0FF0000E7B6F010E7A6F906DE8
:101F6800911FD8B0912B000E7D6F020E7C6FE8EFA9
:101F78000FF08A07D8A08B07640E8A25D96E010E48
:101F88008B21DA6E90C004F091C005F0000E076E48
:101F98000A0E066E57EC29F00450300FDF6E90C021
:101FA80004F091C005F0000E076E0A0E066EF5ECFF
:101FB80028F004C090F005C091F000017C07D8A07B
:101FC8007D077F07D8A0800790519111D8A4EFEF23
:101FD8000FF0F1EF0FF0BDEF0FF07DBFFEEF0FF048
:101FE8007D5106E17C05D8B0FCEF0FF0FEEF0FF055
:101FF800BDEF0FF08A07D8A08B077A517B11D8A4C0
:1020080008EF10F00AEF10F010EF10F0000E6B6FF1
:102018002B0E6A6F14EF10F0000E6B6F2D0E6A6FA7
:10202800640E8A25D96E010E8B21DA6E6AC0DFFF35
:102038007F07D8A080078A07D8A08B07BF0E3E6EFF
:10204800FF0E3F6E3D50406E416A3E5040263F5065
:10205800412241500AE11A0E405CD8A036EF10F038
:1020680039EF10F0010E3AEF10F0000E6E6F6F6B43
:102078006E516F11D8A443EF10F045EF10F04BEFFD
:1020880010F0000E6D6F650E6C6F4FEF10F0000EC4
:102098006D6F450E6C6F640E8A25D96E010E8B210B
:1020A800DA6E6CC0DFFF7F07D8A08007640E922528
:1020B800046E010E9321056E640E8A25066E010ECC
:1020C8008B21076E2EEC2BF046EF0BF01200075019
:1020D800800B106E07500724126E06AE76EF10F0D4
:1020E80078EF10F079EF10F012801250D8B47FEF2B
:1020F80010F081EF10F096EF10F01228D8A487EFB7
:1021080010F089EF10F091EF10F0000E046E000E41
:10211800056E000E066E000E076E068E000E076E28
:102128009EEF10F0000E046E000E056E000E066E97
:10213800000E076E0B50800B116E10501118D8B49A
:10214800A8EF10F0AAEF10F0ABEF10F0108C0B50C6
:102158000B24116E0AAEB3EF10F0B5EF10F0B6EF26
:1021680010F011801150D8B4BCEF10F0BEEF10F091
:10217800D3EF10F01128D8A4C4EF10F0C6EF10F078
:10218800CEEF10F0000E086E000E096E000E0A6EFB
:10219800000E0B6E0A8E000E0B6EDBEF10F0000EB9
:1021A800086E000E096E000E0A6E000E0B6E1250BD
:1021B800115CD8B0E2EF10F0E4EF10F00BEF11F083
:1021C80010ACE9EF10F0EBEF10F0EDEF10F0800E2F
:1021D800101A12C013F011C012F013C011F004C08D
:1021E80013F008C004F013C008F005C013F009C0CC
:1021F80005F013C009F006C013F00AC006F013C0BA
:102208000AF007C013F00BC007F013C00BF0000E64
:10221800136E125011C00CF00D6A0C5E000E0D5AB0
:102228000DBE20EF11F00D5009E11A0E0C5CD8A07C
:1022380020EF11F022EF11F059EF11F004500510C2
:1022480006100710D8A42BEF11F02EEF11F0010E95
:102258002FEF11F0000E136E000E046E000E056EC7
:10226800000E066E000E076E11C012F062EF11F03C
:1022780013A041EF11F043EF11F049EF11F0D8909E
:1022880013300109136E4BEF11F0D890133204A0EC
:1022980050EF11F052EF11F053EF11F0138E073495
:1022A8000732063205320432122A1150125CD8A0C5
:1022B80060EF11F062EF11F03CEF11F010BC67EF26
:1022C80011F069EF11F0A9EF11F01250D8A46FEFD7
:1022D80011F071EF11F07BEF11F0000E046E000E9B
:1022E800056E000E066E000E076ECAEF12F008505B
:1022F8000426095005220A5006220B50072207A07F
:1023080088EF11F08AEF11F036EF12F013A08FEF7B
:1023180011F091EF11F097EF11F0D89013300109F7
:10232800136E99EF11F0D890133204A09EEF11F0BC
:10233800A0EF11F0A1EF11F0138E07340732063227
:1023480005320432122A36EF12F00850045C0950A4
:1023580005580A5006580750800A0C6E0B50800A20
:102368000C58D8B0BAEF11F0BCEF11F0E7EF11F04C
:102378000450085C0C6E055009580D6E06500A583A
:102388000E6E07500B580F6EFF0E0C24046EFF0ED6
:102398000D20056EFF0E0E20066EFF0E0F20076E35
:1023A800800E101A136C1350D8A4DDEF11F0DFEF74
:1023B80011F0EFEF11F0010E0426000E052206229F
:1023C8000722EFEF11F00850045E0950055A0A5031
:1023D800065A0B50075A0450051006100710D8A4C7
:1023E800F8EF11F0FAEF11F02FEF12F01350D8A414
:1023F80000EF12F002EF12F02FEF12F0000E046E51
:10240800000E056E000E066E000E076ECAEF12F083
:10241800D890043605360636073613AE16EF12F096
:1024280018EF12F019EF12F0048013A01EEF12F04B
:1024380020EF12F024EF12F0D880133626EF12F0B6
:10244800D89013361250D8B42CEF12F02EEF12F0A9
:102458002FEF12F0120606AE34EF12F036EF12F03C
:102468000CEF12F0000E116E13AE3DEF12F03FEFBD
:1024780012F057EF12F013C00CF07F0E0C16D8B400
:1024880048EF12F04AEF12F04EEF12F0010E116E03
:1024980057EF12F004A053EF12F055EF12F057EF78
:1024A80012F04AEF12F01150D8B45DEF12F05FEF5E
:1024B80012F08AEF12F0010E0426000E0522062201
:1024C800072207A06AEF12F06CEF12F08AEF12F001
:1024D80004C00CF005C00DF006C00EF007C00FF0E8
:1024E8000F340F320E320D320C320CC004F00DC016
:1024F80005F00EC006F00FC007F01228D8B487EF19
:1025080012F089EF12F08AEF12F0122A1228D8B4CA
:1025180090EF12F092EF12F09AEF12F01250D8A446
:1025280098EF12F09AEF12F0ACEF12F0000E046E72
:10253800000E056E000E066E000E076E1250D8A42F
:10254800A8EF12F0AAEF12F0ACEF12F0000E106E26
:1025580012A0B1EF12F0B3EF12F0B6EF12F0068E40
:10256800B7EF12F0069ED8901230076E10AEBFEF8C
:1025780012F0C1EF12F0C2EF12F0078E04C004F09F
:1025880005C005F006C006F007C007F01200155098
:10259800800B1E6E15501524246E14AED6EF12F063
:1025A800D8EF12F0D9EF12F024802450D8B4DFEF1E
:1025B80012F0E1EF12F0F4EF12F02428D8A4E7EFBC
:1025C80012F0E9EF12F0F1EF12F0000E126E000EA9
:1025D800136E000E146E000E156E148EFCEF12F0C2
:1025E800000E126E000E136E000E146E000E156EA5
:1025F8001950800B1E1A195019241F6E18AE07EFB8
:1026080013F009EF13F00AEF13F01F801F50D8B42E
:1026180010EF13F012EF13F025EF13F01F28D8A4D2
:1026280018EF13F01AEF13F022EF13F0000E166EE6
:10263800000E176E000E186E000E196E188E2DEF14
:1026480013F0000E166E000E176E000E186E000EB8
:10265800196E1F50D8B433EF13F035EF13F03DEF78
:1026680013F02450D8A43BEF13F03DEF13F047EFDD
:1026780013F0000E126E000E136E000E146E000E94
:10268800156EDFEF14F018501202F3CF29F0F4CFD3
:102698002AF02950206E216A226A236A2A50256E60
:1026A800266A276A286A17501302F3CF29F0F4CF55
:1026B8002AF029502026000E2122222223222A50E5
:1026C8002526000E26222722282216501402F3CF90
:1026D80029F0F4CF2AF029502026000E21222222A8
:1026E80023222A502526000E26222722282222C00D
:1026F80023F021C022F020C021F0206A16501302D6
:10270800F3CF29F0F4CF2AF0295020262A5021228D
:10271800000E2222000E232217501202F3CF29F0B6
:10272800F4CF2AF0295020262A502122000E2222F6
:10273800000E232222C023F021C022F020C021F065
:10274800206A16501202F3CF29F0F4CF2AF029504C
:1027580020262A502122000E2222000E2322185061
:102768001302F3CF29F0F4CF2AF0295025262A5056
:102778002622000E2722000E282217501402F3CF1B
:1027880029F0F4CF2AF0295025262A502622000EB7
:102798002722000E282218501402F3CF29F0F4CF74
:1027A8002AF029501A6E2A501B6E1C6A1D6A1CC01A
:1027B8001DF01BC01CF01AC01BF01A6A1A502526FF
:1027C8001B5026221C5027221D50282220C01AF0F8
:1027D80021C01BF022C01CF023C01DF0190EFAEF17
:1027E80013F0D8901D321C321B321A32E82EF5EF46
:1027F80013F01A5025261B5026221C5027221D5044
:10280800282222C023F021C022F020C021F0206A13
:102818001F5024C01AF01B6A1A26000E1B22820EB3
:102828001A24296EFF0E1B202A6E30EF14F0D89060
:10283800253626362736283623AE25EF14F027EF1F
:1028480014F028EF14F02580D8902036213622364F
:1028580023362906D8A02A0627AE35EF14F037EF1D
:1028680014F01BEF14F0000E1F6E23AE3EEF14F0B1
:1028780040EF14F064EF14F0FF0E20141A6EFF0EF0
:1028880021141B6EFF0E22141C6E7F0E23141D6E66
:102898001A501B101C101D10D8B455EF14F057EF28
:1028A80014F05BEF14F0010E1F6E64EF14F025A016
:1028B80060EF14F062EF14F064EF14F057EF14F0C7
:1028C8001F50D8B46AEF14F06CEF14F090EF14F0C6
:1028D800010E2526000E26222722282228A077EF7F
:1028E80014F079EF14F090EF14F025C01AF026C018
:1028F8001BF027C01CF028C01DF01D341D321C32EF
:102908001B321A321AC025F01BC026F01CC027F053
:102918001DC028F0294A2A2A2ABE9BEF14F02A5003
:1029280008E12928D8A09BEF14F09DEF14F0A7EF39
:1029380014F0000E256E000E266E800E276E7F0E98
:10294800286ED5EF14F02ABEB4EF14F02A5006E131
:102958002904D8B0B2EF14F0B4EF14F0C0EF14F0BB
:10296800000E256E000E266E000E276E000E286ED5
:10297800000E1E6ED5EF14F029C024F0FF0E2516A8
:10298800FF0E26167F0E2716000E281624A0CFEF5E
:1029980014F0D1EF14F0D2EF14F0278ED890243031
:1029A800286E1E50281225C012F026C013F027C02A
:1029B80014F028C015F012000750800B146E075051
:1029C80007241B6E06AEEBEF14F0EDEF14F0EEEFFC
:1029D80014F01B801B50D8B4F4EF14F0F6EF14F089
:1029E8000BEF15F01B28D8A4FCEF14F0FEEF14F041
:1029F80006EF15F0000E046E000E056E000E066E52
:102A0800000E076E068E000E076E13EF15F0000E0F
:102A1800046E000E056E000E066E000E076E0B505B
:102A2800800B141A0B500B241C6E0AAE1EEF15F007
:102A380020EF15F021EF15F01C801C50D8B427EFBB
:102A480015F029EF15F03EEF15F01C28D8A42FEF4C
:102A580015F031EF15F039EF15F0000E086E000E85
:102A6800096E000E0A6E000E0B6E0A8E000E0B6EBB
:102A780046EF15F0000E086E000E096E000E0A6E85
:102A8800000E0B6E085009100A100B10D8A44FEF57
:102A980015F051EF15F069EF15F0000E046E000EF9
:102AA800056E000E066E000E076E800E06127F0E73
:102AB80007121450071204C004F005C005F006C040
:102AC80006F007C007F0ACEF16F01B50D8A46FEF64
:102AD80015F071EF15F07BEF15F0000E046E000E87
:102AE800056E000E066E000E076EACEF16F01C5059
:102AF8001BC00CF00D6A0C5E000E0D5A7F0E0C24E4
:102B0800156E000E0D20166E04C010F005C011F0F1
:102B180006C012F007C013F0000E046E000E056E1A
:102B2800000E066E000E076E000E176E000E186E71
:102B3800000E196E000E1A6E000E1C6EDCEF15F0FA
:102B48001C50D8B4AAEF15F0ACEF15F0C3EF15F090
:102B5800D8901036113612361336D890043605360A
:102B6800063607361AAEBBEF15F0BDEF15F0BEEF0F
:102B780015F00480D8901736183619361A360850CA
:102B8800105C095011580A5012580B501358D8A00D
:102B9800D0EF15F0D2EF15F0DBEF15F01A8C0850D6
:102BA800105E0950115A0A50125A0B50135A1C2A17
:102BB800190E1C64E2EF15F0E4EF15F0A4EF15F020
:102BC8001050111012101310D8B4EDEF15F0EFEFEC
:102BD80015F007EF16F0178007EF16F0D8900436B7
:102BE8000536063607361AAEFCEF15F0FEEF15F07F
:102BF800FFEF15F00480D8901736183619361A36B4
:102C08001506D8A0160606AE0CEF16F00EEF16F055
:102C1800F2EF15F0000E1C6E1AAE15EF16F017EF56
:102C280016F03BEF16F0FF0E17140C6EFF0E18147B
:102C38000D6EFF0E19140E6E7F0E1A140F6E0C50C7
:102C48000D100E100F10D8B42CEF16F02EEF16F052
:102C580032EF16F0010E1C6E3BEF16F004A037EFB2
:102C680016F039EF16F03BEF16F02EEF16F01C5069
:102C7800D8B441EF16F043EF16F067EF16F0010EE7
:102C88000426000E05220622072207A04EEF16F0A2
:102C980050EF16F067EF16F004C00CF005C00DF009
:102CA80006C00EF007C00FF00F340F320E320D328F
:102CB8000C320CC004F00DC005F00EC006F00FC0B9
:102CC80007F0154A162A16BE72EF16F0165008E1DC
:102CD8001528D8A072EF16F074EF16F07FEF16F0F3
:102CE800000E166E1568000E046E000E056E000EBE
:102CF800066E000E076E16BE8CEF16F0165006E133
:102D08001504D8B08AEF16F08CEF16F09AEF16F08B
:102D1800000E166E000E156E000E046E000E056E87
:102D2800000E066E000E076E000E146E15C01BF026
:102D38001BA0A1EF16F0A3EF16F0A6EF16F0068E73
:102D4800A7EF16F0069ED8901B30076E5DEF15F0C2
:102D58001200010E056E000E4DEC2EF0960EDCEC06
:102D68002DF0EF0E056E000E4DEC2EF0030E056EE5
:102D7800010E4DEC2EF0800E056E010E4DEC2EF07E
:102D8800020E056E010E4DEC2EF0CF0E056E000EF4
:102D98004DEC2EF0000E056E010E4DEC2EF0C10E1E
:102DA800056E010E4DEC2EF0300E056E010E4DEC49
:102DB8002EF0ED0E056E000E4DEC2EF0640E056E35
:102DC800010E4DEC2EF0030E056E010E4DEC2EF0AB
:102DD800120E056E010E4DEC2EF0810E056E010EE1
:102DE8004DEC2EF0E80E056E000E4DEC2EF0850E23
:102DF800056E010E4DEC2EF0000E056E010E4DEC29
:102E08002EF0780E056E010E4DEC2EF0CB0E056EF1
:102E1800000E4DEC2EF0390E056E010E4DEC2EF025
:102E28002C0E056E010E4DEC2EF0000E056E010EF7
:102E38004DEC2EF0340E056E010E4DEC2EF0020E08
:102E4800056E010E4DEC2EF0F70E056E000E4DECE2
:102E58002EF0200E056E010E4DEC2EF0EA0E056EDA
:102E6800000E4DEC2EF0000E056E010E4DEC2EF00E
:102E7800000E056E010E4DEC2EF0C00E056E000E14
:102E88004DEC2EF0230E056E010E4DEC2EF0C10E0A
:102E9800056E000E4DEC2EF0100E056E010E4DEC79
:102EA8002EF0C50E056E000E4DEC2EF03E0E056E92
:102EB800010E4DEC2EF0280E056E010E4DEC2EF095
:102EC800C70E056E000E4DEC2EF0860E056E010E37
:102ED8004DEC2EF0360E056E000E4DEC2EF0480E21
:102EE800056E010E4DEC2EF03A0E056E000E4DECFF
:102EF8002EF0550E056E010E4DEC2EF0B10E056E3E
:102F0800000E4DEC2EF0000E056E010E4DEC2EF06D
:102F1800180E056E010E4DEC2EF0B60E056E000E65
:102F28004DEC2EF0080E056E010E4DEC2EF0820EC3
:102F3800056E010E4DEC2EF0270E056E010E4DECC0
:102F48002EF0F20E056E000E4DEC2EF0000E056E02
:102F5800010E4DEC2EF0260E056E000E4DEC2EF0F7
:102F6800010E056E010E4DEC2EF0E00E056E000E02
:102F78004DEC2EF00F0E056E010E4DEC2EF0310EBD
:102F8800056E010E4DEC2EF02B0E056E010E4DEC6C
:102F98002EF00C0E056E010E4DEC2EF00E0E056E89
:102FA800010E4DEC2EF0080E056E010E4DEC2EF0C4
:102FB8004E0E056E010E4DEC2EF0F10E056E010E53
:102FC8004DEC2EF0370E056E010E4DEC2EF0070E6F
:102FD800056E010E4DEC2EF0100E056E010E4DEC37
:102FE8002EF0030E056E010E4DEC2EF00E0E056E42
:102FF800010E4DEC2EF0090E056E010E4DEC2EF073
:10300800000E056E010E4DEC2EF0E10E056E000E61
:103018004DEC2EF0000E056E010E4DEC2EF00E0E4E
:10302800056E010E4DEC2EF0140E056E010E4DECE2
:103038002EF0030E056E010E4DEC2EF0110E056EEE
:10304800010E4DEC2EF0070E056E010E4DEC2EF024
:10305800310E056E010E4DEC2EF0C10E056E010EFF
:103068004DEC2EF0480E056E010E4DEC2EF0080EBC
:10307800056E010E4DEC2EF00F0E056E010E4DEC97
:103088002EF00C0E056E010E4DEC2EF0310E056E75
:10309800010E4DEC2EF0360E056E010E4DEC2EF0A5
:1030A8000F0E056E010E4DEC2EF0110E056E000E82
:1030B8004DEC2EF0780EDCEC2DF0290E056E000E8E
:1030C8004DEC2EF0780EDCEC2DF0000E0E6E000E9E
:1030D8000D6E5CEC2AF0120021C039F022C03AF0E3
:1030E80023C03BF024C03CF025C03DF026C03EF094
:1030F80027C03FF028C040F040BE85EF18F088EFA9
:1031080018F0010E89EF18F0000E376E386A375044
:103118003810D8B492EF18F094EF18F0A4EF18F024
:10312800401E3F1E3E1E3D1E3C1E3B1E3A1E396C75
:10313800000E3A223B223C223D223E223F224022E0
:1031480059BEA9EF18F0ABEF18F0ADEF18F0000179
:10315800F69359BEBAEF18F0595006E15804D8B0A2
:10316800B8EF18F0BAEF18F0C0EF18F0000E346E90
:10317800010E336EC4EF18F058C033F059C034F064
:10318800F4C035F0F5C036F037503810D8A4CFEF7A
:1031980018F0D1EF18F0D9EF18F00001F6A5D7EF25
:1031A80018F0D9EF18F0DCEF18F03506D8A036067D
:1031B800000E426E4F0E416E000E0101B36F61EFBB
:1031C80019F04106D8A04206640E4124D96E010EBA
:1031D8004220DA6E39C004F03AC005F03BC006F070
:1031E8003CC007F03DC008F03EC009F03FC00AF0FF
:1031F80040C00BF00A0E0C6E000E0D6E000E0E6E27
:10320800000E0F6E000E106E000E116E000E126E84
:10321800000E136E63EC23F004C029F005C02AF0F9
:1032280006C02BF007C02CF008C02DF009C02EF006
:103238000AC02FF00BC030F029C016F02BC017F0D1
:10324800DDEC2CF01650300FDF6E3306D8A03406B4
:103258003506D8A0360639C004F03AC005F03BC0A0
:1032680006F03CC007F03DC008F03EC009F03FC082
:103278000AF040C00BF00A0E0C6E000E0D6E000E28
:103288000E6E000E0F6E000E106E000E116E000E08
:10329800126E000E136E1FEC21F004C039F005C049
:1032A8003AF006C03BF007C03CF008C03DF009C04A
:1032B8003EF00AC03FF00BC040F042BE6CEF19F080
:1032C800425008E14104D8A06CEF19F06EEF19F0F4
:1032D8009FEF19F039503A103B103C103D103E104A
:1032E8003F104010D8A47BEF19F07DEF19F0E5EFFF
:1032F80018F034BE8AEF19F0345006E13304D8B020
:1033080088EF19F08AEF19F0E5EF18F036BE95EF5F
:1033180019F0365008E13504D8A095EF19F097EF69
:1033280019F09FEF19F00001F6B39DEF19F09FEF28
:1033380019F0E5EF18F037503810D8A4A6EF19F0B7
:10334800A8EF19F0B0EF19F00001F6A5AEEF19F0EB
:10335800B0EF19F0CEEF19F04106D8A04206375069
:103368003810D8A4BAEF19F0BCEF19F0C2EF19F071
:10337800000E326E2B0E316EC6EF19F0000E326E53
:103388002D0E316E640E4124D96E010E4220DA6E84
:1033980031C0DFFF1FC014F020C015F0640E4124B7
:1033A800166E010E4220176E35C018F036C019F09F
:1033B80092EC28F014C01FF015C020F0120059BE7E
:1033C800E8EF19F0EAEF19F0ECEF19F00001F693C5
:1033D80059BEF9EF19F0595006E15804D8B0F7EF83
:1033E80019F0F9EF19F0FFEF19F0000E376E010E22
:1033F800366E03EF1AF058C036F059C037F0F4C0F3
:1034080038F0F5C039F00001F6A90DEF1AF00FEF0A
:103418001AF013EF1AF0FE0E3826FF0E392221C0DB
:103428003AF022C03BF023C03CF024C03DF025C058
:103438003EF026C03FF027C040F028C041F0000E03
:10344800436E4F0E426E000E0101B36FDFEF1AF0AC
:103458004206D8A043060F0E3A14446E456A45BE8C
:103468003FEF1AF0455009E10A0E445CD8A03FEF3F
:103478001AF041EF1AF049EF1AF0570E4424446E3F
:10348800000E4520456E4FEF1AF0300E4424446E6E
:10349800000E4520456EBF0E2A6EFF0E2B6E29507A
:1034A8002C6E2D6A2A502C262B502D222D500AE1E5
:1034B8001A0E2C5CD8A063EF1AF066EF1AF0010E12
:1034C80067EF1AF0000E326E336A32503310D8B4F8
:1034D80070EF1AF072EF1AF0A2EF1AF09F0E2A6E30
:1034E800FF0E2B6E200E44102C6E000E45102D6E14
:1034F8002A502C262B502D222D500AE11A0E2C5C16
:10350800D8A089EF1AF08CEF1AF0010E8DEF1AF09F
:10351800000E346E356A34503510D8B496EF1AF070
:1035280098EF1AF0A2EF1AF044C00AF045C00BF069
:10353800FFEC2AF00AC044F00BC045F0640E4224A8
:10354800D96E010E4320DA6E44C0DFFF3606D8A0DC
:1035580037063806D8A039063AC02AF03BC02BF007
:103568003CC02CF03DC02DF03EC02EF03FC02FF0E7
:1035780040C030F041C031F0050ECCEF1AF0D890C1
:10358800313230322F322E322D322C322B322A3237
:10359800E82EC3EF1AF02AC03AF02BC03BF02CC03B
:1035A8003CF02DC03DF02EC03EF02FC03FF030C0A3
:1035B80040F031C041F043BEEBEF1AF0435009E14F
:1035C800020E425CD8A0EBEF1AF0EDEF1AF01EEFF6
:1035D8001BF03A503B103C103D103E103F1040107D
:1035E8004110D8A4FAEF1AF0FCEF1AF02CEF1AF0F9
:1035F80037BE09EF1BF0375006E13604D8B007EFA5
:103608001BF009EF1BF02CEF1AF039BE14EF1BF07A
:10361800395008E13804D8A014EF1BF016EF1BF05E
:103628001EEF1BF00001F6B31CEF1BF01EEF1BF0A2
:103638002CEF1AF00001F6A924EF1BF026EF1BF07F
:103648003CEF1BF04206D8A04306640E4224D96E14
:10365800010E4320DA6E29C0DFFF4206D8A04306D8
:10366800640E4224D96E010E4320DA6E300EDF6EEE
:103678001FC014F020C015F0640E4224166E010E0F
:103688004320176E38C018F039C019F092EC28F0B2
:1036980014C01FF015C020F0120040EC2EF0000EF0
:1036A800AFEC29F0ADEC16F0BA0E046E560E056EAE
:1036B8008DEC2EF0F28E000E246E640E236E000E3A
:1036C800266E780E256EAE0E276EFF0E286EFF0E44
:1036D8002A6E2968000E2C6E000E2B6E15EC24F055
:1036E8000001FA51FB11D8B47CEF1BF07EEF1BF000
:1036F8000EEF1CF0010E1BEC2DF004C0FCF005C011
:10370800FDF0FCC004F0FDC005F0000E05BEFF0E84
:10371800066E076E010E78EC1FF004C012F005C0AB
:1037280013F006C014F007C015F0330E166E330EF2
:10373800176E530E186E3A0E196ECBEC12F012C0BB
:10374800ECF013C0EDF014C0EEF015C0EFF0ECC0D3
:1037580012F0EDC013F0EEC014F0EFC015F0550EE6
:10376800166E550E176E050E186E420E196ECBECBE
:1037780012F012C0E8F013C0E9F014C0EAF015C066
:10378800EBF0000E0001D26F010ED36F000ED56F63
:10379800640ED46F8D0ED66FFF0ED76FE8C0D8F0C9
:1037A800E9C0D9F0EAC0DAF0EBC0DBF0C3EC2DF0E9
:1037B800000E246E640E236E000E266E640E256EB7
:1037C800000E276E010E286EFF0E2A6E2968000E65
:1037D8002C6E000E2B6E15EC24F0E8C02BF0E9C01F
:1037E8002CF0EAC02DF0EBC02EF0000E2F6E000E6C
:1037F800306EB40E316E420E326E4CEC26F0D8A00C
:1038080008EF1CF00AEF1CF00DEF1CF0898A0EEF90
:103818001CF0899A0001FA51FB11D8A416EF1CF08C
:1038280018EF1CF074EF1BF0000E1BEC2DF004C019
:10383800FCF005C0FDF0FCC004F0FDC005F0000E72
:1038480005BEFF0E066E076E010E78EC1FF004C071
:1038580012F005C013F006C014F007C015F0810E71
:10386800166E0C0E176EC80E186E3C0E196ECBEC49
:1038780012F012C0E4F013C0E5F014C0E6F015C071
:10388800E7F0000E0001D26F020ED36F000ED56F65
:10389800640ED46F9E0ED66FFF0ED76FE4C0D8F0BB
:1038A800E5C0D9F0E6C0DAF0E7C0DBF0C3EC2DF0F4
:1038B800000E246E640E236E000E266E640E256EB6
:1038C800000E276E020E286EFF0E2A6E2968000E63
:1038D8002C6E000E2B6E15EC24F074EF1BF01FEF0E
:1038E80000F0DCC02DF0DDC02EF0DEC02FF0DFC010
:1038F80030F01DC02DF01EC02EF01FC02FF020C0CC
:1039080030F0810E216EFF0E226E2DC023F02EC0E6
:1039180024F02FC025F030C026F0180E99EF1CF0C7
:10392800D8902632253224322332E82E94EF1CF028
:10393800235021242B6E000E22202C6E2CBEAEEFBD
:103948001CF02C5009E1170E2B5CD8A0AEEF1CF030
:10395800B0EF1CF0BAEF1CF01DC01DF01EC01EF029
:103968001FC01FF020C020F07DEF1DF02CBEBFEF60
:103978001CF0C1EF1CF031EF1DF02BC021F0FF0E41
:10398800226EFF0E236E7F0E246E000E256E2166BA
:10399800D0EF1CF0D8EF1CF0253425322432233226
:1039A8002232212ECBEF1CF022C027F023C028F0B2
:1039B80024C029F025C02AF027502D14216E285044
:1039C8002E14226E29502F14236E2A503014246E80
:1039D8002150221023102410D8A4F5EF1CF0F7EF83
:1039E8001CF0F9EF1CF0B0EF1CF02DC021F02EC038
:1039F80022F02FC023F030C024F0200E09EF1DF074
:103A0800D8902432233222322132E82E04EF1DF0DE
:103A18002150221023102410D8B415EF1DF017EFF1
:103A28001DF01FEF1DF027502D2628502E2229505B
:103A38002F222A503022271C216E281C226E291C76
:103A4800236E2A1C246E21502D1622502E16235028
:103A58002F162450301675EF1DF02DC021F02EC002
:103A680022F02FC023F030C024F0200E41EF1DF0CB
:103A7800D8902432233222322132E82E3CEF1DF036
:103A88002150221023102410D8A44DEF1DF04FEF21
:103A98001DF059EF1DF0000E2D6E000E2E6E000E5B
:103AA8002F6E000E306E75EF1DF0D8902D34216EFC
:103AB8002E34226E2F34236E3034246E215022107F
:103AC80023102410D8B46BEF1DF06DEF1DF075EFC7
:103AD8001DF0000E2D6E000E2E6E800E2F6EBF0E86
:103AE800306E2DC01DF02EC01EF02FC01FF030C04C
:103AF80020F0120059BE83EF1DF085EF1DF087EF0F
:103B08001DF00001F69359BE94EF1DF0595006E1DF
:103B18005804D8B092EF1DF094EF1DF09AEF1DF005
:103B2800000E326E010E316E9EEF1DF058C031F05E
:103B380059C032F0F4C033F0F5C034F021C035F08C
:103B480022C036F023C037F024C038F025C039F041
:103B580026C03AF027C03BF028C03CF0000E3E6E6D
:103B68004F0E3D6E000E0101B36F31EF1EF03D06A2
:103B7800D8A03E06640E3D24D96E010E3E20DA6EB2
:103B880035C004F036C005F037C006F038C007F07D
:103B980039C008F03AC009F03BC00AF03CC00BF04D
:103BA8000A0E0C6E000E0D6E000E0E6E000E0F6EDD
:103BB800000E106E000E116E000E126E000E136EC7
:103BC800C5EC27F004C029F005C02AF006C02BF088
:103BD80007C02CF008C02DF009C02EF00AC02FF045
:103BE8000BC030F02950300FDF6E3106D8A03206F6
:103BF8003306D8A0340635C004F036C005F037C007
:103C080006F038C007F039C008F03AC009F03BC0E8
:103C18000AF03CC00BF00A0E0C6E000E0D6E000E82
:103C28000E6E000E0F6E000E106E000E116E000E5E
:103C3800126E000E136E4DEC27F004C035F005C06F
:103C480036F006C037F007C038F008C039F009C0B0
:103C58003AF00AC03BF00BC03CF03D503E10D8B4DF
:103C680038EF1EF03AEF1EF06BEF1EF035503610AD
:103C78003710381039103A103B103C10D8A447EFD1
:103C88001EF049EF1EF0BBEF1DF032BE56EF1EF0DE
:103C9800325006E13104D8B054EF1EF056EF1EF052
:103CA800BBEF1DF034BE61EF1EF0345008E1330461
:103CB800D8A061EF1EF063EF1EF06BEF1EF000015D
:103CC800F6B369EF1EF06BEF1EF0BBEF1DF01FC0DF
:103CD80014F020C015F0640E3D24166E010E3E202F
:103CE800176E33C018F034C019F092EC28F014C0E5
:103CF8001FF015C020F0120059BE85EF1EF087EFA7
:103D08001EF089EF1EF00001F69359BE96EF1EF0E3
:103D1800595006E15804D8B094EF1EF096EF1EF003
:103D28009CEF1EF0000E326E010E316EA0EF1EF0F9
:103D380058C031F059C032F0F4C035F0F5C036F053
:103D480021C037F022C038F023C039F024C03AF03F
:103D580025C03BF026C03CF027C03DF028C03EF00F
:103D6800000E406E4F0E3F6E000E0101B36F000E45
:103D7800346E000E336E06EF1FF03F06D8A04006E3
:103D8800070E3714336E346A640E3F24D96E010E61
:103D98004020DA6E3350300FDF6E3106D8A032067D
:103DA8003506D8A0360637C029F038C02AF039C001
:103DB8002BF03AC02CF03BC02DF03CC02EF03DC09B
:103DC8002FF03EC030F0040EF3EF1EF0D8903032E2
:103DD8002F322E322D322C322B322A322932E82E33
:103DE800EAEF1EF029C037F02AC038F02BC039F0AE
:103DF8002CC03AF02DC03BF02EC03CF02FC03DF057
:103E080030C03EF040BE11EF1FF0405008E13F04C3
:103E1800D8A011EF1FF013EF1FF044EF1FF0375039
:103E2800381039103A103B103C103D103E10D8A401
:103E380020EF1FF022EF1FF0C1EF1EF032BE2FEF70
:103E48001FF0325006E13104D8B02DEF1FF02FEFEC
:103E58001FF0C1EF1EF036BE3AEF1FF0365008E1F2
:103E68003504D8A03AEF1FF03CEF1FF044EF1FF0E5
:103E78000001F6B342EF1FF044EF1FF0C1EF1EF050
:103E88000001F6A94AEF1FF04CEF1FF063EF1FF097
:103E980033503410D8B453EF1FF055EF1FF063EFD1
:103EA8001FF03F06D8A04006640E3F24D96E010ECD
:103EB8004020DA6E300EDF6E3506D8A036061FC0F9
:103EC80014F020C015F0640E3F24166E010E402039
:103ED800176E35C018F036C019F092EC28F014C0EF
:103EE8001FF015C020F012000C6E0C50D8B47FEFF4
:103EF8001FF081EF1FF0A3EF1FF007BE88EF1FF040
:103F080086EF1FF0A3EF1FF004C008F005C009F00A
:103F180006C00AF007C00BF0081E091E0A1E0B1E79
:103F2800082A000E09220A220B2208C00EF009C036
:103F38000FF00AC010F00BC011F0ABEF1FF004C077
:103F48000EF005C00FF006C010F007C011F00450C5
:103F5800051006100710D8A4B4EF1FF0B6EF1FF035
:103F6800C0EF1FF0000E046E000E056E000E066E08
:103F7800000E076E51EF20F0960E0D6ECAEF1FF07F
:103F88000D2AD890113210320F320E32000E0E1454
:103F9800086E000E0F14096E000E10140A6EFE0E45
:103FA80011140B6E085009100A100B10D8A4DFEF7B
:103FB8001FF0E1EF1FF0C4EF1FF0EFEF1FF00D2A25
:103FC800010E0E26000E0F2210221122D890113257
:103FD80010320F320E32000E0E14086E000E0F143F
:103FE800096E000E10140A6EFF0E11140B6E0850A5
:103FF80009100A100B10D8A404EF20F006EF20F0E7
:10400800E3EF1FF00EEF20F00D06D8900E360F36B6
:104018001036113610BE13EF20F015EF20F01DEF0B
:1040280020F0020E0D601BEF20F01DEF20F008EFCE
:1040380020F00DB022EF20F024EF20F025EF20F043
:10404800109ED8900D320DC008F0096A0A6A0B6AF2
:1040580008C00BF00A6A096A086A08500E1209506B
:104068000F120A5010120B5011120C50D8B43FEF17
:1040780020F041EF20F049EF20F007BE48EF20F094
:1040880046EF20F049EF20F0118E0EC004F00FC06B
:1040980005F010C006F011C007F01200000E196EEE
:1040A800000E186E000E126E000E116E5EEF20F0FC
:1040B8000B4A0C2A010E176E0BC0F6FF0CC0F7FF57
:1040C800F86A0800F550200AD8B46DEF20F06FEFB9
:1040D80020F08DEF20F0F70E0D6EFF0E0E6E0BC068
:1040E800F6FF0CC0F7FFF86A0800F5500F6E106A6B
:1040F8000D500F260E501022105009E1050E0F5CCE
:10410800D8A089EF20F08BEF20F08DEF20F0000E83
:10411800176E17C013F0146A13501410D8A497EF31
:1041280020F099EF20F05CEF20F0A3EF20F0000ED4
:10413800126E010E116E0B4A0C2ADAEF20F00BC03A
:10414800F6FF0CC0F7FFF86A0800F5500D6E0E6A0E
:104158000E50000AD8B4B3EF20F0DAEF20F00D507B
:104168002B0AD8B49FEF20F0060AD8B49BEF20F0B2
:10417800DAEF20F018C004F019C005F0000E076E41
:104188000A0E066E20EC2EF00BC0F6FF0CC0F7FFEF
:10419800F86A0800F550045E000E055A300E042433
:1041A800186E000E0520196E9FEF20F0D00E0D6ED0
:1041B800FF0E0E6E0BC0F6FF0CC0F7FFF86A080082
:1041C800F5500F6E106A0D500F260E501022105029
:1041D8000AE10A0E0F5CD8A0F4EF20F0F7EF20F008
:1041E800010EF8EF20F0000E156E166A1550161025
:1041F800D8A401EF21F003EF21F0BEEF20F0115019
:104208001210D8A40AEF21F00CEF21F01AEF21F0D8
:1042180018C00DF019C00EF00D1E0E1E0D4A0E2A04
:104228000DC00BF00EC00CF01EEF21F018C00BF003
:1042380019C00CF01200000E156E13BE28EF21F005
:1042480026EF21F03AEF21F0131E121E111E101E48
:104258000F1E0E1E0D1E0C6C000E0D220E220F22BC
:104268001022112212221322010E156E0BBE41EFED
:1042780021F03FEF21F053EF21F00B1E0A1E091E1B
:10428800081E071E061E051E046C000E05220622C7
:104298000722082209220A220B22010E151A20EEF3
:1042A80016F0070EDE6AE806FDE20C500D100E103F
:1042B8000F101010111012101310D8B466EF21F05F
:1042C80068EF21F0BAEF21F0010E146E76EF21F0BD
:1042D800D8900C360D360E360F361036113612368B
:1042E8001336142A13AE7BEF21F07DEF21F06CEF2B
:1042F80021F0D89016361736183619361A361B3666
:104308001C361D360C50045C0D5005580E500658CE
:104318000F500758105008581150095812500A5891
:1043280013500B58D8A09BEF21F09DEF21F0AEEF72
:1043380021F00C50045E0D50055A0E50065A0F50CD
:10434800075A1050085A1150095A12500A5A135055
:104358000B5A1680D89013321232113210320F32A3
:104368000E320D320C32142E7DEF21F01550D8B4D8
:10437800C0EF21F0C2EF21F0D2EF21F01D1E1C1E6C
:104388001B1E1A1E191E181E171E166C000E172249
:10439800182219221A221B221C221D2216C004F0E0
:1043A80017C005F018C006F019C007F01AC008F0C9
:1043B8001BC009F01CC00AF01DC00BF0120021EE52
:1043C800B4F010EE12F0060EDBCFE3FFE806FCE2D5
:1043D8000FC01DF010C01EF01D501E10D8A4F7EF1E
:1043E80021F0F9EF21F0FDEF21F0120E1D6E000E05
:1043F8001E6E1DC004F01EC005F0A8EC2DF004C010
:1044080021F005C022F058C01FF059C020F020BE8E
:1044180010EF22F012EF22F027EF22F021501F5C5C
:104428002050800A116E2250800A1158D8A01FEF20
:1044380022F021EF22F023EF22F027EF22F01FC015
:1044480021F020C022F021C01FF022C020F0F4C0CB
:104458001BF0F5C01CF00001F6B135EF22F037EF84
:1044680022F054EF22F045EF22F0000E056E200EE8
:10447800046E0DC006F00EC007F02DEC28F0214A9E
:10448800222A1B50215C2250800A116E1C50800A7F
:104498001158D8A052EF22F054EF22F039EF22F051
:1044A800000E1A6E000E196E6DEF22F01DC0D9FFB6
:1044B8001EC0DAFFDF50116E1150046E056A0DC080
:1044C80006F00EC007F02DEC28F01D4A1E2A194AE6
:1044D8001A2A1F50195C1A50800A116E2050800A3F
:1044E8001158D8A07AEF22F07CEF22F05AEF22F090
:1044F8000001F6A182EF22F084EF22F0A1EF22F072
:1045080092EF22F0000E056E200E046E0DC006F02C
:104518000EC007F02DEC28F0214A222A1B50215CFE
:104528002250800A116E1C50800A1158D8A09FEFA3
:1045380022F0A1EF22F086EF22F021C00DF022C078
:104548000EF01200000E206E46EF23F0D8901134C2
:10455800F66E1234F76EBD0EF626F10EF722F86AE3
:10456800000EF8220900F5CF17F00900F5CF18F072
:104578002050175E000E185A0D501724096E0E5061
:1045880018200A6E0FC00BF010C00CF0BCEC2CF019
:10459800000E216E000E226E2050176E186AD890F9
:1045A80017361836D8901134F66E1234F76EBD0EE1
:1045B800F626F10EF722F86A000EF8220900F5CF68
:1045C80019F00900F5CF1AF0D89019361A36175095
:1045D800195E18501A5A2150195E000E1A5A1150B5
:1045E800192612501A22D89019361A36BD0E1924D7
:1045F800F66EF10E1A20F76EF86A000EF82209001E
:10460800F5CF1BF00900F5CF1CF022C01DF0800E7D
:104618001E6E000E1F6E1D2A15EF23F01F341F3269
:104628001E321D2E12EF23F01B501E161C501F1693
:104638001E501F10D8B423EF23F025EF23F02DEFE1
:1046480023F013C007F014C008F065EC2EF033EF28
:1046580023F015C007F016C008F065EC2EF0222AEA
:10466800070E22643AEF23F03CEF23F0D0EF22F05C
:10467800212A010E216443EF23F045EF23F0CEEF0A
:1046880022F0202AD8901134F66E1234F76EBD0E3F
:10469800F626F10EF722F86A000EF8222050176E5F
:1046A800186A0900F550175C0900F5501858D8A089
:1046B80060EF23F062EF23F0AAEF22F01200000E61
:1046C800156E0BBE6CEF23F06AEF23F07EEF23F03C
:1046D8000B1E0A1E091E081E071E061E051E046C58
:1046E800000E052206220722082209220A220B228E
:1046F800010E156E13BE85EF23F083EF23F095EFBF
:1047080023F0131E121E111E101E0F1E0E1E0D1E4C
:104718000C6C000E0D220E220F22102211221222E2
:1047280013220C500D100E100F1010101110121033
:104738001310D8B4A2EF23F0A4EF23F0ECEF23F08A
:10474800010E146EB2EF23F0D8900C360D360E36EB
:104758000F361036113612361336142A13AEB7EF49
:1047680023F0B9EF23F0A8EF23F00C50045C0D50B0
:1047780005580E5006580F50075810500858115039
:10478800095812500A5813500B58D8A0CEEF23F0EE
:10479800D0EF23F0E0EF23F00C50045E0D50055AE3
:1047A8000E50065A0F50075A1050085A1150095AFD
:1047B80012500A5A13500B5AD8901332123211322F
:1047C80010320F320E320D320C32142EB9EF23F0A4
:1047D8001550D8B4F2EF23F0F4EF23F004EF24F0EF
:1047E8000B1E0A1E091E081E071E061E051E046C47
:1047F800000E052206220722082209220A220B227D
:1048080004C004F005C005F006C006F007C007F0B4
:1048180008C008F009C009F00AC00AF00BC00BF084
:10482800120094EF24F0000E346E000E336E000E6A
:10483800326E000E316E40EF24F0D8903334F66EAD
:104848003434F76EBD0EF626F10EF722F86A000E24
:10485800F8220900F5CF2DF00900F5CF2EF0D890F9
:104868002D362E36010E2D26000E2E222D503326E3
:104878002E503422314A322AE00E2D6EFF0E2E6E53
:1048880027C0F6FF28C0F7FF000EF86E0E0EF7647B
:1048980003D00800F55005D0F6CFE1FFF7CFE2FFCF
:1048A800E7502F6E306A2D502F262E5030222F5071
:1048B800315C30503258D8A064EF24F066EF24F011
:1048C80021EF24F023C00DF024C00EF025C00FF016
:1048D80026C010F033C011F034C012F029C013F014
:1048E8002AC014F02BC015F02CC016F0A6EC22F04C
:1048F800D8903334F66E3434F76EBD0EF626F10ECA
:10490800F722F86A000EF8220900F5CF2DF0090009
:10491800F5CF2EF02D5023262E502422274A282A60
:1049280027C0F6FF28C0F7FF000EF86E0E0EF764DA
:1049380003D00800F55005D0F6CFE1FFF7CFE2FF2E
:10494800E7500009D8A4ABEF24F0ADEF24F017EF3F
:1049580024F0120004C00BF005C00CF006C00DF0E6
:1049680007C00EF00806D8A00906082806E109289D
:10497800D8A4C1EF24F0C3EF24F0D0EF24F0000E48
:10498800056E000E046E40EF25F00B4A0C2A0D4A06
:104998000E2A0806D8A009060BC0F6FF0CC0F7FFC0
:1049A800000EF86E0E0EF76403D00800F55005D01F
:1049B800F6CFE1FFF7CFE2FFE7500009D8B4E7EF01
:1049C80024F0E9EF24F022EF25F00DC0F6FF0EC029
:1049D800F7FFF86A0800F5500009D8B4F6EF24F09C
:1049E800F8EF24F022EF25F008500910D8B4FFEFB3
:1049F80024F001EF25F022EF25F00DC0F6FF0EC0E0
:104A0800F7FFF86A0800F5CF0AF00BC0F6FF0CC0F4
:104A1800F7FF000EF86E0E0EF76403D00800F5508D
:104A280005D0F6CFE1FFF7CFE2FFE7500A18D8B478
:104A380020EF25F022EF25F0C9EF24F00BC0F6FF98
:104A48000CC0F7FF000EF86E0E0EF76403D00800D6
:104A5800F55005D0F6CFE1FFF7CFE2FFE7500A6E39
:104A68000DC0F6FF0EC0F7FFF86A0800F5500A5CA3
:104A7800046E056AD8A005061200800E0001BF5D0D
:104A8800D8A049EF25F04BEF25F053EF25F0000EA5
:104A9800F16F4B0EF06FBC69BD69C8EF25F0BCC063
:104AA800CCF0BDC0CDF0BF5109E1020EBE5DD8A06B
:104AB80060EF25F062EF25F06EEF25F0FF0EBE25C2
:104AC800D06FFF0EBF21D16F000ECF6F000ECE6FDB
:104AD80076EF25F0000ED16F010ED06F000ECF6F6C
:104AE800010ECE6FCC0E506E000E516EC0C052F04B
:104AF800C1C053F0C2C054F0C3C055F09DEC2AF0B9
:104B080050C0CAF051C0CBF00001BE51BF11D8B49B
:104B180090EF25F092EF25F0C4EF25F0CBBF97EF8B
:104B280025F099EF25F0C4EF25F0FF0EC46FFF0EB6
:104B3800C56FBEC0C6F0BFC0C7F0C451C627C551B7
:104B4800C723C651CA5DC751CB59D8A0AEEF25F0CF
:104B5800B0EF25F0B8EF25F0FF0EBE25C86FFF0EA9
:104B6800BF21C96FBCEF25F0CAC0C8F0CBC0C9F0DF
:104B7800C851BC25D96EC951BD21DA6E000EDF6E51
:104B8800CAC0BCF0CBC0BDF01200063407340D6EAD
:104B98000D50D8A4D2EF25F0D4EF25F0DEEF25F0A4
:104BA800000E046E000E056E000E066E000E076EF7
:104BB8004BEF26F004C008F005C009F006C00AF063
:104BC80007C00BF0200EEEEF25F0D8900B320A321A
:104BD80009320832E82EE9EF25F008500C6E068EEF
:104BE800FF0E0416FF0E0516FF0E0616000E07161A
:104BF800960E0D5E0DBE05EF26F003EF26F01BEFB7
:104C080026F00D50800A970FD8B00DEF26F00FEF61
:104C180026F011EF26F0D4EF25F0D89007320632AF
:104C2800053204320D3E11EF26F033EF26F01F0E49
:104C38000D6421EF26F023EF26F02BEF26F0D4EFBA
:104C480025F0D89004360536063607360D060D5081
:104C5800D8A431EF26F033EF26F025EF26F00C50DC
:104C6800D8B439EF26F03BEF26F043EF26F0071EC5
:104C7800061E051E046C000E05220622072204C02B
:104C880004F005C005F006C006F007C007F01200E2
:104C9800000E2B14336E000E2C14346E800E2D145F
:104CA800356E7F0E2E14366E335034103510361094
:104CB800D8A461EF26F063EF26F06BEF26F0000E24
:104CC8002B6E000E2C6E000E2D6E000E2E6E000E3A
:104CD8002F14336E000E3014346E800E3114356E7E
:104CE8007F0E3214366E3350341035103610D8A477
:104CF80080EF26F082EF26F08AEF26F0000E2F6E66
:104D0800000E306E000E316E000E326E2EAE8FEF3A
:104D180026F091EF26F09AEF26F02B6C2C1ED8B0D7
:104D28002C2A2D1ED8B02D2A800E2E5632AE9FEF7B
:104D380026F0A1EF26F0AAEF26F02F6C301ED8B08F
:104D4800302A311ED8B0312A800E3256000E2B1A66
:104D5800000E2C1A000E2D1A800E2E1A000E2F1A75
:104D6800000E301A000E311A800E321A2F502B5CAA
:104D780030502C5831502D5832502E58D8B0C7EFDB
:104D880026F0C9EF26F0CCEF26F0D890CDEF26F02C
:104D9800D8801200E0C00EF0E1C00FF0E2C010F0C1
:104DA800E3C011F004C00EF005C00FF006C010F00B
:104DB80007C011F00EC008F00FC009F010C00AF0CB
:104DC80011C00BF0180EEEEF26F0D8900B320A3215
:104DD80009320832E82EE9EF26F008500C6E0D6A09
:104DE8000C500D10D8A4FBEF26F0FDEF26F01DEFB8
:104DF80027F0D8900E34086E0F34096E10340A6EFE
:104E080011340B6E085009100A100B10D8A40FEFBC
:104E180027F011EF27F017EF27F0000E056E020EAE
:104E2800046E4CEF27F0000E056E030E046E4CEF77
:104E380027F00C280D10D8A424EF27F026EF27F030
:104E480048EF27F00EC008F00FC009F010C00AF0B4
:104E580011C00BF0090ED890083609360A360B3601
:104E6800E82E2FEF27F0085009100A100B10D8B4BD
:104E780040EF27F043EF27F0010E44EF27F0000E34
:104E8800046E056A4CEF27F0000E056E040E046EE2
:104E9800120020EE14F0070EDE6AE806FDE20C5060
:104EA8000D100E100F101010111012101310D8B48E
:104EB80060EF27F062EF27F0B4EF27F0010E1C6EC9
:104EC80070EF27F0D8900C360D360E360F361036A8
:104ED8001136123613361C2A13AE75EF27F077EF0A
:104EE80027F066EF27F0D8901436153616361736A1
:104EF800183619361A361B360C50045C0D500558F6
:104F08000E5006580F50075810500858115009589D
:104F180012500A5813500B58D8A095EF27F097EF66
:104F280027F0A8EF27F00C50045E0D50055A0E50DC
:104F3800065A0F50075A1050085A1150095A125061
:104F48000A5A13500B5A1480D89013321232113265
:104F580010320F320E320D320C321C2E77EF27F042
:104F680014C004F015C005F016C006F017C007F00D
:104F780018C008F019C009F01AC00AF01BC00BF0DD
:104F880012000C500D100E100F10101011101210EE
:104F98001310D8B4D2EF27F0D4EF27F01CEF28F085
:104FA800010E146EE2EF27F0D8900C360D360E364F
:104FB8000F361036113612361336142A13AEE7EFB1
:104FC80027F0E9EF27F0D8EF27F00C50045C0D50DC
:104FD80005580E5006580F500758105008581150D1
:104FE800095812500A5813500B58D8A0FEEF27F052
:104FF80000EF28F010EF28F00C50045E0D50055A11
:105008000E50065A0F50075A1050085A1150095A94
:1050180012500A5A13500B5AD890133212321132C6
:1050280010320F320E320D320C32142EE9EF27F007
:1050380004C004F005C005F006C006F007C007F07C
:1050480008C008F009C009F00AC00AF00BC00BF04C
:10505800120006500710D8B434EF28F036EF28F0C5
:105068003FEF28F006500710D8A43DEF28F03FEF97
:1050780028F044EF28F0045098EC2EF091EF28F037
:1050880020EE04F00650D9260750DA22DE50DE1052
:10509800D8B451EF28F053EF28F06EEF28F020EE47
:1050A80004F00650D9260750DA2210EE02F0065016
:1050B800E1260750E222DE50E65CE650800A0C6EDC
:1050C800DE50800A0C58D8B06CEF28F06EEF28F04C
:1050D80091EF28F020EE02F00650D9260750DA2288
:1050E800DECF08F0DDCF09F006C0D9FF07C0DAFF30
:1050F800DECF0AF0DDCF0BF008500A24D96E095034
:105108000B20DA6E04C0DFFF20EE02F00650D9262D
:105118000750DA22DE2A000EDD2212000001F6A175
:1051280098EF28F09AEF28F0A4EF28F016C00DF0B9
:1051380017C00EF014C00FF015C010F09AEC2CF048
:1051480019BEA9EF28F0ABEF28F0B1EF28F018C08E
:105158001DF019C01EF0B5EF28F0000E1E6E000EEF
:105168001D6E000E1C6E000E1B6EC7EF28F0000EA1
:10517800056E200E046E14C006F015C007F02DEC65
:1051880028F01B4A1C2A1D501B5C1C50800A1A6EF2
:105198001E50800A1A58D8A0D4EF28F0D6EF28F06D
:1051A800BBEF28F00001F6B1DCEF28F0DEEF28F0C5
:1051B800E8EF28F016C00DF017C00EF014C00FF07D
:1051C80015C010F09AEC2CF016C004F017C005F0CA
:1051D800A8EC2DF01D500424146E1E500520156EE9
:1051E8001200000E096E07BEFEEF28F0FCEF28F053
:1051F80004EF29F0066C071ED8B0072A010E096EC5
:1052080005BE0BEF29F009EF29F011EF29F0046C26
:10521800051ED8B0052A010E091A000E0B6E000EE5
:105228000A6E06500710D8B41CEF29F01EEF29F0BB
:1052380046EF29F0010E086E26EF29F0D8900636C1
:105248000736082A07AE2BEF29F02DEF29F022EFB9
:1052580029F0D8900A360B360650045C07500558DA
:10526800D8A039EF29F03BEF29F040EF29F006509C
:10527800045E0750055A0A80D89007320632082E75
:105288002DEF29F00950D8B44CEF29F04EEF29F052
:1052980052EF29F00A6C0B1ED8B00B2A0AC004F092
:1052A8000BC005F01200000E096E05BE60EF29F074
:1052B8005EEF29F066EF29F0046C051ED8B0052AC8
:1052C800010E096E07BE6DEF29F06BEF29F071EF43
:1052D80029F0066C071ED8B0072A06500710D8B464
:1052E80078EF29F07AEF29F09EEF29F0010E086E89
:1052F80082EF29F0D89006360736082A07AE87EFDE
:1053080029F089EF29F07EEF29F00650045C075058
:105318000558D8A092EF29F094EF29F098EF29F0DA
:105328000650045E0750055AD89007320632082EF8
:1053380089EF29F00950D8B4A4EF29F0A6EF29F095
:10534800AAEF29F0046C051ED8B0052A04C004F0A1
:1053580005C005F01200056EC6BAB5EF29F0B7EF23
:1053680029F006EF2AF00550040D010EF326000E71
:10537800F422890EF324F66EFF0EF420F76EF86A15
:10538800000EF8220800F5CFC7FF0550040D890E5E
:10539800F324F66EFF0EF420F76EF86A000EF8227A
:1053A8000800F5CFC6FF000EC56E0550040D020EAD
:1053B800F326000EF422890EF324F66EFF0EF42075
:1053C800F76EF86A000EF8220800F5CFC8FF0550FE
:1053D800040D030EF326000EF422890EF324F66E54
:1053E800FF0EF420F76EF86A000EF8220800F5CFD9
:1053F80004F004460446044694500418F70B0418B5
:10540800946EC68A1200000E04140C6E000E051469
:105418000D6E800E06140E6E7F0E07140F6E0C5064
:105428000D100E100F10D8A41CEF2AF01EEF2AF052
:1054380026EF2AF0000E046E000E056E000E066EB2
:10544800000E076E000E08140C6E000E09140D6E87
:10545800800E0A140E6E7F0E0B140F6E0C500D107A
:105468000E100F10D8A43BEF2AF03DEF2AF045EFBD
:105478002AF0000E086E000E096E000E0A6E000E6D
:105488000B6E085004180FE1095005180CE10A507A
:10549800061809E10B500718D8B455EF2AF057EF52
:1054A8002AF05AEF2AF0D8905BEF2AF0D880120041
:1054B800010E126E400E116E000E106EF00E0F6E81
:1054C800000E0A6E000E096E000E0C6E000E0B6EBA
:1054D800BCEC2CF00009D8B474EF2AF076EF2AF06F
:1054E8008FEF2AF09CEF2AF00DC007F00EC008F0ED
:1054F80065EC2EF01106D8A01206112806E1122834
:10550800D8A489EF2AF08BEF2AF078EF2AF0010E61
:10551800126E400E116E0F06D8A010060F2806E175
:105528001028D8A49AEF2AF09CEF2AF07EEF2AF0F0
:10553800120052C056F053C057F0000E0001F36F2E
:10554800000EF26FBBEF2AF050C046F051C047F092
:10555800560E486E000E496E54C04AF055C04BF0C6
:1055680021EC00F046500001F2274750F32356C0C3
:10557800F6FF57C0F7FFF86A0800F5500009D8A4ED
:10558800C8EF2AF0CAEF2AF0A8EF2AF0F2C050F0CC
:10559800F3C051F01200BF0E0C6EFF0E0D6E0AC064
:1055A8000EF00BC00FF00C500E260D500F220F50AE
:1055B8000AE11A0E0E5CD8A0E4EF2AF0E7EF2AF011
:1055C800010EE8EF2AF0000E106E116A105011104B
:1055D800D8B4F1EF2AF0F3EF2AF0FAEF2AF0200E10
:1055E8000A100A6E0B500B6EFEEF2AF00AC00AF082
:1055F8000BC00BF012009F0E0C6EFF0E0D6E0AC052
:105608000EF00BC00FF00C500E260D500F220F504D
:105618000AE11A0E0E5CD8A014EF2BF017EF2BF04E
:10562800010E18EF2BF0000E106E116A10501110B9
:10563800D8B421EF2BF023EF2BF029EF2BF05F0EDE
:105648000A140A6E0B6A2DEF2BF00AC00AF00BC081
:105658000BF0120006C00AF007C00BF004C00CF0F3
:1056680005C00DF00A50086E0B50096E0A4A0B2A45
:1056780008C0F6FF09C0F7FF000EF86E0CC0D9FF8E
:105688000DC0DAFF0C4A0D2A0E0EF76403D008008D
:10569800F55005D0F6CFE1FFF7CFE2FFE750DF6E18
:1056A800DF50D8A45AEF2BF05CEF2BF036EF2BF03D
:1056B800120081B862EF2BF064EF2BF08BEF2BF028
:1056C80089BC69EF2BF06CEF2BF0010E6DEF2BF01E
:1056D800000EFF0A016E013A014601468950011881
:1056E800BF0B0118896E0001FA51FB11D8A47FEF96
:1056F8002BF081EF2BF087EF2BF0000EFB6F010EE4
:10570800FA6F8BEF2BF0000EFB6F000EFA6F120092
:105718000001F451F511D8A494EF2BF096EF2BF07B
:105728009CEF2BF0F4C022F0F5C023F0A2EF2BF091
:10573800FF0EF425226EFF0EF521236E21C064F1C1
:10574800000E0101656F1FC014F020C015F0640E33
:10575800166E010E176E22C018F023C019F092ECD5
:1057680028F014C01FF015C020F01200240EF66EA9
:105778005D0EF76E000EF86E01EEB4F010EE07F055
:105788000900F5CFEEFFE550E150FAE102EE00F036
:10579800640EEE6AE806FDE101EE00F0B40EEE6A72
:1057A800E806FDE100EEDCF0240EEE6AE806FDE115
:1057B800596A586A5A905A92000151EF1BF0010E2B
:1057C8000A6E200E04180510D8B4EDEF2BF0EFEF99
:1057D8002BF008EF2CF0F70E066EFF0E076E04C0D4
:1057E80008F005C009F0065008260750092209509C
:1057F80009E1050E085CD8A004EF2CF006EF2CF0A8
:1058080008EF2CF0000E0A6E0AC004F0056A1200B8
:10581800085009E1F00E075CD8A015EF2CF017EF3F
:105828002CF01AEF2CF0010E2FEF2CF02A0E056E3B
:10583800000E4DEC2EF00850056E010E4DEC2EF0CA
:1058480007C005F0010E4DEC2EF02C0E056E000E73
:105858004DEC2EF0000E1200400E075C010E0858A9
:10586800D8A039EF2CF03BEF2CF03EEF2CF0010ED6
:1058780053EF2CF02B0E056E000E4DEC2EF0085059
:10588800056E010E4DEC2EF007C005F0010E4DEC33
:105898002EF02C0E056E000E4DEC2EF0000E1200B0
:1058A800000E2F1A000E301A000E311A800E321A0E
:1058B8002BC004F02CC005F02DC006F02EC007F058
:1058C8002FC008F030C009F031C00AF032C00BF028
:1058D8006BEC10F004C02BF005C02CF006C02DF0C6
:1058E80007C02EF01200000E8D6E000E8C6E000E9A
:1058F800896E000E8A6E000E8B6E040E966E0F0E69
:10590800926E9368D70E946E9568870E0F015D6F3F
:105918007D0E5C6F000E5B6FF18E5A89320E046E3D
:105928005D0E056E8DEC2EF0F2861200000E136EE1
:10593800000E126EABEF2CF011C004F0056A0FC018
:1059480006F010C007F02DEC28F0124A132A125066
:105958000D24D96E13500E20DA6EDF50116E1150DF
:10596800D8A4B9EF2CF0BBEF2CF0A0EF2CF012006C
:1059780009C007F00AC008F030EC2CF00009D8A4E0
:10598800C8EF2CF0CAEF2CF0D8EF2CF00BC007F0C2
:105998000CC008F00CEC2CF00009D8B4D6EF2CF0B1
:1059A800D8EF2CF0DBEF2CF0010EDCEF2CF0000E22
:1059B800120017BEEAEF2CF0175006E11604D8B013
:1059C800E8EF2CF0EAEF2CF0F8EF2CF016C018F006
:1059D80017C019F0181E191E184A192A18C016F0EF
:1059E80019C017F0FCEF2CF016C016F017C017F00E
:1059F80012009F0E066EFF0E076E200E0410086E32
:105A0800000E0510096E0650082607500922095095
:105A18000AE11A0E085CD8A014EF2DF017EF2DF04C
:105A2800010E18EF2DF0000E046E056A1200086EC4
:105A380008C006F006460646C2500618830B06182C
:105A4800C26EC280C282C2B22CEF2DF02EEF2DF0B2
:105A580027EF2DF0C450076E066AC3500624046E63
:105A6800000E0720056E12009F0E066EFF0E076ED1
:105A780004C008F005C009F006500826075009229E
:105A880009500AE11A0E085CD8A04DEF2DF050EF2E
:105A98002DF0010E51EF2DF0000E046E056A120074
:105AA800BF0E066EFF0E076E04C008F005C009F0B1
:105AB800065008260750092209500AE11A0E085C08
:105AC800D8A069EF2DF06CEF2DF0010E6DEF2DF0E1
