:020000040000FA
:040000001FEF00F0FE
:100008005D82FACF01F0FBCF02F0F2A60EEF00F00E
:1000180010EF00F019EF00F0F2A015EF00F017EF65
:1000280000F019EF00F05CEC2FF002C0FBFF01C0FC
:10003800FAFF5D921100CCEF2CF0BAC0D9FFBBC01B
:10004800DAFFDECFF6FFDDCFF7FFF86A0800F550DC
:10005800250AD8A432EF00F034EF00F078EF0AF068
:10006800BAC0D9FFBBC0DAFFDE2A000EDD22000EBF
:100078000001FB6F000EFA6FFAC0FCF0FBC0FDF048
:100088005B685C68000EC56F000EC46F93EF00F0EC
:10009800FC81BAC0D9FFBBC0DAFFDE2A000EDD2220
:1000A80093EF00F0FC834DEF00F0FC854DEF00F07E
:1000B800FC874DEF00F0FC894DEF00F0000EC56F96
:1000C800010EC46F93EF00F0BAC0D9FFBBC0DAFFCE
:1000D800DECFF6FFDDCFF7FFF86A0800F550BE6FF8
:1000E800BF6BBF51000AD8B47CEF00F062EF00F09C
:1000F800BE51200AD8B45CEF00F0030AD8B45FEF11
:1001080000F0080AD8B459EF00F0060AD8B44CEF4A
:1001180000F01D0AD8B456EF00F062EF00F0C451A9
:10012800C511D8B49AEF00F09CEF00F068EF00F02A
:10013800FCA1A1EF00F0A3EF00F0A4EF00F0FC9306
:10014800BAC0D9FFBBC0DAFFDECFF6FFDDCFF7FFBD
:10015800F86A0800F5502A0AD8A4B5EF00F0B7EFFE
:1001680000F0E0EF00F0BAC0D9FFBBC0DAFFDE2A2A
:10017800000EDD22BCC0D9FFBDC0DAFFDFCFBEF064
:10018800020EDE26DFCFBFF0000EDD22BEC0D9FF93
:10019800BFC0DAFFDECFFAF0DDCFFBF0FBBFD9EF4F
:1001A80000F0D7EF00F025EF01F0FC81FA6DFB1F9E
:1001B800D8B0FB2B25EF01F0BAC0D9FFBBC0DAFFDE
:1001C800DECF0AF0DDCF0BF053EC21F00AC0FAF0D5
:1001D8000BC0FBF0F7EF00F0BAC0D9FFBBC0DAFFE5
:1001E800DE2A000EDD22D00E0001BE6FFF0EBF6FAB
:1001F800BAC0D9FFBBC0DAFFDECFF6FFDDCFF7FF0D
:10020800F86A0800F550C06FC16BBE51C027BF51D6
:10021800C123C1510AE10A0EC05DD8A016EF01F052
:1002280019EF01F0010E1AEF01F0000EC66FC76B4F
:10023800C651C711D8A423EF01F025EF01F0F0EF64
:1002480000F0BAC0D9FFBBC0DAFFDECFF6FFDDCFC2
:10025800F7FFF86A0800F5502E0AD8A436EF01F027
:1002680038EF01F0B8EF01F0000E5C6E000E5B6E27
:10027800BAC0D9FFBBC0DAFFDE2A000EDD22BAC041
:10028800D9FFBBC0DAFFDECFF6FFDDCFF7FFF86A94
:100298000800F5502A0AD8A454EF01F056EF01F0EF
:1002A80073EF01F0BAC0D9FFBBC0DAFFDE2A000E37
:1002B800DD22BCC0D9FFBDC0DAFFDFCFBEF0020E21
:1002C800DE26DFCFBFF0000EDD22BEC0D9FFBFC0E3
:1002D800DAFFDECF5BF0DDCF5CF0B8EF01F0BAC03B
:1002E800D9FFBBC0DAFFDECF0AF0DDCF0BF053EC4D
:1002F80021F00AC05BF00BC05CF08AEF01F0BAC0D5
:10030800D9FFBBC0DAFFDE2A000EDD22D00E0001C5
:10031800BE6FFF0EBF6FBAC0D9FFBBC0DAFFDECF1A
:10032800F6FFDDCFF7FFF86A0800F550C06FC16B24
:10033800BE51C027BF51C123C1510AE10A0EC05D99
:10034800D8A0A9EF01F0ACEF01F0010EADEF01F07C
:10035800000EC86FC96BC851C911D8A4B6EF01F017
:10036800B8EF01F083EF01F0BAC0D9FFBBC0DAFFE4
:10037800DECFF6FFDDCFF7FFF86A0800F550096E0B
:100388000A6AE7EC2BF009500001D06FD051D8B4BD
:10039800D0EF01F0D2EF01F00EEF02F0BAC0D9FFB2
:1003A800BBC0DAFFDECFBEF0DDCFBFF0010EBE2747
:1003B800000EBF23BEC0F6FFBFC0F7FFF86A0800F3
:1003C800F550096E0A6AE7EC2BF009500001D16F6D
:1003D800D151D8B4F2EF01F0F4EF01F00EEF02F0D2
:1003E800BAC0D9FFBBC0DAFFDECFBEF0DDCFBFF0A9
:1003F800020EBE27000EBF23BEC0F6FFBFC0F7FF28
:10040800F86A0800F550096E0A6AE7EC2BF0095003
:100418000001D26FBAC0D9FFBBC0DAFFDECFF6FF4A
:10042800DDCFF7FFF86A0800F550630AD8A41FEF7C
:1004380002F021EF02F048EF02F0BAC0D9FFBBC0CA
:10044800DAFFDE2A000EDD22BCC0D9FFBDC0DAFF0C
:10045800DFCFBEF0020EDE26DFCFBFF0000EDD22BA
:10046800BEC0D9FFBFC0DAFFDF50DD6FB8C01EF0D5
:10047800B9C01FF0DDC020F075EC2CF01EC0B8F03C
:100488001FC0B9F094EF0AF0BAC0D9FFBBC0DAFFB9
:10049800DECF03F0DDCF04F0C60E056EFF0E066E4C
:1004A800000E086E030E076E4AEC26F00350041087
:1004B800D8B461EF02F063EF02F07EEF02F0BAC049
:1004C800D9FFBBC0DAFFDECF03F0DDCF04F0CE0EDC
:1004D800056EFF0E066E000E086E030E076E4AECE0
:1004E80026F003500410D8A47CEF02F07EEF02F04F
:1004F800BFEF02F0030EBAC0D9FFBBC0DAFFDE2699
:10050800000EDD22BCC0D9FFBDC0DAFFDFCFBEF0D0
:10051800020EDE26DFCFBFF0000EDD22BEC0D9FFFF
:10052800BFC0DAFFDF500001D36F000ED3BFFF0E4C
:10053800D46FD56FD66FD76FD86FD96FDA6FB8C051
:100548001EF0B9C01FF0D3C020F0D4C021F0D5C030
:1005580022F0D6C023F0D7C024F0D8C025F0D9C0E7
:1005680026F0DAC027F093EC1AF01EC0B8F01FC0CE
:10057800B9F094EF0AF0BAC0D9FFBBC0DAFFDECFFA
:1005880003F0DDCF04F0C70E056EFF0E066E000EF9
:10059800086E020E076E4AEC26F003500410D8B419
:1005A800D8EF02F0DAEF02F0F5EF02F0BAC0D9FFA7
:1005B800BBC0DAFFDECF03F0DDCF04F0CF0E056E4F
:1005C800FF0E066E000E086E020E076E4AEC26F04D
:1005D80003500410D8A4F3EF02F0F5EF02F01DEF7A
:1005E80003F0020EBAC0D9FFBBC0DAFFDE26000E48
:1005F800DD22BCC0D9FFBDC0DAFFDFCFBEF0020EDE
:10060800DE26DFCFBFF0000EDD22BEC0D9FFBFC09F
:10061800DAFFDECFD3F0DDCFD4F00001000ED4BF77
:10062800FF0ED56FD66FD76FD86FD96FDA6FA3EF7C
:1006380002F0BAC0D9FFBBC0DAFFDECFF6FFDDCFCC
:10064800F7FFF86A0800F550640AD8B42EEF03F0F3
:1006580030EF03F043EF03F0BAC0D9FFBBC0DAFFB5
:10066800DECFF6FFDDCFF7FFF86A0800F550690A1C
:10067800D8A441EF03F043EF03F06AEF03F0BAC0E8
:10068800D9FFBBC0DAFFDE2A000EDD22BCC0D9FFCD
:10069800BDC0DAFFDFCFBEF0020EDE26DFCFBFF02F
:1006A800000EDD22BEC0D9FFBFC0DAFFDECFD3F017
:1006B800DDCFD4F00001000ED4BFFF0ED56FD66F8A
:1006C800D76FD86FD96FDA6FA3EF02F0BAC0D9FF2E
:1006D800BBC0DAFFDECF03F0DDCF04F0E90E056E14
:1006E800FF0E066E000E086E020E076E4AEC26F02C
:1006F80003500410D8B483EF03F085EF03F0A0EFA4
:1007080003F0BAC0D9FFBBC0DAFFDECF03F0DDCFFC
:1007180004F0EF0E056EFF0E066E000E086E020E58
:10072800076E4AEC26F003500410D8A49EEF03F09D
:10073800A0EF03F0C9EF03F0020EBAC0D9FFBBC0A7
:10074800DAFFDE26000EDD22BCC0D9FFBDC0DAFF0D
:10075800DFCFBEF0020EDE26DFCFBFF0000EDD22B7
:10076800BEC0D9FFBFC0DAFFDECFC0F0DDCFC1F019
:10077800C0C0D3F0C1C0D4F00001D56BD66BD76B25
:10078800D86BD96BDA6BA3EF02F0660E0001D019B3
:10079800D8A4D1EF03F0D3EF03F014EF04F0BAC0FC
:1007A800D9FFBBC0DAFFDECFF6FFDDCFF7FFF86A6F
:1007B8000800F5CFDDF0BAC0D9FFBBC0DAFFDE2AEA
:1007C800000EDD22BCC0D9FFBDC0DAFFDFCFBEF00E
:1007D800040EDE26DFCFBFF0000EDD22BEC0D9FF3B
:1007E800BFC0DAFFDECFCCF0DECFCDF0DECFCEF06B
:1007F800DECFCFF0B8C074F0B9C075F0CCC076F0D9
:10080800CDC077F0CEC078F0CFC079F0DDC07AF0F7
:1008180095EC0AF074C0B8F075C0B9F094EF0AF01E
:10082800D00E036E000E046EEC0E056EFF0E066E03
:10083800000E086E020E076E4AEC26F003500410F4
:10084800D8A429EF04F02BEF04F0A9EF04F0BAC004
:10085800D9FFBBC0DAFFDECFBEF0DDCFBFF0010E9F
:100868000001BE27000EBF23BEC0F6FFBFC0F7FFC2
:10087800F86A0800F5CFDDF0BF0EBE6FFF0EBF6F40
:10088800BAC0D9FFBBC0DAFFDECFF6FFDDCFF7FF76
:10089800F86A0800F550C06FC16BBE51C027BF5140
:1008A800C123C1510AE11A0EC05DD8A05EEF04F061
:1008B80061EF04F0010E62EF04F0000ECA6FCB6B1B
:1008C800CA51CB11D8B46BEF04F06DEF04F087EF89
:1008D80004F0BCC0D9FFBDC0DAFFDFCFBEF0040E04
:1008E800DE26DFCFBFF0000EDD22BEC0D9FFBFC0BD
:1008F800DAFFDECFCCF0DECFCDF0DECFCEF0DECF2C
:10090800CFF09FEF04F0BCC0D9FFBDC0DAFFDFCF46
:10091800BEF0040EDE26DFCFBFF0000EDD22BEC023
:10092800D9FFBFC0DAFFDECFCCF0DECFCDF0DECF0F
:10093800CEF0DECFCFF0020EBAC0D9FFBBC0DAFFCF
:10094800DE26000EDD22FEEF03F0BAC0D9FFBBC0E1
:10095800DAFFDECF03F0DDCF04F0DA0E056EFF0E0E
:10096800066E000E086E030E076E4AEC26F0035062
:100978000410D8A4C2EF04F0C4EF04F004EF05F0AB
:10098800030EBAC0D9FFBBC0DAFFDE26000EDD2297
:10099800BCC0D9FFBDC0DAFFDFCFBEF0020EDE2635
:1009A800DFCFBFF0000EDD22BEC0D9FFBFC0DAFF27
:1009B800DF500001C06FC051DE6FDF6BE06BE16B91
:1009C800E26BE36BE46BE56BB8C01EF0B9C01FF0D7
:1009D800DEC020F0DFC021F0E0C022F0E1C023F04B
:1009E800E2C024F0E3C025F0E4C026F0E5C027F01B
:1009F80081EC1FF01EC0B8F01FC0B9F094EF0AF0E8
:100A0800BAC0D9FFBBC0DAFFDECF03F0DDCF04F0F8
:100A1800DB0E056EFF0E066E000E086E020E076EE8
:100A28004AEC26F003500410D8A41DEF05F01FEF80
:100A380005F048EF05F0020EBAC0D9FFBBC0DAFFD7
:100A4800DE26000EDD22BCC0D9FFBDC0DAFFDFCF35
:100A5800BEF0020EDE26DFCFBFF0000EDD22BEC0E4
:100A6800D9FFBFC0DAFFDECFC0F0DDCFC1F0C0C014
:100A7800DEF0C1C0DFF00001E06BE16BE26BE36B1D
:100A8800E46BE56BE8EF04F0BAC0D9FFBBC0DAFF4E
:100A9800DECFF6FFDDCFF7FFF86A0800F5506F0AE2
:100AA800D8A459EF05F05BEF05F083EF05F0BAC065
:100AB800D9FFBBC0DAFFDE2A000EDD22BCC0D9FF99
:100AC800BDC0DAFFDFCFBEF0020EDE26DFCFBFF0FB
:100AD800000EDD22BEC0D9FFBFC0DAFFDECFC0F0F6
:100AE800DDCFC1F0C0C0DEF0C1C0DFF00001E06BB7
:100AF800E16BE26BE36BE46BE56BE8EF04F0BAC023
:100B0800D9FFBBC0DAFFDECF03F0DDCF04F0F50E6E
:100B1800056EFF0E066E000E086E020E076E4AEC9A
:100B280026F003500410D8A49CEF05F09EEF05F0C2
:100B3800C7EF05F0020EBAC0D9FFBBC0DAFFDE2648
:100B4800000EDD22BCC0D9FFBDC0DAFFDFCFBEF08A
:100B5800020EDE26DFCFBFF0000EDD22BEC0D9FFB9
:100B6800BFC0DAFFDECFC0F0DDCFC1F0C0C0DEF01D
:100B7800C1C0DFF00001E06BE16BE26BE36BE46B9B
:100B8800E56BE8EF04F0BAC0D9FFBBC0DAFFDECFEF
:100B980003F0DDCF04F0D60E056EFF0E066E000ED4
:100BA800086E030E076E4AEC26F003500410D8A412
:100BB800E0EF05F0E2EF05F00BEF06F0030EBAC028
:100BC800D9FFBBC0DAFFDE26000EDD22BCC0D9FF8C
:100BD800BDC0DAFFDFCFBEF0020EDE26DFCFBFF0EA
:100BE800000EDD22BEC0D9FFBFC0DAFFDECFDBF0CA
:100BF800DDCFDCF0DBC0D9FFDCC0DAFF1AC1DFFFD4
:100C0800000E0001B96F000EB86F94EF0AF0BAC079
:100C1800D9FFBBC0DAFFDECF03F0DDCF04F0D70E7B
:100C2800056EFF0E066E000E086E020E076E4AEC89
:100C380026F003500410D8A424EF06F026EF06F09F
:100C48004CEF06F0020EBAC0D9FFBBC0DAFFDE26B1
:100C5800000EDD22BCC0D9FFBDC0DAFFDFCFBEF079
:100C6800020EDE26DFCFBFF0000EDD22BEC0D9FFA8
:100C7800BFC0DAFFDECFDBF0DDCFDCF0DBC0D9FFB1
:100C8800DCC0DAFF1AC1DEFF1BC1DDFF04EF06F08E
:100C9800BAC0D9FFBBC0DAFFDECFF6FFDDCFF7FF62
:100CA800F86A0800F5506E0AD8A45DEF06F05FEF09
:100CB80006F084EF06F0BAC0D9FFBBC0DAFFDE2A1F
:100CC800000EDD22BCC0D9FFBDC0DAFFDFCFBEF009
:100CD800020EDE26DFCFBFF0000EDD22BEC0D9FF38
:100CE800BFC0DAFFDECFDBF0DDCFDCF0DBC0D9FF41
:100CF800DCC0DAFF1AC1DEFF1BC1DDFF04EF06F01E
:100D0800BAC0D9FFBBC0DAFFDECF03F0DDCF04F0F5
:100D1800F20E056EFF0E066E000E086E020E076ECE
:100D28004AEC26F003500410D8A49DEF06F09FEF7C
:100D380006F0C5EF06F0020EBAC0D9FFBBC0DAFF55
:100D4800DE26000EDD22BCC0D9FFBDC0DAFFDFCF32
:100D5800BEF0020EDE26DFCFBFF0000EDD22BEC0E1
:100D6800D9FFBFC0DAFFDECFDBF0DDCFDCF0DBC0C0
:100D7800D9FFDCC0DAFF1AC1DEFF1BC1DDFF04EFBB
:100D880006F0BAC0D9FFBBC0DAFFDECFF6FFDDCF71
:100D9800F7FFF86A0800F550700AD8A4D6EF06F0F5
:100DA800D8EF06F01CEF07F0BAC0D9FFBBC0DAFFD6
:100DB800DE2A000EDD22BCC0D9FFBDC0DAFFDFCFBE
:100DC800BEF0020EDE26DFCFBFF0000EDD22BEC071
:100DD800D9FFBFC0DAFFDECFC0F0DDCFC1F0C0C0A1
:100DE800DEF0C1C0DFF00001E06BE16BE26BE36BAA
:100DF800E46BE56BB8C01EF0B9C01FF0DEC020F090
:100E0800DFC021F0E0C022F0E1C023F0E2C024F00E
:100E1800E3C025F0E4C026F0E5C027F0780E286E80
:100E280006EC1CF01EC0B8F01FC0B9F094EF0AF031
:100E3800BAC0D9FFBBC0DAFFDECFF6FFDDCFF7FFC0
:100E4800F86A0800F550730AD8A42DEF07F02FEFC1
:100E580007F05AEF07F0BAC0D9FFBBC0DAFFDE2AA5
:100E6800000EDD22BCC0D9FFBDC0DAFFDFCFBEF067
:100E7800020EDE26DFCFBFF0000EDD22BEC0D9FF96
:100E8800BFC0DAFFDECFC2F0DDCFC3F0B8C00CF0D0
:100E9800B9C00DF0C2C00EF0C3C00FF0E4EC22F0F0
:100EA8000CC0B8F00DC0B9F094EF0AF0BAC0D9FF81
:100EB800BBC0DAFFDECF03F0DDCF04F0DE0E056E37
:100EC800FF0E066E000E086E030E076E4AEC26F043
:100ED80003500410D8A473EF07F075EF07F0B5EFCF
:100EE80007F0030EBAC0D9FFBBC0DAFFDE26000E3A
:100EF800DD22BCC0D9FFBDC0DAFFDFCFBEF0020ED5
:100F0800DE26DFCFBFF0000EDD22BEC0D9FFBFC096
:100F1800DAFFDF500001C06FC051DE6FDF6BE06B9E
:100F2800E16BE26BE36BE46BE56BB8C01EF0B9C034
:100F38001FF0DEC020F0DFC021F0E0C022F0E1C0E9
:100F480023F0E2C024F0E3C025F0E4C026F0E5C0B9
:100F580027F07FEC1EF01EC0B8F01FC0B9F094EF68
:100F68000AF0BAC0D9FFBBC0DAFFDECF03F0DDCF8D
:100F780004F0DF0E056EFF0E066E000E086E020E00
:100F8800076E4AEC26F003500410D8A4CEEF07F001
:100F9800D0EF07F0F9EF07F0020EBAC0D9FFBBC0D7
:100FA800DAFFDE26000EDD22BCC0D9FFBDC0DAFFA5
:100FB800DFCFBEF0020EDE26DFCFBFF0000EDD224F
:100FC800BEC0D9FFBFC0DAFFDECFC0F0DDCFC1F0B1
:100FD800C0C0DEF0C1C0DFF00001E06BE16BE26B86
:100FE800E36BE46BE56B99EF07F0BAC0D9FFBBC0C0
:100FF800DAFFDECFF6FFDDCFF7FFF86A0800F5501D
:10100800750AD8A40AEF08F00CEF08F034EF08F0DE
:10101800BAC0D9FFBBC0DAFFDE2A000EDD22BCC091
:10102800D9FFBDC0DAFFDFCFBEF0020EDE26DFCF6C
:10103800BFF0000EDD22BEC0D9FFBFC0DAFFDECF91
:10104800C0F0DDCFC1F0C0C0DEF0C1C0DFF00001EC
:10105800E06BE16BE26BE36BE46BE56B99EF07F038
:10106800BAC0D9FFBBC0DAFFDECF03F0DDCF04F092
:10107800F80E056EFF0E066E000E086E020E076E65
:101088004AEC26F003500410D8A44DEF08F04FEFB7
:1010980008F078EF08F0020EBAC0D9FFBBC0DAFF3B
:1010A800DE26000EDD22BCC0D9FFBDC0DAFFDFCFCF
:1010B800BEF0020EDE26DFCFBFF0000EDD22BEC07E
:1010C800D9FFBFC0DAFFDECFC0F0DDCFC1F0C0C0AE
:1010D800DEF0C1C0DFF00001E06BE16BE26BE36BB7
:1010E800E46BE56B99EF07F0BAC0D9FFBBC0DAFF34
:1010F800DECF03F0DDCF04F0E20E056EFF0E066EC4
:10110800000E086E030E076E4AEC26F0035004101A
:10111800D8B491EF08F093EF08F0AEEF08F0BAC03A
:10112800D9FFBBC0DAFFDECF03F0DDCF04F0C20E7B
:10113800056EFF0E066E000E086E030E076E4AEC73
:1011480026F003500410D8A4ACEF08F0AEEF08F076
:1011580004EF09F0BAC0D9FFBBC0DAFFDECFBEF09A
:10116800DDCFBFF0020E0001BE27000EBF23BEC0B8
:10117800F6FFBFC0F7FFF86A0800F5CFDDF0030EF1
:10118800BAC0D9FFBBC0DAFFDE26000EDD22BCC024
:10119800D9FFBDC0DAFFDFCFBEF0020EDE26DFCFFB
:1011A800BFF0000EDD22BEC0D9FFBFC0DAFFDF509E
:1011B800C06FC051DE6FDF6BE06BE16BE26BE36B1E
:1011C800E46BE56BB8C01EF0B9C01FF0DEC020F0BC
:1011D800DFC021F0E0C022F0E1C023F0E2C024F03B
:1011E800E3C025F0E4C026F0E5C027F0DDC028F014
:1011F80006EC1CF01EC0B8F01FC0B9F094EF0AF05E
:10120800BAC0D9FFBBC0DAFFDECF03F0DDCF04F0F0
:10121800E30E056EFF0E066E000E086E020E076ED8
:101228004AEC26F003500410D8B41DEF09F01FEF64
:1012380009F03AEF09F0BAC0D9FFBBC0DAFFDECF38
:1012480003F0DDCF04F0C30E056EFF0E066E000E30
:10125800086E020E076E4AEC26F003500410D8A45C
:1012680038EF09F03AEF09F077EF09F0BAC0D9FF83
:10127800BBC0DAFFDECFBEF0DDCFBFF0010E00014C
:10128800BE27000EBF23BEC0F6FFBFC0F7FFF86A37
:101298000800F5CFDDF0020EBAC0D9FFBBC0DAFFF7
:1012A800DE26000EDD22BCC0D9FFBDC0DAFFDFCFCD
:1012B800BEF0020EDE26DFCFBFF0000EDD22BEC07C
:1012C800D9FFBFC0DAFFDECFC0F0DDCFC1F0C0C0AC
:1012D800DEF0C1C0DFF0E06BE16BE26BE36BE46B67
:1012E800E56BE6EF08F0BAC0D9FFBBC0DAFFDECF86
:1012F800F6FFDDCFF7FFF86A0800F550780AD8B492
:1013080088EF09F08AEF09F09DEF09F0BAC0D9FF1C
:10131800BBC0DAFFDECFF6FFDDCFF7FFF86A0800C3
:10132800F550580AD8A49BEF09F09DEF09F0D1EFCA
:1013380009F0BAC0D9FFBBC0DAFFDECFF6FFDDCFB8
:10134800F7FFF86A0800F5CFDDF0BAC0D9FFBBC0D7
:10135800DAFFDE2A000EDD22BCC0D9FFBDC0DAFFED
:10136800DFCFBEF0020EDE26DFCFBFF0000EDD229B
:10137800BEC0D9FFBFC0DAFFDECFC0F0DDCFC1F0FD
:10138800C0C0DEF0C1C0DFF00001E06BE16BE26BD2
:10139800E36BE46BE56BE6EF08F0BAC0D9FFBBC0BE
:1013A800DAFFDECF03F0DDCF04F0FB0E056EFF0E93
:1013B800066E000E086E020E076E4AEC26F0035009
:1013C8000410D8B4EAEF09F0ECEF09F007EF0AF0DF
:1013D800BAC0D9FFBBC0DAFFDECF03F0DDCF04F01F
:1013E800E60E056EFF0E066E000E086E020E076E04
:1013F8004AEC26F003500410D8A405EF0AF007EFD2
:101408000AF044EF0AF0BAC0D9FFBBC0DAFFDECF5A
:10141800BEF0DDCFBFF0010E0001BE27000EBF23D6
:10142800BEC0F6FFBFC0F7FFF86A0800F5CFDDF0D1
:10143800020EBAC0D9FFBBC0DAFFDE26000EDD22DD
:10144800BCC0D9FFBDC0DAFFDFCFBEF0020EDE267A
:10145800DFCFBFF0000EDD22BEC0D9FFBFC0DAFF6C
:10146800DECFC0F0DDCFC1F0C0C0DEF0C1C0DFF01C
:10147800E06BE16BE26BE36BE46BE56BE6EF08F0C6
:10148800BAC0D9FFBBC0DAFFDECFF6FFDDCFF7FF6A
:10149800F86A0800F550250AD8A455EF0AF057EF66
:1014A8000AF06FEF0AF0BAC0D9FFBBC0DAFFDE2A34
:1014B800000EDD22000E046E250E036EB8C005F086
:1014C800B9C006F041EC29F0000E0001B96F010E19
:1014D800B86F94EF0AF0BAC0D9FFBBC0DAFFDE2AB2
:1014E800000EDD2204EF06F0BAC0D9FFBBC0DAFF58
:1014F800DECFF6FFDDCFF7FFF86A0800F550036E80
:10150800046AB8C005F0B9C006F041EC29F0BAC0C9
:10151800D9FFBBC0DAFFDE2A000EDD2268EF0AF031
:101528001200000E00019B6F000E9A6F76C0ACF09F
:1015380077C0ADF078C0AEF079C0AFF0AFBFA9EF1B
:101548000AF0A7EF0AF0BFEF0AF0000E9B6F010E3A
:101558009A6FACC003F0ADC004F0AEC005F0AFC0E8
:1015680006F058EC2EF003C0ACF004C0ADF005C096
:10157800AEF006C0AFF0000E0001B36F000EB26F00
:10158800FAC09FF0FBC0A0F09A519B11D8A4CFEFEE
:101598000AF0D1EF0AF0D8EF0AF0FCA5D6EF0AF06E
:1015A800D8EF0AF0F2EF0AF09A519B11D8A4DFEFB6
:1015B8000AF0E1EF0AF0E7EF0AF0000E856F2B0E54
:1015C800846FEBEF0AF0000E856F2D0E846F84C0D8
:1015D80088F1B24BB32B9F07D8A0A007ACC003F08B
:1015E800ADC004F0AEC005F0AFC006F0E2EC27F0E5
:1015F80003040410D8A403EF0BF005EF0BF05CEF25
:101608000BF0BF0E00017B6FFF0E7C6F7A517D6F70
:101618007E6B7B517D277C517E237E510AE11A0E19
:101628007D5DD8A01AEF0BF01DEF0BF0010E1EEF39
:101638000BF0000E866F876B86518711D8B427EFA1
:101648000BF029EF0BF037EF0BF0880EB225036E85
:10165800010EB321046EBA0E056EFF0E066E46EC3F
:101668002CF043EF0BF0880EB225036E010EB32168
:10167800046ECA0E056EFF0E066E46EC2CF00001D5
:10168800FD0E9F27FF0EA02374C013F075C014F041
:10169800880E156E010E166E9FC017F0A0C018F0C8
:1016A800A6EC29F013C074F014C075F06CEF10F0BC
:1016B800ACC003F0ADC004F0AEC005F0AFC006F09A
:1016C800E2EC27F003500410D8A46DEF0BF06FEF95
:1016D8000BF0AFEF0BF0BF0E00017B6FFF0E7C6FBE
:1016E8007A517D6F7E6B7B517D277C517E237E51A5
:1016F8000AE11A0E7D5DD8A084EF0BF087EF0BF09E
:10170800010E88EF0BF0000E886F896B88518911E4
:10171800D8B491EF0BF093EF0BF0A1EF0BF0880E1C
:10172800B225036E010EB321046EBE0E056EFF0EC8
:10173800066E46EC2CF043EF0BF0880EB225036ED4
:10174800010EB321046ED20E056EFF0E066E46EC36
:101758002CF043EF0BF0000E0001B46F000EB56FD4
:10176800800EB66F3F0EB76F000EB16F000EB06FF0
:10177800ACC003F0ADC004F0AEC005F0AFC006F0D9
:10178800000E076E000E086E000E096E000E0A6E3F
:101798001BEC2BF0D8B0D3EF0BF0D5EF0BF058EFD4
:1017A8000CF0F4EF0BF0B4C011F0B5C012F0B6C0F5
:1017B80013F0B7C014F0000E156E000E166E200E52
:1017C800176E410E186EEEEC14F011C0B4F012C092
:1017D800B5F013C0B6F014C0B7F00001B04BB12B90
:1017E800ACC02AF0ADC02BF0AEC02CF0AFC02DF0CD
:1017F800000E156E000E166E200E176E410E186E36
:10180800B4C011F0B5C012F0B6C013F0B7C014F0F0
:10181800EEEC14F011C02EF012C02FF013C030F00F
:1018280014C031F060EC27F0D8B01DEF0CF01FEFBA
:101838000CF0D7EF0BF03FEF0CF0B4C042F0B5C09E
:1018480043F0B6C044F0B7C045F0000E466E000E37
:10185800476E200E486E410E496E03EC17F042C0E9
:10186800B4F043C0B5F044C0B6F045C0B7F00001CD
:10187800B007D8A0B107ACC02AF0ADC02BF0AEC0FD
:101888002CF0AFC02DF0B4C02EF0B5C02FF0B6C00C
:1018980030F0B7C031F060EC27F0D8A056EF0CF06C
:1018A80058EF0CF021EF0CF07AC009F00A6AE7EC67
:1018B8002BF009500001A16FA1C09EF0670EA1197D
:1018C800D8A469EF0CF06BEF0CF091EF0CF05B50C3
:1018D8005C10D8A472EF0CF074EF0CF078EF0CF0F9
:1018E800000E5C6E010E5B6E5CBE85EF0CF05C500A
:1018F80006E15B04D8B083EF0CF085EF0CF08BEFBA
:101908000CF0000E9D6F060E9C6F9AEF0CF05BC0FA
:101918009CF05CC09DF09AEF0CF05CBE96EF0CF06A
:1019280098EF0CF085EF0CF08BEF0CF0670EA11917
:10193800D8A4A1EF0CF0A3EF0CF0D2EF0CF0B1AFEC
:10194800B1EF0CF0FC0EB05DFF0EB159D8A0AFEFAF
:101958000CF0B1EF0CF0D0EF0CF0FF0E7B6FFF0E28
:101968007C6F9CC07DF09DC07EF07B517D277C51B3
:101978007E23B0517D5D7E51800A7F6FB151800A10
:101988007F59D8A0CAEF0CF0CCEF0CF0D0EF0CF0D8
:10199800660E9E6FD2EF0CF0650E9E6F9CC094F0A1
:1019A8009DC095F0670EA119D8A4DDEF0CF0DFEF0C
:1019B8000CF0EFEF0CF0660E9E19D8A4E6EF0CF0D1
:1019C800E8EF0CF0F1EF0CF0B1BFEFEF0CF0EDEF3A
:1019D8000CF0F1EF0CF0944B952B660E9E19D8A4E1
:1019E800F8EF0CF0FAEF0CF01AEF0DF0B1BF01EFC1
:1019F8000DF0FFEF0CF00DEF0DF0000EB46F000EC0
:101A0800B56F800EB66F3F0EB76F000EB16F000E48
:101A1800B06F670EA119D8B414EF0DF016EF0DF0E2
:101A28001AEF0DF0B0519427B1519523000EAB6F0A
:101A3800000EAA6FACC0A2F0ADC0A3F0AEC0A4F077
:101A4800AFC0A5F0B4C080F0B5C081F0B6C082F0D8
:101A5800B7C083F0ABEF0DF0A2C042F0A3C043F0D3
:101A6800A4C044F0A5C045F0B4C046F0B5C047F0E6
:101A7800B6C048F0B7C049F003EC17F042C060F0B8
:101A880043C061F044C062F045C063F074EC1DF0DF
:101A980060C0A6F061C0A7F062C0A8F063C0A9F05A
:101AA800A6C003F0A7C004F0A8C005F0A9C006F0BE
:101AB800DDEC26F003C098F004C099F0A2C03AF01B
:101AC800A3C03BF0A4C03CF0A5C03DF0B4C015F0E5
:101AD800B5C016F0B6C017F0B7C018F0A6C011F020
:101AE800A7C012F0A8C013F0A9C014F0EEEC14F0CF
:101AF80011C03EF012C03FF013C040F014C041F0D6
:101B08003CEC2DF03AC0A2F03BC0A3F03CC0A4F0DE
:101B18003DC0A5F0B4C042F0B5C043F0B6C044F033
:101B2800B7C045F0000E466E000E476E200E486E98
:101B3800410E496E03EC17F042C0B4F043C0B5F053
:101B480044C0B6F045C0B7F00001AA4BAB2B945186
:101B5800AA5DAB51800A7B6F9551800A7B59D8A04A
:101B6800B8EF0DF0BAEF0DF030EF0DF0B4C011F092
:101B7800B5C012F0B6C013F0B7C014F0000E156E61
:101B8800000E166EA00E176E400E186EEEEC14F0D6
:101B980011C0A6F012C0A7F013C0A8F014C0A9F095
:101BA800A2C02AF0A3C02BF0A4C02CF0A5C02DF031
:101BB800A6C02EF0A7C02FF0A8C030F0A9C031F001
:101BC80060EC27F0D8B0EBEF0DF0EDEF0DF0F8EF8B
:101BD8000DF0000E0001A66F000EA76F000EA86F93
:101BE800000EA96F21EF0EF0A2C003F0A3C004F00D
:101BF800A4C005F0A5C006F0A6C007F0A7C008F06D
:101C0800A8C009F0A9C00AF01BEC2BF0D8A00FEF70
:101C18000EF011EF0EF021EF0EF0000198B117EF62
:101C28000EF019EF0EF021EF0EF0000EA66F000E69
:101C3800A76F000EA86F000EA96FACC02AF0ADC048
:101C48002BF0AEC02CF0AFC02DF0A6C02EF0A7C070
:101C58002FF0A8C030F0A9C031F06DEC10F02AC008
:101C6800A2F02BC0A3F02CC0A4F02DC0A5F080C01A
:101C7800B4F081C0B5F082C0B6F083C0B7F0650E8D
:101C880000019E19D8B44BEF0EF04DEF0EF053EF54
:101C98000EF0B0C096F0B1C097F057EF0EF0000EFE
:101CA800976F000E966F000E936F000E926F000EE6
:101CB800916F000E906F000EAB6F000EAA6F52EF7F
:101CC8000FF0A2C042F0A3C043F0A4C044F0A5C0E6
:101CD80045F0B4C046F0B5C047F0B6C048F0B7C04C
:101CE80049F003EC17F042C060F043C061F044C013
:101CF80062F045C063F074EC1DF060C0A6F061C0EE
:101D0800A7F062C0A8F063C0A9F0A6C003F0A7C0FE
:101D180004F0A8C005F0A9C006F0DDEC26F003C069
:101D280098F004C099F00001FCB99DEF0EF09FEF08
:101D38000EF0BCEF0EF098519911D8A4A6EF0EF052
:101D4800A8EF0EF0BCEF0EF0670EA119D8A4AFEF04
:101D58000EF0B1EF0EF0BCEF0EF097BFB8EF0EF03B
:101D6800B6EF0EF0BCEF0EF0904B912B06EF0FF094
:101D780092519311D8A4C3EF0EF0C5EF0EF0EFEF18
:101D88000EF097BFCCEF0EF0CAEF0EF0EFEF0EF0AB
:101D9800880EB225D96E010EB321DA6E2E0EDF6ED3
:101DA800B24BB32B9F07D8A0A007000E936F010E6C
:101DB800926FEFEF0EF0880EB225D96E010EB321A7
:101DC800DA6E300EDF6EB24BB32B9F07D8A0A00798
:101DD8009007D8A0910790519111D8A4F6EF0EF072
:101DE800F8EF0EF0DFEF0EF0880EB225D96E010E77
:101DF800B321DA6E9851300FDF6EB24BB32B9F07C9
:101E0800D8A0A007A2C03AF0A3C03BF0A4C03CF001
:101E1800A5C03DF0B4C015F0B5C016F0B6C017F0B7
:101E2800B7C018F0A6C011F0A7C012F0A8C013F0F0
:101E3800A9C014F0EEEC14F011C03EF012C03FF04F
:101E480013C040F014C041F03CEC2DF03AC0A2F0B1
:101E58003BC0A3F03CC0A4F03DC0A5F0B4C042F024
:101E6800B5C043F0B6C044F0B7C045F0000E466EAA
:101E7800000E476E200E486E410E496E03EC17F0B7
:101E880042C0B4F043C0B5F044C0B6F045C0B7F0A6
:101E980000019607D8A09707AA4BAB2B9451AA5DCF
:101EA800AB51800A7B6F9551800A7B59D8B05FEFA0
:101EB8000FF061EF0FF06FEF0FF0B3BF6DEF0FF0A2
:101EC800B35109E14B0EB25DD8A06DEF0FF06FEF83
:101ED8000FF065EF0EF092519311D8A476EF0FF042
:101EE80078EF0FF089EF0FF0FCA97DEF0FF07FEF8F
:101EF8000FF089EF0FF0880EB225D96E010EB321CD
:101F0800DA6E2E0EDF6EB24BB32B880EB225D96E69
:101F1800010EB321DA6E000EDF6E650E9E19D8A48D
:101F280098EF0FF09AEF0FF048EF0BF0000EAB6F41
:101F38004F0EAA6F880EAA25D96E010EAB21DA6E54
:101F4800000EDF6E000E9B6F000E9A6FB1BFB1EFEF
:101F58000FF0AFEF0FF0B9EF0FF0000E9B6F010E0F
:101F68009A6FB06DB11FD8B0B12B000E9D6F020EE5
:101F78009C6FEAEF0FF0AA07D8A0AB07880EAA2536
:101F8800D96E010EAB21DA6EB0C003F0B1C004F017
:101F9800000E066E0A0E056E6BEC2AF00350300F29
:101FA800DF6EB0C003F0B1C004F0000E066E0A0E7A
:101FB800056E09EC2AF003C0B0F004C0B1F00001CE
:101FC8009C07D8A09D079F07D8A0A007B051B111C2
:101FD800D8A4F1EF0FF0F3EF0FF0BFEF0FF09DBFB4
:101FE80000EF10F09D5106E19C05D8B0FEEF0FF010
:101FF80000EF10F0BFEF0FF0AA07D8A0AB079A5177
:102008009B11D8A40AEF10F00CEF10F012EF10F0AB
:10201800000E8B6F2B0E8A6F16EF10F0000E8B6F71
:102028002D0E8A6F880EAA25D96E010EAB21DA6EA5
:102038008AC0DFFF9F07D8A0A007AA07D8A0AB07D0
:10204800BF0E7B6FFF0E7C6F7A517D6F7E6B7B516D
:102058007D277C517E237E510AE11A0E7D5DD8A032
:1020680038EF10F03BEF10F0010E3CEF10F0000ECF
:102078008E6F8F6B8E518F11D8A445EF10F047EFFC
:1020880010F04DEF10F0000E8D6F650E8C6F51EF54
:1020980010F0000E8D6F450E8C6F880EAA25D96E34
:1020A800010EAB21DA6E8CC0DFFF9F07D8A0A00716
:1020B800880EB225036E010EB321046E880EAA2580
:1020C800056E010EAB21066E46EC2CF048EF0BF0C6
:1020D80012002D50800B366E2D502D24386E2CAEEC
:1020E80078EF10F07AEF10F07BEF10F0388038506E
:1020F800D8B481EF10F083EF10F098EF10F0382883
:10210800D8A489EF10F08BEF10F093EF10F0000EC9
:102118002A6E000E2B6E000E2C6E000E2D6E2C8E6D
:10212800000E2D6EA0EF10F0000E2A6E000E2B6E22
:10213800000E2C6E000E2D6E3150800B376E36500F
:102148003718D8B4AAEF10F0ACEF10F0ADEF10F0DC
:10215800368C31503124376E30AEB5EF10F0B7EF12
:1021680010F0B8EF10F037803750D8B4BEEF10F049
:10217800C0EF10F0D5EF10F03728D8A4C6EF10F054
:10218800C8EF10F0D0EF10F0000E2E6E000E2F6E7C
:10219800000E306E000E316E308E000E316EDDEFA7
:1021A80010F0000E2E6E000E2F6E000E306E000E18
:1021B800316E3850375CD8B0E4EF10F0E6EF10F02D
:1021C8000DEF11F036ACEBEF10F0EDEF10F0EFEF94
:1021D80010F0800E361A38C039F037C038F039C0E0
:1021E80037F02AC039F02EC02AF039C02EF02BC0A3
:1021F80039F02FC02BF039C02FF02CC039F030C087
:102208002CF039C030F02DC039F031C02DF039C074
:1022180031F0000E396E385037C032F0336A325E12
:10222800000E335A33BE22EF11F0335009E11A0E73
:10223800325CD8A022EF11F024EF11F05BEF11F01F
:102248002A502B102C102D10D8A42DEF11F030EFA0
:1022580011F0010E31EF11F0000E396E000E2A6EEA
:10226800000E2B6E000E2C6E000E2D6E37C038F04F
:1022780064EF11F039A043EF11F045EF11F04BEF87
:1022880011F0D89039300109396E4DEF11F0D8901E
:1022980039322AA052EF11F054EF11F055EF11F036
:1022A800398E2D342D322C322B322A32382A37509F
:1022B800385CD8A062EF11F064EF11F03EEF11F036
:1022C80036BC69EF11F06BEF11F0ABEF11F038503D
:1022D800D8A471EF11F073EF11F07DEF11F0000E3B
:1022E8002A6E000E2B6E000E2C6E000E2D6ECCEF9B
:1022F80012F02E502A262F502B2230502C223150EB
:102308002D222DA08AEF11F08CEF11F038EF12F08A
:1023180039A091EF11F093EF11F099EF11F0D890E7
:1023280039300109396E9BEF11F0D89039322AA063
:10233800A0EF11F0A2EF11F0A3EF11F0398E2D34B8
:102348002D322C322B322A32382A38EF12F02E5006
:102358002A5C2F502B5830502C582D50800A326E42
:102368003150800A3258D8B0BCEF11F0BEEF11F0EE
:10237800E9EF11F02A502E5C326E2B502F58336E35
:102388002C503058346E2D503158356EFF0E322493
:102398002A6EFF0E33202B6EFF0E34202C6EFF0E9C
:1023A80035202D6E800E361A396C3950D8A4DFEFDF
:1023B80011F0E1EF11F0F1EF11F0010E2A26000EF5
:1023C8002B222C222D22F1EF11F02E502A5E2F50B5
:1023D8002B5A30502C5A31502D5A2A502B102C1071
:1023E8002D10D8A4FAEF11F0FCEF11F031EF12F034
:1023F8003950D8A402EF12F004EF12F031EF12F0C6
:10240800000E2A6E000E2B6E000E2C6E000E2D6E26
:10241800CCEF12F0D8902A362B362C362D3639AE22
:1024280018EF12F01AEF12F01BEF12F02A8039A001
:1024380020EF12F022EF12F026EF12F0D880393692
:1024480028EF12F0D89039363850D8B42EEF12F061
:1024580030EF12F031EF12F038062CAE36EF12F0F2
:1024680038EF12F00EEF12F0000E376E39AE3FEF74
:1024780012F041EF12F059EF12F039C032F07F0E2E
:102488003216D8B44AEF12F04CEF12F050EF12F0B7
:10249800010E376E59EF12F02AA055EF12F057EFE0
:1024A80012F059EF12F04CEF12F03750D8B45FEF3A
:1024B80012F061EF12F08CEF12F0010E2A26000ED6
:1024C8002B222C222D222DA06CEF12F06EEF12F091
:1024D8008CEF12F02AC032F02BC033F02CC034F04D
:1024E8002DC035F03534353234323332323232C0E1
:1024F8002AF033C02BF034C02CF035C02DF038282A
:10250800D8B489EF12F08BEF12F08CEF12F0382A62
:102518003828D8B492EF12F094EF12F09CEF12F032
:102528003850D8A49AEF12F09CEF12F0AEEF12F0E8
:10253800000E2A6E000E2B6E000E2C6E000E2D6EF5
:102548003850D8A4AAEF12F0ACEF12F0AEEF12F0A8
:10255800000E366E38A0B3EF12F0B5EF12F0B8EFF8
:1025680012F02C8EB9EF12F02C9ED89038302D6EC8
:1025780036AEC1EF12F0C3EF12F0C4EF12F02D8E99
:102588002AC02AF02BC02BF02CC02CF02DC02DF027
:10259800120043EC2FF0000EC3EC2AF0D0EC18F038
:1025A800560E036E5D0E046E90EC2FF0F28E000E48
:1025B800236E640E226E000E256E780E246EAE0E0B
:1025C800266EFF0E276EFF0E296E2868000E2B6EF2
:1025D800000E2A6EB1EC25F001011E051F11D8A4CA
:1025E800F8EF12F0FAEF12F08AEF13F0010E03EC95
:1025F8002EF003C020F104C021F120C103F021C155
:1026080004F0000E04BEFF0E056E066E010E79EC96
:1026180020F003C011F004C012F005C013F006C08A
:1026280014F0330E156E330E166E530E176E3A0EE7
:10263800186EEEEC14F011C0D8F112C0D9F113C025
:10264800DAF114C0DBF1D8C111F0D9C112F0DAC146
:1026580013F0DBC114F0550E156E550E166E050EEF
:10266800176E420E186EEEEC14F011C014F112C081
:1026780015F113C016F114C017F1240E0101E66F0D
:10268800010EE76F000EE96F640EE86F8D0EEA6FBA
:10269800FF0EEB6F14C1ECF115C1EDF116C1EEF1AF
:1026A80017C1EFF1C6EC2EF0000E236E640E226EF9
:1026B800000E256E640E246E240E266E010E276E03
:1026C800FF0E296E2868000E2B6E000E2A6EB1ECE4
:1026D80025F014C12AF015C12BF016C12CF017C132
:1026E8002DF0000E2E6E000E2F6EB40E306E420EC0
:1026F800316E60EC27F0D8A084EF13F086EF13F06A
:1027080089EF13F0898A8AEF13F0899A01011E5123
:102718001F11D8A492EF13F094EF13F0EDEF13F01C
:10272800000E03EC2EF003C020F104C021F120C1FB
:1027380003F021C104F0000E04BEFF0E056E066E04
:10274800010E79EC20F003C011F004C012F005C0AE
:1027580013F006C014F0810E156E0C0E166EC80E1E
:10276800176E3C0E186EEEEC14F011C010F112C08A
:1027780011F113C012F114C013F1640E0101E66FD8
:10278800020EE76F000EE96F640EE86F9E0EEA6FA7
:10279800FF0EEB6F10C1ECF111C1EDF112C1EEF1BA
:1027A80013C1EFF1C6EC2EF0000E236E640E226EFC
:1027B800000E256E640E246E640E266E020E276EC1
:1027C800FF0E296E2868000E2B6E000E2A6EB1ECE3
:1027D80025F0020E01011E191F11D8A4F6EF13F0FF
:1027E800F8EF13F0F0EF12F0080E03EC2EF003C030
:1027F80020F104C021F120C103F021C104F0000E32
:1028080004BEFF0E056E066E010E79EC20F003C0C3
:1028180011F004C012F005C013F006C014F0330E16
:10282800156E330E166E530E176E3A0E186EEEECCA
:1028380014F011C0D8F112C0D9F113C0DAF114C0E4
:10284800DBF1150E2E6ED70E2F6E480E306EC60EAB
:10285800316E000E156E000E166EB40E176EC40E95
:10286800186ED8C111F0D9C112F0DAC113F0DBC16A
:1028780014F0EEEC14F011C02AF012C02BF013C0C3
:102888002CF014C02DF06DEC10F02AC042F02BC0D3
:1028980043F02CC044F02DC045F0D60E2E6ED10E5C
:1028A8002F6E0E0E306EC10E316ED8C12AF0D9C10E
:1028B8002BF0DAC12CF0DBC12DF06DEC10F02AC042
:1028C80046F02BC047F02CC048F02DC049F003EC6F
:1028D80017F042C00CF143C00DF144C00EF145C0E1
:1028E8000FF10CC13EF00DC13FF00EC140F00FC119
:1028F80041F0000E3A6E4C0E3B6E8A0E3C6E450E51
:102908003D6E3CEC2DF03AC042F03BC043F03CC079
:1029180044F03DC045F09A0E466E990E476EAA0ED9
:10292800486E420E496E03EC17F042C008F143C0EE
:1029380009F144C00AF145C00BF1000E0101E66F30
:10294800020EE76F000EE96F640EE86F770EEA6F0C
:10295800FF0EEB6F08C1ECF109C1EDF10AC1EEF110
:102968000BC1EFF1C6EC2EF0000E236E640E226E42
:10297800000E256E640E246E000E266E020E276E63
:10298800FF0E296E2868000E2B6E000E2A6EB1EC21
:1029980025F008C12AF009C12BF00AC12CF00BC19F
:1029A8002DF0000E2E6E000E2F6E0C0E306E420EA5
:1029B800316E60EC27F0D8A0E4EF14F0E6EF14F0E5
:1029C800E9EF14F0898CF0EF12F0899CF0EF12F027
:1029D8001FEF00F01450800B1D6E14501424236E4A
:1029E80013AEF9EF14F0FBEF14F0FCEF14F02380B2
:1029F8002350D8B402EF15F004EF15F017EF15F0D7
:102A08002328D8A40AEF15F00CEF15F014EF15F0F1
:102A1800000E116E000E126E000E136E000E146E74
:102A2800138E1FEF15F0000E116E000E126E000EC1
:102A3800136E000E146E1850800B1D1A18501824AF
:102A48001E6E17AE2AEF15F02CEF15F02DEF15F0CE
:102A58001E801E50D8B433EF15F035EF15F048EF4F
:102A680015F01E28D8A43BEF15F03DEF15F045EF03
:102A780015F0000E156E000E166E000E176E000E85
:102A8800186E178E50EF15F0000E156E000E166EAC
:102A9800000E176E000E186E1E50D8B456EF15F0C3
:102AA80058EF15F060EF15F02350D8A45EEF15F03D
:102AB80060EF15F06AEF15F0000E116E000E126E41
:102AC800000E136E000E146E02EF17F0175011026D
:102AD800F3CF28F0F4CF29F028501F6E206A216A1E
:102AE800226A2950246E256A266A276A165012021D
:102AF800F3CF28F0F4CF29F028501F26000E20220B
:102B08002122222229502426000E2522262227228D
:102B180015501302F3CF28F0F4CF29F028501F26C0
:102B2800000E20222122222229502426000E2522AE
:102B38002622272221C022F020C021F01FC020F029
:102B48001F6A15501202F3CF28F0F4CF29F028504D
:102B58001F2629502022000E2122000E2222165064
:102B68001102F3CF28F0F4CF29F028501F2629505E
:102B78002022000E2122000E222221C022F020C095
:102B880021F01FC020F01F6A15501102F3CF28F062
:102B9800F4CF29F028501F2629502022000E212288
:102BA800000E222217501202F3CF28F0F4CF29F09A
:102BB8002850242629502522000E2622000E2722DE
:102BC80016501302F3CF28F0F4CF29F0285024260A
:102BD80029502522000E2622000E27221750130204
:102BE800F3CF28F0F4CF29F02850196E29501A6E27
:102BF8001B6A1C6A1BC01CF01AC01BF019C01AF013
:102C0800196A195024261A5025221B5026221C50B6
:102C180027221FC019F020C01AF021C01BF022C0C3
:102C28001CF0190E1DEF16F0D8901C321B321A3208
:102C38001932E82E18EF16F0195024261A502522BA
:102C48001B5026221C50272221C022F020C021F030
:102C58001FC020F01F6A1E5023C019F01A6A1926D7
:102C6800000E1A22820E1924286EFF0E1A20296ED1
:102C780053EF16F0D890243625362636273622AE5E
:102C880048EF16F04AEF16F04BEF16F02480D89074
:102C98001F362036213622362806D8A0290626AE29
:102CA80058EF16F05AEF16F03EEF16F0000E1E6EB3
:102CB80022AE61EF16F063EF16F087EF16F0FF0E05
:102CC8001F14196EFF0E20141A6EFF0E21141B6EAE
:102CD8007F0E22141C6E19501A101B101C10D8B429
:102CE80078EF16F07AEF16F07EEF16F0010E1E6EF2
:102CF80087EF16F024A083EF16F085EF16F087EF24
:102D080016F07AEF16F01E50D8B48DEF16F08FEF4C
:102D180016F0B3EF16F0010E2426000E2522262207
:102D2800272227A09AEF16F09CEF16F0B3EF16F0C3
:102D380024C019F025C01AF026C01BF027C01CF0CB
:102D48001C341C321B321A32193219C024F01AC032
:102D580025F01BC026F01CC027F0284A292A29BEC6
:102D6800BEEF16F0295008E12828D8A0BEEF16F0CB
:102D7800C0EF16F0CAEF16F0000E246E000E256E96
:102D8800800E266E7F0E276EF8EF16F029BED7EF5D
:102D980016F0295006E12804D8B0D5EF16F0D7EF81
:102DA80016F0E3EF16F0000E246E000E256E000EEE
:102DB800266E000E276E000E1D6EF8EF16F028C066
:102DC80023F0FF0E2416FF0E25167F0E2616000E82
:102DD800271623A0F2EF16F0F4EF16F0F5EF16F031
:102DE800268ED8902330276E1D50271224C011F04C
:102DF80025C012F026C013F027C014F01200455069
:102E0800800B526E45504524596E44AE0EEF17F0B4
:102E180010EF17F011EF17F059805950D8B417EF89
:102E280017F019EF17F02EEF17F05928D8A41FEF55
:102E380017F021EF17F029EF17F0000E426E000E81
:102E4800436E000E446E000E456E448E000E456EB5
:102E580036EF17F0000E426E000E436E000E446E01
:102E6800000E456E4950800B521A495049245A6E3B
:102E780048AE41EF17F043EF17F044EF17F05A80D0
:102E88005A50D8B44AEF17F04CEF17F061EF17F02B
:102E98005A28D8A452EF17F054EF17F05CEF17F048
:102EA800000E466E000E476E000E486E000E496E0C
:102EB800488E000E496E69EF17F0000E466E000E40
:102EC800476E000E486E000E496E46504710481077
:102ED8004910D8A472EF17F074EF17F08CEF17F0C1
:102EE800000E426E000E436E000E446E000E456EDC
:102EF800800E44127F0E45125250451242C042F0D5
:102F080043C043F044C044F045C045F0CFEF18F04B
:102F18005950D8A492EF17F094EF17F09EEF17F0DE
:102F2800000E426E000E436E000E446E000E456E9B
:102F3800CFEF18F05A5059C04AF04B6A4A5E000E5B
:102F48004B5A7F0E4A24536E000E4B20546E42C0DB
:102F58004EF043C04FF044C050F045C051F0000E51
:102F6800426E000E436E000E446E000E456E000E5B
:102F7800556E000E566E000E576E000E586E000EFF
:102F88005A6EFFEF17F05A50D8B4CDEF17F0CFEFC5
:102F980017F0E6EF17F0D8904E364F3650365136C8
:102FA800D890423643364436453658AEDEEF17F0F1
:102FB800E0EF17F0E1EF17F04280D890553656361B
:102FC8005736583646504E5C47504F584850505820
:102FD80049505158D8A0F3EF17F0F5EF17F0FEEF6E
:102FE80017F0588C46504E5E47504F5A4850505A2A
:102FF8004950515A5A2A190E5A6405EF18F007EF2A
:1030080018F0C7EF17F04E504F1050105110D8B4A9
:1030180010EF18F012EF18F02AEF18F055802AEF89
:1030280018F0D890423643364436453658AE1FEF2E
:1030380018F021EF18F022EF18F04280D89055369A
:103048005636573658365306D8A0540644AE2FEF96
:1030580018F031EF18F015EF18F0000E5A6E58AE50
:1030680038EF18F03AEF18F05EEF18F0FF0E55142D
:103078004A6EFF0E56144B6EFF0E57144C6E7F0EA1
:1030880058144D6E4A504B104C104D10D8B44FEF99
:1030980018F051EF18F055EF18F0010E5A6E5EEF68
:1030A80018F042A05AEF18F05CEF18F05EEF18F035
:1030B80051EF18F05A50D8B464EF18F066EF18F0D2
:1030C8008AEF18F0010E4226000E432244224522C0
:1030D80045A071EF18F073EF18F08AEF18F042C0AE
:1030E8004AF043C04BF044C04CF045C04DF04D345D
:1030F8004D324C324B324A324AC042F04BC043F058
:103108004CC044F04DC045F0534A542A54BE95EF84
:1031180018F0545008E15328D8A095EF18F097EF0D
:1031280018F0A2EF18F0000E546E5368000E426EAD
:10313800000E436E000E446E000E456E54BEAFEF97
:1031480018F0545006E15304D8B0ADEF18F0AFEFC3
:1031580018F0BDEF18F0000E546E000E536E000EFE
:10316800426E000E436E000E446E000E456E000E59
:10317800526E53C059F059A0C4EF18F0C6EF18F0BA
:10318800C9EF18F0448ECAEF18F0449ED890593011
:10319800456E80EF17F01200010E046E000E50EC21
:1031A8002FF0960EDFEC2EF0EF0E046E000E50ECB2
:1031B8002FF0030E046E010E50EC2FF0800E046EFB
:1031C800010E50EC2FF0020E046E010E50EC2FF0A1
:1031D800CF0E046E000E50EC2FF0000E046E010EA0
:1031E80050EC2FF0C10E046E010E50EC2FF0300E93
:1031F800046E010E50EC2FF0ED0E046E000E50EC34
:103208002FF0640E046E010E50EC2FF0030E046EC6
:10321800010E50EC2FF0120E046E010E50EC2FF040
:10322800810E046E010E50EC2FF0E80E046E000EB5
:1032380050EC2FF0850E046E010E50EC2FF0000EAE
:10324800046E010E50EC2FF0780E046E010E50EC57
:103258002FF0CB0E046E000E50EC2FF0390E046EDA
:10326800010E50EC2FF02C0E046E010E50EC2FF0D6
:10327800000E046E010E50EC2FF0340E046E010E99
:1032880050EC2FF0020E046E010E50EC2FF0F70EEA
:10329800046E000E50EC2FF0200E046E010E50EC60
:1032A8002FF0EA0E046E000E50EC2FF0000E046EA4
:1032B800010E50EC2FF0000E046E010E50EC2FF0B2
:1032C800C00E046E000E50EC2FF0230E046E010E9B
:1032D80050EC2FF0C10E046E000E50EC2FF0100EC3
:1032E800046E010E50EC2FF0C50E046E000E50EC6B
:1032F8002FF03E0E046E010E50EC2FF0280E046ED7
:10330800010E50EC2FF0C70E046E000E50EC2FF09B
:10331800860E046E010E50EC2FF0360E046E000E71
:1033280050EC2FF0480E046E010E50EC2FF03A0EC0
:10333800046E000E50EC2FF0550E046E010E50EC8A
:103348002FF0B10E046E000E50EC2FF0000E046E3C
:10335800010E50EC2FF0180E046E010E50EC2FF0F9
:10336800B60E046E000E50EC2FF0080E046E010E1F
:1033780050EC2FF0820E046E010E50EC2FF0270E49
:10338800046E010E50EC2FF0F20E046E000E50EC9D
:103398002FF0000E046E010E50EC2FF0260E046E76
:1033A800000E50EC2FF0010E046E010E50EC2FF0C1
:1033B800E00E046E000E50EC2FF00F0E046E010E9E
:1033C80050EC2FF0310E046E010E50EC2FF02B0E46
:1033D800046E010E50EC2FF00C0E046E010E50EC32
:1033E8002FF00E0E046E010E50EC2FF0080E046E36
:1033F800010E50EC2FF04E0E046E010E50EC2FF023
:10340800F10E046E010E50EC2FF0370E046E010E13
:1034180050EC2FF0070E046E010E50EC2FF0100E3A
:10342800046E010E50EC2FF0030E046E010E50ECEA
:103438002FF00E0E046E010E50EC2FF0090E046EE4
:10344800010E50EC2FF0000E046E010E50EC2FF020
:10345800E10E046E000E50EC2FF0000E046E010E0B
:1034680050EC2FF00E0E046E010E50EC2FF0140EDF
:10347800046E010E50EC2FF0030E046E010E50EC9A
:103488002FF0110E046E010E50EC2FF0070E046E93
:10349800010E50EC2FF0310E046E010E50EC2FF09F
:1034A800C10E046E010E50EC2FF0480E046E010E92
:1034B80050EC2FF0080E046E010E50EC2FF00F0E9A
:1034C800046E010E50EC2FF00C0E046E010E50EC41
:1034D8002FF0310E046E010E50EC2FF0360E046EF4
:1034E800010E50EC2FF00F0E046E010E50EC2FF071
:1034F800110E046E000E50EC2FF0780EDFEC2EF05B
:10350800290E046E000E50EC2FF0780EDFEC2EF032
:10351800000E0D6E000E0C6E70EC2BF0120020C029
:1035280038F021C039F022C03AF023C03BF024C063
:103538003CF025C03DF026C03EF027C03FF03FBE1E
:10354800A8EF1AF0ABEF1AF0010EACEF1AF0000E6C
:10355800366E376A36503710D8B4B5EF1AF0B7EF71
:103568001AF0C7EF1AF03F1E3E1E3D1E3C1E3B1EC2
:103578003A1E391E386C000E39223A223B223C2270
:103588003D223E223F225CBECCEF1AF0CEEF1AF06D
:10359800D0EF1AF00001FC935CBEDDEF1AF05C502E
:1035A80006E15B04D8B0DBEF1AF0DDEF1AF0E3EFC9
:1035B8001AF0000E336E010E326EE7EF1AF05BC0A0
:1035C80032F05CC033F0FAC034F0FBC035F036504E
:1035D8003710D8A4F2EF1AF0F4EF1AF0FCEF1AF053
:1035E8000001FCA5FAEF1AF0FCEF1AF0FFEF1AF051
:1035F8003406D8A03506000E416E4F0E406E000E00
:103608000101D76F84EF1BF04006D8A04106880E51
:103618004024D96E010E4120DA6E38C003F039C05B
:1036280004F03AC005F03BC006F03CC007F03DC0CE
:1036380008F03EC009F03FC00AF00A0E0B6E000EFB
:103648000C6E000E0D6E000E0E6E000E0F6E000E4C
:10365800106E000E116E000E126E64EC24F003C0A2
:1036680028F004C029F005C02AF006C02BF007C0D6
:103678002CF008C02DF009C02EF00AC02FF028C089
:1036880015F02AC016F0C5EC2DF01550300FDF6E7E
:103698003206D8A033063406D8A0350638C003F061
:1036A80039C004F03AC005F03BC006F03CC007F052
:1036B8003DC008F03EC009F03FC00AF00A0E0B6E8C
:1036C800000E0C6E000E0D6E000E0E6E000E0F6ECC
:1036D800000E106E000E116E000E126E20EC22F01D
:1036E80003C038F004C039F005C03AF006C03BF01A
:1036F80007C03CF008C03DF009C03EF00AC03FF0EA
:1037080041BE8FEF1BF0415008E14004D8A08FEF75
:103718001BF091EF1BF0C2EF1BF0385039103A1034
:103728003B103C103D103E103F10D8A49EEF1BF0FC
:10373800A0EF1BF008EF1BF033BEADEF1BF03350CA
:1037480006E13204D8B0ABEF1BF0ADEF1BF008EF89
:103758001BF035BEB8EF1BF0355008E13404D8A093
:10376800B8EF1BF0BAEF1BF0C2EF1BF00001FCB37F
:10377800C0EF1BF0C2EF1BF008EF1BF036503710FC
:10378800D8A4C9EF1BF0CBEF1BF0D3EF1BF000015F
:10379800FCA5D1EF1BF0D3EF1BF0F1EF1BF04006B7
:1037A800D8A0410636503710D8A4DDEF1BF0DFEF64
:1037B8001BF0E5EF1BF0000E316E2B0E306EE9EFBB
:1037C8001BF0000E316E2D0E306E880E4024D96E1F
:1037D800010E4120DA6E30C0DFFF1EC013F01FC09B
:1037E80014F0880E4024156E010E4120166E34C068
:1037F80017F035C018F0A6EC29F013C01EF014C05D
:103808001FF012005CBE0BEF1CF00DEF1CF00FEF69
:103818001CF00001FC935CBE1CEF1CF05C5006E140
:103828005B04D8B01AEF1CF01CEF1CF022EF1CF060
:10383800000E366E010E356E26EF1CF05BC035F0BB
:103848005CC036F0FAC037F0FBC038F00001FCA9C4
:1038580030EF1CF032EF1CF036EF1CF0FE0E37266E
:10386800FF0E382220C039F021C03AF022C03BF0C8
:1038780023C03CF024C03DF025C03EF026C03FF0F8
:1038880027C040F0000E426E4F0E416E000E01013F
:10389800D76F02EF1DF04106D8A042060F0E39146B
:1038A800436E446A44BE62EF1CF0445009E10A0EBC
:1038B800435CD8A062EF1CF064EF1CF06CEF1CF0C6
:1038C800570E4324436E000E4420446E72EF1CF0E2
:1038D800300E4324436E000E4420446EBF0E296E02
:1038E800FF0E2A6E28502B6E2C6A29502B262A5040
:1038F8002C222C500AE11A0E2B5CD8A086EF1CF063
:1039080089EF1CF0010E8AEF1CF0000E316E326A4E
:1039180031503210D8B493EF1CF095EF1CF0C5EF7E
:103928001CF09F0E296EFF0E2A6E200E43102B6E80
:10393800000E44102C6E29502B262A502C222C5075
:103948000AE11A0E2B5CD8A0ACEF1CF0AFEF1CF00C
:10395800010EB0EF1CF0000E336E346A3350341091
:10396800D8B4B9EF1CF0BBEF1CF0C5EF1CF043C096
:1039780009F044C00AF017EC2CF009C043F00AC063
:1039880044F0880E4124D96E010E4220DA6E43C0FD
:10399800DFFF3506D8A036063706D8A0380639C066
:1039A80029F03AC02AF03BC02BF03CC02CF03DC0B7
:1039B8002DF03EC02EF03FC02FF040C030F0050E75
:1039C800EFEF1CF0D89030322F322E322D322C32BD
:1039D8002B322A322932E82EE6EF1CF029C039F0C2
:1039E8002AC03AF02BC03BF02CC03CF02DC03DF073
:1039F8002EC03EF02FC03FF030C040F042BE0EEF68
:103A08001DF0425009E1020E415CD8A00EEF1DF0F6
:103A180010EF1DF041EF1DF039503A103B103C10EB
:103A28003D103E103F104010D8A41DEF1DF01FEFB1
:103A38001DF04FEF1CF036BE2CEF1DF0365006E19E
:103A48003504D8B02AEF1DF02CEF1DF04FEF1CF015
:103A580038BE37EF1DF0385008E13704D8A037EFEB
:103A68001DF039EF1DF041EF1DF00001FCB33FEFF1
:103A78001DF041EF1DF04FEF1CF00001FCA947EFCE
:103A88001DF049EF1DF05FEF1DF04106D8A042067A
:103A9800880E4124D96E010E4220DA6E28C0DFFF5D
:103AA8004106D8A04206880E4124D96E010E422054
:103AB800DA6E300EDF6E1EC013F01FC014F0880ED1
:103AC8004124156E010E4220166E37C017F038C01B
:103AD80018F0A6EC29F013C01EF014C01FF0120055
:103AE80000C170F001C171F002C172F003C173F03E
:103AF80060C070F061C071F062C072F063C073F0B2
:103B0800810E0001646FFF0E656F70C066F071C0B2
:103B180067F072C068F073C069F0180E99EF1DF075
:103B2800D8906933683367336633E82E94EF1DF015
:103B3800665164256E6F000E65216F6F6FBFAEEF23
:103B48001DF06F5109E1170E6E5DD8A0AEEF1DF0A4
:103B5800B0EF1DF0BAEF1DF060C060F061C061F019
:103B680062C062F063C063F07EEF1EF06FBFBFEF0C
:103B78001DF0C1EF1DF032EF1EF06EC064F0FF0EB5
:103B8800656FFF0E666F7F0E676F000E686F646764
:103B9800D0EF1DF0D8EF1DF0683568336733663312
:103BA8006533642FCBEF1DF065C06AF066C06BF01B
:103BB80067C06CF068C06DF000016A517015646FE1
:103BC8006B517115656F6C517215666F6D51731578
:103BD800676F6451651166116711D8A4F6EF1DF07F
:103BE800F8EF1DF0FAEF1DF0B0EF1DF070C064F0B3
:103BF80071C065F072C066F073C067F0200E0AEFFE
:103C08001EF0D8906733663365336433E82E05EFCA
:103C18001EF06451651166116711D8B416EF1EF0D5
:103C280018EF1EF020EF1EF06A5170276B517123B8
:103C38006C5172236D5173236A1D646F6B1D656F20
:103C48006C1D666F6D1D676F645170176551711734
:103C5800665172176751731776EF1EF070C064F0E3
:103C680071C065F072C066F073C067F0200E42EF55
:103C78001EF0D8906733663365336433E82E3DEF22
:103C88001EF06451651166116711D8A44EEF1EF03D
:103C980050EF1EF05AEF1EF0000E706F000E716F9D
:103CA800000E726F000E736F76EF1EF0D8907035AD
:103CB800646F7135656F7235666F7335676F645100
:103CC800651166116711D8B46CEF1EF06EEF1EF027
:103CD80076EF1EF0000E706F000E716F800E726F1F
:103CE800BF0E736F70C060F071C061F072C062F097
:103CF80073C063F012005CBE84EF1EF086EF1EF006
:103D080088EF1EF00001FC935CBE95EF1EF05C503E
:103D180006E15B04D8B093EF1EF095EF1EF09BEF21
:103D28001EF0000E316E010E306E9FEF1EF05BC06C
:103D380030F05CC031F0FAC032F0FBC033F020C084
:103D480034F021C035F022C036F023C037F024C04B
:103D580038F025C039F026C03AF027C03BF0000EF5
:103D68003D6E4F0E3C6E000E0101D76F32EF1FF013
:103D78003C06D8A03D06880E3C24D96E010E3D2095
:103D8800DA6E34C003F035C004F036C005F037C031
:103D980006F038C007F039C008F03AC009F03BC057
:103DA8000AF00A0E0B6E000E0C6E000E0D6E000E61
:103DB8000E6E000E0F6E000E106E000E116E000ECD
:103DC800126ED9EC28F003C028F004C029F005C011
:103DD8002AF006C02BF007C02CF008C02DF009C04F
:103DE8002EF00AC02FF02850300FDF6E3006D8A012
:103DF80031063206D8A0330634C003F035C004F0CB
:103E080036C005F037C006F038C007F039C008F0F2
:103E18003AC009F03BC00AF00A0E0B6E000E0C6E99
:103E2800000E0D6E000E0E6E000E0F6E000E106E60
:103E3800000E116E000E126E61EC28F003C034F013
:103E480004C035F005C036F006C037F007C038F0BA
:103E580008C039F009C03AF00AC03BF03C503D10A8
:103E6800D8B439EF1FF03BEF1FF06CEF1FF0345060
:103E7800351036103710381039103A103B10D8A4C6
:103E880048EF1FF04AEF1FF0BCEF1EF031BE57EFAE
:103E98001FF0315006E13004D8B055EF1FF057EF4E
:103EA8001FF0BCEF1EF033BE62EF1FF0335008E185
:103EB8003204D8A062EF1FF064EF1FF06CEF1FF020
:103EC8000001FCB36AEF1FF06CEF1FF0BCEF1EF0AF
:103ED8001EC013F01FC014F0880E3C24156E010E8E
:103EE8003D20166E32C017F033C018F0A6EC29F04A
:103EF80013C01EF014C01FF012005CBE86EF1FF046
:103F080088EF1FF08AEF1FF00001FC935CBE97EF6B
:103F18001FF05C5006E15B04D8B095EF1FF097EFF7
:103F28001FF09DEF1FF0000E316E010E306EA1EFF5
:103F38001FF05BC030F05CC031F0FAC034F0FBC059
:103F480035F020C036F021C037F022C038F023C049
:103F580039F024C03AF025C03BF026C03CF027C019
:103F68003DF0000E3F6E4F0E3E6E000E0101D76F02
:103F7800000E336E000E326E07EF20F03E06D8A01A
:103F88003F06070E3614326E336A880E3E24D96E09
:103F9800010E3F20DA6E3250300FDF6E3006D8A0A7
:103FA80031063406D8A0350636C028F037C029F0C7
:103FB80038C02AF039C02BF03AC02CF03BC02DF0A5
:103FC8003CC02EF03DC02FF0040EF4EF1FF0D89047
:103FD8002F322E322D322C322B322A3229322832ED
:103FE800E82EEBEF1FF028C036F029C037F02AC0C2
:103FF80038F02BC039F02CC03AF02DC03BF02EC061
:104008003CF02FC03DF03FBE12EF20F03F5008E1DA
:104018003E04D8A012EF20F014EF20F045EF20F076
:1040280036503710381039103A103B103C103D10FC
:10403800D8A421EF20F023EF20F0C2EF1FF031BE0B
:1040480030EF20F0315006E13004D8B02EEF20F0E8
:1040580030EF20F0C2EF1FF035BE3BEF20F03550B7
:1040680008E13404D8A03BEF20F03DEF20F045EF05
:1040780020F00001FCB343EF20F045EF20F0C2EF41
:104088001FF00001FCA94BEF20F04DEF20F064EF8A
:1040980020F032503310D8B454EF20F056EF20F00F
:1040A80064EF20F03E06D8A03F06880E3E24D96E65
:1040B800010E3F20DA6E300EDF6E3406D8A03506CA
:1040C8001EC013F01FC014F0880E3E24156E010E9A
:1040D8003F20166E34C017F035C018F0A6EC29F052
:1040E80013C01EF014C01FF012000B6E0B50D8B492
:1040F80080EF20F082EF20F0A4EF20F006BE89EFD9
:1041080020F087EF20F0A4EF20F003C007F004C0F0
:1041180008F005C009F006C00AF0071E081E091EAF
:104128000A1E072A000E082209220A2207C00DF0DB
:1041380008C00EF009C00FF00AC010F0ACEF20F074
:1041480003C00DF004C00EF005C00FF006C010F05B
:104158000350041005100610D8A4B5EF20F0B7EFEF
:1041680020F0C1EF20F0000E036E000E046E000E6A
:10417800056E000E066E52EF21F0960E0C6ECBEF18
:1041880020F00C2AD89010320F320E320D32000E69
:104198000D14076E000E0E14086E000E0F14096E33
:1041A800FE0E10140A6E0750081009100A10D8A441
:1041B800E0EF20F0E2EF20F0C5EF20F0F0EF20F084
:1041C8000C2A010E0D26000E0E220F221022D89066
:1041D80010320F320E320D32000E0D14076E000E23
:1041E8000E14086E000E0F14096EFF0E10140A6EDE
:1041F8000750081009100A10D8A405EF21F007EF9E
:1042080021F0E4EF20F00FEF21F00C06D8900D36E6
:104218000E360F3610360FBE14EF21F016EF21F0D0
:104228001EEF21F0020E0C601CEF21F01EEF21F0B2
:1042380009EF21F00CB023EF21F025EF21F026EF54
:1042480021F00F9ED8900C320CC007F0086A096A5A
:104258000A6A07C00AF0096A086A076A07500D1255
:1042680008500E1209500F120A5010120B50D8B4F1
:1042780040EF21F042EF21F04AEF21F006BE49EF6E
:1042880021F047EF21F04AEF21F0108E0DC003F026
:104298000EC004F00FC005F010C006F01200000EAA
:1042A800186E000E176E000E116E000E106E5FEF86
:1042B80021F00A4A0B2A010E166E0AC0F6FF0BC03F
:1042C800F7FFF86A0800F550200AD8B46EEF21F01D
:1042D80070EF21F08EEF21F0F70E0C6EFF0E0D6ED1
:1042E8000AC0F6FF0BC0F7FFF86A0800F5500E6E1B
:1042F8000F6A0C500E260D500F220F5009E1050EC3
:104308000E5CD8A08AEF21F08CEF21F08EEF21F01F
:10431800000E166E16C012F0136A12501310D8A4AD
:1043280098EF21F09AEF21F05DEF21F0A4EF21F052
:10433800000E116E010E106E0A4A0B2ADBEF21F0F7
:104348000AC0F6FF0BC0F7FFF86A0800F5500C6EBC
:104358000D6A0D50000AD8B4B4EF21F0DBEF21F05C
:104368000C502B0AD8B4A0EF21F0060AD8B49CEF61
:1043780021F0DBEF21F017C003F018C004F0000EA5
:10438800066E0A0E056E23EC2FF00AC0F6FF0BC06E
:10439800F7FFF86A0800F550035E000E045A300E65
:1043A8000324176E000E0420186EA0EF21F0D00E23
:1043B8000C6EFF0E0D6E0AC0F6FF0BC0F7FFF86A11
:1043C8000800F5500E6E0F6A0C500E260D500F2285
:1043D8000F500AE10A0E0E5CD8A0F5EF21F0F8EFB5
:1043E80021F0010EF9EF21F0000E146E156A145039
:1043F8001510D8A402EF22F004EF22F0BFEF21F04D
:1044080010501110D8A40BEF22F00DEF22F01BEF83
:1044180022F017C00CF018C00DF00C1E0D1E0C4A2F
:104428000D2A0CC00AF00DC00BF01FEF22F017C0C8
:104438000AF018C00BF01200000E146E12BE29EF1D
:1044480022F027EF22F03BEF22F0121E111E101E61
:104458000F1E0E1E0D1E0C1E0B6C000E0C220D22C4
:104468000E220F22102211221222010E146E0ABEF1
:1044780042EF22F040EF22F054EF22F00A1E091E0C
:10448800081E071E061E051E041E036C000E0422CD
:10449800052206220722082209220A22010E141ADE
:1044A80020EE15F0070EDE6AE806FDE20B500C1050
:1044B8000D100E100F10101011101210D8B467EF55
:1044C80022F069EF22F0BBEF22F0010E136E77EFB6
:1044D80022F0D8900B360C360D360E360F361036C5
:1044E80011361236132A12AE7CEF22F07EEF22F03C
:1044F8006DEF22F0D890153616361736183619365D
:104508001A361B361C360B50035C0C5004580D50E1
:1045180005580E5006580F5007581050085811509B
:10452800095812500A58D8A09CEF22F09EEF22F0AA
:10453800AFEF22F00B50035E0C50045A0D50055A91
:104548000E50065A0F50075A1050085A1150095A5F
:1045580012500A5A1580D8901232113210320F3286
:104568000E320D320C320B32132E7EEF22F0145025
:10457800D8B4C1EF22F0C3EF22F0D3EF22F01C1E13
:104588001B1E1A1E191E181E171E161E156C000E4D
:1045980016221722182219221A221B221C2215C0A1
:1045A80003F016C004F017C005F018C006F019C0D3
:1045B80007F01AC008F01BC009F01CC00AF012006E
:1045C80021EEF4F010EE11F0060EDBCFE3FFE80663
:1045D800FCE20EC01CF00FC01DF01C501D10D8A42A
:1045E800F8EF22F0FAEF22F0FEEF22F0110E1C6E27
:1045F800000E1D6E1CC003F01DC004F090EC2EF0E0
:1046080003C020F004C021F05BC01EF05CC01FF0A6
:104618001FBE11EF23F013EF23F028EF23F02050F3
:104628001E5C1F50800A106E2150800A1058D8A0B6
:1046380020EF23F022EF23F024EF23F028EF23F0DC
:104648001EC020F01FC021F020C01EF021C01FF0A6
:10465800FAC01AF0FBC01BF00001FCB136EF23F0E2
:1046680038EF23F055EF23F046EF23F0000E046EE9
:10467800200E036E0CC005F00DC006F041EC29F0C9
:10468800204A212A1A50205C2150800A106E1B50A3
:10469800800A1058D8A053EF23F055EF23F03AEFD3
:1046A80023F0000E196E000E186E6EEF23F01CC07A
:1046B800D9FF1DC0DAFFDF50106E1050036E046A78
:1046C8000CC005F00DC006F041EC29F01C4A1D2A6B
:1046D800184A192A1E50185C1950800A106E1F506B
:1046E800800A1058D8A07BEF23F07DEF23F05BEF12
:1046F80023F00001FCA183EF23F085EF23F0A2EF64
:1047080023F093EF23F0000E046E200E036E0CC00E
:1047180005F00DC006F041EC29F0204A212A1A5074
:10472800205C2150800A106E1B50800A1058D8A0B7
:10473800A0EF23F0A2EF23F087EF23F020C00CF0C6
:1047480021C00DF01200000E1F6E47EF24F0D89024
:104758001034F66E1134F76EA70EF626F10EF72216
:10476800F86A000EF8220900F5CF16F00900F5CF17
:1047780017F01F50165E000E175A0C501624086EBC
:104788000D501720096E0EC00AF00FC00BF0A4ECF4
:104798002DF0000E206E000E216E1F50166E176A47
:1047A800D89016361736D8901034F66E1134F76E46
:1047B800A70EF626F10EF722F86A000EF822090075
:1047C800F5CF18F00900F5CF19F0D890183619363A
:1047D8001650185E1750195A2050185E000E195AB4
:1047E8001050182611501922D89018361936A70ECD
:1047F8001824F66EF10E1920F76EF86A000EF822EA
:104808000900F5CF1AF00900F5CF1BF021C01CF004
:10481800800E1D6E000E1E6E1C2A16EF24F01E342C
:104828001E321D321C2E13EF24F01A501D161B5079
:104838001E161D501E10D8B424EF24F026EF24F0C5
:104848002EEF24F012C006F013C007F068EC2FF02A
:1048580034EF24F014C006F015C007F068EC2FF010
:10486800212A070E21643BEF24F03DEF24F0D1EF1D
:1048780023F0202A010E206444EF24F046EF24F0B0
:10488800CFEF23F01F2AD8901034F66E1134F76E4C
:10489800A70EF626F10EF722F86A000EF8221F502E
:1048A800166E176A0900F550165C0900F55017587E
:1048B800D8A061EF24F063EF24F0ABEF23F01200EF
:1048C800000E146E0ABE6DEF24F06BEF24F07FEF3C
:1048D80024F00A1E091E081E071E061E051E041EB9
:1048E800036C000E04220522062207220822092250
:1048F8000A22010E146E12BE86EF24F084EF24F013
:1049080096EF24F0121E111E101E0F1E0E1E0D1EF5
:104918000C1E0B6C000E0C220D220E220F221022F0
:10492800112212220B500C100D100E100F10101027
:1049380011101210D8B4A3EF24F0A5EF24F0EDEF76
:1049480024F0010E136EB3EF24F0D8900B360C361A
:104958000D360E360F36103611361236132A12AEB1
:10496800B8EF24F0BAEF24F0A9EF24F00B50035C61
:104978000C5004580D5005580E5006580F50075843
:10498800105008581150095812500A58D8A0CFEFA3
:1049980024F0D1EF24F0E1EF24F00B50035E0C502B
:1049A800045A0D50055A0E50065A0F50075A105007
:1049B800085A1150095A12500A5AD8901232113214
:1049C80010320F320E320D320C320B32132EBAEF78
:1049D80024F01450D8B4F3EF24F0F5EF24F005EFE9
:1049E80025F00A1E091E081E071E061E051E041EA7
:1049F800036C000E0422052206220722082209223F
:104A08000A2203C003F004C004F005C005F006C084
:104A180006F007C007F008C008F009C009F00AC08E
:104A28000AF01200800E0001F15DD8A01EEF25F0FB
:104A380020EF25F02AEF25F0000E0101196F4B0E2B
:104A4800186F0001EE69EF69B0EF25F0EEC0E0F1F4
:104A5800EFC0E1F1F15109E1020EF05DD8A037EFA6
:104A680025F039EF25F048EF25F0FF0EF02501017C
:104A7800E46FFF0E0001F1210101E56F000EE36F05
:104A8800000EE26F51EF25F0000E0101E56F010EF7
:104A9800E46F000EE36F010EE26FE00E0001E66FB7
:104AA800010EE76FF2C0E8F0F3C0E9F0F4C0EAF0F5
:104AB800F5C0EBF0B1EC2BF0E6C0DEF1E7C0DFF1BA
:104AC8000001F051F111D8B46CEF25F06EEF25F02C
:104AD800ACEF25F00101DFBF74EF25F076EF25F08C
:104AE800ACEF25F0FF0E0001F66FFF0EF76FF0C078
:104AF800F8F0F1C0F9F0F651F827F751F923F85119
:104B08000101DE5D0001F9510101DF59D8A08FEFE5
:104B180025F091EF25F09DEF25F0FF0E0001F0251F
:104B28000101DC6FFF0E0001F1210101DD6FA1EF32
:104B380025F0DEC1DCF1DFC1DDF1DC510001EE253D
:104B4800D96E0101DD510001EF21DA6E000EDF6E32
:104B5800DEC1EEF0DFC1EFF0120030EF26F0000EFC
:104B6800336E000E326E000E316E000E306EDCEFCA
:104B780025F0D8903234F66E3334F76EA70EF62649
:104B8800F10EF722F86A000EF8220900F5CF2CF092
:104B98000900F5CF2DF0D8902C362D36010E2C2695
:104BA800000E2D222C5032262D503322304A312A25
:104BB800E00E2C6EFF0E2D6E26C0F6FF27C0F7FF05
:104BC800000EF86E0E0EF76403D00800F55005D0FD
:104BD800F6CFE1FFF7CFE2FFE7502E6E2F6A2C5099
:104BE8002E262D502F222E50305C2F503158D8A011
:104BF80000EF26F002EF26F0BDEF25F022C00CF002
:104C080023C00DF024C00EF025C00FF032C010F004
:104C180033C011F028C012F029C013F02AC014F0D4
:104C28002BC015F0A7EC23F0D8903234F66E33344D
:104C3800F76EA70EF626F10EF722F86A000EF82294
:104C48000900F5CF2CF00900F5CF2DF02C502226C5
:104C58002D502322264A272A26C0F6FF27C0F7FF11
:104C6800000EF86E0E0EF76403D00800F55005D05C
:104C7800F6CFE1FFF7CFE2FFE7500009D8A447EFEE
:104C880026F049EF26F0B3EF25F0120003C00AF032
:104C980004C00BF005C00CF006C00DF00706D8A044
:104CA8000806072806E10828D8A45DEF26F05FEF7C
:104CB80026F06CEF26F0000E046E000E036EDCEF9B
:104CC80026F00A4A0B2A0C4A0D2A0706D8A008061D
:104CD8000AC0F6FF0BC0F7FF000EF86E0E0EF76461
:104CE80003D00800F55005D0F6CFE1FFF7CFE2FF7B
:104CF800E7500009D8B483EF26F085EF26F0BEEF21
:104D080026F00CC0F6FF0DC0F7FFF86A0800F55052
:104D18000009D8B492EF26F094EF26F0BEEF26F003
:104D280007500810D8B49BEF26F09DEF26F0BEEF91
:104D380026F00CC0F6FF0DC0F7FFF86A0800F5CFA3
:104D480009F00AC0F6FF0BC0F7FF000EF86E0E0E52
:104D5800F76403D00800F55005D0F6CFE1FFF7CF90
:104D6800E2FFE7500918D8B4BCEF26F0BEEF26F0F2
:104D780065EF26F00AC0F6FF0BC0F7FF000EF86ECD
:104D88000E0EF76403D00800F55005D0F6CFE1FF0A
:104D9800F7CFE2FFE750096E0CC0F6FF0DC0F7FF32
:104DA800F86A0800F550095C036E046AD8A0040686
:104DB8001200053406340C6E0C50D8A4E6EF26F029
:104DC800E8EF26F0F2EF26F0000E036E000E046EF8
:104DD800000E056E000E066E5FEF27F003C007F0A9
:104DE80004C008F005C009F006C00AF0200E02EF62
:104DF80027F0D8900A32093208320732E82EFDEF40
:104E080026F007500B6E058EFF0E0316FF0E0416D4
:104E1800FF0E0516000E0616960E0C5E0CBE19EF58
:104E280027F017EF27F02FEF27F00C50800A970F85
:104E3800D8B021EF27F023EF27F025EF27F0E8EF90
:104E480026F0D89006320532043203320C3E25EFA4
:104E580027F047EF27F01F0E0C6435EF27F037EFE8
:104E680027F03FEF27F0E8EF26F0D8900336043616
:104E7800053606360C060C50D8A445EF27F047EF48
:104E880027F039EF27F00B50D8B44DEF27F04FEF4C
:104E980027F057EF27F0061E051E041E036C000EB0
:104EA80004220522062203C003F004C004F005C052
:104EB80005F006C006F01200000E2A14326E000E2D
:104EC8002B14336E800E2C14346E7F0E2D14356E19
:104ED8003250331034103510D8A475EF27F077EF1F
:104EE80027F07FEF27F0000E2A6E000E2B6E000EC3
:104EF8002C6E000E2D6E000E2E14326E000E2F1426
:104F0800336E800E3014346E7F0E3114356E32508D
:104F1800331034103510D8A494EF27F096EF27F00B
:104F28009EEF27F0000E2E6E000E2F6E000E306ED4
:104F3800000E316E2DAEA3EF27F0A5EF27F0AEEFF0
:104F480027F02A6C2B1ED8B02B2A2C1ED8B02C2A5E
:104F5800800E2D5631AEB3EF27F0B5EF27F0BEEF38
:104F680027F02E6C2F1ED8B02F2A301ED8B0302A2A
:104F7800800E3156000E2A1A000E2B1A000E2C1A1B
:104F8800800E2D1A000E2E1A000E2F1A000E301A3F
:104F9800800E311A2E502A5C2F502B5830502C5826
:104FA80031502D58D8B0DBEF27F0DDEF27F0E0EFD8
:104FB80027F0D890E1EF27F0D880120004C10DF057
:104FC80005C10EF006C10FF007C110F003C00DF0C7
:104FD80004C00EF005C00FF006C010F00DC007F0B9
:104FE8000EC008F00FC009F010C00AF0180E02EF4A
:104FF80028F0D8900A32093208320732E82EFDEF3D
:1050080027F007500B6E0C6A0B500C10D8A40FEF4A
:1050180028F011EF28F031EF28F0D8900D34076E02
:105028000E34086E0F34096E10340A6E07500810DB
:1050380009100A10D8A423EF28F025EF28F02BEF49
:1050480028F0000E046E020E036E60EF28F0000ECA
:10505800046E030E036E60EF28F00B280C10D8A422
:1050680038EF28F03AEF28F05CEF28F00DC007F091
:105078000EC008F00FC009F010C00AF0090ED89051
:105088000736083609360A36E82E43EF28F0075067
:10509800081009100A10D8B454EF28F057EF28F078
:1050A800010E58EF28F0000E036E046A60EF28F036
:1050B800000E046E040E036E120020EE13F0070EAD
:1050C800DE6AE806FDE20B500C100D100E100F10F2
:1050D800101011101210D8B474EF28F076EF28F0E1
:1050E800C8EF28F0010E1B6E84EF28F0D8900B361D
:1050F8000C360D360E360F361036113612361B2A80
:1051080012AE89EF28F08BEF28F07AEF28F0D890CC
:1051180013361436153616361736183619361A3623
:105128000B50035C0C5004580D5005580E5006588F
:105138000F500758105008581150095812500A5863
:10514800D8A0A9EF28F0ABEF28F0BCEF28F00B505F
:10515800035E0C50045A0D50055A0E50065A0F5053
:10516800075A1050085A1150095A12500A5A1380F7
:10517800D8901232113210320F320E320D320C32F8
:105188000B321B2E8BEF28F013C003F014C004F071
:1051980015C005F016C006F017C007F018C008F0D3
:1051A80019C009F01AC00AF012000B500C100D10AB
:1051B8000E100F10101011101210D8B4E6EF28F0CE
:1051C800E8EF28F030EF29F0010E136EF6EF28F023
:1051D800D8900B360C360D360E360F361036113683
:1051E8001236132A12AEFBEF28F0FDEF28F0ECEF91
:1051F80028F00B50035C0C5004580D5005580E5005
:1052080006580F5007581050085811500958125096
:105218000A58D8A012EF29F014EF29F024EF29F04A
:105228000B50035E0C50045A0D50055A0E50065A86
:105238000F50075A1050085A1150095A12500A5A5A
:10524800D8901232113210320F320E320D320C3227
:105258000B32132EFDEF28F003C003F004C004F056
:1052680005C005F006C006F007C007F008C008F042
:1052780009C009F00AC00AF0120005500610D8B497
:1052880048EF29F04AEF29F053EF29F005500610AE
:10529800D8A451EF29F053EF29F058EF29F0035023
:1052A8009BEC2FF0A5EF29F020EE04F00550D9264D
:1052B8000650DA22DE50DE10D8B465EF29F067EF29
:1052C80029F082EF29F020EE04F00550D926065087
:1052D800DA2210EE02F00550E1260650E222DE50F6
:1052E800E65CE650800A0B6EDE50800A0B58D8B098
:1052F80080EF29F082EF29F0A5EF29F020EE02F0E7
:105308000550D9260650DA22DECF07F0DDCF08F0A7
:1053180005C0D9FF06C0DAFFDECF09F0DDCF0AF0FD
:1053280007500924D96E08500A20DA6E03C0DFFF3F
:1053380020EE02F00550D9260650DA22DE2A000EA9
:10534800DD2212000001FCA1ACEF29F0AEEF29F03C
:10535800B8EF29F015C00CF016C00DF013C00EF010
:1053680014C00FF082EC2DF018BEBDEF29F0BFEF8E
:1053780029F0C5EF29F017C01CF018C01DF0C9EFBF
:1053880029F0000E1D6E000E1C6E000E1B6E000E26
:105398001A6EDBEF29F0000E046E200E036E13C0A8
:1053A80005F014C006F041EC29F01A4A1B2A1C50DB
:1053B8001A5C1B50800A196E1D50800A1958D8A013
:1053C800E8EF29F0EAEF29F0CFEF29F00001FCB16E
:1053D800F0EF29F0F2EF29F0FCEF29F015C00CF0FE
:1053E80016C00DF013C00EF014C00FF082EC2DF0B3
:1053F80015C003F016C004F090EC2EF01C500324E6
:10540800136E1D500420146E1200000E086E06BEA6
:1054180012EF2AF010EF2AF018EF2AF0056C061E9A
:10542800D8B0062A010E086E04BE1FEF2AF01DEF41
:105438002AF025EF2AF0036C041ED8B0042A010EC6
:10544800081A000E0A6E000E096E05500610D8B430
:1054580030EF2AF032EF2AF05AEF2AF0010E076EE9
:105468003AEF2AF0D89005360636072A06AE3FEFFF
:105478002AF041EF2AF036EF2AF0D89009360A369A
:105488000550035C06500458D8A04DEF2AF04FEFA2
:105498002AF054EF2AF00550035E0650045A09809A
:1054A800D89006320532072E41EF2AF00850D8B4BA
:1054B80060EF2AF062EF2AF066EF2AF0096C0A1E04
:1054C800D8B00A2A09C003F00AC004F01200000E7E
:1054D800086E04BE74EF2AF072EF2AF07AEF2AF011
:1054E800036C041ED8B0042A010E086E06BE81EFB4
:1054F8002AF07FEF2AF085EF2AF0056C061ED8B057
:10550800062A05500610D8B48CEF2AF08EEF2AF040
:10551800B2EF2AF0010E076E96EF2AF0D890053602
:105528000636072A06AE9BEF2AF09DEF2AF092EF87
:105538002AF00550035C06500458D8A0A6EF2AF0BC
:10554800A8EF2AF0ACEF2AF00550035E0650045A83
:10555800D89006320532072E9DEF2AF00850D8B4AD
:10556800B8EF2AF0BAEF2AF0BEEF2AF0036C041E57
:10557800D8B0042A03C003F004C004F01200046E7B
:10558800C6BAC9EF2AF0CBEF2AF01AEF2BF0045075
:10559800040D010EF326000EF422730EF324F66EAA
:1055A800FF0EF420F76EF86A000EF8220800F5CF17
:1055B800C7FF0450040D730EF324F66EFF0EF4209B
:1055C800F76EF86A000EF8220800F5CFC6FF000E45
:1055D800C56E0450040D020EF326000EF422730E5D
:1055E800F324F66EFF0EF420F76EF86A000EF82228
:1055F8000800F5CFC8FF0450040D030EF326000E73
:10560800F422730EF324F66EFF0EF420F76EF86A98
:10561800000EF8220800F5CF03F0034603460346C0
:1056280094500318F70B0318946EC68A1200000EE4
:1056380003140B6E000E04140C6E800E05140D6E10
:105648007F0E06140E6E0B500C100D100E10D8A401
:1056580030EF2BF032EF2BF03AEF2BF0000E036E09
:10566800000E046E000E056E000E066E000E071486
:105678000B6E000E08140C6E800E09140D6E7F0E52
:105688000A140E6E0B500C100D100E10D8A44FEF0C
:105698002BF051EF2BF059EF2BF0000E076E000E98
:1056A800086E000E096E000E0A6E075003180FE10F
:1056B800085004180CE10950051809E10A500618A9
:1056C800D8B469EF2BF06BEF2BF06EEF2BF0D8907E
:1056D8006FEF2BF0D8801200010E116E400E106E85
:1056E800000E0F6EF00E0E6E000E096E000E086EA4
:1056F800000E0B6E000E0A6EA4EC2DF00009D8B453
:1057080088EF2BF08AEF2BF0A3EF2BF0B0EF2BF004
:105718000CC006F00DC007F068EC2FF01006D8A0FA
:105728001106102806E11128D8A49DEF2BF09FEF51
:105738002BF08CEF2BF0010E116E400E106E0E0642
:10574800D8A00F060E2806E10F28D8A4AEEF2BF03C
:10575800B0EF2BF092EF2BF01200E8C0ECF0E9C0AC
:10576800EDF0000E01011B6F000E1A6FD3EF2BF046
:10577800E6C0B8F0E7C0B9F0EC0E0001BA6F000E51
:10578800BB6FEAC0BCF0EBC0BDF021EC00F000013B
:10579800B85101011A270001B95101011B23ECC0BE
:1057A800F6FFEDC0F7FFF86A0800F5500009D8A425
:1057B800E0EF2BF0E2EF2BF0BCEF2BF01AC1E6F094
:1057C8001BC1E7F01200BF0E0B6EFF0E0C6E09C076
:1057D8000DF00AC00EF00B500D260C500E220E5084
:1057E8000AE11A0E0D5CD8A0FCEF2BF0FFEF2BF0AE
:1057F800010E00EF2CF0000E0F6E106A0F50101003
:10580800D8B409EF2CF00BEF2CF012EF2CF0200E8F
:105818000910096E0A500A6E16EF2CF009C009F03B
:105828000AC00AF012009F0E0B6EFF0E0C6E09C024
:105838000DF00AC00EF00B500D260C500E220E5023
:105848000AE11A0E0D5CD8A02CEF2CF02FEF2CF0EB
:10585800010E30EF2CF0000E0F6E106A0F50101072
:10586800D8B439EF2CF03BEF2CF041EF2CF05F0E61
:105878000914096E0A6A45EF2CF009C009F00AC03C
:105888000AF0120005C009F006C00AF003C00BF0C8
:1058980004C00CF00950076E0A50086E094A0A2A1B
:1058A80007C0F6FF08C0F7FF000EF86E0BC0D9FF5F
:1058B8000CC0DAFF0B4A0C2A0E0EF76403D008005E
:1058C800F55005D0F6CFE1FFF7CFE2FFE750DF6EE6
:1058D800DF50D8A472EF2CF074EF2CF04EEF2CF0C0
:1058E80012000001FA51FB11D8A47DEF2CF07FEFD4
:1058F8002CF085EF2CF0FAC021F0FBC022F08BEFE2
:105908002CF0FF0EFA25216EFF0EFB21226E20C01F
:1059180088F1000E0101896F1EC013F01FC014F03A
:10592800880E156E010E166E21C017F022C018F0F1
:10593800A6EC29F013C01EF014C01FF01200010ECF
:10594800096E200E03180410D8B4ADEF2CF0AFEF99
:105958002CF0C8EF2CF0F70E056EFF0E066E03C094
:1059680007F004C008F00550072606500822085022
:1059780009E1050E075CD8A0C4EF2CF0C6EF2CF0A7
:10598800C8EF2CF0000E096E09C003F0046A12007B
:105998002A0EF66E5F0EF76E000EF86E01EEF4F04A
:1059A80010EE07F00900F5CFEEFFE550E150FAE1FF
:1059B80002EE00F0C80EEE6AE806FDE101EE00F026
:1059C800DC0EEE6AE806FDE10001FD6BFC6BFB6B8B
:1059D800FA6B5C6A5B6A5D905D920001CDEF12F034
:1059E800075009E1F00E065CD8A0FDEF2CF0FFEFA0
:1059F8002CF002EF2DF0010E17EF2DF02A0E046E99
:105A0800000E50EC2FF00750046E010E50EC2FF0F2
:105A180006C004F0010E50EC2FF02C0E046E000EA0
:105A280050EC2FF0000E1200400E065C010E0758D5
:105A3800D8A021EF2DF023EF2DF026EF2DF0010E49
:105A48003BEF2DF02B0E046E000E50EC2FF007509C
:105A5800046E010E50EC2FF006C004F0010E50EC5D
:105A68002FF02C0E046E000E50EC2FF0000E1200DA
:105A7800000E3E1A000E3F1A000E401A800E411A00
:105A88003AC02AF03BC02BF03CC02CF03DC02DF0B2
:105A98003EC02EF03FC02FF040C030F041C031F082
:105AA8006DEC10F02AC03AF02BC03BF02CC03CF053
:105AB8002DC03DF01200000E8D6E000E8C6E000E93
:105AC800896E000E8A6E000E8B6E040E966E0F0E97
