:020000040000FA
:040000001FEF00F0FE
:100008003D82FACF02F0FBCF03F0F2A60EEF00F02C
:1000180010EF00F019EF00F0F2A015EF00F017EF65
:1000280000F019EF00F0F5EC04F003C0FBFF02C08C
:10003800FAFF3D92110017EF05F0010E056E000E54
:10004800E9EC04F0960E8DEC04F0EF0E056E000E50
:10005800E9EC04F0030E056E010EE9EC04F0800EE5
:10006800056E010EE9EC04F0020E056E010EE9ECD6
:1000780004F0CF0E056E000EE9EC04F0000E056EDC
:10008800010EE9EC04F0C10E056E010EE9EC04F076
:10009800300E056E010EE9EC04F0ED0E056E000E53
:1000A800E9EC04F0640E056E010EE9EC04F0030EB1
:1000B800056E010EE9EC04F0120E056E010EE9EC76
:1000C80004F0810E056E010EE9EC04F0E80E056EF1
:1000D800000EE9EC04F0850E056E010EE9EC04F063
:1000E800000E056E010EE9EC04F0780E056E010EA7
:1000F800E9EC04F0CB0E056E000EE9EC04F0390EC5
:10010800056E010EE9EC04F02C0E056E010EE9EC0B
:1001180004F0000E056E010EE9EC04F0340E056ED5
:10012800010EE9EC04F0020E056E010EE9EC04F094
:10013800F70E056E000EE9EC04F0200E056E010EB8
:10014800E9EC04F0EA0E056E000EE9EC04F0000E8E
:10015800056E010EE9EC04F0000E056E010EE9ECE7
:1001680004F0C00E056E000EE9EC04F0230E056ED7
:10017800010EE9EC04F0C10E056E000EE9EC04F086
:10018800100E056E010EE9EC04F0C50E056E000EAA
:10019800E9EC04F03E0E056E010EE9EC04F0280EC1
:1001A800056E010EE9EC04F0C70E056E000EE9ECD1
:1001B80004F0860E056E010EE9EC04F0360E056EAD
:1001C800000EE9EC04F0480E056E010EE9EC04F0AF
:1001D8003A0E056E000EE9EC04F0550E056E010EA0
:1001E800E9EC04F0B10E056E000EE9EC04F0000E27
:1001F800056E010EE9EC04F0180E056E010EE9EC2F
:1002080004F0B60E056E000EE9EC04F0080E056E5B
:10021800010EE9EC04F0820E056E010EE9EC04F023
:10022800270E056E010EE9EC04F0F20E056E000EC5
:10023800E9EC04F0000E056E010EE9EC04F0260E60
:10024800056E000EE9EC04F0010E056E010EE9ECF6
:1002580004F0E00E056E000EE9EC04F00F0E056EDA
:10026800010EE9EC04F0310E056E010EE9EC04F024
:100278002B0E056E010EE9EC04F00C0E056E010E56
:10028800E9EC04F00E0E056E010EE9EC04F0080E20
:10029800056E010EE9EC04F04E0E056E010EE9EC58
:1002A80004F0F10E056E010EE9EC04F0370E056E50
:1002B800010EE9EC04F0070E056E010EE9EC04F0FE
:1002C800100E056E010EE9EC04F0030E056E010E2A
:1002D800E9EC04F00E0E056E010EE9EC04F0090ECF
:1002E800056E010EE9EC04F0000E056E010EE9EC56
:1002F80004F0E10E056E000EE9EC04F0000E056E48
:10030800010EE9EC04F00E0E056E010EE9EC04F0A6
:10031800140E056E010EE9EC04F0030E056E010ED5
:10032800E9EC04F0110E056E010EE9EC04F0070E7D
:10033800056E010EE9EC04F0310E056E010EE9ECD4
:1003480004F0C10E056E010EE9EC04F0480E056ECE
:10035800010EE9EC04F0080E056E010EE9EC04F05C
:100368000F0E056E010EE9EC04F00C0E056E010E81
:10037800E9EC04F0310E056E010EE9EC04F0360EDE
:10038800056E010EE9EC04F00F0E056E010EE9ECA6
:1003980004F0110E056E000EE9EC04F0780E8DECF9
:1003A80004F0290E056E000EE9EC04F0780E8DECD1
:1003B80004F0000E0E6E000E0D6E7EEC03F01200BF
:1003C800000E206E84EF02F0D8901134F66E1234CD
:1003D800F76E230EF626F20EF722F86A000EF822C0
:1003E8000900F5CF17F00900F5CF18F02050175E77
:1003F800000E185A0D501724096E0E5018200A6E58
:100408000FC00BF010C00CF051EC04F0000E216E80
:10041800000E226E2050176E186AD89017361836BC
:10042800D8901134F66E1234F76E230EF626F20EBB
:10043800F722F86A000EF8220900F5CF19F0090032
:10044800F5CF1AF0D89019361A361750195E185089
:100458001A5A2150195E000E1A5A115019261250B4
:100468001A22D89019361A36230E1924F66EF20E6F
:100478001A20F76EF86A000EF8220900F5CF1BF073
:100488000900F5CF1CF022C01DF0800E1E6E000E74
:100498001F6E1D2A53EF02F01F341F321E321D2E0D
:1004A80050EF02F01B501E161C501F161E501F1036
:1004B800D8B461EF02F063EF02F06BEF02F013C003
:1004C80007F014C008F001EC05F071EF02F015C058
:1004D80007F016C008F001EC05F0222A070E226486
:1004E80078EF02F07AEF02F00EEF02F0212A010E07
:1004F800216481EF02F083EF02F00CEF02F0202A72
:10050800D8901134F66E1234F76E230EF626F20EDA
:10051800F722F86A000EF8222050176E186A0900B0
:10052800F550175C0900F5501858D8A09EEF02F056
:10053800A0EF02F0E8EF01F0120016EF03F0000E52
:10054800346E000E336E000E326E000E316ECCEF3C
:1005580002F0D8903334F66E3434F76E230EF62654
:10056800F20EF722F86A000EF8220900F5CF2DF0F6
:100578000900F5CF2EF0D8902D362E36010E2D26F7
:10058800000E2E222D5033262E503422314A322A84
:10059800E00E2D6EFF0E2E6E27C0F6FF28C0F7FF67
:1005A800F86A0800F5502F6E306A2D502F262E500D
:1005B80030222F50315C30503258D8A0E6EF02F08C
:1005C800E8EF02F0ADEF02F023C00DF024C00EF00A
:1005D80025C00FF026C010F033C011F034C012F05F
:1005E80029C013F02AC014F02BC015F02CC016F047
:1005F800E4EC01F0D8903334F66E3434F76E230E01
:10060800F626F20EF722F86A000EF8220900F5CF56
:100618002DF00900F5CF2EF02D5023262E50242240
:10062800274A282A27C0F6FF28C0F7FFF86A0800DB
:10063800F5500009D8A423EF03F025EF03F0A3EF4A
:1006480002F01200056EC6BA2CEF03F02EEF03F08D
:100658007DEF03F00550040D010EF326000EF42281
:10066800EF0EF324F66EFF0EF420F76EF86A000E14
:10067800F8220800F5CFC7FF0550040DEF0EF3244C
:10068800F66EFF0EF420F76EF86A000EF8220800E6
:10069800F5CFC6FF000EC56E0550040D020EF326F9
:1006A800000EF422EF0EF324F66EFF0EF420F76E20
:1006B800F86A000EF8220800F5CFC8FF0550040DAF
:1006C800030EF326000EF422EF0EF324F66EFF0E4F
:1006D800F420F76EF86A000EF8220800F5CF04F04F
:1006E80004460446044694500418F70B0418946E04
:1006F800C68A1200010E126E400E116E000E106EA8
:10070800F00E0F6E000E0A6E000E096E000E0C6ED3
:10071800000E0B6E51EC04F00009D8B496EF03F00C
:1007280098EF03F0B1EF03F0BEEF03F00DC007F050
:100738000EC008F001EC05F01106D8A01206112829
:1007480006E11228D8A4ABEF03F0ADEF03F09AEF5F
:1007580003F0010E126E400E116E0F06D8A010069F
:100768000F2806E11028D8A4BCEF03F0BEEF03F071
:10077800A0EF03F01200DCEC04F0000E26EC03F00E
:1007880021EC00F0E40E046E080E056E32EC05F064
:10079800F28E000E246E640E236E000E266E780E06
:1007A800256EF30E276EFF0E286EFF0E2A6E29683F
:1007B800000E2C6E000E2B6EA1EC02F0E2EF03F09F
:1007C8001FEF00F0085009E1F00E075CD8A0EFEF2A
:1007D80003F0F1EF03F0F4EF03F0010E09EF04F07A
:1007E8002A0E056E000EE9EC04F00850056E010EA5
:1007F800E9EC04F007C005F0010EE9EC04F02C0E5A
:10080800056E000EE9EC04F0000E1200400E075CC5
:10081800010E0858D8A013EF04F015EF04F018EFF4
:1008280004F0010E2DEF04F02B0E056E000EE9EC1E
:1008380004F00850056E010EE9EC04F007C005F05D
:10084800010EE9EC04F02C0E056E000EE9EC04F044
:10085800000E1200000E8D6E000E8C6E000E896E5A
:10086800000E8A6E000E8B6E040E966E0F0E926E40
:100878009368D70E946E9568870E0F015D6F7D0E95
:100888005C6F000E5B6FF18E5A89720E046E0A0E51
:10089800056E32EC05F0F286120009C007F00AC0B6
:1008A80008F00AEC04F00009D8A45DEF04F05FEF4B
:1008B80004F06DEF04F00BC007F00CC008F0E6EC94
:1008C80003F00009D8B46BEF04F06DEF04F070EF9B
:1008D80004F0010E71EF04F0000E120081B877EFFA
:1008E80004F079EF04F08CEF04F089BC7EEF04F09B
:1008F80081EF04F0010E82EF04F0000EFF0A016E92
:10090800013A0146014689500118BF0B0118896E4A
:100918001200056E000E066E9AEF04F0030E046EC8
:10092800980EE82EFED7042EFCD7062A0550065C42
:10093800D8A0A1EF04F0A3EF04F092EF04F01200A6
:1009480037503810D8B4ABEF04F0ADEF04F0B9EF7E
:1009580004F002D8B9EF04F00500FA6E3750FD6EC6
:100968003850FE6EFF6AFA5012001200000EAA6E8E
:100978000B0ECF6EDC0ECE6E9E90CE50CFCF04F015
:10098800056A04C005F0046A0410356E0550366E19
:10099800310ECD6E1200046E04C0C9FF9EA6D7EFBB
:1009A80004F0D9EF04F0D2EF04F09E96C95012007B
:1009B80037EC05F020EC05F02EEC04F029EC05F0FE
:1009C800BAEC04F00CEC05F01200066E06B002D08A
:1009D8008D9001D08D808D920550CFEC04F08D82E2
:1009E80012000F015AA9FBEF04F0FDEF04F0FFEF2E
:1009F80004F0A4EC04F0F29012000850056E010E09
:100A0800E9EC04F007C005F0010EE9EC04F012006F
:100A1800010EC26E800EC16EAD0EC06E000EC46EA9
:100A2800000EC36E12003C6A3B6A3A6A396A3D900E
:100A38003D920001BFEF03F0400EC76E000EC66E78
:100A4800010EC86E9496C69A1200620ED36E000EFE
:100A5800D26E000E9B6E000E9A6E120004C037F024
:0C0A680005C038F01200D09E12001200F1
:10F2220000040000000000000000000000000000D8
:10F23200000000030000000000FE001B00000000B0
:10F242000005001E00000000000000000000001E7B
:10F25200000000000000000B000000000010000190
:10F262000010001D00F00003001E0001001000014C
:10F272000010001D00F00003001E0001001000013C
:10F2820000000000000900000004001C0008002229
:10F2920000100042001000FF007F004200100084B6
:10F2A20000100000000F00000000000C001C000015
:10F2B200002200100022000800220006001C0001AB
:10F2C20000C000000020000E001800110004001110
:10F2D200000200110000000E00000000000B000000
:10F2E20000000000000E001C001100A2001000C26D
:10F2F200001000220011001C000A0000000C000097
:10F30200000C0000001200000000000300000000DA
:10F31200001E0000000000000006000000000000C7
:10F32200000000E0001F001C0060000200800000DE
:10F332000000000400000000000600C000F8003FCA
:10F342000000000000060024000000180000007EFB
:10F352000000001800000024000000000000000966
:10F36200000000000080000000800000008000001B
:10F3720000F0000700800000008000000080000014
:10F382000000000000040000000000000060000017
:10F39200001800000000000500000001000000014C
:10F3A2000000000100000001000000000004000055
:10F3B2000000000000180000001800000000000813
:10F3C20000000000000000400000003800000007BC
:10F3D20000E00000001C000000020000000000002D
:10F3E200000900F8000700040008000200100002F3
:10F3F200001000020010000200100004000800F8D3
:10F4020000070000000000060000000000000000ED
:10F41200000200000002000000FE001F00000000C9
:10F422000009001800100004001800020014000275
:10F432000012000200110082001000440010003887
:10F4420000100000000000090008000C0004001079
:10F4520000020010004200100042001000440010A0
:10F4620000B80008000000070000000000090000CA
:10F472000002000000030080000200600002001091
:10F4820000020008000200FE001F0000000200004F
:10F49200000000090000000400700008002E0010A7
:10F4A200002200100022001000220010004200087A
:10F4B20000820007000000000009000000000000B8
:10F4C200000700C00008006000100058001000444F
:10F4D2000010008200080000000700000000000980
:10F4E20000000000000200100002000C00020003F5
:10F4F20000C2000000320000000E00000002000006
:10F5020000000000000900000007009800080064E5
:10F512000010004200100042001000640010009829
:10F5220000080000000700000000000900000000C1
:10F53200003800000044001000820008008200042D
:10F542000082000300840000007800000000000038
:10F552000004000000000030001800300018000015
:10F5620000000004000000000030006000300018BD
:10F5720000000000000A000000000080000000807F
:10F5820000000040000100200002002000020010E4
:10F592000004001000040008000800000000000A37
:10F5A20000000000002000010020000100200001F6
:10F5B20000200001002000010020000100200001C5
:10F5C2000020000100000000000A00000000000806
:10F5D20000080010000400100004002000020020B7
:10F5E20000020040000100800000008000000000D6
:10F5F2000000000800000000000C00000082000172
:10F60200004200020022001A0022001A009C00019F
:10F6120000000000000E0000000000F000030008DF
:10F6220000040004000800C20011002200120012AF
:10F6320000120012001200E2001100120012000477
:10F6420000120008000900F0000400000000000D94
:10F6520000000000000000100000000E0080000109
:10F6620000600001001C000100020001001C0001FA
:10F6720000600001008000010000000E0000001088
:10F68200000000000009000000000000000000FE71
:10F69200001F004200100042001000640010009899
:10F6A20000080000000700000000000D000000003C
:10F6B20000F000030008000400040008000200102B
:10F6C20000020010000200100002001000020010F0
:10F6D2000004000800040008000800040000000004
:10F6E200000C000000000000000000FE001F0002ED
:10F6F20000100002001000020010000200100002C0
:10F702000010000400080008000400F000030000DC
:10F7120000000009000000000000000000FE001FC1
:10F72200004200100042001000420010004200108F
:10F73200004200100000000000080000000000006D
:10F74200000000FE001F00420000004200000042D4
:10F7520000000042000000000000000E0000000057
:10F7620000F000030008000400040008000200107A
:10F7720000020010000200100002001000820010BF
:10F782000084001000840008008800040080000348
:10F7920000000000000A000000000000000000FE5F
:10F7A200001F004000000040000000400000004038
:10F7B20000000040000000FE001F000000000004E6
:10F7C200000000000000000000FE001F000000001A
:10F7D2000007000000000000000800000010000008
:10F7E20000100000000800FE0007000000000009F1
:10F7F200000000000000000000FE001F006000008A
:10F8020000900001000800020004000C0002001039
:10F81200000000000008000000000000000000FEE0
:10F82200001F000000100000001000000010000087
:10F83200001000000000000F000000000000001C8B
:10F8420000F80003000600000038000000C00001BC
:10F852000000000E000000100000000E00C00001B9
:10F86200003800000006000000F800030000001C41
:10F8720000000000000B000000000000000000FE7D
:10F88200001F00080000003000000040000000805F
:10F892000000000000030000000400FE001F000042
:10F8A2000000000E0000000000F000030008000449
:10F8B2000004000800020010000200100002001004
:10F8C20000020010000200100002001000040008F4
:10F8D2000008000400F0000300000000000900001E
:10F8E20000000000000000FE001F00420000004275
:10F8F2000000004200000024000000180000000088
:10F902000000000E0000000000F0000300080004E8
:10F9120000040008000200100002001000020010A3
:10F9220000020011000200120002000C0004000894
:10F932000008001600F0002100000000000A00008C
:10F9420000000000000000FE001F0042000000C294
:10F9520000000042000100420006002400080018D6
:10F962000010000000000008000000040018000859
:10F972000024001000420010004200100084000821
:10F98200000800070000000000080002000000025A
:10F9920000000002000000FE001F00020000000242
:10F9A20000000002000000000000000A0000000049
:10F9B2000000000000FE0007000000080000001028
:10F9C20000000010000000100000000800FE000708
:10F9D20000000000000C00020000001C000000609B
:10F9E2000000008000010000000E00000010000076
:10F9F200000E0080000100600000001C00000002F8
:10FA0200000000000000000F0000000000060000DF
:10FA12000078000000800007000000180080000746
:10FA22000078000000060000007800000080000757
:10FA320000000018008000070078000000060000A7
:10FA42000000000000090000000000060018000885
:10FA520000040030000300C0000000300003000872
:10FA620000040006001800000000000B0000000067
:10FA72000002000000040000001800000060000006
:10FA82000080001F00600000001800000004000059
:10FA92000002000000000000000800020010000246
:10FAA200001C0002001300C2001000320010000E01
:10FAB200001000020010000000000006000000001C
:10FAC2000000000000FE00FF000200800002008033
:10FAD20000000000000A00020000000C00000010FC
:10FAE200000000600000008000010000000600002D
:10FAF2000008000000300000004000000000000587
:10FB020000000000000200800002008000FE00FFF2
:10FB120000000000000B0000000000000002008056
:10FB2200000100700000000C000000020000000C48
:10FB320000000070000000800001000000020000D0
:10FB420000000009000000400000004000000040EA
:10FB520000000040000000400000004000000040A3
:10FB6200000000400000000000050000000000004E
:10FB72000000000200000004000000000000000B72
:10FB82000000000000C00007002000080010001064
:10FB920000100010001000100010001000100010E3
:10FBA2000020000800F0001F00000000000B000011
:10FBB200000000FE001F00200008001000100010CE
:10FBC20000100010001000100010001000100020A3
:10FBD200000800C0000700000000000A000000004A
:10FBE20000C00007002000080010001000100010E4
:10FBF2000010001000100010002000080040000457
:10FC020000000000000B0000000000C00007002000
:10FC1200000800100010001000100010001000106A
:10FC22000010001000100020000800FE001F00005D
:10FC32000000000A0000000000C0000700200009C8
:10FC4200001000110010001100100011001000112E
:10FC52000020000900C000050000000000060000AE
:10FC620000000010000000FC001F00120000001243
:10FC7200000000000000000B0000000000C0002790
:10FC8200002000480010009000100090001000902A
:10FC920000100090001000900020004800F0003F8B
:10FCA20000000000000A0000000000FE001F00200B
:10FCB2000000001000000010000000100000001002
:10FCC20000000020000000C0001F00000000000330
:10FCD2000000000000F6001F00000000000300000A
:10FCE200008000F6007F0000000000080000000015
:10FCF20000FE001F0000000100800002004000041E
:10FD020000200008001000100000000000030000A6
:10FD1200000000FE001F00000000000F00000000B5
:10FD220000F0001F00200000001000000010000082
:10FD3200001000000020000000C0001F0020000092
:10FD42000010000000100000001000000020000061
:10FD520000C0001F00000000000A0000000000F0C8
:10FD6200001F002000000010000000100000001022
:10FD72000000001000000020000000C0001F000072
:10FD82000000000A0000000000C000070020000878
:10FD920000100010001000100010001000100010E1
:10FDA2000020000800C0000700000000000B000057
:10FDB200000000F000FF00200008001000100010FA
:10FDC20000100010001000100010001000100020A1
:10FDD200000800C0000700000000000B0000000047
:10FDE20000C00007002000080010001000100010E2
:10FDF2000010001000100010001000100020000879
:10FE020000F000FF0000000000060000000000F00B
:10FE1200001F002000000010000000100000000081
:10FE220000000006006000080090001000100011A1
:10FE3200001000110020000E00000000000700006A
:10FE42000000001000000010000000FE001F001063
:10FE520000000010000000000000000A0000000086
:10FE620000F0000700000008000000100000001071
:10FE720000000010000000100000000800F0000761
:10FE820000000000000A0010000000600000008076
:10FE920000030000000C000000100000000C0080B5
:10FEA2000003006000000010000000000000000ECF
:10FEB2000010000000E00000000000070000001831
:10FEC2000000000700E000000010000000E0000059
:10FED20000000007000000180000000700E000001A
:10FEE20000100000000000000009001000100020B7
:10FEF200000800400004008000030080000300406E
:10FF0200000400200008001000100000000000099A
:10FF12000010000000E00000000000830000007CF0
:10FF22000000000C0000000300E0000000100000D0
:10FF3200000000000008001000100010001800105F
:10FF420000160010001100D0001000300010001048
:10FF52000010000000000007000000000000000187
:10FF62000080000200FC007E00020080000200808F
:10FF72000000000000070000000000000000000078
:10FF82000000000000000000000000FE00FF000072
:10FF920000000006000200800002008000FC007EDB
:10FFA200008000020000000100000000000A0000C2
:10FFB20000000080000000400000004000000040FF
:10FFC200000000800000008000000080000000406F
:10FFD200000000000000000500FF000F0001000803
:10FFE2000001000800FF000F0000000000004001B7
:0EFFF2000048454C4C4F20574F524C440000E5
:020000040020DA
:08000000FFFFFFFFFFFFFFFF00
:020000040030CA
:0E00000015087F7CFF8991FF0FC00FE00F40B5
:00000001FF
