:020000040000FA
:0400000042EF00F0DB
:100008005F82FACF54F0FBCF55F0F3CF56F0F4CF20
:1000180057F0F2A612EF00F014EF00F01FEF00F017
:10002800F2A019EF00F01BEF00F01FEF00F0B3ECA7
:1000380029F038EF00F0F2AC24EF00F026EF00F0E2
:1000480038EF00F09DA22BEF00F02DEF00F038EF15
:1000580000F09EA232EF00F034EF00F038EF00F02D
:10006800FDEC28F038EF00F057C0F4FF56C0F3FF5E
:1000780055C0FBFF54C0FAFF5F92110056EF25F000
:10008800B3C0D9FFB4C0DAFFDECFF6FFDDCFF7FF8C
:10009800F86A0800F550250AD8A455EF00F057EF84
:1000A80000F068EF09F0B3C0D9FFB4C0DAFFDE2A68
:1000B800000EDD22000E0001E96F000EE86FE8C0B7
:1000C800ECF0E9C0EDF0EA69EB69000EBE6F000ED6
:1000D800BD6FB6EF00F0EC81B3C0D9FFB4C0DAFF52
:1000E800DE2A000EDD22B6EF00F0EC8370EF00F0A0
:1000F800EC8570EF00F0EC8770EF00F0EC8970EFA2
:1001080000F0000EBE6F010EBD6FB6EF00F0B3C079
:10011800D9FFB4C0DAFFDECFF6FFDDCFF7FFF86A0C
:100128000800F550B76FB86BB851000AD8B49FEF04
:1001380000F085EF00F0B751200AD8B47FEF00F047
:10014800030AD8B482EF00F0080AD8B47CEF00F0B4
:10015800060AD8B46FEF00F01D0AD8B479EF00F0A2
:1001680085EF00F0BD51BE11D8B4BDEF00F0BFEF70
:1001780000F08BEF00F0ECA1C4EF00F0C6EF00F048
:10018800C7EF00F0EC93B3C0D9FFB4C0DAFFDECFFD
:10019800F6FFDDCFF7FFF86A0800F5502A0AD8A461
:1001A800D8EF00F0DAEF00F003EF01F0B3C0D9FFA9
:1001B800B4C0DAFFDE2A000EDD22B5C0D9FFB6C012
:1001C800DAFFDFCFB7F0020EDE26DFCFB8F0000E81
:1001D800DD22B7C0D9FFB8C0DAFFDECFE8F0DDCF47
:1001E800E9F0E9BFFCEF00F0FAEF00F048EF01F0AA
:1001F800EC81E86DE91FD8B0E92B48EF01F0B3C0F6
:10020800D9FFB4C0DAFFDECF74F0DDCF75F014EC9F
:1002180016F074C0E8F075C0E9F01AEF01F0B3C049
:10022800D9FFB4C0DAFFDE2A000EDD22D00E0001AD
:10023800B76FFF0EB86FB3C0D9FFB4C0DAFFDECF17
:10024800F6FFDDCFF7FFF86A0800F550B96FBA6B13
:10025800B751B927B851BA23BA510AE10A0EB95DA4
:10026800D8A039EF01F03CEF01F0010E3DEF01F0AD
:10027800000EBF6FC06BBF51C011D8A446EF01F08C
:1002880048EF01F013EF01F0B3C0D9FFB4C0DAFFB3
:10029800DECFF6FFDDCFF7FFF86A0800F5502E0A2B
:1002A800D8A459EF01F05BEF01F0DBEF01F0000E8D
:1002B800EB6F000EEA6FB3C0D9FFB4C0DAFFDE2AD5
:1002C800000EDD22B3C0D9FFB4C0DAFFDECFF6FFDF
:1002D800DDCFF7FFF86A0800F5502A0AD8A477EFAF
:1002E80001F079EF01F096EF01F0B3C0D9FFB4C087
:1002F800DAFFDE2A000EDD22B5C0D9FFB6C0DAFF6C
:10030800DFCFB7F0020EDE26DFCFB8F0000EDD2219
:10031800B7C0D9FFB8C0DAFFDECFEAF0DDCFEBF027
:10032800DBEF01F0B3C0D9FFB4C0DAFFDECF74F061
:10033800DDCF75F014EC16F074C0EAF075C0EBF080
:10034800ADEF01F0B3C0D9FFB4C0DAFFDE2A000E6A
:10035800DD22D00E0001B76FFF0EB86FB3C0D9FF12
:10036800B4C0DAFFDECFF6FFDDCFF7FFF86A08008A
:10037800F550B96FBA6BB751B927B851BA23BA510A
:100388000AE10A0EB95DD8A0CCEF01F0CFEF01F079
:10039800010ED0EF01F0000EC16FC26BC151C21146
:1003A800D8A4D9EF01F0DBEF01F0A6EF01F0B3C05C
:1003B800D9FFB4C0DAFFDECFF6FFDDCFF7FFF86A6A
:1003C8000800F550630AD8A4ECEF01F0EEEF01F055
:1003D80015EF02F0B3C0D9FFB4C0DAFFDE2A000E71
:1003E800DD22B5C0D9FFB6C0DAFFDFCFB7F0020E05
:1003F800DE26DFCFB8F0000EDD22B7C0D9FFB8C0C7
:10040800DAFFDF50CD6FB1C08AF0B2C08BF0CDC03B
:100418008CF024EC26F08AC0B1F08BC0B2F085EFE6
:1004280009F0B3C0D9FFB4C0DAFFDECF6DF0DDCF7D
:100438006EF0D20E6F6FFF0E706F000E726F030EAC
:10044800716F9DEC22F000016D516E11D8B42FEF41
:1004580002F031EF02F04DEF02F0B3C0D9FFB4C0A3
:10046800DAFFDECF6DF0DDCF6EF0D60E6F6FFF0EC8
:10047800706F000E726F030E716F9DEC22F0000119
:100488006D516E11D8A44BEF02F04DEF02F08DEFD5
:1004980002F0030EB3C0D9FFB4C0DAFFDE26000EA7
:1004A800DD22B5C0D9FFB6C0DAFFDFCFB7F0020E44
:1004B800DE26DFCFB8F0000EDD22B7C0D9FFB8C006
:1004C800DAFFDF50C36F000EC3BFFF0EC46FC56FE6
:1004D800C66FC76FC86FC96FCA6FB1C08AF0B2C0A4
:1004E8008BF0C3C08CF0C4C08DF0C5C08EF0C6C000
:1004F8008FF0C7C090F0C8C091F0C9C092F0CAC0D0
:1005080093F0E4EC11F08AC0B1F08BC0B2F085EF43
:1005180009F0B3C0D9FFB4C0DAFFDECF6DF0DDCF8C
:100528006EF0D30E6F6FFF0E706F000E726F020EBB
:10053800716F9DEC22F000016D516E11D8B4A7EFD8
:1005480002F0A9EF02F0C5EF02F0B3C0D9FFB4C0C2
:10055800DAFFDECF6DF0DDCF6EF0D70E6F6FFF0ED6
:10056800706F000E726F020E716F9DEC22F0000129
:100578006D516E11D8A4C3EF02F0C5EF02F0ECEF95
:1005880002F0020EB3C0D9FFB4C0DAFFDE26000EB7
:10059800DD22B5C0D9FFB6C0DAFFDFCFB7F0020E53
:1005A800DE26DFCFB8F0000EDD22B7C0D9FFB8C015
:1005B800DAFFDECFC3F0DDCFC4F0000EC4BFFF0EFC
:1005C800C56FC66FC76FC86FC96FCA6F71EF02F08A
:1005D800B3C0D9FFB4C0DAFFDECFF6FFDDCFF7FF37
:1005E800F86A0800F550640AD8B4FDEF02F0FFEF8E
:1005F80002F012EF03F0B3C0D9FFB4C0DAFFDECFC8
:10060800F6FFDDCFF7FFF86A0800F550690AD8A4AD
:1006180010EF03F012EF03F038EF03F0B3C0D9FF87
:10062800B4C0DAFFDE2A000EDD22B5C0D9FFB6C09D
:10063800DAFFDFCFB7F0020EDE26DFCFB8F0000E0C
:10064800DD22B7C0D9FFB8C0DAFFDECFC3F0DDCFF7
:10065800C4F0000EC4BFFF0EC56FC66FC76FC86F6A
:10066800C96FCA6F71EF02F0B3C0D9FFB4C0DAFF27
:10067800DECF6DF0DDCF6EF0ED0E6F6FFF0E706F99
:10068800000E726F020E716F9DEC22F000016D5129
:100698006E11D8B452EF03F054EF03F070EF03F08B
:1006A800B3C0D9FFB4C0DAFFDECF6DF0DDCF6EF096
:1006B800F00E6F6FFF0E706F000E726F020E716F8B
:1006C8009DEC22F000016D516E11D8A46EEF03F07D
:1006D80070EF03F098EF03F0020EB3C0D9FFB4C077
:1006E800DAFFDE26000EDD22B5C0D9FFB6C0DAFF7C
:1006F800DFCFB7F0020EDE26DFCFB8F0000EDD2226
:10070800B7C0D9FFB8C0DAFFDECFB9F0DDCFBAF095
:10071800B9C0C3F0BAC0C4F0C56BC66BC76BC86BB1
:10072800C96BCA6B71EF02F0B3C0D9FFB4C0DAFF6E
:10073800DECF6DF0DDCF6EF0DE0E6F6FFF0E706FE7
:10074800000E726F030E716F9DEC22F000016D5167
:100758006E11D8A4B2EF03F0B4EF03F0F3EF03F097
:10076800030EB3C0D9FFB4C0DAFFDE26000EDD22C7
:10077800B5C0D9FFB6C0DAFFDFCFB7F0020EDE266C
:10078800DFCFB8F0000EDD22B7C0D9FFB8C0DAFF5E
:10079800DF50B96FB951CE6FCF6BD06BD16BD26BC5
:1007A800D36BD46BD56BB1C08AF0B2C08BF0CEC01E
:1007B8008CF0CFC08DF0D0C08EF0D1C08FF0D2C0F9
:1007C80090F0D3C091F0D4C092F0D5C093F019EC5A
:1007D80019F08AC0B1F08BC0B2F085EF09F0B3C050
:1007E800D9FFB4C0DAFFDECF6DF0DDCF6EF0DF0EDB
:1007F8006F6FFF0E706F000E726F020E716F9DECBF
:1008080022F000016D516E11D8A40DEF04F00FEF26
:1008180004F037EF04F0020EB3C0D9FFB4C0DAFF1A
:10082800DE26000EDD22B5C0D9FFB6C0DAFFDFCF65
:10083800B7F0020EDE26DFCFB8F0000EDD22B7C01B
:10084800D9FFB8C0DAFFDECFB9F0DDCFBAF0B9C052
:10085800CEF0BAC0CFF0D06BD16BD26BD36BD46B68
:10086800D56BD7EF03F0B3C0D9FFB4C0DAFFDECF42
:10087800F6FFDDCFF7FFF86A0800F5506F0AD8A435
:1008880048EF04F04AEF04F071EF04F0B3C0D9FF69
:10089800B4C0DAFFDE2A000EDD22B5C0D9FFB6C02B
:1008A800DAFFDFCFB7F0020EDE26DFCFB8F0000E9A
:1008B800DD22B7C0D9FFB8C0DAFFDECFB9F0DDCF8F
:1008C800BAF0B9C0CEF0BAC0CFF0D06BD16BD26B52
:1008D800D36BD46BD56BD7EF03F0B3C0D9FFB4C0DB
:1008E800DAFFDECF6DF0DDCF6EF0F60E6F6FFF0E24
:1008F800706F000E726F020E716F9DEC22F0000196
:100908006D516E11D8A48BEF04F08DEF04F0B5EFA4
:1009180004F0020EB3C0D9FFB4C0DAFFDE26000E21
:10092800DD22B5C0D9FFB6C0DAFFDFCFB7F0020EBF
:10093800DE26DFCFB8F0000EDD22B7C0D9FFB8C081
:10094800DAFFDECFB9F0DDCFBAF0B9C0CEF0BAC069
:10095800CFF0D06BD16BD26BD36BD46BD56BD7EF99
:1009680003F0B3C0D9FFB4C0DAFFDECF6DF0DDCF3E
:100978006EF0DA0E6F6FFF0E706F000E726F030E5F
:10098800716F9DEC22F000016D516E11D8A4CFEF6C
:1009980004F0D1EF04F0F9EF04F0030EB3C0D9FF6F
:1009A800B4C0DAFFDE26000EDD22B5C0D9FFB6C01E
:1009B800DAFFDFCFB7F0020EDE26DFCFB8F0000E89
:1009C800DD22B7C0D9FFB8C0DAFFDECFCBF0DDCF6C
:1009D800CCF0CBC0D9FFCCC0DAFFE6C0DFFF000EF9
:1009E800B26F000EB16F85EF09F0B3C0D9FFB4C084
:1009F800DAFFDECF6DF0DDCF6EF0DB0E6F6FFF0E2E
:100A0800706F000E726F020E716F9DEC22F0000184
:100A18006D516E11D8A413EF05F015EF05F03BEFFB
:100A280005F0020EB3C0D9FFB4C0DAFFDE26000E0F
:100A3800DD22B5C0D9FFB6C0DAFFDFCFB7F0020EAE
:100A4800DE26DFCFB8F0000EDD22B7C0D9FFB8C070
:100A5800DAFFDECFCBF0DDCFCCF0CBC0D9FFCCC0F6
:100A6800DAFFE6C0DEFFE7C0DDFFF3EF04F0B3C056
:100A7800D9FFB4C0DAFFDECFF6FFDDCFF7FFF86AA3
:100A88000800F5506E0AD8A44CEF05F04EEF05F0BB
:100A980073EF05F0B3C0D9FFB4C0DAFFDE2A000E49
:100AA800DD22B5C0D9FFB6C0DAFFDFCFB7F0020E3E
:100AB800DE26DFCFB8F0000EDD22B7C0D9FFB8C000
:100AC800DAFFDECFCBF0DDCFCCF0CBC0D9FFCCC086
:100AD800DAFFE6C0DEFFE7C0DDFFF3EF04F0B3C0E6
:100AE800D9FFB4C0DAFFDECF6DF0DDCF6EF0F30EC4
:100AF8006F6FFF0E706F000E726F020E716F9DECBC
:100B080022F000016D516E11D8A48DEF05F08FEF22
:100B180005F0B5EF05F0020EB3C0D9FFB4C0DAFF97
:100B2800DE26000EDD22B5C0D9FFB6C0DAFFDFCF62
:100B3800B7F0020EDE26DFCFB8F0000EDD22B7C018
:100B4800D9FFB8C0DAFFDECFCBF0DDCFCCF0CBC019
:100B5800D9FFCCC0DAFFE6C0DEFFE7C0DDFFF3EF68
:100B680004F0B3C0D9FFB4C0DAFFDECFF6FFDDCFA3
:100B7800F7FFF86A0800F550700AD8A4C6EF05F028
:100B8800C8EF05F00BEF06F0B3C0D9FFB4C0DAFF29
:100B9800DE2A000EDD22B5C0D9FFB6C0DAFFDFCFEE
:100BA800B7F0020EDE26DFCFB8F0000EDD22B7C0A8
:100BB800D9FFB8C0DAFFDECFB9F0DDCFBAF0B9C0DF
:100BC800CEF0BAC0CFF0D06BD16BD26BD36BD46BF5
:100BD800D56BB1C08AF0B2C08BF0CEC08CF0CFC05C
:100BE8008DF0D0C08EF0D1C08FF0D2C090F0D3C0BD
:100BF80091F0D4C092F0D5C093F0780E946F56EC73
:100C080013F08AC0B1F08BC0B2F085EF09F0B3C021
:100C1800D9FFB4C0DAFFDECFF6FFDDCFF7FFF86A01
:100C28000800F550730AD8A41CEF06F01EEF06F072
:100C380049EF06F0B3C0D9FFB4C0DAFFDE2A000ED0
:100C4800DD22B5C0D9FFB6C0DAFFDFCFB7F0020E9C
:100C5800DE26DFCFB8F0000EDD22B7C0D9FFB8C05E
:100C6800DAFFDECFBBF0DDCFBCF0B1C078F0B2C0A8
:100C780079F0BBC07AF0BCC07BF0C6EC1BF078C042
:100C8800B1F079C0B2F085EF09F0B3C0D9FFB4C0B4
:100C9800DAFFDECF6DF0DDCF6EF0E20E6F6FFF0E84
:100CA800706F000E726F030E716F9DEC22F00001E1
:100CB8006D516E11D8A463EF06F065EF06F0A4EF4E
:100CC80006F0030EB3C0D9FFB4C0DAFFDE26000E6B
:100CD800DD22B5C0D9FFB6C0DAFFDFCFB7F0020E0C
:100CE800DE26DFCFB8F0000EDD22B7C0D9FFB8C0CE
:100CF800DAFFDF50B96FB951CE6FCF6BD06BD16BC4
:100D0800D26BD36BD46BD56BB1C08AF0B2C08BF009
:100D1800CEC08CF0CFC08DF0D0C08EF0D1C08FF097
:100D2800D2C090F0D3C091F0D4C092F0D5C093F067
:100D38001CEC17F08AC0B1F08BC0B2F085EF09F057
:100D4800B3C0D9FFB4C0DAFFDECF6DF0DDCF6EF0EF
:100D5800E30E6F6FFF0E706F000E726F020E716FF1
:100D68009DEC22F000016D516E11D8A4BEEF06F083
:100D7800C0EF06F0E8EF06F0020EB3C0D9FFB4C02A
:100D8800DAFFDE26000EDD22B5C0D9FFB6C0DAFFD5
:100D9800DFCFB7F0020EDE26DFCFB8F0000EDD227F
:100DA800B7C0D9FFB8C0DAFFDECFB9F0DDCFBAF0EF
:100DB800B9C0CEF0BAC0CFF0D06BD16BD26BD36BC9
:100DC800D46BD56B88EF06F0B3C0D9FFB4C0DAFF97
:100DD800DECFF6FFDDCFF7FFF86A0800F550750A99
:100DE800D8A4F9EF06F0FBEF06F022EF07F0B3C046
:100DF800D9FFB4C0DAFFDE2A000EDD22B5C0D9FF64
:100E0800B6C0DAFFDFCFB7F0020EDE26DFCFB8F0CC
:100E1800000EDD22B7C0D9FFB8C0DAFFDECFB9F0C7
:100E2800DDCFBAF0B9C0CEF0BAC0CFF0D06BD16B7D
:100E3800D26BD36BD46BD56B88EF06F0B3C0D9FFF8
:100E4800B4C0DAFFDECF6DF0DDCF6EF0F90E6F6F54
:100E5800FF0E706F000E726F020E716F9DEC22F024
:100E680000016D516E11D8A43CEF07F03EEF07F07A
:100E780066EF07F0020EB3C0D9FFB4C0DAFFDE2672
:100E8800000EDD22B5C0D9FFB6C0DAFFDFCFB7F05C
:100E9800020EDE26DFCFB8F0000EDD22B7C0D9FF84
:100EA800B8C0DAFFDECFB9F0DDCFBAF0B9C0CEF006
:100EB800BAC0CFF0D06BD16BD26BD36BD46BD56B80
:100EC80088EF06F0B3C0D9FFB4C0DAFFDECF6DF00B
:100ED800DDCF6EF0E60E6F6FFF0E706F000E726F53
:100EE800030E716F9DEC22F000016D516E11D8B4A4
:100EF80080EF07F082EF07F09EEF07F0B3C0D9FF4D
:100F0800B4C0DAFFDECF6DF0DDCF6EF0CE0E6F6FBE
:100F1800FF0E706F000E726F030E716F9DEC22F062
:100F280000016D516E11D8A49CEF07F09EEF07F0F9
:100F3800F3EF07F0B3C0D9FFB4C0DAFFDECFB7F0E4
:100F4800DDCFB8F0020EB727000EB823B7C0F6FF02
:100F5800B8C0F7FFF86A0800F5CFCDF0030EB3C0AC
:100F6800D9FFB4C0DAFFDE26000EDD22B5C0D9FFF6
:100F7800B6C0DAFFDFCFB7F0020EDE26DFCFB8F05B
:100F8800000EDD22B7C0D9FFB8C0DAFFDF50B96F55
:100F9800B951CE6FCF6BD06BD16BD26BD36BD46B97
:100FA800D56BB1C08AF0B2C08BF0CEC08CF0CFC088
:100FB8008DF0D0C08EF0D1C08FF0D2C090F0D3C0E9
:100FC80091F0D4C092F0D5C093F0CDC094F056EC17
:100FD80013F08AC0B1F08BC0B2F085EF09F0B3C04E
:100FE800D9FFB4C0DAFFDECF6DF0DDCF6EF0E70ECB
:100FF8006F6FFF0E706F000E726F020E716F9DECB7
:1010080022F000016D516E11D8B40DEF08F00FEF0A
:1010180008F02BEF08F0B3C0D9FFB4C0DAFFDECF79
:101028006DF0DDCF6EF0CF0E6F6FFF0E706F000E9C
:10103800726F020E716F9DEC22F000016D516E11FE
:10104800D8A429EF08F02BEF08F067EF08F0B3C039
:10105800D9FFB4C0DAFFDECFB7F0DDCFB8F0010EAC
:10106800B727000EB823B7C0F6FFB8C0F7FFF86A75
:101078000800F5CFCDF0020EB3C0D9FFB4C0DAFF37
:10108800DE26000EDD22B5C0D9FFB6C0DAFFDFCFFD
:10109800B7F0020EDE26DFCFB8F0000EDD22B7C0B3
:1010A800D9FFB8C0DAFFDECFB9F0DDCFBAF0B9C0EA
:1010B800CEF0BAC0CFF0D06BD16BD26BD36BD46B00
:1010C800D56BD5EF07F0B3C0D9FFB4C0DAFFDECFD8
:1010D800F6FFDDCFF7FFF86A0800F550780AD8B4B4
:1010E80078EF08F07AEF08F08DEF08F0B3C0D9FF79
:1010F800B4C0DAFFDECFF6FFDDCFF7FFF86A0800ED
:10110800F550580AD8A48BEF08F08DEF08F0C0EF1F
:1011180008F0B3C0D9FFB4C0DAFFDECFF6FFDDCFE9
:10112800F7FFF86A0800F5CFCDF0B3C0D9FFB4C017
:10113800DAFFDE2A000EDD22B5C0D9FFB6C0DAFF1D
:10114800DFCFB7F0020EDE26DFCFB8F0000EDD22CB
:10115800B7C0D9FFB8C0DAFFDECFB9F0DDCFBAF03B
:10116800B9C0CEF0BAC0CFF0D06BD16BD26BD36B15
:10117800D46BD56BD5EF07F0B3C0D9FFB4C0DAFF95
:10118800DECF6DF0DDCF6EF0FC0E6F6FFF0E706F6F
:10119800000E726F020E716F9DEC22F000016D510E
:1011A8006E11D8B4DAEF08F0DCEF08F0F8EF08F0C9
:1011B800B3C0D9FFB4C0DAFFDECF6DF0DDCF6EF07B
:1011C800EA0E6F6FFF0E706F000E726F020E716F76
:1011D8009DEC22F000016D516E11D8A4F6EF08F0D5
:1011E800F8EF08F034EF09F0B3C0D9FFB4C0DAFF64
:1011F800DECFB7F0DDCFB8F0010EB727000EB82369
:10120800B7C0F6FFB8C0F7FFF86A0800F5CFCDF011
:10121800020EB3C0D9FFB4C0DAFFDE26000EDD220D
:10122800B5C0D9FFB6C0DAFFDFCFB7F0020EDE26B1
:10123800DFCFB8F0000EDD22B7C0D9FFB8C0DAFFA3
:10124800DECFB9F0DDCFBAF0B9C0CEF0BAC0CFF07A
:10125800D06BD16BD26BD36BD46BD56BD5EF07F05A
:10126800B3C0D9FFB4C0DAFFDECFF6FFDDCFF7FF9A
:10127800F86A0800F550250AD8A445EF09F047EFA9
:1012880009F05FEF09F0B3C0D9FFB4C0DAFFDE2A76
:10129800000EDD22000E706F250E6F6FB1C071F069
:1012A800B2C072F0EDEC23F0000E0001B26F010E37
:1012B800B16F85EF09F0B3C0D9FFB4C0DAFFDE2AF9
:1012C800000EDD22F3EF04F0B3C0D9FFB4C0DAFF9B
:1012D800DECFF6FFDDCFF7FFF86A0800F550000112
:1012E8006F6F706BB1C071F0B2C072F0EDEC23F0AB
:1012F800B3C0D9FFB4C0DAFFDE2A000EDD2258EFF2
:1013080009F012000450800B0D6E045004240F6E77
:1013180003AE91EF09F093EF09F094EF09F00F8015
:101328000F50D8B49AEF09F09CEF09F0B1EF09F02B
:101338000F28D8A4A2EF09F0A4EF09F0ACEF09F048
:10134800000E016E000E026E000E036E000E046E9B
:10135800038E000E046EB9EF09F0000E016E000E48
:10136800026E000E036E000E046E0850800B0E6EA7
:101378000D500E18D8B4C3EF09F0C5EF09F0C6EF49
:1013880009F00D8C085008240E6E07AECEEF09F058
:10139800D0EF09F0D1EF09F00E800E50D8B4D7EF96
:1013A80009F0D9EF09F0EEEF09F00E28D8A4DFEF25
:1013B80009F0E1EF09F0E9EF09F0000E056E000E03
:1013C800066E000E076E000E086E078E000E086E81
:1013D800F6EF09F0000E056E000E066E000E076EA1
:1013E800000E086E0F500E5CD8B0FDEF09F0FFEF4D
:1013F80009F026EF0AF00DAC04EF0AF006EF0AF048
:1014080008EF0AF0800E0D1A0FC010F00EC00FF092
:1014180010C00EF001C010F005C001F010C005F0BA
:1014280002C010F006C002F010C006F003C010F0B1
:1014380007C003F010C007F004C010F008C004F0A3
:1014480010C008F0000E106E0F500EC009F00A6AA6
:10145800095E000E0A5A0ABE3BEF0AF00A5009E17B
:101468001A0E095CD8A03BEF0AF03DEF0AF074EFC2
:101478000AF00150021003100410D8A446EF0AF035
:1014880049EF0AF0010E4AEF0AF0000E106E000E46
:10149800016E000E026E000E036E000E046E0EC08A
:1014A8000FF07DEF0AF010A05CEF0AF05EEF0AF093
:1014B80064EF0AF0D89010300109106E66EF0AF058
:1014C800D890103201A06BEF0AF06DEF0AF06EEFC2
:1014D8000AF0108E043404320332023201320F2A29
:1014E8000E500F5CD8A07BEF0AF07DEF0AF057EFA3
:1014F8000AF00DBC82EF0AF084EF0AF0C4EF0AF09C
:101508000F50D8A48AEF0AF08CEF0AF096EF0AF091
:10151800000E016E000E026E000E036E000E046EC9
:10152800E5EF0BF005500126065002220750032272
:101538000850042204A0A3EF0AF0A5EF0AF051EF27
:101548000BF010A0AAEF0AF0ACEF0AF0B2EF0AF025
:10155800D89010300109106EB4EF0AF0D89010320C
:1015680001A0B9EF0AF0BBEF0AF0BCEF0AF0108E49
:10157800043404320332023201320F2A51EF0BF0E5
:101588000550015C06500258075003580450800A61
:10159800096E0850800A0958D8B0D5EF0AF0D7EF7D
:1015A8000AF002EF0BF00150055C096E0250065874
:1015B8000A6E035007580B6E045008580C6EFF0E45
:1015C8000924016EFF0E0A20026EFF0E0B20036E27
:1015D800FF0E0C20046E800E0D1A106C1050D8A44B
:1015E800F8EF0AF0FAEF0AF00AEF0BF0010E012605
:1015F800000E0222032204220AEF0BF00550015EBE
:101608000650025A0750035A0850045A0150021053
:1016180003100410D8A413EF0BF015EF0BF04AEFEA
:101628000BF01050D8A41BEF0BF01DEF0BF04AEF96
:101638000BF0000E016E000E026E000E036E000E1F
:10164800046EE5EF0BF0D890013602360336043607
:1016580010AE31EF0BF033EF0BF034EF0BF00180ED
:1016680010A039EF0BF03BEF0BF03FEF0BF0D880F9
:10167800103641EF0BF0D89010360F50D8B447EF22
:101688000BF049EF0BF04AEF0BF00F0603AE4FEFEC
:101698000BF051EF0BF027EF0BF0000E0E6E10AEB3
:1016A80058EF0BF05AEF0BF072EF0BF010C009F087
:1016B8007F0E0916D8B463EF0BF065EF0BF069EFF6
:1016C8000BF0010E0E6E72EF0BF001A06EEF0BF037
:1016D80070EF0BF072EF0BF065EF0BF00E50D8B413
:1016E80078EF0BF07AEF0BF0A5EF0BF0010E012667
:1016F800000E02220322042204A085EF0BF087EFDC
:101708000BF0A5EF0BF001C009F002C00AF003C00E
:101718000BF004C00CF00C340C320B320A320932D4
:1017280009C001F00AC002F00BC003F00CC004F0BD
:101738000F28D8B4A2EF0BF0A4EF0BF0A5EF0BF035
:101748000F2A0F28D8B4ABEF0BF0ADEF0BF0B5EFC5
:101758000BF00F50D8A4B3EF0BF0B5EF0BF0C7EFB9
:101768000BF0000E016E000E026E000E036E000EEE
:10177800046E0F50D8A4C3EF0BF0C5EF0BF0C7EF02
:101788000BF0000E0D6E0FA0CCEF0BF0CEEF0BF0B0
:10179800D1EF0BF0038ED2EF0BF0039ED8900F30F1
:1017A800046E0DAEDAEF0BF0DCEF0BF0DDEF0BF0B3
:1017B800048E01C001F002C002F003C003F004C0AF
:1017C80004F01200010E00016E6F000E61EC29F0AA
:1017D800960E6AEC28F0EF0E00016E6F000E61ECB9
:1017E80029F0030E00016E6F010E61EC29F0800EE6
:1017F80000016E6F010E61EC29F0020E00016E6FA0
:10180800010E61EC29F0CF0E00016E6F000E61EC45
:1018180029F0000E00016E6F010E61EC29F0C10E77
:1018280000016E6F010E61EC29F0300E00016E6F41
:10183800010E61EC29F0ED0E00016E6F000E61ECF7
:1018480029F0640E00016E6F010E61EC29F0030EA1
:1018580000016E6F010E61EC29F0120E00016E6F2F
:10186800010E61EC29F0810E00016E6F010E61EC32
:1018780029F0E80E00016E6F000E61EC29F0850E6C
:1018880000016E6F010E61EC29F0000E00016E6F11
:10189800010E61EC29F0780E00016E6F010E61EC0B
:1018A80029F0CB0E00016E6F000E61EC29F0390EA5
:1018B80000016E6F010E61EC29F02C0E00016E6FB5
:1018C800010E61EC29F0000E00016E6F010E61EC53
:1018D80029F0340E00016E6F010E61EC29F0020E42
:1018E80000016E6F010E61EC29F0F70E00016E6FBA
:1018F800000E61EC29F0200E00016E6F010E61EC04
:1019080029F0EA0E00016E6F000E61EC29F0000E5E
:1019180000016E6F010E61EC29F0000E00016E6F80
:10192800010E61EC29F0C00E00016E6F000E61EC33
:1019380029F0230E00016E6F010E61EC29F0C10E33
:1019480000016E6F000E61EC29F0100E00016E6F41
:10195800010E61EC29F0C50E00016E6F000E61ECFE
:1019680029F03E0E00016E6F010E61EC29F0280E81
:1019780000016E6F010E61EC29F0C70E00016E6F59
:10198800000E61EC29F0860E00016E6F010E61EC0D
:1019980029F0360E00016E6F000E61EC29F0480E3A
:1019A80000016E6F010E61EC29F03A0E00016E6FB6
:1019B800000E61EC29F0550E00016E6F010E61EC0E
:1019C80029F0B10E00016E6F000E61EC29F0000ED7
:1019D80000016E6F010E61EC29F0180E00016E6FA8
:1019E800010E61EC29F0B60E00016E6F000E61EC7D
:1019F80029F0080E00016E6F010E61EC29F0820ECD
:101A080000016E6F010E61EC29F0270E00016E6F68
:101A1800010E61EC29F0F20E00016E6F000E61EC10
:101A280029F0000E00016E6F010E61EC29F0260E00
:101A380000016E6F000E61EC29F0010E00016E6F5F
:101A4800010E61EC29F0E00E00016E6F000E61ECF2
:101A580029F00F0E00016E6F010E61EC29F0310EB6
:101A680000016E6F010E61EC29F02B0E00016E6F04
:101A7800010E61EC29F00C0E00016E6F010E61EC95
:101A880029F00E0E00016E6F010E61EC29F0080EB0
:101A980000016E6F010E61EC29F04E0E00016E6FB1
:101AA800010E61EC29F0F10E00016E6F010E61EC80
:101AB80029F0370E00016E6F010E61EC29F0070E58
:101AC80000016E6F010E61EC29F0100E00016E6FBF
:101AD800010E61EC29F0030E00016E6F010E61EC3E
:101AE80029F00E0E00016E6F010E61EC29F0090E4F
:101AF80000016E6F010E61EC29F0000E00016E6F9F
:101B0800010E61EC29F0E10E00016E6F000E61EC30
:101B180029F0000E00016E6F010E61EC29F00E0E27
:101B280000016E6F010E61EC29F0140E00016E6F5A
:101B3800010E61EC29F0030E00016E6F010E61ECDD
:101B480029F0110E00016E6F010E61EC29F0070EED
:101B580000016E6F010E61EC29F0310E00016E6F0D
:101B6800010E61EC29F0C10E00016E6F010E61ECEF
:101B780029F0480E00016E6F010E61EC29F0080E85
:101B880000016E6F010E61EC29F00F0E00016E6FFF
:101B9800010E61EC29F00C0E00016E6F010E61EC74
:101BA80029F0310E00016E6F010E61EC29F0360E3E
:101BB80000016E6F010E61EC29F00F0E00016E6FCF
:101BC800010E61EC29F0110E00016E6F000E61EC40
:101BD80029F0780E6AEC28F0290E00016E6F000ECD
:101BE80061EC29F0780E6AEC28F0000E0001776F9E
:101BF800000E766F12EC25F012003150800B3A6E11
:101C080031503124406E30AE0CEF0EF00EEF0EF076
:101C18000FEF0EF040804050D8B415EF0EF017EFDC
:101C28000EF02AEF0EF04028D8A41DEF0EF01FEF9B
:101C38000EF027EF0EF0000E2E6E000E2F6E000E27
:101C4800306E000E316E308E32EF0EF0000E2E6EBA
:101C5800000E2F6E000E306E000E316E3550800B68
:101C68003A1A355035243F6E34AE3DEF0EF03FEF53
:101C78000EF040EF0EF03F803F50D8B446EF0EF024
:101C880048EF0EF05BEF0EF03F28D8A44EEF0EF0B1
:101C980050EF0EF058EF0EF0000E326E000E336E5D
:101CA800000E346E000E356E348E63EF0EF0000EAB
:101CB800326E000E336E000E346E000E356E3F50DD
:101CC800D8B469EF0EF06BEF0EF073EF0EF04050E2
:101CD800D8A471EF0EF073EF0EF07DEF0EF0000E4A
:101CE8002E6E000E2F6E000E306E000E316E15EF48
:101CF80010F034502E02F3CF45F0F4CF46F04550A3
:101D08003B6E3C6A3D6A3E6A4650416E426A436A8F
:101D1800446A33502F02F3CF45F0F4CF46F04550D4
:101D28003B26000E3C223D223E2246504126000E14
:101D380042224322442232503002F3CF45F0F4CFFE
:101D480046F045503B26000E3C223D223E2246509E
:101D58004126000E4222432244223DC03EF03CC0B0
:101D68003DF03BC03CF03B6A32502F02F3CF45F0C8
:101D7800F4CF46F045503B2646503C22000E3D220B
:101D8800000E3E2233502E02F3CF45F0F4CF46F03A
:101D980045503B2646503C22000E3D22000E3E2276
:101DA8003DC03EF03CC03DF03BC03CF03B6A325089
:101DB8002E02F3CF45F0F4CF46F045503B2646506F
:101DC8003C22000E3D22000E3E2234502F02F3CF5B
:101DD80045F0F4CF46F04550412646504222000EC9
:101DE8004322000E442233503002F3CF45F0F4CFA3
:101DF80046F04550412646504222000E4322000E2E
:101E0800442234503002F3CF45F0F4CF46F0455029
:101E1800366E4650376E386A396A38C039F037C07E
:101E280038F036C037F0366A3650412637504222ED
:101E380038504322395044223BC036F03CC037F07A
:101E48003DC038F03EC039F0190E30EF0FF0D89091
:101E58003932383237323632E82E2BEF0FF036501F
:101E680041263750422238504322395044223DC03F
:101E78003EF03CC03DF03BC03CF03B6A3F5040C0A8
:101E880036F0376A3626000E3722820E3624456E23
:101E9800FF0E3720466E66EF0FF0D8904136423677
:101EA800433644363EAE5BEF0FF05DEF0FF05EEF6A
:101EB8000FF04180D8903B363C363D363E364506DD
:101EC800D8A0460643AE6BEF0FF06DEF0FF051EF61
:101ED8000FF0000E3F6E3EAE74EF0FF076EF0FF08E
:101EE8009AEF0FF0FF0E3B14366EFF0E3C14376E60
:101EF800FF0E3D14386E7F0E3E14396E3650371083
:101F080038103910D8B48BEF0FF08DEF0FF091EF38
:101F18000FF0010E3F6E9AEF0FF041A096EF0FF011
:101F280098EF0FF09AEF0FF08DEF0FF03F50D8B405
:101F3800A0EF0FF0A2EF0FF0C6EF0FF0010E412651
:101F4800000E42224322442244A0ADEF0FF0AFEF2F
:101F58000FF0C6EF0FF041C036F042C037F043C073
:101F680038F044C039F03934393238323732363201
:101F780036C041F037C042F038C043F039C044F0B1
:101F8800454A462A46BED1EF0FF0465008E145289B
:101F9800D8A0D1EF0FF0D3EF0FF0DDEF0FF0000E68
:101FA800416E000E426E800E436E7F0E446E0BEF44
:101FB80010F046BEEAEF0FF0465006E14504D8B0EF
:101FC800E8EF0FF0EAEF0FF0F6EF0FF0000E416EBA
:101FD800000E426E000E436E000E446E000E3A6E06
:101FE8000BEF10F045C040F0FF0E4116FF0E4216F1
:101FF8007F0E4316000E441640A005EF10F007EFC1
:1020080010F008EF10F0438ED8904030446E3A50EC
:10201800441241C02EF042C02FF043C030F044C0FB
:1020280031F012004A50800B0001646F4A504A2474
:102038006B6F49AE22EF10F024EF10F025EF10F08F
:102048006B816B51D8B42BEF10F02DEF10F042EFED
:1020580010F06B29D8A433EF10F035EF10F03DEFF6
:1020680010F0000E476E000E486E000E496E000E0E
:102078004A6E498E000E4A6E4AEF10F0000E476E07
:10208800000E486E000E496E000E4A6E4E50800BD0
:10209800641B4E504E246C6F4DAE55EF10F057EF49
:1020A80010F058EF10F06C816C51D8B45EEF10F05E
:1020B80060EF10F075EF10F06C29D8A466EF10F0FF
:1020C80068EF10F070EF10F0000E4B6E000E4C6EC3
:1020D800000E4D6E000E4E6E4D8E000E4E6E7DEF54
:1020E80010F0000E4B6E000E4C6E000E4D6E000E82
:1020F8004E6E4B504C104D104E10D8A486EF10F079
:1021080088EF10F0A0EF10F0000E476E000E486E3A
:10211800000E496E000E4A6E800E49127F0E4A125A
:1021280064514A1247C047F048C048F049C049F0D6
:102138004AC04AF0E3EF11F06B51D8A4A6EF10F0B3
:10214800A8EF10F0B2EF10F0000E476E000E486EC8
:10215800000E496E000E4A6EE3EF11F06C516BC031
:102168004FF0506A4F5E000E505A7F0E4F24656F35
:10217800000E5020666F47C060F048C061F049C04B
:1021880062F04AC063F0000E476E000E486E000E03
:10219800496E000E4A6E000E676F000E686F000EE3
:1021A800696F000E6A6F000E6C6F13EF11F06C51BF
:1021B800D8B4E1EF10F0E3EF10F0FAEF10F0D89098
:1021C8006037613762376337D890473648364936C3
:1021D8004A366AAFF2EF10F0F4EF10F0F5EF10F0B6
:1021E8004780D8906737683769376A374B50605DE2
:1021F8004C5061594D5062594E506359D8A007EF61
:1022080011F009EF11F012EF11F06A8D4B50605F79
:102218004C50615B4D50625B4E50635B6C2B190EEA
:102228006C6519EF11F01BEF11F0DBEF10F0605146
:10223800611162116311D8B424EF11F026EF11F087
:102248003EEF11F067813EEF11F0D89047364836DF
:1022580049364A366AAF33EF11F035EF11F036EFF1
:1022680011F04780D8906737683769376A3765074C
:10227800D8A0660749AE43EF11F045EF11F029EFFA
:1022880011F0000E6C6F6AAF4CEF11F04EEF11F0C9
:1022980072EF11F0FF0E67154F6EFF0E6815506E46
:1022A800FF0E6915516E7F0E6A15526E4F50501011
:1022B80051105210D8B463EF11F065EF11F069EFC7
:1022C80011F0010E6C6F72EF11F047A06EEF11F074
:1022D80070EF11F072EF11F065EF11F06C51D8B496
:1022E80078EF11F07AEF11F09EEF11F0010E47260A
:1022F800000E482249224A224AA085EF11F087EFB2
:1023080011F09EEF11F047C04FF048C050F049C09F
:1023180051F04AC052F052345232513250324F3298
:102328004FC047F050C048F051C049F052C04AF081
:10233800654B662B66BFA9EF11F0665108E1652968
:10234800D8A0A9EF11F0ABEF11F0B6EF11F0000E25
:10235800666F6569000E476E000E486E000E496E86
:10236800000E4A6E66BFC3EF11F0665106E16505BF
:10237800D8B0C1EF11F0C3EF11F0D1EF11F0000E9A
:10238800666F000E656F000E476E000E486E000EF9
:10239800496E000E4A6E000E646F65C06BF06BA14B
:1023A800D8EF11F0DAEF11F0DDEF11F0498EDEEF22
:1023B80011F0499ED8906B314A6E94EF10F01200DC
:1023C8008CC0A4F08DC0A5F08EC0A6F08FC0A7F079
:1023D80090C0A8F091C0A9F092C0AAF093C0ABF049
:1023E8000001ABBFFAEF11F0FDEF11F0010EFEEFA7
:1023F80011F0000EA26FA36BA251A311D8B407EF7E
:1024080012F009EF12F019EF12F0AB1FAA1FA91F63
:10241800A81FA71FA61FA51FA46D000EA523A623EE
:10242800A723A823A923AA23AB23EBBF1EEF12F0EF
:1024380020EF12F021EF12F0EC93EBBF2EEF12F029
:10244800EB5106E1EA05D8B02CEF12F02EEF12F0AE
:1024580034EF12F0000E9F6F010E9E6F38EF12F0EE
:10246800EAC09EF0EBC09FF0E8C0A0F0E9C0A1F080
:10247800A251A311D8A443EF12F045EF12F04CEF8C
:1024880012F0ECA54AEF12F04CEF12F04FEF12F0F9
:10249800A007D8A0A107000EAD6F1F0EAC6F000EED
:1024A8000101326FD5EF12F0AC07D8A0AD07130EBB
:1024B800AC25D96E010EAD21DA6EA4C06DF0A5C0B1
:1024C8006EF0A6C06FF0A7C070F0A8C071F0A9C0E8
:1024D80072F0AAC073F0ABC074F00A0E756F000EEC
:1024E800766F000E776F000E786F000E796F000E12
:1024F8007A6F000E7B6F000E7C6F12EC1EF06DC0C1
:1025080094F06EC095F06FC096F070C097F071C0EF
:1025180098F072C099F073C09AF074C09BF094C0A0
:102528007FF096C080F079EC27F000017F51300FE2
:10253800DF6E9E07D8A09F07A007D8A0A107A4C058
:102548006DF0A5C06EF0A6C06FF0A7C070F0A8C06F
:1025580071F0A9C072F0AAC073F0ABC074F00A0E93
:10256800756F000E766F000E776F000E786F000E95
:10257800796F000E7A6F000E7B6F000E7C6F8CEC0B
:102588001CF06DC0A4F06EC0A5F06FC0A6F070C0BE
:10259800A7F071C0A8F072C0A9F073C0AAF074C007
:1025A800ABF00001ADBFE1EF12F0AD5108E1AC05B1
:1025B800D8A0E1EF12F0E3EF12F013EF13F0A451FB
:1025C800A511A611A711A811A911AA11AB11D8A478
:1025D800F0EF12F0F2EF12F058EF12F09FBFFFEF9A
:1025E80012F09F5106E19E05D8B0FDEF12F0FFEF03
:1025F80012F058EF12F0A1BF0AEF13F0A15108E151
:10260800A005D8A00AEF13F00CEF13F013EF13F0A6
:10261800ECB311EF13F013EF13F058EF12F0A251CF
:10262800A311D8A41AEF13F01CEF13F023EF13F043
:10263800ECA521EF13F023EF13F041EF13F0AC07F3
:10264800D8A0AD07A251A311D8A42DEF13F02FEFF6
:1026580013F035EF13F0000E9D6F2B0E9C6F39EFC2
:1026680013F0000E9D6F2D0E9C6F130EAC25D96EC6
:10267800010EAD21DA6E9CC0DFFF8AC07FF08BC0EF
:1026880080F0130EAC25816F010EAD21826FA0C0C2
:1026980083F0A1C084F053EC24F07FC08AF080C09E
:1026A8008BF012000001EBBF5CEF13F05EEF13F04C
:1026B8005FEF13F0EC93EBBF6CEF13F0EB5106E117
:1026C800EA05D8B06AEF13F06CEF13F072EF13F06D
:1026D800000EA26F010EA16F76EF13F0EAC0A1F011
:1026E800EBC0A2F0E8C0A3F0E9C0A4F0ECA97FEF2A
:1026F80013F081EF13F085EF13F0FE0EA327FF0E02
:10270800A4238CC0A5F08DC0A6F08EC0A7F08FC002
:10271800A8F090C0A9F091C0AAF092C0ABF093C005
:10272800ACF0000EAE6F1F0EAD6F000E0101326FE0
:1027380052EF14F0AD07D8A0AE070F0EA515AF6F76
:10274800B06BB0BFB1EF13F0B05109E10A0EAF5D45
:10275800D8A0B1EF13F0B3EF13F0BBEF13F0570E9F
:10276800AF25AF6F000EB021B06FC1EF13F0300E80
:10277800AF25AF6F000EB021B06FBF0E956FFF0E83
:10278800966F9451976F986B955197279651982308
:1027980098510AE11A0E975DD8A0D5EF13F0D8EF3B
:1027A80013F0010ED9EF13F0000E9D6F9E6B9D5133
:1027B8009E11D8B4E2EF13F0E4EF13F014EF14F025
:1027C8009F0E956FFF0E966F200EAF11976F000E3C
:1027D800B011986F955197279651982398510AE10F
:1027E8001A0E975DD8A0FBEF13F0FEEF13F0010E61
:1027F800FFEF13F0000E9F6FA06B9F51A011D8B48C
:1028080008EF14F00AEF14F014EF14F0AFC073F0EF
:10281800B0C074F0F4EC25F073C0AFF074C0B0F041
:10282800130E0001AD25D96E010EAE21DA6EAFC0D0
:10283800DFFFA107D8A0A207A307D8A0A407A5C0B7
:1028480095F0A6C096F0A7C097F0A8C098F0A9C0C8
:1028580099F0AAC09AF0ABC09BF0ACC09CF0050EF2
:102868003FEF14F0D8909C339B339A3399339833C5
:10287800973396339533E82E36EF14F095C0A5F0CC
:1028880096C0A6F097C0A7F098C0A8F099C0A9F084
:102898009AC0AAF09BC0ABF09CC0ACF00001AEBFE0
:1028A8005FEF14F0AE5109E1020EAD5DD8A05FEF05
:1028B80014F061EF14F091EF14F0A551A611A711CF
:1028C800A811A911AA11AB11AC11D8A46EEF14F07C
:1028D80070EF14F09EEF13F0A2BF7DEF14F0A25139
:1028E80006E1A105D8B07BEF14F07DEF14F09EEF60
:1028F80013F0A4BF88EF14F0A45108E1A305D8A0F1
:1029080088EF14F08AEF14F091EF14F0ECB38FEF26
:1029180014F091EF14F09EEF13F0ECA996EF14F079
:1029280098EF14F0AEEF14F0AD07D8A0AE07130E71
:10293800AD25D96E010EAE21DA6E94C0DFFFAD076A
:10294800D8A0AE07130EAD25D96E010EAE21DA6EF2
:10295800300EDF6E8AC07FF08BC080F0130EAD257D
:10296800816F010EAE21826FA3C083F0A4C084F0F2
:1029780053EC24F07FC08AF080C08BF012004EEC3C
:1029880029F013EC2AF0000EB8EC24F0E6EC0BF07A
:102998008150F290320E00016D6F540E6E6FF8EC9C
:1029A80029F0180E00016D6F540E6E6FF3EC29F0CC
:1029B800F28EF28C000E00018D6F3C0E8C6F000EB3
:1029C8008F6FDC0E8E6F250E906FFF0E916FFF0ECE
:1029D800936F9269000E956F000E946F70EC1FF064
:1029E800330E0101636F010E646F000E666F1E0ED9
:1029F800656FA00E676FFF0E686F9FEC28F0000EE2
:102A080000018D6F640E8C6F000E8F6FB40E8E6F89
:102A1800330E906F010E916FFF0E936F9269000E47
:102A2800956F000E946F70EC1FF0330E0101636F09
:102A3800010E646F000E666F1E0E656FC40E676F21
:102A4800FF0E686F9FEC28F0000E00018D6F640E7A
:102A58008C6F000E8F6FA00E8E6F330E906F010E6D
:102A6800916FFF0E936F9269000E956F000E946F31
:102A780070EC1FF0330E0101636F010E646F000EDE
:102A8800666F1E0E656FBA0E676FFF0E686F9FEC5C
:102A980028F0000E00018D6F640E8C6F000E8F6F92
:102AA8008C0E8E6F330E906F010E916FFF0E936F29
:102AB8009269000E956F000E946F70EC1FF0330E44
:102AC8000101636F010E646F000E666F1E0E656F65
:102AD800920E676FFF0E686F9FEC28F0000E0001E2
:102AE8008D6F640E8C6F000E8F6F780E8E6F330EA5
:102AF800906F010E916FFF0E936F9269000E956FA4
:102B0800000E946F70EC1FF0330E0101636F010E1D
:102B1800646F000E666F1E0E656F7D0E676FFF0E89
:102B2800686F00C169F101C16AF102C16BF103C1AB
:102B38006CF104C16DF105C16EF106C16FF107C1F9
:102B480070F19FEC28F0000E00018D6F640E8C6F01
:102B5800000E8F6F320E8E6F330E906F010E916FD5
:102B6800FF0E936F9269000E956F000E946F70ECD4
:102B78001FF015EC2AF0CAEC29F00009D8B4C7EF09
:102B880015F0C9EF15F0CBEF15F0C5EC1EF0330EBC
:102B98000101636F010E646F000E666F1E0E656F94
:102BA800620E676FFF0E686F00C169F101C16AF1BB
:102BB80002C16BF103C16CF104C16DF105C16EF185
:102BC80006C16FF107C170F1E2C071F1E3C072F1A3
:102BD800E4C073F1E5C074F158C075F159C076F1DD
:102BE8005AC077F15BC078F19FEC28F0000E000125
:102BF8008D6F640E8C6F000E8F6F190E8E6F330EF3
:102C0800906F010E916FFF0E936F9269000E956F92
:102C1800000E946F70EC1FF0BFEF15F042EF00F05C
:102C2800000E0001826F000E816F000E7B6F000E98
:102C38007A6F21EF16F0744B752B010E806F74C0FC
:102C4800F6FF75C0F7FF000EF86E0E0EF76403D09E
:102C58000800F55005D0F6CFE1FFF7CFE2FFE750C7
:102C6800200AD8B43AEF16F03CEF16F066EF16F0EB
:102C7800F70E0001766FFF0E776F74C0F6FF75C010
:102C8800F7FF000EF86E0E0EF76403D00800F5503B
:102C980005D0F6CFE1FFF7CFE2FFE7500001786FEC
:102CA800796B7651782777517923795109E1050EA7
:102CB800785DD8A062EF16F064EF16F066EF16F0B4
:102CC800000E806F80C07CF000017D6B7C517D110F
:102CD800D8A471EF16F073EF16F01FEF16F07DEF22
:102CE80016F0000E7B6F010E7A6F744B752BCCEFCC
:102CF80016F074C0F6FF75C0F7FF000EF86E0E0EE2
:102D0800F76403D00800F55005D0F6CFE1FFF7CF00
:102D1800E2FFE7500001766F776B7751000AD8B46D
:102D280098EF16F0CCEF16F076512B0AD8B479EF5D
:102D380016F0060AD8B475EF16F0CCEF16F081C07D
:102D48006DF082C06EF0000E706F0A0E6F6F26EC89
:102D580029F074C0F6FF75C0F7FF000EF86E0E0E6E
:102D6800F76403D00800F55005D0F6CFE1FFF7CFA0
:102D7800E2FFE7500001766F76516D5F000E6E5BE3
:102D8800300E6D25816F000E6E21826F79EF16F07F
:102D9800D00E766FFF0E776F74C0F6FF75C0F7FF21
:102DA800000EF86E0E0EF76403D00800F55005D03B
:102DB800F6CFE1FFF7CFE2FFE7500001786F796BBC
:102DC800765178277751792379510AE10A0E785D8F
:102DD800D8A0F1EF16F0F4EF16F0010EF5EF16F0AB
:102DE800000E7E6F7F6B7E517F11D8A4FEEF16F028
:102DF80000EF17F0A3EF16F07A517B11D8A407EF74
:102E080017F009EF17F017EF17F081C076F082C0BE
:102E180077F0761F771F764B772B76C074F077C0E4
:102E280075F01BEF17F081C074F082C075F01200C6
:102E38000001EBBF22EF17F024EF17F025EF17F092
:102E4800EC93EBBF32EF17F0EB5106E1EA05D8B08F
:102E580030EF17F032EF17F038EF17F0000E9D6FD4
:102E6800010E9C6F3CEF17F0EAC09CF0EBC09DF0A0
:102E7800E8C09EF0E9C09FF08CC0A0F08DC0A1F022
:102E88008EC0A2F08FC0A3F090C0A4F091C0A5F0AE
:102E980092C0A6F093C0A7F0000EA96F1F0EA86FEE
:102EA800000E0101326FD0EF17F0A807D8A0A907CC
:102EB800130EA825D96E010EA921DA6EA0C06DF0F7
:102EC800A1C06EF0A2C06FF0A3C070F0A4C071F0F2
:102ED800A5C072F0A6C073F0A7C074F00A0E756F93
:102EE800000E766F000E776F000E786F000E796F08
:102EF800000E7A6F000E7B6F000E7C6F84EC23F05F
:102F08006DC094F06EC095F06FC096F070C097F0E9
:102F180071C098F072C099F073C09AF074C09BF0B9
:102F280000019451300FDF6E9C07D8A09D079E07C3
:102F3800D8A09F07A0C06DF0A1C06EF0A2C06FF02E
:102F4800A3C070F0A4C071F0A5C072F0A6C073F061
:102F5800A7C074F00A0E756F000E766F000E776FBB
:102F6800000E786F000E796F000E7A6F000E7B6F7F
:102F7800000E7C6F24EC22F06DC0A0F06EC0A1F0B2
:102F88006FC0A2F070C0A3F071C0A4F072C0A5F029
:102F980073C0A6F074C0A7F00001A851A911D8B455
:102FA800D8EF17F0DAEF17F00AEF18F0A051A111D7
:102FB800A211A311A411A511A611A711D8A4E7EF76
:102FC80017F0E9EF17F059EF17F09DBFF6EF17F07C
:102FD8009D5106E19C05D8B0F4EF17F0F6EF17F015
:102FE80059EF17F09FBF01EF18F09F5108E19E05B8
:102FF800D8A001EF18F003EF18F00AEF18F0ECB3BF
:1030080008EF18F00AEF18F059EF17F08AC07FF0B0
:103018008BC080F0130EA825816F010EA921826F45
:103028009EC083F09FC084F053EC24F07FC08AF0E8
:1030380080C08BF0120000C111F001C112F002C172
:1030480013F003C114F004C115F005C116F006C150
:1030580017F007C118F013EC27F011C0E2F012C006
:10306800E3F013C0E4F014C0E5F090C132F091C170
:1030780033F092C134F093C135F0E2C02EF0E3C0D2
:103088002FF0E4C030F0E5C031F001EC0EF02EC0B6
:1030980047F02FC048F030C049F031C04AF0000E68
:1030A8004B6E000E4C6E200E4D6E410E4E6E16ECA1
:1030B80010F047C058F048C059F049C05AF04AC00B
:1030C8005BF0000E016E000E026EC80E036E420E1B
:1030D800046E58C005F059C006F05AC007F05BC02E
:1030E80008F0A2EC21F0D8B07CEF18F07EEF18F0D1
:1030F80088EF18F0000E586E000E596EC80E5A6E02
:10310800420E5B6E97EF18F05BBE8FEF18F08DEFF5
:1031180018F097EF18F0000E586E000E596E000E5A
:103128005A6E000E5B6E58C001F059C002F05AC0CA
:1031380003F05BC004F01FEC21F001C020F002C0D6
:1031480021F003C022F004C023F0010EECEC1AF0C9
:1031580020C02EF021C02FF022C030F023C031F063
:10316800140E326EAE0E336E230E346E410E356E73
:1031780001EC0EF02EC058F02FC059F030C05AF0B4
:1031880031C05BF058C001F059C002F05AC003F0DA
:103198005BC004F01FEC21F001C00BF002C00CF082
:1031A800B7EC28F0E2C001F0E3C002F0E4C003F09D
:1031B800E5C004F01FEC21F001C00BF002C00CF0D8
:1031C8009AEC27F00001F0510B5C0C50800A536E0A
:1031D800F151800A5358D8A0F4EF18F0F6EF18F020
:1031E800F7EF18F0898AE2C001F0E3C002F0E4C00A
:1031F80003F0E5C004F01FEC21F001C00BF002C0A1
:103208000CF09AEC27F00B500001EE5DEF51800AAC
:10321800536E0C50800A5358D8A015EF19F017EFC9
:1032280019F018EF19F0899A12000001EBBF1FEF8F
:1032380019F021EF19F022EF19F0EC93EBBF2FEF03
:1032480019F0EB5106E1EA05D8B02DEF19F02FEF90
:1032580019F035EF19F0000E9D6F010E9C6F39EFD4
:1032680019F0EAC09CF0EBC09DF0E8C0A0F0E9C0FE
:10327800A1F08CC0A2F08DC0A3F08EC0A4F08FC0C6
:10328800A5F090C0A6F091C0A7F092C0A8F093C096
:10329800A9F0000EAB6F1F0EAA6F000E0101326F6E
:1032A800000E00019F6F000E9E6FA0EF19F0AA0795
:1032B800D8A0AB07070EA2159E6F9F6B130EAA2509
:1032C800D96E010EAB21DA6E9E51300FDF6E9C076E
:1032D800D8A09D07A007D8A0A107A2C094F0A3C0BA
:1032E80095F0A4C096F0A5C097F0A6C098F0A7C026
:1032F80099F0A8C09AF0A9C09BF0040E8DEF19F0C0
:10330800D8909B339A3399339833973396339533C0
:103318009433E82E84EF19F094C0A2F095C0A3F07E
:1033280096C0A4F097C0A5F098C0A6F099C0A7F0E1
:103338009AC0A8F09BC0A9F0ABBFABEF19F0AB5196
:1033480008E1AA05D8A0ABEF19F0ADEF19F0DDEF51
:1033580019F0A251A311A411A511A611A711A81122
:10336800A911D8A4BAEF19F0BCEF19F05BEF19F066
:103378009DBFC9EF19F09D5106E19C05D8B0C7EF74
:1033880019F0C9EF19F05BEF19F0A1BFD4EF19F0EC
:10339800A15108E1A005D8A0D4EF19F0D6EF19F093
:1033A800DDEF19F0ECB3DBEF19F0DDEF19F05BEFAF
:1033B80019F0ECA9E2EF19F0E4EF19F0FBEF19F0BE
:1033C8009E519F11D8B4EBEF19F0EDEF19F0FBEF18
:1033D80019F0AA07D8A0AB07130EAA25D96E010EBB
:1033E800AB21DA6E300EDF6EA007D8A0A1078AC025
:1033F8007FF08BC080F0130EAA25816F010EAB21E0
:10340800826FA0C083F0A1C084F053EC24F07FC089
:103418008AF080C08BF0120000018B6F00018B5185
:10342800D8B419EF1AF01BEF1AF03DEF1AF086BF67
:1034380022EF1AF020EF1AF03DEF1AF083C087F060
:1034480084C088F085C089F086C08AF0871F881FED
:10345800891F8A1F872B000E882389238A2387C008
:103468008DF088C08EF089C08FF08AC090F045EF4B
:103478001AF083C08DF084C08EF085C08FF086C0AE
:1034880090F08351841185118611D8A44EEF1AF05B
:1034980050EF1AF05AEF1AF0000E836F000E846F87
:1034A800000E856F000E866FEBEF1AF0960E8C6F8C
:1034B80064EF1AF08C2BD89090338F338E338D3382
:1034C800000E8D15876F000E8E15886F000E8F15F4
:1034D800896FFE0E90158A6F8751881189118A119C
:1034E800D8A479EF1AF07BEF1AF05EEF1AF089EFA3
:1034F8001AF08C2B010E8D27000E8E238F2390231C
:10350800D89090338F338E338D33000E8D15876F9F
:10351800000E8E15886F000E8F15896FFF0E90159F
:103528008A6F8751881189118A11D8A49EEF1AF0E1
:10353800A0EF1AF07DEF1AF0A8EF1AF08C07D890D8
:103548008D378E378F3790378FBFADEF1AF0AFEFCB
:103558001AF0B7EF1AF0020E8C61B5EF1AF0B7EF58
:103568001AF0A2EF1AF08CB1BCEF1AF0BEEF1AF005
:10357800BFEF1AF08F9FD8908C338CC087F0886B80
:10358800896B8A6B87C08AF0896B886B876B8751D8
:103598008D1388518E1389518F138A5190138B5133
:1035A800D8B4D9EF1AF0DBEF1AF0E3EF1AF086BFC0
:1035B800E2EF1AF0E0EF1AF0E3EF1AF0908F8DC007
:1035C80083F08EC084F08FC085F090C086F0120022
:1035D800286E2850D8B4F3EF1AF0F5EF1AF017EF69
:1035E8001BF023BEFCEF1AF0FAEF1AF017EF1BF0EE
:1035F80020C024F021C025F022C026F023C027F0E7
:10360800241E251E261E271E242A000E25222622B9
:10361800272224C02AF025C02BF026C02CF027C072
:103628002DF01FEF1BF020C02AF021C02BF022C084
:103638002CF023C02DF02050211022102310D8A4E4
:1036480028EF1BF02AEF1BF034EF1BF0000E206E62
:10365800000E216E000E226E000E236EC5EF1BF0C9
:10366800960E296E3EEF1BF0292AD8902D322C3267
:103678002B322A32000E2A14246E000E2B14256ECB
:10368800000E2C14266EFE0E2D14276E24502510C5
:1036980026102710D8A453EF1BF055EF1BF038EF76
:1036A8001BF063EF1BF0292A010E2A26000E2B229D
:1036B8002C222D22D8902D322C322B322A32000E79
:1036C8002A14246E000E2B14256E000E2C14266E60
:1036D800FF0E2D14276E2450251026102710D8A46D
:1036E80078EF1BF07AEF1BF057EF1BF082EF1BF01F
:1036F8002906D8902A362B362C362D362CBE87EF45
:103708001BF089EF1BF091EF1BF0020E29608FEF81
:103718001BF091EF1BF07CEF1BF029B096EF1BF02C
:1037280098EF1BF099EF1BF02C9ED890293229C0F6
:1037380024F0256A266A276A24C027F0266A256AA3
:10374800246A24502A1225502B1226502C12275056
:103758002D122850D8B4B3EF1BF0B5EF1BF0BDEF16
:103768001BF023BEBCEF1BF0BAEF1BF0BDEF1BF044
:103778002D8E2AC020F02BC021F02CC022F02DC0A5
:1037880023F0120021EE89F010EE7DF0060EDBCF5B
:10379800E3FFE806FCE27AC088F07BC089F000010C
:1037A80088518911D8A4DBEF1BF0DDEF1BF0E1EFA6
:1037B8001BF07D0E886F000E896F88C06DF089C080
:1037C8006EF013EC28F06DC08CF06EC08DF0EAC07E
:1037D8008AF0EBC08BF000018BBFF5EF1BF0F7EF21
:1037E8001BF00CEF1CF08C518A5D8B51800A7C6FAA
:1037F8008D51800A7C59D8A004EF1CF006EF1CF00C
:1038080008EF1CF00CEF1CF08AC08CF08BC08DF018
:103818008CC08AF08DC08BF0E8C086F0E9C087F0D4
:10382800ECB119EF1CF01BEF1CF039EF1CF02AEF7C
:103838001CF0000E706F200E6F6F78C071F079C0A9
:1038480072F0EDEC23F000018C4B8D2B86518C5DD2
:103858008D51800A7C6F8751800A7C59D8A037EF38
:103868001CF039EF1CF01DEF1CF0000E856F000EE8
:10387800846F53EF1CF088C0D9FF89C0DAFFDF508E
:103888007C6F7C516F6F706B78C071F079C072F08B
:10389800EDEC23F00001884B892B844B852B8A5152
:1038A800845D8551800A7C6F8B51800A7C59D8A031
:1038B80060EF1CF062EF1CF03FEF1CF0ECA167EF2B
:1038C8001CF069EF1CF087EF1CF078EF1CF0000E7D
:1038D800706F200E6F6F78C071F079C072F0EDECE8
:1038E80023F000018C4B8D2B86518C5D8D51800A05
:1038F8007C6F8751800A7C59D8A085EF1CF087EF30
:103908001CF06BEF1CF08CC078F08DC079F01200C1
:10391800000E00017E6F7CBF96EF1CF094EF1CF048
:10392800A8EF1CF07C1F7B1F7A1F791F781F771F59
:10393800761F756D000E76237723782379237A23F3
:103948007B237C23010E7E6F74BFAFEF1CF0ADEFBD
:103958001CF0C1EF1CF0741F731F721F711F701FC2
:103968006F1F6E1F6D6D000E6E236F237023712302
:10397800722373237423010E7E1B20EE7FF0070E43
:10398800DE6AE806FDE27551761177117811791132
:103998007A117B117C11D8B4D4EF1CF0D6EF1CF04F
:1039A80028EF1DF0010E7D6FE4EF1CF0D8907537FD
:1039B80076377737783779377A377B377C377D2B87
:1039C8007CAFE9EF1CF0EBEF1CF0DAEF1CF0D890BD
:1039D8007F37803781378237833784378537863713
:1039E80075516D5D76516E5977516F59785170598F
:1039F800795171597A5172597B5173597C51745963
:103A0800D8A009EF1DF00BEF1DF01CEF1DF075514C
:103A18006D5F76516E5B77516F5B7851705B795152
:103A2800715B7A51725B7B51735B7C51745B7F81F4
:103A3800D8907C337B337A33793378337733763362
:103A480075337D2FEBEF1CF07E51D8B42EEF1DF0AF
:103A580030EF1DF040EF1DF0861F851F841F831F68
:103A6800821F811F801F7F6D000E80238123822388
:103A780083238423852386237FC06DF080C06EF066
:103A880081C06FF082C070F083C071F084C072F0A2
:103A980085C073F086C074F01200000E0001896FB3
:103AA800F5EF1DF0D8907A35F66E7B35F76EA90ED6
:103AB800F626F00EF722F86A000EF8220900F5CF74
:103AC80080F00900F5CF81F08951805F000E815B9D
:103AD80076518025726F77518121736F78C074F0A9
:103AE80079C075F058EC27F0000E00018A6F000EBF
:103AF8008B6F8951806F816BD89080378137D890D0
:103B08007A35F66E7B35F76EA90EF626F00EF7229B
:103B1800F86A000EF8220900F5CF82F00900F5CF07
:103B280083F0D890823783378051825F8151835BDD
:103B38008A51825F000E835B7A5182277B518323EF
:103B4800D89082378337A90E8225F66EF00E83212E
:103B5800F76EF86A000EF8220900F5CF84F0090024
:103B6800F5CF85F08BC086F0800E876F000E886FCA
:103B7800862BC2EF1DF0883588338733862FBFEF39
:103B88001DF00001845187178551881787518811C6
:103B9800D8B4D1EF1DF0D3EF1DF0DBEF1DF07CC0E2
:103BA80070F07DC071F09BEC29F0E1EF1DF07EC054
:103BB80070F07FC071F09BEC29F000018B2B070E91
:103BC8008B65E9EF1DF0EBEF1DF07DEF1DF08A2B03
:103BD800010E8A65F2EF1DF0F4EF1DF07BEF1DF08A
:103BE800892BD8907A35F66E7B35F76EA90EF626B6
:103BF800F00EF722F86A000EF8228951806F816B67
:103C08000900F550805D0900F5508159D8A00FEFE3
:103C18001EF011EF1EF056EF1DF01200000E00010D
:103C28007E6F74BF1CEF1EF01AEF1EF02EEF1EF011
:103C3800741F731F721F711F701F6F1F6E1F6D6DB2
:103C4800000E6E236F237023712372237323742352
:103C5800010E7E6F7CBF35EF1EF033EF1EF045EF8F
:103C68001EF07C1F7B1F7A1F791F781F771F761F16
:103C7800756D000E76237723782379237A237B23A7
:103C88007C23755176117711781179117A117B118E
:103C98007C11D8B452EF1EF054EF1EF09CEF1EF0CA
:103CA800010E7D6F62EF1EF0D89075377637773743
:103CB800783779377A377B377C377D2B7CAF67EF5E
:103CC8001EF069EF1EF058EF1EF075516D5D7651CC
:103CD8006E5977516F5978517059795171597A5194
:103CE80072597B5173597C517459D8A07EEF1EF0DC
:103CF80080EF1EF090EF1EF075516D5F76516E5B90
:103D080077516F5B7851705B7951715B7A51725B57
:103D18007B51735B7C51745BD8907C337B337A33F3
:103D2800793378337733763375337D2F69EF1EF027
:103D38007E51D8B4A2EF1EF0A4EF1EF0B4EF1EF02F
:103D4800741F731F721F711F701F6F1F6E1F6D6DA1
:103D5800000E6E236F237023712372237323742341
:103D68006DC06DF06EC06EF06FC06FF070C070F017
:103D780071C071F072C072F073C073F074C074F0E7
:103D88001200000E0101596F000E586F000E5B6F94
:103D9800000E5A6FD2EF1EF03AEC29F0CAEC29F067
:103DA8000009D8A4DAEF1EF0DCEF1EF0D0EF1EF009
:103DB800850E0101516FFE0E526F12EC29F03AEC9C
:103DC80029F00101586F3AEC29F00101596F580E9A
:103DD8000001746F010E756F14EC16F074C0F0F0EA
:103DE80075C0F1F0AE0E0101516FFF0E526FF0C0B9
:103DF80053F1F1C054F112EC29F0CC0E0101516FCE
:103E0800FE0E526F12EC29F03AEC29F001015A6FBC
:103E18003AEC29F001015B6F5A0E0001746F010E34
:103E2800756F14EC16F074C0EEF075C0EFF0AE0EBE
:103E38000101516FFF0E526FEEC053F1EFC054F104
:103E480012EC29F0460E0101516FFF0E526FF0C0BF
:103E580053F1F1C054F1EEC055F1EFC056F112EC38
:103E680029F0F90E0101516FFE0E526F12EC29F084
:103E78003AEC29F001015A6F3AEC29F001015B6F25
:103E88005A0E0001746F010E756F14EC16F00001E4
:103E980074C083F075C084F0000E84BFFF0E856F78
:103EA800866F010E10EC1AF083C090F184C091F176
:103EB80085C092F186C093F1AE0E0101516FFF0EDD
:103EC800526F90C153F191C154F192C155F193C110
:103ED80056F112EC29F01200F2EF1FF0000E00016B
:103EE8009D6F000E9C6F000E9B6F000E9A6F9CEFEB
:103EF8001FF0D8909C35F66E9D35F76EA90EF62604
:103F0800F00EF722F86A000EF8220900F5CF96F0B5
:103F18000900F5CF97F0D89096379737010E962776
:103F2800000E972396519C2797519D239A4B9B2BC4
:103F3800E00E966FFF0E976F90C0F6FF91C0F7FFE7
:103F4800000EF86E0E0EF76403D00800F55005D089
:103F5800F6CFE1FFF7CFE2FFE7500001986F996BCA
:103F6800965198279751992398519A5D99519B5941
:103F7800D8A0C1EF1FF0C3EF1FF07DEF1FF08CC07A
:103F880076F08DC077F08EC078F08FC079F09CC045
:103F98007AF09DC07BF092C07CF093C07DF094C015
:103FA8007EF095C07FF051EC1DF0D89000019C3553
:103FB800F66E9D35F76EA90EF626F00EF722F86A12
:103FC800000EF8220900F5CF96F00900F5CF97F01A
:103FD80096518C2797518D23904B912B90C0F6FFCB
:103FE80091C0F7FF000EF86E0E0EF76403D00800BC
:103FF800F55005D0F6CFE1FFF7CFE2FFE750000913
:10400800D8A409EF20F00BEF20F072EF1FF0120098
:10401800800E0101545DD8A014EF20F016EF20F0B7
:104028001EEF20F0000E096F4B0E086F51695269A0
:1040380098EF20F051C15DF152C15EF1545109E190
:10404800020E535DD8A02BEF20F02DEF20F039EFB2
:1040580020F0FF0E5325616FFF0E5421626F000E92
:10406800606F000E5F6F41EF20F0000E626F010E6F
:10407800616F000E606F010E5F6F5D0E0001D66FFD
:10408800010ED76F55C1D8F056C1D9F057C1DAF033
:1040980058C1DBF0C2EC25F0D6C05BF1D7C05CF1AB
:1040A800010153515411D8B45CEF20F05EEF20F0B9
:1040B80094EF20F05CBF63EF20F065EF20F094EF01
:1040C80020F0FF0E0001DE6FFF0EDF6F53C1E0F03E
:1040D80054C1E1F0DE51E027DF51E123E051010155
:1040E8005B5D0001E15101015C59D8A07EEF20F031
:1040F80080EF20F088EF20F0FF0E5325596FFF0E58
:1041080054215A6F8CEF20F05BC159F15CC15AF110
:1041180059515125D96E5A515221DA6E000EDF6E6F
:104128005BC151F15CC152F11200000E1B6E19BE49
:10413800A2EF20F0A0EF20F0ACEF20F0191E181E1F
:10414800171E166C000E172218221922010E1B6E5C
:1041580015BEB3EF20F0B1EF20F0BDEF20F0151E33
:10416800141E131E126C000E132214221522010EA7
:104178001B1A000E1C6E000E1D6E000E1E6E000E29
:104188001F6E1650171018101910D8B4CEEF20F063
:10419800D0EF20F006EF21F0010E1A6EDAEF20F0D2
:1041A800D89016361736183619361A2A19AEDFEF90
:1041B80020F0E1EF20F0D4EF20F0D8901C361D3627
:1041C8001E361F361650125C1750135818501458C4
:1041D80019501558D8A0F3EF20F0F5EF20F0FEEFB6
:1041E80020F01650125E1750135A1850145A1950CE
:1041F800155A1C80D89019321832173216321A2ED6
:10420800E1EF20F01B50D8B40CEF21F00EEF21F0B5
:1042180016EF21F01F1E1E1E1D1E1C6C000E1D22F7
:104228001E221F221CC012F01DC013F01EC014F065
:104238001FC015F01200033404340A6E0A50D8A4C3
:1042480028EF21F02AEF21F034EF21F0000E016E63
:10425800000E026E000E036E000E046EA1EF21F038
:1042680001C005F002C006F003C007F004C008F062
:10427800200E44EF21F0D89008320732063205327A
:10428800E82E3FEF21F00550096E038EFF0E011650
:10429800FF0E0216FF0E0316000E0416960E0A5E97
:1042A8000ABE5BEF21F059EF21F071EF21F00A50BF
:1042B800800A970FD8B063EF21F065EF21F067EF20
:1042C80021F02AEF21F0D890043203320232013271
:1042D8000A3E67EF21F089EF21F01F0E0A6477EF9D
:1042E80021F079EF21F081EF21F02AEF21F0D89029
:1042F80001360236033604360A060A50D8A487EF78
:1043080021F089EF21F07BEF21F00950D8B48FEF2D
:1043180021F091EF21F099EF21F0041E031E021EF7
:10432800016C000E02220322042201C001F002C027
:1043380002F003C003F004C004F01200000E0114E0
:10434800096E000E02140A6E800E03140B6E7F0EA7
:1043580004140C6E09500A100B100C10D8A4B7EFF7
:1043680021F0B9EF21F0C1EF21F0000E016E000E2F
:10437800026E000E036E000E046E000E0514096E28
:10438800000E06140A6E800E07140B6E7F0E0814BA
:104398000C6E09500A100B100C10D8A4D6EF21F09F
:1043A800D8EF21F0E0EF21F0000E056E000E066E4A
:1043B800000E076E000E086E04AEE5EF21F0E7EF81
:1043C80021F0F0EF21F0016C021ED8B0022A031E82
:1043D800D8B0032A800E045608AEF5EF21F0F7EFA7
:1043E80021F000EF22F0056C061ED8B0062A071E41
:1043F800D8B0072A800E0856000E011A000E021ABD
:10440800000E031A800E041A000E051A000E061A72
:10441800000E071A800E081A0550015C0650025853
:104428000750035808500458D8B01DEF22F01FEF6A
:1044380022F022EF22F0D89023EF22F0D880120049
:1044480020EE7DF0070EDE6AE806FDE200017551F8
:1044580076117711781179117A117B117C11D8B402
:1044680038EF22F03AEF22F08CEF22F0010E856F40
:1044780048EF22F0D890753776377737783779371D
:104488007A377B377C37852B7CAF4DEF22F04FEFA7
:1044980022F03EEF22F0D8907D377E377F37803785
:1044A800813782378337843775516D5D76516E5900
:1044B80077516F5978517059795171597A517259A8
:1044C8007B5173597C517459D8A06DEF22F06FEF6E
:1044D80022F080EF22F075516D5F76516E5B775157
:1044E8006F5B7851705B7951715B7A51725B7B516C
:1044F800735B7C51745B7D81D8907C337B337A33DA
:1045080079337833773376337533852F4FEF22F04D
:104518007DC06DF07EC06EF07FC06FF080C070F01F
:1045280081C071F082C072F083C073F084C074F0EF
:1045380012006DC074F06EC075F06FC076F070C078
:1045480077F000017107D8A07207712906E1722976
:10455800D8A4B1EF22F0B3EF22F0C0EF22F0000EA2
:104568006E6F000E6D6F12EF23F0744B752B764B48
:10457800772B7107D8A0720774C0F6FF75C0F7FFD4
:10458800F86A0800F5500009D8B4CDEF22F0CFEF53
:1045980022F0FEEF22F076C0F6FF77C0F7FFF86A48
:1045A8000800F5500009D8B4DCEF22F0DEEF22F065
:1045B800FEEF22F071517211D8B4E5EF22F0E7EF67
:1045C80022F0FEEF22F074C0F6FF75C0F7FFF86A1C
:1045D8000800F5CF73F076C0F6FF77C0F7FFF86AEA
:1045E8000800F5507319D8B4FCEF22F0FEEF22F062
:1045F800B9EF22F074C0F6FF75C0F7FFF86A08003B
:10460800F5CF73F076C0F6FF77C0F7FFF86A0800B9
:10461800F550735D6D6F6E6BD8A06E071200FF0EBC
:10462800166E0F0E176E000E186E000E196E000E25
:104638004DEC28F001C006F002C007F0086A096ACC
:10464800640E0A6E000E0B6E000E0C6E000E0D6EE0
:104658008DEC25F006C012F007C013F008C014F066
:1046680009C015F099EC20F012C020F013C021F019
:1046780014C022F015C023F0010EECEC1AF020C093
:1046880000F121C001F122C002F123C003F1FF0EA5
:10469800166E0F0E176E000E186E000E196E010EB4
:1046A8004DEC28F001C006F002C007F0086A096A5C
:1046B800640E0A6E000E0B6E000E0C6E000E0D6E70
:1046C8008DEC25F006C012F007C013F008C014F0F6
:1046D80009C015F099EC20F012C020F013C021F0A9
:1046E80014C022F015C023F0010EECEC1AF020C023
:1046F80004F121C005F122C006F123C007F1120020
:104708000001755176117711781179117A117B11A1
:104718007C11D8B492EF23F094EF23F0DCEF23F070
:10472800010E7D6FA2EF23F0D89075377637773773
:10473800783779377A377B377C377D2B7CAFA7EF93
:1047480023F0A9EF23F098EF23F075516D5D7651B2
:104758006E5977516F5978517059795171597A5109
:1047680072597B5173597C517459D8A0BEEF23F00C
:10477800C0EF23F0D0EF23F075516D5F76516E5B7B
:1047880077516F5B7851705B7951715B7A51725BCD
:104798007B51735B7C51745BD8907C337B337A3369
:1047A800793378337733763375337D2FA9EF23F058
:1047B8006DC06DF06EC06EF06FC06FF070C070F0BD
:1047C80071C071F072C072F073C073F074C074F08D
:1047D8001200000171517211D8B4F5EF23F0F7EF10
:1047E80023F000EF24F071517211D8A4FEEF23F0EA
:1047F80000EF24F005EF24F06F51E6EC29F052EFBA
:1048080024F020EE04F07151D9267251DA22DE50DC
:10481800DE10D8B412EF24F014EF24F02FEF24F0B8
:1048280020EE04F07151D9267251DA2210EE02F00E
:104838007151E1267251E222DE50E65CE650800AB0
:10484800776FDE50800A7759D8B02DEF24F02FEF1C
:1048580024F052EF24F020EE02F07151D926725163
:10486800DA22DECF73F0DDCF74F071C0D9FF72C0E9
:10487800DAFFDECF75F0DDCF76F073517525D96E8E
:1048880074517621DA6E6FC0DFFF20EE02F07151AD
:10489800D9267251DA22DE2A000EDD22120000012A
:1048A800ECA159EF24F05BEF24F065EF24F081C010
:1048B80078F082C079F07FC07AF080C07BF0EFECAE
:1048C80026F0000184BF6BEF24F06DEF24F073EF46
:1048D80024F083C088F084C089F077EF24F0000EBC
:1048E800896F000E886F000E876F000E866F8AEF43
:1048F80024F0000E706F200E6F6F7FC071F080C0C3
:1049080072F0EDEC23F00001864B872B8851865D11
:104918008751800A856F8951800A8559D8A097EFF9
:1049280024F099EF24F07DEF24F0ECB19EEF24F011
:10493800A0EF24F0AAEF24F081C078F082C079F0CB
:104948007FC07AF080C07BF0EFEC26F081C06DF07C
:1049580082C06EF013EC28F0000188516D257F6F3E
:1049680089516E21806F120000016E6FC6BABFEFC9
:1049780024F0C1EF24F011EF25F000016E51040D71
:10498800010EF326000EF422810EF324F66EFE0EBD
:10499800F420F76EF86A000EF8220800F5CFC7FF7A
:1049A8006E51040D810EF324F66EFE0EF420F76EA0
:1049B800F86A000EF8220800F5CFC6FF000EC56E93
:1049C8006E51040D020EF326000EF422810EF3241C
:1049D800F66EFE0EF420F76EF86A000EF822080054
:1049E800F5CFC8FF6E51040D030EF326000EF42216
:1049F800810EF324F66EFE0EF420F76EF86A000EB0
:104A0800F8220800F5CF6DF06D476D476D4794505B
:104A18006D19F70B6D19946EC68A1200010E00010C
:104A28007B6F400E7A6F000E796FF00E786F000E74
:104A3800736F000E726F000E756F000E746F58EC76
:104A480027F00009D8B42BEF25F02DEF25F047EF1C
:104A580025F055EF25F076C070F077C071F09BEC2B
:104A680029F000017A07D8A07B077A2906E17B297B
:104A7800D8A441EF25F043EF25F02FEF25F0010EE4
:104A88007B6F400E7A6F00017807D8A079077829E4
:104A980006E17929D8A453EF25F055EF25F035EF35
:104AA80025F01200DA0EF66E530EF76E000EF86E51
:104AB80001EE89F010EE0BF00900F5CFEEFFE5509E
:104AC800E150FAE1220EF66E540EF76E000EF86E03
:104AD80000EEEEF010EE04F00900F5CFEEFFE55021
:104AE800E150FAE101EE00F0510EEE6AE806FDE150
:104AF80000EEE2F00C0EEE6AE806FDE100EE58F07A
:104B0800070EEE6AE806FDE15F905F920001C3EFD1
:104B180014F0000E0E6E000E0F6E000E106E000EDA
:104B2800116E06A09AEF25F09CEF25F0A4EF25F072
:104B38000A500E260B500F220C5010220D50112235
:104B4800D8900A360B360C360D36D8900932083212
:104B5800073206320650071008100910D8A4B7EF1C
:104B680025F0B9EF25F095EF25F00EC006F00FC03F
:104B780007F010C008F011C009F01200D8C0DCF02E
:104B8800D9C0DDF0000E0001E76F000EE66FE0EF20
:104B980025F0D6C0B1F0D7C0B2F0DC0EB36F000E6E
:104BA800B46FDAC0B5F0DBC0B6F044EC00F0000139
:104BB800B151E627B251E723DCC0F6FFDDC0F7FFAD
:104BC800F86A0800F5500009D8A4EDEF25F0EFEFDA
:104BD80025F0CDEF25F0E6C0D6F0E7C0D7F01200FB
:104BE8009F0E0001756FFF0E766F73C077F074C06B
:104BF80078F0755177277651782378510AE11A0EA3
:104C0800775DD8A00AEF26F00DEF26F0010E0EEF23
:104C180026F0000E796F7A6B79517A11D8B417EFB4
:104C280026F019EF26F01FEF26F05F0E7315736F4D
:104C3800746B23EF26F073C073F074C074F0120025
:104C48000001E851E911D8A42CEF26F02EEF26F048
:104C580034EF26F0E8C08DF0E9C08EF03AEF26F088
:104C6800FF0EE8258D6FFF0EE9218E6F8CC013F1C2
:104C7800000E0101146F8AC07FF08BC080F0130E04
:104C88000001816F010E826F8DC083F08EC084F0A9
:104C980053EC24F07FC08AF080C08BF01200010E24
:104CA8000001736F200E6D196E11D8B45EEF26F0F7
:104CB80060EF26F079EF26F0F70E6F6FFF0E706F3A
:104CC8006DC071F06EC072F06F5171277051722310
:104CD800725109E1050E715DD8A075EF26F077EFE6
:104CE80026F079EF26F0000E736F73C06DF06E6BCF
:104CF80012000001715109E1F00E705DD8A087EF34
:104D080026F089EF26F08CEF26F0010EA3EF26F0AF
:104D18002A0E6E6F000E61EC29F0000171516E6F62
:104D2800010E61EC29F070C06EF0010E61EC29F003
:104D38002C0E00016E6F000E61EC29F0000E1200BF
:104D4800400E0001705D010E7159D8A0AEEF26F03B
:104D5800B0EF26F0B3EF26F0010ECAEF26F02B0EC7
:104D68006E6F000E61EC29F0000171516E6F010E3B
:104D780061EC29F070C06EF0010E61EC29F02C0E88
:104D880000016E6F000E61EC29F0000E1200000E9B
:104D98008D6E000E8C6E000E896E000E8A6E000EEF
:104DA8008B6E040E966E0F0E926E9368970E946E2D
:104DB800EF0E956E0F015D697D0E5C6F000E5B6FE7
:104DC800F18E5A89380E00016D6F540E6E6FF8EC33
:104DD80029F0F2861200000E00017E6F000E7D6F32
:104DE80002EF27F07CC06FF0706B7AC071F07BC067
:104DF80072F0EDEC23F000017D4B7E2B7D51782580
:104E0800D96E7E517921DA6EDF507C6F7C51D8A43F
:104E180010EF27F012EF27F0F6EF26F01200000E41
:104E2800151A000E161A000E171A800E181A11C03D
:104E380001F012C002F013C003F014C004F015C052
:104E480005F016C006F017C007F018C008F086EC89
:104E580009F001C011F002C012F003C013F004C041
:104E680014F01200080EA76E900EAB6E240EAC6EF6
:104E7800CF0EAF6E000E7D6E000E00016D6F000E3E
:104E88006E6F02EC2AF0000E00016D6F000E6E6F5F
:104E9800FDEC29F0000E00016D6F000E6E6F07EC3F
:104EA8002AF0000E5E6E120072C070F073C071F0CE
:104EB800A4EC26F00009D8A464EF27F066EF27F0E9
:104EC80074EF27F074C070F075C071F07DEC26F0B7
:104ED8000009D8B472EF27F074EF27F077EF27F0C6
:104EE800010E78EF27F0000E1200000180BF87EF57
:104EF80027F0805106E17F05D8B085EF27F087EFCE
:104F080027F095EF27F07FC081F080C082F0811FE5
:104F1800821F814B822B81C07FF082C080F099EF85
:104F280027F07FC07FF080C080F012000CBEA7EF92
:104F380027F00C5006E10B04D8B0A5EF27F0A7EF37
:104F480027F0B5EF27F00BC00DF00CC00EF00D1ECA
:104F58000E1E0D4A0E2A0DC00BF00EC00CF0B9EF54
:104F680027F00BC00BF00CC00CF012009F0E0001D4
:104F78006F6FFF0E706F200E6D11716F000E6E1146
:104F8800726F6F5171277051722372510AE11A0EB4
:104F9800715DD8A0D2EF27F0D5EF27F0010ED6EF3C
:104FA80027F0000E6D6F6E6B12009F0E00016F6F81
:104FB800FF0E706F6DC071F06EC072F06F51712787
:104FC8007051722372510AE11A0E715DD8A0EFEF89
:104FD80027F0F2EF27F0010EF3EF27F0000E6D6FC8
:104FE8006E6B1200BF0E00016F6FFF0E706F6DC009
:104FF80071F06EC072F06F51712770517223725147
:105008000AE11A0E715DD8A00CEF28F00FEF28F016
:10501800010E10EF28F0000E6D6F6E6B12006DC060
:105028006FF06EC070F01CEF28F000016D4B6E2B16
:105038006DC0D9FF6EC0DAFFDF50D8A426EF28F084
:1050480028EF28F019EF28F000016F516D5D6D6FA2
:1050580070516E596E6F1200D00E00016F6FFF0E07
:10506800706F6DC071F06EC072F06F517127705122
:10507800722372510AE10A0E715DD8A046EF28F03A
:1050880049EF28F0010E4AEF28F0000E6D6F6E6BA5
:105098001200056E05C003F003460346C25003180C
:1050A800830B0318C26EC280C282C2B25EEF28F0C0
:1050B80060EF28F059EF28F0C450046E036AC3501B
:1050C8000324016E000E0420026E120000016E6FB0
:1050D800000E00016F6F7CEF28F0030E00016D6F6A
:1050E800970EE82EFED76D2FFCD700D000016F2B4E
:1050F8006E516F5DD8A083EF28F085EF28F071EF2F
:1051080028F01200000EAA6E0B0ECF6EDC0ECE6ECB
:105118009E90CE50CFCF6DF000016E6B6DC06EF0DB
:105128006D6B6D110101856F00016E510101866F74
:10513800310ECD6E1200690E01017B6F010E7C6F7E
:1051480063C151F164C152F165C153F166C154F1B3
:1051580067C155F168C156F17B0E576F010E586F44
:105168000CEC20F012000BC00DF00CC00EF0D89023
:105178000E320D32D8900E320D320D50BC6E0BC06F
:105188000DF0030E0D160D3AF00E0D16BB50CF0B99
:105198000D10BB6E120001017D517E11D8B4D7EFFE
:1051A80028F0D9EF28F0E5EF28F002D8E5EF28F04D
:1051B8000500FA6E7D51FD6E7E51FE6EFF6AFA5053
:1051C80012001200010187518811D8B4EEEF28F0BF
:1051D800F0EF28F0FCEF28F002D8FCEF28F00500EB
:1051E800FA6E8751FD6E8851FE6EFF6AFA50120002
:1051F80012009E925C4A5D2A5D5009E10A0E5C5CD1
:10520800D8A009EF29F00BEF29F011EF29F0CFEC26
:1052180028F0000E5D6E000E5C6E1200530E000149
:10522800E06F010EE16F000ED66F000ED76F51C10F
:10523800D8F052C1D9F0E00EDA6F000EDB6FC2EC85
:1052480025F0120000016D516F03F3CF71F0F4CF18
:1052580072F06D517003F35072276E516F03F35063
:10526800722771C06DF072C06EF012009EAA3FEFF7
:1052780029F041EF29F03AEF29F0000E5E6EABA25B
:1052880048EF29F04AEF29F04CEF29F0AB98AB88AA
:10529800AE50120017EC2AF0D4EC29F0CBEC26F033
:1052A800DDEC29F0BFEC29F08DEC29F070EC29F049
:1052B80086EC28F036EC27F0120000016F6F000131
:1052C8006FB102D08D9001D08D808D9200016E510A
:1052D8007FEC29F08D821200CB68000ECC6E9E9276
:1052E8009D82360E00016D6F540E6E6FF3EC29F03F
:1052F800060ECA6E120000016D6F6DC0C9FF9EA632
:1053080088EF29F08AEF29F083EF29F09E96C9509B
:1053180012000C0EBB6E000EBF6E010E9C6E800E4E
:10532800BE6E000EBD6E000EBC6E9990120000019C
:1053380071516E6F010E61EC29F070C06EF0010EB4
:1053480061EC29F0120000016D6F9EA8AEEF29F004
:10535800B0EF29F0A9EF29F06DC0ADFF12000F01E1
:105368005AA9B9EF29F0BBEF29F0BDEF29F0E6EC17
:1053780028F0F2901200010EC26E800EC16EB50EBA
:10538800C06E000EC46E000EC36E12009EBACFEF40
:1053980029F0D2EF29F0010ED3EF29F0000E120008
:1053A800400EC76E000EC66E010EC86E9496C69A61
:1053B8001200600ED36E000ED26E000E9B6E000EB1
:1053C8009A6E120000016E6F00016E51A7EC29F071
:0D53D8001200286E756C6C29000000803FEB
:1053E6006DC07DF16EC07EF112006DC087F16EC09A
:1053F60088F112006DC081F16EC082F112006DC09D
:1054060083F16EC084F112006DC07FF16EC080F131
:10541600120013EC23F01FEC18F012000A0014001F
:10542600CA941200CA841200D09E12008150120043
:04543600120012004E
:10F0A8000004000000000000000000000000000054
:10F0B800000000030000000000FE001B000000002C
:10F0C8000005001E00000000000000000000001EF7
:10F0D800000000000000000B00000000001000010C
:10F0E8000010001D00F00003001E000100100001C8
:10F0F8000010001D00F00003001E000100100001B8
:10F1080000000000000900000004001C00080022A4
:10F1180000100042001000FF007F00420010008431
:10F1280000100000000F00000000000C001C000090
:10F13800002200100022000800220006001C000126
:10F1480000C000000020000E00180011000400118B
:10F15800000200110000000E00000000000B00007B
:10F1680000000000000E001C001100A2001000C2E8
:10F17800001000220011001C000A0000000C000012
:10F18800000C000000120000000000030000000056
:10F19800001E000000000000000600000000000043
:10F1A800000000E0001F001C00600002008000005A
:10F1B8000000000400000000000600C000F8003F46
:10F1C8000000000000060024000000180000007E77
:10F1D80000000018000000240000000000000009E2
:10F1E8000000000000800000008000000080000097
:10F1F80000F0000700800000008000000080000090
:10F208000000000000040000000000000060000092
:10F2180000180000000000050000000100000001C7
:10F2280000000001000000010000000000040000D0
:10F23800000000000018000000180000000000088E
:10F248000000000000000040000000380000000737
:10F2580000E00000001C00000002000000000000A8
:10F26800000900F80007000400080002001000026E
:10F27800001000020010000200100004000800F84E
:10F288000007000000000009000000000000000066
:10F298000000000000000000000000000002000064
:10F2A8000002000000FE001F000000000009001816
:10F2B80000100004001800020014000200120002EE
:10F2C80000110082001000440010003800100000F7
:10F2D800000000090008000C0004001000020010E3
:10F2E80000420010004200100044001000B800085E
:10F2F80000000007000000000009000000020000F4
:10F3080000030080000200600002001000020008F4
:10F31800000200FE001F00000002000000000009BB
:10F328000000000400700008002E001000220010E9
:10F33800002200100022001000420008008200078E
:10F34800000000000009000000000000000700C0E5
:10F3580000080060001000580010004400100082EF
:10F36800000800000007000000000009000000007D
:10F37800000200100002000C0002000300C200009E
:10F3880000320000000E0000000200000000000033
:10F3980000090000000700980008006400100042FF
:10F3A80000100042001000640010009800080000DF
:10F3B80000070000000000090000000000380000FD
:10F3C800004400100082000800820004008200034C
:10F3D8000084000000780000000000000004000025
:10F3E8000000003000180030001800000000000481
:10F3F800000000000030006000300018000000002D
:10F40800000A0000000000800000008000000040AA
:10F41800000100200002002000020010000400107B
:10F4280000040008000800000000000A00000000B6
:10F438000020000100200001002000010020000140
:10F448000020000100200001002000010020000130
:10F4580000000000000A000000000008000800107A
:10F4680000040010000400200002002000020040F8
:10F47800000100800000008000000000000000087B
:10F4880000000000000C00000082000100420002A1
:10F498000022001A0022001A009C0001000000004F
:10F4A800000E0000000000F0000300080004000443
:10F4B800000800C2001100220012001200120012FF
:10F4C800001200E2001100120012000400120008ED
:10F4D800000900F0000400000000000D000000001A
:10F4E800000000100000000E008000010060000114
:10F4F800001C000100020001001C00010060000166
:10F50800008000010000000E000000100000000054
:10F518000009000000000000000000FE001F00427B
:10F52800001000420010006400100098000800005D
:10F53800000700000000000D0000000000F00003BC
:10F548000008000400040008000200100002001077
:10F558000002001000020010000200100004000861
:10F56800000400080008000400000000000C00006F
:10F5780000000000000000FE001F00020010000252
:10F588000010000200100002001000020010000429
:10F5980000080008000400F0000300000000000953
:10F5A800000000000000000000FE001F00420010E4
:10F5B80000420010004200100042001000420010FB
:10F5C800000000000008000000000000000000FE2D
:10F5D800001F0042000000420000004200000042FC
:10F5E800000000000000000E0000000000F0000312
:10F5F80000080004000400080002001000020010C7
:10F6080000020010000200100082001000840010A8
:10F618000084000800880004008000030000000047
:10F62800000A000000000000000000FE001F00406B
:10F6380000000040000000400000004000000040C2
:10F64800000000FE001F0000000000040000000091
:10F658000000000000FE001F00000000000700007E
:10F66800000000000008000000100000001000006A
:10F67800000800FE0007000000000009000000006C
:10F688000000000000FE001F006000000090000164
:10F69800000800020004000C000200100000000036
:10F6A8000008000000000000000000FE001F00002D
:10F6B8000010000000100000001000000010000002
:10F6C8000000000F000000000000001C00F800030C
:10F6D800000600000038000000C000010000000E15
:10F6E800000000100000000E00C0000100380000FB
:10F6F8000006000000F800030000001C00000000E5
:10F70800000B000000000000000000FE001F0008C1
:10F7180000000030000000400000008000000000F1
:10F7280000030000000400FE001F00000000000E9F
:10F738000000000000F000030008000400040008B6
