:020000040000FA
:0400000042EF00F0DB
:100008004D82FACF0FF0FBCF10F0F3CF11F0F4CF01
:1000180012F0F2A612EF00F014EF00F01FEF00F05C
:10002800F2A019EF00F01BEF00F01FEF00F0A3ECB7
:100038001CF038EF00F0F2AC24EF00F026EF00F0EF
:1000480038EF00F09DAC2BEF00F02DEF00F038EF0B
:1000580000F09EAC32EF00F034EF00F038EF00F023
:1000680025EC1CF038EF00F012C0F4FF11C0F3FFCC
:1000780010C0FBFF0FC0FAFF4D92110005EF1AF0F8
:100088007EC0D9FF7FC0DAFFDECFF6FFDDCFF7FFF6
:10009800F86A0800F550250AD8A455EF00F057EF84
:1000A80000F065EF09F07EC0D9FF7FC0DAFFDE2AD5
:1000B800000EDD22000E406E000E3F6E3FC043F082
:1000C80040C044F041684268000E0001856F000E90
:1000D800846FB6EF00F043807EC0D9FF7FC0DAFF9F
:1000E800DE2A000EDD22B6EF00F0438270EF00F04A
:1000F800438470EF00F0438670EF00F0438870EFA0
:1001080000F0000E856F010E846FB6EF00F07EC020
:10011800D9FF7FC0DAFFDECFF6FFDDCFF7FFF86A41
:100128000800F550396E3A6A3A50000AD8B49FEF81
:1001380000F085EF00F03950200AD8B47FEF00F0C6
:10014800030AD8B482EF00F0080AD8B47CEF00F0B4
:10015800060AD8B46FEF00F01D0AD8B479EF00F0A2
:1001680085EF00F084518511D8B4BDEF00F0BFEFE2
:1001780000F08BEF00F043A0C4EF00F0C6EF00F0F2
:10018800C7EF00F043927EC0D9FF7FC0DAFFDECF11
:10019800F6FFDDCFF7FFF86A0800F5502A0AD8A461
:1001A800D8EF00F0DAEF00F003EF01F07EC0D9FFDE
:1001B8007FC0DAFFDE2A000EDD2280C0D9FF81C0B1
:1001C800DAFFDFCF39F0020EDE26DFCF3AF0000E7D
:1001D800DD2239C0D9FF3AC0DAFFDECF3FF0DDCFEC
:1001E80040F040BEFCEF00F0FAEF00F048EF01F0FD
:1001F80043803F6C401ED8B0402A48EF01F07EC0D3
:10020800D9FF7FC0DAFFDECF1AF0DDCF1BF01CEC80
:1002180010F01AC03FF01BC040F01AEF01F07EC08A
:10022800D9FF7FC0DAFFDE2A000EDD22D00E396E3C
:10023800FF0E3A6E7EC0D9FF7FC0DAFFDECFF6FF31
:10024800DDCFF7FFF86A0800F5503B6E3C6A39507D
:100258003B263A503C223C500AE10A0E3B5CD8A0AF
:1002680038EF01F03BEF01F0010E3CEF01F0000E1A
:100278000001866F876B86518711D8A446EF01F07D
:1002880048EF01F013EF01F07EC0D9FF7FC0DAFF1D
:10029800DECFF6FFDDCFF7FFF86A0800F5502E0A2B
:1002A800D8A459EF01F05BEF01F0DBEF01F0000E8D
:1002B800426E000E416E7EC0D9FF7FC0DAFFDE2A93
:1002C800000EDD227EC0D9FF7FC0DAFFDECFF6FF49
:1002D800DDCFF7FFF86A0800F5502A0AD8A477EFAF
:1002E80001F079EF01F096EF01F07EC0D9FF7FC0F1
:1002F800DAFFDE2A000EDD2280C0D9FF81C0DAFFD6
:10030800DFCF39F0020EDE26DFCF3AF0000EDD2215
:1003180039C0D9FF3AC0DAFFDECF41F0DDCF42F075
:10032800DBEF01F07EC0D9FF7FC0DAFFDECF1AF025
:10033800DDCF1BF01CEC10F01AC041F01BC042F0DE
:10034800ADEF01F07EC0D9FF7FC0DAFFDE2A000ED4
:10035800DD22D00E396EFF0E3A6E7EC0D9FF7FC007
:10036800DAFFDECFF6FFDDCFF7FFF86A0800F550B9
:100378003B6E3C6A39503B263A503C223C500AE1DD
:100388000A0E3B5CD8A0CBEF01F0CEEF01F0010ED6
:10039800CFEF01F0000E0001886F896B8851891139
:1003A800D8A4D9EF01F0DBEF01F0A6EF01F07EC091
:1003B800D9FF7FC0DAFFDECFF6FFDDCFF7FFF86A9F
:1003C8000800F550630AD8A4ECEF01F0EEEF01F055
:1003D80015EF02F07EC0D9FF7FC0DAFFDE2A000EDB
:1003E800DD2280C0D9FF81C0DAFFDFCF39F0020EED
:1003F800DE26DFCF3AF0000EDD2239C0D9FF3AC041
:10040800DAFFDF50946F7CC02EF07DC02FF094C0CF
:1004180030F0AFEC19F02EC07CF02FC07DF081EFEA
:1004280009F07EC0D9FF7FC0DAFFDECF13F0DDCF41
:1004380014F0D20E156EFF0E166E000E186E030E17
:10044800176EB0EC16F013501410D8B42EEF02F05B
:1004580030EF02F04BEF02F07EC0D9FF7FC0DAFF29
:10046800DECF13F0DDCF14F0D60E156EFF0E166E2C
:10047800000E186E030E176EB0EC16F01350141021
:10048800D8A449EF02F04BEF02F08CEF02F0030E14
:100498007EC0D9FF7FC0DAFFDE26000EDD2280C0D5
:1004A800D9FF81C0DAFFDFCF39F0020EDE26DFCFB9
:1004B8003AF0000EDD2239C0D9FF3AC0DAFFDF502A
:1004C80000018A6F000E8ABFFF0E8B6F8C6F8D6FD5
:1004D8008E6F8F6F906F916F7CC02EF07DC02FF064
:1004E8008AC030F08BC031F08CC032F08DC033F050
:1004F8008EC034F08FC035F090C036F091C037F020
:1005080045EC0BF02EC07CF02FC07DF081EF09F098
:100518007EC0D9FF7FC0DAFFDECF13F0DDCF14F045
:10052800D30E156EFF0E166E000E186E020E176EA5
:10053800B0EC16F013501410D8B4A5EF02F0A7EFE2
:1005480002F0C2EF02F07EC0D9FF7FC0DAFFDECF33
:1005580013F0DDCF14F0D70E156EFF0E166E000ED9
:10056800186E020E176EB0EC16F013501410D8A4C3
:10057800C0EF02F0C2EF02F0EAEF02F0020E7EC016
:10058800D9FF7FC0DAFFDE26000EDD2280C0D9FF4A
:1005980081C0DAFFDFCF39F0020EDE26DFCF3AF076
:1005A800000EDD2239C0D9FF3AC0DAFFDECF8AF06B
:1005B800DDCF8BF00001000E8BBFFF0E8C6F8D6FAF
:1005C8008E6F8F6F906F916F70EF02F07EC0D9FFC2
:1005D8007FC0DAFFDECFF6FFDDCFF7FFF86A08004D
:1005E800F550640AD8B4FBEF02F0FDEF02F010EF0B
:1005F80003F07EC0D9FF7FC0DAFFDECFF6FFDDCF84
:10060800F7FFF86A0800F550690AD8A40EEF03F05E
:1006180010EF03F037EF03F07EC0D9FF7FC0DAFF99
:10062800DE2A000EDD2280C0D9FF81C0DAFFDFCFCD
:1006380039F0020EDE26DFCF3AF0000EDD2239C097
:10064800D9FF3AC0DAFFDECF8AF0DDCF8BF00001A8
:10065800000E8BBFFF0E8C6F8D6F8E6F8F6F906F3C
:10066800916F70EF02F07EC0D9FF7FC0DAFFDECF56
:1006780013F0DDCF14F0ED0E156EFF0E166E000EA2
:10068800186E020E176EB0EC16F013501410D8B492
:1006980050EF03F052EF03F06DEF03F07EC0D9FF87
:1006A8007FC0DAFFDECF13F0DDCF14F0F00E156E49
:1006B800FF0E166E000E186E020E176EB0EC16F0D6
:1006C80013501410D8A46BEF03F06DEF03F096EFFE
:1006D80003F0020E7EC0D9FF7FC0DAFFDE26000ECF
:1006E800DD2280C0D9FF81C0DAFFDFCF39F0020EEA
:1006F800DE26DFCF3AF0000EDD2239C0D9FF3AC03E
:10070800DAFFDECF3BF0DDCF3CF03BC08AF03CC0E7
:100718008BF000018C6B8D6B8E6B8F6B906B916B7C
:1007280070EF02F07EC0D9FF7FC0DAFFDECF13F092
:10073800DDCF14F0DE0E156EFF0E166E000E186E6D
:10074800030E176EB0EC16F013501410D8A4AFEFC8
:1007580003F0B1EF03F0F1EF03F0030E7EC0D9FF11
:100768007FC0DAFFDE26000EDD2280C0D9FF81C0FF
:10077800DAFFDFCF39F0020EDE26DFCF3AF0000EC7
:10078800DD2239C0D9FF3AC0DAFFDF503B6E3B505B
:100798000001956F966B976B986B996B9A6B9B6B37
:1007A8009C6B7CC02EF07DC02FF095C030F096C0B9
:1007B80031F097C032F098C033F099C034F09AC045
:1007C80035F09BC036F09CC037F026EC0FF02EC0F9
:1007D8007CF02FC07DF081EF09F07EC0D9FF7FC08B
:1007E800DAFFDECF13F0DDCF14F0DF0E156EFF0E4B
:1007F800166E000E186E020E176EB0EC16F013503F
:100808001410D8A40AEF04F00CEF04F035EF04F04C
:10081800020E7EC0D9FF7FC0DAFFDE26000EDD2281
:1008280080C0D9FF81C0DAFFDFCF39F0020EDE26A3
:10083800DFCF3AF0000EDD2239C0D9FF3AC0DAFF27
:10084800DECF3BF0DDCF3CF03BC095F03CC096F0EE
:100858000001976B986B996B9A6B9B6B9C6BD5EFB0
:1008680003F07EC0D9FF7FC0DAFFDECFF6FFDDCF11
:10087800F7FFF86A0800F5506F0AD8A446EF04F0AD
:1008880048EF04F070EF04F07EC0D9FF7FC0DAFFB4
:10089800DE2A000EDD2280C0D9FF81C0DAFFDFCF5B
:1008A80039F0020EDE26DFCF3AF0000EDD2239C025
:1008B800D9FF3AC0DAFFDECF3BF0DDCF3CF03BC0DA
:1008C80095F03CC096F00001976B986B996B9A6B0A
:1008D8009B6B9C6BD5EF03F07EC0D9FF7FC0DAFF1E
:1008E800DECF13F0DDCF14F0F60E156EFF0E166E88
:1008F800000E186E020E176EB0EC16F0135014109E
:10090800D8A489EF04F08BEF04F0B4EF04F0020EE2
:100918007EC0D9FF7FC0DAFFDE26000EDD2280C050
:10092800D9FF81C0DAFFDFCF39F0020EDE26DFCF34
:100938003AF0000EDD2239C0D9FF3AC0DAFFDECF27
:100948003BF0DDCF3CF03BC095F03CC096F0000199
:10095800976B986B996B9A6B9B6B9C6BD5EF03F0BD
:100968007EC0D9FF7FC0DAFFDECF13F0DDCF14F0F1
:10097800DA0E156EFF0E166E000E186E030E176E49
:10098800B0EC16F013501410D8A4CDEF04F0CFEF4C
:1009980004F0F8EF04F0030E7EC0D9FF7FC0DAFF41
:1009A800DE26000EDD2280C0D9FF81C0DAFFDFCF4E
:1009B80039F0020EDE26DFCF3AF0000EDD2239C014
:1009C800D9FF3AC0DAFFDECF92F0DDCF93F092C0C4
:1009D800D9FF93C0DAFF3DC0DFFF000E00017D6F35
:1009E800000E7C6F81EF09F07EC0D9FF7FC0DAFF6F
:1009F800DECF13F0DDCF14F0DB0E156EFF0E166E92
:100A0800000E186E020E176EB0EC16F0135014108C
:100A1800D8A411EF05F013EF05F039EF05F0020E39
:100A28007EC0D9FF7FC0DAFFDE26000EDD2280C03F
:100A3800D9FF81C0DAFFDFCF39F0020EDE26DFCF23
:100A48003AF0000EDD2239C0D9FF3AC0DAFFDECF16
:100A580092F0DDCF93F092C0D9FF93C0DAFF3DC08A
:100A6800DEFF3EC0DDFFF1EF04F07EC0D9FF7FC09E
:100A7800DAFFDECFF6FFDDCFF7FFF86A0800F550A2
:100A88006E0AD8A44AEF05F04CEF05F071EF05F0B7
:100A98007EC0D9FF7FC0DAFFDE2A000EDD2280C0CB
:100AA800D9FF81C0DAFFDFCF39F0020EDE26DFCFB3
:100AB8003AF0000EDD2239C0D9FF3AC0DAFFDECFA6
:100AC80092F0DDCF93F092C0D9FF93C0DAFF3DC01A
:100AD800DEFF3EC0DDFFF1EF04F07EC0D9FF7FC02E
:100AE800DAFFDECF13F0DDCF14F0F30E156EFF0E34
:100AF800166E000E186E020E176EB0EC16F013503C
:100B08001410D8A48AEF05F08CEF05F0B2EF05F0C9
:100B1800020E7EC0D9FF7FC0DAFFDE26000EDD227E
:100B280080C0D9FF81C0DAFFDFCF39F0020EDE26A0
:100B3800DFCF3AF0000EDD2239C0D9FF3AC0DAFF24
:100B4800DECF92F0DDCF93F092C0D9FF93C0DAFFE9
:100B58003DC0DEFF3EC0DDFFF1EF04F07EC0D9FFEF
:100B68007FC0DAFFDECFF6FFDDCFF7FFF86A0800B7
:100B7800F550700AD8A4C3EF05F0C5EF05F009EFEA
:100B880006F07EC0D9FF7FC0DAFFDE2A000EDD2224
:100B980080C0D9FF81C0DAFFDFCF39F0020EDE2630
:100BA800DFCF3AF0000EDD2239C0D9FF3AC0DAFFB4
:100BB800DECF3BF0DDCF3CF03BC095F03CC096F07B
:100BC8000001976B986B996B9A6B9B6B9C6B7CC0C5
:100BD8002EF07DC02FF095C030F096C031F097C050
:100BE80032F098C033F099C034F09AC035F09BC009
:100BF80036F09CC037F0780E386EB6EC0CF02EC08C
:100C08007CF02FC07DF081EF09F07EC0D9FF7FC056
:100C1800DAFFDECFF6FFDDCFF7FFF86A0800F55000
:100C2800730AD8A41AEF06F01CEF06F047EF06F097
:100C38007EC0D9FF7FC0DAFFDE2A000EDD2280C029
:100C4800D9FF81C0DAFFDFCF39F0020EDE26DFCF11
:100C58003AF0000EDD2239C0D9FF3AC0DAFFDECF04
:100C680082F0DDCF83F07CC01CF07DC01DF082C017
:100C78001EF083C01FF0ADEC11F01CC07CF01DC04D
:100C88007DF081EF09F07EC0D9FF7FC0DAFFDECFAB
:100C980013F0DDCF14F0E20E156EFF0E166E000E87
:100CA800186E030E176EB0EC16F013501410D8A47B
:100CB80060EF06F062EF06F0A2EF06F0030E7EC0CA
:100CC800D9FF7FC0DAFFDE26000EDD2280C0D9FF03
:100CD80081C0DAFFDFCF39F0020EDE26DFCF3AF02F
:100CE800000EDD2239C0D9FF3AC0DAFFDF503B6E73
:100CF8003B500001956F966B976B986B996B9A6B4D
:100D08009B6B9C6B7CC02EF07DC02FF095C030F0A3
:100D180096C031F097C032F098C033F099C034F0E3
:100D28009AC035F09BC036F09CC037F023EC0EF02B
:100D38002EC07CF02FC07DF081EF09F07EC0D9FF76
:100D48007FC0DAFFDECF13F0DDCF14F0E30E156EAF
:100D5800FF0E166E000E186E020E176EB0EC16F02F
:100D680013501410D8A4BBEF06F0BDEF06F0E6EF61
:100D780006F0020E7EC0D9FF7FC0DAFFDE26000E25
:100D8800DD2280C0D9FF81C0DAFFDFCF39F0020E43
:100D9800DE26DFCF3AF0000EDD2239C0D9FF3AC097
:100DA800DAFFDECF3BF0DDCF3CF03BC095F03CC036
:100DB80096F00001976B986B996B9A6B9B6B9C6B89
:100DC80086EF06F07EC0D9FF7FC0DAFFDECFF6FFE0
:100DD800DDCFF7FFF86A0800F550750AD8A4F7EFD9
:100DE80006F0F9EF06F021EF07F07EC0D9FF7FC0CB
:100DF800DAFFDE2A000EDD2280C0D9FF81C0DAFFCB
:100E0800DFCF39F0020EDE26DFCF3AF0000EDD220A
:100E180039C0D9FF3AC0DAFFDECF3BF0DDCF3CF076
:100E28003BC095F03CC096F00001976B986B996BAE
:100E38009A6B9B6B9C6B86EF06F07EC0D9FF7FC0D8
:100E4800DAFFDECF13F0DDCF14F0F90E156EFF0ECA
:100E5800166E000E186E020E176EB0EC16F01350D8
:100E68001410D8A43AEF07F03CEF07F065EF07F04D
:100E7800020E7EC0D9FF7FC0DAFFDE26000EDD221B
:100E880080C0D9FF81C0DAFFDFCF39F0020EDE263D
:100E9800DFCF3AF0000EDD2239C0D9FF3AC0DAFFC1
:100EA800DECF3BF0DDCF3CF03BC095F03CC096F088
:100EB8000001976B986B996B9A6B9B6B9C6B86EF99
:100EC80006F07EC0D9FF7FC0DAFFDECF13F0DDCF9A
:100ED80014F0E60E156EFF0E166E000E186E030E59
:100EE800176EB0EC16F013501410D8B47EEF07F05C
:100EF80080EF07F09BEF07F07EC0D9FF7FC0DAFFD5
:100F0800DECF13F0DDCF14F0CE0E156EFF0E166E89
:100F1800000E186E030E176EB0EC16F01350141076
:100F2800D8A499EF07F09BEF07F0F1EF07F07EC028
:100F3800D9FF7FC0DAFFDECF39F0DDCF3AF0020EFD
:100F48003926000E3A2239C0F6FF3AC0F7FFF86A90
:100F58000800F5CF94F0030E7EC0D9FF7FC0DAFFFA
:100F6800DE26000EDD2280C0D9FF81C0DAFFDFCF88
:100F780039F0020EDE26DFCF3AF0000EDD2239C04E
:100F8800D9FF3AC0DAFFDF503B6E3B500001956F46
:100F9800966B976B986B996B9A6B9B6B9C6B7CC0F1
:100FA8002EF07DC02FF095C030F096C031F097C07C
:100FB80032F098C033F099C034F09AC035F09BC035
:100FC80036F09CC037F094C038F0B6EC0CF02EC068
:100FD8007CF02FC07DF081EF09F07EC0D9FF7FC083
:100FE800DAFFDECF13F0DDCF14F0E70E156EFF0E3B
:100FF800166E000E186E020E176EB0EC16F0135037
:101008001410D8B40AEF08F00CEF08F027EF08F036
:101018007EC0D9FF7FC0DAFFDECF13F0DDCF14F03A
:10102800CF0E156EFF0E166E000E186E020E176E9E
:10103800B0EC16F013501410D8A425EF08F027EFE1
:1010480008F064EF08F07EC0D9FF7FC0DAFFDECF7A
:1010580039F0DDCF3AF0010E3926000E3A2239C0B8
:10106800F6FF3AC0F7FFF86A0800F5CF94F0020ED1
:101078007EC0D9FF7FC0DAFFDE26000EDD2280C0E9
:10108800D9FF81C0DAFFDFCF39F0020EDE26DFCFCD
:101098003AF0000EDD2239C0D9FF3AC0DAFFDECFC0
:1010A8003BF0DDCF3CF03BC095F03CC096F0000132
:1010B800976B986B996B9A6B9B6B9C6BD3EF07F054
:1010C8007EC0D9FF7FC0DAFFDECFF6FFDDCFF7FFA6
:1010D800F86A0800F550780AD8B475EF08F077EF89
:1010E80008F08AEF08F07EC0D9FF7FC0DAFFDECFB4
:1010F800F6FFDDCFF7FFF86A0800F550580AD8A4C4
:1011080088EF08F08AEF08F0BEEF08F07EC0D9FF3C
:101118007FC0DAFFDECFF6FFDDCFF7FFF86A080001
:10112800F5CF94F07EC0D9FF7FC0DAFFDE2A000E2B
:10113800DD2280C0D9FF81C0DAFFDFCF39F0020E8F
:10114800DE26DFCF3AF0000EDD2239C0D9FF3AC0E3
:10115800DAFFDECF3BF0DDCF3CF03BC095F03CC082
:1011680096F00001976B986B996B9A6B9B6B9C6BD5
:10117800D3EF07F07EC0D9FF7FC0DAFFDECF13F0D0
:10118800DDCF14F0FC0E156EFF0E166E000E186EF5
:10119800020E176EB0EC16F013501410D8B4D7EF37
:1011A80008F0D9EF08F0F4EF08F07EC0D9FF7FC04F
:1011B800DAFFDECF13F0DDCF14F0EA0E156EFF0E66
:1011C800166E000E186E020E176EB0EC16F0135065
:1011D8001410D8A4F2EF08F0F4EF08F031EF09F09A
:1011E8007EC0D9FF7FC0DAFFDECF39F0DDCF3AF01D
:1011F800010E3926000E3A2239C0F6FF3AC0F7FF31
:10120800F86A0800F5CF94F0020E7EC0D9FF7FC0BF
:10121800DAFFDE26000EDD2280C0D9FF81C0DAFFAA
:10122800DFCF39F0020EDE26DFCF3AF0000EDD22E6
:1012380039C0D9FF3AC0DAFFDECF3BF0DDCF3CF052
:101248003BC095F03CC096F00001976B986B996B8A
:101258009A6B9B6B9C6BD3EF07F07EC0D9FF7FC066
:10126800DAFFDECFF6FFDDCFF7FFF86A0800F550AA
:10127800250AD8A442EF09F044EF09F05CEF09F021
:101288007EC0D9FF7FC0DAFFDE2A000EDD22000E05
:10129800146E250E136E7CC015F07DC016F08DEC13
:1012A80017F0000E00017D6F010E7C6F81EF09F0D1
:1012B8007EC0D9FF7FC0DAFFDE2A000EDD22F1EF03
:1012C80004F07EC0D9FF7FC0DAFFDECFF6FFDDCFA6
:1012D800F7FFF86A0800F550136E146A7CC015F021
:1012E8007DC016F08DEC17F07EC0D9FF7FC0DAFF05
:1012F800DE2A000EDD2255EF09F01200010E146EF1
:10130800000E97EC1CF0960E0EEC1CF0EF0E146E0F
:10131800000E97EC1CF0030E146E010E97EC1CF0F7
:10132800800E146E010E97EC1CF0020E146E010E66
:1013380097EC1CF0CF0E146E000E97EC1CF0000E0C
:10134800146E010E97EC1CF0C10E146E010E97EC92
:101358001CF0300E146E010E97EC1CF0ED0E146E9E
:10136800000E97EC1CF0640E146E010E97EC1CF046
:10137800030E146E010E97EC1CF0120E146E010E83
:1013880097EC1CF0810E146E010E97EC1CF0E80E21
:10139800146E000E97EC1CF0850E146E010E97EC7F
:1013A8001CF0000E146E010E97EC1CF0780E146EF3
:1013B800010E97EC1CF0CB0E146E000E97EC1CF08F
:1013C800390E146E010E97EC1CF02C0E146E010EE3
:1013D80097EC1CF0000E146E010E97EC1CF0340E06
:1013E800146E010E97EC1CF0020E146E010E97ECB1
:1013F8001CF0F70E146E000E97EC1CF0200E146E05
:10140800010E97EC1CF0EA0E146E000E97EC1CF01F
:10141800000E146E010E97EC1CF0000E146E010EF7
:1014280097EC1CF0C00E146E000E97EC1CF0230E07
:10143800146E010E97EC1CF0C10E146E000E97ECA2
:101448001CF0100E146E010E97EC1CF0C50E146EF5
:10145800000E97EC1CF03E0E146E010E97EC1CF07B
:10146800280E146E010E97EC1CF0C70E146E000EB9
:1014780097EC1CF0860E146E010E97EC1CF0360EDD
:10148800146E000E97EC1CF0480E146E010E97ECCB
:101498001CF03A0E146E000E97EC1CF0550E146EEC
:1014A800010E97EC1CF0B10E146E000E97EC1CF0B8
:1014B800000E146E010E97EC1CF0180E146E010E3F
:1014C80097EC1CF0B60E146E000E97EC1CF0080E8C
:1014D800146E010E97EC1CF0820E146E010E97EC40
:1014E8001CF0270E146E010E97EC1CF0F20E146E11
:1014F800000E97EC1CF0000E146E010E97EC1CF019
:10150800260E146E000E97EC1CF0010E146E010EE0
:1015180097EC1CF0E00E146E000E97EC1CF00F0E0A
:10152800146E010E97EC1CF0310E146E010E97EC40
:101538001CF02B0E146E010E97EC1CF00C0E146EA2
:10154800010E97EC1CF00E0E146E010E97EC1CF0B9
:10155800080E146E010E97EC1CF04E0E146E010E60
:1015680097EC1CF0F10E146E010E97EC1CF0370E80
:10157800146E010E97EC1CF0070E146E010E97EC1A
:101588001CF0100E146E010E97EC1CF0030E146E76
:10159800010E97EC1CF00E0E146E010E97EC1CF069
:1015A800090E146E010E97EC1CF0000E146E010E5D
:1015B80097EC1CF0E10E146E000E97EC1CF0000E78
:1015C800146E010E97EC1CF00E0E146E010E97ECC3
:1015D8001CF0140E146E010E97EC1CF0030E146E22
:1015E800010E97EC1CF0110E146E010E97EC1CF016
:1015F800070E146E010E97EC1CF0310E146E010EDE
:1016080097EC1CF0C10E146E010E97EC1CF0480EFE
:10161800146E010E97EC1CF0080E146E010E97EC78
:101628001CF00F0E146E010E97EC1CF00C0E146ECD
:10163800010E97EC1CF0310E146E010E97EC1CF0A5
:10164800360E146E010E97EC1CF00F0E146E010E80
:1016580097EC1CF0110E146E000E97EC1CF0780E2F
:101668000EEC1CF0290E146E000E97EC1CF0780E90
:101678000EEC1CF0000E1D6E000E1C6E0DEC19F029
:10168800120030C070F031C071F032C072F033C057
:1016980073F034C074F035C075F036C076F037C0DA
:1016A80077F0000177BF5BEF0BF05EEF0BF0010EF8
:1016B8005FEF0BF0000E6E6F6F6B6E516F11D8B449
:1016C80068EF0BF06AEF0BF07AEF0BF0771F761FDD
:1016D800751F741F731F721F711F706D000E7123A9
:1016E80072237323742375237623772342BE7FEFF7
:1016F8000BF081EF0BF082EF0BF0439242BE8FEFBD
:101708000BF0425006E14104D8B08DEF0BF08FEF9B
:101718000BF095EF0BF0000E6B6F010E6A6F99EFEF
:101728000BF041C06AF042C06BF03FC06CF040C0A3
:101738006DF06E516F11D8A4A4EF0BF0A6EF0BF06B
:10174800ADEF0BF043A4ABEF0BF0ADEF0BF0B0EF48
:101758000BF06C07D8A06D07000E796F1F0E786F1D
:10176800000EEA6F35EF0CF07807D8A07907CB0E9A
:101778007825D96E000E7921DA6E70C013F071C029
:1017880014F072C015F073C016F074C017F075C06D
:1017980018F076C019F077C01AF00A0E1B6E000E0A
:1017A8001C6E000E1D6E000E1E6E000E1F6E000ECB
:1017B800206E000E216E000E226EDFEC13F013C0B7
:1017C80060F014C061F015C062F016C063F017C075
:1017D80064F018C065F019C066F01AC067F060C000
:1017E80025F062C026F0FBEC1AF02550300FDF6EB2
:1017F80000016A07D8A06B076C07D8A06D0770C0F6
:1018080013F071C014F072C015F073C016F074C0F4
:1018180017F075C018F076C019F077C01AF00A0EE4
:101828001B6E000E1C6E000E1D6E000E1E6E000E4E
:101838001F6E000E206E000E216E000E226EE9EC67
:1018480010F013C070F014C071F015C072F016C01B
:1018580073F017C074F018C075F019C076F01AC08C
:1018680077F0000179BF41EF0CF0795108E1780574
:10187800D8A041EF0CF043EF0CF073EF0CF070516F
:101888007111721173117411751176117711D8A431
:1018980050EF0CF052EF0CF0B8EF0BF06BBF5FEFAE
:1018A8000CF06B5106E16A05D8B05DEF0CF05FEF04
:1018B8000CF0B8EF0BF06DBF6AEF0CF06D5108E15A
:1018C8006C05D8A06AEF0CF06CEF0CF073EF0CF01D
:1018D80043B271EF0CF073EF0CF0B8EF0BF06E51F0
:1018E8006F11D8A47AEF0CF07CEF0CF083EF0CF0BA
:1018F80043A481EF0CF083EF0CF0A1EF0CF0780714
:10190800D8A079076E516F11D8A48DEF0CF08FEF26
:101918000CF095EF0CF0000E696F2B0E686F99EFC5
:101928000CF0000E696F2D0E686FCB0E7825D96EFE
:10193800000E7921DA6E68C0DFFF2EC023F02FC0B9
:1019480024F0CB0E7825256E000E7921266E6CC00A
:1019580027F06DC028F054EC18F023C02EF024C0F6
:101968002FF0120042BEBBEF0CF0BDEF0CF0BEEF43
:101978000CF0439242BECBEF0CF0425006E141041A
:10198800D8B0C9EF0CF0CBEF0CF0D2EF0CF0000E92
:1019980000016D6F010E6C6FD6EF0CF041C06CF05A
:1019A80042C06DF03FC06EF040C06FF043A8DFEF5B
:1019B8000CF0E1EF0CF0E6EF0CF00001FE0E6E27E4
:1019C800FF0E6F2330C070F031C071F032C072F07A
:1019D80033C073F034C074F035C075F036C076F09B
:1019E80037C077F0000E0001796F1F0E786F000E78
:1019F800EA6FB3EF0DF07807D8A079070F0E7015CE
:101A08007A6F7B6B7BBF12EF0DF07B5109E10A0EF9
:101A18007A5DD8A012EF0DF014EF0DF01CEF0DF069
:101A2800570E7A257A6F000E7B217B6F22EF0DF01F
:101A3800300E7A257A6F000E7B217B6FBF0E606FA8
:101A4800FF0E616F3850626F636B6051622761519E
:101A5800632363510AE11A0E625DD8A036EF0DF0D8
:101A680039EF0DF0010E3AEF0DF0000E686F696B5B
:101A780068516911D8B443EF0DF045EF0DF075EFDB
:101A88000DF09F0E606FFF0E616F200E7A11626F6E
:101A9800000E7B11636F60516227615163236351AC
:101AA8000AE11A0E625DD8A05CEF0DF05FEF0DF051
:101AB800010E60EF0DF0000E6A6F6B6B6A516B11CF
:101AC800D8B469EF0DF06BEF0DF075EF0DF07AC03B
:101AD80019F07BC01AF080EC19F019C07AF01AC01E
:101AE8007BF0CB0E00017825D96E000E7921DA6ED5
:101AF8007AC0DFFF6C07D8A06D076E07D8A06F0704
:101B080070C060F071C061F072C062F073C063F0C1
:101B180074C064F075C065F076C066F077C067F091
:101B2800050EA0EF0DF0D890673366336533643344
:101B38006333623361336033E82E97EF0DF060C092
:101B480070F061C071F062C072F063C073F064C07D
:101B580074F065C075F066C076F067C077F079BF3D
:101B6800BFEF0DF0795109E1020E785DD8A0BFEF03
:101B78000DF0C1EF0DF0F1EF0DF070517111721110
:101B880073117411751176117711D8A4CEEF0DF079
:101B9800D0EF0DF0FFEF0CF06DBFDDEF0DF06D51E4
:101BA80006E16C05D8B0DBEF0DF0DDEF0DF0FFEFCF
:101BB8000CF06FBFE8EF0DF06F5108E16E05D8A08B
:101BC800E8EF0DF0EAEF0DF0F1EF0DF043B2EFEFB3
:101BD8000DF0F1EF0DF0FFEF0CF043A8F6EF0DF06C
:101BE800F8EF0DF00EEF0EF07807D8A07907CB0EBE
:101BF8007825D96E000E7921DA6E38C0DFFF7807B4
:101C0800D8A07907CB0E7825D96E000E7921DA6E27
:101C1800300EDF6E2EC023F02FC024F0CB0E7825B7
:101C2800256E000E7921266E6EC027F06FC028F051
:101C380054EC18F023C02EF024C02FF0120042BE3E
:101C480028EF0EF02AEF0EF02BEF0EF0439242BE73
:101C580038EF0EF0425006E14104D8B036EF0EF0EE
:101C680038EF0EF03FEF0EF0000E0001696F010E25
:101C7800686F43EF0EF041C068F042C069F03FC0A2
:101C88006AF040C06BF030C06CF031C06DF032C00B
:101C98006EF033C06FF034C070F035C071F036C0EC
:101CA80072F037C073F0000E0001756F1F0E746F6D
:101CB800000EEA6FD7EF0EF07407D8A07507CB0EA9
:101CC8007425D96E000E7521DA6E6CC013F06DC0E4
:101CD80014F06EC015F06FC016F070C017F071C028
:101CE80018F072C019F073C01AF00A0E1B6E000EBD
:101CF8001C6E000E1D6E000E1E6E000E1F6E000E76
:101D0800206E000E216E000E226E25EC17F013C017
:101D180060F014C061F015C062F016C063F017C01F
:101D280064F018C065F019C066F01AC067F00001C9
:101D38006051300FDF6E6807D8A069076A07D8A01E
:101D48006B076CC013F06DC014F06EC015F06FC057
:101D580016F070C017F071C018F072C019F073C097
:101D68001AF00A0E1B6E000E1C6E000E1D6E000E81
:101D78001E6E000E1F6E000E206E000E216E000EED
:101D8800226E38EC16F013C06CF014C06DF015C05C
:101D98006EF016C06FF017C070F018C071F019C05F
:101DA80072F01AC073F0000174517511D8B4DFEFE6
:101DB8000EF0E1EF0EF011EF0FF06C516D116E1196
:101DC8006F117011711172117311D8A4EEEF0EF02A
:101DD800F0EF0EF060EF0EF069BFFDEF0EF0695105
:101DE80006E16805D8B0FBEF0EF0FDEF0EF060EFEE
:101DF8000EF06BBF08EF0FF06B5108E16A05D8A031
:101E080008EF0FF00AEF0FF011EF0FF043B20FEFEA
:101E18000FF011EF0FF060EF0EF02EC023F02FC07F
:101E280024F0CB0E7425256E000E7521266E6AC02F
:101E380027F06BC028F054EC18F023C02EF024C013
:101E48002FF0120042BE2BEF0FF02DEF0FF02EEF08
:101E58000FF0439242BE3BEF0FF0425006E14104BF
:101E6800D8B039EF0FF03BEF0FF042EF0FF0000E54
:101E78000001696F010E686F46EF0FF041C068F00E
:101E880042C069F03FC06CF040C06DF030C06EF0E9
:101E980031C06FF032C070F033C071F034C072F0EE
:101EA80035C073F036C074F037C075F0000E00010D
:101EB800776F1F0E766F000EEA6F000E6B6F000EC5
:101EC8006A6FACEF0FF07607D8A07707070E6E158C
:101ED8006A6F6B6BCB0E7625D96E000E7721DA6EA2
:101EE8006A51300FDF6E6807D8A069076C07D8A061
:101EF8006D076EC060F06FC061F070C062F071C0B5
:101F080063F072C064F073C065F074C066F075C0A9
:101F180067F0040E99EF0FF0D89067336633653396
:101F280064336333623361336033E82E90EF0FF02C
:101F380060C06EF061C06FF062C070F063C071F095
:101F480064C072F065C073F066C074F067C075F065
:101F580077BFB7EF0FF0775108E17605D8A0B7EF54
:101F68000FF0B9EF0FF0E9EF0FF06E516F1170112C
:101F780071117211731174117511D8A4C6EF0FF095
:101F8800C8EF0FF067EF0FF069BFD5EF0FF0695199
:101F980006E16805D8B0D3EF0FF0D5EF0FF067EF83
:101FA8000FF06DBFE0EF0FF06D5108E16C05D8A0A0
:101FB800E0EF0FF0E2EF0FF0E9EF0FF043B2E7EFD9
:101FC8000FF0E9EF0FF067EF0FF043A8EEEF0FF017
:101FD800F0EF0FF007EF10F06A516B11D8B4F7EF7C
:101FE8000FF0F9EF0FF007EF10F07607D8A077079A
:101FF800CB0E7625D96E000E7721DA6E300EDF6EA5
:102008006C07D8A06D072EC023F02FC024F0CB0E8C
:102018007625256E000E7721266E6CC027F06DC0E0
:1020280028F054EC18F023C02EF024C02FF0120032
:10203800000E286E000E276E000E216E000E206E18
:1020480028EF10F01A4A1B2A010E266E1AC0F6FF56
:102058001BC0F7FFF86A0800F550200AD8B437EF1C
:1020680010F039EF10F057EF10F0F70E1C6EFF0E5E
:102078001D6E1AC0F6FF1BC0F7FFF86A0800F5507E
:102088001E6E1F6A1C501E261D501F221F5009E17C
:10209800050E1E5CD8A053EF10F055EF10F057EF67
:1020A80010F0000E266E26C022F0236A225023105C
:1020B800D8A461EF10F063EF10F026EF10F06DEF89
:1020C80010F0000E216E010E206E1A4A1B2AA4EF92
:1020D80010F01AC0F6FF1BC0F7FFF86A0800F550A9
:1020E8001C6E1D6A1D50000AD8B47DEF10F0A4EFD5
:1020F80010F01C502B0AD8B469EF10F0060AD8B4B7
:1021080065EF10F0A4EF10F027C013F028C014F00A
:10211800000E166E0A0E156E52EC1CF01AC0F6FF71
:102128001BC0F7FFF86A0800F550135E000E145A3A
:10213800300E1324276E000E1420286E69EF10F05D
:10214800D00E1C6EFF0E1D6E1AC0F6FF1BC0F7FFE7
:10215800F86A0800F5501E6E1F6A1C501E261D5096
:102168001F221F500AE10A0E1E5CD8A0BEEF10F015
:10217800C1EF10F0010EC2EF10F0000E246E256AB8
:1021880024502510D8A4CBEF10F0CDEF10F088EF35
:1021980010F020502110D8A4D4EF10F0D6EF10F092
:1021A800E4EF10F027C01CF028C01DF01C1E1D1EF7
:1021B8001C4A1D2A1CC01AF01DC01BF0E8EF10F0C5
:1021C80027C01AF028C01BF01200000E246E22BE91
:1021D800F2EF10F0F0EF10F004EF11F0221E211EC4
:1021E800201E1F1E1E1E1D1E1C1E1B6C000E1C22E8
:1021F8001D221E221F22202221222222010E246EAD
:102208001ABE0BEF11F009EF11F01DEF11F01A1EB5
:10221800191E181E171E161E151E141E136C000EEE
:102228001422152216221722182219221A22010E08
:10223800241A20EE25F0070EDE6AE806FDE21B50A0
:102248001C101D101E101F10201021102210D8B4B1
:1022580030EF11F032EF11F084EF11F0010E236E20
:1022680040EF11F0D8901B361C361D361E361F362F
:10227800203621362236232A22AE45EF11F047EFC9
:1022880011F036EF11F0D890253626362736283645
:1022980029362A362B362C361B50135C1C50145802
:1022A8001D5015581E5016581F50175820501858B2
:1022B8002150195822501A58D8A065EF11F067EF2D
:1022C80011F078EF11F01B50135E1C50145A1D507A
:1022D800155A1E50165A1F50175A2050185A215076
:1022E800195A22501A5A2580D89022322132203287
:1022F8001F321E321D321C321B32232E47EF11F0C3
:102308002450D8B48AEF11F08CEF11F09CEF11F043
:102318002C1E2B1E2A1E291E281E271E261E256C33
:10232800000E26222722282229222A222B222C228A
:1023380025C013F026C014F027C015F028C016F0E9
:1023480029C017F02AC018F02BC019F02CC01AF0B9
:10235800120020EEEBF010EE21F0060EDBCFE3FFCB
:10236800E806FCE21EC02CF01FC02DF02C502D10EA
:10237800D8A4C1EF11F0C3EF11F0C7EF11F0210E8F
:102388002C6E000E2D6E2CC013F02DC014F0AAEC8C
:102398001BF013C030F014C031F041C02EF042C021
:1023A8002FF02FBEDAEF11F0DCEF11F0F1EF11F0A2
:1023B80030502E5C2F50800A206E3150800A2058F1
:1023C800D8A0E9EF11F0EBEF11F0EDEF11F0F1EF1C
:1023D80011F02EC030F02FC031F030C02EF031C0D7
:1023E8002FF03FC02AF040C02BF043B0FEEF11F0B1
:1023F80000EF12F01DEF12F00EEF12F0000E146E47
:10240800200E136E1CC015F01DC016F08DEC17F0D1
:10241800304A312A2A50305C3150800A206E2B50C5
:10242800800A2058D8A01BEF12F01DEF12F002EF1F
:1024380012F0000E296E000E286E36EF12F02CC036
:10244800D9FF2DC0DAFFDF50206E2050136E146ABA
:102458001CC015F01DC016F08DEC17F02C4A2D2A63
:10246800284A292A2E50285C2950800A206E2F508D
:10247800800A2058D8A043EF12F045EF12F023EF5E
:1024880012F043A04AEF12F04CEF12F069EF12F08D
:102498005AEF12F0000E146E200E136E1CC015F0C9
:1024A8001DC016F08DEC17F0304A312A2A50305CE6
:1024B8003150800A206E2B50800A2058D8A067EF30
:1024C80012F069EF12F04EEF12F030C01CF031C07C
:1024D8001DF01200000E2F6E0EEF13F0D89020346E
:1024E800F66E2134F76EC10EF626F10EF722F86A61
:1024F800000EF8220900F5CF26F00900F5CF27F0E5
:102508002F50265E000E275A1C502624186E1D5088
:102518002720196E1EC01AF01FC01BF0B9EC1AF064
:10252800000E306E000E316E2F50266E276AD8903E
:1025380026362736D8902034F66E2134F76EC10E31
:10254800F626F10EF722F86A000EF8220900F5CFF8
:1025580028F00900F5CF29F0D890283629362650DA
:10256800285E2750295A3050285E000E295A2050DC
:10257800282621502922D89028362936C10E282409
:10258800F66EF10E2920F76EF86A000EF82209009F
:10259800F5CF2AF00900F5CF2BF031C02CF0800ED2
:1025A8002D6E000E2E6E2C2ADDEF12F02E342E32F8
:1025B8002D322C2EDAEF12F02A502D162B502E1613
:1025C8002D502E10D8B4EBEF12F0EDEF12F0F5EF1E
:1025D80012F022C016F023C017F0AFEC1CF0FBEF8E
:1025E80012F024C016F025C017F0AFEC1CF0312A09
:1025F800070E316402EF13F004EF13F098EF12F0B6
:10260800302A010E30640BEF13F00DEF13F096EF44
:1026180012F02F2AD8902034F66E2134F76EC10EAE
:10262800F626F10EF722F86A000EF8222F50266ED1
:10263800276A0900F550265C0900F5502758D8A0EC
:1026480028EF13F02AEF13F072EF12F01200225065
:10265800265C356E23502758366E2650225C27504C
:102668002358D8A03AEF13F03CEF13F040EF13F0E3
:102678002D682E6844EF13F0000E2E6E010E2D6E9D
:102688002450285C376E25502958386E2850245C11
:1026980029502558D8A053EF13F055EF13F059EFF0
:1026A80013F02F6830685DEF13F0000E306E010EE6
:1026B8002F6E2250265C23502758D8B066EF13F0AF
:1026C80068EF13F06CEF13F0356C361ED8B0362A6D
:1026D8002850245C29502558D8B075EF13F077EFAF
:1026E80013F07BEF13F0376C381ED8B0382A375008
:1026F8003524316E38503620326E22C01CF023C08B
:102708001DF024C01EF025C01FF02AC020F02BC0E9
:1027180021F0C5EC1BF02650221807E1275023189A
:10272800D8A499EF13F09BEF13F0A9EF13F02850FA
:10273800241807E129502518D8A4A5EF13F0A7EF0E
:1027480013F0A9EF13F0DEEF13F0D8903134336EA5
:102758003234346E3750335C3450800A2C6E385023
:10276800800A2C58D8A0BBEF13F0BDEF13F0C5EFCB
:1027780013F037503126385032222D5022262E5051
:1027880023223350355C3650800A2C6E3450800A30
:102798002C58D8A0D2EF13F0D4EF13F081EF13F038
:1027A80035503126365032222F50242630502522DB
:1027B80081EF13F01200000E246E1ABEE8EF13F03A
:1027C800E6EF13F0FAEF13F01A1E191E181E171E63
:1027D800161E151E141E136C000E14221522162226
:1027E8001722182219221A22010E246E22BE01EF86
:1027F80014F0FFEF13F011EF14F0221E211E201E1B
:102808001F1E1E1E1D1E1C1E1B6C000E1C221D22C0
:102818001E221F222022212222221B501C101D10A2
:102828001E101F10201021102210D8B41EEF14F013
:1028380020EF14F068EF14F0010E236E2EEF14F061
:10284800D8901B361C361D361E361F3620362136CC
:102858002236232A22AE33EF14F035EF14F024EF9A
:1028680014F01B50135C1C5014581D5015581E5062
:1028780016581F50175820501858215019582250D0
:102888001A58D8A04AEF14F04CEF14F05CEF14F08B
:102898001B50135E1C50145A1D50155A1E50165AC0
:1028A8001F50175A2050185A2150195A22501A5A94
:1028B800D8902232213220321F321E321D321C3271
:1028C8001B32232E35EF14F02450D8B46EEF14F0D9
:1028D80070EF14F080EF14F01A1E191E181E171E40
:1028E800161E151E141E136C000E14221522162215
:1028F8001722182219221A2213C013F014C014F038
:1029080015C015F016C016F017C017F018C018F04B
:1029180019C019F01AC01AF0120013EF15F0000EC2
:102928000001676F000E666F000E656F000E646F22
:10293800BDEF14F0D8906635F66E6735F76EC10EA8
:10294800F626F10EF722F86A000EF8220900F5CFF4
:1029580060F00900F5CF61F0D89060376137010E5B
:102968006027000E61236051662761516723644B1D
:10297800652BE00E606FFF0E616F36C0F6FF37C043
:10298800F7FF000EF86E0E0EF76403D00800F5503E
:1029980005D0F6CFE1FFF7CFE2FFE7500001626F05
:1029A800636B60516227615163236251645D6351B7
:1029B8006559D8A0E2EF14F0E4EF14F09EEF14F09C
:1029C80032C01CF033C01DF034C01EF035C01FF0FB
:1029D80066C020F067C021F038C022F039C023F06B
:1029E8003AC024F03BC025F06EEC12F0D8900001FC
:1029F8006635F66E6735F76EC10EF626F10EF722CC
:102A0800F86A000EF8220900F5CF60F00900F5CF4A
:102A180061F06051322661513322364A372A36C076
:102A2800F6FF37C0F7FF000EF86E0E0EF76403D0FE
:102A38000800F55005D0F6CFE1FFF7CFE2FFE750E9
:102A48000009D8A42AEF15F02CEF15F093EF14F035
:102A58001200800E0001A85DD8A035EF15F037EF01
:102A680015F03FEF15F0000EC86F4B0EC76FA56944
:102A7800A669B4EF15F0A5C0B5F0A6C0B6F0A85188
:102A880009E1020EA75DD8A04CEF15F04EEF15F046
:102A98005AEF15F0FF0EA725B96FFF0EA821BA6FE0
:102AA800000EB86F000EB76F62EF15F0000EBA6F28
:102AB800010EB96F000EB86F010EB76FB50E9D6F9E
:102AC800000E9E6FA9C09FF0AAC0A0F0ABC0A1F0F5
:102AD800ACC0A2F04EEC19F09DC0B3F09EC0B4F0AB
:102AE8000001A751A811D8B47CEF15F07EEF15F0BE
:102AF800B0EF15F0B4BF83EF15F085EF15F0B0EF28
:102B080015F0FF0EAD6FFF0EAE6FA7C0AFF0A8C0F7
:102B1800B0F0AD51AF27AE51B023AF51B35DB05156
:102B2800B459D8A09AEF15F09CEF15F0A4EF15F062
:102B3800FF0EA725B16FFF0EA821B26FA8EF15F001
:102B4800B3C0B1F0B4C0B2F0B151A525D96EB2513D
:102B5800A621DA6E000EDF6EB3C0A5F0B4C0A6F0F1
:102B68001200BAEC1CF0B40E136E350E146ED7ECCE
:102B78001CF0EC0E136E370E146EDCEC1CF0000E1D
:102B8800B5EC18F082EC09F0000E0001BB6F010EE5
:102B9800BC6F000EBE6F640EBD6FB20EBF6FFF0E2E
:102BA800C06FC9C0C1F0CAC0C2F0DEEC1BF0000E95
:102BB800236E280E226E000E256E960E246E010ED0
:102BC800276E180E266E000E296E960E286EFF0EC2
:102BD8002B6EE00E2A6E2BEC13F0000E336E2D0ECA
:102BE800326E000E356E9B0E346E910E366EFF0EF1
:102BF800376E000E396E1F0E386E000E3B6E000EDB
:102C08003A6E91EC14F0000E336E780E326E000EB0
:102C1800356E780E346EC30E366EFF0E376E040EA8
:102C2800396E000E386E000E3B6E000E3A6E91EC57
:102C380014F0000E336E780E326E000E356E500EA4
:102C4800346E000E366E010E376E040E396E000EAD
:102C5800386E000E3B6E000E3A6E91EC14F0F28E58
:102C680034EF16F042EF00F020EE23F0070EDE6A94
:102C7800E806FDE21B501C101D101E101F1020102E
:102C880021102210D8B44BEF16F04DEF16F09FEF3D
:102C980016F0010E2B6E5BEF16F0D8901B361C3623
:102CA8001D361E361F362036213622362B2A22AEF6
:102CB80060EF16F062EF16F051EF16F0D890233659
:102CC8002436253626362736283629362A361B5006
:102CD800135C1C5014581D5015581E5016581F5080
:102CE8001758205018582150195822501A58D8A04F
:102CF80080EF16F082EF16F093EF16F01B50135E7C
:102D08001C50145A1D50155A1E50165A1F50175A47
:102D18002050185A2150195A22501A5A2380D890F4
:102D28002232213220321F321E321D321C321B3217
:102D38002B2E62EF16F023C013F024C014F025C028
:102D480015F026C016F027C017F028C018F029C0C3
:102D580019F02AC01AF0120013C01AF014C01BF0A0
:102D680015C01CF016C01DF01706D8A018061728A5
:102D780006E11828D8A4C3EF16F0C5EF16F0D2EF75
:102D880016F0000E146E000E136E24EF17F01A4A98
:102D98001B2A1C4A1D2A1706D8A018061AC0F6FFB7
:102DA8001BC0F7FFF86A0800F5500009D8B4DFEF38
:102DB80016F0E1EF16F010EF17F01CC0F6FF1DC07B
:102DC800F7FFF86A0800F5500009D8B4EEEF16F0DE
:102DD800F0EF16F010EF17F017501810D8B4F7EFFF
:102DE80016F0F9EF16F010EF17F01AC0F6FF1BC037
:102DF800F7FFF86A0800F5CF19F01CC0F6FF1DC0F0
:102E0800F7FFF86A0800F5501918D8B40EEF17F054
:102E180010EF17F0CBEF16F01AC0F6FF1BC0F7FF44
:102E2800F86A0800F5CF19F01CC0F6FF1DC0F7FFBF
:102E3800F86A0800F550195C136E146AD8A01406D5
:102E480012001B501C101D101E101F1020102110E6
:102E58002210D8B432EF17F034EF17F07CEF17F0E8
:102E6800010E236E42EF17F0D8901B361C361D3624
:102E78001E361F36203621362236232A22AE47EF49
:102E880017F049EF17F038EF17F01B50135C1C5080
:102E980014581D5015581E5016581F5017582050BA
:102EA80018582150195822501A58D8A05EEF17F018
:102EB80060EF17F070EF17F01B50135E1C50145A98
:102EC8001D50155A1E50165A1F50175A2050185A7E
:102ED8002150195A22501A5AD890223221322032BF
:102EE8001F321E321D321C321B32232E49EF17F0BF
:102EF80013C013F014C014F015C015F016C016F066
:102F080017C017F018C018F019C019F01AC01AF035
:102F1800120015501610D8B494EF17F096EF17F06A
:102F28009FEF17F015501610D8A49DEF17F09FEFDC
:102F380017F0A4EF17F01350E7EC1CF0F1EF17F0BF
:102F480020EE04F01550D9261650DA22DE50DE1095
:102F5800D8B4B1EF17F0B3EF17F0CEEF17F020EEBB
:102F680004F01550D9261650DA2210EE02F015504A
:102F7800E1261650E222DE50E65CE650800A1B6E1F
:102F8800DE50800A1B58D8B0CCEF17F0CEEF17F000
:102F9800F1EF17F020EE02F01550D9261650DA227C
:102FA800DECF17F0DDCF18F015C0D9FF16C0DAFF55
:102FB800DECF19F0DDCF1AF017501924D96E18504A
:102FC8001A20DA6E13C0DFFF20EE02F01550D92662
:102FD8001650DA22DE2A000EDD221200000E066EDE
:102FE80004BEFBEF17F0F9EF17F001EF18F0036CD0
:102FF800041ED8B0042A010E066E02BE08EF18F0AF
:1030080006EF18F00EEF18F0016C021ED8B0022A75
:10301800010E061A000E086E000E076E035004100B
:10302800D8B419EF18F01BEF18F043EF18F0010EA1
:10303800056E23EF18F0D89003360436052A04AE3F
:1030480028EF18F02AEF18F01FEF18F0D89007367D
:1030580008360350015C04500258D8A036EF18F027
:1030680038EF18F03DEF18F00350015E0450025A93
:103078000780D89004320332052E2AEF18F0065044
:10308800D8B449EF18F04BEF18F04FEF18F0076C71
:10309800081ED8B0082A07C001F008C002F01200C4
:1030A80043A059EF18F05BEF18F065EF18F025C052
:1030B8001CF026C01DF023C01EF024C01FF097ECA2
:1030C8001AF028BE6AEF18F06CEF18F072EF18F0DB
:1030D80027C02CF028C02DF076EF18F0000E2D6ECA
:1030E800000E2C6E000E2B6E000E2A6E88EF18F064
:1030F800000E146E200E136E23C015F024C016F0B7
:103108008DEC17F02A4A2B2A2C502A5C2B50800A67
:10311800296E2D50800A2958D8A095EF18F097EFFE
:1031280018F07CEF18F043B09CEF18F09EEF18F001
:10313800A8EF18F025C01CF026C01DF023C01EF013
:1031480024C01FF097EC1AF025C013F026C014F025
:10315800AAEC1BF02C501324236E2D501420246E3F
:103168001200146EC6BABBEF18F0BDEF18F00CEFE2
:1031780019F01450040D010EF326000EF4228D0EE2
:10318800F324F66EFF0EF420F76EF86A000EF822AC
:103198000800F5CFC7FF1450040D8D0EF324F66E0A
:1031A800FF0EF420F76EF86A000EF8220800F5CF3B
:1031B800C6FF000EC56E1450040D020EF326000E55
:1031C800F4228D0EF324F66EFF0EF420F76EF86AE3
:1031D800000EF8220800F5CFC8FF1450040D030EA6
:1031E800F326000EF4228D0EF324F66EFF0EF42063
:1031F800F76EF86A000EF8220800F5CF13F01346B0
:103208001346134694501318F70B1318946EC68A76
:103218001200010E216E400E206E000E1F6EF00E81
:103228001E6E000E196E000E186E000E1B6E000E3C
:103238001A6EB9EC1AF00009D8B425EF19F027EF87
:1032480019F040EF19F04DEF19F01CC016F01DC031
:1032580017F0AFEC1CF02006D8A02106202806E1C4
:103268002128D8A43AEF19F03CEF19F029EF19F00A
:10327800010E216E400E206E1E06D8A01F061E28C5
:1032880006E11F28D8A44BEF19F04DEF19F02FEFE6
:1032980019F012009FC0A3F0A0C0A4F0000E3E6E6B
:1032A800000E3D6E6CEF19F09DC07CF09EC07DF065
:1032B800A30E00017E6F000E7F6FA1C080F0A2C038
:1032C80081F044EC00F000017C513D267D513E2206
:1032D800A3C0F6FFA4C0F7FFF86A0800F55000097C
:1032E800D8A479EF19F07BEF19F058EF19F03DC029
:1032F8009DF03EC09EF012009F0E1B6EFF0E1C6ECE
:1033080019C01DF01AC01EF01B501D261C501E228D
:103318001E500AE11A0E1D5CD8A095EF19F098EF1F
:1033280019F0010E99EF19F0000E1F6E206A1F5058
:103338002010D8B4A2EF19F0A4EF19F0AAEF19F0F1
:103348005F0E1914196E1A6AAEEF19F019C019F048
:103358001AC01AF012003F504010D8A4B6EF19F066
:10336800B8EF19F0BEEF19F03FC031F040C032F0AD
:10337800C4EF19F0FF0E3F24316EFF0E4020326E6D
:1033880030C0CBF0000E0001CC6F2EC023F02FC050
:1033980024F0CB0E256E000E266E31C027F032C009
:1033A80028F054EC18F023C02EF024C02FF012009F
:1033B800010E196E200E13181410D8B4E6EF19F088
:1033C800E8EF19F001EF1AF0F70E156EFF0E166E02
:1033D80013C017F014C018F01550172616501822ED
:1033E800185009E1050E175CD8A0FDEF19F0FFEFA2
:1033F80019F001EF1AF0000E196E19C013F0146AD3
:103408001200C20EF66E390EF76E000EF86E00EE60
:10341800EBF010EE07F00900F5CFEEFFE550E150B4
:10342800FAE101EE00F0640EEE6AE806FDE100EE56
:10343800C7F0240EEE6AE806FDE100EE3DF00C0E42
:10344800EE6AE806FDE14D904D920001B5EF15F0EA
:10345800175009E1F00E165CD8A035EF1AF037EFD7
:103468001AF03AEF1AF0010E4FEF1AF02A0E146E06
:10347800000E97EC1CF01750146E010E97EC1CF020
:1034880016C014F0010E97EC1CF02C0E146E000EF2
:1034980097EC1CF0000E1200400E165C010E175837
:1034A800D8A059EF1AF05BEF1AF05EEF1AF0010E90
:1034B80073EF1AF02B0E146E000E97EC1CF01750D9
:1034C800146E010E97EC1CF016C014F0010E97EC68
:1034D8001CF02C0E146E000E97EC1CF0000E12005F
:1034E800000E8D6E000E8C6E000E896E000E8A6EB8
:1034F800000E8B6E040E966ECF0E926E9368D70EEA
:10350800946E95688E0E0F015D6F7D0E5C6F000ED8
:103518005B6FF18E5A89D00E136E390E146ED7EC8C
:103528001CF0F2861200000E226E000E216EA8EF2B
:103538001AF020C013F0146A1EC015F01FC016F050
:103548008DEC17F0214A222A21501C24D96E2250D2
:103558001D20DA6EDF50206E2050D8A4B6EF1AF086
:10356800B8EF1AF09DEF1AF0120018C016F019C043
:1035780017F050EC1AF00009D8A4C5EF1AF0C7EFFD
:103588001AF0D5EF1AF01AC016F01BC017F02CEC81
:103598001AF00009D8B4D3EF1AF0D5EF1AF0D8EF23
:1035A8001AF0010ED9EF1AF0000E120081B8DFEF01
:1035B8001AF0E1EF1AF0FAEF1AF089BAE6EF1AF00A
:1035C800E9EF1AF0010EEAEF1AF0000EFF0A066E94
:1035D800063A064689500618DF0B0618896E000E53
:1035E80039EC1BF001C047F002C048F0120026BEBB
:1035F80008EF1BF0265006E12504D8B006EF1BF0B3
:1036080008EF1BF016EF1BF025C027F026C028F0A6
:10361800271E281E274A282A27C025F028C026F05A
:103628001AEF1BF025C025F026C026F012009F0EC9
:10363800156EFF0E166E200E1310176E000E141066
:10364800186E155017261650182218500AE11A0E2F
:10365800175CD8A032EF1BF035EF1BF0010E36EFE8
:103668001BF0000E136E146A1200056E05C003F0FD
:1036780003460346C2500318830B0318C26EC28068
:10368800C282C2B24AEF1BF04CEF1BF045EF1BF0B1
:10369800C450046E036AC3500324016E000E042054
:1036A800026E12009F0E156EFF0E166E13C017F0F5
:1036B80014C018F0155017261650182218500AE191
:1036C8001A0E175CD8A06BEF1BF06EEF1BF0010E03
:1036D8006FEF1BF0000E136E146A1200BF0E156E0A
:1036E800FF0E166E13C017F014C018F015501726E9
:1036F8001650182218500AE11A0E175CD8A087EF46
:103708001BF08AEF1BF0010E8BEF1BF0000E136EFF
:10371800146A1200D00E156EFF0E166E13C017F045
:1037280014C018F0155017261650182218500AE120
:103738000A0E175CD8A0A3EF1BF0A6EF1BF0010E32
:10374800A7EF1BF0000E136E146A120013C015F0D9
:1037580014C016F0B2EF1BF0134A142A13C0D9FF95
:1037680014C0DAFFDF50D8A4BCEF1BF0BEEF1BF08B
:10377800B0EF1BF01550135C136E16501458146EEE
:1037880012001CC018F01DC019F01EC01AF01FC08E
:103798001BF0B9EC1AF00009D8A4D5EF1BF0D7EF4D
:1037A8001BF0DDEF1BF020C016F021C017F0AFECC6
:1037B8001CF01200C10E0001C56F000EC66FBBC021
:1037C800A5F0BCC0A6F0BDC0A7F0BEC0A8F0BFC0A1
:1037D800A9F0C0C0AAF0C50EAB6F000EAC6F2DECFF
:1037E80015F0120047C003F048C004F00F0E026E37
:1037F8000168F2EC17F001C009F002C00AF0000EEF
:103808000C6E640E0B6E65EC1CF009C0C9F00AC0A2
:10381800CAF01200146E000E156E1BEF1CF0030E9A
:10382800136E980EE82EFED7132EFCD7152A1450C7
:10383800155CD8A022EF1CF024EF1CF013EF1CF04D
:1038480012009E9C49504A10D8B42DEF1CF02FEF5F
:103858001CF03BEF1CF002D83BEF1CF00500FA6EA1
:103868004950FD6E4A50FE6EFF6AFA50120012006F
:103878004B504C10D8B443EF1CF045EF1CF051EFFF
:103888001CF002D851EF1CF00500FA6E4B50FD6E8B
:103898004C50FE6EFF6AFA501200120013501502C7
:1038A800F3CF17F0F4CF18F013501602F350182680
:1038B80014501502F350182617C013F018C014F04E
:1038C800120009500B02F3CF0DF0F4CF0EF009509F
:1038D8000C02F3500E260A500B02F3500E260DC0B0
:1038E80009F00EC00AF01200010EC26E000EC16E81
:1038F800A10EC06E000EC46E000EC36E9D8CD20E5B
:10390800136E390E146EDCEC1CF01200136E13C02B
:10391800C9FF9EA692EF1CF094EF1CF08DEF1CF0EF
:103928009E96C9501200156E15B002D08D9001D028
:103938008D808D9214508AEC1CF08D8212000F013C
:103948005AA9A9EF1CF0ABEF1CF0ADEF1CF03CEC52
:103958001CF0F29012001750146E010E97EC1CF038
:1039680016C014F0010E97EC1CF01200E5EC1CF0E8
:10397800C5EC1CF074EC1AF0CEEC1CF078EC1CF0E2
:103988001200400EC76E000EC66E010EC86E9496E9
:10399800C69A1200620ED36E000ED26E000E9B6E97
:1039A800000E9A6E120013C04BF014C04CF01200B7
:1039B80013C049F014C04AF01200286E756C6C29C7
:0139C80000FE
:0A39CA00D09E12001200120012003D
:10F1C000000400000000000000000000000000003B
:10F1D000000000030000000000FE001B0000000013
:10F1E0000005001E00000000000000000000001EDE
:10F1F000000000000000000B0000000000100001F3
:10F200000010001D00F00003001E000100100001AE
:10F210000010001D00F00003001E0001001000019E
:10F2200000000000000900000004001C000800228B
:10F2300000100042001000FF007F00420010008418
:10F2400000100000000F00000000000C001C000077
:10F25000002200100022000800220006001C00010D
:10F2600000C000000020000E001800110004001172
:10F27000000200110000000E00000000000B000062
:10F2800000000000000E001C001100A2001000C2CF
:10F29000001000220011001C000A0000000C0000F9
:10F2A000000C00000012000000000003000000003D
:10F2B000001E00000000000000060000000000002A
:10F2C000000000E0001F001C006000020080000041
:10F2D0000000000400000000000600C000F8003F2D
:10F2E0000000000000060024000000180000007E5E
:10F2F00000000018000000240000000000000009C9
:10F30000000000000080000000800000008000007D
:10F3100000F0000700800000008000000080000076
:10F320000000000000040000000000000060000079
:10F3300000180000000000050000000100000001AE
:10F3400000000001000000010000000000040000B7
:10F350000000000000180000001800000000000875
:10F36000000000000000004000000038000000071E
:10F3700000E00000001C000000020000000000008F
:10F38000000900F800070004000800020010000255
:10F39000001000020010000200100004000800F835
:10F3A0000007000000000006000000000000000050
:10F3B000000200000002000000FE001F000000002C
:10F3C00000090018001000040018000200140002D8
:10F3D00000120002001100820010004400100038EA
:10F3E00000100000000000090008000C00040010DC
:10F3F0000002001000420010004200100044001003
:10F4000000B800080000000700000000000900002C
:10F4100000020000000300800002006000020010F3
:10F4200000020008000200FE001F000000020000B1
:10F43000000000090000000400700008002E001009
:10F4400000220010002200100022001000420008DC
:10F45000008200070000000000090000000000001A
:10F46000000700C0000800600010005800100044B1
:10F4700000100082000800000007000000000009E2
:10F4800000000000000200100002000C0002000357
:10F4900000C2000000320000000E00000002000068
:10F4A0000000000000090000000700980008006448
:10F4B000001000420010004200100064001000988C
:10F4C0000008000000070000000000090000000024
:10F4D0000038000000440010008200080082000490
:10F4E000008200030084000000780000000000009B
:10F4F0000004000000000030001800300018000078
:10F50000000000040000000000300060003000181F
:10F5100000000000000A00000000008000000080E1
:10F520000000004000010020000200200002001046
:10F530000004001000040008000800000000000A99
:10F540000000000000200001002000010020000158
:10F550000020000100200001002000010020000127
:10F560000020000100000000000A00000000000868
:10F570000008001000040010000400200002002019
:10F580000002004000010080000000800000000038
:10F590000000000800000000000C000000820001D4
:10F5A000004200020022001A0022001A009C000102
:10F5B00000000000000E0000000000F00003000842
:10F5C00000040004000800C2001100220012001212
:10F5D00000120012001200E20011001200120004DA
:10F5E00000120008000900F0000400000000000DF7
:10F5F00000000000000000100000000E008000016C
:10F6000000600001001C000100020001001C00015C
:10F6100000600001008000010000000E00000010EA
:10F62000000000000009000000000000000000FED3
:10F63000001F0042001000420010006400100098FB
:10F6400000080000000700000000000D000000009E
:10F6500000F000030008000400040008000200108D
:10F660000002001000020010000200100002001052
:10F670000004000800040008000800040000000066
:10F68000000C000000000000000000FE001F00024F
:10F690000010000200100002001000020010000222
:10F6A0000010000400080008000400F0000300003F
:10F6B00000000009000000000000000000FE001F24
:10F6C00000420010004200100042001000420010F2
:10F6D00000420010000000000008000000000000D0
:10F6E000000000FE001F0042000000420000004237
:10F6F00000000042000000000000000E00000000BA
:10F7000000F00003000800040004000800020010DC
:10F710000002001000020010000200100082001021
:10F7200000840010008400080088000400800003AA
:10F7300000000000000A000000000000000000FEC1
:10F74000001F00400000004000000040000000409A
:10F7500000000040000000FE001F00000000000448
:10F76000000000000000000000FE001F000000007C
:10F77000000700000000000000080000001000006A
:10F7800000100000000800FE000700000000000953
:10F79000000000000000000000FE001F00600000EC
:10F7A00000900001000800020004000C000200109C
:10F7B000000000000008000000000000000000FE43
:10F7C000001F0000001000000010000000100000EA
:10F7D000001000000000000F000000000000001CEE
:10F7E00000F80003000600000038000000C000011F
:10F7F0000000000E000000100000000E00C000011C
:10F80000003800000006000000F800030000001CA3
:10F8100000000000000B000000000000000000FEDF
:10F82000001F0008000000300000004000000080C1
:10F830000000000000030000000400FE001F0000A4
:10F840000000000E0000000000F0000300080004AB
:10F850000004000800020010000200100002001066
:10F860000002001000020010000200100004000856
:10F870000008000400F00003000000000009000080
:10F8800000000000000000FE001F004200000042D7
:10F8900000000042000000240000001800000000EA
:10F8A0000000000E0000000000F00003000800044B
:10F8B0000004000800020010000200100002001006
:10F8C00000020011000200120002000C00040008F7
:10F8D0000008001600F0002100000000000A0000EF
:10F8E00000000000000000FE001F0042000000C2F7
:10F8F0000000004200010042000600240008001839
:10F9000000100000000000080000000400180008BB
:10F910000024001000420010004200100084000883
:10F9200000080007000000000008000200000002BC
:10F9300000000002000000FE001F000200000002A4
:10F9400000000002000000000000000A00000000AB
:10F950000000000000FE000700000008000000108A
:10F9600000000010000000100000000800FE00076A
:10F9700000000000000C00020000001C00000060FD
:10F980000000008000010000000E000000100000D8
:10F99000000E0080000100600000001C000000025A
:10F9A000000000000000000F000000000006000042
:10F9B00000780000008000070000001800800007A9
:10F9C00000780000000600000078000000800007BA
:10F9D000000000180080000700780000000600000A
:10F9E00000000000000900000000000600180008E8
:10F9F00000040030000300C00000003000030008D5
:10FA000000040006001800000000000B00000000C9
:10FA10000002000000040000001800000060000068
:10FA20000080001F006000000018000000040000BB
:10FA300000020000000000000008000200100002A8
:10FA4000001C0002001300C2001000320010000E63
:10FA5000001000020010000000000006000000007E
:10FA60000000000000FE00FF000200800002008095
:10FA700000000000000A00020000000C000000105E
:10FA8000000000600000008000010000000600008F
:10FA900000080000003000000040000000000005E9
:10FAA00000000000000200800002008000FE00FF55
:10FAB00000000000000B00000000000000020080B9
:10FAC000000100700000000C000000020000000CAB
:10FAD0000000007000000080000100000002000033
:10FAE000000000090000004000000040000000404D
:10FAF0000000004000000040000000400000004006
:10FB000000000040000000000005000000000000B0
:10FB10000000000200000004000000000000000BD4
:10FB20000000000000C000070020000800100010C6
:10FB30000010001000100010001000100010001045
:10FB40000020000800F0001F00000000000B000073
:10FB5000000000FE001F0020000800100010001030
:10FB60000010001000100010001000100010002005
:10FB7000000800C0000700000000000A00000000AC
:10FB800000C0000700200008001000100010001046
:10FB900000100010001000100020000800400004B9
:10FBA00000000000000B0000000000C00007002063
:10FBB00000080010001000100010001000100010CD
:10FBC0000010001000100020000800FE001F0000C0
:10FBD0000000000A0000000000C00007002000092B
:10FBE0000010001100100011001000110010001191
:10FBF0000020000900C00005000000000006000011
:10FC000000000010000000FC001F001200000012A5
:10FC1000000000000000000B0000000000C00027F2
:10FC2000002000480010009000100090001000908C
:10FC300000100090001000900020004800F0003FED
:10FC400000000000000A0000000000FE001F00206D
:10FC50000000001000000010000000100000001064
:10FC600000000020000000C0001F00000000000392
:10FC70000000000000F6001F00000000000300006C
:10FC8000008000F6007F0000000000080000000077
:10FC900000FE001F00000001008000020040000480
:10FCA0000020000800100010000000000003000009
:10FCB000000000FE001F00000000000F0000000018
:10FCC00000F0001F002000000010000000100000E5
:10FCD000001000000020000000C0001F00200000F5
:10FCE00000100000001000000010000000200000C4
:10FCF00000C0001F00000000000A0000000000F02B
:10FD0000001F002000000010000000100000001084
:10FD10000000001000000020000000C0001F0000D4
:10FD20000000000A0000000000C0000700200008DA
:10FD30000010001000100010001000100010001043
:10FD40000020000800C0000700000000000B0000B9
:10FD5000000000F000FF002000080010001000105C
:10FD60000010001000100010001000100010002003
:10FD7000000800C0000700000000000B00000000A9
:10FD800000C0000700200008001000100010001044
:10FD900000100010001000100010001000200008DB
:10FDA00000F000FF0000000000060000000000F06E
:10FDB000001F0020000000100000001000000000E4
:10FDC0000000000600600008009000100010001104
:10FDD000001000110020000E0000000000070000CD
:10FDE0000000001000000010000000FE001F0010C6
:10FDF00000000010000000000000000A00000000E9
:10FE000000F00007000000080000001000000010D3
:10FE100000000010000000100000000800F00007C3
:10FE200000000000000A00100000006000000080D8
:10FE300000030000000C000000100000000C008017
:10FE40000003006000000010000000000000000E31
:10FE50000010000000E00000000000070000001893
:10FE60000000000700E000000010000000E00000BB
:10FE700000000007000000180000000700E000007C
:10FE80000010000000000000000900100010002019
:10FE900000080040000400800003008000030040D0
:10FEA00000040020000800100010000000000009FD
:10FEB0000010000000E00000000000830000007C53
:10FEC0000000000C0000000300E000000010000033
:10FED00000000000000800100010001000180010C2
:10FEE00000160010001100D00010003000100010AB
:10FEF00000100000000000070000000000000001EA
:10FF00000080000200FC007E0002008000020080F1
:10FF100000000000000700000000000000000000DA
:10FF20000000000000000000000000FE00FF0000D4
:10FF300000000006000200800002008000FC007E3D
:10FF4000008000020000000100000000000A000024
:10FF50000000008000000040000000400000004061
:10FF600000000080000000800000008000000040D1
:10FF7000000000000000000500FF000F0001000865
:10FF80000001000800FF000F000000000000400119
:10FF900000584338202D204269626C696F74656394
:10FFA00061202D204C4344202D20494C49393334C5
:10FFB000310070657263656E746167656D203D2008
:10FFC000256400504943202D20534545560068685C
:10FFD0005800686864006868690068686E0068684E
:10FFE0006F0068687500686878007A58007A640065
:10FFF0007A69007A6E007A6F007A75007A7800006C
:020000040020DA
:08000000FFFFFFFFFFFFFFFF00
:020000040030CA
:0E00000015087F7CFF8991FF0FC00FE00F40B5
:00000001FF
