:020000040000FA
:0400000031EF00F0EC
:100008005B82FACF01F0FBCF02F0F2A80EEF00F00E
:1000180010EF00F01BEF00F0F2A215EF00F017EF61
:1000280000F01BEF00F0C0EC1FF02BEF00F0F2A681
:1000380020EF00F022EF00F02BEF00F0F2A027EF06
:1000480000F029EF00F02BEF00F06EEC1FF002C07B
:10005800FBFF01C0FAFF5B92110033EF1DF047C0B0
:10006800D9FF48C0DAFFDECFF6FFDDCFF7FFF86A29
:100078000800F550250AD8A444EF00F046EF00F038
:1000880052EF09F047C0D9FF48C0DAFFDE2A000E58
:10009800DD22000E0001C66F000EC56FC5C059F005
:1000A800C6C05AF057685868000E636F000E626F3A
:1000B800A5EF00F0598047C0D9FF48C0DAFFDE2A13
:1000C800000EDD22A5EF00F059825FEF00F05984A1
:1000D8005FEF00F059865FEF00F059885FEF00F09E
:1000E800000E636F010E626FA5EF00F047C0D9FFE5
:1000F80048C0DAFFDECFF6FFDDCFF7FFF86A080069
:10010800F5504B6E4C6A4C50000AD8B48EEF00F094
:1001180074EF00F04B50200AD8B46EEF00F0030AD9
:10012800D8B471EF00F0080AD8B46BEF00F0060AF3
:10013800D8B45EEF00F01D0AD8B468EF00F074EF91
:1001480000F062516311D8B4ACEF00F0AEEF00F0EC
:100158007AEF00F059A0B3EF00F0B5EF00F0B6EF7A
:1001680000F0599247C0D9FF48C0DAFFDECFF6FF4A
:10017800DDCFF7FFF86A0800F5502A0AD8A4C7EFC0
:1001880000F0C9EF00F0F2EF00F047C0D9FF48C017
:10019800DAFFDE2A000EDD2249C0D9FF4AC0DAFFA5
:1001A800DFCF4BF0020EDE26DFCF4CF0000EDD2253
:1001B8004BC0D9FF4CC0DAFFDECFC5F0DDCFC6F0AB
:1001C800C6BFEBEF00F0E9EF00F037EF01F0598020
:1001D800C56DC61FD8B0C62B37EF01F047C0D9FF91
:1001E80048C0DAFFDECF0AF0DDCF0BF0DCEC13F00D
:1001F8000AC0C5F00BC0C6F009EF01F047C0D9FF2F
:1002080048C0DAFFDE2A000EDD22D00E4B6EFF0E4C
:100218004C6E47C0D9FF48C0DAFFDECFF6FFDDCF0E
:10022800F7FFF86A0800F5504D6E4E6A4B504D26A0
:100238004C504E224E500AE10A0E4D5CD8A027EFD2
:1002480001F02AEF01F0010E2BEF01F0000E000182
:10025800646F656B64516511D8A435EF01F037EF11
:1002680001F002EF01F047C0D9FF48C0DAFFDECF46
:10027800F6FFDDCFF7FFF86A0800F5502E0AD8A47C
:1002880048EF01F04AEF01F0CAEF01F0000E586E96
:10029800000E576E47C0D9FF48C0DAFFDE2A000EAD
:1002A800DD2247C0D9FF48C0DAFFDECFF6FFDDCF39
:1002B800F7FFF86A0800F5502A0AD8A466EF01F09B
:1002C80068EF01F085EF01F047C0D9FF48C0DAFFB9
:1002D800DE2A000EDD2249C0D9FF4AC0DAFFDFCF8F
:1002E8004BF0020EDE26DFCF4CF0000EDD224BC0B5
:1002F800D9FF4CC0DAFFDECF57F0DDCF58F0CAEF98
:1003080001F047C0D9FF48C0DAFFDECF0AF0DDCFE1
:100318000BF0DCEC13F00AC057F00BC058F09CEF60
:1003280001F047C0D9FF48C0DAFFDE2A000EDD22FF
:10033800D00E4B6EFF0E4C6E47C0D9FF48C0DAFF97
:10034800DECFF6FFDDCFF7FFF86A0800F5504D6EF7
:100358004E6A4B504D264C504E224E500AE10A0E22
:100368004D5CD8A0BAEF01F0BDEF01F0010EBEEF71
:1003780001F0000E0001666F676B66516711D8A423
:10038800C8EF01F0CAEF01F095EF01F047C0D9FFBF
:1003980048C0DAFFDECFF6FFDDCFF7FFF86A0800C6
:1003A800F550630AD8A4DBEF01F0DDEF01F004EFAC
:1003B80002F047C0D9FF48C0DAFFDE2A000EDD226E
:1003C80049C0D9FF4AC0DAFFDFCF4BF0020EDE2664
:1003D800DFCF4CF0000EDD224BC0D9FF4CC0DAFF56
:1003E800DF50726F45C01EF046C01FF072C020F08B
:1003F800DDEC1CF01EC045F01FC046F06EEF09F0A2
:1004080047C0D9FF48C0DAFFDECF03F0DDCF04F0E4
:10041800D20E056EFF0E066E000E086E030E076EF6
:10042800B9EC19F003500410D8B41DEF02F01FEF17
:1004380002F03AEF02F047C0D9FF48C0DAFFDECF3A
:1004480003F0DDCF04F0D60E056EFF0E066E000E2B
:10045800086E030E076EB9EC19F003500410D8A407
:1004680038EF02F03AEF02F07BEF02F0030E47C0DC
:10047800D9FF48C0DAFFDE26000EDD2249C0D9FFC9
:100488004AC0DAFFDFCF4BF0020EDE26DFCF4CF09A
:10049800000EDD224BC0D9FF4CC0DAFFDF5000014F
:1004A800686F000E68BFFF0E696F6A6F6B6F6C6FC5
:1004B8006D6F6E6F6F6F45C01EF046C01FF068C04D
:1004C80020F069C021F06AC022F06BC023F06CC034
:1004D80024F06DC025F06EC026F06FC027F047EC01
:1004E8000DF01EC045F01FC046F06EEF09F047C082
:1004F800D9FF48C0DAFFDECF03F0DDCF04F0D30E1A
:10050800056EFF0E066E000E086E020E076EB9EC41
:1005180019F003500410D8B494EF02F096EF02F0EB
:10052800B1EF02F047C0D9FF48C0DAFFDECF03F0D1
:10053800DDCF04F0D70E056EFF0E066E000E086EB6
:10054800020E076EB9EC19F003500410D8A4AFEFEF
:1005580002F0B1EF02F0D9EF02F0020E47C0D9FF66
:1005680048C0DAFFDE26000EDD2249C0D9FF4AC0A6
:10057800DAFFDFCF4BF0020EDE26DFCF4CF0000EA5
:10058800DD224BC0D9FF4CC0DAFFDECF68F0DDCFEB
:1005980069F00001000E69BFFF0E6A6F6B6F6C6F28
:1005A8006D6F6E6F6F6F5FEF02F047C0D9FF48C085
:1005B800DAFFDECFF6FFDDCFF7FFF86A0800F55067
:1005C800640AD8B4EAEF02F0ECEF02F0FFEF02F0B1
:1005D80047C0D9FF48C0DAFFDECFF6FFDDCFF7FF0F
:1005E800F86A0800F550690AD8A4FDEF02F0FFEF99
:1005F80002F026EF03F047C0D9FF48C0DAFFDE2A31
:10060800000EDD2249C0D9FF4AC0DAFFDFCF4BF028
:10061800020EDE26DFCF4CF0000EDD224BC0D9FFE4
:100628004CC0DAFFDECF68F0DDCF69F00001000EC4
:1006380069BFFF0E6A6F6B6F6C6F6D6F6E6F6F6F58
:100648005FEF02F047C0D9FF48C0DAFFDECF03F002
:10065800DDCF04F0ED0E056EFF0E066E000E086E7F
:10066800020E076EB9EC19F003500410D8B43FEF2E
:1006780003F041EF03F05CEF03F047C0D9FF48C037
:10068800DAFFDECF03F0DDCF04F0F00E056EFF0ECB
:10069800066E000E086E020E076EB9EC19F00350D4
:1006A8000410D8A45AEF03F05CEF03F085EF03F0D1
:1006B800020E47C0D9FF48C0DAFFDE26000EDD2251
:1006C80049C0D9FF4AC0DAFFDFCF4BF0020EDE2661
:1006D800DFCF4CF0000EDD224BC0D9FF4CC0DAFF53
:1006E800DECF4DF0DDCF4EF04DC068F04EC069F062
:1006F80000016A6B6B6B6C6B6D6B6E6B6F6B5FEF96
:1007080002F047C0D9FF48C0DAFFDECF03F0DDCFE3
:1007180004F0DE0E056EFF0E066E000E086E030E68
:10072800076EB9EC19F003500410D8A49EEF03F03B
:10073800A0EF03F0E0EF03F0030E47C0D9FF48C075
:10074800DAFFDE26000EDD2249C0D9FF4AC0DAFFF3
:10075800DFCF4BF0020EDE26DFCF4CF0000EDD229D
:100768004BC0D9FF4CC0DAFFDF504D6E4D50000131
:10077800736F746B756B766B776B786B796B7A6B61
:1007880045C01EF046C01FF073C020F074C021F0B1
:1007980075C022F076C023F077C024F078C025F029
:1007A80079C026F07AC027F020EC11F01EC045F081
:1007B8001FC046F06EEF09F047C0D9FF48C0DAFF06
:1007C800DECF03F0DDCF04F0DF0E056EFF0E066E00
:1007D800000E086E020E076EB9EC19F003500410F3
:1007E800D8A4F9EF03F0FBEF03F024EF04F0020EB6
:1007F80047C0D9FF48C0DAFFDE26000EDD2249C017
:10080800D9FF4AC0DAFFDFCF4BF0020EDE26DFCF7A
:100818004CF0000EDD224BC0D9FF4CC0DAFFDECF12
:100828004DF0DDCF4EF04DC073F04EC074F00001B6
:10083800756B766B776B786B796B7A6BC4EF03F0BB
:1008480047C0D9FF48C0DAFFDECFF6FFDDCFF7FF9C
:10085800F86A0800F5506F0AD8A435EF04F037EFAE
:1008680004F05FEF04F047C0D9FF48C0DAFFDE2A82
:10087800000EDD2249C0D9FF4AC0DAFFDFCF4BF0B6
:10088800020EDE26DFCF4CF0000EDD224BC0D9FF72
:100898004CC0DAFFDECF4DF0DDCF4EF04DC073F027
:1008A8004EC074F00001756B766B776B786B796B63
:1008B8007A6BC4EF03F047C0D9FF48C0DAFFDECF38
:1008C80003F0DDCF04F0F60E056EFF0E066E000E87
:1008D800086E020E076EB9EC19F003500410D8A484
:1008E80078EF04F07AEF04F0A3EF04F0020E47C0AB
:1008F800D9FF48C0DAFFDE26000EDD2249C0D9FF45
:100908004AC0DAFFDFCF4BF0020EDE26DFCF4CF015
:10091800000EDD224BC0D9FF4CC0DAFFDECF4DF010
:10092800DDCF4EF04DC073F04EC074F00001756B12
:10093800766B776B786B796B7A6BC4EF03F047C093
:10094800D9FF48C0DAFFDECF03F0DDCF04F0DA0EBE
:10095800056EFF0E066E000E086E030E076EB9ECEC
:1009680019F003500410D8A4BCEF04F0BEEF04F053
:10097800E6EF04F0030E47C0D9FF48C0DAFFDE26D1
:10098800000EDD2249C0D9FF4AC0DAFFDFCF4BF0A5
:10099800020EDE26DFCF4CF0000EDD224BC0D9FF61
:1009A8004CC0DAFFDECF70F0DDCF71F070C0D9FF38
:1009B80071C0DAFFC3C0DFFF000E466E000E456E41
:1009C8006EEF09F047C0D9FF48C0DAFFDECF03F069
:1009D800DDCF04F0DB0E056EFF0E066E000E086E0E
:1009E800020E076EB9EC19F003500410D8A4FFEFFB
:1009F80004F001EF05F027EF05F0020E47C0D9FF1C
:100A080048C0DAFFDE26000EDD2249C0D9FF4AC001
:100A1800DAFFDFCF4BF0020EDE26DFCF4CF0000E00
:100A2800DD224BC0D9FF4CC0DAFFDECF70F0DDCF3E
:100A380071F070C0D9FF71C0DAFFC3C0DEFFC4C057
:100A4800DDFFE0EF04F047C0D9FF48C0DAFFDECF92
:100A5800F6FFDDCFF7FFF86A0800F5506E0AD8A454
:100A680038EF05F03AEF05F05FEF05F047C0D9FF22
:100A780048C0DAFFDE2A000EDD2249C0D9FF4AC08D
:100A8800DAFFDFCF4BF0020EDE26DFCF4CF0000E90
:100A9800DD224BC0D9FF4CC0DAFFDECF70F0DDCFCE
:100AA80071F070C0D9FF71C0DAFFC3C0DEFFC4C0E7
:100AB800DDFFE0EF04F047C0D9FF48C0DAFFDECF22
:100AC80003F0DDCF04F0F30E056EFF0E066E000E88
:100AD800086E020E076EB9EC19F003500410D8A482
:100AE80078EF05F07AEF05F0A0EF05F0020E47C0A9
:100AF800D9FF48C0DAFFDE26000EDD2249C0D9FF43
:100B08004AC0DAFFDFCF4BF0020EDE26DFCF4CF013
:100B1800000EDD224BC0D9FF4CC0DAFFDECF70F0EB
:100B2800DDCF71F070C0D9FF71C0DAFFC3C0DEFF3E
:100B3800C4C0DDFFE0EF04F047C0D9FF48C0DAFFCA
:100B4800DECFF6FFDDCFF7FFF86A0800F550700A30
:100B5800D8A4B1EF05F0B3EF05F0F7EF05F047C003
:100B6800D9FF48C0DAFFDE2A000EDD2249C0D9FFCE
:100B78004AC0DAFFDFCF4BF0020EDE26DFCF4CF0A3
:100B8800000EDD224BC0D9FF4CC0DAFFDECF4DF09E
:100B9800DDCF4EF04DC073F04EC074F00001756BA0
:100BA800766B776B786B796B7A6B45C01EF046C0B5
:100BB8001FF073C020F074C021F075C022F076C019
:100BC80023F077C024F078C025F079C026F07AC0E9
:100BD80027F0780E286EB6EC0EF01EC045F01FC048
:100BE80046F06EEF09F047C0D9FF48C0DAFFDECF04
:100BF800F6FFDDCFF7FFF86A0800F550730AD8A4AE
:100C080008EF06F00AEF06F035EF06F047C0D9FF07
:100C180048C0DAFFDE2A000EDD2249C0D9FF4AC0EB
:100C2800DAFFDFCF4BF0020EDE26DFCF4CF0000EEE
:100C3800DD224BC0D9FF4CC0DAFFDECF60F0DDCF3C
:100C480061F045C00CF046C00DF060C00EF061C008
:100C58000FF06DEC15F00CC045F00DC046F06EEFCE
:100C680009F047C0D9FF48C0DAFFDECF03F0DDCF77
:100C780004F0E20E056EFF0E066E000E086E030EFF
:100C8800076EB9EC19F003500410D8A44EEF06F023
:100C980050EF06F090EF06F0030E47C0D9FF48C0AA
:100CA800DAFFDE26000EDD2249C0D9FF4AC0DAFF8E
:100CB800DFCF4BF0020EDE26DFCF4CF0000EDD2238
:100CC8004BC0D9FF4CC0DAFFDF504D6E4D500001CC
:100CD800736F746B756B766B776B786B796B7A6BFC
:100CE80045C01EF046C01FF073C020F074C021F04C
:100CF80075C022F076C023F077C024F078C025F0C4
:100D080079C026F07AC027F020EC10F01EC045F01C
:100D18001FC046F06EEF09F047C0D9FF48C0DAFFA0
:100D2800DECF03F0DDCF04F0E30E056EFF0E066E96
:100D3800000E086E020E076EB9EC19F0035004108D
:100D4800D8A4A9EF06F0ABEF06F0D4EF06F0020E38
:100D580047C0D9FF48C0DAFFDE26000EDD2249C0B1
:100D6800D9FF4AC0DAFFDFCF4BF0020EDE26DFCF15
:100D78004CF0000EDD224BC0D9FF4CC0DAFFDECFAD
:100D88004DF0DDCF4EF04DC073F04EC074F0000151
:100D9800756B766B776B786B796B7A6B74EF06F0A3
:100DA80047C0D9FF48C0DAFFDECFF6FFDDCFF7FF37
:100DB800F86A0800F550750AD8A4E5EF06F0E7EFE1
:100DC80006F00FEF07F047C0D9FF48C0DAFFDE2A68
:100DD800000EDD2249C0D9FF4AC0DAFFDFCF4BF051
:100DE800020EDE26DFCF4CF0000EDD224BC0D9FF0D
:100DF8004CC0DAFFDECF4DF0DDCF4EF04DC073F0C2
:100E08004EC074F00001756B766B776B786B796BFD
:100E18007A6B74EF06F047C0D9FF48C0DAFFDECF1F
:100E280003F0DDCF04F0F90E056EFF0E066E000E1E
:100E3800086E020E076EB9EC19F003500410D8A41E
:100E480028EF07F02AEF07F053EF07F0020E47C02C
:100E5800D9FF48C0DAFFDE26000EDD2249C0D9FFDF
:100E68004AC0DAFFDFCF4BF0020EDE26DFCF4CF0B0
:100E7800000EDD224BC0D9FF4CC0DAFFDECF4DF0AB
:100E8800DDCF4EF04DC073F04EC074F00001756BAD
:100E9800766B776B786B796B7A6B74EF06F047C07B
:100EA800D9FF48C0DAFFDECF03F0DDCF04F0E60E4D
:100EB800056EFF0E066E000E086E030E076EB9EC87
:100EC80019F003500410D8B46CEF07F06EEF07F078
:100ED80089EF07F047C0D9FF48C0DAFFDECF03F03B
:100EE800DDCF04F0CE0E056EFF0E066E000E086E06
:100EF800030E076EB9EC19F003500410D8A487EF5D
:100F080007F089EF07F0DFEF07F047C0D9FF48C0C7
:100F1800DAFFDECF4BF0DDCF4CF0020E4B26000E91
:100F28004C224BC0F6FF4CC0F7FFF86A0800F5CF1B
:100F380072F0030E47C0D9FF48C0DAFFDE26000E64
:100F4800DD2249C0D9FF4AC0DAFFDFCF4BF0020EDD
:100F5800DE26DFCF4CF0000EDD224BC0D9FF4CC09F
:100F6800DAFFDF504D6E4D500001736F746B756B77
:100F7800766B776B786B796B7A6B45C01EF046C0E1
:100F88001FF073C020F074C021F075C022F076C045
:100F980023F077C024F078C025F079C026F07AC015
:100FA80027F072C028F0B6EC0EF01EC045F01FC046
:100FB80046F06EEF09F047C0D9FF48C0DAFFDECF30
:100FC80003F0DDCF04F0E70E056EFF0E066E000E8F
:100FD800086E020E076EB9EC19F003500410D8B46D
:100FE800F8EF07F0FAEF07F015EF08F047C0D9FF60
:100FF80048C0DAFFDECF03F0DDCF04F0CF0E056E78
:10100800FF0E066E000E086E020E076EB9EC19F0A0
:1010180003500410D8A413EF08F015EF08F052EFAE
:1010280008F047C0D9FF48C0DAFFDECF4BF0DDCF6C
:101038004CF0010E4B26000E4C224BC0F6FF4CC064
:10104800F7FFF86A0800F5CF72F0020E47C0D9FF23
:1010580048C0DAFFDE26000EDD2249C0D9FF4AC0AB
:10106800DAFFDFCF4BF0020EDE26DFCF4CF0000EAA
:10107800DD224BC0D9FF4CC0DAFFDECF4DF0DDCF0B
:101088004EF04DC073F04EC074F00001756B766B76
:10109800776B786B796B7A6BC1EF07F047C0D9FF34
:1010A80048C0DAFFDECFF6FFDDCFF7FFF86A0800A9
:1010B800F550780AD8B463EF08F065EF08F078EFD8
:1010C80008F047C0D9FF48C0DAFFDECFF6FFDDCF12
:1010D800F7FFF86A0800F550580AD8A476EF08F028
:1010E80078EF08F0ACEF08F047C0D9FF48C0DAFF46
:1010F800DECFF6FFDDCFF7FFF86A0800F5CF72F014
:1011080047C0D9FF48C0DAFFDE2A000EDD2249C0F9
:10111800D9FF4AC0DAFFDFCF4BF0020EDE26DFCF61
:101128004CF0000EDD224BC0D9FF4CC0DAFFDECFF9
:101138004DF0DDCF4EF04DC073F04EC074F000019D
:10114800756B766B776B786B796B7A6BC1EF07F0A1
:1011580047C0D9FF48C0DAFFDECF03F0DDCF04F087
:10116800FC0E056EFF0E066E000E086E020E076E70
:10117800B9EC19F003500410D8B4C5EF08F0C7EF64
:1011880008F0E2EF08F047C0D9FF48C0DAFFDECF29
:1011980003F0DDCF04F0EA0E056EFF0E066E000EBA
:1011A800086E020E076EB9EC19F003500410D8A4AB
:1011B800E0EF08F0E2EF08F01FEF09F047C0D9FFB1
:1011C80048C0DAFFDECF4BF0DDCF4CF0010E4B26E6
:1011D800000E4C224BC0F6FF4CC0F7FFF86A08001F
:1011E800F5CF72F0020E47C0D9FF48C0DAFFDE26FD
:1011F800000EDD2249C0D9FF4AC0DAFFDFCF4BF02D
:10120800020EDE26DFCF4CF0000EDD224BC0D9FFE8
:101218004CC0DAFFDECF4DF0DDCF4EF04DC073F09D
:101228004EC074F00001756B766B776B786B796BD9
:101238007A6BC1EF07F047C0D9FF48C0DAFFDECFAD
:10124800F6FFDDCFF7FFF86A0800F550250AD8A4A5
:1012580030EF09F032EF09F049EF09F047C0D9FF44
:1012680048C0DAFFDE2A000EDD22000E046E250ECD
:10127800036E45C005F046C006F096EC1AF0000E65
:10128800466E010E456E6EEF09F047C0D9FF48C0A3
:10129800DAFFDE2A000EDD22E0EF04F047C0D9FFB6
:1012A80048C0DAFFDECFF6FFDDCFF7FFF86A0800A7
:1012B800F550036E046A45C005F046C006F096EC8A
:1012C8001AF047C0D9FF48C0DAFFDE2A000EDD2237
:1012D80043EF09F012001450800B1D6E14501424B3
:1012E800236E13AE7AEF09F07CEF09F07DEF09F079
:1012F80023802350D8B483EF09F085EF09F098EFE5
:1013080009F02328D8A48BEF09F08DEF09F095EFA9
:1013180009F0000E116E000E126E000E136E000E14
:10132800146E138EA0EF09F0000E116E000E126EEF
:10133800000E136E000E146E1850800B1D1A1850F4
:101348001824226E17AEABEF09F0ADEF09F0AEEF3F
:1013580009F022802250D8B4B4EF09F0B6EF09F0B2
:10136800C9EF09F02228D8A4BCEF09F0BEEF09F0B4
:10137800C6EF09F0000E156E000E166E000E176E01
:10138800000E186E178ED1EF09F0000E156E000EC4
:10139800166E000E176E000E186E2250D8B4D7EFD6
:1013A80009F0D9EF09F0E1EF09F02350D8A4DFEFF5
:1013B80009F0E1EF09F0EBEF09F0000E116E000EF5
:1013C800126E000E136E000E146E83EF0BF01750A2
:1013D8001102F3CF28F0F4CF29F028501E6E1F6AAF
:1013E800206A216A2950246E256A266A276A1650BF
:1013F8001202F3CF28F0F4CF29F028501E26000E51
:101408001F222022212229502426000E25222622AE
:10141800272215501302F3CF28F0F4CF29F02850D3
:101428001E26000E1F222022212229502426000ECB
:1014380025222622272220C021F01FC020F01EC00E
:101448001FF01E6A15501202F3CF28F0F4CF29F0CE
:1014580028501E2629501F22000E2022000E21226D
:1014680016501102F3CF28F0F4CF29F028501E2689
:1014780029501F22000E2022000E212220C021F018
:101488001FC020F01EC01FF01E6A15501102F3CFB6
:1014980028F0F4CF29F028501E2629501F22000ECC
:1014A8002022000E212217501202F3CF28F0F4CF89
:1014B80029F02850242629502522000E2622000E25
:1014C800272216501302F3CF28F0F4CF29F0285022
:1014D800242629502522000E2622000E27221750E6
:1014E8001302F3CF28F0F4CF29F02850196E2950B1
:1014F8001A6E1B6A1C6A1BC01CF01AC01BF019C0AC
:101508001AF0196A195024261A5025221B5026222F
:101518001C5027221EC019F01FC01AF020C01BF053
:1015280021C01CF0190E9EEF0AF0D8901C321B3215
:101538001A321932E82E99EF0AF0195024261A5057
:1015480025221B5026221C50272220C021F01FC014
:1015580020F01EC01FF01E6A225023C019F01A6A1C
:101568001926000E1A22820E1924286EFF0E1A2040
:10157800296ED4EF0AF0D890243625362636273639
:1015880021AEC9EF0AF0CBEF0AF0CCEF0AF02480C5
:10159800D8901E361F36203621362806D8A02906B0
:1015A80026AED9EF0AF0DBEF0AF0BFEF0AF0000E23
:1015B800226E21AEE2EF0AF0E4EF0AF008EF0BF03A
:1015C800FF0E1E14196EFF0E1F141A6EFF0E201444
:1015D8001B6E7F0E21141C6E19501A101B101C1044
:1015E800D8B4F9EF0AF0FBEF0AF0FFEF0AF0010EAA
:1015F800226E08EF0BF024A004EF0BF006EF0BF0BF
:1016080008EF0BF0FBEF0AF02250D8B40EEF0BF006
:1016180010EF0BF034EF0BF0010E2426000E2522FC
:101628002622272227A01BEF0BF01DEF0BF034EF2B
:101638000BF024C019F025C01AF026C01BF027C0F3
:101648001CF01C341C321B321A32193219C024F017
:101658001AC025F01BC026F01CC027F0284A292AEA
:1016680029BE3FEF0BF0295008E12828D8A03FEF0A
:101678000BF041EF0BF04BEF0BF0000E246E000E59
:10168800256E800E266E7F0E276E79EF0BF029BE31
:1016980058EF0BF0295006E12804D8B056EF0BF0AC
:1016A80058EF0BF064EF0BF0000E246E000E256E61
:1016B800000E266E000E276E000E1D6E79EF0BF0E1
:1016C80028C023F0FF0E2416FF0E25167F0E2616BF
:1016D800000E271623A073EF0BF075EF0BF076EFD3
:1016E8000BF0268ED8902330276E1D50271224C069
:1016F80011F025C012F026C013F027C014F0120014
:10170800010E046E000E62EC1FF0960ECBEC1EF07C
:10171800EF0E046E000E62EC1FF0030E046E010E55
:1017280062EC1FF0800E046E010E62EC1FF0020ED8
:10173800046E010E62EC1FF0CF0E046E000E62EC18
:101748001FF0000E046E010E62EC1FF0C10E046E55
:10175800010E62EC1FF0300E046E010E62EC1FF0F9
:10176800ED0E046E000E62EC1FF0640E046E010EA6
:1017780062EC1FF0030E046E010E62EC1FF0120EF5
:10178800046E010E62EC1FF0810E046E010E62EC15
:101798001FF0E80E046E000E62EC1FF0850E046E5A
:1017A800010E62EC1FF0000E046E010E62EC1FF0D9
:1017B800780E046E010E62EC1FF0CB0E046E000E64
:1017C80062EC1FF0390E046E010E62EC1FF02C0E55
:1017D800046E010E62EC1FF0000E046E010E62EC46
:1017E8001FF0340E046E010E62EC1FF0020E046E40
:1017F800010E62EC1FF0F70E046E000E62EC1FF093
:10180800200E046E010E62EC1FF0EA0E046E000E4C
:1018180062EC1FF0000E046E010E62EC1FF0000E69
:10182800046E010E62EC1FF0C00E046E000E62EC36
:101838001FF0230E046E010E62EC1FF0C10E046E41
:10184800000E62EC1FF0100E046E010E62EC1FF029
:10185800C50E046E000E62EC1FF03E0E046E010E03
:1018680062EC1FF0280E046E010E62EC1FF0C70E2A
:10187800046E000E62EC1FF0860E046E010E62EC20
:101888001FF0360E046E000E62EC1FF0480E046E58
:10189800010E62EC1FF03A0E046E000E62EC1FF0AF
:1018A800550E046E010E62EC1FF0B10E046E000EB0
:1018B80062EC1FF0000E046E010E62EC1FF0180EB1
:1018C800046E010E62EC1FF0B60E046E000E62ECA0
:1018D8001FF0080E046E010E62EC1FF0820E046EFB
:1018E800010E62EC1FF0270E046E010E62EC1FF071
:1018F800F20E046E000E62EC1FF0000E046E010E74
:1019080062EC1FF0260E046E000E62EC1FF0010E52
:10191800046E010E62EC1FF0E00E046E000E62EC25
:101928001FF00F0E046E010E62EC1FF0310E046EF4
:10193800010E62EC1FF02B0E046E010E62EC1FF01C
:101948000C0E046E010E62EC1FF00E0E046E010EFA
:1019580062EC1FF0080E046E010E62EC1FF04E0ED2
:10196800046E010E62EC1FF0F10E046E010E62ECC3
:101978001FF0370E046E010E62EC1FF0070E046EA6
:10198800010E62EC1FF0100E046E010E62EC1FF0E7
:10199800030E046E010E62EC1FF00E0E046E010EB3
:1019A80062EC1FF0090E046E010E62EC1FF0000ECF
:1019B800046E010E62EC1FF0E10E046E000E62EC84
:1019C8001FF0000E046E010E62EC1FF00E0E046E86
:1019D800010E62EC1FF0140E046E010E62EC1FF093
:1019E800030E046E010E62EC1FF0110E046E010E60
:1019F80062EC1FF0070E046E010E62EC1FF0310E50
:101A0800046E010E62EC1FF0C10E046E010E62EC52
:101A18001FF0480E046E010E62EC1FF0080E046EF3
:101A2800010E62EC1FF00F0E046E010E62EC1FF047
:101A38000C0E046E010E62EC1FF0310E046E010EE6
:101A480062EC1FF0360E046E010E62EC1FF00F0EF2
:101A5800046E010E62EC1FF0110E046E000E62ECB3
:101A68001FF0780ECBEC1EF0290E046E000E62EC0F
:101A78001FF0780ECBEC1EF0000E0D6E000E0C6EF3
:101A880006EC1CF0120020C038F021C039F022C04A
:101A98003AF023C03BF024C03CF025C03DF026C0FE
:101AA8003EF027C03FF03FBE5CEF0DF05FEF0DF05A
:101AB800010E60EF0DF0000E366E376A36503710A3
:101AC800D8B469EF0DF06BEF0DF07BEF0DF03F1E12
:101AD8003E1E3D1E3C1E3B1E3A1E391E386C000E33
:101AE80039223A223B223C223D223E223F2258BE46
:101AF80080EF0DF082EF0DF083EF0DF0599258BE94
:101B080090EF0DF0585006E15704D8B08EEF0DF065
:101B180090EF0DF096EF0DF0000E336E010E326E61
:101B28009AEF0DF057C032F058C033F0C5C034F00A
:101B3800C6C035F036503710D8A4A5EF0DF0A7EF82
:101B48000DF0AEEF0DF059A4ACEF0DF0AEEF0DF0C7
:101B5800B1EF0DF03406D8A03506000E416E1F0E09
:101B6800406E000E0001EB6F36EF0EF04006D8A075
:101B78004106CC0E4024D96E000E4120DA6E38C0E2
:101B880003F039C004F03AC005F03BC006F03CC091
:101B980007F03DC008F03EC009F03FC00AF00A0E49
:101BA8000B6E000E0C6E000E0D6E000E0E6E000E0B
:101BB8000F6E000E106E000E116E000E126EEBEC22
:101BC80016F003C028F004C029F005C02AF006C0AA
:101BD8002BF007C02CF008C02DF009C02EF00AC069
:101BE8002FF028C015F02AC016F006EC1EF015508C
:101BF800300FDF6E3206D8A033063406D8A035067B
:101C080038C003F039C004F03AC005F03BC006F014
:101C18003CC007F03DC008F03EC009F03FC00AF0E4
:101C28000A0E0B6E000E0C6E000E0D6E000E0E6E80
:101C3800000E0F6E000E106E000E116E000E126E6A
:101C4800A9EC14F003C038F004C039F005C03AF02C
:101C580006C03BF007C03CF008C03DF009C03EF0AC
:101C68000AC03FF041BE41EF0EF0415008E1400488
:101C7800D8A041EF0EF043EF0EF073EF0EF038509E
:101C880039103A103B103C103D103E103F10D8A4BC
:101C980050EF0EF052EF0EF0BAEF0DF033BE5FEFDB
:101CA8000EF0335006E13204D8B05DEF0EF05FEF6E
:101CB8000EF0BAEF0DF035BE6AEF0EF0355008E1C0
:101CC8003404D8A06AEF0EF06CEF0EF073EF0EF04C
:101CD80059B271EF0EF073EF0EF0BAEF0DF0365007
:101CE8003710D8A47AEF0EF07CEF0EF083EF0EF0E9
:101CF80059A481EF0EF083EF0EF0A1EF0EF040062D
:101D0800D8A0410636503710D8A48DEF0EF08FEFCB
:101D18000EF095EF0EF0000E316E2B0E306E99EF2F
:101D28000EF0000E316E2D0E306ECC0E4024D96EA2
:101D3800000E4120DA6E30C0DFFF1EC013F01FC056
:101D480014F0CC0E4024156E000E4120166E34C0DF
:101D580017F035C018F0FBEC1AF013C01EF014C0D1
:101D68001FF0120058BEBBEF0EF0BDEF0EF0BEEF35
:101D78000EF0599258BECBEF0EF0585006E15704BA
:101D8800D8B0C9EF0EF0CBEF0EF0D1EF0EF0000E89
:101D9800366E010E356ED5EF0EF057C035F058C0CF
:101DA80036F0C5C037F0C6C038F059A8DEEF0EF0DF
:101DB800E0EF0EF0E4EF0EF0FE0E3726FF0E3822AD
:101DC80020C039F021C03AF022C03BF023C03CF0DB
:101DD80024C03DF025C03EF026C03FF027C040F0AB
:101DE800000E426E1F0E416E000E0001EB6FB0EF49
:101DF8000FF04106D8A042060F0E3914436E446A0C
:101E080044BE10EF0FF0445009E10A0E435CD8A01D
:101E180010EF0FF012EF0FF01AEF0FF0570E4324E8
:101E2800436E000E4420446E20EF0FF0300E432422
:101E3800436E000E4420446EBF0E296EFF0E2A6EBC
:101E480028502B6E2C6A29502B262A502C222C50D5
:101E58000AE11A0E2B5CD8A034EF0FF037EF0FF021
:101E6800010E38EF0FF0000E316E326A3150321029
:101E7800D8B441EF0FF043EF0FF073EF0FF09F0E60
:101E8800296EFF0E2A6E200E43102B6E000E441092
:101E98002C6E29502B262A502C222C500AE11A0E7F
:101EA8002B5CD8A05AEF0FF05DEF0FF0010E5EEF3C
:101EB8000FF0000E336E346A33503410D8B467EF25
:101EC8000FF069EF0FF073EF0FF043C009F044C053
:101ED8000AF0AEEC1CF009C043F00AC044F0CC0E86
:101EE8004124D96E000E4220DA6E43C0DFFF35066A
:101EF800D8A036063706D8A0380639C029F03AC027
:101F08002AF03BC02BF03CC02CF03DC02DF03EC069
:101F18002EF03FC02FF040C030F0050E9DEF0FF0BF
:101F2800D89030322F322E322D322C322B322A32A8
:101F38002932E82E94EF0FF029C039F02AC03AF080
:101F48002BC03BF02CC03CF02DC03DF02EC03EF025
:101F58002FC03FF030C040F042BEBCEF0FF04250FF
:101F680009E1020E415CD8A0BCEF0FF0BEEF0FF004
:101F7800EEEF0FF039503A103B103C103D103E1078
:101F88003F104010D8A4CBEF0FF0CDEF0FF0FDEFCE
:101F98000EF036BEDAEF0FF0365006E13504D8B051
:101FA800D8EF0FF0DAEF0FF0FDEF0EF038BEE5EFE7
:101FB8000FF0385008E13704D8A0E5EF0FF0E7EF4D
:101FC8000FF0EEEF0FF059B2ECEF0FF0EEEF0FF06D
:101FD800FDEF0EF059A8F3EF0FF0F5EF0FF00BEF50
:101FE80010F04106D8A04206CC0E4124D96E000E4E
:101FF8004220DA6E28C0DFFF4106D8A04206CC0E88
:102008004124D96E000E4220DA6E300EDF6E1EC0FB
:1020180013F01FC014F0CC0E4124156E000E4220A0
:10202800166E37C017F038C018F0FBEC1AF013C062
:102038001EF014C01FF0120058BE25EF10F027EF55
:1020480010F028EF10F0599258BE35EF10F05850A4
:1020580006E15704D8B033EF10F035EF10F03BEF3E
:1020680010F0000E316E010E306E3FEF10F057C0C9
:1020780030F058C031F0C5C032F0C6C033F020C0CF
:1020880034F021C035F022C036F023C037F024C028
:1020980038F025C039F026C03AF027C03BF0000ED2
:1020A8003D6E1F0E3C6E000E0001EB6FD2EF10F07C
:1020B8003C06D8A03D06CC0E3C24D96E000E3D202F
:1020C800DA6E34C003F035C004F036C005F037C00E
:1020D80006F038C007F039C008F03AC009F03BC034
:1020E8000AF00A0E0B6E000E0C6E000E0D6E000E3E
:1020F8000E6E000E0F6E000E106E000E116E000EAA
:10210800126E2EEC1AF003C028F004C029F005C0A6
:102118002AF006C02BF007C02CF008C02DF009C02B
:102128002EF00AC02FF02850300FDF6E3006D8A0EE
:1021380031063206D8A0330634C003F035C004F0A7
:1021480036C005F037C006F038C007F039C008F0CF
:102158003AC009F03BC00AF00A0E0B6E000E0C6E76
:10216800000E0D6E000E0E6E000E0F6E000E106E3D
:10217800000E116E000E126E41EC19F003C034F01F
:1021880004C035F005C036F006C037F007C038F097
:1021980008C039F009C03AF00AC03BF03C503D1085
:1021A800D8B4D9EF10F0DBEF10F00BEF11F034508A
:1021B800351036103710381039103A103B10D8A4A3
:1021C800E8EF10F0EAEF10F05CEF10F031BEF7EF37
:1021D80010F0315006E13004D8B0F5EF10F0F7EF09
:1021E80010F05CEF10F033BE02EF11F0335008E14D
:1021F8003204D8A002EF11F004EF11F00BEF11F048
:1022080059B209EF11F00BEF11F05CEF10F01EC09E
:1022180013F01FC014F0CC0E3C24156E000E3D20A8
:10222800166E32C017F033C018F0FBEC1AF013C06A
:102238001EF014C01FF0120058BE25EF11F027EF52
:1022480011F028EF11F0599258BE35EF11F058509F
:1022580006E15704D8B033EF11F035EF11F03BEF3A
:1022680011F0000E316E010E306E3FEF11F057C0C5
:1022780030F058C031F0C5C034F0C6C035F020C0C9
:1022880036F021C037F022C038F023C039F024C01E
:102298003AF025C03BF026C03CF027C03DF0000EC8
:1022A8003F6E1F0E3E6E000E0001EB6F000E336E88
:1022B800000E326EA5EF11F03E06D8A03F06070EBD
:1022C8003614326E336ACC0E3E24D96E000E3F208F
:1022D800DA6E3250300FDF6E3006D8A03106340681
:1022E800D8A0350636C028F037C029F038C02AF003
:1022F80039C02BF03AC02CF03BC02DF03CC02EF07A
:102308003DC02FF0040E92EF11F0D8902F322E32EC
:102318002D322C322B322A3229322832E82E89EFFC
:1023280011F028C036F029C037F02AC038F02BC089
:1023380039F02CC03AF02DC03BF02EC03CF02FC035
:102348003DF03FBEB0EF11F03F5008E13E04D8A089
:10235800B0EF11F0B2EF11F0E2EF11F03650371094
:10236800381039103A103B103C103D10D8A4BFEF7C
:1023780011F0C1EF11F060EF11F031BECEEF11F0A6
:10238800315006E13004D8B0CCEF11F0CEEF11F0A7
:1023980060EF11F035BED9EF11F0355008E1340483
:1023A800D8A0D9EF11F0DBEF11F0E2EF11F059B23C
:1023B800E0EF11F0E2EF11F060EF11F059A8E7EF4C
:1023C80011F0E9EF11F000EF12F032503310D8B4E9
:1023D800F0EF11F0F2EF11F000EF12F03E06D8A086
:1023E8003F06CC0E3E24D96E000E3F20DA6E300E2A
:1023F800DF6E3406D8A035061EC013F01FC014F0D7
:10240800CC0E3E24156E000E3F20166E34C017F019
:1024180035C018F0FBEC1AF013C01EF014C01FF002
:10242800120039EC1FF0000E5CEC1BF084EC0BF092
:10243800980E036E3F0E046EB6EC1FF0AA0E036EE4
:102448003E0E046EBBEC1FF0F28E000E0001B86F5A
:102458005F0EB76F20EEA3F0130EDE6AE806FDE20A
:102468000001CB05D8A43BEF12F03DEF12F0E0EFEE
:1024780012F09AEC1FF003C0BDF004C0BEF00001DA
:10248800BF6BC06BBDC003F0BEC004F0BFC005F099
:10249800C0C006F0640E076E000E086E000E096ECE
:1024A800000E0A6E47EC1CF003C00FF004C010F0D9
:1024B80005C011F006C012F0FF0E136E0F0E146E59
:1024C800000E156E000E166EB4EC1BF00FC0B9F0BE
:1024D80010C0BAF011C0BBF012C0BCF0A30E0001CE
:1024E800916F000E926F000E946F140E936FC00ED2
:1024F800956FFF0E966FB9C097F0BAC098F0BBC041
:1025080099F0BCC09AF0B3EC1EF0000E236E000EDA
:10251800226E000E256E000E246EA30E266E000E8F
:10252800276EFF0E296E2868000E2B6E000E2A6E8D
:102538009DEC17F0CD0E156ECC0E166E230E176E91
:10254800420E186EB7C003F0B8C004F0000E04BE07
:10255800FF0E056E066E010E02EC13F003C011F0BB
:1025680004C012F005C013F006C014F06FEC09F0B7
:1025780011C02AF012C02BF013C02CF014C02DF09B
:10258800BEEC18F02AC09FF02BC0A0F0000E00018E
:10259800A0BFFF0EA16FA26FBD519F5DBE51A05994
:1025A800BF51A159C051A259D8B0DDEF12F0DFEFE9
:1025B80012F0E0EF12F0898ACB51D8A4E6EF12F0BE
:1025C800E8EF12F034EF12F0000E236E000E226EC8
:1025D800000E256E000E246EAF0E266EFF0E276EBF
:1025E800FF0E296E2868000E2B6E000E2A6E9DECD9
:1025F80017F0899A34EF12F031EF00F00B6E0B50A0
:10260800D8B409EF13F00BEF13F02DEF13F006BE5B
:1026180012EF13F010EF13F02DEF13F003C007F0D3
:1026280004C008F005C009F006C00AF0071E081E1D
:10263800091E0A1E072A000E082209220A2207C0BC
:102648000DF008C00EF009C00FF00AC010F035EF09
:1026580013F003C00DF004C00EF005C00FF006C063
:1026680010F00350041005100610D8A43EEF13F024
:1026780040EF13F04AEF13F0000E036E000E046EE5
:10268800000E056E000E066EDBEF13F0960E0C6E54
:1026980054EF13F00C2AD89010320F320E320D324C
:1026A800000E0D14076E000E0E14086E000E0F14A7
:1026B800096EFE0E10140A6E0750081009100A1051
:1026C800D8A469EF13F06BEF13F04EEF13F079EF26
:1026D80013F00C2A010E0D26000E0E220F221022D6
:1026E800D89010320F320E320D32000E0D14076ED4
:1026F800000E0E14086E000E0F14096EFF0E101453
:102708000A6E0750081009100A10D8A48EEF13F0AB
:1027180090EF13F06DEF13F098EF13F00C06D890CC
:102728000D360E360F3610360FBE9DEF13F09FEFA5
:1027380013F0A7EF13F0020E0C60A5EF13F0A7EF4C
:1027480013F092EF13F00CB0ACEF13F0AEEF13F000
:10275800AFEF13F00F9ED8900C320CC007F0086A48
:10276800096A0A6A07C00AF0096A086A076A07500C
:102778000D1208500E1209500F120A5010120B5069
:10278800D8B4C9EF13F0CBEF13F0D3EF13F006BEB4
:10279800D2EF13F0D0EF13F0D3EF13F0108E0DC07B
:1027A80003F00EC004F00FC005F010C006F01200D0
:1027B800000E186E000E176E000E116E000E106ED1
:1027C800E8EF13F00A4A0B2A010E166E0AC0F6FF4C
:1027D8000BC0F7FFF86A0800F550200AD8B4F7EFE5
:1027E80013F0F9EF13F017EF14F0F70E0C6EFF0E5D
:1027F8000D6E0AC0F6FF0BC0F7FFF86A0800F55027
:102808000E6E0F6A0C500E260D500F220F5009E164
:10281800050E0E5CD8A013EF14F015EF14F017EFA7
:1028280014F0000E166E16C012F0136A1250131030
:10283800D8A421EF14F023EF14F0E6EF13F02DEFF6
:1028480014F0000E116E010E106E0A4A0B2A64EF86
:1028580014F00AC0F6FF0BC0F7FFF86A0800F5503D
:102868000C6E0D6A0D50000AD8B43DEF14F064EFF9
:1028780014F00C502B0AD8B429EF14F0060AD8B477
:1028880025EF14F064EF14F017C003F018C004F03B
:10289800000E066E0A0E056E26EC1FF00AC0F6FF43
:1028A8000BC0F7FFF86A0800F550035E000E045AE3
:1028B800300E0324176E000E0420186E29EF14F052
:1028C800D00E0C6EFF0E0D6E0AC0F6FF0BC0F7FFA0
:1028D800F86A0800F5500E6E0F6A0C500E260D505F
:1028E8000F220F500AE10A0E0E5CD8A07EEF14F0FA
:1028F80081EF14F0010E82EF14F0000E146E156AC9
:1029080014501510D8A48BEF14F08DEF14F048EF85
:1029180014F010501110D8A494EF14F096EF14F09E
:10292800A4EF14F017C00CF018C00DF00C1E0D1E0B
:102938000C4A0D2A0CC00AF00DC00BF0A8EF14F0D9
:1029480017C00AF018C00BF01200000E146E12BE69
:10295800B2EF14F0B0EF14F0C4EF14F0121E111E11
:10296800101E0F1E0E1E0D1E0C1E0B6C000E0C22D0
:102978000D220E220F22102211221222010E146E95
:102988000ABECBEF14F0C9EF14F0DDEF14F00A1E05
:10299800091E081E071E061E051E041E036C000ED7
:1029A8000422052206220722082209220A22010EF1
:1029B800141A20EE15F0070EDE6AE806FDE20B5049
:1029C8000C100D100E100F10101011101210D8B49A
:1029D800F0EF14F0F2EF14F044EF15F0010E136E5F
:1029E80000EF15F0D8900B360C360D360E360F3634
:1029F800103611361236132A12AE05EF15F007EF0E
:102A080015F0F6EF14F0D890153616361736183636
:102A180019361A361B361C360B50035C0C500458FA
:102A28000D5005580E5006580F50075810500858AA
:102A38001150095812500A58D8A025EF15F027EF61
:102A480015F038EF15F00B50035E0C50045A0D507A
:102A5800055A0E50065A0F50075A1050085A11506E
:102A6800095A12500A5A1580D8901232113210326F
:102A78000F320E320D320C320B32132E07EF15F0D7
:102A88001450D8B44AEF15F04CEF15F05CEF15F080
:102A98001C1E1B1E1A1E191E181E171E161E156C2C
:102AA800000E16221722182219221A221B221C2273
:102AB80015C003F016C004F017C005F018C006F0E2
:102AC80019C007F01AC008F01BC009F01CC00AF0B2
:102AD800120020EEECF010EE11F0060EDBCFE3FF53
:102AE800E806FCE20EC01CF00FC01DF01C501D10C3
:102AF800D8A481EF15F083EF15F087EF15F0110ECC
:102B08001C6E000E1D6E1CC003F01DC004F098EC76
:102B18001EF003C020F004C021F057C01EF058C0BA
:102B28001FF01FBE9AEF15F09CEF15F0B1EF15F0EE
:102B380020501E5C1F50800A106E2150800A1058C9
:102B4800D8A0A9EF15F0ABEF15F0ADEF15F0B1EF88
:102B580015F01EC020F01FC021F020C01EF021C0BB
:102B68001FF0C5C01AF0C6C01BF059B0BEEF15F073
:102B7800C0EF15F0DDEF15F0CEEF15F0000E046E86
:102B8800200E036E0CC005F00DC006F096EC1AF08E
:102B9800204A212A1A50205C2150800A106E1B50AE
:102BA800800A1058D8A0DBEF15F0DDEF15F0C2EF62
:102BB80015F0000E196E000E186EF6EF15F01CC019
:102BC800D9FF1DC0DAFFDF50106E1050036E046A83
:102BD8000CC005F00DC006F096EC1AF01C4A1D2A30
:102BE800184A192A1E50185C1950800A106E1F5076
:102BF800800A1058D8A003EF16F005EF16F0E3EF9F
:102C080015F059A00AEF16F00CEF16F029EF16F0A0
:102C18001AEF16F0000E046E200E036E0CC005F0BD
:102C28000DC006F096EC1AF0204A212A1A50205CB2
:102C38002150800A106E1B50800A1058D8A027EF28
:102C480016F029EF16F00EEF16F020C00CF021C098
:102C58000DF01200000E1F6ECEEF16F0D890103453
:102C6800F66E1134F76EDF0EF626F10EF722F86ACB
:102C7800000EF8220900F5CF16F00900F5CF17F07D
:102C88001F50165E000E175A0C501624086E0D5071
:102C98001720096E0EC00AF00FC00BF0E5EC1DF00E
:102CA800000E206E000E216E1F50166E176AD89007
:102CB80016361736D8901034F66E1134F76EDF0ECC
:102CC800F626F10EF722F86A000EF8220900F5CF71
:102CD80018F00900F5CF19F0D890183619361650A3
:102CE800185E1750195A2050185E000E195A1050C5
:102CF800182611501922D89018361936DF0E1824C4
:102D0800F66EF10E1920F76EF86A000EF822090027
:102D1800F5CF1AF00900F5CF1BF021C01CF0800E8A
:102D28001D6E000E1E6E1C2A9DEF16F01E341E32FC
:102D38001D321C2E9AEF16F01A501D161B501E1627
:102D48001D501E10D8B4ABEF16F0ADEF16F0B5EF6E
:102D580016F012C006F013C007F07AEC1FF0BBEFB4
:102D680016F014C006F015C007F07AEC1FF0212AFF
:102D7800070E2164C2EF16F0C4EF16F058EF16F0F4
:102D8800202A010E2064CBEF16F0CDEF16F056EF97
:102D980016F01F2AD8901034F66E1134F76EDF0E35
:102DA800F626F10EF722F86A000EF8221F50166E6A
:102DB800176A0900F550165C0900F5501758D8A095
:102DC800E8EF16F0EAEF16F032EF16F01200000EF8
:102DD800146E0ABEF4EF16F0F2EF16F006EF17F0D5
:102DE8000A1E091E081E071E061E051E041E036C69
:102DF800000E0422052206220722082209220A229E
:102E0800010E146E12BE0DEF17F00BEF17F01DEF49
:102E180017F0121E111E101E0F1E0E1E0D1E0C1E68
:102E28000B6C000E0C220D220E220F2210221122F2
:102E380012220B500C100D100E100F101010111044
:102E48001210D8B42AEF17F02CEF17F074EF17F020
:102E5800010E136E3AEF17F0D8900B360C360D367C
:102E68000E360F36103611361236132A12AE3FEFD1
:102E780017F041EF17F030EF17F00B50035C0C50D0
:102E880004580D5005580E5006580F50075810504A
:102E980008581150095812500A58D8A056EF17F080
:102EA80058EF17F068EF17F00B50035E0C50045AF8
:102EB8000D50055A0E50065A0F50075A1050085A0E
:102EC8001150095A12500A5AD8901232113210323F
:102ED8000F320E320D320C320B32132E41EF17F037
:102EE8001450D8B47AEF17F07CEF17F08CEF17F086
:102EF8000A1E091E081E071E061E051E041E036C58
:102F0800000E0422052206220722082209220A228C
:102F180003C003F004C004F005C005F006C006F0C5
:102F280007C007F008C008F009C009F00AC00AF095
:102F380012001CEF18F0000E336E000E326E000EF9
:102F4800316E000E306EC8EF17F0D8903234F66E3E
:102F58003334F76EDF0EF626F10EF722F86A000E0C
:102F6800F8220900F5CF2CF00900F5CF2DF0D89004
:102F78002C362D36010E2C26000E2D222C503226F2
:102F88002D503322304A312AE00E2C6EFF0E2D6E62
:102F980026C0F6FF27C0F7FF000EF86E0E0EF76486
:102FA80003D00800F55005D0F6CFE1FFF7CFE2FFD8
:102FB800E7502E6E2F6A2C502E262D502F222E5081
:102FC800305C2F503158D8A0ECEF17F0EEEF17F027
:102FD800A9EF17F022C00CF023C00DF024C00EF0AA
:102FE80025C00FF032C010F033C011F028C012F025
:102FF80029C013F02AC014F02BC015F02EEC16F0DF
:10300800D8903234F66E3334F76EDF0EF626F10EB2
:10301800F722F86A000EF8220900F5CF2CF0090013
:10302800F5CF2DF02C5022262D502322264A272A70
:1030380026C0F6FF27C0F7FF000EF86E0E0EF764E5
:1030480003D00800F55005D0F6CFE1FFF7CFE2FF37
:10305800E7500009D8A433EF18F035EF18F09FEFC8
:1030680017F01200800E00017E5DD8A03EEF18F028
:1030780040EF18F048EF18F0000EC26F4B0EC16F0A
:103088007B697C69BDEF18F07BC08BF07CC08CF04D
:103098007E5109E1020E7D5DD8A055EF18F057EF7B
:1030A80018F063EF18F0FF0E7D258F6FFF0E7E215D
:1030B800906F000E8E6F000E8D6F6BEF18F0000E84
:1030C800906F010E8F6F000E8E6F010E8D6F8B0E3D
:1030D8004F6E000E506E7FC051F080C052F081C01C
:1030E80053F082C054F07CEC1CF04FC089F050C003
:1030F8008AF000017D517E11D8B485EF18F087EF72
:1031080018F0B9EF18F08ABF8CEF18F08EEF18F0AE
:10311800B9EF18F0FF0E836FFF0E846F7DC085F046
:103128007EC086F083518527845186238551895D29
:1031380086518A59D8A0A3EF18F0A5EF18F0ADEF83
:1031480018F0FF0E7D25876FFF0E7E21886FB1EF87
:1031580018F089C087F08AC088F087517B25D96E1E
:1031680088517C21DA6E000EDF6E89C07BF08AC040
:103178007CF012002C342D34336E3350D8A4C7EFB2
:1031880018F0C9EF18F0D3EF18F0000E2A6E000EF1
:103198002B6E000E2C6E000E2D6E40EF19F02AC01B
:1031A8002EF02BC02FF02CC030F02DC031F0200EA7
:1031B800E3EF18F0D890313230322F322E32E82E29
:1031C800DEEF18F02E50326E2C8EFF0E2A16FF0EF0
:1031D8002B16FF0E2C16000E2D16960E335E33BEE0
:1031E800FAEF18F0F8EF18F010EF19F03350800AE2
:1031F800970FD8B002EF19F004EF19F006EF19F0A5
:10320800C9EF18F0D8902D322C322B322A32333EA7
:1032180006EF19F028EF19F01F0E336416EF19F0B6
:1032280018EF19F020EF19F0C9EF18F0D8902A36E6
:103238002B362C362D3633063350D8A426EF19F00A
:1032480028EF19F01AEF19F03250D8B42EEF19F010
:1032580030EF19F038EF19F02D1E2C1E2B1E2A6C9A
:10326800000E2B222C222D222AC02AF02BC02BF054
:103278002CC02CF02DC02DF0120020EE13F0070EFC
:10328800DE6AE806FDE20B500C100D100E100F1050
:10329800101011101210D8B454EF19F056EF19F09D
:1032A800A8EF19F0010E1B6E64EF19F0D8900B36D9
:1032B8000C360D360E360F361036113612361B2ADE
:1032C80012AE69EF19F06BEF19F05AEF19F0D890B8
:1032D80013361436153616361736183619361A3682
:1032E8000B50035C0C5004580D5005580E500658EE
:1032F8000F500758105008581150095812500A58C2
:10330800D8A089EF19F08BEF19F09CEF19F00B504A
:10331800035E0C50045A0D50055A0E50065A0F50B1
:10332800075A1050085A1150095A12500A5A138055
:10333800D8901232113210320F320E320D320C3256
:103348000B321B2E6BEF19F013C003F014C004F0FE
:1033580015C005F016C006F017C007F018C008F031
:1033680019C009F01AC00AF0120003C00AF004C01C
:103378000BF005C00CF006C00DF00706D8A0080633
:10338800072806E10828D8A4CCEF19F0CEEF19F0E9
:10339800DBEF19F0000E046E000E036E2DEF1AF02D
:1033A8000A4A0B2A0C4A0D2A0706D8A008060AC0A2
:1033B800F6FF0BC0F7FFF86A0800F5500009D8B40B
:1033C800E8EF19F0EAEF19F019EF1AF00CC0F6FF60
:1033D8000DC0F7FFF86A0800F5500009D8B4F7EFF8
:1033E80019F0F9EF19F019EF1AF007500810D8B4CE
:1033F80000EF1AF002EF1AF019EF1AF00AC0F6FF00
:103408000BC0F7FFF86A0800F5CF09F00CC0F6FF0B
:103418000DC0F7FFF86A0800F5500918D8B417EF7F
:103428001AF019EF1AF0D4EF19F00AC0F6FF0BC022
:10343800F7FFF86A0800F5CF09F00CC0F6FF0DC0D9
:10344800F7FFF86A0800F550095C036E046AD8A013
:10345800040612000B500C100D100E100F10101057
:1034680011101210D8B43BEF1AF03DEF1AF085EFA7
:103478001AF0010E136E4BEF1AF0D8900B360C367B
:103488000D360E360F36103611361236132A12AE96
:1034980050EF1AF052EF1AF041EF1AF00B50035C9C
:1034A8000C5004580D5005580E5006580F50075828
:1034B800105008581150095812500A58D8A067EFF0
:1034C8001AF069EF1AF079EF1AF00B50035E0C50FE
:1034D800045A0D50055A0E50065A0F50075A1050EC
:1034E800085A1150095A12500A5AD89012321132F9
:1034F80010320F320E320D320C320B32132E52EFC5
:103508001AF003C003F004C004F005C005F006C0BB
:1035180006F007C007F008C008F009C009F00AC0A3
:103528000AF0120005500610D8B49DEF1AF09FEF6C
:103538001AF0A8EF1AF005500610D8A4A6EF1AF052
:10354800A8EF1AF0ADEF1AF00350CAEC1FF0FAEF2B
:103558001AF020EE04F00550D9260650DA22DE5083
:10356800DE10D8B4BAEF1AF0BCEF1AF0D7EF1AF0A1
:1035780020EE04F00550D9260650DA2210EE02F0AB
:103588000550E1260650E222DE50E65CE650800A4D
:103598000B6EDE50800A0B58D8B0D5EF1AF0D7EF73
:1035A8001AF0FAEF1AF020EE02F00550D92606506C
:1035B800DA22DECF07F0DDCF08F005C0D9FF06C05C
:1035C800DAFFDECF09F0DDCF0AF007500924D96E03
:1035D80008500A20DA6E03C0DFFF20EE02F0055023
:1035E800D9260650DA22DE2A000EDD22120059A062
:1035F80000EF1BF002EF1BF00CEF1BF015C00CF0F6
:1036080016C00DF013C00EF014C00FF0C3EC1DF07F
:1036180018BE11EF1BF013EF1BF019EF1BF017C0CA
:103628001CF018C01DF01DEF1BF0000E1D6E000EE3
:103638001C6E000E1B6E000E1A6E2FEF1BF0000E94
:10364800046E200E036E13C005F014C006F096EC4D
:103658001AF01A4A1B2A1C501A5C1B50800A196E51
:103668001D50800A1958D8A03CEF1BF03EEF1BF004
:1036780023EF1BF059B043EF1BF045EF1BF04FEF62
:103688001BF015C00CF016C00DF013C00EF014C0DE
:103698000FF0C3EC1DF015C003F016C004F098EC51
:1036A8001EF01C500324136E1D500420146E1200CB
:1036B800046EC6BA62EF1BF064EF1BF0B3EF1BF0A9
:1036C8000450040D010EF326000EF422AB0EF32471
:1036D800F66EFF0EF420F76EF86A000EF822080066
:1036E800F5CFC7FF0450040DAB0EF324F66EFF0EA2
:1036F800F420F76EF86A000EF8220800F5CFC6FF2E
:10370800000EC56E0450040D020EF326000EF422BE
:10371800AB0EF324F66EFF0EF420F76EF86A000E77
:10372800F8220800F5CFC8FF0450040D030EF32655
:10373800000EF422AB0EF324F66EFF0EF420F76EA3
:10374800F86A000EF8220800F5CF03F00346034696
:10375800034694500318F70B0318946EC68A120098
:10376800000E176E000E186E000E196E000E1A6EFF
:103778001350141015101610D8B4C5EF1BF0C7EF6E
:103788001BF0FDEF1BF0010E1B6ED1EF1BF0D89064
:1037980013361436153616361B2A16AED6EF1BF01E
:1037A800D8EF1BF0CBEF1BF0D89017361836193628
:1037B8001A3613500F5C14501058155011581650E3
:1037C8001258D8A0EAEF1BF0ECEF1BF0F5EF1BF056
:1037D80013500F5E1450105A1550115A1650125AA1
:1037E8001780D89016321532143213321B2ED8EFA8
:1037F8001BF017C00FF018C010F019C011F01AC054
:1038080012F01200010E116E400E106E000E0F6EB7
:10381800F00E0E6E000E096E000E086E000E0B6E96
:10382800000E0A6EE5EC1DF00009D8B41EEF1CF07E
:1038380020EF1CF039EF1CF046EF1CF00CC006F02E
:103848000DC007F07AEC1FF01006D8A0110610285A
:1038580006E11128D8A433EF1CF035EF1CF022EF55
:103868001CF0010E116E400E106E0E06D8A00F0649
:103878000E2806E10F28D8A444EF1CF046EF1CF0F0
:1038880028EF1CF01200000E0B6E000E0C6E000EDE
:103898000D6E000E0E6E03A054EF1CF056EF1CF0D8
:1038A8005EEF1CF007500B2608500C2209500D2221
:1038B8000A500E22D8900736083609360A36D890AC
:1038C8000632053204320332035004100510061084
:1038D800D8A471EF1CF073EF1CF04FEF1CF00BC075
:1038E80003F00CC004F00DC005F00EC006F0120085
:1038F80051C055F052C056F0000E0001C46F000EC2
:10390800C36F9AEF1CF04FC045F050C046F0550EFB
:10391800476E000E486E53C049F054C04AF033EC6D
:1039280000F045500001C3274650C42355C0F6FF98
:1039380056C0F7FFF86A0800F5500009D8A4A7EFA9
:103948001CF0A9EF1CF087EF1CF0C3C04FF0C4C0F7
:1039580050F012009F0E0B6EFF0E0C6E09C00DF09A
:103968000AC00EF00B500D260C500E220E500AE124
:103978001A0E0D5CD8A0C3EF1CF0C6EF1CF0010EA8
:10398800C7EF1CF0000E0F6E106A0F501010D8B45D
:10399800D0EF1CF0D2EF1CF0D8EF1CF05F0E09142A
:1039A800096E0A6ADCEF1CF009C009F00AC00AF0C7
:1039B80012000001C551C611D8A4E5EF1CF0E7EFCD
:1039C8001CF0EDEF1CF0C5C021F0C6C022F0F3EFEB
:1039D8001CF0FF0EC525216EFF0EC621226E20C0E9
:1039E800CCF0000ECD6F1EC013F01FC014F0CC0E2B
:1039F800156E000E166E21C017F022C018F0FBECF1
:103A08001AF013C01EF014C01FF01200010E096E48
:103A1800200E03180410D8B414EF1DF016EF1DF093
:103A28002FEF1DF0F70E056EFF0E066E03C007F0B0
:103A380004C008F00550072606500822085009E17E
:103A4800050E075CD8A02BEF1DF02DEF1DF02FEF12
:103A58001DF0000E096E09C003F0046A1200880EFA
:103A6800F66E3F0EF76E000EF86E00EEECF010EEFC
:103A780007F00900F5CFEEFFE550E150FAE101EE5D
:103A880000F0140EEE6AE806FDE100EEC1F02B0E20
:103A9800EE6AE806FDE15A6A596A586A576A5B9005
:103AA8005B92000115EF12F0075009E1F00E065C79
:103AB800D8A061EF1DF063EF1DF066EF1DF0010E59
:103AC8007BEF1DF02A0E046E000E62EC1FF007500B
:103AD800046E010E62EC1FF006C004F0010E62ECE9
:103AE8001FF02C0E046E000E62EC1FF0000E120088
:103AF800400E065C010E0758D8A085EF1DF087EF31
:103B08001DF08AEF1DF0010E9FEF1DF02B0E046EC5
:103B1800000E62EC1FF00750046E010E62EC1FF0FD
:103B280006C004F0010E62EC1FF02C0E046E000EAD
:103B380062EC1FF0000E1200000E8D6E000E8C6EEF
:103B4800000E896E000E8A6E000E8B6E040E966E45
:103B58000F0E926E9368D70E946E9568870E0F01BC
:103B68005D6F790E5C6F000E5B6FF18E5A89960E51
:103B7800036E3F0E046EB6EC1FF0F2861200000EC4
:103B8800126E000E116ED4EF1DF010C003F0046A1F
:103B98000EC005F00FC006F096EC1AF0114A122A72
:103BA80011500C24D96E12500D20DA6EDF50106EB1
:103BB8001050D8A4E2EF1DF0E4EF1DF0C9EF1DF09E
:103BC800120008C006F009C007F07CEC1DF00009DF
:103BD800D8A4F1EF1DF0F3EF1DF001EF1EF00AC0BD
:103BE80006F00BC007F058EC1DF00009D8B4FFEF41
:103BF8001DF001EF1EF004EF1EF0010E05EF1EF0A0
:103C0800000E120016BE13EF1EF0165006E1150442
:103C1800D8B011EF1EF013EF1EF021EF1EF015C003
:103C280017F016C018F0171E181E174A182A17C0C2
:103C380015F018C016F025EF1EF015C015F016C0C7
:103C480016F012009F0E056EFF0E066E200E031072
:103C5800076E000E0410086E05500726065008224D
:103C680008500AE11A0E075CD8A03DEF1EF040EF9D
:103C78001EF0010E41EF1EF0000E036E046A1200E2
:103C88009F0E056EFF0E066E03C007F004C008F015
:103C9800055007260650082208500AE11A0E075C4C
:103CA800D8A059EF1EF05CEF1EF0010E5DEF1EF07C
:103CB800000E036E046A1200BF0E056EFF0E066E3C
:103CC80003C007F004C008F0055007260650082274
:103CD80008500AE11A0E075CD8A075EF1EF078EFBD
:103CE8001EF0010E79EF1EF0000E036E046A12003A
:103CF800D00E056EFF0E066E03C007F004C008F074
:103D0800055007260650082208500AE10A0E075CEB
:103D1800D8A091EF1EF094EF1EF0010E95EF1EF063
:103D2800000E036E046A120003C005F004C006F01A
:103D3800A0EF1EF0034A042A03C0D9FF04C0DAFF2B
:103D4800DF50D8A4AAEF1EF0ACEF1EF09EEF1EF0D5
:103D58000550035C036E06500458046E1200970E5B
:103D680000019D6F000E9E6F91C07BF092C07CF0A9
:103D780093C07DF094C07EF095C07FF096C080F02F
:103D88009D0E816F000E826F36EC18F01200046EE3
:103D9800000E056ED8EF1EF0030E036E980EE82E87
:103DA800FED7032EFCD7052A0450055CD8A0DFEF08
:103DB8001EF0E1EF1EF0D0EF1EF012000001F751E7
:103DC800F811D8B4EAEF1EF0ECEF1EF0F8EF1EF091
:103DD80002D8F8EF1EF00500FA6EF751FD6EF851A3
:103DE800FE6EFF6AFA50120012000001F351F4113E
:103DF800D8B401EF1FF003EF1FF00FEF1FF002D848
:103E08000FEF1FF00500FA6EF351FD6EF451FE6ED0
:103E1800FF6AFA5012001200000EAA6E0B0ECF6E47
:103E2800DC0ECE6E9E90CE50CFCF03F0046A03C056
:103E380004F0036A03100001F56F0450F66F310EA9
:103E4800CD6E120003500502F3CF07F0F4CF08F04F
:103E580003500602F350082604500502F3500826C2
:103E680007C003F008C004F01200C8EC1FF0A4EC6F
:103E78001FF0A0EC1DF0ADEC1FF090EC1FF010EC63
:103E88001FF085EC1FF01200036E03C0C9FF9EA649
:103E980050EF1FF052EF1FF04BEF1FF09E96C950E6
:103EA80012000001CB51D8B45CEF1FF05FEF1FF098
:103EB800010E60EF1FF0000ECB6F1200056E05B00B
:103EC80002D08D9001D08D808D92045048EC1FF067
:103ED8008D8212000F015AA974EF1FF076EF1FF0C0
:103EE80078EF1FF0E2EC1EF0F29012000750046E1B
:103EF800010E62EC1FF006C004F0010E62EC1FF028
:103F08001200010EC26E800EC16EAD0EC06E000EA4
:103F1800C46E000EC36E1200F292F18C9A0E036EFC
:103F28003F0E046EBBEC1FF0F2881200C450066E00
:103F3800056AC3500524036E000E0620046E1200A5
:103F4800400EC76E000EC66E010EC86E9496C69AD5
:103F58001200620ED36E000ED26E000E9B6E000E23
:103F68009A6E120003C0F7F004C0F8F0120003C004
:103F7800F3F004C0F4F01200F292F9EC1EF0120013
:073F8800286E756C6C290026
:0C3F9000D09E120012001200120012005D
:10F1DE00000400000000000000000000000000001D
:10F1EE00000000030000000000FE001B00000000F5
:10F1FE000005001E00000000000000000000001EC0
:10F20E00000000000000000B0000000000100001D4
:10F21E000010001D00F00003001E00010010000190
:10F22E000010001D00F00003001E00010010000180
:10F23E0000000000000900000004001C000800226D
:10F24E0000100042001000FF007F004200100084FA
:10F25E0000100000000F00000000000C001C000059
:10F26E00002200100022000800220006001C0001EF
:10F27E0000C000000020000E001800110004001154
:10F28E00000200110000000E00000000000B000044
:10F29E0000000000000E001C001100A2001000C2B1
:10F2AE00001000220011001C000A0000000C0000DB
:10F2BE00000C00000012000000000003000000001F
:10F2CE00001E00000000000000060000000000000C
:10F2DE00000000E0001F001C006000020080000023
:10F2EE000000000400000000000600C000F8003F0F
:10F2FE000000000000060024000000180000007E40
:10F30E0000000018000000240000000000000009AA
:10F31E00000000000080000000800000008000005F
:10F32E0000F0000700800000008000000080000058
:10F33E00000000000004000000000000006000005B
:10F34E000018000000000005000000010000000190
:10F35E000000000100000001000000000004000099
:10F36E000000000000180000001800000000000857
:10F37E000000000000000040000000380000000700
:10F38E0000E00000001C0000000200000000000071
:10F39E00000900F800070004000800020010000237
:10F3AE00001000020010000200100004000800F817
:10F3BE000007000000000006000000000000000032
:10F3CE00000200000002000000FE001F000000000E
:10F3DE0000090018001000040018000200140002BA
:10F3EE0000120002001100820010004400100038CC
:10F3FE0000100000000000090008000C00040010BE
:10F40E0000020010004200100042001000440010E4
:10F41E0000B800080000000700000000000900000E
:10F42E0000020000000300800002006000020010D5
:10F43E0000020008000200FE001F00000002000093
:10F44E00000000090000000400700008002E0010EB
:10F45E0000220010002200100022001000420008BE
:10F46E0000820007000000000009000000000000FC
:10F47E00000700C000080060001000580010004493
:10F48E0000100082000800000007000000000009C4
:10F49E0000000000000200100002000C0002000339
:10F4AE0000C2000000320000000E0000000200004A
:10F4BE00000000000009000000070098000800642A
:10F4CE00001000420010004200100064001000986E
:10F4DE000008000000070000000000090000000006
:10F4EE000038000000440010008200080082000472
:10F4FE00008200030084000000780000000000007D
:10F50E000004000000000030001800300018000059
:10F51E000000000400000000003000600030001801
:10F52E0000000000000A00000000008000000080C3
:10F53E000000004000010020000200200002001028
:10F54E000004001000040008000800000000000A7B
:10F55E00000000000020000100200001002000013A
:10F56E000020000100200001002000010020000109
:10F57E000020000100000000000A0000000000084A
:10F58E0000080010000400100004002000020020FB
:10F59E00000200400001008000000080000000001A
:10F5AE000000000800000000000C000000820001B6
:10F5BE00004200020022001A0022001A009C0001E4
:10F5CE0000000000000E0000000000F00003000824
:10F5DE0000040004000800C20011002200120012F4
:10F5EE0000120012001200E20011001200120004BC
:10F5FE0000120008000900F0000400000000000DD9
:10F60E0000000000000000100000000E008000014D
:10F61E0000600001001C000100020001001C00013E
:10F62E0000600001008000010000000E00000010CC
:10F63E00000000000009000000000000000000FEB5
:10F64E00001F0042001000420010006400100098DD
:10F65E0000080000000700000000000D0000000080
:10F66E0000F000030008000400040008000200106F
:10F67E000002001000020010000200100002001034
:10F68E000004000800040008000800040000000048
:10F69E00000C000000000000000000FE001F000231
:10F6AE000010000200100002001000020010000204
:10F6BE000010000400080008000400F00003000021
:10F6CE0000000009000000000000000000FE001F06
:10F6DE0000420010004200100042001000420010D4
:10F6EE0000420010000000000008000000000000B2
:10F6FE00000000FE001F0042000000420000004219
:10F70E0000000042000000000000000E000000009B
:10F71E0000F00003000800040004000800020010BE
:10F72E000002001000020010000200100082001003
:10F73E00008400100084000800880004008000038C
:10F74E0000000000000A000000000000000000FEA3
:10F75E00001F00400000004000000040000000407C
:10F76E0000000040000000FE001F0000000000042A
:10F77E00000000000000000000FE001F000000005E
:10F78E00000700000000000000080000001000004C
:10F79E0000100000000800FE000700000000000935
:10F7AE00000000000000000000FE001F00600000CE
:10F7BE0000900001000800020004000C000200107E
:10F7CE00000000000008000000000000000000FE25
:10F7DE00001F0000001000000010000000100000CC
:10F7EE00001000000000000F000000000000001CD0
:10F7FE0000F80003000600000038000000C0000101
:10F80E000000000E000000100000000E00C00001FD
:10F81E00003800000006000000F800030000001C85
:10F82E0000000000000B000000000000000000FEC1
:10F83E00001F0008000000300000004000000080A3
:10F84E000000000000030000000400FE001F000086
:10F85E000000000E0000000000F00003000800048D
:10F86E000004000800020010000200100002001048
:10F87E000002001000020010000200100004000838
:10F88E000008000400F00003000000000009000062
:10F89E0000000000000000FE001F004200000042B9
:10F8AE0000000042000000240000001800000000CC
:10F8BE000000000E0000000000F00003000800042D
:10F8CE0000040008000200100002001000020010E8
:10F8DE0000020011000200120002000C00040008D9
:10F8EE000008001600F0002100000000000A0000D1
:10F8FE0000000000000000FE001F0042000000C2D9
:10F90E00000000420001004200060024000800181A
:10F91E00001000000000000800000004001800089D
:10F92E000024001000420010004200100084000865
:10F93E00000800070000000000080002000000029E
:10F94E0000000002000000FE001F00020000000286
:10F95E0000000002000000000000000A000000008D
:10F96E000000000000FE000700000008000000106C
:10F97E0000000010000000100000000800FE00074C
:10F98E0000000000000C00020000001C00000060DF
:10F99E000000008000010000000E000000100000BA
:10F9AE00000E0080000100600000001C000000023C
:10F9BE00000000000000000F000000000006000024
:10F9CE00007800000080000700000018008000078B
:10F9DE00007800000006000000780000008000079C
:10F9EE0000000018008000070078000000060000EC
:10F9FE0000000000000900000000000600180008CA
:10FA0E0000040030000300C00000003000030008B6
:10FA1E0000040006001800000000000B00000000AB
:10FA2E00000200000004000000180000006000004A
:10FA3E000080001F0060000000180000000400009D
:10FA4E00000200000000000000080002001000028A
:10FA5E00001C0002001300C2001000320010000E45
:10FA6E000010000200100000000000060000000060
:10FA7E000000000000FE00FF000200800002008077
:10FA8E0000000000000A00020000000C0000001040
:10FA9E000000006000000080000100000006000071
:10FAAE0000080000003000000040000000000005CB
:10FABE0000000000000200800002008000FE00FF37
:10FACE0000000000000B000000000000000200809B
:10FADE00000100700000000C000000020000000C8D
:10FAEE000000007000000080000100000002000015
:10FAFE00000000090000004000000040000000402F
:10FB0E0000000040000000400000004000000040E7
:10FB1E000000004000000000000500000000000092
:10FB2E000000000200000004000000000000000BB6
:10FB3E000000000000C000070020000800100010A8
:10FB4E000010001000100010001000100010001027
:10FB5E000020000800F0001F00000000000B000055
:10FB6E00000000FE001F0020000800100010001012
:10FB7E0000100010001000100010001000100020E7
:10FB8E00000800C0000700000000000A000000008E
:10FB9E0000C0000700200008001000100010001028
:10FBAE00001000100010001000200008004000049B
:10FBBE0000000000000B0000000000C00007002045
:10FBCE0000080010001000100010001000100010AF
:10FBDE000010001000100020000800FE001F0000A2
:10FBEE000000000A0000000000C00007002000090D
:10FBFE000010001100100011001000110010001173
:10FC0E000020000900C000050000000000060000F2
:10FC1E0000000010000000FC001F00120000001287
:10FC2E00000000000000000B0000000000C00027D4
:10FC3E00002000480010009000100090001000906E
:10FC4E0000100090001000900020004800F0003FCF
:10FC5E0000000000000A0000000000FE001F00204F
:10FC6E000000001000000010000000100000001046
:10FC7E0000000020000000C0001F00000000000374
:10FC8E000000000000F6001F00000000000300004E
:10FC9E00008000F6007F0000000000080000000059
:10FCAE0000FE001F00000001008000020040000462
:10FCBE0000200008001000100000000000030000EB
:10FCCE00000000FE001F00000000000F00000000FA
:10FCDE0000F0001F002000000010000000100000C7
:10FCEE00001000000020000000C0001F00200000D7
:10FCFE0000100000001000000010000000200000A6
:10FD0E0000C0001F00000000000A0000000000F00C
:10FD1E00001F002000000010000000100000001066
:10FD2E000000001000000020000000C0001F0000B6
:10FD3E000000000A0000000000C0000700200008BC
:10FD4E000010001000100010001000100010001025
:10FD5E000020000800C0000700000000000B00009B
:10FD6E00000000F000FF002000080010001000103E
:10FD7E0000100010001000100010001000100020E5
:10FD8E00000800C0000700000000000B000000008B
:10FD9E0000C0000700200008001000100010001026
:10FDAE0000100010001000100010001000200008BD
:10FDBE0000F000FF0000000000060000000000F050
:10FDCE00001F0020000000100000001000000000C6
:10FDDE0000000006006000080090001000100011E6
:10FDEE00001000110020000E0000000000070000AF
:10FDFE000000001000000010000000FE001F0010A8
:10FE0E0000000010000000000000000A00000000CA
:10FE1E0000F00007000000080000001000000010B5
:10FE2E0000000010000000100000000800F00007A5
:10FE3E0000000000000A00100000006000000080BA
:10FE4E0000030000000C000000100000000C0080F9
:10FE5E000003006000000010000000000000000E13
:10FE6E000010000000E00000000000070000001875
:10FE7E000000000700E000000010000000E000009D
:10FE8E0000000007000000180000000700E000005E
:10FE9E0000100000000000000009001000100020FB
:10FEAE0000080040000400800003008000030040B2
:10FEBE0000040020000800100010000000000009DF
:10FECE000010000000E00000000000830000007C35
:10FEDE000000000C0000000300E000000010000015
:10FEEE0000000000000800100010001000180010A4
:10FEFE0000160010001100D000100030001000108D
:10FF0E0000100000000000070000000000000001CB
:10FF1E000080000200FC007E0002008000020080D3
:10FF2E0000000000000700000000000000000000BC
:10FF3E000000000000000000000000FE00FF0000B6
:10FF4E0000000006000200800002008000FC007E1F
:10FF5E00008000020000000100000000000A000006
:10FF6E000000008000000040000000400000004043
:10FF7E0000000080000000800000008000000040B3
:10FF8E00000000000000000500FF000F0001000847
:10FF9E000001000800FF000F0000000000004001FB
:10FFAE0000504F543A202D2D2D202020202020208F
:10FFBE002000504F543A2025642525202020200073
:10FFCE0068685800686864006868690068686E0050
:10FFDE0068686F0068687500686878007A58007AFB
:10FFEE0064007A69007A6E007A6F007A75007A780A
:02FFFE00000001
:020000040020DA
:08000000FFFFFFFFFFFFFFFF00
:020000040030CA
:0E00000015087F7CFF8991FF0FC00FE00F40B5
:00000001FF
