:020000040000FA
:040000004CEF00F0D1
:100008005D82FACF01F0FBCF02F0F2A80EEF00F00C
:1000180010EF00F01BEF00F0F2A215EF00F017EF61
:1000280000F01BEF00F0E0EC10F046EF00F0F2A655
:1000380020EF00F022EF00F02DEF00F0F2A027EF04
:1000480000F029EF00F02DEF00F096EC10F046EFED
:1000580000F0F2AC32EF00F034EF00F046EF00F0C1
:100068009DAC39EF00F03BEF00F046EF00F09EAC9E
:1000780040EF00F042EF00F046EF00F0D7EC0FF051
:1000880046EF00F002C0FBFF01C0FAFF5D921100CD
:1000980053EF0EF01450800B1D6E14501424236E71
:1000A80013AE59EF00F05BEF00F05CEF00F0238037
:1000B8002350D8B462EF00F064EF00F077EF00F05F
:1000C8002328D8A46AEF00F06CEF00F074EF00F07A
:1000D800000E116E000E126E000E136E000E146EDE
:1000E800138E7FEF00F0000E116E000E126E000EE0
:1000F800136E000E146E1850800B1D1A1850182419
:10010800226E17AE8AEF00F08CEF00F08DEF00F052
:1001180022802250D8B493EF00F095EF00F0A8EFBA
:1001280000F02228D8A49BEF00F09DEF00F0A5EF87
:1001380000F0000E156E000E166E000E176E000E03
:10014800186E178EB0EF00F0000E156E000E166ECA
:10015800000E176E000E186E2250D8B4B6EF00F0DD
:10016800B8EF00F0C0EF00F02350D8A4BEEF00F0C5
:10017800C0EF00F0CAEF00F0000E116E000E126E14
:10018800000E136E000E146E62EF02F0175011028B
:10019800F3CF28F0F4CF29F028501E6E1F6A206A8A
:1001A800216A2950246E256A266A276A1650120287
:1001B800F3CF28F0F4CF29F028501E26000E1F2276
:1001C8002022212229502426000E252226222722F9
:1001D80015501302F3CF28F0F4CF29F028501E262B
:1001E800000E1F222022212229502426000E25221B
:1001F8002622272220C021F01FC020F01EC01FF099
:100208001E6A15501202F3CF28F0F4CF29F02850B7
:100218001E2629501F22000E2022000E21221650D1
:100228001102F3CF28F0F4CF29F028501E262950C8
:100238001F22000E2022000E212220C021F01FC004
:1002480020F01EC01FF01E6A15501102F3CF28F0CF
:10025800F4CF29F028501E2629501F22000E2022F4
:10026800000E212217501202F3CF28F0F4CF29F004
:100278002850242629502522000E2622000E272247
:1002880016501302F3CF28F0F4CF29F02850242673
:1002980029502522000E2622000E2722175013026D
:1002A800F3CF28F0F4CF29F02850196E29501A6E90
:1002B8001B6A1C6A1BC01CF01AC01BF019C01AF07C
:1002C800196A195024261A5025221B5026221C5020
:1002D80027221EC019F01FC01AF020C01BF021C031
:1002E8001CF0190E7DEF01F0D8901C321B321A3227
:1002F8001932E82E78EF01F0195024261A502522D9
:100308001B5026221C50272220C021F01FC020F09D
:100318001EC01FF01E6A225023C019F01A6A19263F
:10032800000E1A22820E1924286EFF0E1A20296E3A
:10033800B3EF01F0D890243625362636273621AE7D
:10034800A8EF01F0AAEF01F0ABEF01F02480D890FC
:100358001E361F36203621362806D8A0290626AE96
:10036800B8EF01F0BAEF01F09EEF01F0000E226E37
:1003780021AEC1EF01F0C3EF01F0E7EF01F0FF0E8E
:100388001E14196EFF0E1F141A6EFF0E20141B6E1A
:100398007F0E21141C6E19501A101B101C10D8B493
:1003A800D8EF01F0DAEF01F0DEEF01F0010E226E76
:1003B800E7EF01F024A0E3EF01F0E5EF01F0E7EF4C
:1003C80001F0DAEF01F02250D8B4EDEF01F0EFEFD1
:1003D80001F013EF02F0010E2426000E252226223A
:1003E800272227A0FAEF01F0FCEF01F013EF02F04B
:1003F80024C019F025C01AF026C01BF027C01CF035
:100408001C341C321B321A32193219C024F01AC09B
:1004180025F01BC026F01CC027F0284A292A29BE2F
:100428001EEF02F0295008E12828D8A01EEF02F09C
:1004380020EF02F02AEF02F0000E246E000E256E67
:10044800800E266E7F0E276E58EF02F029BE37EF1A
:1004580002F0295006E12804D8B035EF02F037EF52
:1004680002F043EF02F0000E246E000E256E000E1F
:10047800266E000E276E000E1D6E58EF02F028C083
:1004880023F0FF0E2416FF0E25167F0E2616000EEB
:10049800271623A052EF02F054EF02F055EF02F0B6
:1004A800268ED8902330276E1D50271224C011F0B5
:1004B80025C012F026C013F027C014F01200010E58
:1004C800046E000E8AEC10F0960EEFEC0FF0EF0EB3
:1004D800046E000E8AEC10F0030E046E010E8AEC16
:1004E80010F0800E046E010E8AEC10F0020E046EFD
:1004F800010E8AEC10F0CF0E046E000E8AEC10F09C
:10050800000E046E010E8AEC10F0C10E046E010E8E
:100518008AEC10F0300E046E010E8AEC10F0ED0E2D
:10052800046E000E8AEC10F0640E046E010E8AEC64
:1005380010F0030E046E010E8AEC10F0120E046E19
:10054800010E8AEC10F0810E046E010E8AEC10F098
:10055800E80E046E000E8AEC10F0850E046E010E93
:100568008AEC10F0000E046E010E8AEC10F0780E82
:10057800046E010E8AEC10F0CB0E046E000E8AECAD
:1005880010F0390E046E010E8AEC10F02C0E046E79
:10059800010E8AEC10F0000E046E010E8AEC10F0C9
:1005A800340E046E010E8AEC10F0020E046E010E79
:1005B8008AEC10F0F70E046E000E8AEC10F0200E94
:1005C800046E010E8AEC10F0EA0E046E000E8AEC3E
:1005D80010F0000E046E010E8AEC10F0000E046E8E
:1005E800010E8AEC10F0C00E046E000E8AEC10F0BA
:1005F800230E046E010E8AEC10F0C10E046E000E7C
:100608008AEC10F0100E046E010E8AEC10F0C50E84
:10061800046E000E8AEC10F03E0E046E010E8AEC99
:1006280010F0280E046E010E8AEC10F0C70E046E4E
:10063800000E8AEC10F0860E046E010E8AEC10F0A3
:10064800360E046E000E8AEC10F0480E046E010E91
:100658008AEC10F03A0E046E000E8AEC10F0550E7B
:10066800046E010E8AEC10F0B10E046E000E8AECD6
:1006780010F0000E046E010E8AEC10F0180E046ED5
:10068800010E8AEC10F0B60E046E000E8AEC10F023
:10069800080E046E010E8AEC10F0820E046E010E34
:1006A8008AEC10F0270E046E010E8AEC10F0F20EA0
:1006B800046E000E8AEC10F0000E046E010E8AEC37
:1006C80010F0260E046E000E8AEC10F0010E046E77
:1006D800010E8AEC10F0E00E046E000E8AEC10F0A9
:1006E8000F0E046E010E8AEC10F0310E046E010E2E
:1006F8008AEC10F02B0E046E010E8AEC10F00C0E32
:10070800046E010E8AEC10F00E0E046E010E8AECD7
:1007180010F0080E046E010E8AEC10F04E0E046EF6
:10072800010E8AEC10F0F10E046E010E8AEC10F046
:10073800370E046E010E8AEC10F0070E046E010EDF
:100748008AEC10F0100E046E010E8AEC10F0030E05
:10075800046E010E8AEC10F00E0E046E010E8AEC87
:1007680010F0090E046E010E8AEC10F0000E046EF3
:10077800010E8AEC10F0E10E046E000E8AEC10F007
:10078800000E046E010E8AEC10F00E0E046E010EBF
:100798008AEC10F0140E046E010E8AEC10F0030EB1
:1007A800046E010E8AEC10F0110E046E010E8AEC34
:1007B80010F0070E046E010E8AEC10F0310E046E74
:1007C800010E8AEC10F0C10E046E010E8AEC10F0D6
:1007D800480E046E010E8AEC10F0080E046E010E2D
:1007E8008AEC10F00F0E046E010E8AEC10F00C0E5D
:1007F800046E010E8AEC10F0310E046E010E8AECC4
:1008080010F0360E046E010E8AEC10F00F0E046E16
:10081800010E8AEC10F0110E046E000E8AEC10F036
:10082800780EEFEC0FF0290E046E000E8AEC10F033
:10083800780EEFEC0FF0000E0D6E000E0C6E84ECCF
:100848000DF0120020C038F021C039F022C03AF073
:1008580023C03BF024C03CF025C03DF026C03EF04C
:1008680027C03FF03FBE3BEF04F03EEF04F0010E1F
:100878003FEF04F0000E366E376A36503710D8B4A2
:1008880048EF04F04AEF04F05AEF04F03F1E3E1E12
:100898003D1E3C1E3B1E3A1E391E386C000E392286
:1008A8003A223B223C223D223E223F22000165BFE4
:1008B80060EF04F062EF04F063EF04F05A9265BF52
:1008C80070EF04F0655106E16405D8B06EEF04F0EE
:1008D80070EF04F076EF04F0000E336E010E326E06
:1008E8007AEF04F064C032F065C033F062C034F0CF
:1008F80063C035F036503710D8A485EF04F087EF81
:1009080004F08EEF04F05AA48CEF04F08EEF04F09C
:1009180091EF04F03406D8A03506000E416E1F0E84
:10092800406E000E8D6F15EF05F04006D8A0410609
:100938006E0E4024D96E000E4120DA6E38C003F0E6
:1009480039C004F03AC005F03BC006F03CC007F0DF
:100958003DC008F03EC009F03FC00AF00A0E0B6E19
:10096800000E0C6E000E0D6E000E0E6E000E0F6E59
:10097800000E106E000E116E000E126EEDEC09F0F6
:1009880003C028F004C029F005C02AF006C02BF0E7
:1009980007C02CF008C02DF009C02EF00AC02FF0B7
:1009A80028C015F02AC016F04BEC0FF01550300F88
:1009B800DF6E3206D8A033063406D8A0350638C014
:1009C80003F039C004F03AC005F03BC006F03CC063
:1009D80007F03DC008F03EC009F03FC00AF00A0E1B
:1009E8000B6E000E0C6E000E0D6E000E0E6E000EDD
:1009F8000F6E000E106E000E116E000E126E6CEC73
:100A080008F003C038F004C039F005C03AF006C059
:100A18003BF007C03CF008C03DF009C03EF00AC0FA
:100A28003FF041BE20EF05F0415008E14004D8A056
:100A380020EF05F022EF05F052EF05F0385039109D
:100A48003A103B103C103D103E103F10D8A42FEF39
:100A580005F031EF05F099EF04F033BE3EEF05F0F5
:100A6800335006E13204D8B03CEF05F03EEF05F014
:100A780099EF04F035BE49EF05F0355008E134042C
:100A8800D8A049EF05F04BEF05F052EF05F05AB248
:100A980050EF05F052EF05F099EF04F0365037109B
:100AA800D8A459EF05F05BEF05F062EF05F05AA402
:100AB80060EF05F062EF05F080EF05F04006D8A082
:100AC800410636503710D8A46CEF05F06EEF05F0EC
:100AD80074EF05F0000E316E2B0E306E78EF05F0D6
:100AE800000E316E2D0E306E6E0E4024D96E000E43
:100AF8004120DA6E30C0DFFF1EC013F01FC014F0B3
:100B08006E0E4024156E000E4120166E34C017F08C
:100B180035C018F078EC0CF013C01EF014C01FF0AC
:100B280012004AEC10F0000ED9EC0CF063EC02F065
:100B3800CA0E036E1D0E046ED1EC10F0100E036E7B
:100B48001F0E046ED6EC10F0F28E899E31EC0DF07B
:100B5800C5EC0DF096EF06F068056911D8A4B7EF5B
:100B680005F0B9EF05F0CFEF05F0000E0D6E500E51
:100B78000C6E000E0F6E460E0E6E010E116E2C0ED0
:100B8800106E000E136E960E126E000E156E000E8D
:100B9800146EA2EC0BF0000E0001696F000E686F76
:100BA800640E906F010E916FF50E926FFF0E936FAA
:100BB8008EC094F08FC095F02AEC0EF0000E236ED4
:100BC800820E226E000E256E780E246E640E266E3E
:100BD800010E276E070E296E2868000E2B6E000E78
:100BE8002A6E22EC0BF0899A899CAAEF05F0680519
:100BF8006911D8A402EF06F004EF06F01AEF06F028
:100C0800000E0D6E500E0C6E000E0F6E460E0E6E20
:100C1800010E116E2C0E106E000E136E960E126ED3
:100C2800000E156E000E146EA2EC0BF0000E000103
:100C3800696F000E686F000E906F010E916FD50EF0
:100C4800926FFF0E936F000E956F2A0E946F2AEC29
:100C58000EF0000E236E5F0E226E000E256E780ECB
:100C6800246E000E266E010E276E070E296E286868
:100C7800000E2B6E000E2A6E22EC0BF0898A899CDE
:100C8800AAEF05F068056911D8A44DEF06F04FEFFB
:100C980006F065EF06F0000E0D6E500E0C6E000E9D
:100CA8000F6E460E0E6E010E116E2C0E106E000E9B
:100CB800136E960E126E000E156E000E146EA2ECD8
:100CC8000BF0000E0001696F000E686F000E906F48
:100CD800020E916FE50E926FFF0E936F000E956FE7
:100CE8001E0E946F2AEC0EF0000E236E5F0E226E1D
:100CF800000E256E780E246E000E266E020E276EEC
:100D0800070E296E2868000E2B6E000E2A6E22EC44
:100D18000BF0899A898C000E0001AB6F000EAA6F48
:100D2800AAEF05F0AAC0A0F0ABC0A1F00001A15144
:100D3800000AD8B4A2EF06F0AAEF05F0A051010A04
:100D4800D8B4B0EF05F0030AD8B4FBEF05F0010AF8
:100D5800D8B446EF06F0AAEF05F04CEF00F044C017
:100D6800D9FF45C0DAFFDECFF6FFDDCFF7FFF86A1F
:100D78000800F550250AD8A4C4EF06F0C6EF06F01F
:100D880075EF07F044C0D9FF45C0DAFFDE2A000E30
:100D9800DD22000E0001636F000E626F62C05AF020
:100DA80063C05BF06469656944C0D9FF45C0DAFF78
:100DB800DECFF6FFDDCFF7FFF86A0800F550640ACA
:100DC800D8B4E9EF06F0EBEF06F0FEEF06F044C00A
:100DD800D9FF45C0DAFFDECFF6FFDDCFF7FFF86AAF
:100DE8000800F550690AD8A4FCEF06F0FEEF06F0FB
:100DF8003EEF07F044C0D9FF45C0DAFFDE2A000EF7
:100E0800DD2246C0D9FF47C0DAFFDFCF48F0020E27
:100E1800DE26DFCF49F0000EDD2248C0D9FF49C0E9
:100E2800DAFFDECF4AF0DDCF4BF0000E4BBEFF0EEF
:100E38004C6E4D6E4E6E4F6E506E516E42C01EF02F
:100E480043C01FF04AC020F04BC021F04CC022F034
:100E58004DC023F04EC024F04FC025F050C026F0FE
:100E680051C027F026EC04F01EC042F01FC043F02A
:100E780091EF07F044C0D9FF45C0DAFFDECFF6FF97
:100E8800DDCFF7FFF86A0800F550250AD8A44FEF20
:100E980007F051EF07F068EF07F044C0D9FF45C0ED
:100EA800DAFFDE2A000EDD22000E046E250E036E28
:100EB80042C005F043C006F013EC0CF0000E436E80
:100EC800010E426E91EF07F044C0D9FF45C0DAFF2A
:100ED800DE2A000EDD22000E436E000E426E91EFF8
:100EE80007F044C0D9FF45C0DAFFDECFF6FFDDCFFB
:100EF800F7FFF86A0800F550036E046A42C005F06F
:100F080043C006F013EC0CF044C0D9FF45C0DAFF2B
:100F1800DE2A000EDD2262EF07F012000B6E0B5086
:100F2800D8B499EF07F09BEF07F0BDEF07F006BEC6
:100F3800A2EF07F0A0EF07F0BDEF07F003C007F03E
:100F480004C008F005C009F006C00AF0071E081E14
:100F5800091E0A1E072A000E082209220A2207C0B3
:100F68000DF008C00EF009C00FF00AC010F0C5EF70
:100F780007F003C00DF004C00EF005C00FF006C066
:100F880010F00350041005100610D8A4CEEF07F097
:100F9800D0EF07F0DAEF07F0000E036E000E046ED4
:100FA800000E056E000E066E6BEF08F0960E0C6EC6
:100FB800E4EF07F00C2AD89010320F320E320D32BF
:100FC800000E0D14076E000E0E14086E000E0F149E
:100FD800096EFE0E10140A6E0750081009100A1048
:100FE800D8A4F9EF07F0FBEF07F0DEEF07F009EF01
:100FF80008F00C2A010E0D26000E0E220F221022D8
:10100800D89010320F320E320D32000E0D14076ECA
:10101800000E0E14086E000E0F14096EFF0E101449
:101028000A6E0750081009100A10D8A41EEF08F01D
:1010380020EF08F0FDEF07F028EF08F00C06D89035
:101048000D360E360F3610360FBE2DEF08F02FEF87
:1010580008F037EF08F0020E0C6035EF08F037EFB4
:1010680008F022EF08F00CB03CEF08F03EEF08F073
:101078003FEF08F00F9ED8900C320CC007F0086ABA
:10108800096A0A6A07C00AF0096A086A076A075003
:101098000D1208500E1209500F120A5010120B5060
:1010A800D8B459EF08F05BEF08F063EF08F006BE1C
:1010B80062EF08F060EF08F063EF08F0108E0DC0E3
:1010C80003F00EC004F00FC005F010C006F01200C7
:1010D800000E146E12BE75EF08F073EF08F087EF7C
:1010E80008F0121E111E101E0F1E0E1E0D1E0C1EC5
:1010F8000B6C000E0C220D220E220F221022112240
:101108001222010E146E0ABE8EEF08F08CEF08F062
:10111800A0EF08F00A1E091E081E071E061E051E5F
:10112800041E036C000E0422052206220722082250
:1011380009220A22010E141A20EE15F0070EDE6AA3
:10114800E806FDE20B500C100D100E100F101010D9
:1011580011101210D8B4B3EF08F0B5EF08F007EF8C
:1011680009F0010E136EC3EF08F0D8900B360C3659
:101178000D360E360F36103611361236132A12AEC9
:10118800C8EF08F0CAEF08F0B9EF08F0D8901536A4
:1011980016361736183619361A361B361C360B50C3
:1011A800035C0C5004580D5005580E5006580F504B
:1011B8000758105008581150095812500A58D8A00A
:1011C800E8EF08F0EAEF08F0FBEF08F00B50035ED9
:1011D8000C50045A0D50055A0E50065A0F50075A13
:1011E8001050085A1150095A12500A5A1580D890AE
:1011F8001232113210320F320E320D320C320B32E3
:10120800132ECAEF08F01450D8B40DEF09F00FEF01
:1012180009F01FEF09F01C1E1B1E1A1E191E181EAE
:10122800171E161E156C000E1622172218221922D8
:101238001A221B221C2215C003F016C004F017C086
:1012480005F018C006F019C007F01AC008F01BC056
:1012580009F01CC00AF01200000E1F6ED0EF09F052
:10126800D8901034F66E1134F76E050EF626F20E8D
:10127800F722F86A000EF8220900F5CF16F00900E7
:10128800F5CF17F01F50165E000E175A0C50162493
:10129800086E0D501720096E0EC00AF00FC00BF033
:1012A8002AEC0FF0000E206E000E216E1F50166EF5
:1012B800176AD89016361736D8901034F66E11344F
:1012C800F76E050EF626F20EF722F86A000EF822DF
:1012D8000900F5CF18F00900F5CF19F0D8901836A5
:1012E80019361650185E1750195A2050185E000EFD
:1012F800195A1050182611501922D8901836193634
:10130800050E1824F66EF20E1920F76EF86A000E14
:10131800F8220900F5CF1AF00900F5CF1BF021C01B
:101328001CF0800E1D6E000E1E6E1C2A9FEF09F029
:101338001E341E321D321C2E9CEF09F01A501D1649
:101348001B501E161D501E10D8B4ADEF09F0AFEF9C
:1013580009F0B7EF09F012C006F013C007F0A2ECCD
:1013680010F0BDEF09F014C006F015C007F0A2ECAC
:1013780010F0212A070E2164C4EF09F0C6EF09F026
:101388005AEF09F0202A010E2064CDEF09F0CFEFC3
:1013980009F058EF09F01F2AD8901034F66E11346E
:1013A800F76E050EF626F20EF722F86A000EF822FE
:1013B8001F50166E176A0900F550165C0900F550A3
:1013C8001758D8A0EAEF09F0ECEF09F034EF09F06C
:1013D8001200000E146E0ABEF6EF09F0F4EF09F0E1
:1013E80008EF0AF00A1E091E081E071E061E051E23
:1013F800041E036C000E042205220622072208227E
:1014080009220A22010E146E12BE0FEF0AF00DEF28
:101418000AF01FEF0AF0121E111E101E0F1E0E1EDC
:101428000D1E0C1E0B6C000E0C220D220E220F221C
:101438001022112212220B500C100D100E100F103A
:10144800101011101210D8B42CEF0AF02EEF0AF079
:1014580076EF0AF0010E136E3CEF0AF0D8900B36C7
:101468000C360D360E360F36103611361236132A54
:1014780012AE41EF0AF043EF0AF032EF0AF00B50D8
:10148800035C0C5004580D5005580E5006580F5068
:101498000758105008581150095812500A58D8A027
:1014A80058EF0AF05AEF0AF06AEF0AF00B50035EA1
:1014B8000C50045A0D50055A0E50065A0F50075A30
:1014C8001050085A1150095A12500A5AD89012321C
:1014D800113210320F320E320D320C320B32132E03
:1014E80043EF0AF01450D8B47CEF0AF07EEF0AF00C
:1014F8008EEF0AF00A1E091E081E071E061E051E8C
:10150800041E036C000E042205220622072208226C
:1015180009220A2203C003F004C004F005C005F044
:1015280006C006F007C007F008C008F009C009F0B7
:101538000AC00AF012002C342D34336E3350D8A46C
:10154800A8EF0AF0AAEF0AF0B4EF0AF0000E2A6E2C
:10155800000E2B6E000E2C6E000E2D6E21EF0BF080
:101568002AC02EF02BC02FF02CC030F02DC031F047
:10157800200EC4EF0AF0D890313230322F322E329A
:10158800E82EBFEF0AF02E50326E2C8EFF0E2A1670
:10159800FF0E2B16FF0E2C16000E2D16960E335E20
:1015A80033BEDBEF0AF0D9EF0AF0F1EF0AF033505F
:1015B800800A970FD8B0E3EF0AF0E5EF0AF0E7EFFB
:1015C8000AF0AAEF0AF0D8902D322C322B322A32A8
:1015D800333EE7EF0AF009EF0BF01F0E3364F7EF25
:1015E8000AF0F9EF0AF001EF0BF0AAEF0AF0D89031
:1015F8002A362B362C362D3633063350D8A407EF2F
:101608000BF009EF0BF0FBEF0AF03250D8B40FEFF4
:101618000BF011EF0BF019EF0BF02D1E2C1E2B1EEB
:101628002A6C000E2B222C222D222AC02AF02BC035
:101638002BF02CC02CF02DC02DF0120095EF0BF0E4
:10164800000E336E000E326E000E316E000E306EDC
:101658004DEF0BF0D8903234F66E3334F76E050E3A
:10166800F626F20EF722F86A000EF8220900F5CFE6
:101678002CF00900F5CF2DF0D8902C362D36010E20
:101688002C26000E2D222C5032262D503322304A83
:10169800312AE00E2C6EFF0E2D6E26C0D9FF27C012
:1016A800DAFFDF502E6E2F6A2C502E262D502F2257
:1016B8002E50305C2F503158D8A065EF0BF067EFF3
:1016C8000BF02EEF0BF022C00CF023C00DF024C05D
:1016D8000EF025C00FF032C010F033C011F028C052
:1016E80012F029C013F02AC014F02BC015F030EC0A
:1016F80009F0D8903234F66E3334F76E050EF626BC
:10170800F20EF722F86A000EF8220900F5CF2CF045
:101718000900F5CF2DF02C5022262D502322264AE1
:10172800272A26C0D9FF27C0DAFFDF50D8A49FEFA9
:101738000BF0A1EF0BF024EF0BF012000EC018F025
:101748000FC019F00F5007E1F00E0E5CD8B0AFEFE4
:101758000BF0B1EF0BF012EF0CF0400E0C5C010E29
:101768000D58D8A0BAEF0BF0BCEF0BF0BEEF0BF0A2
:1017780012EF0CF0400E105C010E1158D8A0C7EF04
:101788000BF0C9EF0BF0CDEF0BF0010E116E400E10
:10179800106E135009E1F00E125CD8A0D6EF0BF0D2
:1017A800D8EF0BF007EF0CF0000E136EF00E126E70
:1017B80007EF0CF00CC008F00DC009F00EC00AF0DD
:1017C8000FC00BF02AEC0FF00C4A0D2AF2EF0BF0C9
:1017D80014C006F015C007F0A2EC10F00E50166EFB
:1017E8000F50176E0E4A0F2A1650125C17501358D6
:1017F800D8B001EF0CF003EF0CF0ECEF0BF018C0D1
:101808000EF019C00FF00C50105C0D501158D8B0E4
:1018180010EF0CF012EF0CF0DEEF0BF01200055099
:101828000610D8B41AEF0CF01CEF0CF025EF0CF0F2
:1018380005500610D8A423EF0CF025EF0CF02AEF82
:101848000CF00350E7EC10F077EF0CF020EE04F00A
:101858000550D9260650DA22DE50DE10D8B437EF0C
:101868000CF039EF0CF054EF0CF020EE04F00550BA
:10187800D9260650DA2210EE02F00550E12606506D
:10188800E222DE50E65CE650800A0B6EDE50800AEB
:101898000B58D8B052EF0CF054EF0CF077EF0CF077
:1018A80020EE02F00550D9260650DA22DECF07F0E6
:1018B800DDCF08F005C0D9FF06C0DAFFDECF09F09A
:1018C800DDCF0AF007500924D96E08500A20DA6ED5
:1018D80003C0DFFF20EE02F00550D9260650DA22B9
:1018E800DE2A000EDD2212005AA07DEF0CF07FEFF9
:1018F8000CF089EF0CF015C00CF016C00DF013C0F9
:101908000EF014C00FF008EC0FF018BE8EEF0CF0BC
:1019180090EF0CF096EF0CF017C01CF018C01DF0FB
:101928009AEF0CF0000E1D6E000E1C6E000E1B6E62
:10193800000E1A6EACEF0CF0000E046E200E036E53
:1019480013C005F014C006F013EC0CF01A4A1B2A59
:101958001C501A5C1B50800A196E1D50800A1958B9
:10196800D8A0B9EF0CF0BBEF0CF0A0EF0CF05AB018
:10197800C0EF0CF0C2EF0CF0CCEF0CF015C00CF07F
:1019880016C00DF013C00EF014C00FF008EC0FF0E5
:1019980015C003F016C004F0A4EC0FF01C5003248B
:1019A800136E1D500420146E1200046EC6BADFEFC9
:1019B8000CF0E1EF0CF030EF0DF00450040D010EC7
:1019C800F326000EF422D10EF324F66EFF0EF42057
:1019D800F76EF86A000EF8220800F5CFC7FF04502A
:1019E800040DD10EF324F66EFF0EF420F76EF86A9C
:1019F800000EF8220800F5CFC6FF000EC56E045091
:101A0800040D020EF326000EF422D10EF324F66E16
:101A1800FF0EF420F76EF86A000EF8220800F5CFE2
:101A2800C8FF0450040D030EF326000EF422D10E55
:101A3800F324F66EFF0EF420F76EF86A000EF82213
:101A48000800F5CF03F003460346034694500318F5
:101A5800F70B0318946EC68A1200000E6BEC0FF099
:101A680003C06CF004C06DF0810E156E0C0E166E7E
:101A7800C80E176E3C0E186E6CC003F06DC004F0F3
:101A8800000E04BEFF0E056E066E010E92EC07F006
:101A980003C011F004C012F005C013F006C014F022
:101AA8004EEC00F011C02AF012C02BF013C02CF03D
:101AB80014C02DF09FEC0AF02AC08EF02BC08FF0D6
:101AC80000018FBF71EF0DF08F5109E12B0E8E5D74
:101AD800D8A071EF0DF073EF0DF074EF0DF08D8459
:101AE8008FBF82EF0DF08F5107E11E0E8E5DD8B0CB
:101AF80080EF0DF082EF0DF083EF0DF08D94120062
:101B0800010E116E400E106E000E0F6EF00E0E6E6E
:101B1800000E096E000E086E000E0B6E000E0A6EA7
:101B28002AEC0FF00009D8B49CEF0DF09EEF0DF0F1
:101B3800B7EF0DF0C4EF0DF00CC006F00DC007F0C4
:101B4800A2EC10F01006D8A01106102806E1112802
:101B5800D8A4B1EF0DF0B3EF0DF0A0EF0DF0010E2A
:101B6800116E400E106E0E06D8A00F060E2806E164
:101B78000F28D8A4C2EF0DF0C4EF0DF0A6EF0DF0BA
:101B88001200140E156EAE0E166E230E176E410E51
:101B9800186E8EC003F08FC004F0000E04BEFF0E56
:101BA800056E066E010E92EC07F003C011F004C03A
:101BB80012F005C013F006C014F04EEC00F011C08E
:101BC8002AF012C02BF013C02CF014C02DF09FEC9B
:101BD8000AF02AC06AF02BC06BF06AC003F06BC031
:101BE80004F0BFEC0FF0120054C058F055C059F083
:101BF800000E0001616F000E606F16EF0EF052C00C
:101C080042F053C043F0580E446E000E456E56C065
:101C180046F057C047F0B3EC06F042500001602789
:101C28004350612358C0F6FF59C0F7FFF86A08000F
:101C3800F5500009D8A423EF0EF025EF0EF003EFBE
:101C48000EF060C052F061C053F01200940E000113
:101C5800986F000E996F90C09AF091C09BF0000E9B
:101C68009D6F000E9C6F000E9F6F000E9E6F9A0E68
:101C7800526E000E536E92C054F093C055F0980EF9
:101C8800566E000E576EF8EC0DF000019C51902531
:101C9800D96E9D519121DA6E000EDF6E1200CC0EC6
:101CA800F66E210EF76E000EF86E0900F5CFAAF059
:101CB8000900F5CFABF002EE00F0640EEE6AE8061C
:101CC800FDE101EE00F0C80EEE6AE806FDE100EE67
:101CD80060F0300EEE6AE806FDE15C6A5B6A5A6AFB
:101CE8005D905D92000195EF05F0075009E1F00E57
:101CF800065CD8A082EF0EF084EF0EF087EF0EF0AE
:101D0800010E9CEF0EF02A0E046E000E8AEC10F005
:101D18000750046E010E8AEC10F006C004F0010EA4
:101D28008AEC10F02C0E046E000E8AEC10F0000EF7
:101D38001200400E065C010E0758D8A0A6EF0EF060
:101D4800A8EF0EF0ABEF0EF0010EC0EF0EF02B0E69
:101D5800046E000E8AEC10F00750046E010E8AEC37
:101D680010F006C004F0010E8AEC10F02C0E046E80
:101D7800000E8AEC10F0000E1200000E8D6E000EA0
:101D88008C6E000E896E000E8A6E000E8B6E000E31
:101D9800966E0F0E926E9368D70E946EEF0E956E38
:101DA800870E0F015D6F790E5C6F000E5B6FF18E11
:101DB8005A89D00E036E210E046ED1EC10F0F28613
:101DC800120081B8EAEF0EF0ECEF0EF007EF0FF01B
:101DD800030E0001AA19AB11D8A4F5EF0EF0F7EF26
:101DE8000EF001EF0FF0000EAB6F010EAA6F000EA0
:101DF800696F010E686F07EF0FF0000E696F010E33
:101E0800686FAA4BAB2B1200000E126E000E116EFB
:101E180019EF0FF010C003F0046A0EC005F00FC0F0
:101E280006F013EC0CF0114A122A11500C24D96E4A
:101E380012500D20DA6EDF50106E1050D8A427EF24
:101E48000FF029EF0FF00EEF0FF0120008C006F0A8
:101E580009C007F09DEC0EF00009D8A436EF0FF08A
:101E680038EF0FF046EF0FF00AC006F00BC007F08E
:101E780079EC0EF00009D8B444EF0FF046EF0FF0FC
:101E880049EF0FF0010E4AEF0FF0000E120016BED8
:101E980058EF0FF0165006E11504D8B056EF0FF0C2
:101EA80058EF0FF066EF0FF015C017F016C018F0D6
:101EB800171E181E174A182A17C015F018C016F052
:101EC8006AEF0FF015C015F016C016F01200076E75
:101ED80007C005F005460546C2500518830B0518CE
:101EE800C26EC280C282C2B27CEF0FF07EEF0FF0EA
:101EF80077EF0FF0C450066E056AC3500524036ED1
:101F0800000E0620046E1200030E0001AA19AB1180
:101F1800D8A491EF0FF093EF0FF09DEF0FF0000EA4
:101F2800AB6F010EAA6F000E696F010E686FA3EF09
:101F38000FF0000E696F010E686FAA4BAB2B1200F1
:101F480003C005F004C006F0ACEF0FF0034A042A02
:101F580003C0D9FF04C0DAFFDF50D8A4B6EF0FF0F2
:101F6800B8EF0FF0AAEF0FF00550035C036E0650B0
:101F78000458046E120003C005F004C006F0D8909F
:101F880006320532D890063205320550BC6E03C0C1
:101F980005F0030E0516053AF00E0516BB50CF0BDB
:101FA8000510BB6E12009E9C0001A651A711D8B463
:101FB800E0EF0FF0E2EF0FF0EEEF0FF002D8EEEFE8
:101FC8000FF00500FA6EA651FD6EA751FE6EFF6A6E
:101FD800FA5012001200046E000E056EFCEF0FF0AE
:101FE800030E036E980EE82EFED7032EFCD7052AA3
:101FF8000450055CD8A003EF10F005EF10F0F4EFE3
:102008000FF012000001A851A911D8B40EEF10F07A
:1020180010EF10F01CEF10F002D81CEF10F00500C4
:10202800FA6EA851FD6EA951FE6EFF6AFA501200B1
:1020380012000001A251A311D8B425EF10F027EF28
:1020480010F033EF10F002D833EF10F00500FA6EFD
:10205800A251FD6EA351FE6EFF6AFA5012001200E3
:10206800000EAA6E0B0ECF6EDC0ECE6E9E90CE507A
:10207800CFCF03F0046A03C004F0036A0310000121
:10208800A46F0450A56F310ECD6E1200E4EC10F071
:10209800B7EC10F0C1EC0EF0C0EC10F05DEC10F0F5
:1020A8006FEC10F0C9EC10F034EC10F0ADEC10F05F
:1020B8001200010EC26E800EC16EAD0EC06E000E13
:1020C800C46E000EC36E9D8CD40E036E210E046E7A
:1020D800DBEC10F012003C0EBB6E000EBF6E010E62
:1020E8009C6E800EBE6E000EBD6EF90EBC6E999091
:1020F8001200036E03C0C9FF9EA685EF10F087EF9C
:1021080010F080EF10F09E96C9501200056E05B0D1
:1021180002D08D9001D08D808D9204507DEC10F00E
:102128008D8212000F015AA99CEF10F09EEF10F05B
:10213800A0EF10F006EC10F0F29012000750046EB9
:10214800010E8AEC10F006C004F0010E8AEC10F0C3
:102158001200F292F18CD20E036E210E046ED6ECB0
:1021680010F0F2881200400EC76E000EC66E010E07
:10217800C86E9496C69A1200620ED36E000ED26E86
:10218800000E9B6E000E9A6E1200F90ECB6E000EBA
:10219800CC6E9E92060ECA6E120003C0A8F004C050
:1021A800A9F0120003C0A2F004C0A3F0120003C0FB
:1021B800A6F004C0A7F01200F2921DEC10F0120075
:0E21C800D09E12000100120012001200120040
:10F2040000040000000000000000000000000000F6
:10F21400000000030000000000FE001B00000000CE
:10F224000005001E00000000000000000000001E99
:10F23400000000000000000B0000000000100001AE
:10F244000010001D00F00003001E0001001000016A
:10F254000010001D00F00003001E0001001000015A
:10F2640000000000000900000004001C0008002247
:10F2740000100042001000FF007F004200100084D4
:10F2840000100000000F00000000000C001C000033
:10F29400002200100022000800220006001C0001C9
:10F2A40000C000000020000E00180011000400112E
:10F2B400000200110000000E00000000000B00001E
:10F2C40000000000000E001C001100A2001000C28B
:10F2D400001000220011001C000A0000000C0000B5
:10F2E400000C0000001200000000000300000000F9
:10F2F400001E0000000000000006000000000000E6
:10F30400000000E0001F001C0060000200800000FC
:10F314000000000400000000000600C000F8003FE8
:10F324000000000000060024000000180000007E19
:10F334000000001800000024000000000000000984
:10F344000000000000800000008000000080000039
:10F3540000F0000700800000008000000080000032
:10F364000000000000040000000000000060000035
:10F37400001800000000000500000001000000016A
:10F384000000000100000001000000000004000073
:10F394000000000000180000001800000000000831
:10F3A40000000000000000400000003800000007DA
:10F3B40000E00000001C000000020000000000004B
:10F3C400000900F800070004000800020010000211
:10F3D400001000020010000200100004000800F8F1
:10F3E400000700000000000600000000000000000C
:10F3F400000200000002000000FE001F00000000E8
:10F404000009001800100004001800020014000293
:10F4140000120002001100820010004400100038A5
:10F4240000100000000000090008000C0004001097
:10F4340000020010004200100042001000440010BE
:10F4440000B80008000000070000000000090000E8
:10F4540000020000000300800002006000020010AF
:10F4640000020008000200FE001F0000000200006D
:10F47400000000090000000400700008002E0010C5
:10F484000022001000220010002200100042000898
:10F4940000820007000000000009000000000000D6
:10F4A400000700C00008006000100058001000446D
:10F4B400001000820008000000070000000000099E
:10F4C40000000000000200100002000C0002000313
:10F4D40000C2000000320000000E00000002000024
:10F4E4000000000000090000000700980008006404
:10F4F4000010004200100042001000640010009848
:10F5040000080000000700000000000900000000DF
:10F51400003800000044001000820008008200044B
:10F524000082000300840000007800000000000056
:10F534000004000000000030001800300018000033
:10F5440000000004000000000030006000300018DB
:10F5540000000000000A000000000080000000809D
:10F564000000004000010020000200200002001002
:10F574000004001000040008000800000000000A55
:10F584000000000000200001002000010020000114
:10F5940000200001002000010020000100200001E3
:10F5A4000020000100000000000A00000000000824
:10F5B40000080010000400100004002000020020D5
:10F5C40000020040000100800000008000000000F4
:10F5D4000000000800000000000C00000082000190
:10F5E400004200020022001A0022001A009C0001BE
:10F5F40000000000000E0000000000F000030008FE
:10F6040000040004000800C20011002200120012CD
:10F6140000120012001200E2001100120012000495
:10F6240000120008000900F0000400000000000DB2
:10F6340000000000000000100000000E0080000127
:10F6440000600001001C000100020001001C000118
:10F6540000600001008000010000000E00000010A6
:10F66400000000000009000000000000000000FE8F
:10F67400001F0042001000420010006400100098B7
:10F6840000080000000700000000000D000000005A
:10F6940000F0000300080004000400080002001049
:10F6A400000200100002001000020010000200100E
:10F6B4000004000800040008000800040000000022
:10F6C400000C000000000000000000FE001F00020B
:10F6D40000100002001000020010000200100002DE
:10F6E4000010000400080008000400F000030000FB
:10F6F40000000009000000000000000000FE001FE0
:10F7040000420010004200100042001000420010AD
:10F71400004200100000000000080000000000008B
:10F72400000000FE001F00420000004200000042F2
:10F7340000000042000000000000000E0000000075
:10F7440000F0000300080004000400080002001098
:10F7540000020010000200100002001000820010DD
:10F764000084001000840008008800040080000366
:10F7740000000000000A000000000000000000FE7D
:10F78400001F004000000040000000400000004056
:10F7940000000040000000FE001F00000000000404
:10F7A400000000000000000000FE001F0000000038
:10F7B4000007000000000000000800000010000026
:10F7C40000100000000800FE00070000000000090F
:10F7D400000000000000000000FE001F00600000A8
:10F7E40000900001000800020004000C0002001058
:10F7F400000000000008000000000000000000FEFF
:10F80400001F0000001000000010000000100000A5
:10F81400001000000000000F000000000000001CA9
:10F8240000F80003000600000038000000C00001DA
:10F834000000000E000000100000000E00C00001D7
:10F84400003800000006000000F800030000001C5F
:10F8540000000000000B000000000000000000FE9B
:10F86400001F00080000003000000040000000807D
:10F874000000000000030000000400FE001F000060
:10F884000000000E0000000000F000030008000467
:10F894000004000800020010000200100002001022
:10F8A4000002001000020010000200100004000812
:10F8B4000008000400F0000300000000000900003C
:10F8C40000000000000000FE001F00420000004293
:10F8D40000000042000000240000001800000000A6
:10F8E4000000000E0000000000F000030008000407
:10F8F40000040008000200100002001000020010C2
:10F9040000020011000200120002000C00040008B2
:10F914000008001600F0002100000000000A0000AA
:10F9240000000000000000FE001F0042000000C2B2
:10F9340000000042000100420006002400080018F4
:10F944000010000000000008000000040018000877
:10F95400002400100042001000420010008400083F
:10F964000008000700000000000800020000000278
:10F9740000000002000000FE001F00020000000260
:10F9840000000002000000000000000A0000000067
:10F994000000000000FE0007000000080000001046
:10F9A40000000010000000100000000800FE000726
:10F9B40000000000000C00020000001C00000060B9
:10F9C4000000008000010000000E00000010000094
:10F9D400000E0080000100600000001C0000000216
:10F9E400000000000000000F0000000000060000FE
:10F9F4000078000000800007000000180080000765
:10FA04000078000000060000007800000080000775
:10FA140000000018008000070078000000060000C5
:10FA240000000000000900000000000600180008A3
:10FA340000040030000300C0000000300003000890
:10FA440000040006001800000000000B0000000085
:10FA54000002000000040000001800000060000024
:10FA64000080001F00600000001800000004000077
:10FA74000002000000000000000800020010000264
:10FA8400001C0002001300C2001000320010000E1F
:10FA9400001000020010000000000006000000003A
:10FAA4000000000000FE00FF000200800002008051
:10FAB40000000000000A00020000000C000000101A
:10FAC400000000600000008000010000000600004B
:10FAD40000080000003000000040000000000005A5
:10FAE40000000000000200800002008000FE00FF11
:10FAF40000000000000B0000000000000002008075
:10FB0400000100700000000C000000020000000C66
:10FB140000000070000000800001000000020000EE
:10FB24000000000900000040000000400000004008
:10FB340000000040000000400000004000000040C1
:10FB4400000000400000000000050000000000006C
:10FB54000000000200000004000000000000000B90
:10FB64000000000000C00007002000080010001082
:10FB74000010001000100010001000100010001001
:10FB84000020000800F0001F00000000000B00002F
:10FB9400000000FE001F00200008001000100010EC
:10FBA40000100010001000100010001000100020C1
:10FBB400000800C0000700000000000A0000000068
:10FBC40000C0000700200008001000100010001002
:10FBD4000010001000100010002000080040000475
:10FBE40000000000000B0000000000C0000700201F
:10FBF4000008001000100010001000100010001089
:10FC04000010001000100020000800FE001F00007B
:10FC14000000000A0000000000C0000700200009E6
:10FC2400001000110010001100100011001000114C
:10FC34000020000900C000050000000000060000CC
:10FC440000000010000000FC001F00120000001261
:10FC5400000000000000000B0000000000C00027AE
:10FC64000020004800100090001000900010009048
:10FC740000100090001000900020004800F0003FA9
:10FC840000000000000A0000000000FE001F002029
:10FC94000000001000000010000000100000001020
:10FCA40000000020000000C0001F0000000000034E
:10FCB4000000000000F6001F000000000003000028
:10FCC400008000F6007F0000000000080000000033
:10FCD40000FE001F0000000100800002004000043C
:10FCE40000200008001000100000000000030000C5
:10FCF400000000FE001F00000000000F00000000D4
:10FD040000F0001F002000000010000000100000A0
:10FD1400001000000020000000C0001F00200000B0
:10FD2400001000000010000000100000002000007F
:10FD340000C0001F00000000000A0000000000F0E6
:10FD4400001F002000000010000000100000001040
:10FD54000000001000000020000000C0001F000090
:10FD64000000000A0000000000C000070020000896
:10FD740000100010001000100010001000100010FF
:10FD84000020000800C0000700000000000B000075
:10FD9400000000F000FF0020000800100010001018
:10FDA40000100010001000100010001000100020BF
:10FDB400000800C0000700000000000B0000000065
:10FDC40000C0000700200008001000100010001000
:10FDD4000010001000100010001000100020000897
:10FDE40000F000FF0000000000060000000000F02A
:10FDF400001F0020000000100000001000000000A0
:10FE040000000006006000080090001000100011BF
:10FE1400001000110020000E000000000007000088
:10FE24000000001000000010000000FE001F001081
:10FE340000000010000000000000000A00000000A4
:10FE440000F000070000000800000010000000108F
:10FE540000000010000000100000000800F000077F
:10FE640000000000000A0010000000600000008094
:10FE740000030000000C000000100000000C0080D3
:10FE84000003006000000010000000000000000EED
:10FE94000010000000E0000000000007000000184F
:10FEA4000000000700E000000010000000E0000077
:10FEB40000000007000000180000000700E0000038
:10FEC40000100000000000000009001000100020D5
:10FED400000800400004008000030080000300408C
:10FEE40000040020000800100010000000000009B9
:10FEF4000010000000E00000000000830000007C0F
:10FF04000000000C0000000300E0000000100000EE
:10FF1400000000000008001000100010001800107D
:10FF240000160010001100D0001000300010001066
:10FF340000100000000000070000000000000001A5
:10FF44000080000200FC007E0002008000020080AD
:10FF54000000000000070000000000000000000096
:10FF64000000000000000000000000FE00FF000090
:10FF740000000006000200800002008000FC007EF9
:10FF8400008000020000000100000000000A0000E0
:10FF9400000000800000004000000040000000401D
:10FFA400000000800000008000000080000000408D
:10FFB400000000000000000500FF000F0001000821
:10FFC4000001000800FF000F0000000000004001D5
:10FFD40000434F4E5354414E54455F413A202564EB
:10FFE40000434F4E5354414E54455F423A202564DA
:0CFFF40000504F543A20256425250000E1
:020000040020DA
:08000000FFFFFFFFFFFFFFFF00
:020000040030CA
:0E00000015087F7CFF8991FF0FC00FE00F40B5
:00000001FF
