:020000040000FA
:040000004FEF00F0CE
:100008005F82FACF81F0FBCF82F0E9CF83F0EACFAD
:1000180084F0E1CF85F0E2CF86F0D9CF87F0DACF50
:1000280088F0F3CF89F0F4CF8AF0F6CF8BF0F7CFD2
:100038008CF0F8CF8DF0F5CF8EF0F2A626EF00F019
:1000480028EF00F031EF00F0F2A02DEF00F02FEFD5
:1000580000F031EF00F07DEC34F08EC0F5FF8DC07C
:10006800F8FF8CC0F7FF8BC0F6FF8AC0F4FF89C089
:10007800F3FF88C0DAFF87C0D9FF86C0E2FF85C0DA
:10008800E1FF84C0EAFF83C0E9FF82C0FBFF81C0B3
:10009800FAFF5F921100CEEF2EF029C1D9FF2AC1D5
:1000A800DAFFDECFF6FFDDCFF7FFF86A0800F5507C
:1000B800250AD8A462EF00F064EF00F092EF09F08F
:1000C80029C1D9FF2AC1DAFFDE2A000EDD22000E7F
:1000D8000001B66F000EB56FB5C0B9F0B6C0BAF082
:1000E800B769B869000E0101346F000E336FC9EFAC
:1000F80000F00001B98129C1D9FF2AC1DAFFDE2A3F
:10010800000EDD22C9EF00F00001B9837FEF00F097
:100118000001B9857FEF00F00001B9877FEF00F09B
:100128000001B9897FEF00F0000E346F010E336FC4
:10013800C9EF00F029C1D9FF2AC1DAFFDECFF6FFE7
:10014800DDCFF7FFF86A0800F5502D6F2E6B2E51A2
:10015800000AD8B4B2EF00F098EF00F02D51200A51
:10016800D8B490EF00F0030AD8B494EF00F0080A6E
:10017800D8B48CEF00F0060AD8B47DEF00F01D0A61
:10018800D8B488EF00F098EF00F001013351341132
:10019800D8B4D1EF00F0D3EF00F09EEF00F00001EB
:1001A800B9A1D9EF00F0DBEF00F0DCEF00F0B99374
:1001B80029C1D9FF2AC1DAFFDECFF6FFDDCFF7FF6D
:1001C800F86A0800F5502A0AD8A4EDEF00F0EFEF1E
:1001D80000F018EF01F029C1D9FF2AC1DAFFDE2AA1
:1001E800000EDD222BC1D9FF2CC1DAFFDFCF2DF1A4
:1001F800020EDE26DFCF2EF1000EDD222DC1D9FF43
:100208002EC1DAFFDECFB5F0DDCFB6F0B6BF11EF05
:1002180001F00FEF01F05DEF01F0B981B56DB61F88
:10022800D8B0B62B5DEF01F029C1D9FF2AC1DAFF9A
:10023800DECF96F0DDCF97F074EC1DF096C0B5F0E8
:1002480097C0B6F02FEF01F029C1D9FF2AC1DAFF14
:10025800DE2A000EDD22D00E01012D6FFF0E2E6F5B
:1002680029C1D9FF2AC1DAFFDECFF6FFDDCFF7FFBC
:10027800F86A0800F5502F6F306B2D512F272E513B
:10028800302330510AE10A0E2F5DD8A04EEF01F05D
:1002980051EF01F0010E52EF01F0000E356F366B91
:1002A80035513611D8A45BEF01F05DEF01F028EF6E
:1002B80001F029C1D9FF2AC1DAFFDECFF6FFDDCF71
:1002C800F7FFF86A0800F5502E0AD8A46EEF01F07F
:1002D80070EF01F0F1EF01F0000E0001B86F000EB1
:1002E800B76F29C1D9FF2AC1DAFFDE2A000EDD2245
:1002F80029C1D9FF2AC1DAFFDECFF6FFDDCFF7FF2C
:10030800F86A0800F5502A0AD8A48DEF01F08FEF9B
:1003180001F0ACEF01F029C1D9FF2AC1DAFFDE2ACA
:10032800000EDD222BC1D9FF2CC1DAFFDFCF2DF162
:10033800020EDE26DFCF2EF1000EDD222DC1D9FF01
:100348002EC1DAFFDECFB7F0DDCFB8F0F1EF01F064
:1003580029C1D9FF2AC1DAFFDECF96F0DDCF97F0A9
:1003680074EC1DF096C0B7F097C0B8F0C3EF01F079
:1003780029C1D9FF2AC1DAFFDE2A000EDD22D00EFC
:1003880001012D6FFF0E2E6F29C1D9FF2AC1DAFF97
:10039800DECFF6FFDDCFF7FFF86A0800F5502F6FC4
:1003A800306B2D512F272E51302330510AE10A0E80
:1003B8002F5DD8A0E2EF01F0E5EF01F0010EE6EFC6
:1003C80001F0000E376F386B37513811D8A4EFEFB2
:1003D80001F0F1EF01F0BCEF01F029C1D9FF2AC10A
:1003E800DAFFDECFF6FFDDCFF7FFF86A0800F55039
:1003F800630AD8A402EF02F004EF02F02CEF02F037
:1004080029C1D9FF2AC1DAFFDE2A000EDD222BC15D
:10041800D9FF2CC1DAFFDFCF2DF1020EDE26DFCFA8
:100428002EF1000EDD222DC1D9FF2EC1DAFFDF50DB
:100438000101436F27C1ACF028C1ADF043C1AEF054
:1004480095EC2FF0ACC027F1ADC028F1AFEF09F063
:1004580029C1D9FF2AC1DAFFDECF8FF0DDCF90F0B6
:10046800D10E0001916FFF0E926F000E946F030E74
:10047800936F4AEC2AF000018F519011D8B447EFDE
:1004880002F049EF02F065EF02F029C1D9FF2AC155
:10049800DAFFDECF8FF0DDCF90F0D50E916FFF0E33
:1004A800926F000E946F030E936F4AEC2AF00001CE
:1004B8008F519011D8A463EF02F065EF02F0A6EF18
:1004C80002F0030E29C1D9FF2AC1DAFFDE26000E89
:1004D800DD222BC1D9FF2CC1DAFFDFCF2DF1020EAF
:1004E800DE26DFCF2EF1000EDD222DC1D9FF2EC171
:1004F800DAFFDF500101396F000E39BFFF0E3A6F86
:100508003B6F3C6F3D6F3E6F3F6F406F27C100F1FF
:1005180028C101F139C102F13AC103F13BC104F12B
:100528003CC105F13DC106F13EC107F13FC108F1EB
:1005380040C109F18FEC16F000C127F101C128F183
:10054800AFEF09F029C1D9FF2AC1DAFFDECF8FF05A
:10055800DDCF90F0D20E916FFF0E926F000E946F68
:10056800020E936F4AEC2AF000018F519011D8B413
:10057800C0EF02F0C2EF02F0DEEF02F029C1D9FFAE
:100588002AC1DAFFDECF8FF0DDCF90F0D60E916F63
:10059800FF0E926F000E946F020E936F4AEC2AF0D2
:1005A80000018F519011D8A4DCEF02F0DEEF02F0C9
:1005B80006EF03F0020E29C1D9FF2AC1DAFFDE26B1
:1005C800000EDD222BC1D9FF2CC1DAFFDFCF2DF1C0
:1005D800020EDE26DFCF2EF1000EDD222DC1D9FF5F
:1005E8002EC1DAFFDECF39F1DDCF3AF10101000E7D
:1005F8003ABFFF0E3B6F3C6F3D6F3E6F3F6F406FE2
:100608008AEF02F029C1D9FF2AC1DAFFDECFF6FF4F
:10061800DDCFF7FFF86A0800F550640AD8B417EF81
:1006280003F019EF03F02CEF03F029C1D9FF2AC119
:10063800DAFFDECFF6FFDDCFF7FFF86A0800F550E6
:10064800690AD8A42AEF03F02CEF03F053EF03F064
:1006580029C1D9FF2AC1DAFFDE2A000EDD222BC10B
:10066800D9FF2CC1DAFFDFCF2DF1020EDE26DFCF56
:100678002EF1000EDD222DC1D9FF2EC1DAFFDECF0B
:1006880039F1DDCF3AF10101000E3ABFFF0E3B6FA1
:100698003C6F3D6F3E6F3F6F406F8AEF02F029C19C
:1006A800D9FF2AC1DAFFDECF8FF0DDCF90F0EC0E54
:1006B800916FFF0E926F000E946F020E936F4AECCB
:1006C8002AF000018F519011D8B46DEF03F06FEF4D
:1006D80003F08BEF03F029C1D9FF2AC1DAFFDECF7F
:1006E8008FF0DDCF90F0EF0E916FFF0E926F000E3E
:1006F800946F020E936F4AEC2AF000018F5190110B
:10070800D8A489EF03F08BEF03F0B4EF03F0020EE7
:1007180029C1D9FF2AC1DAFFDE26000EDD222BC14E
:10072800D9FF2CC1DAFFDFCF2DF1020EDE26DFCF95
:100738002EF1000EDD222DC1D9FF2EC1DAFFDECF4A
:100748002FF1DDCF30F12FC139F130C13AF101017C
:100758003B6B3C6B3D6B3E6B3F6B406B8AEF02F033
:1007680029C1D9FF2AC1DAFFDECF8FF0DDCF90F0A3
:10077800DD0E916FFF0E926F000E946F030E936F54
:100788004AEC2AF000018F519011D8A4CEEF03F063
:10079800D0EF03F010EF04F0030E29C1D9FF2AC1EE
:1007A800DAFFDE26000EDD222BC1D9FF2CC1DAFFCD
:1007B800DFCF2DF1020EDE26DFCF2EF1000EDD2277
:1007C8002DC1D9FF2EC1DAFFDF5001012F6F2F5144
:1007D800446F456B466B476B486B496B4A6B4B6B79
:1007E80027C100F128C101F144C102F145C103F15B
:1007F80046C104F147C105F148C106F149C107F1F5
:100808004AC108F14BC109F17FEC20F000C127F182
:1008180001C128F1AFEF09F029C1D9FF2AC1DAFFD8
:10082800DECF8FF0DDCF90F0DE0E916FFF0E926F6E
:10083800000E946F020E936F4AEC2AF000018F515C
:100848009011D8A42AEF04F02CEF04F055EF04F02F
:10085800020E29C1D9FF2AC1DAFFDE26000EDD22E9
:100868002BC1D9FF2CC1DAFFDFCF2DF1020EDE2616
:10087800DFCF2EF1000EDD222DC1D9FF2EC1DAFF08
:10088800DECF2FF1DDCF30F12FC144F130C145F17A
:100898000101466B476B486B496B4A6B4B6BF4EF36
:1008A80003F029C1D9FF2AC1DAFFDECFF6FFDDCF79
:1008B800F7FFF86A0800F5506F0AD8A466EF04F04D
:1008C80068EF04F090EF04F029C1D9FF2AC1DAFFDC
:1008D800DE2A000EDD222BC1D9FF2CC1DAFFDFCFC3
:1008E8002DF1020EDE26DFCF2EF1000EDD222DC106
:1008F800D9FF2EC1DAFFDECF2FF1DDCF30F12FC1C6
:1009080044F130C145F10101466B476B486B496BB7
:100918004A6B4B6BF4EF03F029C1D9FF2AC1DAFF08
:10092800DECF8FF0DDCF90F0F50E916FFF0E926F56
:10093800000E946F020E936F4AEC2AF000018F515B
:100948009011D8A4AAEF04F0ACEF04F0D5EF04F0AE
:10095800020E29C1D9FF2AC1DAFFDE26000EDD22E8
:100968002BC1D9FF2CC1DAFFDFCF2DF1020EDE2615
:10097800DFCF2EF1000EDD222DC1D9FF2EC1DAFF07
:10098800DECF2FF1DDCF30F12FC144F130C145F179
:100998000101466B476B486B496B4A6B4B6BF4EF35
:1009A80003F029C1D9FF2AC1DAFFDECF8FF0DDCFEE
:1009B80090F0D90E916FFF0E926F000E946F030E98
:1009C800936F4AEC2AF000018F519011D8A4EFEFF1
:1009D80004F0F1EF04F01AEF05F0030E29C1D9FF76
:1009E8002AC1DAFFDE26000EDD222BC1D9FF2CC179
:1009F800DAFFDFCF2DF1020EDE26DFCF2EF1000E5B
:100A0800DD222DC1D9FF2EC1DAFFDECF41F1DDCFC6
:100A180042F141C1D9FF42C1DAFF7FC1DFFF000EB9
:100A28000101286F000E276FAFEF09F029C1D9FF28
:100A38002AC1DAFFDECF8FF0DDCF90F0DA0E916FAA
:100A4800FF0E926F000E946F020E936F4AEC2AF01D
:100A580000018F519011D8A434EF05F036EF05F05E
:100A68005CEF05F0020E29C1D9FF2AC1DAFFDE26A4
:100A7800000EDD222BC1D9FF2CC1DAFFDFCF2DF10B
:100A8800020EDE26DFCF2EF1000EDD222DC1D9FFAA
:100A98002EC1DAFFDECF41F1DDCF42F141C1D9FFEE
:100AA80042C1DAFF7FC1DEFF80C1DDFF13EF05F031
:100AB80029C1D9FF2AC1DAFFDECFF6FFDDCFF7FF64
:100AC800F86A0800F5506E0AD8A46DEF05F06FEFCC
:100AD80005F094EF05F029C1D9FF2AC1DAFFDE2A13
:100AE800000EDD222BC1D9FF2CC1DAFFDFCF2DF19B
:100AF800020EDE26DFCF2EF1000EDD222DC1D9FF3A
:100B08002EC1DAFFDECF41F1DDCF42F141C1D9FF7D
:100B180042C1DAFF7FC1DEFF80C1DDFF13EF05F0C0
:100B280029C1D9FF2AC1DAFFDECF8FF0DDCF90F0DF
:100B3800F20E916FFF0E926F000E946F020E936F7C
:100B48004AEC2AF000018F519011D8A4AEEF05F0BD
:100B5800B0EF05F0D6EF05F0020E29C1D9FF2AC182
:100B6800DAFFDE26000EDD222BC1D9FF2CC1DAFF09
:100B7800DFCF2DF1020EDE26DFCF2EF1000EDD22B3
:100B88002DC1D9FF2EC1DAFFDECF41F1DDCF42F111
:100B980041C1D9FF42C1DAFF7FC1DEFF80C1DDFF5D
:100BA80013EF05F029C1D9FF2AC1DAFFDECFF6FF1E
:100BB800DDCFF7FFF86A0800F550700AD8A4E7EF10
:100BC80005F0E9EF05F02DEF06F029C1D9FF2AC19C
:100BD800DAFFDE2A000EDD222BC1D9FF2CC1DAFF95
:100BE800DFCF2DF1020EDE26DFCF2EF1000EDD2243
:100BF8002DC1D9FF2EC1DAFFDECF2FF1DDCF30F1C5
:100C08002FC144F130C145F10101466B476B486B78
:100C1800496B4A6B4B6B27C100F128C101F144C1F4
:100C280002F145C103F146C104F147C105F148C1CC
:100C380006F149C107F14AC108F14BC109F1780E23
:100C48000A6F12EC18F000C127F101C128F1AFEFCB
:100C580009F029C1D9FF2AC1DAFFDECFF6FFDDCFBF
:100C6800F7FFF86A0800F550730AD8A43EEF06F0BB
:100C780040EF06F06BEF06F029C1D9FF2AC1DAFF71
:100C8800DE2A000EDD222BC1D9FF2CC1DAFFDFCF0F
:100C98002DF1020EDE26DFCF2EF1000EDD222DC152
:100CA800D9FF2EC1DAFFDECF31F1DDCF32F127C116
:100CB8009AF028C19BF031C19CF032C19DF076ECCE
:100CC80022F09AC027F19BC028F1AFEF09F029C1A3
:100CD800D9FF2AC1DAFFDECF8FF0DDCF90F0E10E29
:100CE800916FFF0E926F000E946F030E936F4AEC94
:100CF8002AF000018F519011D8A485EF06F087EFF4
:100D080006F0C7EF06F0030E29C1D9FF2AC1DAFFA2
:100D1800DE26000EDD222BC1D9FF2CC1DAFFDFCF82
:100D28002DF1020EDE26DFCF2EF1000EDD222DC1C1
:100D3800D9FF2EC1DAFFDF5001012F6F2F51446F09
:100D4800456B466B476B486B496B4A6B4B6B27C1CE
:100D580000F128C101F144C102F145C103F146C1C6
:100D680004F147C105F148C106F149C107F14AC17B
:100D780008F14BC109F168EC1CF000C127F101C171
:100D880028F1AFEF09F029C1D9FF2AC1DAFFDECF78
:100D98008FF0DDCF90F0E20E916FFF0E926F000E94
:100DA800946F020E936F4AEC2AF000018F51901154
:100DB800D8A4E1EF06F0E3EF06F00CEF07F0020E1F
:100DC80029C1D9FF2AC1DAFFDE26000EDD222BC198
:100DD800D9FF2CC1DAFFDFCF2DF1020EDE26DFCFDF
:100DE8002EF1000EDD222DC1D9FF2EC1DAFFDECF94
:100DF8002FF1DDCF30F12FC144F130C145F10101B0
:100E0800466B476B486B496B4A6B4B6BABEF06F015
:100E180029C1D9FF2AC1DAFFDECFF6FFDDCFF7FF00
:100E2800F86A0800F550750AD8A41DEF07F01FEFFF
:100E380007F047EF07F029C1D9FF2AC1DAFFDE2AF8
:100E4800000EDD222BC1D9FF2CC1DAFFDFCF2DF137
:100E5800020EDE26DFCF2EF1000EDD222DC1D9FFD6
:100E68002EC1DAFFDECF2FF1DDCF30F12FC144F1F3
:100E780030C145F10101466B476B486B496B4A6BC2
:100E88004B6BABEF06F029C1D9FF2AC1DAFFDECFE1
:100E98008FF0DDCF90F0F80E916FFF0E926F000E7D
:100EA800946F020E936F4AEC2AF000018F51901153
:100EB800D8A461EF07F063EF07F08CEF07F0020E9C
:100EC80029C1D9FF2AC1DAFFDE26000EDD222BC197
:100ED800D9FF2CC1DAFFDFCF2DF1020EDE26DFCFDE
:100EE8002EF1000EDD222DC1D9FF2EC1DAFFDECF93
:100EF8002FF1DDCF30F12FC144F130C145F10101AF
:100F0800466B476B486B496B4A6B4B6BABEF06F014
:100F180029C1D9FF2AC1DAFFDECF8FF0DDCF90F0EB
:100F2800E50E916FFF0E926F000E946F030E936F94
:100F38004AEC2AF000018F519011D8B4A6EF07F0BF
:100F4800A8EF07F0C4EF07F029C1D9FF2AC1DAFFDB
:100F5800DECF8FF0DDCF90F0CD0E916FFF0E926F48
:100F6800000E946F030E936F4AEC2AF000018F5124
:100F78009011D8A4C2EF07F0C4EF07F01AEF08F0F9
:100F880029C1D9FF2AC1DAFFDECF2DF1DDCF2EF13D
:100F9800020E01012D27000E2E232DC1F6FF2EC1B2
:100FA800F7FFF86A0800F5CF43F1030E29C1D9FF0E
:100FB8002AC1DAFFDE26000EDD222BC1D9FF2CC1A3
:100FC800DAFFDFCF2DF1020EDE26DFCF2EF1000E85
:100FD800DD222DC1D9FF2EC1DAFFDF502F6F2F512F
:100FE800446F456B466B476B486B496B4A6B4B6B61
:100FF80027C100F128C101F144C102F145C103F143
:1010080046C104F147C105F148C106F149C107F1DC
:101018004AC108F14BC109F143C10AF112EC18F0B9
:1010280000C127F101C128F1AFEF09F029C1D9FFAB
:101038002AC1DAFFDECF8FF0DDCF90F0E60E916F98
:10104800FF0E926F000E946F020E936F4AEC2AF017
:1010580000018F519011D8B434EF08F036EF08F042
:1010680052EF08F029C1D9FF2AC1DAFFDECF8FF08D
:10107800DDCF90F0CE0E916FFF0E926F000E946F41
:10108800020E936F4AEC2AF000018F519011D8A4F8
:1010980050EF08F052EF08F08FEF08F029C1D9FFA0
:1010A8002AC1DAFFDECF2DF1DDCF2EF1010E0101CD
:1010B8002D27000E2E232DC1F6FF2EC1F7FFF86A4B
:1010C8000800F5CF43F1020E29C1D9FF2AC1DAFF82
:1010D800DE26000EDD222BC1D9FF2CC1DAFFDFCFBF
:1010E8002DF1020EDE26DFCF2EF1000EDD222DC1FE
:1010F800D9FF2EC1DAFFDECF2FF1DDCF30F12FC1BE
:1011080044F130C145F1466B476B486B496B4A6BFC
:101118004B6BFCEF07F029C1D9FF2AC1DAFFDECFFC
:10112800F6FFDDCFF7FFF86A0800F550780AD8B463
:10113800A0EF08F0A2EF08F0B5EF08F029C1D9FF39
:101148002AC1DAFFDECFF6FFDDCFF7FFF86A080025
:10115800F550580AD8A4B3EF08F0B5EF08F0E9EF56
:1011680008F029C1D9FF2AC1DAFFDECFF6FFDDCFAB
:10117800F7FFF86A0800F5CF43F129C1D9FF2AC162
:10118800DAFFDE2A000EDD222BC1D9FF2CC1DAFFDF
:10119800DFCF2DF1020EDE26DFCF2EF1000EDD228D
:1011A8002DC1D9FF2EC1DAFFDECF2FF1DDCF30F10F
:1011B8002FC144F130C145F10101466B476B486BC3
:1011C800496B4A6B4B6BFCEF07F029C1D9FF2AC169
:1011D800DAFFDECF8FF0DDCF90F0FB0E916FFF0EC0
:1011E800926F000E946F020E936F4AEC2AF0000182
:1011F8008F519011D8B403EF09F005EF09F021EFF2
:1012080009F029C1D9FF2AC1DAFFDECF8FF0DDCF7F
:1012180090F0E90E916FFF0E926F000E946F020E20
:10122800936F4AEC2AF000018F519011D8A41FEF58
:1012380009F021EF09F05EEF09F029C1D9FF2AC1B1
:10124800DAFFDECF2DF1DDCF2EF1010E01012D27C2
:10125800000E2E232DC1F6FF2EC1F7FFF86A0800F5
:10126800F5CF43F1020E29C1D9FF2AC1DAFFDE26E4
:10127800000EDD222BC1D9FF2CC1DAFFDFCF2DF103
:10128800020EDE26DFCF2EF1000EDD222DC1D9FFA2
:101298002EC1DAFFDECF2FF1DDCF30F12FC144F1BF
:1012A80030C145F1466B476B486B496B4A6B4B6BDA
:1012B800FCEF07F029C1D9FF2AC1DAFFDECFF6FF1C
:1012C800DDCFF7FFF86A0800F550250AD8A46FEFBC
:1012D80009F071EF09F089EF09F029C1D9FF2AC196
:1012E800DAFFDE2A000EDD22000E926F250E916FC6
:1012F80027C193F028C194F006EC2CF0000E0101F0
:10130800286F010E276FAFEF09F029C1D9FF2AC155
:10131800DAFFDE2A000EDD2213EF05F029C1D9FF1E
:101328002AC1DAFFDECFF6FFDDCFF7FFF86A080043
:10133800F5500001916F926B27C193F028C194F08A
:1013480006EC2CF029C1D9FF2AC1DAFFDE2A000EEB
:10135800DD2282EF09F0120047C0D9FF48C0DAFF4A
:10136800DECFF6FFDDCFF7FFF86A0800F550250A53
:10137800D8A4C1EF09F0C3EF09F0CFEF12F047C0CE
:10138800D9FF48C0DAFFDE2A000EDD22000E000178
:10139800B66F000EB56FB5C0B9F0B6C0BAF0B76990
:1013A800B869000E636F000E626F22EF0AF0B98110
:1013B80047C0D9FF48C0DAFFDE2A000EDD2222EF3F
:1013C8000AF0B983DCEF09F0B985DCEF09F0B987D9
:1013D800DCEF09F0B989DCEF09F0000E636F010E4C
:1013E800626F22EF0AF047C0D9FF48C0DAFFDECFAC
:1013F800F6FFDDCFF7FFF86A0800F5504B6E4C6A30
:101408004C50000AD8B40BEF0AF0F1EF09F04B503A
:10141800200AD8B4EBEF09F0030AD8B4EEEF09F0CC
:10142800080AD8B4E8EF09F0060AD8B4DBEF09F0E7
:101438001D0AD8B4E5EF09F0F1EF09F06251631124
:10144800D8B429EF0AF02BEF0AF0F7EF09F0B9A1A9
:1014580030EF0AF032EF0AF033EF0AF0B99347C0E1
:10146800D9FF48C0DAFFDECFF6FFDDCFF7FFF86A15
:101478000800F5502A0AD8A444EF0AF046EF0AF00B
:101488006FEF0AF047C0D9FF48C0DAFFDE2A000E26
:10149800DD2249C0D9FF4AC0DAFFDFCF4BF0020E88
:1014A800DE26DFCF4CF0000EDD224BC0D9FF4CC04A
:1014B800DAFFDECFB5F0DDCFB6F0B6BF68EF0AF0E1
:1014C80066EF0AF0B4EF0AF0B981B56DB61FD8B06F
:1014D800B62BB4EF0AF047C0D9FF48C0DAFFDECF19
:1014E80008F0DDCF09F07EEC1FF008C0B5F009C0A8
:1014F800B6F086EF0AF047C0D9FF48C0DAFFDE2A07
:10150800000EDD22D00E4B6EFF0E4C6E47C0D9FF89
:1015180048C0DAFFDECFF6FFDDCFF7FFF86A080034
:10152800F5504D6E4E6A4B504D264C504E224E5043
:101538000AE10A0E4D5CD8A0A4EF0AF0A7EF0AF062
:10154800010EA8EF0AF0000E0001646F656B64518C
:101558006511D8A4B2EF0AF0B4EF0AF07FEF0AF0F1
:1015680047C0D9FF48C0DAFFDECFF6FFDDCFF7FF6F
:10157800F86A0800F5502E0AD8A4C5EF0AF0C7EF9C
:101588000AF047EF0BF0000EB86F000EB76F47C0B8
:10159800D9FF48C0DAFFDE2A000EDD2247C0D9FF96
:1015A80048C0DAFFDECFF6FFDDCFF7FFF86A0800A4
:1015B800F5502A0AD8A4E3EF0AF0E5EF0AF002EFA3
:1015C8000BF047C0D9FF48C0DAFFDE2A000EDD2243
:1015D80049C0D9FF4AC0DAFFDFCF4BF0020EDE2642
:1015E800DFCF4CF0000EDD224BC0D9FF4CC0DAFF34
:1015F800DECFB7F0DDCFB8F047EF0BF047C0D9FF2B
:1016080048C0DAFFDECF08F0DDCF09F07EEC1FF02E
:1016180008C0B7F009C0B8F019EF0BF047C0D9FF00
:1016280048C0DAFFDE2A000EDD22D00E4B6EFF0E18
:101638004C6E47C0D9FF48C0DAFFDECFF6FFDDCFDA
:10164800F7FFF86A0800F5504D6E4E6A4B504D266C
:101658004C504E224E500AE10A0E4D5CD8A037EF8E
:101668000BF03AEF0BF0010E3BEF0BF0000E000110
:10167800666F676B66516711D8A445EF0BF047EFAB
:101688000BF012EF0BF047C0D9FF48C0DAFFDECFEE
:10169800F6FFDDCFF7FFF86A0800F550630AD8A413
:1016A80058EF0BF05AEF0BF081EF0BF047C0D9FF62
:1016B80048C0DAFFDE2A000EDD2249C0D9FF4AC041
:1016C800DAFFDFCF4BF0020EDE26DFCF4CF0000E44
:1016D800DD224BC0D9FF4CC0DAFFDF50726F45C026
:1016E8001EF046C01FF072C020F0F3EC2FF01EC0B1
:1016F80045F01FC046F0EBEF12F047C0D9FF48C0D5
:10170800DAFFDECF01F0DDCF02F0D10E036EFF0E5F
:10171800046E000E066E030E056EC0EC2AF0015032
:101728000210D8B49AEF0BF09CEF0BF0B7EF0BF068
:1017380047C0D9FF48C0DAFFDECF01F0DDCF02F0A5
:10174800D50E036EFF0E046E000E066E030E056EB8
:10175800C0EC2AF001500210D8A4B5EF0BF0B7EF97
:101768000BF0F8EF0BF0030E47C0D9FF48C0DAFFC3
:10177800DE26000EDD2249C0D9FF4AC0DAFFDFCFDE
:101788004BF0020EDE26DFCF4CF0000EDD224BC000
:10179800D9FF4CC0DAFFDF500001686F000E68BF48
:1017A800FF0E696F6A6F6B6F6C6F6D6F6E6F6F6F27
:1017B80045C01EF046C01FF068C020F069C021F087
:1017C8006AC022F06BC023F06CC024F06DC025F015
:1017D8006EC026F06FC027F089EC19F01EC045F0E6
:1017E8001FC046F0EBEF12F047C0D9FF48C0DAFF40
:1017F800DECF01F0DDCF02F0D20E036EFF0E046ED5
:10180800000E066E020E056EC0EC2AF001500210A2
:10181800D8B411EF0CF013EF0CF02EEF0CF047C01A
:10182800D9FF48C0DAFFDECF01F0DDCF02F0D60ED7
:10183800036EFF0E046E000E066E020E056EC0ECFF
:101848002AF001500210D8A42CEF0CF02EEF0CF067
:1018580056EF0CF0020E47C0D9FF48C0DAFFDE266B
:10186800000EDD2249C0D9FF4AC0DAFFDFCF4BF0B6
:10187800020EDE26DFCF4CF0000EDD224BC0D9FF72
:101888004CC0DAFFDECF68F0DDCF69F00001000E52
:1018980069BFFF0E6A6F6B6F6C6F6D6F6E6F6F6FE6
:1018A800DCEF0BF047C0D9FF48C0DAFFDECFF6FF08
:1018B800DDCFF7FFF86A0800F550640AD8B467EF7F
:1018C8000CF069EF0CF07CEF0CF047C0D9FF48C072
:1018D800DAFFDECFF6FFDDCFF7FFF86A0800F55034
:1018E800690AD8A47AEF0CF07CEF0CF0A3EF0CF0A7
:1018F80047C0D9FF48C0DAFFDE2A000EDD2249C002
:10190800D9FF4AC0DAFFDFCF4BF0020EDE26DFCF69
:101918004CF0000EDD224BC0D9FF4CC0DAFFDECF01
:1019280068F0DDCF69F00001000E69BFFF0E6A6F35
:101938006B6F6C6F6D6F6E6F6F6FDCEF0BF047C086
:10194800D9FF48C0DAFFDECF01F0DDCF02F0EC0EA0
:10195800036EFF0E046E000E066E020E056EC0ECDE
:101968002AF001500210D8B4BCEF0CF0BEEF0CF016
:10197800D9EF0CF047C0D9FF48C0DAFFDECF01F03D
:10198800DDCF02F0EF0E036EFF0E046E000E066E42
:10199800020E056EC0EC2AF001500210D8A4D7EF51
:1019A8000CF0D9EF0CF002EF0DF0020E47C0D9FF92
:1019B80048C0DAFFDE26000EDD2249C0D9FF4AC042
:1019C800DAFFDFCF4BF0020EDE26DFCF4CF0000E41
:1019D800DD224BC0D9FF4CC0DAFFDECF4DF0DDCFA2
:1019E8004EF04DC068F04EC069F000016A6B6B6B39
:1019F8006C6B6D6B6E6B6F6BDCEF0BF047C0D9FFD8
:101A080048C0DAFFDECF01F0DDCF02F0DD0E036E55
:101A1800FF0E046E000E066E030E056EC0EC2AF073
:101A280001500210D8A41BEF0DF01DEF0DF05DEF73
:101A38000DF0030E47C0D9FF48C0DAFFDE26000EBE
:101A4800DD2249C0D9FF4AC0DAFFDFCF4BF0020ED2
:101A5800DE26DFCF4CF0000EDD224BC0D9FF4CC094
:101A6800DAFFDF504D6E4D500001736F746B756B6C
:101A7800766B776B786B796B7A6B45C01EF046C0D6
:101A88001FF073C020F074C021F075C022F076C03A
:101A980023F077C024F078C025F079C026F07AC00A
:101AA80027F07EEC21F01EC045F01FC046F0EBEF9A
:101AB80012F047C0D9FF48C0DAFFDECF01F0DDCF12
:101AC80002F0DE0E036EFF0E046E000E066E020EAE
:101AD800056EC0EC2AF001500210D8A476EF0DF084
:101AE80078EF0DF0A1EF0DF0020E47C0D9FF48C006
:101AF800DAFFDE26000EDD2249C0D9FF4AC0DAFF30
:101B0800DFCF4BF0020EDE26DFCF4CF0000EDD22D9
:101B18004BC0D9FF4CC0DAFFDECF4DF0DDCF4EF021
:101B28004DC073F04EC074F00001756B766B776B27
:101B3800786B796B7A6B41EF0DF047C0D9FF48C0DD
:101B4800DAFFDECFF6FFDDCFF7FFF86A0800F550C1
:101B58006F0AD8A4B2EF0DF0B4EF0DF0DCEF0DF082
:101B680047C0D9FF48C0DAFFDE2A000EDD2249C08F
:101B7800D9FF4AC0DAFFDFCF4BF0020EDE26DFCFF7
:101B88004CF0000EDD224BC0D9FF4CC0DAFFDECF8F
:101B98004DF0DDCF4EF04DC073F04EC074F0000133
:101BA800756B766B776B786B796B7A6B41EF0DF0B1
:101BB80047C0D9FF48C0DAFFDECF01F0DDCF02F021
:101BC800F50E036EFF0E046E000E066E020E056E15
:101BD800C0EC2AF001500210D8A4F5EF0DF0F7EF91
:101BE8000DF020EF0EF0020E47C0D9FF48C0DAFF13
:101BF800DE26000EDD2249C0D9FF4AC0DAFFDFCF5A
:101C08004BF0020EDE26DFCF4CF0000EDD224BC07B
:101C1800D9FF4CC0DAFFDECF4DF0DDCF4EF04DC01E
:101C280073F04EC074F00001756B766B776B786B50
:101C3800796B7A6B41EF0DF047C0D9FF48C0DAFFE6
:101C4800DECF01F0DDCF02F0D90E036EFF0E046E79
:101C5800000E066E030E056EC0EC2AF0015002104D
:101C6800D8A439EF0EF03BEF0EF063EF0EF0030E41
:101C780047C0D9FF48C0DAFFDE26000EDD2249C082
:101C8800D9FF4AC0DAFFDFCF4BF0020EDE26DFCFE6
:101C98004CF0000EDD224BC0D9FF4CC0DAFFDECF7E
:101CA80070F0DDCF71F070C0D9FF71C0DAFF7FC16D
:101CB800DFFF000E466E000E456EEBEF12F047C0D8
:101CC800D9FF48C0DAFFDECF01F0DDCF02F0DA0E2F
:101CD800036EFF0E046E000E066E020E056EC0EC5B
:101CE8002AF001500210D8A47CEF0EF07EEF0EF01F
:101CF800A4EF0EF0020E47C0D9FF48C0DAFFDE2677
:101D0800000EDD2249C0D9FF4AC0DAFFDFCF4BF011
:101D1800020EDE26DFCF4CF0000EDD224BC0D9FFCD
:101D28004CC0DAFFDECF70F0DDCF71F070C0D9FFA4
:101D380071C0DAFF7FC1DEFF80C1DDFF5DEF0EF00D
:101D480047C0D9FF48C0DAFFDECFF6FFDDCFF7FF87
:101D5800F86A0800F5506E0AD8A4B5EF0EF0B7EF90
:101D68000EF0DCEF0EF047C0D9FF48C0DAFFDE2ADC
:101D7800000EDD2249C0D9FF4AC0DAFFDFCF4BF0A1
:101D8800020EDE26DFCF4CF0000EDD224BC0D9FF5D
:101D98004CC0DAFFDECF70F0DDCF71F070C0D9FF34
:101DA80071C0DAFF7FC1DEFF80C1DDFF5DEF0EF09D
:101DB80047C0D9FF48C0DAFFDECF01F0DDCF02F01F
:101DC800F20E036EFF0E046E000E066E020E056E16
:101DD800C0EC2AF001500210D8A4F5EF0EF0F7EF8E
:101DE8000EF01DEF0FF0020E47C0D9FF48C0DAFF12
:101DF800DE26000EDD2249C0D9FF4AC0DAFFDFCF58
:101E08004BF0020EDE26DFCF4CF0000EDD224BC079
:101E1800D9FF4CC0DAFFDECF70F0DDCF71F070C0B3
:101E2800D9FF71C0DAFF7FC1DEFF80C1DDFF5DEF42
:101E38000EF047C0D9FF48C0DAFFDECFF6FFDDCF8E
:101E4800F7FFF86A0800F550700AD8A42EEF0FF0D3
:101E580030EF0FF074EF0FF047C0D9FF48C0DAFF3A
:101E6800DE2A000EDD2249C0D9FF4AC0DAFFDFCFE3
:101E78004BF0020EDE26DFCF4CF0000EDD224BC009
:101E8800D9FF4CC0DAFFDECF4DF0DDCF4EF04DC0AC
:101E980073F04EC074F00001756B766B776B786BDE
:101EA800796B7A6B45C01EF046C01FF073C020F0F6
:101EB80074C021F075C022F076C023F077C024F0FA
:101EC80078C025F079C026F07AC027F0780E286E01
:101ED800FBEC1AF01EC045F01FC046F0EBEF12F005
:101EE80047C0D9FF48C0DAFFDECFF6FFDDCFF7FFE6
:101EF800F86A0800F550730AD8A485EF0FF087EF49
:101F08000FF0B2EF0FF047C0D9FF48C0DAFFDE2A62
:101F1800000EDD2249C0D9FF4AC0DAFFDFCF4BF0FF
:101F2800020EDE26DFCF4CF0000EDD224BC0D9FFBB
:101F38004CC0DAFFDECF60F0DDCF61F045C00CF0B9
:101F480046C00DF060C00EF061C00FF0C5EC24F083
:101F58000CC045F00DC046F0EBEF12F047C0D9FFBA
:101F680048C0DAFFDECF01F0DDCF02F0E10E036EEC
:101F7800FF0E046E000E066E030E056EC0EC2AF00E
:101F880001500210D8A4CBEF0FF0CDEF0FF00DEFFA
:101F980010F0030E47C0D9FF48C0DAFFDE26000E56
:101FA800DD2249C0D9FF4AC0DAFFDFCF4BF0020E6D
:101FB800DE26DFCF4CF0000EDD224BC0D9FF4CC02F
:101FC800DAFFDF504D6E4D500001736F746B756B07
:101FD800766B776B786B796B7A6B45C01EF046C071
:101FE8001FF073C020F074C021F075C022F076C0D5
:101FF80023F077C024F078C025F079C026F07AC0A5
:1020080027F07CEC1EF01EC045F01FC046F0EBEF39
:1020180012F047C0D9FF48C0DAFFDECF01F0DDCFAC
:1020280002F0E20E036EFF0E046E000E066E020E44
:10203800056EC0EC2AF001500210D8A426EF10F06B
:1020480028EF10F051EF10F0020E47C0D9FF48C03A
:10205800DAFFDE26000EDD2249C0D9FF4AC0DAFFCA
:10206800DFCF4BF0020EDE26DFCF4CF0000EDD2274
:102078004BC0D9FF4CC0DAFFDECF4DF0DDCF4EF0BC
:102088004DC073F04EC074F00001756B766B776BC2
:10209800786B796B7A6BF1EF0FF047C0D9FF48C0C6
:1020A800DAFFDECFF6FFDDCFF7FFF86A0800F5505C
:1020B800750AD8A462EF10F064EF10F08CEF10F0FE
:1020C80047C0D9FF48C0DAFFDE2A000EDD2249C02A
:1020D800D9FF4AC0DAFFDFCF4BF0020EDE26DFCF92
:1020E8004CF0000EDD224BC0D9FF4CC0DAFFDECF2A
:1020F8004DF0DDCF4EF04DC073F04EC074F00001CE
:10210800756B766B776B786B796B7A6BF1EF0FF099
:1021180047C0D9FF48C0DAFFDECF01F0DDCF02F0BB
:10212800F80E036EFF0E046E000E066E020E056EAC
:10213800C0EC2AF001500210D8A4A5EF10F0A7EFC8
:1021480010F0D0EF10F0020E47C0D9FF48C0DAFFF8
:10215800DE26000EDD2249C0D9FF4AC0DAFFDFCFF4
:102168004BF0020EDE26DFCF4CF0000EDD224BC016
:10217800D9FF4CC0DAFFDECF4DF0DDCF4EF04DC0B9
:1021880073F04EC074F00001756B766B776B786BEB
:10219800796B7A6BF1EF0FF047C0D9FF48C0DAFFCF
:1021A800DECF01F0DDCF02F0E50E036EFF0E046E08
:1021B800000E066E030E056EC0EC2AF001500210E8
:1021C800D8B4E9EF10F0EBEF10F006EF11F047C0CC
:1021D800D9FF48C0DAFFDECF01F0DDCF02F0CD0E27
:1021E800036EFF0E046E000E066E030E056EC0EC45
:1021F8002AF001500210D8A404EF11F006EF11F0F4
:102208005CEF11F047C0D9FF48C0DAFFDECF4BF0D2
:10221800DDCF4CF0020E4B26000E4C224BC0F6FFD1
:102228004CC0F7FFF86A0800F5CF72F0030E47C0FC
:10223800D9FF48C0DAFFDE26000EDD2249C0D9FFEB
:102248004AC0DAFFDFCF4BF0020EDE26DFCF4CF0BC
:10225800000EDD224BC0D9FF4CC0DAFFDF504D6EB7
:102268004D500001736F746B756B766B776B786B81
:10227800796B7A6B45C01EF046C01FF073C020F022
:1022880074C021F075C022F076C023F077C024F026
:1022980078C025F079C026F07AC027F072C028F0FF
:1022A800FBEC1AF01EC045F01FC046F0EBEF12F031
:1022B80047C0D9FF48C0DAFFDECF01F0DDCF02F01A
:1022C800E60E036EFF0E046E000E066E020E056E1D
:1022D800C0EC2AF001500210D8B475EF11F077EF76
:1022E80011F092EF11F047C0D9FF48C0DAFFDECFF6
:1022F80001F0DDCF02F0CE0E036EFF0E046E000E6D
:10230800066E020E056EC0EC2AF001500210D8A429
:1023180090EF11F092EF11F0CFEF11F047C0D9FF15
:1023280048C0DAFFDECF4BF0DDCF4CF0010E4B2674
:10233800000E4C224BC0F6FF4CC0F7FFF86A0800AD
:10234800F5CF72F0020E47C0D9FF48C0DAFFDE268B
:10235800000EDD2249C0D9FF4AC0DAFFDFCF4BF0BB
:10236800020EDE26DFCF4CF0000EDD224BC0D9FF77
:102378004CC0DAFFDECF4DF0DDCF4EF04DC073F02C
:102388004EC074F00001756B766B776B786B796B68
:102398007A6B3EEF11F047C0D9FF48C0DAFFDECFB5
:1023A800F6FFDDCFF7FFF86A0800F550780AD8B4D1
:1023B800E0EF11F0E2EF11F0F5EF11F047C0D9FFAF
:1023C80048C0DAFFDECFF6FFDDCFF7FFF86A080076
:1023D800F550580AD8A4F3EF11F0F5EF11F029EFF2
:1023E80012F047C0D9FF48C0DAFFDECFF6FFDDCFD5
:1023F800F7FFF86A0800F5CF72F047C0D9FF48C068
:10240800DAFFDE2A000EDD2249C0D9FF4AC0DAFF12
:10241800DFCF4BF0020EDE26DFCF4CF0000EDD22C0
:102428004BC0D9FF4CC0DAFFDECF4DF0DDCF4EF008
:102438004DC073F04EC074F00001756B766B776B0E
:10244800786B796B7A6B3EEF11F047C0D9FF48C0C3
:10245800DAFFDECF01F0DDCF02F0FB0E036EFF0ED8
:10246800046E000E066E020E056EC0EC2AF00150D6
:102478000210D8B442EF12F044EF12F05FEF12F0FE
:1024880047C0D9FF48C0DAFFDECF01F0DDCF02F048
:10249800E90E036EFF0E046E000E066E020E056E48
:1024A800C0EC2AF001500210D8A45DEF12F05FEFE3
:1024B80012F09CEF12F047C0D9FF48C0DAFFDECF18
:1024C8004BF0DDCF4CF0010E4B26000E4C224BC0DA
:1024D800F6FF4CC0F7FFF86A0800F5CF72F0020E5D
:1024E80047C0D9FF48C0DAFFDE26000EDD2249C00A
:1024F800D9FF4AC0DAFFDFCF4BF0020EDE26DFCF6E
:102508004CF0000EDD224BC0D9FF4CC0DAFFDECF05
:102518004DF0DDCF4EF04DC073F04EC074F00001A9
:10252800756B766B776B786B796B7A6B3EEF11F026
:1025380047C0D9FF48C0DAFFDECFF6FFDDCFF7FF8F
:10254800F86A0800F550250AD8A4ADEF12F0AFEFED
:1025580012F0C6EF12F047C0D9FF48C0DAFFDE2AF2
:10256800000EDD22000E046E250E036E45C005F038
:1025780046C006F0D1EC2CF0000E466E010E456EFA
:10258800EBEF12F047C0D9FF48C0DAFFDE2A000E91
:10259800DD225DEF0EF047C0D9FF48C0DAFFDECF7D
:1025A800F6FFDDCFF7FFF86A0800F550036E046AFE
:1025B80045C005F046C006F0D1EC2CF047C0D9FF65
:1025C80048C0DAFFDE2A000EDD22C0EF12F012004A
:1025D800010E0001906F000E3BEC34F0960ECDEC2E
:1025E80032F0EF0E0001906F000E3BEC34F0030E5A
:1025F8000001906F010E3BEC34F0800E0001906FEB
:10260800010E3BEC34F0020E0001906F010E3BEC22
:1026180034F0CF0E0001906F000E3BEC34F0000E4A
:102628000001906F010E3BEC34F0C10E0001906F79
:10263800010E3BEC34F0300E0001906F010E3BECC4
:1026480034F0ED0E0001906F000E3BEC34F0640E98
:102658000001906F010E3BEC34F0030E0001906F07
:10266800010E3BEC34F0120E0001906F010E3BECB2
:1026780034F0810E0001906F010E3BEC34F0E80E4F
:102688000001906F000E3BEC34F0850E0001906F56
:10269800010E3BEC34F0000E0001906F010E3BEC94
:1026A80034F0780E0001906F010E3BEC34F0CB0E45
:1026B8000001906F000E3BEC34F0390E0001906F72
:1026C800010E3BEC34F02C0E0001906F010E3BEC38
:1026D80034F0000E0001906F010E3BEC34F0340E24
:1026E8000001906F010E3BEC34F0020E0001906F78
:1026F800010E3BEC34F0F70E0001906F000E3BEC3E
:1027080034F0200E0001906F010E3BEC34F0EA0E1D
:102718000001906F000E3BEC34F0000E0001906F4A
:10272800010E3BEC34F0000E0001906F010E3BEC03
:1027380034F0C00E0001906F000E3BEC34F0230E15
:102748000001906F010E3BEC34F0C10E0001906F58
:10275800000E3BEC34F0100E0001906F010E3BECC4
:1027680034F0C50E0001906F000E3BEC34F03E0EC5
:102778000001906F010E3BEC34F0280E0001906FC1
:10278800010E3BEC34F0C70E0001906F000E3BECDD
:1027980034F0860E0001906F010E3BEC34F0360EDB
:1027A8000001906F000E3BEC34F0480E0001906F72
:1027B800010E3BEC34F03A0E0001906F000E3BEC3A
:1027C80034F0550E0001906F010E3BEC34F0B10E61
:1027D8000001906F000E3BEC34F0000E0001906F8A
:1027E800010E3BEC34F0180E0001906F010E3BEC2B
:1027F80034F0B60E0001906F000E3BEC34F0080E7A
:102808000001906F010E3BEC34F0820E0001906FD6
:10281800010E3BEC34F0270E0001906F010E3BECEB
:1028280034F0F20E0001906F000E3BEC34F0000E15
:102838000001906F010E3BEC34F0260E0001906F02
:10284800000E3BEC34F0010E0001906F010E3BECE2
:1028580034F0E00E0001906F000E3BEC34F00F0EE8
:102868000001906F010E3BEC34F0310E0001906FC7
:10287800010E3BEC34F02B0E0001906F010E3BEC87
:1028880034F00C0E0001906F010E3BEC34F00E0E8C
:102898000001906F010E3BEC34F0080E0001906FC0
:1028A800010E3BEC34F04E0E0001906F010E3BEC34
:1028B80034F0F10E0001906F010E3BEC34F0370E4E
:1028C8000001906F010E3BEC34F0070E0001906F91
:1028D800010E3BEC34F0100E0001906F010E3BEC42
:1028E80034F0030E0001906F010E3BEC34F00E0E35
:1028F8000001906F010E3BEC34F0090E0001906F5F
:10290800010E3BEC34F0000E0001906F010E3BEC21
:1029180034F0E10E0001906F000E3BEC34F0000E35
:102928000001906F010E3BEC34F00E0E0001906F29
:10293800010E3BEC34F0140E0001906F010E3BECDD
:1029480034F0030E0001906F010E3BEC34F0110ED1
:102958000001906F010E3BEC34F0070E0001906F00
:10296800010E3BEC34F0310E0001906F010E3BEC90
:1029780034F0C10E0001906F010E3BEC34F0480EAC
:102988000001906F010E3BEC34F0080E0001906FCF
:10299800010E3BEC34F00F0E0001906F010E3BEC82
:1029A80034F00C0E0001906F010E3BEC34F0310E48
:1029B8000001906F010E3BEC34F0360E0001906F71
:1029C800010E3BEC34F00F0E0001906F010E3BEC52
:1029D80034F0110E0001906F000E3BEC34F0780ECD
:1029E800CDEC32F0290E0001906F000E3BEC34F074
:1029F800780ECDEC32F0000E0001996F000E986F42
:102A080054EC2EF012002AEC34F0000EFAEC2DF003
:102A1800ECEC12F08150F290E80E00018F6F600E1E
:102A2800906FC8EC34F0F28E000E0101016F3C0E7D
:102A3800006F000E036FDC0E026F540E046FFF0E62
:102A4800056FFF0E076F0669000E096F000E086F0D
:102A5800AEEC27F0000E0001906F000E8F6FC2ECF5
:102A680034F0000E0001906F020E8F6F58EC34F0B6
:102A7800FF0AD8B442EF15F044EF15F05CEF15F0FB
:102A8800000E0001906F000E8F6F58EC34F00101BA
:102A9800786F7851C96FCA6B000E0001906F010EF4
:102AA8008F6F58EC34F00101786F7851C76FC86B9D
:102AB800000EDCEC31F08FC087F190C088F187C13F
:102AC8008FF088C190F00001000E90BFFF0E916F4B
:102AD800926F640E936F000E946F000E956F000E48
:102AE800966F98EC2EF08FC09BF090C09CF091C030
:102AF8009DF092C09EF0FF0E00019F6F0F0EA06F19
:102B0800000EA16F000EA26FD2EC28F09BC0B1F0AE
:102B18009CC0B2F09DC0B3F09EC0B4F0A90E0101F4
:102B28006A6F010E6B6F000E6D6F1E0E6C6FC10E1B
:102B38006E6FFF0E6F6FB1C070F1B2C071F1B3C0AC
:102B480072F1B4C073F158EC33F0000E0101016F5B
:102B5800640E006F000E036F640E026FA90E046FFF
:102B6800010E056FFF0E076F0669000E096F000E54
:102B7800086FAEEC27F0C9C178F1CAC179F1000E2F
:102B8800010179BFFF0E7A6F7B6F78510001B15D4B
:102B9800010179510001B25901017A510001B3597B
:102BA800B451800A01017C6F7B51800A7C59D8A0FE
:102BB800E0EF15F0E2EF15F0E3EF15F0898AC7C1F1
:102BC80078F1C8C179F1000E79BFFF0E7A6F7B6F7B
:102BD8000001B1510101785D0001B251010179593B
:102BE8000001B35101017A597B51800A7C6F0001C1
:102BF800B451800A01017C59D8A005EF16F007EFFF
:102C080016F008EF16F0899AB2EC33F00101786FEC
:102C18007851816F826B200E81198211D8A417EF29
:102C280016F019EF16F05CEF15F0750E546FFF0EE5
:102C3800556FDCEC33F02D0E0101546FFF0E556F0C
:102C4800C9C156F1CAC157F1C7C158F1C8C159F134
:102C5800DCEC33F0A00E0101546FFF0E556FDCEC75
:102C680033F0000E0001A66F020EA56F99EC2DF04F
:102C7800A5C0C9F1A6C0CAF1C9C185F1CAC186F10A
:102C88008B0E0101546FFF0E556FDCEC33F0000E14
:102C98000001A66F020EA56F99EC2DF0A5C0C7F133
:102CA800A6C0C8F1C7C183F1C8C184F1010185512B
:102CB800835D8451800A786F8651800A7859D8B02C
:102CC80068EF16F06AEF16F02EEF16F0000E00010E
:102CD800906F000E8F6FC9C191F00EEC31F0000EAD
:102CE8000001906F010E8F6FC7C191F00EEC31F0AB
:102CF800050E0101546FFF0E556FC9C156F1CAC1C7
:102D080057F1C7C158F1C8C159F1DCEC33F05CEF99
:102D180015F04FEF00F002C11AF103C11BF104C115
:102D28001CF105C11DF106C11EF107C11FF108C143
:102D380020F109C121F1010121BFA5EF16F0A8EF8B
:102D480016F0010EA9EF16F0000E186F196B185146
:102D58001911D8B4B2EF16F0B4EF16F0C4EF16F0AC
:102D6800211F201F1F1F1E1F1D1F1C1F1B1F1A6D29
:102D7800000E1B231C231D231E231F232023212376
:102D88000001B8BFCAEF16F0CCEF16F0CDEF16F081
:102D9800B993B8BFDAEF16F0B85106E1B705D8B065
:102DA800D8EF16F0DAEF16F0E1EF16F0000E010199
:102DB800156F010E146FE5EF16F0B7C014F1B8C027
:102DC80015F1B5C016F1B6C017F101011851191166
:102DD800D8A4F1EF16F0F3EF16F0FBEF16F00001B0
:102DE800B9A5F9EF16F0FBEF16F0FFEF16F00101A9
:102DF8001607D8A01707000E0101236F1F0E226FB8
:102E0800000EA86F89EF17F001012207D8A0230749
:102E1800890E2225D96E010E2321DA6E1AC18FF090
:102E28001BC190F01CC191F01DC192F01EC193F01E
:102E38001FC194F020C195F021C196F00A0E00013F
:102E4800976F000E986F000E996F000E9A6F000E24
:102E58009B6F000E9C6F000E9D6F000E9E6F49ECDD
:102E680026F08FC00AF190C00BF191C00CF192C00E
:102E78000DF193C00EF194C00FF195C010F196C0FA
:102E880011F10AC1A1F00CC1A2F09AEC31F00001D5
:102E9800A151300FDF6E01011407D8A015071607DE
:102EA800D8A017071AC18FF01BC190F01CC191F070
:102EB8001DC192F01EC193F01FC194F020C195F07E
:102EC80021C196F00A0E0001976F000E986F000E50
:102ED800996F000E9A6F000E9B6F000E9C6F000E8C
:102EE8009D6F000E9E6F3CEC23F08FC01AF190C0CE
:102EF8001BF191C01CF192C01DF193C01EF194C04A
:102F08001FF195C020F196C021F1010123BF95EF73
:102F180017F0235108E12205D8A095EF17F097EF95
:102F280017F0C8EF17F01A511B111C111D111E11B3
:102F38001F1120112111D8A4A4EF17F0A6EF17F044
:102F480008EF17F015BFB3EF17F0155106E1140598
:102F5800D8B0B1EF17F0B3EF17F008EF17F017BFBD
:102F6800BEEF17F0175108E11605D8A0BEEF17F00D
:102F7800C0EF17F0C8EF17F00001B9B3C6EF17F0AC
:102F8800C8EF17F008EF17F0010118511911D8A46C
:102F9800D0EF17F0D2EF17F0DAEF17F00001B9A56C
:102FA800D8EF17F0DAEF17F0F9EF17F00101220761
:102FB800D8A0230718511911D8A4E5EF17F0E7EFA7
:102FC80017F0EDEF17F0000E136F2B0E126FF1EFE5
:102FD80017F0000E136F2D0E126F890E2225D96E71
:102FE800010E2321DA6E12C1DFFF00C1A1F001C179
:102FF800A2F0890E010122250001A36F010E010133
:1030080023210001A46F16C1A5F017C1A6F06CEC2E
:103018002CF0A1C000F1A2C001F112000001B8BF5C
:1030280018EF18F01AEF18F01BEF18F0B993B8BFA3
:1030380028EF18F0B85106E1B705D8B026EF18F018
:1030480028EF18F02FEF18F0000E0101186F010E8D
:10305800176F33EF18F0B7C017F1B8C018F1B5C043
:1030680019F1B6C01AF10001B9A93DEF18F03FEF08
:1030780018F044EF18F00101FE0E1927FF0E1A236D
:1030880002C11BF103C11CF104C11DF105C11EF1F0
:1030980006C11FF107C120F108C121F109C122F1C0
:1030A800000E0101246F1F0E236F000EA86F12EF90
:1030B80019F001012307D8A024070F0E1B15256F4F
:1030C800266B26BF71EF18F0265109E10A0E255D1F
:1030D800D8A071EF18F073EF18F07BEF18F0570EC7
:1030E8002525256F000E2621266F81EF18F0300E5A
:1030F8002525256F000E2621266FBF0E0B6FFF0EAC
:103108000C6F0A510D6F0E6B0B510D270C510E23CE
:103118000E510AE11A0E0D5DD8A095EF18F098EF40
:1031280018F0010E99EF18F0000E136F146B13517D
:103138001411D8B4A2EF18F0A4EF18F0D4EF18F0D7
:103148009F0E0B6FFF0E0C6F200E25110D6F000EDA
:1031580026110E6F0B510D270C510E230E510AE14B
:103168001A0E0D5DD8A0BBEF18F0BEEF18F0010ED7
:10317800BFEF18F0000E156F166B15511611D8B465
:10318800C8EF18F0CAEF18F0D4EF18F025C195F081
:1031980026C196F065EC2FF095C025F196C026F172
:1031A800890E01012325D96E010E2421DA6E25C16D
:1031B800DFFF1707D8A018071907D8A01A071BC1DF
:1031C8000BF11CC10CF11DC10DF11EC10EF11FC187
:1031D8000FF120C110F121C111F122C112F1050E28
:1031E800FFEF18F0D8901233113310330F330E332A
:1031F8000D330C330B33E82EF6EF18F00BC11BF12F
:103208000CC11CF10DC11DF10EC11EF10FC11FF142
:1032180010C120F111C121F112C122F124BF1EEF0A
:1032280019F0245109E1020E235DD8A01EEF19F010
:1032380020EF19F051EF19F01B511C111D111E112F
:103248001F11201121112211D8A42DEF19F02FEFF1
:1032580019F05DEF18F018BF3CEF19F0185106E1AE
:103268001705D8B03AEF19F03CEF19F05DEF18F0F8
:103278001ABF47EF19F01A5108E11905D8A047EF0E
:1032880019F049EF19F051EF19F00001B9B34FEFF8
:1032980019F051EF19F05DEF18F00001B9A957EFD7
:1032A80019F059EF19F070EF19F001012307D8A0B0
:1032B8002407890E2325D96E010E2421DA6E0AC14E
:1032C800DFFF2307D8A02407890E2325D96E010E16
:1032D8002421DA6E300EDF6E00C1A1F001C1A2F028
:1032E800890E010123250001A36F010E010124218C
:1032F8000001A46F19C1A5F01AC1A6F06CEC2CF05E
:10330800A1C000F1A2C001F1120020C038F021C014
:1033180039F022C03AF023C03BF024C03CF025C06D
:103328003DF026C03EF027C03FF03FBE9EEF19F0AB
:10333800A1EF19F0010EA2EF19F0000E366E376AF0
:1033480036503710D8B4ABEF19F0ADEF19F0BDEF28
:1033580019F03F1E3E1E3D1E3C1E3B1E3A1E391EE6
:10336800386C000E39223A223B223C223D223E2272
:103378003F220001B8BFC3EF19F0C5EF19F0C6EF3F
:1033880019F0B993B8BFD3EF19F0B85106E1B705F2
:10339800D8B0D1EF19F0D3EF19F0D9EF19F0000E2A
:1033A800336E010E326EDDEF19F0B7C032F0B8C0DF
:1033B80033F0B5C034F0B6C035F036503710D8A465
:1033C800E8EF19F0EAEF19F0F1EF19F0B9A5EFEF0E
:1033D80019F0F1EF19F0F4EF19F03406D8A035061A
:1033E800000E416E1F0E406E000E0101A86F79EFAE
:1033F8001AF04006D8A04106890E4024D96E010E65
:103408004120DA6E38C001F039C002F03AC003F04A
:103418003BC004F03CC005F03DC006F03EC007F0DC
:103428003FC008F00A0E096E000E0A6E000E0B6E01
:10343800000E0C6E000E0D6E000E0E6E000E0F6E5E
:10344800000E106EFCEC26F001C028F002C029F036
:1034580003C02AF004C02BF005C02CF006C02DF0E4
:1034680007C02EF008C02FF028C013F02AC014F0AF
:10347800FCEC31F01350300FDF6E3206D8A0330663
:103488003406D8A0350638C001F039C002F03AC079
:1034980003F03BC004F03CC005F03DC006F03EC060
:1034A80007F03FC008F00A0E096E000E0A6E000E03
:1034B8000B6E000E0C6E000E0D6E000E0E6E000EE2
:1034C8000F6E000E106E01EC24F001C038F002C03F
:1034D80039F003C03AF004C03BF005C03CF006C028
:1034E8003DF007C03EF008C03FF041BE84EF1AF03F
:1034F800415008E14004D8A084EF1AF086EF1AF092
:10350800B7EF1AF0385039103A103B103C103D1004
:103518003E103F10D8A493EF1AF095EF1AF0FDEF84
:1035280019F033BEA2EF1AF0335006E13204D8B0D6
:10353800A0EF1AF0A2EF1AF0FDEF19F035BEADEFCB
:103548001AF0355008E13404D8A0ADEF1AF0AFEF07
:103558001AF0B7EF1AF00001B9B3B5EF1AF0B7EFE8
:103568001AF0FDEF19F036503710D8A4BEEF1AF054
:10357800C0EF1AF0C8EF1AF00001B9A5C6EF1AF0AB
:10358800C8EF1AF0E6EF1AF04006D8A04106365008
:103598003710D8A4D2EF1AF0D4EF1AF0DAEF1AF0F5
:1035A800000E316E2B0E306EDEEF1AF0000E316E0B
:1035B8002D0E306E890E4024D96E010E4120DA6E30
:1035C80030C0DFFF1EC013F01FC014F0890E402466
:1035D800156E010E4120166E34C017F035C018F074
:1035E80036EC2DF013C01EF014C01FF012000001BD
:1035F800B8BF01EF1BF003EF1BF004EF1BF0B9930A
:10360800B8BF11EF1BF0B85106E1B705D8B00FEFFE
:103618001BF011EF1BF017EF1BF0000E366E010EBA
:10362800356E1BEF1BF0B7C035F0B8C036F0B5C02B
:1036380037F0B6C038F0B9A924EF1BF026EF1BF01D
:103648002AEF1BF0FE0E3726FF0E382220C039F075
:1036580021C03AF022C03BF023C03CF024C03DF02A
:1036680025C03EF026C03FF027C040F0000E426E55
:103678001F0E416E000E0101A86FF6EF1BF0410608
:10368800D8A042060F0E3914436E446A44BE56EF62
:103698001BF0445009E10A0E435CD8A056EF1BF01A
:1036A80058EF1BF060EF1BF0570E4324436E000EDB
:1036B8004420446E66EF1BF0300E4324436E000E28
:1036C8004420446EBF0E296EFF0E2A6E28502B6EC2
:1036D8002C6A29502B262A502C222C500AE11A0E2B
:1036E8002B5CD8A07AEF1BF07DEF1BF0010E7EEF6C
:1036F8001BF0000E316E326A31503210D8B487EFA9
:103708001BF089EF1BF0B9EF1BF09F0E296EFF0E1F
:103718002A6E200E43102B6E000E44102C6E29507A
:103728002B262A502C222C500AE11A0E2B5CD8A0EA
:10373800A0EF1BF0A3EF1BF0010EA4EF1BF0000E8F
:10374800336E346A33503410D8B4ADEF1BF0AFEF9A
:103758001BF0B9EF1BF043C007F044C008F0C4ECFD
:103768002FF007C043F008C044F0890E4124D96EF9
:10377800010E4220DA6E43C0DFFF3506D8A03606B8
:103788003706D8A0380639C029F03AC02AF03BC01D
:103798002BF03CC02CF03DC02DF03EC02EF03FC0B9
:1037A8002FF040C030F0050EE3EF1BF0D890303218
:1037B8002F322E322D322C322B322A322932E82E59
:1037C800DAEF1BF029C039F02AC03AF02BC03BF0E1
:1037D8002CC03CF02DC03DF02EC03EF02FC03FF075
:1037E80030C040F042BE02EF1CF0425009E1020E28
:1037F800415CD8A002EF1CF004EF1CF035EF1CF080
:1038080039503A103B103C103D103E103F1040100C
:10381800D8A411EF1CF013EF1CF043EF1BF036BED9
:1038280020EF1CF0365006E13504D8B01EEF1CF02E
:1038380020EF1CF043EF1BF038BE2BEF1CF0385084
:1038480008E13704D8A02BEF1CF02DEF1CF035EF62
:103858001CF00001B9B333EF1CF035EF1CF043EF57
:103868001BF00001B9A93BEF1CF03DEF1CF053EF32
:103878001CF04106D8A04206890E4124D96E010EDB
:103888004220DA6E28C0DFFF4106D8A04206890E22
:103898004124D96E010E4220DA6E300EDF6E1EC052
:1038A80013F01FC014F0890E4124156E010E42203A
:1038B800166E37C017F038C018F036EC2DF013C06C
:1038C8001EF014C01FF012000001B8BF6EEF1CF00C
:1038D80070EF1CF071EF1CF0B993B8BF7EEF1CF0CD
:1038E800B85106E1B705D8B07CEF1CF07EEF1CF0AC
:1038F80085EF1CF0000E0101136F010E126F89EFA6
:103908001CF0B7C012F1B8C013F1B5C014F1B6C0BD
:1039180015F102C116F103C117F104C118F105C16F
:1039280019F106C11AF107C11BF108C11CF109C13F
:103938001DF1000E01011F6F1F0E1E6F000EA86FF4
:1039480020EF1DF001011E07D8A01F07890E1E25B4
:10395800D96E010E1F21DA6E16C18FF017C190F0D3
:1039680018C191F019C192F01AC193F01BC194F0DB
:103978001CC195F01DC196F00A0E0001976F000E4C
:10398800986F000E996F000E9A6F000E9B6F000ED5
:103998009C6F000E9D6F000E9E6F35EC2BF08FC054
:1039A8000AF190C00BF191C00CF192C00DF193C0D7
:1039B8000EF194C00FF195C010F196C011F10101FC
:1039C8000A51300FDF6E1207D8A013071407D8A0CA
:1039D800150716C18FF017C190F018C191F019C1E1
:1039E80092F01AC193F01BC194F01CC195F01DC14F
:1039F80096F00A0E0001976F000E986F000E996FEF
:103A0800000E9A6F000E9B6F000E9C6F000E9D6F4C
:103A1800000E9E6F59EC29F08FC016F190C017F177
:103A280091C018F192C019F193C01AF194C01BF11A
:103A380095C01CF196C01DF101011E511F11D8B48B
:103A480028EF1DF02AEF1DF05BEF1DF0165117113E
:103A5800181119111A111B111C111D11D8A437EFB7
:103A68001DF039EF1DF0A6EF1CF013BF46EF1DF057
:103A7800135106E11205D8B044EF1DF046EF1DF0D2
:103A8800A6EF1CF015BF51EF1DF0155108E1140504
:103A9800D8A051EF1DF053EF1DF05BEF1DF00001B2
:103AA800B9B359EF1DF05BEF1DF0A6EF1CF000C194
:103AB800A1F001C1A2F0890E01011E250001A36F2A
:103AC800010E01011F210001A46F14C1A5F015C149
:103AD800A6F06CEC2CF0A1C000F1A2C001F112001C
:103AE800000E0001A46F000EA36F000E9D6F000E64
:103AF8009C6F81EF1DF0964B972B010EA26F96C01D
:103B0800F6FF97C0F7FF000EF86E0E0EF76403D0AD
:103B18000800F55005D0F6CFE9FFF7CFEAFFEF50E0
:103B2800200AD8B49AEF1DF09CEF1DF0C6EF1DF0E7
:103B3800F70E0001986FFF0E996F96C0F6FF97C0B9
:103B4800F7FF000EF86E0E0EF76403D00800F5506C
:103B580005D0F6CFE9FFF7CFEAFFEF5000019A6FE3
:103B68009B6B98519A2799519B239B5109E1050E0C
:103B78009A5DD8A0C2EF1DF0C4EF1DF0C6EF1DF08E
:103B8800000EA26FA2C09EF000019F6B9E519F1174
:103B9800D8A4D1EF1DF0D3EF1DF07FEF1DF0DDEFBE
:103BA8001DF0000E9D6F010E9C6F964B972B2CEF0E
:103BB8001EF096C0F6FF97C0F7FF000EF86E0E0EC7
:103BC800F76403D00800F55005D0F6CFE9FFF7CF2A
:103BD800EAFFEF500001986F996B9951000AD8B429
:103BE800F8EF1DF02CEF1EF098512B0AD8B4D9EF3E
:103BF8001DF0060AD8B4D5EF1DF02CEF1EF0A3C0B7
:103C08008FF0A4C090F0000E926F0A0E916FF0EC46
:103C180033F096C0F6FF97C0F7FF000EF86E0E0E51
:103C2800F76403D00800F55005D0F6CFE9FFF7CFC9
:103C3800EAFFEF500001986F98518F5F000E905B7C
:103C4800300E8F25A36F000E9021A46FD9EF1DF0C1
:103C5800D00E986FFF0E996F96C0F6FF97C0F7FFCA
:103C6800000EF86E0E0EF76403D00800F55005D06C
:103C7800F6CFE9FFF7CFEAFFEF5000019A6F9B6B91
:103C880098519A2799519B239B510AE10A0E9A5DF4
:103C9800D8A051EF1EF054EF1EF0010E55EF1EF0A4
:103CA800000EA06FA16BA051A111D8A45EEF1EF069
:103CB80060EF1EF003EF1EF09C519D11D8A467EF32
:103CC8001EF069EF1EF077EF1EF0A3C098F0A4C0B5
:103CD80099F0981F991F984B992B98C096F099C006
:103CE80097F07BEF1EF0A3C096F0A4C097F01200E7
:103CF8000001B8BF82EF1EF084EF1EF085EF1EF0C2
:103D0800B993B8BF92EF1EF0B85106E1B705D8B025
:103D180090EF1EF092EF1EF098EF1EF0000E316E3D
:103D2800010E306E9CEF1EF0B7C030F0B8C031F015
:103D3800B5C032F0B6C033F020C034F021C035F041
:103D480022C036F023C037F024C038F025C039F03F
:103D580026C03AF027C03BF0000E3D6E1F0E3C6EA9
:103D6800000E0101A86F2FEF1FF03C06D8A03D06FA
:103D7800890E3C24D96E010E3D20DA6E34C001F064
:103D880035C002F036C003F037C004F038C005F083
:103D980039C006F03AC007F03BC008F00A0E096EB9
:103DA800000E0A6E000E0B6E000E0C6E000E0D6EED
:103DB800000E0E6E000E0F6E000E106E9EEC2BF0B5
:103DC80001C028F002C029F003C02AF004C02BF07B
:103DD80005C02CF006C02DF007C02EF008C02FF04B
:103DE8002850300FDF6E3006D8A031063206D8A032
:103DF800330634C001F035C002F036C003F037C0D6
:103E080004F038C005F039C006F03AC007F03BC0EE
:103E180008F00A0E096E000E0A6E000E0B6E000EF8
:103E28000C6E000E0D6E000E0E6E000E0F6E000E64
:103E3800106ED2EC29F001C034F002C035F003C096
:103E480036F004C037F005C038F006C039F007C0B6
:103E58003AF008C03BF03C503D10D8B436EF1FF0A4
:103E680038EF1FF069EF1FF0345035103610371057
:103E7800381039103A103B10D8A445EF1FF047EF1F
:103E88001FF0B9EF1EF031BE54EF1FF0315006E1BC
:103E98003004D8B052EF1FF054EF1FF0B9EF1EF006
:103EA80033BE5FEF1FF0335008E13204D8A05FEF54
:103EB8001FF061EF1FF069EF1FF00001B9B367EF62
:103EC8001FF069EF1FF0B9EF1EF01EC013F01FC0FE
:103ED80014F0890E3C24156E010E3D20166E32C07A
:103EE80017F033C018F036EC2DF013C01EF014C0D4
:103EF8001FF01200000E166E000E156E000E0F6EEB
:103F0800000E0E6E8AEF1FF0084A092A010E146E81
:103F180008C0F6FF09C0F7FF000EF86E0E0EF76432
:103F280003D00800F55005D0F6CFE9FFF7CFEAFF38
:103F3800EF50200AD8B4A3EF1FF0A5EF1FF0CDEF84
:103F48001FF0F70E0A6EFF0E0B6E08C0F6FF09C0D1
:103F5800F7FF000EF86E0E0EF76403D00800F55058
:103F680005D0F6CFE9FFF7CFEAFFEF500C6E0D6AE8
:103F78000A500C260B500D220D5009E1050E0C5C61
:103F8800D8A0C9EF1FF0CBEF1FF0CDEF1FF0000E48
:103F9800146E14C010F0116A10501110D8A4D7EF85
:103FA8001FF0D9EF1FF088EF1FF0E3EF1FF0000EAE
:103FB8000F6E010E0E6E084A092A30EF20F008C075
:103FC800F6FF09C0F7FF000EF86E0E0EF76403D077
:103FD8000800F55005D0F6CFE9FFF7CFEAFFEF501C
:103FE8000A6E0B6A0B50000AD8B4FDEF1FF030EFD1
:103FF80020F00A502B0AD8B4DFEF1FF0060AD8B415
:10400800DBEF1FF030EF20F015C001F016C002F012
:10401800000E046E0A0E036E17EC34F008C0F6FFAB
:1040280009C0F7FF000EF86E0E0EF76403D0080003
:10403800F55005D0F6CFE9FFF7CFEAFFEF500A6E4B
:104048000A50015E000E025A300E0124156E000E51
:104058000220166EDFEF1FF0D00E0A6EFF0E0B6EF9
:1040680008C0F6FF09C0F7FF000EF86E0E0EF764E1
:1040780003D00800F55005D0F6CFE9FFF7CFEAFFE7
:10408800EF500C6E0D6A0A500C260B500D220D5085
:104098000AE10A0E0C5CD8A054EF20F057EF20F08C
:1040A800010E58EF20F0000E126E136A1250131012
:1040B800D8A461EF20F063EF20F008EF20F00E5055
:1040C8000F10D8A46AEF20F06CEF20F07AEF20F000
:1040D80015C00AF016C00BF00A1E0B1E0A4A0B2A5E
:1040E8000AC008F00BC009F07EEF20F015C008F0F8
:1040F80016C009F012000001B8BF85EF20F087EF65
:1041080020F088EF20F0B993B8BF95EF20F0B851B0
:1041180006E1B705D8B093EF20F095EF20F09CEFBB
:1041280020F0000E0101136F010E126FA0EF20F0B6
:10413800B7C012F1B8C013F1B5C016F1B6C017F187
:1041480002C118F103C119F104C11AF105C11BF12B
:1041580006C11CF107C11DF108C11EF109C11FF1FB
:10416800000E0101216F1F0E206F000EA86F000EB8
:10417800156F000E146F07EF21F001012007D8A07A
:104188002107070E1815146F156B890E2025D96E97
:10419800010E2121DA6E1451300FDF6E1207D8A0FC
:1041A80013071607D8A0170718C10AF119C10BF190
:1041B8001AC10CF11BC10DF11CC10EF11DC10FF18B
:1041C8001EC110F11FC111F1040EF4EF20F0D890B8
:1041D800113310330F330E330D330C330B330A33D3
:1041E800E82EEBEF20F00AC118F10BC119F10CC150
:1041F8001AF10DC11BF10EC11CF10FC11DF110C147
:104208001EF111C11FF121BF12EF21F0215108E168
:104218002005D8A012EF21F014EF21F045EF21F08E
:10422800185119111A111B111C111D111E111F11E2
:10423800D8A421EF21F023EF21F0C1EF20F013BF24
:1042480030EF21F0135106E11205D8B02EEF21F01E
:1042580030EF21F0C1EF20F017BF3BEF21F01751ED
:1042680008E11605D8A03BEF21F03DEF21F045EF1E
:1042780021F00001B9B343EF21F045EF21F0C1EF80
:1042880020F00001B9A94BEF21F04DEF21F065EFC7
:1042980021F0010114511511D8B455EF21F057EF51
:1042A80021F065EF21F02007D8A02107890E2025ED
:1042B800D96E010E2121DA6E300EDF6E1607D8A0F6
:1042C800170700C1A1F001C1A2F0890E0101202544
:1042D8000001A36F010E010121210001A46F16C185
:1042E800A5F017C1A6F06CEC2CF0A1C000F1A2C09B
:1042F80001F112000001B8BF84EF21F086EF21F030
:1043080087EF21F0B993B8BF94EF21F0B85106E1D7
:10431800B705D8B092EF21F094EF21F09AEF21F091
:10432800000E316E010E306E9EEF21F0B7C030F0F6
:10433800B8C031F0B5C034F0B6C035F020C036F0A2
:1043480021C037F022C038F023C039F024C03AF039
:1043580025C03BF026C03CF027C03DF0000E3F6E64
:104368001F0E3E6E000E0101A86F000E336E000E88
:10437800326E04EF22F03E06D8A03F06070E361430
:10438800326E336A890E3E24D96E010E3F20DA6EF2
:104398003250300FDF6E3006D8A031063406D8A070
:1043A800350636C028F037C029F038C02AF039C0A1
:1043B8002BF03AC02CF03BC02DF03CC02EF03DC095
:1043C8002FF0040EF1EF21F0D8902F322E322D323B
:1043D8002C322B322A3229322832E82EE8EF21F00B
:1043E80028C036F029C037F02AC038F02BC039F081
:1043F8002CC03AF02DC03BF02EC03CF02FC03DF051
:104408003FBE0FEF22F03F5008E13E04D8A00FEF67
:1044180022F011EF22F042EF22F036503710381018
:1044280039103A103B103C103D10D8A41EEF22F072
:1044380020EF22F0BFEF21F031BE2DEF22F03150F6
:1044480006E13004D8B02BEF22F02DEF22F0BFEFB9
:1044580021F035BE38EF22F0355008E13404D8A0F9
:1044680038EF22F03AEF22F042EF22F00001B9B320
:1044780040EF22F042EF22F0BFEF21F00001B9A98E
:1044880048EF22F04AEF22F061EF22F03250331069
:10449800D8B451EF22F053EF22F061EF22F03E063C
:1044A800D8A03F06890E3E24D96E010E3F20DA6E51
:1044B800300EDF6E3406D8A035061EC013F01FC0BC
:1044C80014F0890E3E24156E010E3F20166E34C07E
:1044D80017F035C018F036EC2DF013C01EF014C0DC
:1044E8001FF0120020EECAF010EE9FF0060EDBCF90
:1044F800E3FFE806FCE29CC0AAF09DC0ABF0000117
:10450800AA51AB11D8A48BEF22F08DEF22F091EFD6
:1045180022F09F0EAA6F000EAB6FAAC08FF0ABC03F
:1045280090F093EC32F08FC0AEF090C0AFF0B7C00F
:10453800ACF0B8C0ADF00001ADBFA5EF22F0A7EF19
:1045480022F0BCEF22F0AE51AC5DAD51800A9E6FF7
:10455800AF51800A9E59D8A0B4EF22F0B6EF22F0EE
:10456800B8EF22F0BCEF22F0ACC0AEF0ADC0AFF0B7
:10457800AEC0ACF0AFC0ADF0B5C0A8F0B6C0A9F001
:10458800B9B1C9EF22F0CBEF22F0E9EF22F0DAEF70
:1045980022F0000E926F200E916F9AC093F09BC08C
:1045A80094F006EC2CF00001AE4BAF2BA851AE5D99
:1045B800AF51800A9E6FA951800A9E59D8A0E7EF93
:1045C80022F0E9EF22F0CDEF22F0000EA76F000EE7
:1045D800A66F03EF23F0AAC0D9FFABC0DAFFDF5004
:1045E8009E6F9E51916F926B9AC093F09BC094F00E
:1045F80006EC2CF00001AA4BAB2BA64BA72BAC5119
:10460800A65DA751800A9E6FAD51800A9E59D8A019
:1046180010EF23F012EF23F0EFEF22F0B9A117EF1C
:1046280023F019EF23F037EF23F028EF23F0000EE3
:10463800926F200E916F9AC093F09BC094F006EC95
:104648002CF00001AE4BAF2BA851AE5DAF51800AE4
:104658009E6FA951800A9E59D8A035EF23F037EFF5
:1046680023F01BEF23F0AEC09AF0AFC09BF012000E
:10467800000E0001A06F9EBF46EF23F044EF23F029
:1046880058EF23F09E1F9D1F9C1F9B1F9A1F991F69
:10469800981F976D000E982399239A239B239C2398
:1046A8009D239E23010EA06F96BF5FEF23F05DEF61
:1046B80023F071EF23F0961F951F941F931F921FED
:1046C800911F901F8F6D000E9023912392239323A7
:1046D800942395239623010EA01B20EEA1F0070E2C
:1046E800DE6AE806FDE29751981199119A119B111B
:1046F8009C119D119E11D8B484EF23F086EF23F00E
:10470800D8EF23F0010E9F6F94EF23F0D8909737DE
:10471800983799379A379B379C379D379E379F2B09
:104728009EAF99EF23F09BEF23F08AEF23F0D89008
:10473800A137A237A337A437A537A637A737A83795
:1047480097518F5D98519059995191599A51925911
:104758009B5193599C5194599D5195599E519659E5
:10476800D8A0B9EF23F0BBEF23F0CCEF23F097519B
:104778008F5F9851905B9951915B9A51925B9B51D5
:10478800935B9C51945B9D51955B9E51965BA18177
:10479800D8909E339D339C339B339A339933983307
:1047A80097339F2F9BEF23F0A051D8B4DEEF23F06F
:1047B800E0EF23F0F0EF23F0A81FA71FA61FA51F07
:1047C800A41FA31FA21FA16D000EA223A323A4232D
:1047D800A523A623A723A823A1C08FF0A2C090F0E9
:1047E800A3C091F0A4C092F0A5C093F0A6C094F025
:1047F800A7C095F0A8C096F01200000E126E10BE69
:104808000AEF24F008EF24F01CEF24F0101E0F1E0E
:104818000E1E0D1E0C1E0B1E0A1E096C000E0A220F
:104828000B220C220D220E220F221022010E126ED4
:1048380008BE23EF24F021EF24F035EF24F0081E02
:10484800071E061E051E041E031E021E016C000E16
:104858000222032204220522062207220822010E30
:10486800121A20EE13F0070EDE6AE806FDE2095080
:104878000A100B100C100D100E100F101010D8B4D9
:1048880048EF24F04AEF24F09CEF24F0010E116E5B
:1048980058EF24F0D89009360A360B360C360D3608
:1048A8000E360F361036112A10AE5DEF24F05FEF8A
:1048B80024F04EEF24F0D8901336143615361636F9
:1048C8001736183619361A360950015C0A5002583C
:1048D8000B5003580C5004580D5005580E500658EC
:1048E8000F50075810500858D8A07DEF24F07FEFDC
:1048F80024F090EF24F00950015E0A50025A0B5040
:10490800035A0C50045A0D50055A0E50065A0F50AF
:10491800075A1050085A1380D89010320F320E32AE
:104928000D320C320B320A320932112E5FEF24F0AD
:104938001250D8B4A2EF24F0A4EF24F0B4EF24F07E
:104948001A1E191E181E171E161E151E141E136C6D
:10495800000E1422152216221722182219221A22B2
:1049680013C001F014C002F015C003F016C004F023
:1049780017C005F018C006F019C007F01AC008F0F3
:10498800120020EECAF010EE11F0060EDBCFE3FFA6
:10499800E806FCE20EC01CF00FC01DF01C501D10F4
:1049A800D8A4D9EF24F0DBEF24F0DFEF24F0110EC8
:1049B8001C6E000E1D6E1CC001F01DC002F03DEC07
:1049C80033F001C020F002C021F0B7C01EF0B8C01B
:1049D8001FF01FBEF2EF24F0F4EF24F009EF25F0EA
:1049E80020501E5C1F50800A106E2150800A1058FB
:1049F800D8A001EF25F003EF25F005EF25F009EF2A
:104A080025F01EC020F01FC021F020C01EF021C0DC
:104A18001FF0B5C01AF0B6C01BF00001B9B117EF0E
:104A280025F019EF25F036EF25F027EF25F0000ED9
:104A3800046E200E036E0CC005F00DC006F0D1EC1C
:104A48002CF0204A212A1A50205C2150800A106E2E
:104A58001B50800A1058D8A034EF25F036EF25F007
:104A68001BEF25F0000E196E000E186E4FEF25F0A3
:104A78001CC0D9FF1DC0DAFFDF50106E1050036E46
:104A8800046A0CC005F00DC006F0D1EC2CF01C4AED
:104A98001D2A184A192A1E50185C1950800A106ECF
:104AA8001F50800A1058D8A05CEF25F05EEF25F063
:104AB8003CEF25F00001B9A164EF25F066EF25F081
:104AC80083EF25F074EF25F0000E046E200E036EC0
:104AD8000CC005F00DC006F0D1EC2CF0204A212ABC
:104AE8001A50205C2150800A106E1B50800A105802
:104AF800D8A081EF25F083EF25F068EF25F020C0DE
:104B08000CF021C00DF01200000E0001AB6F2CEF6D
:104B180026F0D8909C35F66E9D35F76E350EF62644
:104B2800F10EF722F86A000EF8220900F5CFA2F07C
:104B38000900F5CFA3F0AB51A25F000EA35B98511B
:104B4800A225946F9951A321956F9AC096F09BC0A6
:104B580097F0BBEC31F0000E0001AC6F000EAD6FAA
:104B6800AB51A26FA36BD890A237A337D8909C35CE
:104B7800F66E9D35F76E350EF626F10EF722F86AB9
:104B8800000EF8220900F5CFA4F00900F5CFA5F032
:104B9800D890A437A537A251A45FA351A55BAC5107
:104BA800A45F000EA55B9C51A4279D51A523D89016
:104BB800A437A537350EA425F66EF10EA521F76E9C
:104BC800F86A000EF8220900F5CFA6F00900F5CF23
:104BD800A7F0ADC0A8F0800EA96F000EAA6FA82B91
:104BE800F9EF25F0AA35AA33A933A82FF6EF25F057
:104BF8000001A651A917A751AA17A951AA11D8B4FB
:104C080008EF26F00AEF26F012EF26F09EC092F089
:104C18009FC093F071EC34F018EF26F0A0C092F02A
:104C2800A1C093F071EC34F00001AD2B070EAD6517
:104C380020EF26F022EF26F0B4EF25F0AC2B010E82
:104C4800AC6529EF26F02BEF26F0B2EF25F0AB2B61
:104C5800D8909C35F66E9D35F76E350EF626F10E1A
:104C6800F722F86A000EF822AB51A26FA36B090075
:104C7800F550A25D0900F550A359D8A046EF26F0DB
:104C880048EF26F08DEF25F01200000E0001A06F0E
:104C980096BF53EF26F051EF26F065EF26F0961FEA
:104CA800951F941F931F921F911F901F8F6D000EC9
:104CB8009023912392239323942395239623010EE3
:104CC800A06F9EBF6CEF26F06AEF26F07CEF26F00F
:104CD8009E1F9D1F9C1F9B1F9A1F991F981F976DB2
:104CE800000E982399239A239B239C239D239E237C
:104CF8009751981199119A119B119C119D119E1110
:104D0800D8B489EF26F08BEF26F0D3EF26F0010E0A
:104D18009F6F99EF26F0D8909737983799379A3739
:104D28009B379C379D379E379F2B9EAF9EEF26F073
:104D3800A0EF26F08FEF26F097518F5D985190598C
:104D4800995191599A5192599B5193599C519459FF
:104D58009D5195599E519659D8A0B5EF26F0B7EFB9
:104D680026F0C7EF26F097518F5F9851905B9951C5
:104D7800915B9A51925B9B51935B9C51945B9D51C3
:104D8800955B9E51965BD8909E339D339C339B33A5
:104D98009A339933983397339F2FA0EF26F0A05179
:104DA800D8B4D9EF26F0DBEF26F0EBEF26F0961F0C
:104DB800951F941F931F921F911F901F8F6D000EB8
:104DC80090239123922393239423952396238FC092
:104DD8008FF090C090F091C091F092C092F093C083
:104DE80093F094C094F095C095F096C096F0120098
:104DF800000E126E08BE05EF27F003EF27F017EF3D
:104E080027F0081E071E061E051E041E031E021E8E
:104E1800016C000E02220322042205220622072228
:104E28000822010E126E10BE1EEF27F01CEF27F0AD
:104E38002EEF27F0101E0F1E0E1E0D1E0C1E0B1E31
:104E48000A1E096C000E0A220B220C220D220E22C9
:104E58000F22102209500A100B100C100D100E1002
:104E68000F101010D8B43BEF27F03DEF27F085EF77
:104E780027F0010E116E4BEF27F0D89009360A364D
:104E88000B360C360D360E360F361036112A10AE8C
:104E980050EF27F052EF27F041EF27F00950015C5F
:104EA8000A5002580B5003580C5004580D5005581E
:104EB8000E5006580F50075810500858D8A067EFE2
:104EC80027F069EF27F079EF27F00950015E0A50C3
:104ED800025A0B50035A0C50045A0D50055A0E50E2
:104EE800065A0F50075A1050085AD89010320F32ED
:104EF8000E320D320C320B320A320932112E52EFB9
:104F080027F01250D8B48BEF27F08DEF27F09DEFE4
:104F180027F0081E071E061E051E041E031E021E7D
:104F2800016C000E02220322042205220622072217
:104F3800082201C001F002C002F003C003F004C05F
:104F480004F005C005F006C006F007C007F008C069
:104F580008F0120030EF28F0000E0101116F000E6A
:104F6800106F000E0F6F000E0E6FDAEF27F0D8905B
:104F78001035F66E1135F76E350EF626F10EF7225E
:104F8800F86A000EF8220900F5CF0AF10900F5CFFA
:104F98000BF1D8900A370B37010E0A27000E0B23A6
:104FA8000A5110270B5111230E4B0F2BE00E0A6FDD
:104FB800FF0E0B6F04C1F6FF05C1F7FF000EF86E78
:104FC8000E0EF76403D00800F55005D0F6CFE9FFC0
:104FD800F7CFEAFFEF5001010C6F0D6B0A510C2758
:104FE8000B510D230C510E5D0D510F59D8A0FFEF39
:104FF80027F001EF28F0BBEF27F000C198F001C1BE
:1050080099F002C19AF003C19BF010C19CF011C144
:105018009DF006C19EF007C19FF008C1A0F009C12C
:10502800A1F088EC25F0D89001011035F66E113505
:10503800F76E350EF626F10EF722F86A000EF82202
:105048000900F5CF0AF10900F5CF0BF10A51002745
:105058000B510123044B052B04C1F6FF05C1F7FFD3
:10506800000EF86E0E0EF76403D00800F55005D058
:10507800F6CFE9FFF7CFEAFFEF500009D8A447EFD2
:1050880028F049EF28F0B0EF27F01200800E010158
:10509800575DD8A052EF28F054EF28F05CEF28F0C5
:1050A800000E7E6F4B0E7D6F54695569D1EF28F065
:1050B80054C164F155C165F1575109E1020E565DBD
:1050C800D8A069EF28F06BEF28F077EF28F0FF0EF3
:1050D8005625686FFF0E5721696F000E676F000E27
:1050E800666F7FEF28F0000E696F010E686F000E83
:1050F800676F010E666F640E4C6F010E4D6F58C1DD
:105108004EF159C14FF15AC150F15BC151F101EC57
:105118002FF04CC162F14DC163F101015651571195
:10512800D8B499EF28F09BEF28F0CDEF28F063BFB3
:10513800A0EF28F0A2EF28F0CDEF28F0FF0E5C6F6B
:10514800FF0E5D6F56C15EF157C15FF15C515E277E
:105158005D515F235E51625D5F516359D8A0B7EF1F
:1051680028F0B9EF28F0C1EF28F0FF0E5625606F40
:10517800FF0E5721616FC5EF28F062C160F163C16E
:1051880061F160515425D96E61515521DA6E000ED6
:10519800DF6E62C154F163C155F11200000E0001C7
:1051A800A46FA2BFDCEF28F0DAEF28F0E6EF28F0D2
:1051B800A21FA11FA01F9F6D000EA023A123A22341
:1051C800010EA46F9EBFEDEF28F0EBEF28F0F7EF8C
:1051D80028F09E1F9D1F9C1F9B6D000E9C239D23E6
:1051E8009E23010EA41B000EA56F000EA66F000ED5
:1051F800A76F000EA86F9F51A011A111A211D8B4DA
:1052080008EF29F00AEF29F040EF29F0010EA36F0B
:1052180014EF29F0D8909F37A037A137A237A32BD6
:10522800A2AF19EF29F01BEF29F00EEF29F0D89063
:10523800A537A637A737A8379F519B5DA0519C5922
:10524800A1519D59A2519E59D8A02DEF29F02FEFB9
:1052580029F038EF29F09F519B5FA0519C5BA15129
:105268009D5BA2519E5BA581D890A233A133A03348
:105278009F33A32F1BEF29F0A451D8B446EF29F090
:1052880048EF29F050EF29F0A81FA71FA61FA56D0A
:10529800000EA623A723A823A5C09BF0A6C09CF0B8
:1052A800A7C09DF0A8C09EF0120020EE9FF0070E48
:1052B800DE6AE806FDE200019751981199119A11EA
:1052C8009B119C119D119E11D8B46DEF29F06FEFC1
:1052D80029F0C1EF29F0010EA76F7DEF29F0D890D2
:1052E8009737983799379A379B379C379D379E372A
:1052F800A72B9EAF82EF29F084EF29F073EF29F0F6
:10530800D8909F37A037A137A237A337A437A5373E
:10531800A63797518F5D98519059995191599A5143
:1053280092599B5193599C5194599D5195599E510D
:105338009659D8A0A2EF29F0A4EF29F0B5EF29F0EB
:1053480097518F5F9851905B9951915B9A51925BFD
:105358009B51935B9C51945B9D51955B9E51965BD1
:105368009F81D8909E339D339C339B339A339933D6
:1053780098339733A72F84EF29F09FC08FF0A0C0F0
:1053880090F0A1C091F0A2C092F0A3C093F0A4C085
:1053980094F0A5C095F0A6C096F0120020EE11F08A
:1053A800070EDE6AE806FDE209500A100B100C1021
:1053B8000D100E100F101010D8B4E5EF29F0E7EF1C
:1053C80029F039EF2AF0010E196EF5EF29F0D8907F
:1053D80009360A360B360C360D360E360F361036B1
:1053E800192A10AEFAEF29F0FCEF29F0EBEF29F0BB
:1053F800D890113612361336143615361636173637
:1054080018360950015C0A5002580B5003580C50CA
:1054180004580D5005580E5006580F500758105094
:105428000858D8A01AEF2AF01CEF2AF02DEF2AF01E
:105438000950015E0A50025A0B50035A0C50045A84
:105448000D50055A0E50065A0F50075A1050085A58
:105458001180D89010320F320E320D320C320B32CE
:105468000A320932192EFCEF29F011C001F012C0DE
:1054780002F013C003F014C004F015C005F016C004
:1054880006F017C007F018C008F012008FC096F099
:1054980090C097F091C098F092C099F000019307DE
:1054A800D8A09407932906E19429D8A45EEF2AF09E
:1054B80060EF2AF06DEF2AF0000E906F000E8F6FEC
:1054C800BFEF2AF0964B972B984B992B9307D8A0B0
:1054D800940796C0F6FF97C0F7FFF86A0800F550E2
:1054E8000009D8B47AEF2AF07CEF2AF0ABEF2AF063
:1054F80098C0F6FF99C0F7FFF86A0800F550000950
:10550800D8B489EF2AF08BEF2AF0ABEF2AF0935149
:105518009411D8B492EF2AF094EF2AF0ABEF2AF066
:1055280096C0F6FF97C0F7FFF86A0800F5CF95F028
:1055380098C0F6FF99C0F7FFF86A0800F55095196A
:10554800D8B4A9EF2AF0ABEF2AF066EF2AF096C09C
:10555800F6FF97C0F7FFF86A0800F5CF95F098C0F6
:10556800F6FF99C0F7FFF86A0800F550955D8F6F50
:10557800906BD8A09007120001C008F002C009F093
:1055880003C00AF004C00BF00506D8A006060528DB
:1055980006E10628D8A4D3EF2AF0D5EF2AF0E2EFE7
:1055A8002AF0000E026E000E016E34EF2BF0084A4E
:1055B800092A0A4A0B2A0506D8A0060608C0F6FFDB
:1055C80009C0F7FFF86A0800F5500009D8B4EFEFF2
:1055D8002AF0F1EF2AF020EF2BF00AC0F6FF0BC0FB
:1055E800F7FFF86A0800F5500009D8B4FEEF2AF072
:1055F80000EF2BF020EF2BF005500610D8B407EF82
:105608002BF009EF2BF020EF2BF008C0F6FF09C0B4
:10561800F7FFF86A0800F5CF07F00AC0F6FF0BC0DD
:10562800F7FFF86A0800F5500718D8B41EEF2BF0FA
:1056380020EF2BF0DBEF2AF008C0F6FF09C0F7FFD8
:10564800F86A0800F5CF07F00AC0F6FF0BC0F7FFAD
:10565800F86A0800F550075C016E026AD8A00206D5
:10566800120000019751981199119A119B119C11E0
:105678009D119E11D8B443EF2BF045EF2BF08DEF21
:105688002BF0010E9F6F53EF2BF0D8909737983778
:1056980099379A379B379C379D379E379F2B9EAFFC
:1056A80058EF2BF05AEF2BF049EF2BF097518F5D05
:1056B80098519059995191599A5192599B5193598E
:1056C8009C5194599D5195599E519659D8A06FEF68
:1056D8002BF071EF2BF081EF2BF097518F5F9851E2
:1056E800905B9951915B9A51925B9B51935B9C5152
:1056F800945B9D51955B9E51965BD8909E339D33EC
:105708009C339B339A339933983397339F2F5AEFAF
:105718002BF08FC08FF090C090F091C091F092C0A4
:1057280092F093C093F094C094F095C095F096C011
:1057380096F0120009500A100B100C100D100E10E4
:105748000F101010D8B4ABEF2BF0ADEF2BF0F5EF36
:105758002BF0010E116EBBEF2BF0D89009360A36EC
:105768000B360C360D360E360F361036112A10AEA3
:10577800C0EF2BF0C2EF2BF0B1EF2BF00950015C1A
:105788000A5002580B5003580C5004580D50055835
:105798000E5006580F50075810500858D8A0D7EF89
:1057A8002BF0D9EF2BF0E9EF2BF00950015E0A50EE
:1057B800025A0B50035A0C50045A0D50055A0E50F9
:1057C800065A0F50075A1050085AD89010320F3204
:1057D8000E320D320C320B320A320932112EC2EF60
:1057E8002BF001C001F002C002F003C003F004C0B6
:1057F80004F005C005F006C006F007C007F008C0B1
:1058080008F01200000193519411D8B40EEF2CF057
:1058180010EF2CF019EF2CF093519411D8A417EF36
:105828002CF019EF2CF01EEF2CF09151BBEC34F05A
:105838006BEF2CF020EE04F09351D9269451DA2224
:10584800DE50DE10D8B42BEF2CF02DEF2CF048EF03
:105858002CF020EE04F09351D9269451DA2210EE60
:1058680002F09351E1269451E222DE50E65CE650C4
:10587800800A996FDE50800A9959D8B046EF2CF00B
:1058880048EF2CF06BEF2CF020EE02F09351D92664
:105898009451DA22DECF95F0DDCF96F093C0D9FF90
:1058A80094C0DAFFDECF97F0DDCF98F095519725B9
:1058B800D96E96519821DA6E91C0DFFF20EE02F082
:1058C8009351D9269451DA22DE2A000EDD221200E5
:1058D8000001B9A172EF2CF074EF2CF07EEF2CF0E0
:1058E800A3C09AF0A4C09BF0A1C09CF0A2C09DF0F8
:1058F800EAEC30F00001A6BF84EF2CF086EF2CF024
:105908008CEF2CF0A5C0AAF0A6C0ABF090EF2CF05D
:10591800000EAB6F000EAA6F000EA96F000EA86FE5
:10592800A3EF2CF0000E926F200E916FA1C093F0A0
:10593800A2C094F006EC2CF00001A84BA92BAA51A8
:10594800A85DA951800AA76FAB51800AA759D8A0B2
:10595800B0EF2CF0B2EF2CF096EF2CF0B9B1B7EF16
:105968002CF0B9EF2CF0C3EF2CF0A3C09AF0A4C030
:105978009BF0A1C09CF0A2C09DF0EAEC30F0A3C05F
:105988008FF0A4C090F093EC32F00001AA518F255B
:10599800A16FAB519021A26F120005500610D8B428
:1059A800D8EF2CF0DAEF2CF0E3EF2CF005500610CE
:1059B800D8A4E1EF2CF0E3EF2CF0E8EF2CF0035043
:1059C800DCEC34F035EF2DF020EE04F00550D9264C
:1059D8000650DA22DE50DE10D8B4F5EF2CF0F7EFDF
:1059E8002CF012EF2DF020EE04F00550D9260650C9
:1059F800DA2210EE02F00550E1260650E222DE50CF
:105A0800E65CE650800A0B6EDE50800A0B58D8B070
:105A180010EF2DF012EF2DF035EF2DF020EE02F003
:105A28000550D9260650DA22DECF07F0DDCF08F080
:105A380005C0D9FF06C0DAFFDECF09F0DDCF0AF0D6
:105A480007500924D96E08500A20DA6E03C0DFFF18
:105A580020EE02F00550D9260650DA22DE2A000E82
:105A6800DD2212000001B9A13CEF2DF03EEF2DF030
:105A780048EF2DF015C00CF016C00DF013C00EF055
:105A880014C00FF078EC31F018BE4DEF2DF04FEF49
:105A98002DF055EF2DF017C01CF018C01DF059EF70
:105AA8002DF0000E1D6E000E1C6E000E1B6E000EFB
:105AB8001A6E6BEF2DF0000E046E200E036E13C0ED
:105AC80005F014C006F0D1EC2CF01A4A1B2A1C5021
