:020000040000FA
:0400000047EF00F0D6
:100008005F82FACF81F0FBCF82F0E1CF83F0E2CFBD
:1000180084F0D9CF85F0DACF86F0F3CF87F0F4CF2C
:1000280088F0F6CF89F0F7CF8AF0F8CF8BF0F5CFCC
:100038008CF0F2A622EF00F024EF00F02DEF00F094
:10004800F2A029EF00F02BEF00F02DEF00F002EC0A
:1000580034F08CC0F5FF8BC0F8FF8AC0F7FF89C069
:10006800F6FF88C0F4FF87C0F3FF86C0DAFF85C0BB
:10007800D9FF84C0E2FF83C0E1FF82C0FBFF81C0DB
:10008800FAFF5F92110074EF2EF01EC1D9FF1FC155
:10009800DAFFDECFF6FFDDCFF7FFF86A0800F5508C
:1000A800250AD8A45AEF00F05CEF00F08BEF09F0B6
:1000B8001EC1D9FF1FC1DAFFDE2A000EDD22000EA5
:1000C8000001BA6F000EB96FB9C0BDF0BAC0BEF07A
:1000D800BB69BC69000E0101296F000E286FC1EFD2
:1000E80000F00001BD811EC1D9FF1FC1DAFFDE2A61
:1000F800000EDD22C1EF00F00001BD8377EF00F0B4
:100108000001BD8577EF00F00001BD8777EF00F0B3
:100118000001BD8977EF00F0000E296F010E286FEE
:10012800C1EF00F01EC1D9FF1FC1DAFFDECFF6FF15
:10013800DDCFF7FFF86A0800F550226F236B2351D3
:10014800000AD8B4AAEF00F090EF00F02251200A7C
:10015800D8B488EF00F0030AD8B48CEF00F0080A8E
:10016800D8B484EF00F0060AD8B475EF00F01D0A81
:10017800D8B480EF00F090EF00F001012851291168
:10018800D8B4C9EF00F0CBEF00F096EF00F0000113
:10019800BDA1D1EF00F0D3EF00F0D4EF00F0BD9394
:1001A8001EC1D9FF1FC1DAFFDECFF6FFDDCFF7FF93
:1001B800F86A0800F5502A0AD8A4E5EF00F0E7EF3E
:1001C80000F010EF01F01EC1D9FF1FC1DAFFDE2ACF
:1001D800000EDD2220C1D9FF21C1DAFFDFCF22F1D5
:1001E800020EDE26DFCF23F1000EDD2222C1D9FF69
:1001F80023C1DAFFDECFB9F0DDCFBAF0BABF09EF1D
:1002080001F007EF01F055EF01F0BD81B96DBA1F9C
:10021800D8B0BA2B55EF01F01EC1D9FF1FC1DAFFC4
:10022800DECF94F0DDCF95F01AEC1DF094C0B9F054
:1002380095C0BAF027EF01F01EC1D9FF1FC1DAFF40
:10024800DE2A000EDD22D00E0101226FFF0E236F81
:100258001EC1D9FF1FC1DAFFDECFF6FFDDCFF7FFE2
:10026800F86A0800F550246F256B22512427235182
:10027800252325510AE10A0E245DD8A046EF01F096
:1002880049EF01F0010E4AEF01F0000E2A6F2B6BC7
:100298002A512B11D8A453EF01F055EF01F020EFAC
:1002A80001F01EC1D9FF1FC1DAFFDECFF6FFDDCF97
:1002B800F7FFF86A0800F5502E0AD8A466EF01F097
:1002C80068EF01F0E9EF01F0000E0001BC6F000ECD
:1002D800BB6F1EC1D9FF1FC1DAFFDE2A000EDD2267
:1002E8001EC1D9FF1FC1DAFFDECFF6FFDDCFF7FF52
:1002F800F86A0800F5502A0AD8A485EF01F087EFBC
:1003080001F0A4EF01F01EC1D9FF1FC1DAFFDE2AF8
:10031800000EDD2220C1D9FF21C1DAFFDFCF22F193
:10032800020EDE26DFCF23F1000EDD2222C1D9FF27
:1003380023C1DAFFDECFBBF0DDCFBCF0E9EF01F07F
:100348001EC1D9FF1FC1DAFFDECF94F0DDCF95F0D3
:100358001AEC1DF094C0BBF095C0BCF0BBEF01F0E7
:100368001EC1D9FF1FC1DAFFDE2A000EDD22D00E22
:100378000101226FFF0E236F1EC1D9FF1FC1DAFFD3
:10038800DECFF6FFDDCFF7FFF86A0800F550246FDF
:10039800256B225124272351252325510AE10A0ED2
:1003A800245DD8A0DAEF01F0DDEF01F0010EDEEFF9
:1003B80001F0000E2C6F2D6B2C512D11D8A4E7EFF6
:1003C80001F0E9EF01F0B4EF01F01EC1D9FF1FC140
:1003D800DAFFDECFF6FFDDCFF7FFF86A0800F55049
:1003E800630AD8A4FAEF01F0FCEF01F024EF02F061
:1003F8001EC1D9FF1FC1DAFFDE2A000EDD2220C18F
:10040800D9FF21C1DAFFDFCF22F1020EDE26DFCFCE
:1004180023F1000EDD2222C1D9FF23C1DAFFDF500C
:100428000101386F1CC1AAF01DC1ABF038C1ACF096
:100438003BEC2FF0AAC01CF1ABC01DF1A8EF09F0EE
:100448001EC1D9FF1FC1DAFFDECF8DF0DDCF8EF0E0
:10045800D10E00018F6FFF0E906F000E926F030E8A
:10046800916FF3EC29F000018D518E11D8B43FEF54
:1004780002F041EF02F05DEF02F01EC1D9FF1FC18B
:10048800DAFFDECF8DF0DDCF8EF0D50E8F6FFF0E49
:10049800906F000E926F030E916FF3EC29F000013C
:1004A8008D518E11D8A45BEF02F05DEF02F09EEF44
:1004B80002F0030E1EC1D9FF1FC1DAFFDE26000EAF
:1004C800DD2220C1D9FF21C1DAFFDFCF22F1020EE0
:1004D800DE26DFCF23F1000EDD2222C1D9FF23C1A2
:1004E800DAFFDF5001012E6F000E2EBFFF0E2F6FB7
:1004F800306F316F326F336F346F356F1CC1AAF0B4
:100508001DC1ABF02EC1ACF02FC1ADF030C1AEF0C3
:1005180031C1AFF032C1B0F033C1B1F034C1B2F083
:1005280035C1B3F000EC15F0AAC01CF1ABC01DF149
:10053800A8EF09F01EC1D9FF1FC1DAFFDECF8DF089
:10054800DDCF8EF0D20E8F6FFF0E906F000E926F80
:10055800020E916FF3EC29F000018D518E11D8B481
:10056800B8EF02F0BAEF02F0D6EF02F01EC1D9FFE1
:100578001FC1DAFFDECF8DF0DDCF8EF0D60E8F6F84
:10058800FF0E906F000E926F020E916FF3EC29F040
:1005980000018D518E11D8A4D4EF02F0D6EF02F0ED
:1005A800FEEF02F0020E1EC1D9FF1FC1DAFFDE26E0
:1005B800000EDD2220C1D9FF21C1DAFFDFCF22F1F1
:1005C800020EDE26DFCF23F1000EDD2222C1D9FF85
:1005D80023C1DAFFDECF2EF1DDCF2FF10101000EAE
:1005E8002FBFFF0E306F316F326F336F346F356F3F
:1005F80082EF02F01EC1D9FF1FC1DAFFDECFF6FF7E
:10060800DDCFF7FFF86A0800F550640AD8B40FEF99
:1006180003F011EF03F024EF03F01EC1D9FF1FC14F
:10062800DAFFDECFF6FFDDCFF7FFF86A0800F550F6
:10063800690AD8A422EF03F024EF03F04BEF03F08C
:100648001EC1D9FF1FC1DAFFDE2A000EDD2220C13C
:10065800D9FF21C1DAFFDFCF22F1020EDE26DFCF7C
:1006680023F1000EDD2222C1D9FF23C1DAFFDECF3C
:100678002EF1DDCF2FF10101000E2FBFFF0E306FDD
:10068800316F326F336F346F356F82EF02F01EC1F6
:10069800D9FF1FC1DAFFDECF8DF0DDCF8EF0EC0E73
:1006A8008F6FFF0E906F000E926F020E916FF3EC3A
:1006B80029F000018D518E11D8B465EF03F067EF72
:1006C80003F083EF03F01EC1D9FF1FC1DAFFDECFAD
:1006D8008DF0DDCF8EF0EF0E8F6FFF0E906F000E56
:1006E800926F020E916FF3EC29F000018D518E117B
:1006F800D8A481EF03F083EF03F0ACEF03F0020E10
:100708001EC1D9FF1FC1DAFFDE26000EDD2220C17F
:10071800D9FF21C1DAFFDFCF22F1020EDE26DFCFBB
:1007280023F1000EDD2222C1D9FF23C1DAFFDECF7B
:1007380024F1DDCF25F124C12EF125C12FF10101CE
:10074800306B316B326B336B346B356B82EF02F08D
:100758001EC1D9FF1FC1DAFFDECF8DF0DDCF8EF0CD
:10076800DD0E8F6FFF0E906F000E926F030E916F6C
:10077800F3EC29F000018D518E11D8A4C6EF03F0D7
:10078800C8EF03F008EF04F0030E1EC1D9FF1FC124
:10079800DAFFDE26000EDD2220C1D9FF21C1DAFFF3
:1007A800DFCF22F1020EDE26DFCF23F1000EDD229D
:1007B80022C1D9FF23C1DAFFDF500101246F245180
:1007C800396F3A6B3B6B3C6B3D6B3E6B3F6B406BE1
:1007D8001CC1AAF01DC1ABF039C1ACF03AC1ADF0F3
:1007E8003BC1AEF03CC1AFF03DC1B0F03EC1B1F08D
:1007F8003FC1B2F040C1B3F025EC20F0AAC01CF113
:10080800ABC01DF1A8EF09F01EC1D9FF1FC1DAFF67
:10081800DECF8DF0DDCF8EF0DE0E8F6FFF0E906F86
:10082800000E926F020E916FF3EC29F000018D51CA
:100838008E11D8A422EF04F024EF04F04DEF04F059
:10084800020E1EC1D9FF1FC1DAFFDE26000EDD220F
:1008580020C1D9FF21C1DAFFDFCF22F1020EDE2647
:10086800DFCF23F1000EDD2222C1D9FF23C1DAFF39
:10087800DECF24F1DDCF25F124C139F125C13AF1CC
:1008880001013B6B3C6B3D6B3E6B3F6B406BECEF90
:1008980003F01EC1D9FF1FC1DAFFDECFF6FFDDCF9F
:1008A800F7FFF86A0800F5506F0AD8A45EEF04F065
:1008B80060EF04F088EF04F01EC1D9FF1FC1DAFF12
:1008C800DE2A000EDD2220C1D9FF21C1DAFFDFCFE9
:1008D80022F1020EDE26DFCF23F1000EDD2222C137
:1008E800D9FF23C1DAFFDECF24F1DDCF25F124C102
:1008F80039F125C13AF101013B6B3C6B3D6B3E6B15
:100908003F6B406BECEF03F01EC1D9FF1FC1DAFF4C
:10091800DECF8DF0DDCF8EF0F50E8F6FFF0E906F6E
:10092800000E926F020E916FF3EC29F000018D51C9
:100938008E11D8A4A2EF04F0A4EF04F0CDEF04F0D8
:10094800020E1EC1D9FF1FC1DAFFDE26000EDD220E
:1009580020C1D9FF21C1DAFFDFCF22F1020EDE2646
:10096800DFCF23F1000EDD2222C1D9FF23C1DAFF38
:10097800DECF24F1DDCF25F124C139F125C13AF1CB
:1009880001013B6B3C6B3D6B3E6B3F6B406BECEF8F
:1009980003F01EC1D9FF1FC1DAFFDECF8DF0DDCF16
:1009A8008EF0D90E8F6FFF0E906F000E926F030EB0
:1009B800916FF3EC29F000018D518E11D8A4E7EF67
:1009C80004F0E9EF04F012EF05F0030E1EC1D9FFA1
:1009D8001FC1DAFFDE26000EDD2220C1D9FF21C1AA
:1009E800DAFFDFCF22F1020EDE26DFCF23F1000E81
:1009F800DD2222C1D9FF23C1DAFFDECF36F1DDCFF8
:100A080037F136C1D9FF37C1DAFF74C1DFFF000EF5
:100A180001011D6F000E1C6FA8EF09F01EC1D9FF60
:100A28001FC1DAFFDECF8DF0DDCF8EF0DA0E8F6FCB
:100A3800FF0E906F000E926F020E916FF3EC29F08B
:100A480000018D518E11D8A42CEF05F02EEF05F082
:100A580054EF05F0020E1EC1D9FF1FC1DAFFDE26D2
:100A6800000EDD2220C1D9FF21C1DAFFDFCF22F13C
:100A7800020EDE26DFCF23F1000EDD2222C1D9FFD0
:100A880023C1DAFFDECF36F1DDCF37F136C1D9FF2A
:100A980037C1DAFF74C1DEFF75C1DDFF0BEF05F06A
:100AA8001EC1D9FF1FC1DAFFDECFF6FFDDCFF7FF8A
:100AB800F86A0800F5506E0AD8A465EF05F067EFEC
:100AC80005F08CEF05F01EC1D9FF1FC1DAFFDE2A41
:100AD800000EDD2220C1D9FF21C1DAFFDFCF22F1CC
:100AE800020EDE26DFCF23F1000EDD2222C1D9FF60
:100AF80023C1DAFFDECF36F1DDCF37F136C1D9FFBA
:100B080037C1DAFF74C1DEFF75C1DDFF0BEF05F0F9
:100B18001EC1D9FF1FC1DAFFDECF8DF0DDCF8EF009
:100B2800F20E8F6FFF0E906F000E926F020E916F94
:100B3800F3EC29F000018D518E11D8A4A6EF05F031
:100B4800A8EF05F0CEEF05F0020E1EC1D9FF1FC1B8
:100B5800DAFFDE26000EDD2220C1D9FF21C1DAFF2F
:100B6800DFCF22F1020EDE26DFCF23F1000EDD22D9
:100B780022C1D9FF23C1DAFFDECF36F1DDCF37F14D
:100B880036C1D9FF37C1DAFF74C1DEFF75C1DDFF99
:100B98000BEF05F01EC1D9FF1FC1DAFFDECFF6FF4C
:100BA800DDCFF7FFF86A0800F550700AD8A4DFEF28
:100BB80005F0E1EF05F026EF06F01EC1D9FF1FC1D1
:100BC800DAFFDE2A000EDD2220C1D9FF21C1DAFFBB
:100BD800DFCF22F1020EDE26DFCF23F1000EDD2269
:100BE80022C1D9FF23C1DAFFDECF24F1DDCF25F101
:100BF80024C139F125C13AF101013B6B3C6B3D6BD6
:100C08003E6B3F6B406B1CC1AAF01DC1ABF039C1F4
:100C1800ACF03AC1ADF03BC1AEF03CC1AFF03DC164
:100C2800B0F03EC1B1F03FC1B2F040C1B3F0780EB0
:100C38000001B46F83EC16F0AAC01CF1ABC01DF123
:100C4800A8EF09F01EC1D9FF1FC1DAFFDECFF6FFFA
:100C5800DDCFF7FFF86A0800F550730AD8A437EF1C
:100C680006F039EF06F064EF06F01EC1D9FF1FC188
:100C7800DAFFDE2A000EDD2220C1D9FF21C1DAFF0A
:100C8800DFCF22F1020EDE26DFCF23F1000EDD22B8
:100C980022C1D9FF23C1DAFFDECF26F1DDCF27F14C
:100CA8001CC198F01DC199F026C19AF027C19BF08C
:100CB8001CEC22F098C01CF199C01DF1A8EF09F0B6
:100CC8001EC1D9FF1FC1DAFFDECF8DF0DDCF8EF058
:100CD800E10E8F6FFF0E906F000E926F030E916FF3
:100CE800F3EC29F000018D518E11D8A47EEF06F0A7
:100CF80080EF06F0C0EF06F0030E1EC1D9FF1FC13A
:100D0800DAFFDE26000EDD2220C1D9FF21C1DAFF7D
:100D1800DFCF22F1020EDE26DFCF23F1000EDD2227
:100D280022C1D9FF23C1DAFFDF500101246F24510A
:100D3800396F3A6B3B6B3C6B3D6B3E6B3F6B406B6B
:100D48001CC1AAF01DC1ABF039C1ACF03AC1ADF07D
:100D58003BC1AEF03CC1AFF03DC1B0F03EC1B1F017
:100D68003FC1B2F040C1B3F00EEC1CF0AAC01CF1B8
:100D7800ABC01DF1A8EF09F01EC1D9FF1FC1DAFFF2
:100D8800DECF8DF0DDCF8EF0E20E8F6FFF0E906F0D
:100D9800000E926F020E916FF3EC29F000018D5155
:100DA8008E11D8A4DAEF06F0DCEF06F005EF07F0B5
:100DB800020E1EC1D9FF1FC1DAFFDE26000EDD229A
:100DC80020C1D9FF21C1DAFFDFCF22F1020EDE26D2
:100DD800DFCF23F1000EDD2222C1D9FF23C1DAFFC4
:100DE800DECF24F1DDCF25F124C139F125C13AF157
:100DF80001013B6B3C6B3D6B3E6B3F6B406BA4EF63
:100E080006F01EC1D9FF1FC1DAFFDECFF6FFDDCF26
:100E1800F7FFF86A0800F550750AD8A416EF07F02E
:100E280018EF07F040EF07F01EC1D9FF1FC1DAFF26
:100E3800DE2A000EDD2220C1D9FF21C1DAFFDFCF73
:100E480022F1020EDE26DFCF23F1000EDD2222C1C1
:100E5800D9FF23C1DAFFDECF24F1DDCF25F124C18C
:100E680039F125C13AF101013B6B3C6B3D6B3E6B9F
:100E78003F6B406BA4EF06F01EC1D9FF1FC1DAFF1C
:100E8800DECF8DF0DDCF8EF0F80E8F6FFF0E906FF6
:100E9800000E926F020E916FF3EC29F000018D5154
:100EA8008E11D8A45AEF07F05CEF07F085EF07F032
:100EB800020E1EC1D9FF1FC1DAFFDE26000EDD2299
:100EC80020C1D9FF21C1DAFFDFCF22F1020EDE26D1
:100ED800DFCF23F1000EDD2222C1D9FF23C1DAFFC3
:100EE800DECF24F1DDCF25F124C139F125C13AF156
:100EF80001013B6B3C6B3D6B3E6B3F6B406BA4EF62
:100F080006F01EC1D9FF1FC1DAFFDECF8DF0DDCF9D
:100F18008EF0E50E8F6FFF0E906F000E926F030E2E
:100F2800916FF3EC29F000018D518E11D8B49FEF29
:100F380007F0A1EF07F0BDEF07F01EC1D9FF1FC1F1
:100F4800DAFFDECF8DF0DDCF8EF0CD0E8F6FFF0E86
:100F5800906F000E926F030E916FF3EC29F0000171
:100F68008D518E11D8A4BBEF07F0BDEF07F013EF3A
:100F780008F01EC1D9FF1FC1DAFFDECF22F1DDCF95
:100F880023F1020E01012227000E232322C1F6FFBE
:100F980023C1F7FFF86A0800F5CF38F1030E1EC128
:100FA800D9FF1FC1DAFFDE26000EDD2220C1D9FFDE
:100FB80021C1DAFFDFCF22F1020EDE26DFCF23F1D7
:100FC800000EDD2222C1D9FF23C1DAFFDF50246FD2
:100FD8002451396F3A6B3B6B3C6B3D6B3E6B3F6BFF
:100FE800406B1CC1AAF01DC1ABF039C1ACF03AC1CD
:100FF800ADF03BC1AEF03CC1AFF03DC1B0F03EC179
:10100800B1F03FC1B2F040C1B3F038C1B4F083ECE5
:1010180016F0AAC01CF1ABC01DF1A8EF09F01EC163
:10102800D9FF1FC1DAFFDECF8DF0DDCF8EF0E60EDF
:101038008F6FFF0E906F000E926F020E916FF3ECA0
:1010480029F000018D518E11D8B42DEF08F02FEF43
:1010580008F04BEF08F01EC1D9FF1FC1DAFFDECF41
:101068008DF0DDCF8EF0CE0E8F6FFF0E906F000EDD
:10107800926F020E916FF3EC29F000018D518E11E1
:10108800D8A449EF08F04BEF08F088EF08F01EC12C
:10109800D9FF1FC1DAFFDECF22F1DDCF23F1010E28
:1010A80001012227000E232322C1F6FF23C1F7FFE7
:1010B800F86A0800F5CF38F1020E1EC1D9FF1FC12A
:1010C800DAFFDE26000EDD2220C1D9FF21C1DAFFBA
:1010D800DFCF22F1020EDE26DFCF23F1000EDD2264
:1010E80022C1D9FF23C1DAFFDECF24F1DDCF25F1FC
:1010F80024C139F125C13AF13B6B3C6B3D6B3E6B2A
:101108003F6B406BF5EF07F01EC1D9FF1FC1DAFF37
:10111800DECFF6FFDDCFF7FFF86A0800F550780A52
:10112800D8B499EF08F09BEF08F0AEEF08F01EC1B5
:10113800D9FF1FC1DAFFDECFF6FFDDCFF7FFF86A70
:101148000800F550580AD8A4ACEF08F0AEEF08F044
:10115800E2EF08F01EC1D9FF1FC1DAFFDECFF6FFAC
:10116800DDCFF7FFF86A0800F5CF38F11EC1D9FFC7
:101178001FC1DAFFDE2A000EDD2220C1D9FF21C1FE
:10118800DAFFDFCF22F1020EDE26DFCF23F1000ED9
:10119800DD2222C1D9FF23C1DAFFDECF24F1DDCF62
:1011A80025F124C139F125C13AF101013B6B3C6BB2
:1011B8003D6B3E6B3F6B406BF5EF07F01EC1D9FFEF
:1011C8001FC1DAFFDECF8DF0DDCF8EF0FB0E8F6F03
:1011D800FF0E906F000E926F020E916FF3EC29F0E4
:1011E80000018D518E11D8B4FCEF08F0FEEF08F025
:1011F8001AEF09F01EC1D9FF1FC1DAFFDECF8DF04B
:10120800DDCF8EF0E90E8F6FFF0E906F000E926F9C
:10121800020E916FF3EC29F000018D518E11D8A4C4
:1012280018EF09F01AEF09F057EF09F01EC1D9FFBE
:101238001FC1DAFFDECF22F1DDCF23F1010E01015C
:101248002227000E232322C1F6FF23C1F7FFF86AE5
:101258000800F5CF38F1020E1EC1D9FF1FC1DAFF11
:10126800DE26000EDD2220C1D9FF21C1DAFFDFCF43
:1012780022F1020EDE26DFCF23F1000EDD2222C18D
:10128800D9FF23C1DAFFDECF24F1DDCF25F124C158
:1012980039F125C13AF13B6B3C6B3D6B3E6B3F6BC3
:1012A800406BF5EF07F01EC1D9FF1FC1DAFFDECF93
:1012B800F6FFDDCFF7FFF86A0800F550250AD8A435
:1012C80068EF09F06AEF09F082EF09F01EC1D9FF53
:1012D8001FC1DAFFDE2A000EDD22000E906F250EF8
:1012E8008F6F1CC191F01DC192F0AFEC2BF0000E76
:1012F80001011D6F010E1C6FA8EF09F01EC1D9FF77
:101308001FC1DAFFDE2A000EDD220BEF05F01EC139
:10131800D9FF1FC1DAFFDECFF6FFDDCFF7FFF86A8E
:101328000800F55000018F6F906B1CC191F01DC132
:1013380092F0AFEC2BF01EC1D9FF1FC1DAFFDE2AF5
:10134800000EDD227BEF09F0120047C0D9FF48C02C
:10135800DAFFDECFF6FFDDCFF7FFF86A0800F550B9
:10136800250AD8A4BAEF09F0BCEF09F0C8EF12F0CB
:1013780047C0D9FF48C0DAFFDE2A000EDD22000E82
:101388000001BA6F000EB96FB9C0BDF0BAC0BEF0A7
:10139800BB69BC69000E636F000E626F1BEF0AF039
:1013A800BD8147C0D9FF48C0DAFFDE2A000EDD2222
:1013B8001BEF0AF0BD83D5EF09F0BD85D5EF09F025
:1013C800BD87D5EF09F0BD89D5EF09F0000E636F31
:1013D800010E626F1BEF0AF047C0D9FF48C0DAFF61
:1013E800DECFF6FFDDCFF7FFF86A0800F5504B6E49
:1013F8004C6A4C50000AD8B404EF0AF0EAEF09F03E
:101408004B50200AD8B4E4EF09F0030AD8B4E7EF48
:1014180009F0080AD8B4E1EF09F0060AD8B4D4EF05
:1014280009F01D0AD8B4DEEF09F0EAEF09F06251BD
:101438006311D8B422EF0AF024EF0AF0F0EF09F0B4
:10144800BDA129EF0AF02BEF0AF02CEF0AF0BD93AB
:1014580047C0D9FF48C0DAFFDECFF6FFDDCFF7FF80
:10146800F86A0800F5502A0AD8A43DEF0AF03FEFC1
:101478000AF068EF0AF047C0D9FF48C0DAFFDE2A51
:10148800000EDD2249C0D9FF4AC0DAFFDFCF4BF09A
:10149800020EDE26DFCF4CF0000EDD224BC0D9FF56
:1014A8004CC0DAFFDECFB9F0DDCFBAF0BABF61EFDA
:1014B8000AF05FEF0AF0ADEF0AF0BD81B96DBA1F0F
:1014C800D8B0BA2BADEF0AF047C0D9FF48C0DAFF51
:1014D800DECF08F0DDCF09F024EC1FF008C0B9F02A
:1014E80009C0BAF07FEF0AF047C0D9FF48C0DAFF59
:1014F800DE2A000EDD22D00E4B6EFF0E4C6E47C06A
:10150800D9FF48C0DAFFDECFF6FFDDCFF7FFF86A74
:101518000800F5504D6E4E6A4B504D264C504E22E9
:101528004E500AE10A0E4D5CD8A09DEF0AF0A0EFDC
:101538000AF0010EA1EF0AF0000E0001646F656B5E
:1015480064516511D8A4ABEF0AF0ADEF0AF078EF5B
:101558000AF047C0D9FF48C0DAFFDECFF6FFDDCF7B
:10156800F7FFF86A0800F5502E0AD8A4BEEF0AF073
:10157800C0EF0AF040EF0BF0000EBC6F000EBB6F1F
:1015880047C0D9FF48C0DAFFDE2A000EDD2247C077
:10159800D9FF48C0DAFFDECFF6FFDDCFF7FFF86AE4
:1015A8000800F5502A0AD8A4DCEF0AF0DEEF0AF0AA
:1015B800FBEF0AF047C0D9FF48C0DAFFDE2A000E69
:1015C800DD2249C0D9FF4AC0DAFFDFCF4BF0020E57
:1015D800DE26DFCF4CF0000EDD224BC0D9FF4CC019
:1015E800DAFFDECFBBF0DDCFBCF040EF0BF047C039
:1015F800D9FF48C0DAFFDECF08F0DDCF09F024ECD0
:101608001FF008C0BBF009C0BCF012EF0BF047C0D8
:10161800D9FF48C0DAFFDE2A000EDD22D00E4B6E5D
:10162800FF0E4C6E47C0D9FF48C0DAFFDECFF6FF89
:10163800DDCFF7FFF86A0800F5504D6E4E6A4B5043
:101648004D264C504E224E500AE10A0E4D5CD8A051
:1016580030EF0BF033EF0BF0010E34EF0BF0000E10
:101668000001666F676B66516711D8A43EEF0BF0F7
:1016780040EF0BF00BEF0BF047C0D9FF48C0DAFF83
:10168800DECFF6FFDDCFF7FFF86A0800F550630AF2
:10169800D8A451EF0BF053EF0BF07AEF0BF047C0E3
:1016A800D9FF48C0DAFFDE2A000EDD2249C0D9FF83
:1016B8004AC0DAFFDFCF4BF0020EDE26DFCF4CF058
:1016C800000EDD224BC0D9FF4CC0DAFFDF50726F2D
:1016D80045C01EF046C01FF072C020F099EC2FF0F4
:1016E8001EC045F01FC046F0E4EF12F047C0D9FF16
:1016F80048C0DAFFDECF01F0DDCF02F0D10E036E75
:10170800FF0E046E000E066E030E056E69EC2AF0DD
:1017180001500210D8B493EF0BF095EF0BF0B0EF37
:101728000BF047C0D9FF48C0DAFFDECF01F0DDCFAC
:1017380002F0D50E036EFF0E046E000E066E030E49
:10174800056E69EC2AF001500210D8A4AEEF0BF038
:10175800B0EF0BF0F1EF0BF0030E47C0D9FF48C014
:10176800DAFFDE26000EDD2249C0D9FF4AC0DAFFC3
:10177800DFCF4BF0020EDE26DFCF4CF0000EDD226D
:101788004BC0D9FF4CC0DAFFDF500001686F000E74
:1017980068BFFF0E696F6A6F6B6F6C6F6D6F6E6FEE
:1017A8006F6F45C01EF046C01FF068C020F069C0CA
:1017B80021F06AC022F06BC023F06CC024F06DC029
:1017C80025F06EC026F06FC027F0FCEC17F01EC0A5
:1017D80045F01FC046F0E4EF12F047C0D9FF48C0FB
:1017E800DAFFDECF01F0DDCF02F0D20E036EFF0E7E
:1017F800046E000E066E020E056E69EC2AF00150AA
:101808000210D8B40AEF0CF00CEF0CF027EF0CF034
:1018180047C0D9FF48C0DAFFDECF01F0DDCF02F0C4
:10182800D60E036EFF0E046E000E066E020E056ED7
:1018380069EC2AF001500210D8A425EF0CF027EF2C
:101848000CF04FEF0CF0020E47C0D9FF48C0DAFF8A
:10185800DE26000EDD2249C0D9FF4AC0DAFFDFCFFD
:101868004BF0020EDE26DFCF4CF0000EDD224BC01F
:10187800D9FF4CC0DAFFDECF68F0DDCF69F0000198
:10188800000E69BFFF0E6A6F6B6F6C6F6D6F6E6FC6
:101898006F6FD5EF0BF047C0D9FF48C0DAFFDECF36
:1018A800F6FFDDCFF7FFF86A0800F550640AD8B4F0
:1018B80060EF0CF062EF0CF075EF0CF047C0D9FF49
:1018C80048C0DAFFDECFF6FFDDCFF7FFF86A080081
:1018D800F550690AD8A473EF0CF075EF0CF09CEF83
:1018E8000CF047C0D9FF48C0DAFFDE2A000EDD221F
:1018F80049C0D9FF4AC0DAFFDFCF4BF0020EDE261F
:10190800DFCF4CF0000EDD224BC0D9FF4CC0DAFF10
:10191800DECF68F0DDCF69F00001000E69BFFF0E71
:101928006A6F6B6F6C6F6D6F6E6F6F6FD5EF0BF0CB
:1019380047C0D9FF48C0DAFFDECF01F0DDCF02F0A3
:10194800EC0E036EFF0E046E000E066E020E056EA0
:1019580069EC2AF001500210D8B4B5EF0CF0B7EFDB
:101968000CF0D2EF0CF047C0D9FF48C0DAFFDECF49
:1019780001F0DDCF02F0EF0E036EFF0E046E000ED5
:10198800066E020E056E69EC2AF001500210D8A40A
:10199800D0EF0CF0D2EF0CF0FBEF0CF0020E47C0CA
:1019A800D9FF48C0DAFFDE26000EDD2249C0D9FF84
:1019B8004AC0DAFFDFCF4BF0020EDE26DFCF4CF055
:1019C800000EDD224BC0D9FF4CC0DAFFDECF4DF050
:1019D800DDCF4EF04DC068F04EC069F000016A6B73
:1019E8006B6B6C6B6D6B6E6B6F6BD5EF0BF047C0F1
:1019F800D9FF48C0DAFFDECF01F0DDCF02F0DD0EFF
:101A0800036EFF0E046E000E066E030E056E69EC83
:101A18002AF001500210D8A414EF0DF016EF0DF0C3
:101A280056EF0DF0030E47C0D9FF48C0DAFFDE2697
:101A3800000EDD2249C0D9FF4AC0DAFFDFCF4BF0E4
:101A4800020EDE26DFCF4CF0000EDD224BC0D9FFA0
:101A58004CC0DAFFDF504D6E4D500001736F746B50
:101A6800756B766B776B786B796B7A6B45C01EF00C
:101A780046C01FF073C020F074C021F075C022F07A
:101A880076C023F077C024F078C025F079C026F01E
:101A98007AC027F024EC21F01EC045F01FC046F0A4
:101AA800E4EF12F047C0D9FF48C0DAFFDECF01F0FB
:101AB800DDCF02F0DE0E036EFF0E046E000E066E22
:101AC800020E056E69EC2AF001500210D8A46FEFDF
:101AD8000DF071EF0DF09AEF0DF0020E47C0D9FF2F
:101AE80048C0DAFFDE26000EDD2249C0D9FF4AC011
:101AF800DAFFDFCF4BF0020EDE26DFCF4CF0000E10
:101B0800DD224BC0D9FF4CC0DAFFDECF4DF0DDCF70
:101B18004EF04DC073F04EC074F00001756B766BDB
:101B2800776B786B796B7A6B3AEF0DF047C0D9FF1A
:101B380048C0DAFFDECFF6FFDDCFF7FFF86A08000E
:101B4800F5506F0AD8A4ABEF0DF0ADEF0DF0D5EF5F
:101B58000DF047C0D9FF48C0DAFFDE2A000EDD22AB
:101B680049C0D9FF4AC0DAFFDFCF4BF0020EDE26AC
:101B7800DFCF4CF0000EDD224BC0D9FF4CC0DAFF9E
:101B8800DECF4DF0DDCF4EF04DC073F04EC074F097
:101B98000001756B766B776B786B796B7A6B3AEFC4
:101BA8000DF047C0D9FF48C0DAFFDECF01F0DDCF26
:101BB80002F0F50E036EFF0E046E000E066E020EA6
:101BC800056E69EC2AF001500210D8A4EEEF0DF072
:101BD800F0EF0DF019EF0EF0020E47C0D9FF48C024
:101BE800DAFFDE26000EDD2249C0D9FF4AC0DAFF3F
:101BF800DFCF4BF0020EDE26DFCF4CF0000EDD22E9
:101C08004BC0D9FF4CC0DAFFDECF4DF0DDCF4EF030
:101C18004DC073F04EC074F00001756B766B776B36
:101C2800786B796B7A6B3AEF0DF047C0D9FF48C0F3
:101C3800DAFFDECF01F0DDCF02F0D90E036EFF0E22
:101C4800046E000E066E030E056E69EC2AF0015054
:101C58000210D8A432EF0EF034EF0EF05CEF0EF065
:101C6800030E47C0D9FF48C0DAFFDE26000EDD228A
:101C780049C0D9FF4AC0DAFFDFCF4BF0020EDE269B
:101C8800DFCF4CF0000EDD224BC0D9FF4CC0DAFF8D
:101C9800DECF70F0DDCF71F070C0D9FF71C0DAFF10
:101CA80074C1DFFF000E466E000E456EE4EF12F0C1
:101CB80047C0D9FF48C0DAFFDECF01F0DDCF02F020
:101CC800DA0E036EFF0E046E000E066E020E056E2F
:101CD80069EC2AF001500210D8A475EF0EF077EFE6
:101CE8000EF09DEF0EF0020E47C0D9FF48C0DAFF94
:101CF800DE26000EDD2249C0D9FF4AC0DAFFDFCF59
:101D08004BF0020EDE26DFCF4CF0000EDD224BC07A
:101D1800D9FF4CC0DAFFDECF70F0DDCF71F070C0B4
:101D2800D9FF71C0DAFF74C1DEFF75C1DDFF56EF60
:101D38000EF047C0D9FF48C0DAFFDECFF6FFDDCF8F
:101D4800F7FFF86A0800F5506E0AD8A4AEEF0EF057
:101D5800B0EF0EF0D5EF0EF047C0D9FF48C0DAFF5C
:101D6800DE2A000EDD2249C0D9FF4AC0DAFFDFCFE4
:101D78004BF0020EDE26DFCF4CF0000EDD224BC00A
:101D8800D9FF4CC0DAFFDECF70F0DDCF71F070C044
:101D9800D9FF71C0DAFF74C1DEFF75C1DDFF56EFF0
:101DA8000EF047C0D9FF48C0DAFFDECF01F0DDCF23
:101DB80002F0F20E036EFF0E046E000E066E020EA7
:101DC800056E69EC2AF001500210D8A4EEEF0EF06F
:101DD800F0EF0EF016EF0FF0020E47C0D9FF48C023
:101DE800DAFFDE26000EDD2249C0D9FF4AC0DAFF3D
:101DF800DFCF4BF0020EDE26DFCF4CF0000EDD22E7
:101E08004BC0D9FF4CC0DAFFDECF70F0DDCF71F0E8
:101E180070C0D9FF71C0DAFF74C1DEFF75C1DDFF84
:101E280056EF0EF047C0D9FF48C0DAFFDECFF6FF05
:101E3800DDCFF7FFF86A0800F550700AD8A427EF3D
:101E48000FF029EF0FF06DEF0FF047C0D9FF48C032
:101E5800DAFFDE2A000EDD2249C0D9FF4AC0DAFFC8
:101E6800DFCF4BF0020EDE26DFCF4CF0000EDD2276
:101E78004BC0D9FF4CC0DAFFDECF4DF0DDCF4EF0BE
:101E88004DC073F04EC074F00001756B766B776BC4
:101E9800786B796B7A6B45C01EF046C01FF073C033
:101EA80020F074C021F075C022F076C023F077C00E
:101EB80024F078C025F079C026F07AC027F0780E93
:101EC800286E6EEC19F01EC045F01FC046F0E4EF16
:101ED80012F047C0D9FF48C0DAFFDECFF6FFDDCFEA
:101EE800F7FFF86A0800F550730AD8A47EEF0FF0E0
:101EF80080EF0FF0ABEF0FF047C0D9FF48C0DAFF13
:101F0800DE2A000EDD2249C0D9FF4AC0DAFFDFCF42
:101F18004BF0020EDE26DFCF4CF0000EDD224BC068
:101F2800D9FF4CC0DAFFDECF60F0DDCF61F045C0ED
:101F38000CF046C00DF060C00EF061C00FF06BEC05
:101F480024F00CC045F00DC046F0E4EF12F047C095
:101F5800D9FF48C0DAFFDECF01F0DDCF02F0E10E95
:101F6800036EFF0E046E000E066E030E056E69EC1E
:101F78002AF001500210D8A4C4EF0FF0C6EF0FF0FA
:101F880006EF10F0030E47C0D9FF48C0DAFFDE267F
:101F9800000EDD2249C0D9FF4AC0DAFFDFCF4BF07F
:101FA800020EDE26DFCF4CF0000EDD224BC0D9FF3B
:101FB8004CC0DAFFDF504D6E4D500001736F746BEB
:101FC800756B766B776B786B796B7A6B45C01EF0A7
:101FD80046C01FF073C020F074C021F075C022F015
:101FE80076C023F077C024F078C025F079C026F0B9
:101FF8007AC027F022EC1EF01EC045F01FC046F044
:10200800E4EF12F047C0D9FF48C0DAFFDECF01F095
:10201800DDCF02F0E20E036EFF0E046E000E066EB8
:10202800020E056E69EC2AF001500210D8A41FEFC9
:1020380010F021EF10F04AEF10F0020E47C0D9FF60
:1020480048C0DAFFDE26000EDD2249C0D9FF4AC0AB
:10205800DAFFDFCF4BF0020EDE26DFCF4CF0000EAA
:10206800DD224BC0D9FF4CC0DAFFDECF4DF0DDCF0B
:102078004EF04DC073F04EC074F00001756B766B76
:10208800776B786B796B7A6BEAEF0FF047C0D9FF03
:1020980048C0DAFFDECFF6FFDDCFF7FFF86A0800A9
:1020A800F550750AD8A45BEF10F05DEF10F085EFDE
:1020B80010F047C0D9FF48C0DAFFDE2A000EDD2243
:1020C80049C0D9FF4AC0DAFFDFCF4BF0020EDE2647
:1020D800DFCF4CF0000EDD224BC0D9FF4CC0DAFF39
:1020E800DECF4DF0DDCF4EF04DC073F04EC074F032
:1020F8000001756B766B776B786B796B7A6BEAEFAF
:102108000FF047C0D9FF48C0DAFFDECF01F0DDCFBE
:1021180002F0F80E036EFF0E046E000E066E020E3D
:10212800056E69EC2AF001500210D8A49EEF10F059
:10213800A0EF10F0C9EF10F0020E47C0D9FF48C059
:10214800DAFFDE26000EDD2249C0D9FF4AC0DAFFD9
:10215800DFCF4BF0020EDE26DFCF4CF0000EDD2283
:102168004BC0D9FF4CC0DAFFDECF4DF0DDCF4EF0CB
:102178004DC073F04EC074F00001756B766B776BD1
:10218800786B796B7A6BEAEF0FF047C0D9FF48C0DC
:10219800DAFFDECF01F0DDCF02F0E50E036EFF0EB1
:1021A800046E000E066E030E056E69EC2AF00150EF
:1021B8000210D8B4E2EF10F0E4EF10F0FFEF10F0E7
:1021C80047C0D9FF48C0DAFFDECF01F0DDCF02F00B
:1021D800CD0E036EFF0E046E000E066E030E056E26
:1021E80069EC2AF001500210D8A4FDEF10F0FFEFBF
:1021F80010F055EF11F047C0D9FF48C0DAFFDECF25
:102208004BF0DDCF4CF0020E4B26000E4C224BC09B
:10221800F6FF4CC0F7FFF86A0800F5CF72F0030E1E
:1022280047C0D9FF48C0DAFFDE26000EDD2249C0CC
:10223800D9FF4AC0DAFFDFCF4BF0020EDE26DFCF30
:102248004CF0000EDD224BC0D9FF4CC0DAFFDF5046
:102258004D6E4D500001736F746B756B766B776BB9
:10226800786B796B7A6B45C01EF046C01FF073C05F
:1022780020F074C021F075C022F076C023F077C03A
:1022880024F078C025F079C026F07AC027F072C013
:1022980028F06EEC19F01EC045F01FC046F0E4EFC0
:1022A80012F047C0D9FF48C0DAFFDECF01F0DDCF1A
:1022B80002F0E60E036EFF0E046E000E066E020EAE
:1022C800056E69EC2AF001500210D8B46EEF11F0D7
:1022D80070EF11F08BEF11F047C0D9FF48C0DAFF5B
:1022E800DECF01F0DDCF02F0CE0E036EFF0E046EDE
:1022F800000E066E020E056E69EC2AF001500210FF
:10230800D8A489EF11F08BEF11F0C8EF11F047C096
:10231800D9FF48C0DAFFDECF4BF0DDCF4CF0010E1D
:102328004B26000E4C224BC0F6FF4CC0F7FFF86A54
:102338000800F5CF72F0020E47C0D9FF48C0DAFF97
:10234800DE26000EDD2249C0D9FF4AC0DAFFDFCF02
:102358004BF0020EDE26DFCF4CF0000EDD224BC024
:10236800D9FF4CC0DAFFDECF4DF0DDCF4EF04DC0C7
:1023780073F04EC074F00001756B766B776B786BF9
:10238800796B7A6B37EF11F047C0D9FF48C0DAFF95
:10239800DECFF6FFDDCFF7FFF86A0800F550780AC0
:1023A800D8B4D9EF11F0DBEF11F0EEEF11F047C020
:1023B800D9FF48C0DAFFDECFF6FFDDCFF7FFF86AB6
:1023C8000800F550580AD8A4ECEF11F0EEEF11F020
:1023D80022EF12F047C0D9FF48C0DAFFDECFF6FF80
:1023E800DDCFF7FFF86A0800F5CF72F047C0D9FFD4
:1023F80048C0DAFFDE2A000EDD2249C0D9FF4AC0F4
:10240800DAFFDFCF4BF0020EDE26DFCF4CF0000EF6
:10241800DD224BC0D9FF4CC0DAFFDECF4DF0DDCF57
:102428004EF04DC073F04EC074F00001756B766BC2
:10243800776B786B796B7A6B37EF11F047C0D9FF00
:1024480048C0DAFFDECF01F0DDCF02F0FB0E036EED
:10245800FF0E046E000E066E020E056E69EC2AF081
:1024680001500210D8B43BEF12F03DEF12F058EFD4
:1024780012F047C0D9FF48C0DAFFDECF01F0DDCF48
:1024880002F0E90E036EFF0E046E000E066E020ED9
:10249800056E69EC2AF001500210D8A456EF12F02C
:1024A80058EF12F095EF12F047C0D9FF48C0DAFF95
:1024B800DECF4BF0DDCF4CF0010E4B26000E4C2248
:1024C8004BC0F6FF4CC0F7FFF86A0800F5CF72F072
:1024D800020E47C0D9FF48C0DAFFDE26000EDD2213
:1024E80049C0D9FF4AC0DAFFDFCF4BF0020EDE2623
:1024F800DFCF4CF0000EDD224BC0D9FF4CC0DAFF15
:10250800DECF4DF0DDCF4EF04DC073F04EC074F00D
:102518000001756B766B776B786B796B7A6B37EF3D
:1025280011F047C0D9FF48C0DAFFDECFF6FFDDCF94
:10253800F7FFF86A0800F550250AD8A4A6EF12F0AC
:10254800A8EF12F0BFEF12F047C0D9FF48C0DAFF7A
:10255800DE2A000EDD22000E046E250E036E45C035
:1025680005F046C006F07AEC2CF0000E466E010E1F
:10257800456EE4EF12F047C0D9FF48C0DAFFDE2A03
:10258800000EDD2256EF0EF047C0D9FF48C0DAFF33
:10259800DECFF6FFDDCFF7FFF86A0800F550036ECF
:1025A800046A45C005F046C006F07AEC2CF047C036
:1025B800D9FF48C0DAFFDE2A000EDD22B9EF12F09B
:1025C8001200010E00018E6F000ECDEC33F0960E56
:1025D8004FEC32F0EF0E00018E6F000ECDEC33F0B1
:1025E800030E00018E6F010ECDEC33F0800E00015A
:1025F8008E6F010ECDEC33F0020E00018E6F010ECE
:10260800CDEC33F0CF0E00018E6F000ECDEC33F021
:10261800000E00018E6F010ECDEC33F0C10E0001EB
:102628008E6F010ECDEC33F0300E00018E6F010E6F
:10263800CDEC33F0ED0E00018E6F000ECDEC33F0D3
:10264800640E00018E6F010ECDEC33F0030E000115
:102658008E6F010ECDEC33F0120E00018E6F010E5D
:10266800CDEC33F0810E00018E6F010ECDEC33F00E
:10267800E80E00018E6F000ECDEC33F0850E0001E0
:102688008E6F010ECDEC33F0000E00018E6F010E3F
:10269800CDEC33F0780E00018E6F010ECDEC33F0E7
:1026A800CB0E00018E6F000ECDEC33F0390E000119
:1026B8008E6F010ECDEC33F02C0E00018E6F010EE3
:1026C800CDEC33F0000E00018E6F010ECDEC33F02F
:1026D800340E00018E6F010ECDEC33F0020E0001B6
:1026E8008E6F010ECDEC33F0F70E00018E6F000EE9
:1026F800CDEC33F0200E00018E6F010ECDEC33F0DF
:10270800EA0E00018E6F000ECDEC33F0000E0001D2
:102718008E6F010ECDEC33F0000E00018E6F010EAE
:10272800CDEC33F0C00E00018E6F000ECDEC33F00F
:10273800230E00018E6F010ECDEC33F0C10E0001A7
:102748008E6F000ECDEC33F0100E00018E6F010E6F
:10275800CDEC33F0C50E00018E6F000ECDEC33F0DA
:102768003E0E00018E6F010ECDEC33F0280E0001F5
:102778008E6F010ECDEC33F0C70E00018E6F000E88
:10278800CDEC33F0860E00018E6F010ECDEC33F0E8
:10279800360E00018E6F000ECDEC33F0480E0001AE
:1027A8008E6F010ECDEC33F03A0E00018E6F000EE5
:1027B800CDEC33F0550E00018E6F010ECDEC33F0E9
:1027C800B10E00018E6F000ECDEC33F0000E00014B
:1027D8008E6F010ECDEC33F0180E00018E6F010ED6
:1027E800CDEC33F0B60E00018E6F000ECDEC33F059
:1027F800080E00018E6F010ECDEC33F0820E000141
:102808008E6F010ECDEC33F0270E00018E6F010E96
:10281800CDEC33F0F20E00018E6F000ECDEC33F0EC
:10282800000E00018E6F010ECDEC33F0260E000174
:102838008E6F000ECDEC33F0010E00018E6F010E8D
:10284800CDEC33F0E00E00018E6F000ECDEC33F0CE
:102858000F0E00018E6F010ECDEC33F0310E00012A
:102868008E6F010ECDEC33F02B0E00018E6F010E32
:10287800CDEC33F00C0E00018E6F010ECDEC33F071
:102888000E0E00018E6F010ECDEC33F0080E000124
:102898008E6F010ECDEC33F04E0E00018E6F010EDF
:1028A800CDEC33F0F10E00018E6F010ECDEC33F05C
:1028B800370E00018E6F010ECDEC33F0070E0001CC
:1028C8008E6F010ECDEC33F0100E00018E6F010EED
:1028D800CDEC33F0030E00018E6F010ECDEC33F01A
:1028E8000E0E00018E6F010ECDEC33F0090E0001C3
:1028F8008E6F010ECDEC33F0000E00018E6F010ECD
:10290800CDEC33F0E10E00018E6F000ECDEC33F00C
:10291800000E00018E6F010ECDEC33F00E0E00019B
:102928008E6F010ECDEC33F0140E00018E6F010E88
:10293800CDEC33F0030E00018E6F010ECDEC33F0B9
:10294800110E00018E6F010ECDEC33F0070E000161
:102958008E6F010ECDEC33F0310E00018E6F010E3B
:10296800CDEC33F0C10E00018E6F010ECDEC33F0CB
:10297800480E00018E6F010ECDEC33F0080E0001F9
:102988008E6F010ECDEC33F00F0E00018E6F010E2D
:10299800CDEC33F00C0E00018E6F010ECDEC33F050
:1029A800310E00018E6F010ECDEC33F0360E0001B2
:1029B8008E6F010ECDEC33F00F0E00018E6F010EFD
:1029C800CDEC33F0110E00018E6F000ECDEC33F01C
:1029D800780E4FEC32F0290E00018E6F000ECDEC10
:1029E80033F0780E4FEC32F0000E0001976F000EB6
:1029F800966FFAEC2DF01200ACC010F1ADC011F1D9
:102A0800AEC012F1AFC013F1B0C014F1B1C015F1EE
:102A1800B2C016F1B3C017F1010117BF16EF15F0D8
:102A280019EF15F0010E1AEF15F0000E0E6F0F6B6F
:102A38000E510F11D8B423EF15F025EF15F035EF2F
:102A480015F0171F161F151F141F131F121F111F14
:102A5800106D000E1123122313231423152316239C
:102A680017230001BCBF3BEF15F03DEF15F03EEF1B
:102A780015F0BD93BCBF4BEF15F0BC5106E1BB058B
:102A8800D8B049EF15F04BEF15F052EF15F0000EE6
:102A980001010B6F010E0A6F56EF15F0BBC00AF16A
:102AA800BCC00BF1B9C00CF1BAC00DF101010E5157
:102AB8000F11D8A462EF15F064EF15F06CEF15F064
:102AC8000001BDA56AEF15F06CEF15F070EF15F079
:102AD80001010C07D8A00D07000E0101196F1F0E88
:102AE800186F000E976FFAEF15F001011807D8A0BC
:102AF8001907780E1825D96E010E1921DA6E10C142
:102B08008DF011C18EF012C18FF013C190F014C175
:102B180091F015C192F016C193F017C194F00A0E06
:102B28000001956F000E966F000E976F000E986F5C
:102B3800000E996F000E9A6F000E9B6F000E9C6F2F
:102B4800EFEC25F08DC000F18EC001F18FC002F1CD
:102B580090C003F191C004F192C005F193C006F151
:102B680094C007F100C19FF002C1A0F01CEC31F045
:102B780000019F51300FDF6E01010A07D8A00B0733
:102B88000C07D8A00D0710C18DF011C18EF012C12D
:102B98008FF013C190F014C191F015C192F016C1D5
:102BA80093F017C194F00A0E0001956F000E966F0E
:102BB800000E976F000E986F000E996F000E9A6FB7
:102BC800000E9B6F000E9C6FE2EC22F08DC010F19E
:102BD8008EC011F18FC012F190C013F191C014F1A1
:102BE80092C015F193C016F194C017F1010119BFF5
:102BF80006EF16F0195108E11805D8A006EF16F0EF
:102C080008EF16F039EF16F01051111112111311C7
:102C18001411151116111711D8A415EF16F017EF86
:102C280016F079EF15F00BBF24EF16F00B5106E103
:102C38000A05D8B022EF16F024EF16F079EF15F058
:102C48000DBF2FEF16F00D5108E10C05D8A02FEF9E
:102C580016F031EF16F039EF16F00001BDB337EF7B
:102C680016F039EF16F079EF15F001010E510F113A
:102C7800D8A441EF16F043EF16F04BEF16F0000121
:102C8800BDA549EF16F04BEF16F06AEF16F00101FB
:102C98001807D8A019070E510F11D8A456EF16F02F
:102CA80058EF16F05EEF16F0000E096F2B0E086F46
:102CB80062EF16F0000E096F2D0E086F780E1825BA
:102CC800D96E010E1921DA6E08C1DFFFAAC09FF084
:102CD800ABC0A0F0780E010118250001A16F010E0C
:102CE800010119210001A26F0CC1A3F00DC1A4F0CC
:102CF80015EC2CF09FC0AAF0A0C0ABF012000001A8
:102D0800BCBF89EF16F08BEF16F08CEF16F0BD9371
:102D1800BCBF99EF16F0BC5106E1BB05D8B097EFE0
:102D280016F099EF16F0A0EF16F0000E01010D6FE6
:102D3800010E0C6FA4EF16F0BBC00CF1BCC00DF176
:102D4800B9C00EF1BAC00FF10001BDA9AEEF16F07F
:102D5800B0EF16F0B5EF16F00101FE0E0E27FF0ECC
:102D68000F23ACC010F1ADC011F1AEC012F1AFC06D
:102D780013F1B0C014F1B1C015F1B2C016F1B3C06F
:102D880017F1000E0101196F1F0E186F000E976FD3
:102D980085EF17F001011807D8A019070F0E1015B5
:102DA8001A6F1B6B1BBFE2EF16F01B5109E10A0EED
:102DB8001A5DD8A0E2EF16F0E4EF16F0ECEF16F08B
:102DC800570E1A251A6F000E1B211B6FF2EF16F013
:102DD800300E1A251A6F000E1B211B6FBF0E006FD5
:102DE800FF0E016F0001B4510101026F036B005126
:102DF80002270151032303510AE11A0E025DD8A0EC
:102E080008EF17F00BEF17F0010E0CEF17F0000E9C
:102E1800086F096B08510911D8B415EF17F017EFAF
:102E280017F047EF17F09F0E006FFF0E016F200E8F
:102E38001A11026F000E1B11036F00510227015176
:102E4800032303510AE11A0E025DD8A02EEF17F0F2
:102E580031EF17F0010E32EF17F0000E0A6F0B6B0F
:102E68000A510B11D8B43BEF17F03DEF17F047EFBD
:102E780017F01AC193F01BC194F00BEC2FF093C01C
:102E88001AF194C01BF1780E01011825D96E010EB4
:102E98001921DA6E1AC1DFFF0C07D8A00D070E073B
:102EA800D8A00F0710C100F111C101F112C102F140
:102EB80013C103F114C104F115C105F116C106F1DE
:102EC80017C107F1050E72EF17F0D89007330633D4
:102ED800053304330333023301330033E82E69EF3B
:102EE80017F000C110F101C111F102C112F103C1C3
:102EF80013F104C114F105C115F106C116F107C19A
:102F080017F119BF91EF17F0195109E1020E185D79
:102F1800D8A091EF17F093EF17F0C4EF17F0105106
:102F28001111121113111411151116111711D8A41A
:102F3800A0EF17F0A2EF17F0CEEF16F00DBFAFEF2E
:102F480017F00D5106E10C05D8B0ADEF17F0AFEF53
:102F580017F0CEEF16F00FBFBAEF17F00F5108E1D8
:102F68000E05D8A0BAEF17F0BCEF17F0C4EF17F0B2
:102F78000001BDB3C2EF17F0C4EF17F0CEEF16F0A3
:102F88000001BDA9CAEF17F0CCEF17F0E3EF17F077
:102F980001011807D8A01907780E1825D96E010E57
:102FA8001921DA6EB4C0DFFF1807D8A01907780E08
:102FB8001825D96E010E1921DA6E300EDF6EAAC0FF
:102FC8009FF0ABC0A0F0780E010118250001A16F99
:102FD800010E010119210001A26F0EC1A3F00FC15A
:102FE800A4F015EC2CF09FC0AAF0A0C0ABF0120022
:102FF80020C038F021C039F022C03AF023C03BF09D
:1030080024C03CF025C03DF026C03EF027C03FF06C
:103018003FBE11EF18F014EF18F0010E15EF18F07D
:10302800000E366E376A36503710D8B41EEF18F0D7
:1030380020EF18F030EF18F03F1E3E1E3D1E3C1EDC
:103048003B1E3A1E391E386C000E39223A223B22AA
:103058003C223D223E223F220001BCBF36EF18F041
:1030680038EF18F039EF18F0BD93BCBF46EF18F0F1
:10307800BC5106E1BB05D8B044EF18F046EF18F094
:103088004CEF18F0000E336E010E326E50EF18F050
:10309800BBC032F0BCC033F0B9C034F0BAC035F0B0
:1030A80036503710D8A45BEF18F05DEF18F064EFD6
:1030B80018F0BDA562EF18F064EF18F067EF18F08C
:1030C8003406D8A03506000E416E1F0E406E000E65
:1030D8000101976FECEF18F04006D8A04106780E72
:1030E8004024D96E010E4120DA6E38C001F039C093
:1030F80002F03AC003F03BC004F03CC005F03DC00C
:1031080006F03EC007F03FC008F00A0E096E000E38
:103118000A6E000E0B6E000E0C6E000E0D6E000E89
:103128000E6E000E0F6E000E106EA2EC26F001C09F
:1031380028F002C029F003C02AF004C02BF005C013
:103148002CF006C02DF007C02EF008C02FF028C0C4
:1031580013F02AC014F07EEC31F01350300FDF6EFC
:103168003206D8A033063406D8A0350638C001F098
:1031780039C002F03AC003F03BC004F03CC005F08F
:103188003DC006F03EC007F03FC008F00A0E096EC9
:10319800000E0A6E000E0B6E000E0C6E000E0D6E09
:1031A800000E0E6E000E0F6E000E106EA7EC23F0D0
:1031B80001C038F002C039F003C03AF004C03BF057
:1031C80005C03CF006C03DF007C03EF008C03FF027
:1031D80041BEF7EF18F0415008E14004D8A0F7EFDE
:1031E80018F0F9EF18F02AEF19F0385039103A10A2
:1031F8003B103C103D103E103F10D8A406EF19F0CC
:1032080008EF19F070EF18F033BE15EF19F03350CE
:1032180006E13204D8B013EF19F015EF19F070EF8A
:1032280018F035BE20EF19F0355008E13404D8A065
:1032380020EF19F022EF19F02AEF19F00001BDB3C1
:1032480028EF19F02AEF19F070EF18F03650371000
:10325800D8A431EF19F033EF19F03BEF19F0000162
:10326800BDA539EF19F03BEF19F059EF19F04006F9
:10327800D8A0410636503710D8A445EF19F047EFCB
:1032880019F04DEF19F0000E316E2B0E306E51EF24
:1032980019F0000E316E2D0E306E780E4024D96E66
:1032A800010E4120DA6E30C0DFFF1EC013F01FC0D0
:1032B80014F0780E4024156E010E4120166E34C0AD
:1032C80017F035C018F0DFEC2CF013C01EF014C056
:1032D8001FF012000001BCBF74EF19F076EF19F06F
:1032E80077EF19F0BD93BCBF84EF19F0BC5106E12C
:1032F800BB05D8B082EF19F084EF19F08AEF19F006
:10330800000E366E010E356E8EEF19F0BBC035F02B
:10331800BCC036F0B9C037F0BAC038F0BDA997EFD5
:1033280019F099EF19F09DEF19F0FE0E3726FF0EF0
:10333800382220C039F021C03AF022C03BF023C027
:103348003CF024C03DF025C03EF026C03FF027C029
:1033580040F0000E426E1F0E416E000E0101976F85
:1033680069EF1AF04106D8A042060F0E3914436ED1
:10337800446A44BEC9EF19F0445009E10A0E435C9F
:10338800D8A0C9EF19F0CBEF19F0D3EF19F0570E09
:103398004324436E000E4420446ED9EF19F0300EDA
:1033A8004324436E000E4420446EBF0E296EFF0E68
:1033B8002A6E28502B6E2C6A29502B262A502C2234
:1033C8002C500AE11A0E2B5CD8A0EDEF19F0F0EFA3
:1033D80019F0010EF1EF19F0000E316E326A31501A
:1033E8003210D8B4FAEF19F0FCEF19F02CEF1AF0FC
:1033F8009F0E296EFF0E2A6E200E43102B6E000EB4
:1034080044102C6E29502B262A502C222C500AE1CD
:103418001A0E2B5CD8A013EF1AF016EF1AF0010E53
:1034280017EF1AF0000E336E346A33503410D8B4E4
:1034380020EF1AF022EF1AF02CEF1AF043C007F031
:1034480044C008F06AEC2FF007C043F008C044F00D
:10345800780E4124D96E010E4220DA6E43C0DFFF98
:103468003506D8A036063706D8A0380639C029F060
:103478003AC02AF03BC02BF03CC02CF03DC02DF0E8
:103488003EC02EF03FC02FF040C030F0050E56EF82
:103498001AF0D89030322F322E322D322C322B3275
:1034A8002A322932E82E4DEF1AF029C039F02AC005
:1034B8003AF02BC03BF02CC03CF02DC03DF02EC0A4
:1034C8003EF02FC03FF030C040F042BE75EF1AF01A
:1034D800425009E1020E415CD8A075EF1AF077EF6F
:1034E8001AF0A8EF1AF039503A103B103C103D1072
:1034F8003E103F104010D8A484EF1AF086EF1AF05F
:10350800B6EF19F036BE93EF1AF0365006E13504DF
:10351800D8B091EF1AF093EF1AF0B6EF19F038BE61
:103528009EEF1AF0385008E13704D8A09EEF1AF041
:10353800A0EF1AF0A8EF1AF00001BDB3A6EF1AF039
:10354800A8EF1AF0B6EF19F00001BDA9AEEF1AF016
:10355800B0EF1AF0C6EF1AF04106D8A04206780E6E
:103568004124D96E010E4220DA6E28C0DFFF4106E1
:10357800D8A04206780E4124D96E010E4220DA6E98
:10358800300EDF6E1EC013F01FC014F0780E4124F9
:10359800156E010E4220166E37C017F038C018F0AD
:1035A800DFEC2CF013C01EF014C01FF01200ACECBE
:1035B80033F0000EA0EC2DF0E5EC12F0340E000113
:1035C8008D6F600E8E6F4DEC34F0F28E000E01019F
:1035D800016F3C0E006F000E036FDC0E026F540E7D
:1035E800046FFF0E056FFF0E076F0669000E096F67
:1035F800000E086F54EC27F0000E00018E6F000ECD
:103608008D6F47EC34F0000E5EEC31F08DC076F132
:103618008EC077F176C18DF077C18EF00001000E73
:103628008EBFFF0E8F6F906F640E916F000E926FBA
:10363800000E936F000E946F3EEC2EF08DC099F043
:103648008EC09AF08FC09BF090C09CF0FF0E0001D6
:103658009D6F0F0E9E6F000E9F6F000EA06F7BEC8C
:1036680028F099C0B5F09AC0B6F09BC0B7F09CC0DE
:10367800B8F0980E01015F6F010E606F000E626F67
:103688001E0E616FC10E636FFF0E646FB5C065F1EA
:10369800B6C066F1B7C067F1B8C068F1DAEC32F0CD
:1036A800000E0101016F640E006F000E036F640EBF
:1036B800026F980E046F010E056FFF0E076F066903
:1036C800000E096F000E086F54EC27F0B8C16DF1B9
:1036D800B9C16EF1000E01016EBFFF0E6F6F706F02
:1036E8006D510001B55D01016E510001B65901012E
:1036F8006F510001B759B851800A0101716F7051BB
:10370800800A7159D8A08BEF1BF08DEF1BF08EEF5C
:103718001BF0898AB6C16DF1B7C16EF1000E6EBF9C
:10372800FF0E6F6F706F0001B55101016D5D0001F3
:10373800B65101016E590001B75101016F5970511D
:10374800800A716F0001B851800A01017159D8A02F
:10375800B0EF1BF0B2EF1BF0B3EF1BF0899ABDEC92
:1037680033F0CD0E00018D5D5B0E8E59D8A0BFEFF2
:103778001BF0C1EF1BF007EF1BF0750E0101496F3D
:10378800FF0E4A6F5EEC33F02D0E0101496FFF0EFC
:103798004A6FB8C14BF1B9C14CF1B6C14DF1B7C1CF
:1037A8004EF15EEC33F0A00E0101496FFF0E4A6F37
:1037B8005EEC33F0000E0001A46F020EA36F42EC22
:1037C8002DF0A3C0B8F1A4C0B9F18B0E0101496F67
:1037D800FF0E4A6F5EEC33F0000E0001A46F020E7C
:1037E800A36F42EC2DF0A3C0B6F1A4C0B7F1050E4B
:1037F8000101496FFF0E4A6FB8C14BF1B9C14CF1D5
:10380800B6C14DF1B7C14EF15EEC33F007EF1BF0D6
:1038180047EF00F00001BCBF14EF1CF016EF1CF0DE
:1038280017EF1CF0BD93BCBF24EF1CF0BC5106E1A0
:10383800BB05D8B022EF1CF024EF1CF02BEF1CF0D6
:10384800000E0101096F010E086F2FEF1CF0BBC0BD
:1038580008F1BCC009F1B9C00AF1BAC00BF1ACC09B
:103868000CF1ADC00DF1AEC00EF1AFC00FF1B0C09C
:1038780010F1B1C011F1B2C012F1B3C013F1000ED2
:103888000101156F1F0E146F000E976FC6EF1CF025
:1038980001011407D8A01507780E1425D96E010E5A
:1038A8001521DA6E0CC18DF00DC18EF00EC18FF0AE
:1038B8000FC190F010C191F011C192F012C193F0B4
:1038C80013C194F00A0E0001956F000E966F000E5A
:1038D800976F000E986F000E996F000E9A6F000E8A
:1038E8009B6F000E9C6FDEEC2AF08DC000F18EC03D
:1038F80001F18FC002F190C003F191C004F192C0B0
:1039080005F193C006F194C007F101010051300F91
:10391800DF6E0807D8A009070A07D8A00B070CC153
:103928008DF00DC18EF00EC18FF00FC190F010C157
:1039380091F011C192F012C193F013C194F00A0EE4
:103948000001956F000E966F000E976F000E986F2E
:10395800000E996F000E9A6F000E9B6F000E9C6F01
:1039680002EC29F08DC00CF18EC00DF18FC00EF164
:1039780090C00FF191C010F192C011F193C012F1F3
:1039880094C013F1010114511511D8B4CEEF1CF0F5
:10399800D0EF1CF001EF1DF00C510D110E110F119D
:1039A8001011111112111311D8A4DDEF1CF0DFEF63
:1039B8001CF04CEF1CF009BFECEF1CF0095106E1BC
:1039C8000805D8B0EAEF1CF0ECEF1CF04CEF1CF047
:1039D8000BBFF7EF1CF00B5108E10A05D8A0F7EF71
:1039E8001CF0F9EF1CF001EF1DF00001BDB3FFEF73
:1039F8001CF001EF1DF04CEF1CF0AAC09FF0ABC00B
:103A0800A0F0780E010114250001A16F010E01013B
:103A180015210001A26F0AC1A3F00BC1A4F015EC97
:103A28002CF09FC0AAF0A0C0ABF01200000E00015D
:103A3800A26F000EA16F000E9B6F000E9A6F27EF0A
:103A48001DF0944B952B010EA06F94C0F6FF95C006
:103A5800F7FF000EF86E0E0EF76403D00800F5505D
:103A680005D0F6CFE1FFF7CFE2FFE750200AD8B440
:103A780040EF1DF042EF1DF06CEF1DF0F70E000156
:103A8800966FFF0E976F94C0F6FF95C0F7FF000E74
:103A9800F86E0E0EF76403D00800F55005D0F6CF87
:103AA800E1FFF7CFE2FFE7500001986F996B96515D
:103AB800982797519923995109E1050E985DD8A047
:103AC80068EF1DF06AEF1DF06CEF1DF0000EA06F9F
:103AD800A0C09CF000019D6B9C519D11D8A477EF6C
:103AE8001DF079EF1DF025EF1DF083EF1DF0000E9E
:103AF8009B6F010E9A6F944B952BD2EF1DF094C0DB
:103B0800F6FF95C0F7FF000EF86E0E0EF76403D0AF
:103B18000800F55005D0F6CFE1FFF7CFE2FFE750F8
:103B28000001966F976B9751000AD8B49EEF1DF06D
:103B3800D2EF1DF096512B0AD8B47FEF1DF0060A7C
:103B4800D8B47BEF1DF0D2EF1DF0A1C08DF0A2C05C
:103B58008EF0000E906F0A0E8F6F72EC33F094C0E7
:103B6800F6FF95C0F7FF000EF86E0E0EF76403D04F
:103B78000800F55005D0F6CFE1FFF7CFE2FFE75098
:103B88000001966F96518D5F000E8E5B300E8D256D
:103B9800A16F000E8E21A26F7FEF1DF0D00E966FE1
:103BA800FF0E976F94C0F6FF95C0F7FF000EF86EF2
:103BB8000E0EF76403D00800F55005D0F6CFE1FFEC
:103BC800F7CFE2FFE7500001986F996B965198275D
:103BD8009751992399510AE10A0E985DD8A0F7EFF9
:103BE8001DF0FAEF1DF0010EFBEF1DF0000E9E6FA9
:103BF8009F6B9E519F11D8A404EF1EF006EF1EF094
:103C0800A9EF1DF09A519B11D8A40DEF1EF00FEFEC
:103C18001EF01DEF1EF0A1C096F0A2C097F0961FEF
:103C2800971F964B972B96C094F097C095F021EF6D
:103C38001EF0A1C094F0A2C095F012000001BCBF14
:103C480028EF1EF02AEF1EF02BEF1EF0BD93BCBF2D
:103C580038EF1EF0BC5106E1BB05D8B036EF1EF0B8
:103C680038EF1EF03EEF1EF0000E316E010E306E82
:103C780042EF1EF0BBC030F0BCC031F0B9C032F02A
:103C8800BAC033F020C034F021C035F022C036F07D
:103C980023C037F024C038F025C039F026C03AF0E8
:103CA80027C03BF0000E3D6E1F0E3C6E000E01015A
:103CB800976FD5EF1EF03C06D8A03D06780E3C2441
:103CC800D96E010E3D20DA6E34C001F035C002F025
:103CD80036C003F037C004F038C005F039C006F02C
:103CE8003AC007F03BC008F00A0E096E000E0A6ED3
:103CF800000E0B6E000E0C6E000E0D6E000E0E6E9A
:103D0800000E0F6E000E106E47EC2BF001C028F06D
:103D180002C029F003C02AF004C02BF005C02CF023
:103D280006C02DF007C02EF008C02FF02850300F25
:103D3800DF6E3006D8A031063206D8A0330634C06C
:103D480001F035C002F036C003F037C004F038C0C7
:103D580005F039C006F03AC007F03BC008F00A0E7B
:103D6800096E000E0A6E000E0B6E000E0C6E000E31
:103D78000D6E000E0E6E000E0F6E000E106E7BECB8
:103D880029F001C034F002C035F003C036F004C099
:103D980037F005C038F006C039F007C03AF008C05F
:103DA8003BF03C503D10D8B4DCEF1EF0DEEF1EF0C7
:103DB8000FEF1FF034503510361037103810391007
:103DC8003A103B10D8A4EBEF1EF0EDEF1EF05FEFBA
:103DD8001EF031BEFAEF1EF0315006E13004D8B0C3
:103DE800F8EF1EF0FAEF1EF05FEF1EF033BE05EF9E
:103DF8001FF0335008E13204D8A005EF1FF007EF99
:103E08001FF00FEF1FF00001BDB30DEF1FF00FEF14
:103E18001FF05FEF1EF01EC013F01FC014F0780EE5
:103E28003C24156E010E3D20166E32C017F033C0CB
:103E380018F0DFEC2CF013C01EF014C01FF01200B5
:103E4800000E166E000E156E000E0F6E000E0E6E32
:103E580030EF1FF0084A092A010E146E08C0F6FF59
:103E680009C0F7FF000EF86E0E0EF76403D00800C5
:103E7800F55005D0F6CFE1FFF7CFE2FFE750200A73
:103E8800D8B449EF1FF04BEF1FF073EF1FF0F70E98
:103E98000A6EFF0E0B6E08C0F6FF09C0F7FF000E92
:103EA800F86E0E0EF76403D00800F55005D0F6CF73
:103EB800E1FFF7CFE2FFE7500C6E0D6A0A500C26BF
:103EC8000B500D220D5009E1050E0C5CD8A06FEFC8
:103ED8001FF071EF1FF073EF1FF0000E146E14C087
:103EE80010F0116A10501110D8A47DEF1FF07FEF69
:103EF8001FF02EEF1FF089EF1FF0000E0F6E010E5E
:103F08000E6E084A092AD6EF1FF008C0F6FF09C04E
:103F1800F7FF000EF86E0E0EF76403D00800F55098
:103F280005D0F6CFE1FFF7CFE2FFE7500A6E0B6A44
:103F38000B50000AD8B4A3EF1FF0D6EF1FF00A50B9
:103F48002B0AD8B485EF1FF0060AD8B481EF1FF00A
:103F5800D6EF1FF015C001F016C002F0000E046E77
:103F68000A0E036E99EC33F008C0F6FF09C0F7FF9C
:103F7800000EF86E0E0EF76403D00800F55005D059
:103F8800F6CFE1FFF7CFE2FFE7500A6E0A50015E75
:103F9800000E025A300E0124156E000E0220166E15
:103FA80085EF1FF0D00E0A6EFF0E0B6E08C0F6FFED
:103FB80009C0F7FF000EF86E0E0EF76403D0080074
:103FC800F55005D0F6CFE1FFF7CFE2FFE7500C6ED2
:103FD8000D6A0A500C260B500D220D500AE10A0EEC
:103FE8000C5CD8A0FAEF1FF0FDEF1FF0010EFEEFFA
:103FF8001FF0000E126E136A12501310D8A407EFA8
:1040080020F009EF20F0AEEF1FF00E500F10D8A4EB
:1040180010EF20F012EF20F020EF20F015C00AF08A
:1040280016C00BF00A1E0B1E0A4A0B2A0AC008F01B
:104038000BC009F024EF20F015C008F016C009F0F5
:1040480012000001BCBF2BEF20F02DEF20F02EEF67
:1040580020F0BD93BCBF3BEF20F0BC5106E1BB058F
:10406800D8B039EF20F03BEF20F042EF20F0000EFF
:104078000101096F010E086F46EF20F0BBC008F17F
:10408800BCC009F1B9C00CF1BAC00DF1ACC00EF159
:10409800ADC00FF1AEC010F1AFC011F1B0C012F158
:1040A800B1C013F1B2C014F1B3C015F1000E010193
:1040B800176F1F0E166F000E976F000E0B6F000E16
:1040C8000A6FADEF20F001011607D8A01707070EF9
:1040D8000E150A6F0B6B780E1625D96E010E172177
:1040E800DA6E0A51300FDF6E0807D8A009070C07EF
:1040F800D8A00D070EC100F10FC101F110C102F1E6
:1041080011C103F112C104F113C105F114C106F183
:1041180015C107F1040E9AEF20F0D8900733063343
:10412800053304330333023301330033E82E91EFB0
:1041380020F000C10EF101C10FF102C110F103C15D
:1041480011F104C112F105C113F106C114F107C13F
:1041580015F117BFB8EF20F0175108E11605D8A0E0
:10416800B8EF20F0BAEF20F0EBEF20F00E510F116E
:10417800101111111211131114111511D8A4C7EF30
:1041880020F0C9EF20F067EF20F009BFD6EF20F04C
:10419800095106E10805D8B0D4EF20F0D6EF20F099
:1041A80067EF20F00DBFE1EF20F00D5108E10C059D
:1041B800D8A0E1EF20F0E3EF20F0EBEF20F00001D2
:1041C800BDB3E9EF20F0EBEF20F067EF20F000013E
:1041D800BDA9F1EF20F0F3EF20F00BEF21F0010182
:1041E8000A510B11D8B4FBEF20F0FDEF20F00BEFD4
:1041F80021F01607D8A01707780E1625D96E010EDC
:104208001721DA6E300EDF6E0C07D8A00D07AAC092
:104218009FF0ABC0A0F0780E010116250001A16F38
:10422800010E010117210001A26F0CC1A3F00DC1FD
:10423800A4F015EC2CF09FC0AAF0A0C0ABF01200BF
:104248000001BCBF2AEF21F02CEF21F02DEF21F067
:10425800BD93BCBF3AEF21F0BC5106E1BB05D8B015
:1042680038EF21F03AEF21F040EF21F0000E316EE7
:10427800010E306E44EF21F0BBC030F0BCC031F00D
:10428800B9C034F0BAC035F020C036F021C037F0DC
:1042980022C038F023C039F024C03AF025C03BF0E2
:1042A80026C03CF027C03DF0000E3F6E1F0E3E6E4C
:1042B800000E0101976F000E336E000E326EAAEFEA
:1042C80021F03E06D8A03F06070E3614326E336A38
:1042D800780E3E24D96E010E3F20DA6E3250300F30
:1042E800DF6E3006D8A031063406D8A0350636C0B1
:1042F80028F037C029F038C02AF039C02BF03AC06E
:104308002CF03BC02DF03CC02EF03DC02FF0040E29
:1043180097EF21F0D8902F322E322D322C322B32BB
:104328002A3229322832E82E8EEF21F028C036F0C2
:1043380029C037F02AC038F02BC039F02CC03AF029
:104348002DC03BF02EC03CF02FC03DF03FBEB5EF76
:1043580021F03F5008E13E04D8A0B5EF21F0B7EFB7
:1043680021F0E8EF21F036503710381039103A10A4
:104378003B103C103D10D8A4C4EF21F0C6EF21F04B
:1043880065EF21F031BED3EF21F0315006E1300462
:10439800D8B0D1EF21F0D3EF21F065EF21F035BE91
:1043A800DEEF21F0355008E13404D8A0DEEF21F02B
:1043B800E0EF21F0E8EF21F00001BDB3E6EF21F0D6
:1043C800E8EF21F065EF21F00001BDA9EEEF21F043
:1043D800F0EF21F007EF22F032503310D8B4F7EFA6
:1043E80021F0F9EF21F007EF22F03E06D8A03F06B2
:1043F800780E3E24D96E010E3F20DA6E300EDF6E45
:104408003406D8A035061EC013F01FC014F0780E6D
:104418003E24156E010E3F20166E34C017F035C0CD
:1044280018F0DFEC2CF013C01EF014C01FF01200BF
:1044380020EECCF010EE9DF0060EDBCFE3FFE80691
:10444800FCE29AC0A8F09BC0A9F00001A851A911EC
:10445800D8A431EF22F033EF22F037EF22F09D0E8F
:10446800A86F000EA96FA8C08DF0A9C08EF015EC3A
:1044780032F08DC0ACF08EC0ADF0BBC0AAF0BCC0AD
:10448800ABF00001ABBF4BEF22F04DEF22F062EF33
:1044980022F0AC51AA5DAB51800A9C6FAD51800AE5
:1044A8009C59D8A05AEF22F05CEF22F05EEF22F080
:1044B80062EF22F0AAC0ACF0ABC0ADF0ACC0AAF07D
:1044C800ADC0ABF0B9C0A6F0BAC0A7F0BDB16FEFF0
:1044D80022F071EF22F08FEF22F080EF22F0000E31
:1044E800906F200E8F6F98C091F099C092F0AFEC4A
:1044F8002BF00001AC4BAD2BA651AC5DAD51800A41
:104508009C6FA751800A9C59D8A08DEF22F08FEF9D
:1045180022F073EF22F0000EA56F000EA46FA9EF32
:1045280022F0A8C0D9FFA9C0DAFFDF509C6F9C51C8
:104538008F6F906B98C091F099C092F0AFEC2BF010
:104548000001A84BA92BA44BA52BAA51A45DA551EA
:10455800800A9C6FAB51800A9C59D8A0B6EF22F014
:10456800B8EF22F095EF22F0BDA1BDEF22F0BFEF2A
:1045780022F0DDEF22F0CEEF22F0000E906F200E39
:104588008F6F98C091F099C092F0AFEC2BF00001BA
:10459800AC4BAD2BA651AC5DAD51800A9C6FA751B9
:1045A800800A9C59D8A0DBEF22F0DDEF22F0C1EFA2
:1045B80022F0ACC098F0ADC099F01200000E0001D6
:1045C8009E6F9CBFECEF22F0EAEF22F0FEEF22F0A4
:1045D8009C1F9B1F9A1F991F981F971F961F956DC9
:1045E800000E96239723982399239A239B239C2391
:1045F800010E9E6F94BF05EF23F003EF23F017EF32
:1046080023F0941F931F921F911F901F8F1F8E1FBF
:104618008D6D000E8E238F23902391239223932355
:104628009423010E9E1B20EE9FF0070EDE6AE8061B
:10463800FDE2955196119711981199119A119B11B4
:104648009C11D8B42AEF23F02CEF23F07EEF23F04F
:10465800010E9D6F3AEF23F0D8909537963797372C
:10466800983799379A379B379C379D2B9CAF3FEFEC
:1046780023F041EF23F030EF23F0D8909F37A03795
:10468800A137A237A337A437A537A63795518D5D33
:1046980096518E5997518F599851905999519159CE
:1046A8009A5192599B5193599C519459D8A05FEFB4
:1046B80023F061EF23F072EF23F095518D5F96514F
:1046C8008E5B97518F5B9851905B9951915B9A5192
:1046D800925B9B51935B9C51945B9F81D8909C33D8
:1046E8009B339A33993398339733963395339D2F69
:1046F80041EF23F09E51D8B484EF23F086EF23F0E6
:1047080096EF23F0A61FA51FA41FA31FA21FA11F7A
:10471800A01F9F6D000EA023A123A223A323A423DF
:10472800A523A6239FC08DF0A0C08EF0A1C08FF056
:10473800A2C090F0A3C091F0A4C092F0A5C093F0DD
:10474800A6C094F01200000E126E10BEB0EF23F057
:10475800AEEF23F0C2EF23F0101E0F1E0E1E0D1E2B
:104768000C1E0B1E0A1E096C000E0A220B220C22BC
:104778000D220E220F221022010E126E08BEC9EF62
:1047880023F0C7EF23F0DBEF23F0081E071E061EF9
:10479800051E041E031E021E016C000E02220322C7
:1047A80004220522062207220822010E121A20EEF0
:1047B80013F0070EDE6AE806FDE209500A100B1036
:1047C8000C100D100E100F101010D8B4EEEF23F0CF
:1047D800F0EF23F042EF24F0010E116EFEEF23F00C
:1047E800D89009360A360B360C360D360E360F368B
:1047F8001036112A10AE03EF24F005EF24F0F4EF81
:1048080023F0D89013361436153616361736183660
:1048180019361A360950015C0A5002580B500358D1
:104828000C5004580D5005580E5006580F50075894
:1048380010500858D8A023EF24F025EF24F036EFC5
:1048480024F00950015E0A50025A0B50035A0C50CA
:10485800045A0D50055A0E50065A0F50075A105058
:10486800085A1380D89010320F320E320D320C32A3
:104878000B320A320932112E05EF24F01250D8B447
:1048880048EF24F04AEF24F05AEF24F01A1E191EBC
:10489800181E171E161E151E141E136C000E142249
:1048A800152216221722182219221A2213C001F0E3
:1048B80014C002F015C003F016C004F017C005F0CC
:1048C80018C006F019C007F01AC008F0120020EE50
:1048D800CCF010EE11F0060EDBCFE3FFE806FCE2A9
:1048E8000EC01CF00FC01DF01C501D10D8A47FEF87
:1048F80024F081EF24F085EF24F0110E1C6E000ED9
:104908001D6E1CC001F01DC002F0BFEC32F001C0EA
:1049180020F002C021F0BBC01EF0BCC01FF01FBEBB
:1049280098EF24F09AEF24F0AFEF24F020501E5CAB
:104938001F50800A106E2150800A1058D8A0A7EF87
:1049480024F0A9EF24F0ABEF24F0AFEF24F01EC061
:1049580020F01FC021F020C01EF021C01FF0B9C0F8
:104968001AF0BAC01BF00001BDB1BDEF24F0BFEFD3
:1049780024F0DCEF24F0CDEF24F0000E046E200EBE
:10498800036E0CC005F00DC006F07AEC2CF0204A3E
:10499800212A1A50205C2150800A106E1B50800A70
:1049A8001058D8A0DAEF24F0DCEF24F0C1EF24F09F
:1049B800000E196E000E186EF5EF24F01CC0D9FF1A
:1049C8001DC0DAFFDF50106E1050036E046A0CC071
:1049D80005F00DC006F07AEC2CF01C4A1D2A184A86
:1049E800192A1E50185C1950800A106E1F50800A30
:1049F8001058D8A002EF25F004EF25F0E2EF24F0DC
:104A08000001BDA10AEF25F00CEF25F029EF25F0F4
:104A18001AEF25F0000E046E200E036E0CC005F090
:104A28000DC006F07AEC2CF0204A212A1A50205C9E
:104A38002150800A106E1B50800A1058D8A027EF0A
:104A480025F029EF25F00EEF25F020C00CF021C04D
:104A58000DF01200000E0001A96FD2EF25F0D890DA
:104A68009A35F66E9B35F76E350EF626F10EF7225F
:104A7800F86A000EF8220900F5CFA0F00900F5CF7A
:104A8800A1F0A951A05F000EA15B9651A025926FDD
:104A98009751A121936F98C094F099C095F03DEC7F
:104AA80031F0000E0001AA6F000EAB6FA951A06F84
:104AB800A16BD890A037A137D8909A35F66E9B3560
:104AC800F76E350EF626F10EF722F86A000EF82278
:104AD8000900F5CFA2F00900F5CFA3F0D890A237CE
:104AE800A337A051A25FA151A35BAA51A25F000EF8
:104AF800A35B9A51A2279B51A323D890A237A3372F
:104B0800350EA225F66EF10EA321F76EF86A000E97
:104B1800F8220900F5CFA4F00900F5CFA5F0ABC045
:104B2800A6F0800EA76F000EA86FA62B9FEF25F0AA
:104B3800A835A833A733A62F9CEF25F00001A45170
:104B4800A717A551A817A751A811D8B4AEEF25F0FB
:104B5800B0EF25F0B8EF25F09CC090F09DC091F023
:104B6800F6EC33F0BEEF25F09EC090F09FC091F0B8
:104B7800F6EC33F00001AB2B070EAB65C6EF25F062
:104B8800C8EF25F05AEF25F0AA2B010EAA65CFEF42
:104B980025F0D1EF25F058EF25F0A92BD8909A35BC
:104BA800F66E9B35F76E350EF626F10EF722F86A8B
:104BB800000EF822A951A06FA16B0900F550A05D65
:104BC8000900F550A159D8A0ECEF25F0EEEF25F03B
:104BD80033EF25F01200000E00019E6F94BFF9EF2D
:104BE80025F0F7EF25F00BEF26F0941F931F921F87
:104BF800911F901F8F1F8E1F8D6D000E8E238F2388
:104C080090239123922393239423010E9E6F9CBF9C
:104C180012EF26F010EF26F022EF26F09C1F9B1FC4
:104C28009A1F991F981F971F961F956D000E962320
:104C38009723982399239A239B239C239551961174
:104C48009711981199119A119B119C11D8B42FEFB3
:104C580026F031EF26F079EF26F0010E9D6F3FEF39
:104C680026F0D890953796379737983799379A37E7
:104C78009B379C379D2B9CAF44EF26F046EF26F0E0
:104C880035EF26F095518D5D96518E5997518F5974
:104C980098519059995191599A5192599B519359B8
:104CA8009C519459D8A05BEF26F05DEF26F06DEF8C
:104CB80026F095518D5F96518E5B97518F5B985179
:104CC800905B9951915B9A51925B9B51935B9C517C
:104CD800945BD8909C339B339A33993398339733AA
:104CE800963395339D2F46EF26F09E51D8B47FEF2B
:104CF80026F081EF26F091EF26F0941F931F921F64
:104D0800911F901F8F1F8E1F8D6D000E8E238F2376
:104D1800902391239223932394238DC08DF08EC0EA
:104D28008EF08FC08FF090C090F091C091F092C03B
:104D380092F093C093F094C094F01200000E126E9B
:104D480008BEABEF26F0A9EF26F0BDEF26F0081E4F
:104D5800071E061E051E041E031E021E016C000E01
:104D68000222032204220522062207220822010E1B
:104D7800126E10BEC4EF26F0C2EF26F0D4EF26F074
:104D8800101E0F1E0E1E0D1E0C1E0B1E0A1E096C79
:104D9800000E0A220B220C220D220E220F221022B4
:104DA80009500A100B100C100D100E100F101010D7
:104DB800D8B4E1EF26F0E3EF26F02BEF27F0010E51
:104DC800116EF1EF26F0D89009360A360B360C36FC
:104DD8000D360E360F361036112A10AEF6EF26F0C5
:104DE800F8EF26F0E7EF26F00950015C0A50025868
:104DF8000B5003580C5004580D5005580E500658C7
:104E08000F50075810500858D8A00DEF27F00FEF93
:104E180027F01FEF27F00950015E0A50025A0B5085
:104E2800035A0C50045A0D50055A0E50065A0F508A
:104E3800075A1050085AD89010320F320E320D32DD
:104E48000C320B320A320932112EF8EF26F01250CA
:104E5800D8B431EF27F033EF27F043EF27F0081EDF
:104E6800071E061E051E041E031E021E016C000EF0
:104E7800022203220422052206220722082201C058
:104E880001F002C002F003C003F004C004F005C042
:104E980005F006C006F007C007F008C008F01200C9
:104EA800D9EF27F0000E0001B36F000EB26F000EAD
:104EB800B16F000EB06F80EF27F0D890B235F66E64
:104EC800B335F76E350EF626F10EF722F86A000EA6
:104ED800F8220900F5CFACF00900F5CFADF0D89075
:104EE800AC37AD37010EAC27000EAD23AC51B2275D
:104EF800AD51B323B04BB12BE00EAC6FFF0EAD6FCD
:104F080004C1F6FF05C1F7FF000EF86E0E0EF76438
:104F180003D00800F55005D0F6CFE1FFF7CFE2FF48
:104F2800E7500001AE6FAF6BAC51AE27AD51AF2368
:104F3800AE51B05DAF51B159D8A0A5EF27F0A7EF9A
:104F480027F061EF27F000C196F001C197F002C188
:104F580098F003C199F0B2C09AF0B3C09BF006C1B3
:104F68009CF007C19DF008C19EF009C19FF02EEC8E
:104F780025F0D8900001B235F66EB335F76E350ED0
:104F8800F626F10EF722F86A000EF8220900F5CF8E
:104F9800ACF00900F5CFADF0AC51010100270001DC
:104FA800AD5101010123044B052B04C1F6FF05C1D6
:104FB800F7FF000EF86E0E0EF76403D00800F550E8
:104FC80005D0F6CFE1FFF7CFE2FFE7500009D8A4FC
:104FD800F0EF27F0F2EF27F056EF27F01200800EDF
:104FE80001014C5DD8A0FBEF27F0FDEF27F005EF9E
:104FF80028F0000E736F4B0E726F49694A697AEF99
:1050080028F049C159F14AC15AF14C5109E1020E3F
:105018004B5DD8A012EF28F014EF28F020EF28F00D
:10502800FF0E4B255D6FFF0E4C215E6F000E5C6F0F
:10503800000E5B6F28EF28F0000E5E6F010E5D6FAB
:10504800000E5C6F010E5B6F590E416F010E426FCF
:105058004DC143F14EC144F14FC145F150C146F134
:10506800A7EC2EF041C157F142C158F101014B5153
:105078004C11D8B442EF28F044EF28F076EF28F02E
:1050880058BF49EF28F04BEF28F076EF28F0FF0ED5
:10509800516FFF0E526F4BC153F14CC154F1515136
:1050A8005327525154235351575D54515859D8A03E
:1050B80060EF28F062EF28F06AEF28F0FF0E4B252A
:1050C800556FFF0E4C21566F6EEF28F057C155F102
:1050D80058C156F155514925D96E56514A21DA6EB3
:1050E800000EDF6E57C149F158C14AF11200000E97
:1050F8000001A26FA0BF85EF28F083EF28F08FEFA3
:1051080028F0A01F9F1F9E1F9D6D000E9E239F23AA
:10511800A023010EA26F9CBF96EF28F094EF28F011
:10512800A0EF28F09C1F9B1F9A1F996D000E9A23D1
:105138009B239C23010EA21B000EA36F000EA46FDD
:10514800000EA56F000EA66F9D519E119F11A01114
:10515800D8B4B1EF28F0B3EF28F0E9EF28F0010E4A
:10516800A16FBDEF28F0D8909D379E379F37A037A5
:10517800A12BA0AFC2EF28F0C4EF28F0B7EF28F0BA
:10518800D890A337A437A537A6379D51995D9E516E
:105198009A599F519B59A0519C59D8A0D6EF28F0F5
:1051A800D8EF28F0E1EF28F09D51995F9E519A5B66
:1051B8009F519B5BA0519C5BA381D890A0339F33E8
:1051C8009E339D33A12FC4EF28F0A251D8B4EFEF3E
:1051D80028F0F1EF28F0F9EF28F0A61FA51FA41F6B
:1051E800A36D000EA423A523A623A3C099F0A4C0F1
:1051F8009AF0A5C09BF0A6C09CF0120020EE9DF08E
:10520800070EDE6AE806FDE2000195519611971136
:10521800981199119A119B119C11D8B416EF29F085
:1052280018EF29F06AEF29F0010EA56F26EF29F093
:10523800D890953796379737983799379A379B3755
:105248009C37A52B9CAF2BEF29F02DEF29F01CEFF5
:1052580029F0D8909D379E379F37A037A137A237BE
:10526800A337A43795518D5D96518E5997518F5913
:1052780098519059995191599A5192599B519359D2
:105288009C519459D8A04BEF29F04DEF29F05EEFCF
:1052980029F095518D5F96518E5B97518F5B985190
:1052A800905B9951915B9A51925B9B51935B9C5196
:1052B800945B9D81D8909C339B339A339933983370
:1052C800973396339533A52F2DEF29F09DC08DF098
:1052D8009EC08EF09FC08FF0A0C090F0A1C091F04A
:1052E800A2C092F0A3C093F0A4C094F0120020EEE4
:1052F80011F0070EDE6AE806FDE209500A100B10ED
:105308000C100D100E100F101010D8B48EEF29F0DD
:1053180090EF29F0E2EF29F0010E196E9EEF29F0C7
:10532800D89009360A360B360C360D360E360F363F
:105338001036192A10AEA3EF29F0A5EF29F094EF43
:1053480029F0D8901136123613361436153616361B
:10535800173618360950015C0A5002580B5003588A
:105368000C5004580D5005580E5006580F50075849
:1053780010500858D8A0C3EF29F0C5EF29F0D6EF90
:1053880029F00950015E0A50025A0B50035A0C507A
:10539800045A0D50055A0E50065A0F50075A10500D
:1053A800085A1180D89010320F320E320D320C325A
:1053B8000B320A320932192EA5EF29F011C001F07B
:1053C80012C002F013C003F014C004F015C005F0B9
:1053D80016C006F017C007F018C008F012008DC0FC
:1053E80094F08EC095F08FC096F090C097F00001B1
:1053F8009107D8A09207912906E19229D8A407EF2E
:105408002AF009EF2AF016EF2AF0000E8E6F000E30
:105418008D6F68EF2AF0944B952B964B972B91073D
:10542800D8A0920794C0F6FF95C0F7FFF86A080065
:10543800F5500009D8B423EF2AF025EF2AF054EFED
:105448002AF096C0F6FF97C0F7FFF86A0800F550F3
:105458000009D8B432EF2AF034EF2AF054EF2AF0DA
:1054680091519211D8B43BEF2AF03DEF2AF054EF56
:105478002AF094C0F6FF95C0F7FFF86A0800F5CF48
:1054880093F096C0F6FF97C0F7FFF86A0800F5504A
:105498009319D8B452EF2AF054EF2AF00FEF2AF0FC
:1054A80094C0F6FF95C0F7FFF86A0800F5CF93F0AF
:1054B80096C0F6FF97C0F7FFF86A0800F550935DAD
:1054C8008D6F8E6BD8A08E07120001C008F002C045
:1054D80009F003C00AF004C00BF00506D8A00606C0
:1054E800052806E10628D8A47CEF2AF07EEF2AF0EA
:1054F8008BEF2AF0000E026E000E016EDDEF2AF02F
:10550800084A092A0A4A0B2A0506D8A0060608C02E
:10551800F6FF09C0F7FFF86A0800F5500009D8B48B
:1055280098EF2AF09AEF2AF0C9EF2AF00AC0F6FF9E
:105538000BC0F7FFF86A0800F5500009D8B4A7EFC8
:105548002AF0A9EF2AF0C9EF2AF005500610D8B4BE
:10555800B0EF2AF0B2EF2AF0C9EF2AF008C0F6FF40
:1055680009C0F7FFF86A0800F5CF07F00AC0F6FF90
:105578000BC0F7FFF86A0800F5500718D8B4C7EF52
:105588002AF0C9EF2AF084EF2AF008C0F6FF09C014
:10559800F7FFF86A0800F5CF07F00AC0F6FF0BC05E
:1055A800F7FFF86A0800F550075C016E026AD8A098
:1055B8000206120000019551961197119811991140
:1055C8009A119B119C11D8B4ECEF2AF0EEEF2AF057
:1055D80036EF2BF0010E9D6FFCEF2AF0D89095372F
:1055E80096379737983799379A379B379C379D2B3B
:1055F8009CAF01EF2BF003EF2BF0F2EF2AF095515F
:105608008D5D96518E5997518F599851905999514E
:1056180091599A5192599B5193599C519459D8A098
:1056280018EF2BF01AEF2BF02AEF2BF095518D5F26
:1056380096518E5B97518F5B9851905B9951915B16
:105648009A51925B9B51935B9C51945BD8909C338D
:105658009B339A33993398339733963395339D2FE9
:1056680003EF2BF08DC08DF08EC08EF08FC08FF0C1
:1056780090C090F091C091F092C092F093C093F0D6
:1056880094C094F0120009500A100B100C100D1061
:105698000E100F101010D8B454EF2BF056EF2BF05B
:1056A8009EEF2BF0010E116E64EF2BF0D8900936A7
:1056B8000A360B360C360D360E360F361036112AD2
:1056C80010AE69EF2BF06BEF2BF05AEF2BF009506F
:1056D800015C0A5002580B5003580C5004580D50E6
:1056E80005580E5006580F50075810500858D8A0A3
:1056F80080EF2BF082EF2BF092EF2BF00950015E38
:105708000A50025A0B50035A0C50045A0D50055AAD
:105718000E50065A0F50075A1050085AD890103297
:105728000F320E320D320C320B320A320932112E80
:105738006BEF2BF001C001F002C002F003C003F0D0
:1057480004C004F005C005F006C006F007C007F065
:1057580008C008F01200000191519211D8B4B7EFB7
:105768002BF0B9EF2BF0C2EF2BF091519211D8A486
:10577800C0EF2BF0C2EF2BF0C7EF2BF08F5140ECAE
:1057880034F014EF2CF020EE04F09151D926925108
:10579800DA22DE50DE10D8B4D4EF2BF0D6EF2BF09F
:1057A800F1EF2BF020EE04F09151D9269251DA2234
:1057B80010EE02F09151E1269251E222DE50E65CB1
:1057C800E650800A976FDE50800A9759D8B0EFEFFD
:1057D8002BF0F1EF2BF014EF2CF020EE02F09151AA
:1057E800D9269251DA22DECF93F0DDCF94F091C022
:1057F800D9FF92C0DAFFDECF95F0DDCF96F0935156
:105808009525D96E94519621DA6E8FC0DFFF20EE70
:1058180002F09151D9269251DA22DE2A000EDD22B9
:1058280012000001BDA11BEF2CF01DEF2CF027EF9B
:105838002CF0A1C098F0A2C099F09FC09AF0A0C027
:105848009BF090EC30F00001A4BF2DEF2CF02FEF6F
:105858002CF035EF2CF0A3C0A8F0A4C0A9F039EFC4
:105868002CF0000EA96F000EA86F000EA76F000E97
:10587800A66F4CEF2CF0000E906F200E8F6F9FC01C
:1058880091F0A0C092F0AFEC2BF00001A64BA72B33
:10589800A851A65DA751800AA56FA951800AA559EC
:1058A800D8A059EF2CF05BEF2CF03FEF2CF0BDB1F6
:1058B80060EF2CF062EF2CF06CEF2CF0A1C098F0A8
:1058C800A2C099F09FC09AF0A0C09BF090EC30F075
:1058D800A1C08DF0A2C08EF015EC32F00001A851E5
:1058E8008D259F6FA9518E21A06F120005500610BB
:1058F800D8B481EF2CF083EF2CF08CEF2CF005500E
:105908000610D8A48AEF2CF08CEF2CF091EF2CF035
:10591800035061EC34F0DEEF2CF020EE04F005507B
:10592800D9260650DA22DE50DE10D8B49EEF2CF0CD
:10593800A0EF2CF0BBEF2CF020EE04F00550D92698
:105948000650DA2210EE02F00550E1260650E22257
:10595800DE50E65CE650800A0B6EDE50800A0B587B
:10596800D8B0B9EF2CF0BBEF2CF0DEEF2CF020EE26
:1059780002F00550D9260650DA22DECF07F0DDCF37
:1059880008F005C0D9FF06C0DAFFDECF09F0DDCF89
:105998000AF007500924D96E08500A20DA6E03C0AD
:1059A800DFFF20EE02F00550D9260650DA22DE2A63
:1059B800000EDD2212000001BDA1E5EF2CF0E7EF9B
:1059C8002CF0F1EF2CF015C00CF016C00DF013C040
:1059D8000EF014C00FF0FAEC30F018BEF6EF2CF011
:1059E800F8EF2CF0FEEF2CF017C01CF018C01DF0DB
:1059F80002EF2DF0000E1D6E000E1C6E000E1B6EC9
:105A0800000E1A6E14EF2DF0000E046E200E036EB9
:105A180013C005F014C006F07AEC2CF01A4A1B2AC1
:105A28001C501A5C1B50800A196E1D50800A1958A8
:105A3800D8A021EF2DF023EF2DF008EF2DF0000175
:105A4800BDB129EF2DF02BEF2DF035EF2DF015C05E
:105A58000CF016C00DF013C00EF014C00FF0FAECE5
:105A680030F015C001F016C002F0BFEC32F01C5047
:105A78000124136E1D500220146E1200000E000146
:105A8800B36F000EB26F82EF2DF09EAA4EEF2DF08D
:105A980050EF2DF049EF2DF024EC34F00009D8B484
:105AA80058EF2DF05AEF2DF07FEF2DF0A60E0001E4
:105AB800B225D96E000EB321DA6E34EC33F0DF6E06
:105AC8001FEC33F00009D8B46CEF2DF06EEF2DF019
